:020000040000FA
:10000000E1EF23F0C69A120024EF1FF0BFEC09F0D5
:1000100085EC19F0FDD71200DFEF21F0D9CFE5FF15
:10002000E1CFD9FF00C0E5FF01C0E5FF02C0E5FF59
:1000300003C0E5FF04C0E5FF05C0E5FF06C0E5FF1E
:1000400007C0E5FF08C0E5FF09C0E5FF0AC0E5FFFE
:100050000BC0E5FF0CC0E5FF0DC0E5FF0EC0E5FFDE
:100060000FC0E5FF10C0E5FF11C0E5FF12C0E5FFBE
:1000700013C0E5FF14C0E5FF15C0E5FF16C0E5FF9E
:1000800017C0E5FF18C0E5FF19C0E5FF1AC0E5FF7E
:100090001BC0E5FF1CC0E5FF1DC0E5FF1EC0E5FF5E
:1000A000020EDBCF00F0030EDBCF01F0040EDBCF3E
:1000B00002F0050EDBCF03F0060EDBCF04F0070ED7
:1000C000DBCF05F0080EDBCF06F0090EDBCF07F023
:1000D0000A0EDBCF08F0096A0A6A02C00DF00D5063
:1000E000800A0DE102500301706F01506F6F0050E4
:1000F0006E6F030E016E6E0E006E800E026E03C0F8
:10010000E9FF04C0F3FF05502BEC24F00B6E0B50FD
:10011000D8B4C4EF03F00B50250A02E0ABEF03F0B4
:100120000C6A0D6A0E6A0F6A106A0A0E116E126A64
:10013000136A146A200E156E1668176A2B0E186E55
:10014000032A02E3044A052A03C0E9FF04C0F3FFBF
:1001500005502BEC24F0196E250A13E11950E56EB9
:100160000250E56E0150E56E0050E56E4AEC13F06A
:10017000040EE126094A0A2A032A02E3044A052A50
:10018000BED71950300A06E1300E156E032A02E37D
:10019000044A052A03C0E9FF04C0F3FF05502BEC15
:1001A00024F02D0A06E1010E146E032A02E3044A2C
:1001B000052A03C0E9FF04C0F3FF05502BEC24F02F
:1001C000200A08E1010E176E200E186E032A02E3C2
:1001D000044A052A03C0E9FF04C0F3FF05502BECD5
:1001E00024F02B0A06E1010E176E032A02E3044AEB
:1001F000052A03C0E9FF04C0F3FF05502BEC24F0EF
:10020000196E310E195C2BE33A0E195C28E203C01B
:1002100019F004C01AF005C01BF019C0E9FF1AC09C
:10022000F3FF1B502BEC24F01C6E300E1C5C11E312
:100230003A0E1C5C0EE213500A0DF3CF1DF01D5058
:100240001C26D00E1C24136E192A02E31A4A1B2AFC
:10025000E4D719C003F01AC004F01BC005F003C0B6
:10026000E9FF04C0F3FF05502BEC24F02E0A2DE12A
:10027000032A02E3044A052A166A03C019F004C0DF
:100280001AF005C01BF019C0E9FF1AC0F3FF1B509C
:100290002BEC24F01C6E300E1C5C11E33A0E1C5C3F
:1002A0000EE216500A0DF3CF1DF01D501C26D00E85
:1002B0001C24166E192A02E31A4A1B2AE4D719C015
:1002C00003F01AC004F01BC005F003C0E9FF04C02E
:1002D000F3FF05502BEC24F0196E6C0A07E1010EB8
:1002E0000C6E032A02E3044A052A09D01950680A51
:1002F00006E1010E0E6E032A02E3044A052A03C03A
:10030000E9FF04C0F3FF05502BEC24F0750A06E169
:10031000010E106E032A02E3044A052A03C0E9FF16
:1003200004C0F3FF05502BEC24F0196E730A05E1AD
:10033000010E0D6E200E156E3FD01950780A03E1A4
:10034000100E116E39D01950580A05E1100E116EB9
:10035000010E126E31D01950630A02E1116A2CD0DD
:1003600019506F0A03E1080E116E26D01950660A63
:1003700003E1010E0F6E20D01950640A1DE01950E0
:10038000690A1AE0105005E0FF0E03260422052238
:1003900013D01950E56E0250E56E0150E56E005025
:1003A000E56E4AEC13F0040EE126094A0A2A032AF4
:1003B00002E3044A052AA3D60D5021E00650030F9C
:1003C0000D6E000E0720196E000E08201A6E0DC06B
:1003D00006F019C007F01AC008F0FD0E0D26FF0E3A
:1003E00019221A220DC0E9FF19C0F3FF1A50DEECE2
:1003F00022F00D6EF3CF19F0F4CF1AF0FDD00F50AC
:100400000DE0000E1A6E080E196E100E0D6E040E21
:100410000626000E072208221668EED016680C5039
:1004200023E00650040F0C6E000E07200F6E000E26
:1004300008201B6E0CC006F00FC007F01BC008F0B0
:10044000FC0E0C26FF0E0F221B220CC0E9FF0FC072
:10045000F3FF1B5028EC22F00C6EF3CF0FF0F4CF1B
:100460001BF0E9CF1CF067D00E502FE00650020FB2
:100470000E6E000E07201D6E000E08201E6E0EC0B0
:1004800006F01DC007F01EC008F0FE0E0E26FF0E7F
:100490001D221E220EC0E9FF1DC0F3FF1E50B5EC49
:1004A00023F00E6E0EC00CF00F6A1B6A1C6A11500E
:1004B0000A0A03E11050D8B43ED00C500E6E0EC0A4
:1004C0000CF00F6A1B6A1C6A36D00650020F0E6EC3
:1004D000000E07201D6E000E08201E6E0EC006F0D6
:1004E0001DC007F01EC008F0FE0E0E26FF0E1D22D6
:1004F0001E220EC0E9FF1DC0F3FF1E50B5EC23F015
:100500000E6EF3CF1DF00EC00CF01DC00FF0E86AA8
:100510001DBEFF0E1B6E1C6E11500A0A02E1105028
:100520000AE00C500E6E0F501D6E0EC00CF01DC078
:100530000FF01B6A1C6A040E196EF40E0D6E800E0D
:100540001A6E1150D8B440D0105013E01150E56E1F
:10055000040EE56EF40EE56E1C50E56E1B50E56E64
:100560000F50E56E0C50E56EE3EC0DF0070EE12642
:1005700012D01150E56E040EE56EF40EE56E1C50BF
:10058000E56E1B50E56E0F50E56E0C50E56EC1EC4C
:1005900018F0070EE12617502FE00DC0E9FF19C033
:1005A000F3FF1A502BEC24F02D0A26E0FF0E0D2647
:1005B00019221A2218C0E5FF0DC0E9FF19C0F3FF88
:1005C0001A50B3EC24F018D00CC0E5FF0DC0E9FFC1
:1005D00019C0F3FF1A50B3EC24F00D50010F0C6E4C
:1005E000000E19200E6E000E1A20E56A0CC0E9FFFD
:1005F0000EC0F3FFB3EC24F00DC00CF019C00EF0E8
:100600001AC00FF013C010F0105010E00CC0E9FF3A
:100610000EC0F3FF0F502BEC24F0176E175006E0BE
:100620000C2A02E30E4A0F2A1006EED710C013F070
:1006300014501EE109C00CF00AC00EF010C00FF0FB
:100640000F5010E01550E56E0250E56E0150E56E5A
:100650000050E56E4AEC13F0040EE1260C4A0E2A17
:100660000F06EED70CC009F00EC00AF00FC013F051
:1006700016C00CF00DC00DF019C00EF01AC00FF02E
:1006800009C010F00AC015F00DC0E9FF0EC0F3FF5D
:100690000F502BEC24F0166E1650D8B43ED00CC080
:1006A00016F0176A161E171E1650171005E00CC01C
:1006B00016F00C06165031E00DC0E9FF0EC0F3FF36
:1006C0000F502BEC24F0116E125010E01150E56E1B
:1006D00072EC23F0166EE652165004E0DF0E111491
:1006E000166E02D011C016F016C011F01150E56E52
:1006F0000250E56E0150E56E0050E56E4AEC13F0D5
:10070000040EE1260D2A02E30E4A0F2A104A152A8A
:100710001350D8B4B9D71306B7D710C009F015C015
:100720000AF014502BE010C00CF015C00DF013C0EF
:100730000EF00E501FE0200EE56E0250E56E0150E7
:10074000E56E0050E56E4AEC13F0040EE1260C4A0B
:100750000D2A0E06EED70B50E56E0250E56E0150E5
:10076000E56E0050E56E4AEC13F0040EE126094AEE
:100770000A2A04D00CC009F00DC00AF0032A02E3D3
:10078000044A052A7FEF00F00AC0F3FF0950E4CFC6
:100790001EF0E4CF1DF0E4CF1CF0E4CF1BF0E4CF5B
:1007A0001AF0E4CF19F0E4CF18F0E4CF17F0E4CF5B
:1007B00016F0E4CF15F0E4CF14F0E4CF13F0E4CF5B
:1007C00012F0E4CF11F0E4CF10F0E4CF0FF0E4CF5B
:1007D0000EF0E4CF0DF0E4CF0CF0E4CF0BF0E4CF5B
:1007E0000AF0E4CF09F0E4CF08F0E4CF07F0E4CF5B
:1007F00006F0E4CF05F0E4CF04F0E4CF03F0E4CF5B
:1008000002F0E4CF01F0E4CF00F0E4CFD9FF120012
:100810003C4E4F20464C4F41543E000000C0E5FF87
:1008200001C0E5FF02C0E5FF03C0E5FF04C0E5FF2E
:1008300005C0E5FF06C0E5FF07C0E5FF08C0E5FF0E
:1008400009C0E5FF0AC0E5FF0BC0E5FF0CC0E5FFEE
:10085000006A016A026A040E025CD8B0E8D101C0E5
:1008600003F0012A100E035CD8B0E1D10001F02B97
:10087000100EF05D01E3F06B0001F039E8441F0B4E
:10088000036E046A730E0326030E042203C0E9FFFD
:1008900004C0EAFFEFCF03F0070EF015046E010E5F
:1008A000056E000E066E045006E0E86CD890053622
:1008B0000636010FFCE3076A0350051607500616BB
:1008C00005500610D880E866D890056A05360550B0
:1008D000D8A4C1D70001F051020DF450046EF3CF3B
:1008E00003F0390E0324056E040E0420066E05C0C5
:1008F000E9FF06C0EAFFEECF05F0EFCF06F00001FA
:10090000EDA19DD0B30E0324076E040E0420086EE3
:1009100007C0E9FF08C0EAFFEECF07F0EFCF08F00D
:100920000650800FF36E0850800FF35C02E1075011
:10093000055C03E2056A066A60D0D30E0326040E46
:10094000042203C0E9FF04C0EAFFEECF03F0EFCFBB
:1009500004F00450800FF36E0650800FF35C02E148
:100960000550035C04E205683F0E066E46D0075052
:10097000055C096E085006580A6EE86A0ABEFF0E4A
:100980000B6EE56E0B50E56E0A50E56E0950E56E94
:10099000E56AE56A400EE56E000EE56AF0EC0AF0E5
:1009A000096EF3CF0AF0F4CF0BF0E9CF0CF0080E8C
:1009B000E1260750035C076E08500458086EE86A89
:1009C00008BEFF0E036EE56E0350E56E0850E56E3F
:1009D0000750E56E0C50E56E0B50E56E0A50E56E63
:1009E0000950E56E8DEC10F0036EF3CF04F0080EA5
:1009F000E1260350056E0450066E0001EC51800F95
:100A0000F36E0650800FF35C02E10550EB5D03E3EB
:100A1000056A066A14D00001EB51FF08036E3F0E11
:100A2000EC55046E0650800FF36E0450800FF35C9B
:100A300002E10350055C03E305683F0E066E00010A
:100A4000F051020DF450046EF3CF03F0930E032621
:100A5000040E042203C0E9FF04C0EAFFEECF03F056
:100A6000EFCF04F00350055C036E04500658046E8B
:100A7000D88004AED89004E3041E036CD8B4042AD2
:100A8000022A0001EC51800FF36E0450800FF35CDA
:100A900002E10350EB5DD8B0DED60001F051020D4B
:100AA000F450086EF3CF07F0930E0726040E0822C9
:100AB00007C0E9FF08C0EAFF05C0EEFF06C0EFFF70
:100AC0000001EDA55AD00001F051020DF450086E5E
:100AD000F3CF07F0000E0724096E030E08200A6EFC
:100AE00009C0E9FF0AC0EAFFEECF0BF0EFCF0CF030
:100AF0000B500C10D8B441D0590E0726040E082212
:100B000007C0E9FF08C0EAFFEECF07F0EFCF08F01B
:100B10000750055C036E08500658046E03101CE075
:100B20000450800F800F02E1010E035C076A073654
:100B30000C50800F800F02E1010E0B5C0B6A0B362C
:100B400007500B1809E109C0E9FF0AC0EAFF03C01A
:100B5000EEFF04C0EFFF7FD60001F051020DF4500C
:100B6000046EF3CF03F0000E0326030E042203C02D
:100B7000E9FF04C0EAFFEE6AEF6A0001EDA343D08B
:100B800000500EE100C003F0002A046AF10E0326B3
:100B9000000E042203C0E9FF04C0EAFF420EEF6E1C
:100BA00000C003F0002A046AF10E0326000E04229E
:100BB000640E0001F025076E03C0E9FF04C0EAFFE0
:100BC00007C0EFFF00C003F0002A046AF10E0326FD
:100BD000000E04220650076E03C0E9FF04C0EAFFBE
:100BE00007C0EFFF00C003F0002A046AF10E0326DD
:100BF000000E04220550076E03C0E9FF04C0EAFF9F
:100C000007C0EFFF28D6F0C003F00650E56E055090
:100C1000E56EE56A0350E56E000EE56E280EE56EA2
:100C2000A00EE56EB7EC1DF0070EE12614D602C04B
:100C300001F000501DE00001EDA31AD000C002F049
:100C4000002A036AF10E0226000E032202C0E9FF09
:100C500003C0EAFF0A0EEF6E0050E56E800EE56EEF
:100C6000000EE56EF10EE56ED4EC14F0040EE126F4
:100C70000150E4CF0CF0E4CF0BF0E4CF0AF0E4CF66
:100C800009F0E4CF08F0E4CF07F0E4CF06F0E4CFBA
:100C900005F0E4CF04F0E4CF03F0E4CF02F0E4CFBA
:100CA00001F0E4CF00F0120000C0E5FF01C0E5FF55
:100CB00002C0E5FF03C0E5FF04C0E5FF05C0E5FF96
:100CC00006C0E5FF07C0E5FF08C0E5FF09C0E5FF76
:100CD0000AC0E5FFC2A204D00001EE5167EF08F0A0
:100CE0000001EF51D8B41BD10001EE51020DF450B8
:100CF000016EF3CF00F0390E0026040E012200C071
:100D0000E9FF01C0EAFFEECF00F0EFCF01F0230EC4
:100D1000EE25026E036A040E032202C0E9FF03C03F
:100D2000EAFFEFCF02F00250FF0A01E152D0023891
:100D30000F0B036E920E0324046E056A0F0E05223C
:100D4000066A920E03260F0E062203C0E9FF06C0B4
:100D5000EAFFEFCF03F0070E0214066E010E076ED6
:100D6000065005E0E86CD8900736010FFDE3071C3C
:100D7000066E031604C0E9FF05C0EAFF03C0EFFFDB
:100D800002380F0B036E890E0324046E056A0F0EE2
:100D90000522066A890E03260F0E062203C0E9FF0C
:100DA00006C0EAFFEFCF03F0070E0214066E010E35
:100DB000076E065005E0E86CD8900736010FFDE39A
:100DC000071C066E031604C0E9FF05C0EAFF03C056
:100DD000EFFF0001EE51020DF450046EF3CF03F06B
:100DE000390E0326040E042200380F0B056E01385D
:100DF000066EF00B061A0526F00E06B606260550FE
:100E0000005C056E06500158066EC3CF07F0086AF5
:100E10000750052608500622C4CF07F0086A07507D
:100E20000A6E096A095005260A50062203C0E9FF26
:100E300004C0EAFF05C0EEFF06C0EFFF0001EA5163
:100E4000010A01E06AD00001EE51020DF450046E77
:100E5000F3CF03F0390E0324056E040E0420066E52
:100E600005C0E9FF06C0EAFFEECF00F0EFCF01F0CA
:100E7000B30E0326040E042203C0E9FF04C0EAFFF8
:100E8000EECF05F0EFCF06F09C0E0526D8A00606A3
:100E90000150800FF36E0650800FF35C02E10550A5
:100EA000005C0EE20050640F056E000E0120066E1D
:100EB00003C0E9FF04C0EAFF05C0EEFF06C0EFFF74
:100EC0000001EE51020DF450046EF3CF03F0D30E87
:100ED0000326040E042203C0E9FF04C0EAFFEECF9C
:100EE00005F0EFCF06F0640E0526D8B0062A0650AE
:100EF000800FF36E0150800FF35C02E10050055C3F
:100F00000CE29C0E0026D8A0010603C0E9FF04C035
:100F1000EAFF00C0EEFF01C0EFFF0001EF6B000130
:100F2000EE2B100EEE5D01E3EE6B0001EE39E844AE
:100F30001F0B006E016A730E0026030E012200C013
:100F4000E9FF01C0EAFFEFCF00F0070EEE15016EDA
:100F5000010E036E000E046E015006E0E86CD8909E
:100F600003360436010FFCE3056A005003160550F2
:100F7000041603500410D880E866D890036A03363C
:100F80000350D8A4A2D0230E0001EE25006E016A02
:100F90000F0E012200C0E9FF01C0EAFFEFCF00F011
:100FA0000044E844FC0B016E0128C26E230EEE25BE
:100FB000006E016A040E012200C0E9FF01C0EAFFD1
:100FC000EFCF02F00250FF0A01E17BD002380F0B95
:100FD000006E920E0024016E036A0F0E0322046A53
:100FE000920E00260F0E042200C0E9FF04C0EAFFA3
:100FF000EFCF00F0070E0214046E010E056E0450D0
:1010000005E0E86CD8900536010FFDE305500012AD
:1010100001C0E9FF03C0EAFF00C0EFFF380E006E19
:101020000F0E016E02380F0B036E046A0350002688
:1010300004500122380E056E0F0E066E0550032671
:101040000650042203C0E9FF04C0EAFFEFCF03F01B
:10105000070E0216010E046E025005E0E86CD890EF
:101060000436010FFDE30450031200C0E9FF01C084
:10107000EAFF03C0EFFF0F01458300000000459326
:101080000F0144930BC0E5FFF2CF0BF0F29E4481B9
:101090000000000000000000000000000000000050
:1010A0000000000000000000000000000000000040
:1010B000000000000000000044910BBEF28EE4CF5F
:1010C0000BF0C282010E0001EF6F0001EE51E4CF80
:1010D0000AF0E4CF09F0E4CF08F0E4CF07F0E4CF62
:1010E00006F0E4CF05F0E4CF04F0E4CF03F0E4CF62
:1010F00002F0E4CF01F0E4CF00F01200800EE56EC4
:10110000040EE56ED30EE56EE7EC1AF0030EE12651
:10111000800EE56E040EE56EB30EE56EE7EC1AF098
:10112000030EE126800EE56E040EE56ED50EE56E2B
:10113000E7EC1AF0030EE126800EE56E040EE56E74
:10114000B50EE56EE7EC1AF0030EE126800EE56EB3
:10115000040EE56ED70EE56EE7EC1AF0030EE126FD
:10116000800EE56E040EE56EB70EE56EE7EC1AF044
:10117000030EE126800EE56E040EE56ED90EE56ED7
:10118000E7EC1AF0030EE126800EE56E040EE56E24
:10119000B90EE56EE7EC1AF0030EE126800EE56E5F
:1011A000040EE56EDB0EE56EE7EC1AF0030EE126A9
:1011B000800EE56E040EE56EBB0EE56EE7EC1AF0F0
:1011C000030EE126800EE56E040EE56EDD0EE56E83
:1011D000E7EC1AF0030EE126800EE56E040EE56ED4
:1011E000BD0EE56EE7EC1AF0030EE126800EE56E0B
:1011F000040EE56EDF0EE56EE7EC1AF0030EE12655
:10120000800EE56E040EE56EBF0EE56EE7EC1AF09B
:10121000030EE126800EE56E040EE56EE10EE56E2E
:10122000E7EC1AF0030EE126800EE56E040EE56E83
:10123000C10EE56EE7EC1AF0030EE126800EE56EB6
:10124000040EE56EE30EE56EE7EC1AF0030EE12600
:10125000800EE56E040EE56EC30EE56EE7EC1AF047
:10126000030EE126800EE56E040EE56EE50EE56EDA
:10127000E7EC1AF0030EE126800EE56E040EE56E33
:10128000C50EE56EE7EC1AF0030EE126800EE56E62
:10129000040EE56EE70EE56EE7EC1AF0030EE126AC
:1012A000800EE56E040EE56EC70EE56EE7EC1AF0F3
:1012B000030EE126800EE56E040EE56EE90EE56E86
:1012C000E7EC1AF0030EE126800EE56E040EE56EE3
:1012D000C90EE56EE7EC1AF0030EE126800EE56E0E
:1012E000040EE56EEB0EE56EE7EC1AF0030EE12658
:1012F000800EE56E040EE56ECB0EE56EE7EC1AF09F
:10130000030EE126800EE56E040EE56EED0EE56E31
:10131000E7EC1AF0030EE126800EE56E040EE56E92
:10132000CD0EE56EE7EC1AF0030EE126800EE56EB9
:10133000040EE56EEF0EE56EE7EC1AF0030EE12603
:10134000800EE56E040EE56ECF0EE56EE7EC1AF04A
:10135000030EE126800EE56E040EE56EF10EE56EDD
:10136000E7EC1AF0030EE126800EE56E040EE56E42
:10137000D10EE56EE7EC1AF0030EE126120000C074
:10138000E5FF01C0E5FF02C0E5FF03C0E5FF04C0C3
:10139000E5FFFBEC24F0949292948B92899479EC83
:1013A00020F0F3CF01F0F4CF02F0E9CF03F0880F83
:1013B0000401796F130E01207A6F000E02207B6FFB
:1013C000000E03207C6FD3EC13F09280800E006E31
:1013D0000F0E016E0F0E036E380E00260350012211
:1013E000800E026E0F0E036E800E005E0350015AD7
:1013F0000F0E046E380E0226045003220F0E046EE8
:10140000800E025E0450035A02C0E9FF03C0EAFFE7
:10141000EFCF02F0028000C0E9FF01C0EAFF02C086
:10142000EFFF000EE56AE56A5EEC18F0E652E65260
:101430009282800E006E0F0E016E0F0E036E380E3C
:10144000002603500122800E026E0F0E036E800EE6
:10145000005E0350015A0F0E046E380E022604502F
:1014600003220F0E046E800E025E0450035A02C067
:10147000E9FF03C0EAFFEFCF02F0028200C0E9FFFC
:1014800001C0EAFF02C0EFFF010EE56EE56E5EEC03
:1014900018F0E652E6529484820E006E0F0E016E32
:1014A0000F0E036E380E0026035001220F0E036E3E
:1014B000800E005E0350015A820E026E0F0E036E04
:1014C0000F0E046E380E0226045003220F0E046E17
:1014D000800E025E0450035A02C0E9FF03C0EAFF17
:1014E000EFCF02F0028400C0E9FF01C0EAFF02C0B2
:1014F000EFFF0E0EE56E020EE56E5EEC18F0E652A2
:10150000E652AAEC1CF0F19E938E810E006E0F0E37
:10151000016E0F0E036E380E0026035001220F0ECF
:10152000036E800E005E0350015A810E026E0F0E94
:10153000036E0F0E046E380E0226045003220F0EA7
:10154000046E800E025E0450035A02C0E9FF03C01D
:10155000EAFFEFCF02F0029E00C0E9FF01C0EAFF00
:1015600002C0EFFF070EE56E800EE56E0F0EE56E12
:10157000810EE56E000EE56AF1EC1CF0050EE12629
:10158000270EE56EE56A080EE56EFCEC0FF0030E23
:10159000E126E56AE568200EE56E800EE56E040E34
:1015A000E56E330EE56E4FEC15F0060EE126E56AAA
:1015B000E568210EE56E800EE56E0F0EE56E330ECA
:1015C000E56E4FEC15F0060EE126E4CF04F0E4CF13
:1015D00003F0E4CF02F0E4CF01F0E4CF00F012001A
:1015E000D9CFE5FFE1CFD9FF00C0E5FF01C0E5FF9E
:1015F00002C0E5FF03C0E5FF04C0E5FF05C0E5FF4D
:1016000006C0E5FF07C0E5FF020EDBCF00F0030ECA
:10161000DBCF01F0040EDBCF02F0050EDBCF03F0D1
:10162000060EDBCF04F0070EDBCF05F0080EDBCF94
:1016300006F0090EDBCF07F0005004018A6F01505D
:101640008B6F02508C6F03508D6F045004018E6FAE
:1016500005508F6F0650906F0750916F04018A51AB
:1016600004019003F4CF01F0F3CF00F00050030128
:10167000616F0150626F04018A5104018E03F4CF3F
:1016800001F0F3CF00F0005003015F6F0150606F75
:1016900004018D5104018E03F3CF00F00301625168
:1016A00000260050626F04018C5104018F03F3CFB8
:1016B00001F00150002600500301626F04018C51BB
:1016C00004018E03F4CF01F0F3CF00F00301615168
:1016D0000026625101220050616F0150626F0401C7
:1016E0008B5104018F03F4CF03F0F3CF02F00250CB
:1016F00000260350012200500301616F0150626F08
:1017000004018B5104019003F3CF00F0005003015A
:10171000666F04018B5104018E03F4CF01F0F3CF07
:1017200000F000500301646F0150656F04018A519D
:1017300004019103F3CF00F0005003016A6F04012C
:101740008A5104018F03F4CF01F0F3CF00F0005071
:101750000301686F0150696F0301636B0301676BDD
:101760000301635103015F25006E0301645103010E
:101770006021016E0301655103016121026E0301C5
:10178000665103016221036E00505F6F0150606F6C
:101790000250616F0350626F0301675103015F25BF
:1017A000006E0301685103016021016E030169515C
:1017B00003016121026E03016A5103016221036E7C
:1017C00003C0E9FF02C0F4FF01C0F3FF0050E4CF03
:1017D00007F0E4CF06F0E4CF05F0E4CF04F0E4CF67
:1017E00003F0E4CF02F0E4CF01F0E4CF00F0E4CF67
:1017F000D9FF120000C0E5FF01C0E5FF0001E7517D
:10180000D8B4F5D09DA81DD09EA81BD00301875148
:101810000301841905E169EC24F00301846BE7D02E
:10182000000E03018725006E016A040E012200C02C
:10183000E9FF01C0EAFFEFCF80F3872B80C3ADFF44
:10184000D6D09EAAD4D0ABA205D00301858169EC85
:1018500024F0CDD0ABA405D00301858369EC24F03E
:10186000C6D0ABA03ED0AECF80F3800E0001E81111
:101870000301801904E103018589AB96B8D0030107
:10188000805104E080510001E81927E103018599A6
:10189000AB960301805103E00301859702D0030159
:1018A000858780C389F382C38AF30301820503011C
:1018B0008B6F600E03018A25006E016A000E012203
:1018C00000C0E9FF01C0EAFF80C3EFFF8A2B8A5105
:1018D000800A02E103018A6B8AD003018599AB86F5
:1018E00086D0AECF80F3030185A919D0800E000108
:1018F000E8110301801911E18B909D9AAB980301C7
:10190000845104E1AD6A69EC24F007D000C4ADFF56
:10191000010E0301876F9D886AD0AB8668D00301F2
:1019200080510301892703018A5103018B191BE1AF
:10193000030189510CE18AC382F3030185B712D0F8
:101940008B909D9AAB98AD6A69EC24F00BD00301A3
:10195000858585B707D08B909D9AAB98010EAD6EAB
:1019600069EC24F044D003018A510301831908E192
:10197000030183510301821903E069EC24F037D09D
:1019800082C300F0016A004A012AE56A800EE56E12
:101990000150E56E0050E56EB0EC16F0006E040EDE
:1019A000E12600500301816F03018A190CE11F0E2B
:1019B0000301801503018B6F8B2B8B2B030182514D
:1019C00003018B278B9F8AC300F003018A2B016AD6
:1019D000600E0026000E012200C0E9FF01C0EAFFF0
:1019E00080C3EFFF8A51800A02E103018A6BE4CFD2
:1019F00001F0E4CF00F0120000C0E5FF01C0E5FFF8
:101A000002C0E5FF03C0E5FF04C0E5FF05C0E5FF38
:101A100006C0E5FF07C0E5FF08C0E5FF09C0E5FF18
:101A20000AC0E5FF006A016A040E015CD8B0B3D0B9
:101A3000400E0001FE25026E036A030E032202C05F
:101A4000E9FF03C0EAFFEFCF02F00250FF0A01E115
:101A50009BD00001FE39E8441F0B026E770E022472
:101A6000036E046A030E042203C0E9FF04C0EAFF08
:101A7000EFCF03F0070EFE15046E010E056E000E8B
:101A8000066E045006E0E86CD89005360636010F65
:101A9000FCE3076A055003160650071603500710AB
:101AA000D880E866D890036A03360350D880E86689
:101AB000D890036A0336076A750E0226030E0722C2
:101AC00002C0E9FF07C0EAFFEFCF08F008C009F045
:101AD0000A6A095005160A50061605500610D880E5
:101AE000E866D890056A05360550D880E866D89033
:101AF000056A05360350051801E146D0035012E08F
:101B0000010E056E045005E0E86CD8900536010F13
:101B1000FDE30550081202C0E9FF07C0EAFF08C054
:101B2000EFFF17D002C0E9FF07C0EAFFEFCF05F0D3
:101B3000010E066E045005E0E86CD8900636010FE1
:101B4000FDE3061C051602C0E9FF07C0EAFF05C059
:101B5000EFFF035003E1036A032A01D0036AFEC0CA
:101B600004F0E56A0350E56EE56A0450E56E000E88
:101B7000E56E390EE56ED60EE56EB7EC1DF0070E7C
:101B8000E126012A01C000F00001FE2B100EFE5DCF
:101B9000D8A04AD7FE6B0050E4CF0AF0E4CF09F09A
:101BA000E4CF08F0E4CF07F0E4CF06F0E4CF05F08F
:101BB000E4CF04F0E4CF03F0E4CF02F0E4CF01F08F
:101BC000E4CF00F01200D9CFE5FFE1CFD9FF00C08C
:101BD000E5FF01C0E5FF02C0E5FF03C0E5FF04C06B
:101BE000E5FF05C0E5FF06C0E5FF07C0E5FF08C04B
:101BF000E5FF09C0E5FF0AC0E5FF0BC0E5FF0CC02B
:101C0000E5FF0DC0E5FF0EC0E5FF0FC0E5FF020ECA
:101C1000DBCF00F0030EDBCF01F0040EDBCF02F0D0
:101C2000050EDBCF03F0060EDBCF04F0070EDBCF93
:101C300005F0080EDBCF06F0200E076E086A06C01E
:101C400009F00A6A0B6A0C6AE56AE56AE56A0950F6
:101C5000E56E0350E56E0250E56E0150E56E0050F2
:101C6000E56E5FEC0FF00D6E080EE126300E0D26CE
:101C70003A0E0D5C05E30D500E6E270E0E240D6E10
:101C8000FF0E07260822200E07240E6E030E0820E2
:101C90000F6E0EC0E9FF0FC0EAFF0DC0EFFF0C5042
:101CA000E56E0B50E56E0A50E56E0950E56E035087
:101CB000E56E0250E56E0150E56E0050E56E8DEC6C
:101CC00010F0006EF3CF01F0F4CF02F0E9CF03F093
:101CD000080EE1260050011002100310D8A4AFD75F
:101CE00007C000F008C001F004C002F005C003F016
:101CF00000C004F001C005F0004A012A200E0426AD
:101D0000030E052204C0E9FF05C0EAFFEFCF04F08F
:101D100002C0E9FF03C0EAFF04C0EFFF024A032A42
:101D2000000E015C02E1200E005CE2E302C0E9FF6C
:101D300003C0EAFF000EEF6AE4CF0FF0E4CF0EF02D
:101D4000E4CF0DF0E4CF0CF0E4CF0BF0E4CF0AF0D9
:101D5000E4CF09F0E4CF08F0E4CF07F0E4CF06F0D9
:101D6000E4CF05F0E4CF04F0E4CF03F0E4CF02F0D9
:101D7000E4CF01F0E4CF00F0E4CFD9FF120000C0BF
:101D8000E5FF01C0E5FF02C0E5FF03C0E5FF04C0B9
:101D9000E5FF05C0E5FF006A400E0024016E026AFF
:101DA000030E022201C0E9FF02C0EAFFEFCF01F0FB
:101DB0000150FF0A01E171D001380F0B026E036A76
:101DC000800E02260F0E032202C0E9FF03C0EAFFC5
:101DD000EFCF02F0070E0116010E036E000E046E27
:101DE000015006E0E86CD89003360436010FFCE39E
:101DF000056A025003160550041603500410D880DB
:101E0000E866D890036A0336035024E10038E844BA
:101E10001F0B016E026A770E0126030E022201C01B
:101E2000E9FF02C0EAFFEFCF03F0070E0014046ED3
:101E3000010E056E045005E0E86CD8900536010FE0
:101E4000FDE30550031201C0E9FF02C0EAFF03C031
:101E5000EFFF23D00038E8441F0B016E026A770EB3
:101E60000126030E022201C0E9FF02C0EAFFEFCF04
:101E700003F0070E0014046E010E056E045005E019
:101E8000E86CD8900536010FFDE3051C031601C070
:101E9000E9FF02C0EAFF03C0EFFF002A100E005C5A
:101EA000D8A07AD7E4CF05F0E4CF04F0E4CF03F074
:101EB000E4CF02F0E4CF01F0E4CF00F01200D9CF7C
:101EC000E5FFE1CFD9FF00C0E5FF01C0E5FF02C09B
:101ED000E5FF03C0E5FF04C0E5FF05C0E5FF06C060
:101EE000E5FF07C0E5FF08C0E5FF09C0E5FF0AC040
:101EF000E5FF020EDBCF00F0030EDBCF01F0040E96
:101F0000DBCF02F0050EDBCF03F0060EDBCF04F0D3
:101F1000070EDBCF05F0080EDBCF06F0090EDBCF96
:101F200007F0086A045005100610071005E1E9687B
:101F3000F468F368E86847D0096A0750800BE84402
:101F40000A6E0A501BE10450042605360636073691
:101F50000750035C08E10650025C05E10550015C96
:101F600002E10450005C06E2D890073206320532E6
:101F7000043204D0092A09C008F0DFD70750035CF7
:101F800008E10650025C05E10550015C02E10450E5
:101F9000005C08E30450005E0550015A0650025AE6
:101FA0000750035AD890073206320532043208C06F
:101FB00009F008060950E2E103C0E9FF02C0F4FF9E
:101FC00001C0F3FF0050E4CF0AF0E4CF09F0E4CF02
:101FD00008F0E4CF07F0E4CF06F0E4CF05F0E4CF5B
:101FE00004F0E4CF03F0E4CF02F0E4CF01F0E4CF5B
:101FF00000F0E4CFD9FF1200D9CFE5FFE1CFD9FF40
:1020000000C0E5FF01C0E5FF02C0E5FF03C0E5FF3A
:1020100004C0E5FF05C0E5FF020EDBCF00F0030EB4
:10202000DBCF01F0040EDBCF02F03F0EC716C66A0D
:10203000C56A0050C6120150C7129488820E006E05
:102040000F0E016E0F0E046E380E00260450012292
:102050000F0E046E800E005E0450015A820E036E55
:102060000F0E046E0F0E056E380E03260550042267
:102070000F0E056E800E035E0550045A03C0E9FF83
:1020800004C0EAFFEFCF03F0039800C0E9FF01C0EE
:10209000EAFF03C0EFFF9486820E006E0F0E016E02
:1020A0000F0E046E380E0026045001220F0E046E2F
:1020B000800E005E0450015A820E036E0F0E046EF5
:1020C0000F0E056E380E0326055004220F0E056E06
:1020D000800E035E0550045A03C0E9FF04C0EAFF06
:1020E000EFCF03F0039600C0E9FF01C0EAFF03C091
:1020F000EFFF02C0C8FFC68A9E96A196E4CF05F006
:10210000E4CF04F0E4CF03F0E4CF02F0E4CF01F039
:10211000E4CF00F0E4CFD9FF1200D9CFE5FFE1CF43
:10212000D9FF00C0E5FF01C0E5FF02C0E5FF03C025
:10213000E5FF04C0E5FF05C0E5FF06C0E5FF07C0F9
:10214000E5FF08C0E5FF09C0E5FF0AC0E5FF0BC0D9
:10215000E5FF0CC0E5FF0DC0E5FF020EDBCF00F090
:10216000030EDBCF01F0040EDBCF02F0050EDBCF58
:1021700003F0060EDBCF04F0070EDBCF05F0080EF0
:10218000DBCF06F0090EDBCF07F0086A096A0A6A9E
:102190000B6A200E0C6E0350800BE8440D6E00504D
:1021A00000260136023603360850082609360A365C
:1021B0000B360D50D8A4088007500B5C08E1065080
:1021C0000A5C05E10550095C02E10450085C09E382
:1021D0000450085E0550095A06500A5A07500B5A17
:1021E00000800C040D6E0DC00CF00D50D4E103C046
:1021F000E9FF02C0F4FF01C0F3FF0050E4CF0DF08F
:10220000E4CF0CF0E4CF0BF0E4CF0AF0E4CF09F018
:10221000E4CF08F0E4CF07F0E4CF06F0E4CF05F018
:10222000E4CF04F0E4CF03F0E4CF02F0E4CF01F018
:10223000E4CF00F0E4CFD9FF120000C0E5FF01C0F9
:10224000E5FF03C0E5FF04C0E5FF05C0E5FF06C0EC
:10225000E5FF07C0E5FF08C0E5FF09C0E5FF0AC0CC
:10226000E5FF0BC0E5FF71C300F072C301F003018D
:10227000713F01D0722B0050E56E5BEC24F0E6520A
:10228000076E046A056A066A71C300F072C301F042
:102290000301713F01D0722B0050E56E5BEC24F01E
:1022A000E6520B6A0A6E086A0850041205120A50B8
:1022B00006120B50071271C300F072C301F0030144
:1022C000713F01D0722B0050E56E5BEC24F0E652BA
:1022D000036E006A03C001F0E86A03BEFF0E086ED9
:1022E000096E0050041201500512085006120950E0
:1022F000071271C300F072C301F00301713F01D0F6
:10230000722B0050E56E5BEC24F0E652016A041279
:10231000015005120612071207C0E9FF06C0F4FFBC
:1023200005C0F3FF0450E4CF0BF0E4CF0AF0E4CF94
:1023300009F0E4CF08F0E4CF07F0E4CF06F0E4CFF3
:1023400005F0E4CF04F0E4CF03F0E4CF01F0E4CFF4
:1023500000F0120000C0E5FF01C0E5FF02C0E5FF8C
:1023600003C0E5FF04C0E5FF0301835103018219A7
:1023700001E15FD083C300F0002A009E600E0024BC
:10238000016E026A000E022201C0E9FF02C0EAFFEC
:10239000EFCF8DF31F0E03018D1783C38CF38D5187
:1023A00003018C278C2B8C2B8C9FA3EC20F0016ECF
:1023B000015003E1016A012A01D0016AA3EC20F077
:1023C00003018D6F800E8D15026E1F0E8D15036E2D
:1023D00003C004F003C08DF3045003E182C383F310
:1023E0003BD001501BE0025022E0A3EC20F0006E35
:1023F00003018D070050420A1AE000504E0A03E123
:1024000035EC1DF014D00050460A03E19DEC24F099
:102410000ED00050490A0BE1FF0009D083C38EF3B0
:10242000025003E01AEC1CF002D048EC22F08CC3FE
:1024300083F30001E4510001E51906E00301845132
:1024400003E1C1EC12F008D08BB006D00301845137
:1024500003E1ACB269EC24F0E4CF04F0E4CF03F084
:10246000E4CF02F0E4CF01F0E4CF00F01200D9CFC6
:10247000E5FFE1CFD9FF00C0E5FF01C0E5FF02C0E5
:10248000E5FF03C0E5FF04C0E5FF05C0E5FF06C0AA
:10249000E5FF07C0E5FF08C0E5FF09C0E5FF0AC08A
:1024A000E5FF020EDBCF00F0030EDBCF01F0040EE0
:1024B000DBCF02F0050EDBCF03F0060EDBCF04F01E
:1024C000070EDBCF05F00038E8441F0B066E076AE5
:1024D000730E0626030E072206C0E9FF07C0EAFFB7
:1024E000EFCF08F0070E0014096E010E0A6E0950B6
:1024F00005E0E86CD8900A36010FFDE30A50081297
:1025000006C0E9FF07C0EAFF08C0EFFF230E002462
:10251000066E076A0F0E072206C0E9FF07C0EAFF32
:1025200001C0EFFF016A230E0026040E0122800E77
:10253000025E070E02160238F00B036E070E051638
:102540000550032600C0E9FF01C0EAFF03C0EFFF0A
:10255000E4CF0AF0E4CF09F0E4CF08F0E4CF07F0CD
:10256000E4CF06F0E4CF05F0E4CF04F0E4CF03F0CD
:10257000E4CF02F0E4CF01F0E4CF00F0E4CFD9FFE4
:10258000120000C0E5FF01C0E5FF02C0E5FF03C087
:10259000E5FFACA276D067EC22F0006E005005E1BA
:1025A0000001E56B0001E46B6CD0E5C001F0005068
:1025B000012667EC22F0026E00060250230A1FE19A
:1025C000010E005CD8A05BD067EC22F0026E690AB5
:1025D00003E1F2EC1FF053D00250720A03E169EC00
:1025E00024F04DD00250730A01E049D08B80AB86B5
:1025F0009D8A9D98AE50AE50AB98AB8840D00250AB
:10260000430A05E00250420A01E039D001D0008EB1
:1026100000C086F300500401006F010E0301876FB4
:102620000001E551011814E067EC22F0026E03018D
:102630008627000E03018725006E036A040E03221D
:1026400000C0E9FF03C0EAFF02C0EFFF872BE8D715
:10265000000E03018725006E026A040E02220301A8
:10266000861D036E032A00C0E9FF02C0EAFF03C013
:10267000EFFF0301872B87C384F303017E6B01C047
:10268000E5F0E4CF03F0E4CF02F0E4CF01F0E4CFD3
:1026900000F01200D9CFE5FFE1CFD9FF00C0E5FF80
:1026A00001C0E5FF02C0E5FF03C0E5FF04C0E5FF90
:1026B00005C0E5FF06C0E5FF07C0E5FF020EDBCF62
:1026C00000F0030EDBCF01F0040EDBCF02F0050EAD
:1026D000DBCF03F002C006F00650046E800A33E13F
:1026E00000C0E9FF01C0F3FF0250DEEC22F0056EEE
:1026F000F3CF06F0F4CF07F003C0E5FF05C0E9FF14
:1027000006C0F3FF0750B3EC24F000C0E9FF01C09E
:10271000F3FF0250DEEC22F0056EF3CF06F0F4CFAB
:1027200007F0052A02E3064A072A05C0E5FF06C0AE
:10273000F4FF07C0F6FF00C0E9FF01C0F3FF02503D
:102740004CEC24F01DD004AA1BD0047A045004E100
:10275000035000EC25F014D00450010A04E10350AA
:1027600013EC25F00DD004500F0A04E1035090EC57
:102770001FF006D004500E0A03E1035010EC25F0C0
:10278000E4CF07F0E4CF06F0E4CF05F0E4CF04F0A7
:10279000E4CF03F0E4CF02F0E4CF01F0E4CF00F0A7
:1027A000E4CFD9FF120000C0E5FF01C0E5FF02C081
:1027B000E5FF03C0E5FF04C0E5FF006A730E0024D7
:1027C000016E026A030E022201C0E9FF02C0EAFFA5
:1027D000EF6A002A020E005CF1E3006A0050020D6D
:1027E000F450026EF3CF01F0390E0124036E040E93
:1027F0000220046E03C0E9FF04C0EAFFEE6AEF6A3C
:10280000590E0124036E040E0220046E03C0E9FF7A
:1028100004C0EAFFEE6AEF6A930E0124036E040E11
:102820000220046E03C0E9FF04C0EAFFEE6AEF6A0B
:10283000B30E0124036E040E0220046E03C0E9FFF0
:1028400004C0EAFFEE6AEF6AD30E0126040E0222EC
:1028500001C0E9FF02C0EAFFEE687F0EEF6E230EB3
:102860000024016E026A040E022201C0E9FF02C0C8
:10287000EAFFEF68002A100E005CD8A0AFD7AF0EB9
:10288000C06EC16A010EC26EC282E4CF04F0E4CF12
:1028900003F0E4CF02F0E4CF01F0E4CF00F0120047
:1028A0004320412025642025640A0000D9CFE5FF9C
:1028B000E1CFD9FF00C0E5FF01C0E5FF02C0E5FFA1
:1028C00003C0E5FF04C0E5FF05C0E5FF06C0E5FF66
:1028D000020EDBCF00F0030EDBCF01F0040EDBCFE6
:1028E00002F0050EDBCF03F000C0E9FF01C0F3FFEB
:1028F00002502BEC24F0046EE56AE56EC1EC1FF08B
:10290000E652E652010E0314056E066A055001E117
:10291000062A0650E56E2BEC23F0E6526BEC21F014
:10292000010EE56E0450E56EC1EC1FF0E652E65272
:10293000055016E00050010F046E000E0120056ED8
:10294000000E0220066E4EEC20F0E56E04C0E9FF9A
:1029500005C0F3FF0650B3EC24F003B2CDEC20F039
:1029600003A20FD0020E0026000E012202224EEC1E
:1029700020F0E56E00C0E9FF01C0F3FF0250B3ECA8
:1029800024F06BEC21F0E4CF06F0E4CF05F0E4CFC7
:1029900004F0E4CF03F0E4CF02F0E4CF01F0E4CFA1
:1029A00000F0E4CFD9FF1200D9CFE5FFE1CFD9FF86
:1029B00000C0E5FF01C0E5FF02C0E5FF03C0E5FF81
:1029C00004C0E5FF05C0E5FF06C0E5FF07C0E5FF61
:1029D000020EDBCF00F0030EDBCF01F0040EDBCFE5
:1029E00002F0050EDBCF03F0E5C0E6F00001E45194
:1029F0000001E65FE60703C004F0056A030E042643
:102A0000D8B0052AE6C006F0076A0750800FF36EBB
:102A10000550800FF35C02E10450065C02E2E868B6
:102A20002BD0020E035C02E2E86A26D003060350B4
:102A3000E56E73EC1EF0E652046A0350045C14E287
:102A400004500024056EE86A0120066EE86A022040
:102A500005C0E9FF06C0F3FF2BEC24F0042AE56E65
:102A600073EC1EF0E652E9D7E5C0E6F00001E45150
:102A70000001E65FE607E86AE4CF07F0E4CF06F07E
:102A8000E4CF05F0E4CF04F0E4CF03F0E4CF02F0AC
:102A9000E4CF01F0E4CF00F0E4CFD9FF1200D9CFAA
:102AA000E5FFE1CFD9FF00C0E5FF01C0E5FF02C0AF
:102AB000E5FF03C0E5FF04C0E5FF05C0E5FF020E2A
:102AC000DBCF00F0030EDBCF01F0040EDBCF02F012
:102AD000050EDBCF03F0060EDBCF04F0070EDBCFD5
:102AE00005F0035009E003C0E5FF00C0E9FF01C0A5
:102AF000F3FF0250B3EC24F0E56A0350E56EC1EC3D
:102B00001FF0E652E652060EE56E2BEC23F0E6527D
:102B10000450E56E2BEC23F0E6520550E56E2BECED
:102B200023F0E6526BEC21F00050030F036E000E11
:102B30000120046E000E0220056E040E0026000E19
:102B400001220222E56800C0E9FF01C0F3FF025044
:102B5000B3EC24F000C0E9FF01C0F3FF02502BECFE
:102B600024F0FF0BE56E03C0E9FF04C0F3FF05503E
:102B7000B3EC24F0E4CF05F0E4CF04F0E4CF03F0AD
:102B8000E4CF02F0E4CF01F0E4CF00F0E4CFD9FFCE
:102B90001200D9CFE5FFE1CFD9FF00C0E5FF01C0AA
:102BA000E5FF02C0E5FF03C0E5FF04C0E5FF05C087
:102BB000E5FF020EDBCF00F0030EDBCF01F0040EC9
:102BC000DBCF02F00050020DF450036EF3CF00F0A3
:102BD000590E0024046E040E0320056E04C0E9FFA4
:102BE00005C0EAFF01C0EEFF02C0EFFF930E002414
:102BF000046E040E0320056E04C0E9FF05C0EAFF61
:102C0000EECF04F0EFCF05F00150045C016E0250EE
:102C10000558026E000E0026030E032200C0E9FFD5
:102C200003C0EAFF01C0EEFF02C0EFFFD88002AE92
:102C3000D89004E3021E016CD8B4022A0250800F1F
:102C4000800F02E1030E015C02E2016A026A015098
:102C5000021007E100C0E9FF03C0EAFF000EEE6AC0
:102C6000EF6AE4CF05F0E4CF04F0E4CF03F0E4CF63
:102C700002F0E4CF01F0E4CF00F0E4CFD9FF12007E
:102C8000D9CFE5FFE1CFD9FF00C0E5FF01C0E5FFE7
:102C900002C0E5FF03C0E5FF04C0E5FF05C0E5FF96
:102CA000020EDBCF00F0030EDBCF01F0040EDBCF12
:102CB00002F0050EDBCF03F000C0E9FF01C0F3FF17
:102CC00002502BEC24F0E56AE56EC1EC1FF0E652F1
:102CD000E652010E0314046E056A045001E1052A50
:102CE000052A052A0550E56E2BEC23F0E652045028
:102CF00013E00050030F046E000E0120056E000E5D
:102D0000022004C0E9FF05C0F3FF2BEC24F0FF0B09
:102D1000E56E2BEC23F0E65203A211D0040E002640
:102D2000000E0122022200C0E9FF01C0F3FF0250A1
:102D30002BEC24F0FF0BE56E2BEC23F0E6526BEC52
:102D400021F0E4CF05F0E4CF04F0E4CF03F0E4CFCA
:102D500002F0E4CF01F0E4CF00F0E4CFD9FF12009D
:102D6000D9CFE5FFE1CFD9FF00C0E5FF01C0E5FF06
:102D700002C0E5FF03C0E5FF04C0E5FF05C0E5FFB5
:102D800006C0E5FF020EDBCF00F0030EDBCF01F043
:102D9000040EDBCF02F0050EDBCF03F0D88001AECE
:102DA000D890046A0436045007E0011C066E001C2B
:102DB000056E054A062A04D000C005F001C006F0E1
:102DC000D88003AED89007E3031C016E021C006E8E
:102DD000004A012A04D002C000F003C001F00150F3
:102DE000E56E0050E56E0650E56E0550E56EE4ECCC
:102DF00019F0006EF3CF01F0040EE12604500AE052
:102E0000011C036E001C026E024A032A03C0F3FF7A
:102E1000025003D001C0F3FF0050E4CF06F0E4CF2E
:102E200005F0E4CF04F0E4CF03F0E4CF02F0E4CF08
:102E300001F0E4CF00F0E4CFD9FF120000C0E5FFBD
:102E400001C0E5FF02C0E5FF03C0E5FF010E006E13
:102E5000420E0301506F04013451FF0B03017A1934
:102E60000DE00A0E0301516F030E006E0401345190
:102E7000FF0B016E03EE52F001C0EFFF0F01345162
:102E8000FF0B03017B1920E000C001F0002A026A59
:102E9000500E0126030E022201C0E9FF02C0EAFF24
:102EA0000B0EEF6E00C001F0002A026A500E0126E0
:102EB000030E02220F013451FF0B036E01C0E9FF24
:102EC00002C0EAFF03C0EFFF020E005C1BE3002A12
:102ED0000050E56E800EE56E030EE56E500EE56E59
:102EE000D4EC14F0006E040EE12600500BE1040156
:102EF0003451FF0B006E00C07AF33551FF0B006EAA
:102F000000C07BF3E4CF03F0E4CF02F0E4CF01F0A4
:102F1000E4CF00F01200D9CFE5FFE1CFD9FF00C028
:102F2000E5FF01C0E5FF02C0E5FF03C0E5FF04C007
:102F3000E5FF05C0E5FF020EDBCF00F0030EDBCF9F
:102F400001F0040EDBCF02F0050EDBCF03F071C3FE
:102F500004F072C305F00301713F01D0722B0350DE
:102F6000E56E0450E56E04EC22F0E652E65271C3C1
:102F700004F072C305F00301713F01D0722B0250BF
:102F8000056EE56E0450E56E04EC22F0E652E65262
:102F900071C304F072C305F00301713F01D0722BBD
:102FA0000150056EE56E0450E56E04EC22F0E65229
:102FB000E65271C304F072C305F00301713F01D002
:102FC000722B0050E56E0450E56E04EC22F0E652E0
:102FD000E652E4CF05F0E4CF04F0E4CF03F0E4CF11
:102FE00002F0E4CF01F0E4CF00F0E4CFD9FF12000B
:102FF000D9CFE5FFE1CFD9FF00C0E5FF01C0E5FF74
:1030000002C0E5FF03C0E5FF04C0E5FF05C0E5FF22
:1030100006C0E5FF020EDBCF00F0030EDBCF01F0B0
:10302000040EDBCF02F003017D5119E11DEC11F01C
:10303000036EF3CF04F0F4CF05F0E9CF06F003C040
:10304000E5FF04C0F4FF05C0F6FF06C0F7FF00C0AF
:10305000E9FF01C0F3FF02501AEC24F01ED0030177
:103060007D51010A1AE100C0E9FF01C0F3FF0250DF
:1030700028EC22F0006EF3CF01F0F4CF02F0E9CF9C
:1030800003F00350E56E0250E56E0150E56E00500E
:10309000E56E8BEC17F0040EE126E4CF06F0E4CFEA
:1030A00005F0E4CF04F0E4CF03F0E4CF02F0E4CF86
:1030B00001F0E4CF00F0E4CFD9FF1200D9CFE5FF53
:1030C000E1CFD9FF00C0E5FF01C0E5FF02C0E5FF89
:1030D00003C0E5FF04C0E5FF05C0E5FF06C0E5FF4E
:1030E000020EDBCF00F0030EDBCF01F00038E84426
:1030F0001F0B026E036A730E0226030E032202C028
:10310000E9FF03C0EAFFEFCF04F0070E0014056EDD
:10311000010E066E055005E0E86CD8900636010FEA
:10312000FDE30650041202C0E9FF03C0EAFF04C039
:10313000EFFF230E0024026E036A0F0E032202C06B
:10314000E9FF03C0EAFF01C0EFFF016A230E00267A
:10315000040E012200C0E9FF01C0EAFFFF0EEF6884
:10316000E4CF06F0E4CF05F0E4CF04F0E4CF03F0C1
:10317000E4CF02F0E4CF01F0E4CF00F0E4CFD9FFD8
:103180001200D9CFE5FFE1CFD9FF00C0E5FF01C0B4
:10319000E5FF02C0E5FF03C0E5FF04C0E5FF05C091
:1031A000E5FF06C0E5FF020EDBCF00F0030EDBCF2C
:1031B00001F0040EDBCF02F0050EDBCF03F0060EAC
:1031C000DBCF04F0070EDBCF05F0080EDBCF06F0F7
:1031D000D88003AED89015E306500A0A12E104C065
:1031E000E9FF05C0EAFF2D0EEF6E044A052A031E13
:1031F000021E011E006C05E1012A03E1022AD8B477
:10320000032A0650E56E0550E56E0450E56E035046
:10321000E56E0250E56E0150E56E0050E56EE3ECA0
:103220000DF0070EE126E4CF06F0E4CF05F0E4CF81
:1032300004F0E4CF03F0E4CF02F0E4CF01F0E4CFF8
:1032400000F0E4CFD9FF120000C0E5FF0001E02B41
:10325000010EE05DD8A051D0050EE05DD8B04DD094
:10326000E005006EFA6AFB6A0034FA36E834FA3692
:10327000FC0B820FE56E320EFA22000EFB22E450A8
:10328000F96E49EF19F056EF19F063EF19F070EF8E
:1032900019F0020EE56E800EE56E040EE56E330E3B
:1032A000E56E40EC16F0040EE12629D0010EE56E25
:1032B000800EE56E040EE56E330EE56E56EC14F0EE
:1032C000040EE1261CD0020EE56E800EE56E0F0E98
:1032D000E56E330EE56E40EC16F0040EE1260FD0DD
:1032E000010EE56E800EE56E0F0EE56E330EE56E97
:1032F00056EC14F0040EE12602D00001E06BE4CF9E
:1033000000F0120043002563000000C0E5FF01C08B
:10331000E5FF02C0E5FF03C0E5FFAAEC11F054ECA5
:1033200006F0BFEC0EF0AAEC11F024EC19F0AAECB8
:1033300011F079EC20F0006EF3CF01F0F4CF02F041
:10334000E9CF03F004017951005E7A51015A7B51B3
:10335000025A7C51035A039E3F0E035C08E1FF0EA4
:10336000025C05E1FF0E015C02E1FF0E005C23E25E
:1033700079EC20F0F3CF01F0F4CF02F0E9CF03F0C5
:10338000880F0401796F130E01207A6F000E02205E
:103390007B6F000E03207C6F0001E1B108D0FCECD4
:1033A0000CF0006E005005E10EEC04F002D01EECB3
:1033B00017F00001E12BE4CF03F0E4CF02F0E4CFFB
:1033C00001F0E4CF00F01200D9CFE5FFE1CFD9FF43
:1033D00000C0E5FF01C0E5FF02C0E5FF03C0E5FF57
:1033E00004C0E5FF05C0E5FF06C0E5FF020EDBCF28
:1033F00000F0030EDBCF01F0040EDBCF02F0050E70
:10340000DBCF03F0046A056A0350800BE844066EC4
:10341000065011E10250022603360350015C02E11E
:103420000250005C04E2D8900332023204D0052A34
:1034300005C004F0E9D70350015C02E10250005CD2
:1034400004E30250005E0350015AD8900332023266
:1034500004C005F004060550EEE101C0F3FF005082
:10346000E4CF06F0E4CF05F0E4CF04F0E4CF03F0BE
:10347000E4CF02F0E4CF01F0E4CF00F0E4CFD9FFD5
:103480001200D9CFE5FFE1CFD9FF00C0E5FF01C0B1
:10349000E5FF02C0E5FF03C0E5FF020EDBCF00F051
:1034A000030EDBCF01F0040EDBCF02F000C0E9FF1A
:1034B00001C0F3FF02502BEC24F0036E035029E00F
:1034C000C6A610D00350E56E2BEC23F0036EE65237
:1034D000035002E0FD0E1ED022EC20F0C5AC14D04B
:1034E000FE0E18D09E9600C0E9FF01C0F3FF025007
:1034F0002BEC24F0C96EC6889EA6FED7C7B404D0B4
:10350000C7B002D0FE0E06D0002AD0E3014A022A3C
:10351000CDD7E86AE4CF03F0E4CF02F0E4CF01F0C6
:10352000E4CF00F0E4CFD9FF120000C0E5FF01C0F6
:10353000E5FF02C0E5FF03C0E5FF83C300F0016AB9
:103540008EC302F0036A0250005E0350015AE56A1E
:10355000800EE56E0150E56E0050E56EB0EC16F0A1
:10356000006E040EE12600068EC301F0430E90ECBF
:103570001FF0200E90EC1FF0005020E0600E0124A0
:10358000026E036A000E032202C0E9FF03C0EAFFD5
:10359000EFCF02F0E56A0250E56E000EE56E480ED0
:1035A000E56EEA0EE56EB7EC1DF0050EE126012A88
:1035B0000150800A01E1016A0006DED7E4CF03F082
:1035C000E4CF02F0E4CF01F0E4CF00F01200D9CF55
:1035D000E5FFE1CFD9FF00C0E5FF01C0E5FF02C074
:1035E000E5FF03C0E5FF04C0E5FF020EDBCF00F0FE
:1035F000030EDBCF01F0040EDBCF02F003017D519F
:1036000011E15CEC1FF0036EF3CF04F003C0E5FFA3
:1036100004C0F4FF00C0E9FF01C0F3FF025085ECD5
:1036200024F016D003017D51010A12E100C0E9FF28
:1036300001C0F3FF0250B5EC23F0006EF3CF01F0B0
:103640000150E56E0050E56E36EC1EF0E652E65293
:10365000E4CF04F0E4CF03F0E4CF02F0E4CF01F0D4
:10366000E4CF00F0E4CFD9FF1200D9CFE5FFE1CFDE
:10367000D9FF00C0E5FF01C0E5FF02C0E5FF03C0C0
:10368000E5FF04C0E5FF020EDBCF00F00038E844A0
:103690001F0B016E026A770E0126030E022201C083
:1036A000E9FF02C0EAFFEFCF01F0070E0016010E9E
:1036B000026E000E036E005006E0E86CD8900236F1
:1036C0000336010FFCE3046A01500216045003168E
:1036D00002500310D880E866D890026A0236025081
:1036E000D880E866D890026A02360250E4CF04F02F
:1036F000E4CF03F0E4CF02F0E4CF01F0E4CF00F038
:10370000E4CFD9FF1200D00EF66E490EF76E000E10
:10371000F86E0900F550056E0900F550066E04E1DB
:10372000056702D0D0EF1BF00900F550006E0900CC
:10373000F550016E0900F550026E09000900F550C0
:10374000E96E0900F550EA6E090009000900F5501C
:10375000036E0900F550046E09000900F6CF07F06A
:10376000F7CF08F0F8CF09F000C0F6FF01C0F7FF6F
:1037700002C0F8FF035002E1045007E00900F550D1
:10378000EE6E0306F8E20406F9D707C0F6FF08C09C
:10379000F7FF09C0F8FF050601E206068FEF1BF0F0
:1037A0001200D9CFE5FFE1CFD9FF00C0E5FF01C08E
:1037B000E5FF02C0E5FF03C0E5FF04C0E5FF05C06B
:1037C000E5FF020EDBCF00F00050010A22E1016AA2
:1037D0000150020DF450036EF3CF02F0B30E022439
:1037E000046E040E0320056E04C0E9FF05C0EAFF65
:1037F000EE687F0EEF6ED30E0226040E032202C087
:10380000E9FF03C0EAFFEE6AEF6A012A100E015CCD
:10381000DFE300C0EAF0E4CF05F0E4CF04F0E4CF4A
:1038200003F0E4CF02F0E4CF01F0E4CF00F0E4CF06
:10383000D9FF120000C0E5FF01C0E5FFA3EC20F0B6
:10384000006E4C0A08E1A3EC20F0006E300A02E0A2
:103850008B8201D08B9200506C0A08E1A3EC20F01F
:10386000300A02E0898429D0899427D00050450A83
:1038700024E1000EE56E330EE56E040EE56EB7EC46
:103880001DF0030EE1260AEC25F0006E00C001F0E9
:10389000000601500FE0A3EC20F0E56AE56E000E93
:1038A000E56E330EE56E060EE56EB7EC1DF0050E07
:1038B000E126ECD70A0E90EC1FF0E4CF01F0E4CF44
:1038C00000F01200D9CFE5FFE1CFD9FF00C0E5FF3E
:1038D00001C0E5FF02C0E5FF03C0E5FF04C0E5FF4E
:1038E000020EDBCF00F0030EDBCF01F0040EDBCFC6
:1038F00002F0036A02C004F0020604501DE04EEC20
:1039000020F0046E00C0E9FF01C0EAFF04C0EFFF31
:10391000004A012A03C004F0C5A6ECD7A1A602D034
:10392000E8680BD0042A04C003F00250F5E0CDECA7
:1039300020F0C5B8FED7F0D70350E4CF04F0E4CFB1
:1039400003F0E4CF02F0E4CF01F0E4CF00F0E4CFE5
:10395000D9FF120000C0E5FF01C0E5FF02C0E5FF8E
:1039600003C0E5FF04C0E5FF006A750E0024016E88
:10397000026A030E0222770E0024036E046A030E0D
:10398000042203C0E9FF04C0EAFF010EEF6E01C08C
:10399000E9FF02C0EAFFEF6E002A020E005CE5E3D9
:1039A000006A400E0024016E026A030E022201C06A
:1039B000E9FF02C0EAFFEF68002A100E005CF1E3A5
:1039C000E4CF04F0E4CF03F0E4CF02F0E4CF01F061
:1039D000E4CF00F012004320732025642025640A00
:1039E0000000D9CFE5FFE1CFD9FF00C0E5FF01C05E
:1039F000E5FF02C0E5FF03C0E5FF04C0E5FF05C029
:103A0000E5FF020EDBCF00F0030EDBCF01F0040E6A
:103A1000DBCF02F0050EDBCF03F0060EDBCF04F0A8
:103A2000056A400E0026030E0522800E015E070E79
:103A300001160138F00B026E070E04160450022620
:103A400000C0E9FF05C0EAFF02C0EFFFE4CF05F0C8
:103A5000E4CF04F0E4CF03F0E4CF02F0E4CF01F0D0
:103A6000E4CF00F0E4CFD9FF120000C0E5FF01C0B1
:103A7000E5FF02C0E5FFA3EC20F0006EA3EC20F010
:103A8000016E0050026ED00E0224006E0A0E005C21
:103A900005E30050026EF90E0224006E0150026E22
:103AA000D00E0224016E0A0E015C05E30150026E85
:103AB000F90E0224016E080E005C12E2100E015C89
:103AC000D8B00ED00038F00B0124006EEAEC1EF0E6
:103AD000016E015005E10050E56E13EC23F0E65253
:103AE000E4CF02F0E4CF01F0E4CF00F01200D9CF30
:103AF000E5FFE1CFD9FF00C0E5FF01C0E5FF02C04F
:103B0000E5FF03C0E5FF04C0E5FF020EDBCF00F0D8
:103B10000038E8441F0B016E026A730E0126030E83
:103B2000022201C0E9FF02C0EAFFEFCF03F0070E57
:103B30000016010E046E005005E0E86CD8900436C3
:103B4000010FFDE3041C031601C0E9FF02C0EAFFF8
:103B500003C0EFFFE4CF04F0E4CF03F0E4CF02F0C2
:103B6000E4CF01F0E4CF00F0E4CFD9FF1200D9CFC9
:103B7000E5FFE1CFD9FF00C0E5FF01C0E5FF02C0CE
:103B8000E5FF020ED924006E000EDA20016E800ED1
:103B9000026E030E0026000E012202220250E56E84
:103BA0000150E56E0050E56E040EDBCFE5FF030E1D
:103BB000DBCFE5FF020EDBCFE5FF04017F51E56EB1
:103BC0007E51E56E7D51E56E0EEC00F0006EF3CF98
:103BD00001F0090EE12601C0F3FF0050E4CF02F02E
:103BE000E4CF01F0E4CF00F0E4CFD9FF1200D9CF49
:103BF000E5FFE1CFD9FF00C0E5FF01C0E5FF02C04E
:103C0000E5FF03C0E5FF020EDBCF00F0030EDBCFC4
:103C100001F0040EDBCF02F003017D510DE189ECD0
:103C200023F0036E03C0E5FF00C0E9FF01C0F3FF0E
:103C30000250B3EC24F00FD003017D51010A0BE1D7
:103C400000C0E9FF01C0F3FF02502BEC24F0E56E49
:103C5000B9EC21F0E652E4CF03F0E4CF02F0E4CF78
:103C600001F0E4CF00F0E4CFD9FF1200D9CFE5FF97
:103C7000E1CFD9FF00C0E5FF01C0E5FF02C0E5FFCD
:103C800003C0E5FF020EDBCF00F0030EDBCF01F037
:103C900071C302F072C303F00301713F01D0722BB4
:103CA0000150E56E0250E56E04EC22F0E652E65259
:103CB00071C302F072C303F00301713F01D0722B94
:103CC0000050E56E0250E56E04EC22F0E652E6523A
:103CD000E4CF03F0E4CF02F0E4CF01F0E4CF00F052
:103CE000E4CFD9FF1200D9CFE5FFE1CFD9FF00C063
:103CF000E5FF01C0E5FF02C0E5FF03C0E5FF04C02A
:103D0000E5FF020EDBCF00F0E4C001F0026A014AD9
:103D1000022AE5C003F0046A0150031803E10250CF
:103D2000041801E001D00ED0000E0001E425016E60
:103D3000026A010E022201C0E9FF02C0EAFF00C0D0
:103D4000EFFFE42BE4CF04F0E4CF03F0E4CF02F084
:103D5000E4CF01F0E4CF00F0E4CFD9FF1200D9CFD7
:103D6000E5FFE1CFD9FF00C0E5FF01C0E5FF02C0DC
:103D7000E5FF03C0E5FF020EDBCF00F0016A8EC352
:103D800002F0036A0250002603500122E56A800E09
:103D9000E56E0150E56E0050E56EB0EC16F0006E79
:103DA000F3CF01F0040EE126600E0026000E012282
:103DB00000C0E9FF01C0EAFFEFCF00F00050E4CF00
:103DC00003F0E4CF02F0E4CF01F0E4CF00F0E4CF61
:103DD000D9FF120000C0E5FF01C0E5FF02C0E5FF0A
:103DE000010E006EA3EC20F0016E01C002F0015044
:103DF00023E00050E56E5BEC24F0016EE6520150CA
:103E000010E10A0E005C0BE20A0E006EE56E5BEC40
:103E100024F0016EE652015004E1E8680ED0E86833
:103E20000CD00150021802E0E86807D0002A1B0EEF
:103E3000005CD8E3E86801D0E86AE4CF02F0E4CFA0
:103E400001F0E4CF00F01200F3CFE5FFF4CFE5FF7F
:103E5000E9CFE5FFEACFE5FFFACFE5FFFBCFE5FFCE
:103E60000001E2510401836F0001E3510401846FFA
:103E7000D650816FD750826FF2A411D00001E23F7B
:103E800001D0E32BF2940001E2510401836F0001A1
:103E9000E3510401846FD650816FD750826FE4CF15
:103EA000FBFFE4CFFAFFE4CFEAFFE4CFE9FFE4CF82
:103EB000F4FFE4CFF3FF110000C0E5FF01C0E5FF10
:103EC00002C0E5FF03C0E5FF71C300F072C301F05B
:103ED0000301713F01D0722B0050E56E5BEC24F0C2
:103EE000E652036E026A71C300F072C301F003016F
:103EF000713F01D0722B0050E56E5BEC24F0E6526E
:103F0000016A02120150031203C0F3FF0250E4CF12
:103F100003F0E4CF02F0E4CF01F0E4CF00F01200B0
:103F200000C0E5FF01C0E5FF02C0E5FF006E000E26
:103F30000001E925016E026A0F0E022201C0E9FFAD
:103F400002C0EAFF00C0EFFF220EE95D01E2E92BAB
:103F500000500A0A0FE10001E951E56E800EE56E9E
:103F60000F0EE56E000EE56ED4EC14F0040EE126A3
:103F70000001E96BE4CF02F0E4CF01F0E4CF00F000
:103F80001200D9CFE5FFE1CFD9FF00C0E5FF01C0A6
:103F9000E5FF02C0E5FF020EDBCF00F0030EDBCF32
:103FA00001F092EC21F00044FE0B026E0150D8802B
:103FB000E866D890006A00360050D880E866D8904D
:103FC000006A0036005002120250E56E2BEC23F01E
:103FD000E652E4CF02F0E4CF01F0E4CF00F0E4CF0A
:103FE000D9FF12000001E46B0001E56B0001E669F6
:103FF0008B809490B06A3F0EAF6EB886AC8AAC846A
:10400000AC8CAC90AB8CAB8E0301856B03017F6BEA
:104010000301826B0301836B0301846B000EE56A6D
:104020005BEC24F00001E86FE6529F989F9A010E26
:104030000001E76F04017D6B7E6B2F0E7F6F69ECD3
:1040400024F0120000C0E5FF01C0E5FF02C0E5FF5B
:1040500003C0E5FFE80E006E030E016E0050FF0F77
:10406000026EFF0E0120036E02C000F003C001F0DB
:10407000025003100AE01F0EC514026E036AC7B493
:10408000032A035002120250E9E1E4CF03F0E4CF27
:1040900002F0E4CF01F0E4CF00F0120000C0E5FF31
:1040A00001C0E5FF02C0E5FF03C0E5FFE80E006EBA
:1040B000030E016E22EC20F0C5860050FF0F026E49
:1040C000FF0E0120036E02C000F003C001F0025099
:1040D000031005E0F5EC24F0026E0250EEE0C9504A
:1040E000E4CF03F0E4CF02F0E4CF01F0E4CF00F03E
:1040F00012000001E2510401876F0001E351040145
:10410000886FD650856FD750866F87510001E219AE
:1041100005E1040188510001E3190CE00001E251BE
:104120000401876F0001E3510401886FD650856F49
:10413000D750866F88C4E9FF87C4F4FF86C4F3FFB5
:1041400004018551120000C0E5FF01C0E5FF030135
:10415000835103018C1905E0030183510301821986
:1041600002E1E86A15D083C300F00301832B016AE2
:10417000600E0026000E012200C0E9FF01C0EAFF28
:10418000EFCF00F08351800A02E10301836B0050FE
:10419000E4CF01F0E4CF00F0120000C0E5FF01C061
:1041A000E5FF02C0E5FF03C0E5FFE80E006E030E69
:1041B000016E22EC20F09E96C59AC5880050FF0F34
:1041C000026EFF0E0120036E02C000F003C001F07A
:1041D0000250031002E09EA6F1D7E4CF03F0E4CF33
:1041E00002F0E4CF01F0E4CF00F0120000C0E5FFE0
:1041F00004EC25F00401896B806B8983006A89B324
:10420000002A0050010BE844F46E8051FD0BF410BD
:10421000806FD58ED59CD59AD588D596D594D582E4
:10422000D580F28AF184D08EF28EF28CBA80FF0EA5
:10423000BB68BA84E4CF00F01200D9CFE5FFE1CF2C
:10424000D9FF00C0E5FF01C0E5FF020EDBCF00F0A3
:104250000050020DF450016EF3CF00F0000E002666
:10426000030E012200C0E9FF01C0EAFFEECF00F01B
:10427000EFCF01F001C0F3FF0050E4CF01F0E4CF35
:1042800000F0E4CFD9FF1200D9CFE5FFE1CFD9FF8D
:1042900000C0E5FF01C0E5FF020EDBCF00F00050DB
:1042A000020DF450016EF3CF00F0390E0026040E1B
:1042B000012200C0E9FF01C0EAFFEECF00F0EFCF1E
:1042C00001F001C0F3FF0050E4CF01F0E4CF00F0B3
:1042D000E4CFD9FF120000C0E5FF01C0E5FF02C036
:1042E000E5FF03C0E5FFE80E006E030E016E22EC51
:1042F00020F0C5840050FF0F026EFF0E0120036EF8
:1043000002C000F003C001F00250031002E0C5B487
:10431000F1D7E4CF03F0E4CF02F0E4CF01F0E4CF33
:1043200000F0120000C0E5FF01C0E5FF02C0E5FF9C
:1043300003C0E5FFE80E006E030E016E22EC20F0D4
:10434000C5800050FF0F026EFF0E0120036E02C0F9
:1043500000F003C001F00250031002E0C5B0F1D735
:10436000E4CF03F0E4CF02F0E4CF01F0E4CF00F0BB
:104370001200D9CFE5FFE1CFD9FF00C0E5FF01C0B2
:10438000E5FF02C0E5FF020EDBCF00F071C301F0D4
:1043900072C302F00301713F01D0722B0050E56E31
:1043A0000150E56E04EC22F0E652E652E4CF02F052
:1043B000E4CF01F0E4CF00F0E4CFD9FF1200D8CF72
:1043C000E5FFE0CFE5FFE56EF3CFE5FFF4CFE5FFD6
:1043D000E9CFE5FFEACFE5FFFACFE5FFFBCFE5FF49
:1043E000FAEC0BF0E4CFFBFFE4CFFAFFE4CFEAFFF7
:1043F000E4CFE9FFE4CFF4FFE4CFF3FFE450E4CFF0
:10440000E0FFE4CFD8FF1000D9CFE5FFE1CFD9FF1F
:1044100000C0E5FF020EDBCF00F0030EDBCFA8FFEC
:1044200000C0A9FFA69EA69CA684F29EF29C550EF3
:10443000A76EAA0EA76EA682A6A202D00000FCD785
:10444000A694F28EF28CE4CF00F0E4CFD9FF1200F4
:10445000E8AE0AD0F3CFEAFFEE50EECFF3FFEECF97
:10446000F4FFEECFE9FF1200E8BC19EF25F0E9CF29
:10447000F6FFF3CFF7FFF86E0900F5500900F5CF0E
:10448000F3FF0900F5CFF4FF0900F5CFE9FF1200B3
:1044900000C0E5FFA3EC20F0006E0A0A04E0005023
:1044A0000B0A0AE011D0A3EC20F003017C6FFF0B94
:1044B000FF080401376F08D0A3EC20F003017C6FE4
:1044C000FF0BFF080F01376FE4CF00F0120000C0B0
:1044D000E5FF01C0E5FF0001E4510001E51902E13B
:1044E000E86A0FD0000E0001E525006E016A010E9A
:1044F000012200C0E9FF01C0EAFFEFCF00F0E52B89
:104500000050E4CF01F0E4CF00F01200F2CFEAFF58
:10451000F29EA69EA69CA684E9CFA9FFF3CFAAFF90
:10452000E4CFA8FFC8EC24F0F4CFA8FFC8EC24F037
:10453000F6CFA8FFC8EC24F0F7CFA8FFC8EC24F012
:10454000A694EABEF28E1200D9CFE5FFE1CFD9FFE3
:1045500000C0E5FF01C0E5FF020EDBCF00F0016AFD
:10456000400E0026030E012200C0E9FF01C0EAFF51
:10457000FF0EEF68E4CF01F0E4CF00F0E4CFD9FF05
:104580001200F2CFF6FFF29EA69EA69CE9CFA9FFED
:10459000F3CFAAFFA680A850A94AAA2AA680A8CF2E
:1045A000F3FFA94AAA2AA680A8CFF4FFA94AAA2AFB
:1045B000A680A8CFEAFFF6BEF28E1200E8AE08D0C1
:1045C000F3CFEAFFEE50EECFF3FFEECFF4FF120091
:1045D000E8BC21EF25F0E9CFF6FFF3CFF7FFF86E47
:1045E0000900F5500900F5CFF3FF0900F5CFF4FFFE
:1045F0001200F2CFEAFFF29EA69EA69CA684E9CF07
:10460000A9FFF3CFAAFFE4CFA8FFC8EC24F0F4CFB2
:10461000A8FFC8EC24F0F6CFA8FFC8EC24F0A694BD
:10462000EABEF28E1200D9CFE5FFE1CFD9FF00C07C
:10463000E5FF020EDBCF00F000C0E8F00050E56EB1
:10464000000EE56A04EC22F0E652E652E4CF00F0F8
:10465000E4CFD9FF1200D9CFE5FFE1CFD9FF00C0E9
:10466000E5FF020EDBCF00F0C69E00C0C9FFC6AE5C
:1046700002D0E86803D022EC20F0E86AE4CF00F032
:10468000E4CFD9FF1200F2CFF6FFF29EA69EA69CC1
:10469000E9CFA9FFF3CFAAFFA680A850A94AAA2A6A
:1046A000A680A8CFF3FFA94AAA2AA680A8CFF4FF24
:1046B000F6BEF28E120000C0E5FF01C0E5FF600EFD
:1046C00003018325006E016A000E012200C0E9FF8C
:1046D00001C0EAFFEFCF00F00050E4CF01F0E4CFDB
:1046E00000F01200D9CFE5FFE1CFD9FF00C0E5FF10
:1046F000020EDBCF00F0610E005C05E37B0E005C78
:1047000002E2010E01D0E86AE4CF00F0E4CFD9FF65
:10471000120000C0E5FF01C0E5FF71C300F072C3E5
:1047200001F00301713F01D0722B0050E56E5BEC8C
:1047300024F0E652E4CF01F0E4CF00F01200D9CF2C
:10474000E5FFE1CFD9FF00C0E5FF020EDBCF00F0AF
:1047500000C0E7F0005004E169EC24F09D9A9D98B8
:10476000E4CF00F0E4CFD9FF1200E8AE06D0F3CFDB
:10477000EAFFEE50EECFF3FF1200E8BC17EF25F092
:10478000E9CFF6FFF3CFF7FFF86E0900F550090007
:10479000F5CFF3FF1200F2CFEAFFF29EA69EA69C91
:1047A000A684E9CFA9FFF3CFAAFFE4CFA8FFC8EC06
:1047B00024F0F4CFA8FFC8EC24F0A694EABEF28E51
:1047C000120012EEFFF022EEFFF0F86AA68EA69C11
:1047D000E9680E0EEA6E0068000EED6A0050FDE119
:1047E00083EC1BF006EC00F0FFD7F2CFF6FFF29E51
:1047F000A69EA69CE9CFA9FFF3CFAAFFA680A8504A
:10480000A94AAA2AA680A8CFF3FFF6BEF28E12000C
:10481000F2CFEAFFF29EA69EA69CA684E9CFA9FF4E
:10482000F3CFAAFFE4CFA8FFC8EC24F0A694EABE19
:10483000F28E1200E8AE0BD0F3CFEAFFE4CFEEFF2A
:10484000F4CFEEFFF6CFEEFFF7CFEEFF1200E8BC9D
:104850001BEF25F01200E8AE04D0F3CFEAFFEE50D4
:104860001200E8BC15EF25F0E9CFF6FFF3CFF7FF14
:10487000F86E0900F5501200000000000000FF0073
:104880000000000A000200000042000000000000DA
:104890000000000000000000E8AE09D0F3CFEAFFFE
:1048A000E4CFEEFFF4CFEEFFF6CFEEFF1200E8BC50
:1048B00023EF25F01200D9CFE5FFE1CFD9FF020E9B
:1048C000DBCFA9FFA69CA69EA680A850E4CFD9FF67
:1048D0001200ACA2FED78B80AE500000AE50AB9859
:1048E000AB88AB869D8A9D98120025642000F2CF8C
:1048F000F6FFF29EA69EA69CE9CFA9FFF3CFAAFFE2
:10490000A680A850F6BEF28E1200E8AE07D0F3CF14
:10491000EAFFE4CFEEFFF4CFEEFF1200E8BC1FEF9A
:1049200025F01200700ED36E9B8CFF0E9268936878
:1049300094689668626AF19E120000C0E5FFEAEC96
:104940001EF0006E005001E1FF00E4CF00F0120005
:104950000F01456B900E0F01446F030E0F01436F63
:104960000F01458F1200E8AE05D0F3CFEAFFE4CF88
:10497000EEFF1200E8BC1DEF25F01200D9CFE5FFD5
:10498000E1CFD9FF020EDBCFEDF0E4CFD9FF12006B
:10499000550EA76EAA0EA76EA682A6B2FED7A94A8A
:1049A000AA2A010E03017D6F1C0E0301716F726B49
:1049B000120022EC20F09E96C58AC5889EA6FED7DE
:1049C000120003017D6B1C0E0301716F726B1200EC
:1049D000010078480000E00000002000000022EC08
:1049E00020F0C582C5B2FED71200C7A002D0010ECA
:1049F00001D0E86A1200F6EC20F0F2EC1FF0120091
:104A0000ACA2FED7AD6E120092EC24F012000301AE
:104A10008351120003018D5112000001E751120071
:104A2000E8CF7FFF1200C96E120077EF24F0F5EF98
:104A300023F0C1EF22F086EF22F008EF24F0CBEF55
:0A4A400023F043EF23F0F9EF22F01A
:00000001FF
