:020000040000FA
:1000000055EF25F0C69A120059EF20F00BEC1DF0C9
:10001000BDEC16F0FDD7120072EF23F0D9CFE5FF4B
:10002000E1CFD9FF00C0E5FF01C0E5FF02C0E5FF59
:1000300003C0E5FF04C0E5FF05C0E5FF06C0E5FF1E
:1000400007C0E5FF08C0E5FF09C0E5FF0AC0E5FFFE
:100050000BC0E5FF0CC0E5FF0DC0E5FF0EC0E5FFDE
:100060000FC0E5FF10C0E5FF11C0E5FF12C0E5FFBE
:1000700013C0E5FF14C0E5FF15C0E5FF16C0E5FF9E
:1000800017C0E5FF18C0E5FF19C0E5FF1AC0E5FF7E
:100090001BC0E5FF1CC0E5FF1DC0E5FF1EC0E5FF5E
:1000A000020EDBCF00F0030EDBCF01F0040EDBCF3E
:1000B00002F0050EDBCF03F0060EDBCF04F0070ED7
:1000C000DBCF05F0080EDBCF06F0090EDBCF07F023
:1000D0000A0EDBCF08F0096A0A6A02C00DF00D5063
:1000E000800A0DE1025003017C6F01507B6F0050CC
:1000F0007A6F030E016E7A0E006E800E026E03C0E0
:10010000E9FF04C0F3FF05509FEC25F00B6E0B5088
:10011000D8B4C4EF03F00B50250A02E0ABEF03F0B4
:100120000C6A0D6A0E6A0F6A106A0A0E116E126A64
:10013000136A146A200E156E1668176A2B0E186E55
:10014000032A02E3044A052A03C0E9FF04C0F3FFBF
:1001500005509FEC25F0196E250A13E11950E56E44
:100160000250E56E0150E56E0050E56E2BEC14F088
:10017000040EE126094A0A2A032A02E3044A052A50
:10018000BED71950300A06E1300E156E032A02E37D
:10019000044A052A03C0E9FF04C0F3FF05509FECA1
:1001A00025F02D0A06E1010E146E032A02E3044A2B
:1001B000052A03C0E9FF04C0F3FF05509FEC25F0BA
:1001C000200A08E1010E176E200E186E032A02E3C2
:1001D000044A052A03C0E9FF04C0F3FF05509FEC61
:1001E00025F02B0A06E1010E176E032A02E3044AEA
:1001F000052A03C0E9FF04C0F3FF05509FEC25F07A
:10020000196E310E195C2BE33A0E195C28E203C01B
:1002100019F004C01AF005C01BF019C0E9FF1AC09C
:10022000F3FF1B509FEC25F01C6E300E1C5C11E39D
:100230003A0E1C5C0EE213500A0DF3CF1DF01C5059
:100240001D26D00E1D24136E192A02E31A4A1B2AFA
:10025000E4D719C003F01AC004F01BC005F003C0B6
:10026000E9FF04C0F3FF05509FEC25F02E0A2DE1B5
:10027000032A02E3044A052A166A03C019F004C0DF
:100280001AF005C01BF019C0E9FF1AC0F3FF1B509C
:100290009FEC25F01C6E300E1C5C11E33A0E1C5CCA
:1002A0000EE216500A0DF3CF1DF01C501D26D00E85
:1002B0001D24166E192A02E31A4A1B2AE4D719C014
:1002C00003F01AC004F01BC005F003C0E9FF04C02E
:1002D000F3FF05509FEC25F0196E6C0A07E1010E43
:1002E0000C6E032A02E3044A052A09D01950680A51
:1002F00006E1010E0E6E032A02E3044A052A03C03A
:10030000E9FF04C0F3FF05509FEC25F0750A06E1F4
:10031000010E106E032A02E3044A052A03C0E9FF16
:1003200004C0F3FF05509FEC25F0196E730A05E138
:10033000010E0D6E200E156E3FD01950780A03E1A4
:10034000100E116E39D01950580A05E1100E116EB9
:10035000010E126E31D01950630A02E1116A2CD0DD
:1003600019506F0A03E1080E116E26D01950660A63
:1003700003E1010E0F6E20D01950640A1DE01950E0
:10038000690A1AE0105005E0FF0E03260422052238
:1003900013D01950E56E0250E56E0150E56E005025
:1003A000E56E2BEC14F0040EE126094A0A2A032A12
:1003B00002E3044A052AA3D60D5021E00650030F9C
:1003C0000D6E000E0720196E000E08201A6E0DC06B
:1003D00006F019C007F01AC008F0FD0E0D26FF0E3A
:1003E00019221A220DC0E9FF19C0F3FF1A5052EC6E
:1003F00024F00D6EF3CF19F0F4CF1AF0FDD00F50AA
:100400000DE0000E1A6E080E196E100E0D6E040E21
:100410000626000E072208221668EED016680C5039
:1004200023E00650040F0C6E000E07200F6E000E26
:1004300008201B6E0CC006F00FC007F01BC008F0B0
:10044000FC0E0C26FF0E0F221B220CC0E9FF0FC072
:10045000F3FF1B50BBEC23F00C6EF3CF0FF0F4CF87
:100460001BF0E9CF1CF067D00E502FE00650020FB2
:100470000E6E000E07201D6E000E08201E6E0EC0B0
:1004800006F01DC007F01EC008F0FE0E0E26FF0E7F
:100490001D221E220EC0E9FF1DC0F3FF1E5029ECD5
:1004A00025F00E6E0EC00CF00F6A1B6A1C6A11500C
:1004B0000A0A03E11050D8B43ED00C500E6E0EC0A4
:1004C0000CF00F6A1B6A1C6A36D00650020F0E6EC3
:1004D000000E07201D6E000E08201E6E0EC006F0D6
:1004E0001DC007F01EC008F0FE0E0E26FF0E1D22D6
:1004F0001E220EC0E9FF1DC0F3FF1E5029EC25F09F
:100500000E6EF3CF1DF00EC00CF01DC00FF0E86AA8
:100510001DBEFF0E1B6E1C6E11500A0A02E1105028
:100520000AE00C500E6E0F501D6E0EC00CF01DC078
:100530000FF01B6A1C6A040E196EF40E0D6E800E0D
:100540001A6E1150D8B440D0105013E01150E56E1F
:10055000040EE56EF40EE56E1C50E56E1B50E56E64
:100560000F50E56E0C50E56E25EC0DF0070EE12600
:1005700012D01150E56E040EE56EF40EE56E1C50BF
:10058000E56E1B50E56E0F50E56E0C50E56ED1EC3C
:1005900019F0070EE12617502FE00DC0E9FF19C032
:1005A000F3FF1A509FEC25F02D0A26E0FF0E0D26D2
:1005B00019221A2218C0E5FF0DC0E9FF19C0F3FF88
:1005C0001A5034EC26F018D00CC0E5FF0DC0E9FF3E
:1005D00019C0F3FF1A5034EC26F00D50010F0C6EC9
:1005E000000E19200E6E000E1A20E56A0CC0E9FFFD
:1005F0000EC0F3FF34EC26F00DC00CF019C00EF065
:100600001AC00FF013C010F0105010E00CC0E9FF3A
:100610000EC0F3FF0F509FEC25F0176E175006E049
:100620000C2A02E30E4A0F2A1006EED710C013F070
:1006300014501EE109C00CF00AC00EF010C00FF0FB
:100640000F5010E01550E56E0250E56E0150E56E5A
:100650000050E56E2BEC14F0040EE1260C4A0E2A35
:100660000F06EED70CC009F00EC00AF00FC013F051
:1006700016C00CF00DC00DF019C00EF01AC00FF02E
:1006800009C010F00AC015F00DC0E9FF0EC0F3FF5D
:100690000F509FEC25F0166E1650D8B43ED00CC00B
:1006A00016F0176A161E171E1650171005E00CC01C
:1006B00016F00C06165031E00DC0E9FF0EC0F3FF36
:1006C0000F509FEC25F0116E125010E01150E56EA6
:1006D000E6EC24F0166EE652165004E0DF0E11141C
:1006E000166E02D011C016F016C011F01150E56E52
:1006F0000250E56E0150E56E0050E56E2BEC14F0F3
:10070000040EE1260D2A02E30E4A0F2A104A152A8A
:100710001350D8B4B9D71306B7D710C009F015C015
:100720000AF014502BE010C00CF015C00DF013C0EF
:100730000EF00E501FE0200EE56E0250E56E0150E7
:10074000E56E0050E56E2BEC14F0040EE1260C4A29
:100750000D2A0E06EED70B50E56E0250E56E0150E5
:10076000E56E0050E56E2BEC14F0040EE126094A0C
:100770000A2A04D00CC009F00DC00AF0032A02E3D3
:10078000044A052A7FEF00F00AC0F3FF0950E4CFC6
:100790001EF0E4CF1DF0E4CF1CF0E4CF1BF0E4CF5B
:1007A0001AF0E4CF19F0E4CF18F0E4CF17F0E4CF5B
:1007B00016F0E4CF15F0E4CF14F0E4CF13F0E4CF5B
:1007C00012F0E4CF11F0E4CF10F0E4CF0FF0E4CF5B
:1007D0000EF0E4CF0DF0E4CF0CF0E4CF0BF0E4CF5B
:1007E0000AF0E4CF09F0E4CF08F0E4CF07F0E4CF5B
:1007F00006F0E4CF05F0E4CF04F0E4CF03F0E4CF5B
:1008000002F0E4CF01F0E4CF00F0E4CFD9FF120012
:100810003C4E4F20464C4F41543E000000C0E5FF87
:1008200001C0E5FF02C0E5FF03C0E5FF04C0E5FF2E
:1008300005C0E5FF06C0E5FF07C0E5FF08C0E5FF0E
:1008400009C0E5FF0AC0E5FFC2A204D00001EE51D5
:1008500047EF06F00001EF51D8B42FD10001EE515F
:10086000020DF450016EF3CF00F0390E0026040E95
:10087000012200C0E9FF01C0EAFFEECF00F0EFCF98
:1008800001F0230EEE25026E036A040E032202C05D
:10089000E9FF03C0EAFFEFCF02F00250FF0A01E1D7
:1008A00066D002380F0B036E920E0324046E056AA5
:1008B0000F0E0522066A920E03260F0E062203C0B3
:1008C000E9FF06C0EAFFEFCF03F00250066E070E05
:1008D0000616010E076E06500DE006E6E86CD8908D
:1008E0000736010FFDE306D0D89007BED880073247
:1008F000010FFBE3071C066E0350061604C0E9FF58
:1009000005C0EAFF06C0EFFF02380F0B036E890E29
:100910000324046E056A0F0E0522066A890E03265B
:100920000F0E062203C0E9FF06C0EAFFEFCF03F077
:100930000250066E070E0616010E076E06500DE0F9
:1009400006E6E86CD8900736010FFDE306D0D89094
:1009500007BED8800732010FFBE3071C066E035069
:10096000061604C0E9FF05C0EAFF06C0EFFF00015C
:10097000EE51020DF450046EF3CF03F0390E03264E
:10098000040E042200380F0B056E0138066EF00BC2
:10099000061A0526F00E06B606260550005C056E02
:1009A00006500158066EC3CF07F0086A07500526A7
:1009B00008500622C4CF07F0086A07500A6E096A79
:1009C000095005260A50062203C0E9FF04C0EAFFC9
:1009D00005C0EEFF06C0EFFF0001EA51010A01E089
:1009E0006AD00001EE51020DF450046EF3CF03F013
:1009F000390E0324056E040E0420066E05C0E9FFBF
:100A000006C0EAFFEECF00F0EFCF01F0B30E0326F1
:100A1000040E042203C0E9FF04C0EAFFEECF05F094
:100A2000EFCF06F09C0E0526D8A006060150800FD9
:100A3000F36E0650800FF35C02E10550005C0EE29D
:100A40000050640F056E000E0120066E03C0E9FF22
:100A500004C0EAFF05C0EEFF06C0EFFF0001EE5143
:100A6000020DF450046EF3CF03F0D30E0326040EF0
:100A7000042203C0E9FF04C0EAFFEECF05F0EFCF88
:100A800006F0640E0526D8B0062A0650800FF36ED5
:100A90000150800FF35C02E10050055C0CE29C0EFB
:100AA0000026D8A0010603C0E9FF04C0EAFF00C089
:100AB000EEFF01C0EFFF0001EF6B0001EE2B100E07
:100AC000EE5D01E3EE6B0001EE39E8441F0B006EB2
:100AD000016A7F0E0026030E012200C0E9FF01C05B
:100AE000EAFFEFCF00F0EEC001F0070E0116010E95
:100AF000036E000E046E015006E0E86CD8900336D9
:100B00000436010FFCE3056A005003160550041675
:100B100003500410D880E866D890036A0336035067
:100B2000D8A4B3D0230E0001EE25006E016A0F0E8B
:100B3000012200C0E9FF01C0EAFFEFCF00F000444E
:100B4000E844FC0B016E0128C26E230EEE25006EF8
:100B5000016A040E012200C0E9FF01C0EAFFEFCFE5
:100B600002F00250FF0A01E18CD002380F0B006E38
:100B7000920E0024016E036A0F0E0322046A920E85
:100B800000260F0E042200C0E9FF04C0EAFFEFCFE9
:100B900000F00250046E070E0416010E056E04509C
:100BA0000DE006E6E86CD8900536010FFDE306D0AF
:100BB000D89005BED8800532010FFBE30050051226
:100BC00001C0E9FF03C0EAFF05C0EFFF380E006E69
:100BD0000F0E016E02380F0B036E046A03500026DD
:100BE00004500122380E056E0F0E066E05500326C6
:100BF0000650042203C0E9FF04C0EAFFEFCF03F070
:100C0000070E0216010E046E02500DE006E6E86CB7
:100C1000D8900436010FFDE306D0D89004BED880EA
:100C20000432010FFBE30350041200C0E9FF01C0CE
:100C3000EAFF04C0EFFF0F01458300000000459369
:100C40000F0144930BC0E5FFF2CF0BF0F29E4481FD
:100C50000000000000000000000000000000000094
:100C60000000000000000000000000000000000084
:100C7000000000000000000044910BBEF28EE4CFA3
:100C80000BF0C282010E0001EF6F0001EE51E4CFC4
:100C90000AF0E4CF09F0E4CF08F0E4CF07F0E4CFA6
:100CA00006F0E4CF05F0E4CF04F0E4CF03F0E4CFA6
:100CB00002F0E4CF01F0E4CF00F0120000C0E5FF45
:100CC00001C0E5FF02C0E5FF03C0E5FF04C0E5FF8A
:100CD00005C0E5FF06C0E5FF07C0E5FF08C0E5FF6A
:100CE00009C0E5FF0AC0E5FF0BC0E5FF0CC0E5FF4A
:100CF000006A016A026A040E025CD8B0ECD101C03D
:100D000003F0012A100E035CD8B0E5D10001F02BEE
:100D1000100EF05D01E3F06B0001F039E8441F0BA9
:100D2000036E046A7F0E0326030E042203C0E9FF4C
:100D300004C0EAFFEFCF03F0F0C004F0070E041682
:100D4000010E056E000E066E045006E0E86CD890A9
:100D500005360636010FFCE3076A035005160750F7
:100D6000061605500610D880E866D890056A053644
:100D70000550D8A4C0D70001F051020DF450046E04
:100D8000F3CF03F0390E0324056E040E0420066E23
:100D900005C0E9FF06C0EAFFEECF05F0EFCF06F091
:100DA000EDC007F007A09DD0B30E0324076E040E1C
:100DB0000420086E07C0E9FF08C0EAFFEECF07F085
:100DC000EFCF08F00650800FF36E0850800FF35CF1
:100DD00002E10750055C03E2056A066A60D0D30EA3
:100DE0000326040E042203C0E9FF04C0EAFFEECF8D
:100DF00003F0EFCF04F00450800FF36E0650800F25
:100E0000F35C02E10550035C04E205683F0E066EE8
:100E100046D00750055C096E085006580A6EE86A0D
:100E20000ABEFF0E0B6EE56E0B50E56E0A50E56EC6
:100E30000950E56EE56AE56A400EE56E000EE56A6A
:100E40001BEC0CF0096EF3CF0AF0F4CF0BF0E9CFF6
:100E50000CF0080EE1260750035C076E085004589A
:100E6000086EE86A08BEFF0E036EE56E0350E56E7D
:100E70000850E56E0750E56E0C50E56E0B50E56EC0
:100E80000A50E56E0950E56E0EEC13F0036EF3CFD9
:100E900004F0080EE1260350056E0450066E0001B2
:100EA000EC51800FF36E0650800FF35C02E10550A9
:100EB000EB5D03E3056A066A14D00001EB51FF08FD
:100EC000036E3F0EEC55046E0650800FF36E045017
:100ED000800FF35C02E10350055C03E305683F0EFD
:100EE000066E0001F051020DF450046EF3CF03F0D2
:100EF000930E0326040E042203C0E9FF04C0EAFF98
:100F0000EECF03F0EFCF04F00350055C036E045006
:100F10000658046ED88004AED89004E3041E036C17
:100F2000D8B4042A022A0001EC51800FF36E045059
:100F3000800FF35C02E10350EB5DD8B0DCD600011A
:100F4000F051020DF450086EF3CF07F0930E072610
:100F5000040E082207C0E9FF08C0EAFF05C0EEFF43
:100F600006C0EFFFEDC007F007A459D0F051020D05
:100F7000F450086EF3CF07F0000E0724096E030E3D
:100F800008200A6E09C0E9FF0AC0EAFFEECF0BF0A5
:100F9000EFCF0CF00B500C10D8B441D0590E0726EF
:100FA000040E082207C0E9FF08C0EAFFEECF07F0F1
:100FB000EFCF08F00750055C036E08500658046E2A
:100FC00003101CE00450800F800F02E1010E035C4F
:100FD000076A07360C50800F800F02E1010E0B5C90
:100FE0000B6A0B3607500B1809E109C0E9FF0AC06C
:100FF000EAFF03C0EEFF04C0EFFF7DD60001F05111
:10100000020DF450046EF3CF03F0000E0326030E1E
:10101000042203C0E9FF04C0EAFFEE6AEF6AEDC0F4
:1010200003F003A244D000500EE100C003F0002AF8
:10103000046AF10E0326000E042203C0E9FF04C077
:10104000EAFF420EEF6E00C003F0002A046AF10EC0
:101050000326000E04220001F051076E640E0726DD
:1010600003C0E9FF04C0EAFF07C0EFFF00C003F0C0
:10107000002A046AF10E0326000E04220650076EB1
:1010800003C0E9FF04C0EAFF07C0EFFF00C003F0A0
:10109000002A046AF10E0326000E04220550076E92
:1010A00003C0E9FF04C0EAFF07C0EFFF24D6F0C089
:1010B00003F00650E56E0550E56EE56A0350E56EF7
:1010C000000EE56E2C0EE56E7A0EE56EB2EC1EF0AB
:1010D000070EE12610D602C001F000501EE0EDC060
:1010E00002F002A21AD000C002F0002A036AF10E38
:1010F0000226000E032202C0E9FF03C0EAFF0A0E27
:10110000EF6E0050E56E800EE56E000EE56EF10E9E
:10111000E56E3DEC15F0040EE1260150E4CF0CF035
:10112000E4CF0BF0E4CF0AF0E4CF09F0E4CF08F00D
:10113000E4CF07F0E4CF06F0E4CF05F0E4CF04F00D
:10114000E4CF03F0E4CF02F0E4CF01F0E4CF00F00D
:101150001200800EE56E040EE56ED30EE56ED7EC40
:101160001BF0030EE126800EE56E040EE56EB30E55
:10117000E56ED7EC1BF0030EE126800EE56E040E43
:10118000E56ED50EE56ED7EC1BF0030EE126800E62
:10119000E56E040EE56EB50EE56ED7EC1BF0030EA2
:1011A000E126800EE56E040EE56ED70EE56ED7ECF7
:1011B0001BF0030EE126800EE56E040EE56EB70E01
:1011C000E56ED7EC1BF0030EE126800EE56E040EF3
:1011D000E56ED90EE56ED7EC1BF0030EE126800E0E
:1011E000E56E040EE56EB90EE56ED7EC1BF0030E4E
:1011F000E126800EE56E040EE56EDB0EE56ED7ECA3
:101200001BF0030EE126800EE56E040EE56EBB0EAC
:10121000E56ED7EC1BF0030EE126800EE56E040EA2
:10122000E56EDD0EE56ED7EC1BF0030EE126800EB9
:10123000E56E040EE56EBD0EE56ED7EC1BF0030EF9
:10124000E126800EE56E040EE56EDF0EE56ED7EC4E
:101250001BF0030EE126800EE56E040EE56EBF0E58
:10126000E56ED7EC1BF0030EE126800EE56E040E52
:10127000E56EE10EE56ED7EC1BF0030EE126800E65
:10128000E56E040EE56EC10EE56ED7EC1BF0030EA5
:10129000E126800EE56E040EE56EE30EE56ED7ECFA
:1012A0001BF0030EE126800EE56E040EE56EC30E04
:1012B000E56ED7EC1BF0030EE126800EE56E040E02
:1012C000E56EE50EE56ED7EC1BF0030EE126800E11
:1012D000E56E040EE56EC50EE56ED7EC1BF0030E51
:1012E000E126800EE56E040EE56EE70EE56ED7ECA6
:1012F0001BF0030EE126800EE56E040EE56EC70EB0
:10130000E56ED7EC1BF0030EE126800EE56E040EB1
:10131000E56EE90EE56ED7EC1BF0030EE126800EBC
:10132000E56E040EE56EC90EE56ED7EC1BF0030EFC
:10133000E126800EE56E040EE56EEB0EE56ED7EC51
:101340001BF0030EE126800EE56E040EE56ECB0E5B
:10135000E56ED7EC1BF0030EE126800EE56E040E61
:10136000E56EED0EE56ED7EC1BF0030EE126800E68
:10137000E56E040EE56ECD0EE56ED7EC1BF0030EA8
:10138000E126800EE56E040EE56EEF0EE56ED7ECFD
:101390001BF0030EE126800EE56E040EE56ECF0E07
:1013A000E56ED7EC1BF0030EE126800EE56E040E11
:1013B000E56EF10EE56ED7EC1BF0030EE126800E14
:1013C000E56E040EE56ED10EE56ED7EC1BF0030E54
:1013D000E126120000C0E5FF01C0E5FF02C0E5FF05
:1013E00003C0E5FF0001E751D8B40AD19DA81DD084
:1013F0009EA81BD0030193510301901905E1DDEC78
:1014000025F00301906BFCD0000E03019325006EC4
:10141000016A040E012200C0E9FF01C0EAFFEFCF1C
:101420008CF3932B8CC3ADFFEBD09EAAE9D0ABA27B
:1014300005D003019181DDEC25F0E2D0ABA405D00D
:1014400003019183DDEC25F0DBD0ABA048D0AECF1B
:101450008CF3E8C000F0016A008E8CC302F0036ACE
:101460000250001803E10350011801E004D0030109
:101470009189AB96C5D003018C5104E08C510001D9
:10148000E81929E103019199AB9603018C5103E01E
:101490000301919702D0030191878CC395F38EC30A
:1014A00096F303018E51006E00040301976F600EE6
:1014B00003019625006E016A000E012200C0E9FFBB
:1014C00001C0EAFF8CC3EFFF962B9651800A02E120
:1014D0000301966B95D003019199AB8691D0AECF65
:1014E0008CF3030191A921D0E8C000F0016A008EBD
:1014F0008CC302F0036A0250001803E10350011884
:1015000001E011D08B909D9AAB980301905104E1BA
:10151000AD6ADDEC25F007D000C4ADFF010E03017C
:10152000936F9D886DD0AB866BD003018C51030106
:10153000952703019651030197191BE1030195516A
:101540000CE196C38EF3030191B712D08B909D9A54
:10155000AB98AD6ADDEC25F00BD00301918591B716
:1015600007D08B909D9AAB98010EAD6EDDEC25F007
:1015700047D00301965103018F1908E103018F51F0
:1015800003018E1903E0DDEC25F03AD08EC300F0A4
:10159000016A004A012AE56A800EE56E0150E56E97
:1015A0000050E56E25EC18F0006E040EE1260050A8
:1015B00003018D6F030196190FE18CC300F01F0E1C
:1015C00000140301976F006E020E0024976F030151
:1015D0008E5103019727979F96C300F00301962B26
:1015E000016A600E0026000E012200C0E9FF01C062
:1015F000EAFF8CC3EFFF9651800A02E10301966B6C
:10160000E4CF03F0E4CF02F0E4CF01F0E4CF00F048
:10161000120000C0E5FF01C0E5FF02C0E5FF03C006
:10162000E5FF04C0E5FF05C0E5FF06C0E5FF07C014
:10163000E5FF08C0E5FF09C0E5FF006A016A040E86
:10164000015CD8B0E2D0400E0001FE25026E036AB4
:10165000030E032202C0E9FF03C0EAFFEFCF02F04E
:101660000250FF0A01E1CAD00001FE39E8441F0B15
:10167000026E830E0224036E046A030E042203C06A
:10168000E9FF04C0EAFFEFCF03F0FEC004F0070E4D
:101690000416010E056E000E066E045006E0E86C9E
:1016A000D89005360636010FFCE3076A035005168D
:1016B0000750061605500610D880E866D890056ACF
:1016C00005360550D880E866D890056A053605507D
:1016D000036E046A810E0226030E042202C0E9FF93
:1016E00004C0EAFFEFCF05F0FEC006F0070E0616B5
:1016F000010E076E000E086E065006E0E86CD890EA
:1017000007360836010FFCE305C006F0096A0650EB
:1017100007160950081607500810D880E866D890B8
:10172000076A07360750D880E866D890076A0736F8
:101730000350071801E162D003501FE00001FE5181
:10174000066E070E0616010E076E06500DE006E641
:10175000E86CD8900736010FFDE306D0D89007BE9D
:10176000D8800732010FFBE30550071202C0E9FFE2
:1017700004C0EAFF07C0EFFF26D002C0E9FF04C0A3
:10178000EAFFEFCF05F00001FE51066E070E0616C8
:10179000010E076E06500DE006E6E86CD89007369D
:1017A000010FFDE306D0D89007BED8800732010FA5
:1017B000FBE3071C066E0550061602C0E9FF04C0D5
:1017C000EAFF06C0EFFF035003E1036A032A01D0DA
:1017D000036AFEC004F0E56A0350E56EE56A045052
:1017E000E56E000EE56E3C0EE56E4C0EE56EB2EC5D
:1017F0001EF0070EE126012A01C000F00001FE2BB9
:10180000100EFE5DD8A01BD7FE6B0050E4CF09F090
:10181000E4CF08F0E4CF07F0E4CF06F0E4CF05F022
:10182000E4CF04F0E4CF03F0E4CF02F0E4CF01F022
:10183000E4CF00F01200D9CFE5FFE1CFD9FF00C01F
:10184000E5FF01C0E5FF02C0E5FF03C0E5FF04C0FE
:10185000E5FF05C0E5FF06C0E5FF07C0E5FF020E96
:10186000DBCF00F0030EDBCF01F0040EDBCF02F084
:10187000050EDBCF03F0060EDBCF04F0070EDBCF47
:1018800005F0080EDBCF06F0090EDBCF07F00050A5
:1018900004018A6F01508B6F02508C6F03508D6F63
:1018A000045004018E6F05508F6F0650906F0750E3
:1018B000916F04018A5104019003F4CF01F0F3CF3A
:1018C00000F0005003016A6F01506B6F04018A51F0
:1018D00004018E03F4CF01F0F3CF00F000500301B8
:1018E000686F0150696F04018D5104018E03F3CFBD
:1018F00000F003016B51002600506B6F04018C5106
:1019000004018F03F3CF01F00150002600500301C2
:101910006B6F04018C5104018E03F4CF01F0F3CFFF
:1019200000F003016A5100266B51012200506A6FDA
:1019300001506B6F04018B5104018F03F4CF03F04E
:10194000F3CF02F0025000260350012200500301A1
:101950006A6F01506B6F04018B5104019003F3CF48
:1019600000F0005003016F6F04018B5104018E03DE
:10197000F4CF01F0F3CF00F0005003016D6F015080
:101980006E6F04018A5104019103F3CF00F00050FF
:101990000301736F04018A5104018F03F4CF01F036
:1019A000F3CF00F000500301716F0150726F03011B
:1019B0006C6B0301706B03016C5103016825006EB1
:1019C00003016D5103016921016E03016E51030191
:1019D0006A21026E03016F5103016B21036E0050F7
:1019E000686F0150696F02506A6F03506B6F03019B
:1019F000705103016825006E0301715103016921D3
:101A0000016E0301725103016A21026E03017351D9
:101A100003016B21036E03C0E9FF02C0F4FF01C0A4
:101A2000F3FF0050E4CF07F0E4CF06F0E4CF05F079
:101A3000E4CF04F0E4CF03F0E4CF02F0E4CF01F010
:101A4000E4CF00F0E4CFD9FF1200D9CFE5FFE1CF1A
:101A5000D9FF00C0E5FF01C0E5FF02C0E5FF03C0FC
:101A6000E5FF04C0E5FF05C0E5FF06C0E5FF07C0D0
:101A7000E5FF08C0E5FF09C0E5FF0AC0E5FF0BC0B0
:101A8000E5FF0CC0E5FF0DC0E5FF0EC0E5FF0FC090
:101A9000E5FF020EDBCF00F0030EDBCF01F0040EFA
:101AA000DBCF02F0050EDBCF03F0060EDBCF04F038
:101AB000070EDBCF05F0080EDBCF06F0200E076E19
:101AC000086A06C009F00A6A0B6A0C6AE56AE56AE8
:101AD000E56A0950E56E0350E56E0250E56E01506F
:101AE000E56E0050E56E84EC0FF00D6E080EE126F9
:101AF000300E0D263A0E0D5C05E30D500E6E270ECE
:101B00000E240D6EFF0E07260822200E07240E6EEF
:101B1000030E08200F6E0EC0E9FF0FC0EAFF0DC0D4
:101B2000EFFF0C50E56E0B50E56E0A50E56E095064
:101B3000E56E0350E56E0250E56E0150E56E005013
:101B4000E56E0EEC13F0006EF3CF01F0F4CF02F06F
:101B5000E9CF03F0080EE126005001100210031037
:101B6000D8A4AFD707C000F008C001F004C002F04D
:101B700005C003F000C004F001C005F0004A012ACE
:101B8000200E0426030E052204C0E9FF05C0EAFF6B
:101B9000EFCF04F002C0E9FF03C0EAFF04C0EFFF8B
:101BA000024A032A000E015C02E1200E005CE2E31F
:101BB00002C0E9FF03C0EAFF000EEF6AE4CF0FF0B6
:101BC000E4CF0EF0E4CF0DF0E4CF0CF0E4CF0BF057
:101BD000E4CF0AF0E4CF09F0E4CF08F0E4CF07F057
:101BE000E4CF06F0E4CF05F0E4CF04F0E4CF03F057
:101BF000E4CF02F0E4CF01F0E4CF00F0E4CFD9FF6E
:101C00001200D9CFE5FFE1CFD9FF00C0E5FF01C049
:101C1000E5FF02C0E5FF03C0E5FF04C0E5FF05C026
:101C2000E5FF06C0E5FF020EDBCF00F0030EDBCFC1
:101C300001F0040EDBCF02F000C0E9FF01C0F3FFAA
:101C400002509FEC25F0036EE56AE56E27EC21F06B
:101C5000E652E652320EE56E9FEC24F0E652FEECC0
:101C600022F0010EE56E0350E56E27EC21F0E652FE
:101C7000E6520050010F036E000E0120046E000EAC
:101C80000220056EB7EC21F0066E06C0E5FF03C02A
:101C9000E9FF04C0F3FF055034EC26F060EC22F0BD
:101CA0000050020F036E000E0120046E000E022091
:101CB000056EB7EC21F0066E06C0E5FF03C0E9FF34
:101CC00004C0F3FF055034EC26F060EC22F0005025
:101CD000030F036E000E0120046E000E0220056E3D
:101CE000B7EC21F0066E06C0E5FF03C0E9FF04C0B3
:101CF000F3FF055034EC26F060EC22F00050040FA6
:101D0000036E000E0120046E000E0220056EB7EC7B
:101D100021F0066E06C0E5FF03C0E9FF04C0F3FF33
:101D2000055034EC26F060EC22F00050050F036EF5
:101D3000000E0120046E000E0220056EB7EC21F0AB
:101D4000066E06C0E5FF03C0E9FF04C0F3FF0550BF
:101D500034EC26F060EC22F0060E0026000E012284
:101D60000222B7EC21F0036E03C0E5FF00C0E9FFDB
:101D700001C0F3FF025034EC26F0FEEC22F0E4CF79
:101D800006F0E4CF05F0E4CF04F0E4CF03F0E4CFB5
:101D900002F0E4CF01F0E4CF00F0E4CFD9FF12006D
:101DA00000C0E5FF01C0E5FF02C0E5FF03C0E5FF9D
:101DB00004C0E5FF05C0E5FF006A400E0024016E87
:101DC000026A030E022201C0E9FF02C0EAFFEFCF60
:101DD00001F00150FF0A01E185D001380F0B026EBE
:101DE000036A800E02260F0E032202C0E9FF03C021
:101DF000EAFFEFCF02F0070E0116010E036E000E90
:101E0000046E015006E0E86CD89003360436010FEA
:101E1000FCE3056A02500316055004160350041033
:101E2000D880E866D890036A033603502DE1003865
:101E3000E8441F0B016E026A830E0126030E022284
:101E400001C0E9FF02C0EAFFEFCF03F00050046ECB
:101E5000070E0416010E056E04500DE006E6E86C50
:101E6000D8900536010FFDE306D0D89005BED88086
:101E70000532010FFBE30350051201C0E9FF02C068
:101E8000EAFF05C0EFFF2ED00038E8441F0B016EBB
:101E9000026A830E0126030E022201C0E9FF02C07E
:101EA000EAFFEFCF03F00050046E070E0416010E98
:101EB000056E04500DE006E6E86CD8900536010F7B
:101EC000FDE306D0D89005BED8800532010FFBE3B4
:101ED000051C046E0350041601C0E9FF02C0EAFFAE
:101EE00004C0EFFF002A100E005CD8A066D7E4CF34
:101EF00005F0E4CF04F0E4CF03F0E4CF02F0E4CF48
:101F000001F0E4CF00F01200D9CFE5FFE1CFD9FF17
:101F100000C0E5FF01C0E5FF02C0E5FF03C0E5FF2B
:101F200004C0E5FF05C0E5FF06C0E5FF07C0E5FF0B
:101F300008C0E5FF09C0E5FF0AC0E5FF020EDBCFE0
:101F400000F0030EDBCF01F0040EDBCF02F0050E34
:101F5000DBCF03F0060EDBCF04F0070EDBCF05F07E
:101F6000080EDBCF06F0090EDBCF07F0086A04503D
:101F700005100610071005E1E968F468F368E868E1
:101F800047D0096A0750800BE8440A6E0A501BE1EB
:101F9000045004260536063607360750035C08E170
:101FA0000650025C05E10550015C02E10450005C52
:101FB00006E2D890073206320532043204D0092AEC
:101FC00009C008F0DFD70750035C08E10650025C47
:101FD00005E10550015C02E10450005C08E3045097
:101FE000005E0550015A0650025A0750035AD89015
:101FF000073206320532043208C009F008060950DB
:10200000E2E103C0E9FF02C0F4FF01C0F3FF0050AA
:10201000E4CF0AF0E4CF09F0E4CF08F0E4CF07F012
:10202000E4CF06F0E4CF05F0E4CF04F0E4CF03F012
:10203000E4CF02F0E4CF01F0E4CF00F0E4CFD9FF29
:10204000120000C0E5FF01C0E5FF02C0E5FF03C0CC
:10205000E5FF04C0E5FF03018F5103018E1901E183
:102060006AD08FC300F00050016E0128006E009E00
:10207000600E0024016E026A000E022201C0E9FF18
:1020800002C0EAFFEFCF99F31F0E030199178FC328
:1020900098F39951030198279851016E020E01247B
:1020A000986F989F36EC22F0016E015003E1016AAF
:1020B000012A01D0016A36EC22F00301996F99C31D
:1020C00002F0800E021699C303F01F0E031603C020
:1020D00004F003C099F3045003E18EC38FF33ED0A4
:1020E00001501EE0025025E036EC22F0006E0301A4
:1020F0009951016E0104996F0050420A1AE0005094
:102100004E0A03E170EC1EF014D00050460A03E1C1
:102110001EEC26F00ED00050490A0BE1FF0009D05A
:102120008FC39AF3025003E037EC1BF002D0F9ECB6
:1021300025F098C38FF30001E4510001E51906E092
:102140000301905103E151EC11F008D08BB006D09F
:102150000301905103E1ACB2DDEC25F0E4CF04F0D3
:10216000E4CF03F0E4CF02F0E4CF01F0E4CF00F0DD
:102170001200D9CFE5FFE1CFD9FF00C0E5FF01C0D4
:10218000E5FF02C0E5FF03C0E5FF04C0E5FF020E66
:10219000DBCF00F0030EDBCF01F0040EDBCF02F04B
:1021A000050EDBCF03F0420E03015F6F0350606F3B
:1021B0000050010F036E000E0120046E000E02207D
:1021C00003C0E9FF04C0F3FF9FEC25F00301616F3A
:1021D0000050020F036E000E0120046E000E02205C
:1021E00003C0E9FF04C0F3FF9FEC25F00301626F19
:1021F0000050030F036E000E0120046E000E02203B
:1022000003C0E9FF04C0F3FF9FEC25F00301636FF7
:102210000050040F036E000E0120046E000E022019
:1022200003C0E9FF04C0F3FF9FEC25F00301646FD6
:102230000050050F036E000E0120046E000E0220F8
:1022400003C0E9FF04C0F3FF9FEC25F00301656FB5
:10225000060E0026000E0122022200C0E9FF01C086
:10226000F3FF02509FEC25F00301666F0A0E676FC3
:10227000090EE56E800EE56E030EE56E5F0EE56EEF
:102280003DEC15F0040EE126E4CF04F0E4CF03F0BA
:10229000E4CF02F0E4CF01F0E4CF00F0E4CFD9FFC7
:1022A000120000C0E5FF01C0E5FF02C0E5FF03C06A
:1022B000E5FF04C0E5FFACA27ED0DBEC23F0006EAE
:1022C000005005E10001E56B0001E46B74D0E5C04E
:1022D00001F000500126DBEC23F0026E0050036E8B
:1022E0000304006E0250230A1FE1010E005CD8A017
:1022F00060D0DBEC23F0026E690A03E158EC21F0B8
:1023000058D00250720A03E1DDEC25F052D00250A1
:10231000730A01E04ED08B80AB869D8A9D98AE50AB
:10232000AE50AB98AB8845D00250430A05E002504E
:10233000420A01E03ED006D000C003F0046A038EDA
:102340000350006E00C092F300500401006F010EB4
:102350000301936F0001E551011814E0DBEC23F059
:10236000026E03019227000E03019325006E036A9B
:10237000040E032200C0E9FF03C0EAFF02C0EFFF22
:10238000932BE8D7000E03019325006E026A040E1A
:1023900002220301921D036E032A00C0E9FF02C05E
:1023A000EAFF03C0EFFF0301932B93C390F30301F4
:1023B0008A6B01C0E5F0E4CF04F0E4CF03F0E4CF92
:1023C00002F0E4CF01F0E4CF00F01200D9CFE5FF36
:1023D000E1CFD9FF00C0E5FF01C0E5FF02C0E5FF86
:1023E00003C0E5FF04C0E5FF06C0E5FF020EDBCF3A
:1023F00000F0030EDBCF01F0040EDBCF02F03F0E46
:10240000C716C66AC56A0050C6120150C712948822
:10241000820E006E0F0E016E0F0E046E380E002637
:10242000045001220F0E046E800E005E0450015A0B
:10243000820E036E0F0E046E0F0E066E380E03260C
:10244000065004220F0E066E800E035E0650045ADC
:1024500003C0E9FF04C0EAFFEFCF03F0039800C018
:10246000E9FF01C0EAFF03C0EFFF9486820E006E11
:102470000F0E016E0F0E046E380E0026045001225E
:102480000F0E046E800E005E0450015A820E036E21
:102490000F0E046E0F0E066E380E03260650042231
:1024A0000F0E066E800E035E0650045A03C0E9FF4D
:1024B00004C0EAFFEFCF03F0039600C0E9FF01C0BC
:1024C000EAFF03C0EFFF02C0C8FFC6CF00F0008ADA
:1024D0000050C66E9E96A196E4CF06F0E4CF04F0BD
:1024E000E4CF03F0E4CF02F0E4CF01F0E4CF00F05A
:1024F000E4CFD9FF1200D9CFE5FFE1CFD9FF00C06B
:10250000E5FF01C0E5FF02C0E5FF03C0E5FF04C031
:10251000E5FF05C0E5FF06C0E5FF07C0E5FF08C011
:10252000E5FF09C0E5FF0AC0E5FF020EDBCF00F0C2
:10253000030EDBCF01F0040EDBCF02F0050EDBCF84
:1025400003F0060EDBCF04F0070EDBCF05F00038FA
:10255000E8441F0B066E076A7F0E0626030E07224D
:1025600006C0E9FF07C0EAFFEFCF08F00050096E90
:10257000070E0916010E0A6E09500DE006E6E86C1A
:10258000D8900A36010FFDE306D0D8900ABED88055
:102590000A32010FFBE308500A1206C0E9FF07C028
:1025A000EAFF0AC0EFFF230E0024066E076A0F0E33
:1025B000072206C0E9FF07C0EAFF01C0EFFF016A7A
:1025C000230E0026040E0122800E025E070E021664
:1025D0000238F00B036E070E05160550032600C0E7
:1025E000E9FF01C0EAFF03C0EFFFE4CF0AF0E4CF48
:1025F00009F0E4CF08F0E4CF07F0E4CF06F0E4CF31
:1026000005F0E4CF04F0E4CF03F0E4CF02F0E4CF30
:1026100001F0E4CF00F0E4CFD9FF1200D9CFE5FFFD
:10262000E1CFD9FF00C0E5FF01C0E5FF02C0E5FF33
:1026300003C0E5FF04C0E5FF05C0E5FF06C0E5FFF8
:1026400007C0E5FF08C0E5FF09C0E5FF0AC0E5FFD8
:102650000BC0E5FF0CC0E5FF0DC0E5FF020EDBCFB0
:1026600000F0030EDBCF01F0040EDBCF02F0050E0D
:10267000DBCF03F0060EDBCF04F0070EDBCF05F057
:10268000080EDBCF06F0090EDBCF07F0086A096AF7
:102690000A6A0B6A200E0C6E0350800BE8440D6E24
:1026A0000050002601360236033608500826093647
:1026B0000A360B360D50D8A4088007500B5C08E191
:1026C00006500A5C05E10550095C02E10450085C13
:1026D00009E30450085E0550095A06500A5A07508B
:1026E0000B5A00800C040D6E0DC00CF00D50D4E19F
:1026F00003C0E9FF02C0F4FF01C0F3FF0050E4CFC4
:102700000DF0E4CF0CF0E4CF0BF0E4CF0AF0E4CF0F
:1027100009F0E4CF08F0E4CF07F0E4CF06F0E4CF0F
:1027200005F0E4CF04F0E4CF03F0E4CF02F0E4CF0F
:1027300001F0E4CF00F0E4CFD9FF120000C0E5FFC4
:1027400001C0E5FF03C0E5FF04C0E5FF05C0E5FFEC
:1027500006C0E5FF07C0E5FF08C0E5FF09C0E5FFCB
:102760000AC0E5FF0BC0E5FF7DC300F07EC301F0AA
:1027700003017D3F01D07E2B0050E56ECFEC25F0AC
:10278000E652076E046A056A066A7DC300F07EC3DE
:1027900001F003017D3F01D07E2B0050E56ECFECB0
:1027A00025F0E6520B6A0A6E086A085004120512F8
:1027B0000A5006120B5007127DC300F07EC301F0D1
:1027C00003017D3F01D07E2B0050E56ECFEC25F05C
:1027D000E652036E006A03C001F0E86A03BEFF0E12
:1027E000086E096E005004120150051208500612BE
:1027F000095007127DC300F07EC301F003017D3F45
:1028000001D07E2B0050E56ECFEC25F0E652016A38
:102810000412015005120612071207C0E9FF06C094
:10282000F4FF05C0F3FF0450E4CF0BF0E4CF0AF04F
:10283000E4CF09F0E4CF08F0E4CF07F0E4CF06F0EE
:10284000E4CF05F0E4CF04F0E4CF03F0E4CF01F0EF
:10285000E4CF00F01200D9CFE5FFE1CFD9FF00C0EF
:10286000E5FF01C0E5FF02C0E5FF03C0E5FF04C0CE
:10287000E5FF05C0E5FF06C0E5FF07C0E5FF020E66
:10288000DBCF00F0030EDBCF01F0040EDBCF02F054
:10289000050EDBCF03F002C006F00650046E800A7E
:1028A00033E100C0E9FF01C0F3FF025052EC24F015
:1028B000056EF3CF06F0F4CF07F003C0E5FF05C0C7
:1028C000E9FF06C0F3FF075034EC26F000C0E9FF33
:1028D00001C0F3FF025052EC24F0056EF3CF06F076
:1028E000F4CF07F0052A02E3064A072A05C0E5FFF0
:1028F00006C0F4FF07C0F6FF00C0E9FF01C0F3FF08
:102900000250C0EC25F020D004C000F000AA1CD07A
:10291000007A0050046E04E1035081EC26F014D0DC
:102920000450010A04E1035094EC26F00DD0045049
:102930000F0A04E10350F6EC20F006D004500E0A12
:1029400003E1035091EC26F0E4CF07F0E4CF06F06A
:10295000E4CF05F0E4CF04F0E4CF03F0E4CF02F0DD
:10296000E4CF01F0E4CF00F0E4CFD9FF1200D9CFDB
:10297000E5FFE1CFD9FF00C0E5FF01C0E5FF02C0E0
:10298000E5FF03C0E5FF04C0E5FF06C0E5FF07C0A3
:10299000E5FF08C0E5FF020EDBCF00F0030EDBCF42
:1029A00001F0040EDBCF02F0050EDBCF03F000C018
:1029B000E9FF01C0F3FF02509FEC25F0046EE56AC9
:1029C000E56E27EC21F0E652E652010E0314066E86
:1029D000076A086A065003E1075001E1082A085017
:1029E000E56E9FEC24F0E652FEEC22F0010EE56E5F
:1029F0000450E56E27EC21F0E652E652065007102F
:102A000016E00050010F046E000E0120066E000E4D
:102A10000220076EB7EC21F0E56E04C0E9FF06C0A6
:102A2000F3FF075034EC26F003B260EC22F003A26F
:102A30000FD0020E0026000E01220222B7EC21F078
:102A4000E56E00C0E9FF01C0F3FF025034EC26F050
:102A5000FEEC22F0E4CF08F0E4CF07F0E4CF06F07C
:102A6000E4CF04F0E4CF03F0E4CF02F0E4CF01F0D0
:102A7000E4CF00F0E4CFD9FF1200D9CFE5FFE1CFDA
:102A8000D9FF00C0E5FF01C0E5FF02C0E5FF03C0BC
:102A9000E5FF04C0E5FF05C0E5FF06C0E5FF07C090
:102AA000E5FF020EDBCF00F0030EDBCF01F0040EDA
:102AB000DBCF02F0050EDBCF03F0E5C0E6F000014E
:102AC000E4510001E65FE651046E0404E66F03C0C2
:102AD00004F0056A030E0426D8B0052AE6C006F005
:102AE000076A0750800FF36E0550800FF35C02E118
:102AF0000450065C02E2E86830D0020E035C02E299
:102B0000E86A2BD00350046E0404036EE56E6EEC8D
:102B10001FF0E652046A0350045C14E204500024DF
:102B2000056EE86A0120066EE86A022005C0E9FF2A
:102B300006C0F3FF9FEC25F0042AE56E6EEC1FF053
:102B4000E652E9D7E5C0E6F00001E4510001E65F96
:102B5000E651006E0004E66FE86AE4CF07F0E4CFC8
:102B600006F0E4CF05F0E4CF04F0E4CF03F0E4CFC7
:102B700002F0E4CF01F0E4CF00F0E4CFD9FF12007F
:102B800000C0E5FF01C0E5FF02C0E5FF03C0E5FFAF
:102B900004C0E5FF006A7F0E0024016E026A030E86
:102BA000022201C0E9FF02C0EAFFEF6A002A020E1A
:102BB000005CF1E3006A0050020DF450026EF3CFA6
:102BC00001F0390E0124036E040E0220046E03C0CE
:102BD000E9FF04C0EAFFEE6AEF6A590E0124036EB2
:102BE000040E0220046E03C0E9FF04C0EAFFEE6A8F
:102BF000EF6A930E0124036E040E0220046E03C0DC
:102C0000E9FF04C0EAFFEE6AEF6AB30E0124036E27
:102C1000040E0220046E03C0E9FF04C0EAFFEE6A5E
:102C2000EF6AD30E0126040E022201C0E9FF02C0A2
:102C3000EAFFEE687F0EEF6E230E0024016E026A3B
:102C4000040E022201C0E9FF02C0EAFFEF68002A79
:102C5000100E005CD8A0AFD7AF0EC06EC16A010ED7
:102C6000C26EC282E4CF04F0E4CF03F0E4CF02F0FE
:102C7000E4CF01F0E4CF00F01200432041202564AE
:102C80002025640A0000D9CFE5FFE1CFD9FF00C0BD
:102C9000E5FF01C0E5FF02C0E5FF03C0E5FF04C09A
:102CA000E5FF05C0E5FF020EDBCF00F0030EDBCF32
:102CB00001F0040EDBCF02F0050EDBCF03F0060EB1
:102CC000DBCF04F0070EDBCF05F0035009E003C0B3
:102CD000E5FF00C0E9FF01C0F3FF025034EC26F02D
:102CE000E56A0350E56E27EC21F0E652E652060E47
:102CF000E56E9FEC24F0E6520450E56E9FEC24F064
:102D0000E6520550E56E9FEC24F0E652FEEC22F010
:102D10000050030F036E000E0120046E000E02200F
:102D2000056E040E0026000E01220222E56800C096
:102D3000E9FF01C0F3FF025034EC26F000C0E9FFC8
:102D400001C0F3FF02509FEC25F0FF0BE56E03C0BE
:102D5000E9FF04C0F3FF055034EC26F0E4CF05F0A2
:102D6000E4CF04F0E4CF03F0E4CF02F0E4CF01F0CD
:102D7000E4CF00F0E4CFD9FF120000C0E5FF01C0AE
:102D8000E5FF02C0E5FF03C0E5FF21EC10F00EEC0B
:102D900004F0D0EC0EF021EC10F0E2EC21F021EC8C
:102DA00010F00CEC22F0006EF3CF01F0F4CF02F043
:102DB000E9CF03F00F013351005E3451015A355110
:102DC000025A3651035A039E3F0E035C08E1FF0E80
:102DD000025C05E1FF0E015C02E1FF0E005CD8B071
:102DE0003CD00CEC22F0F3CF01F0F4CF02F0E9CFAD
:102DF00003F0880F0F01336F130E0120346F000EA4
:102E00000220356F000E0320366FE1C000F000B0E5
:102E10000DD0010EE56E800EE56E040EE56E790EA6
:102E2000E56EB9EC10F0040EE12602D0C5EC20F0FE
:102E300009EC0BF0006E0050D8B45EEC06F0000117
:102E4000E12B21EC10F0800EE56E040EE56E790E9C
:102E5000E56E01EC0EF0030EE126E4CF03F0E4CFC3
:102E600002F0E4CF01F0E4CF00F01200D9CFE5FF8B
:102E7000E1CFD9FF00C0E5FF01C0E5FF02C0E5FFDB
:102E800003C0E5FF05C0E5FF06C0E5FF07C0E5FF9D
:102E9000020EDBCF00F0030EDBCF01F0040EDBCF20
:102EA00002F0050EDBCF03F000C0E9FF01C0F3FF25
:102EB00002509FEC25F0E56AE56E27EC21F0E65222
:102EC000E652010E0314056E066A076A055003E117
:102ED000065001E1072A072A072A0750E56E9FECF2
:102EE00024F0E6520550061013E00050030F056E63
:102EF000000E0120066E000E022005C0E9FF06C08C
:102F0000F3FF9FEC25F0FF0BE56E9FEC24F0E652FB
:102F100003A211D0040E0026000E0122022200C0DE
:102F2000E9FF01C0F3FF02509FEC25F0FF0BE56EB7
:102F30009FEC24F0E652FEEC22F0E4CF07F0E4CF61
:102F400006F0E4CF05F0E4CF03F0E4CF02F0E4CFE5
:102F500001F0E4CF00F0E4CFD9FF1200D9CFE5FFB4
:102F6000E1CFD9FF00C0E5FF01C0E5FF02C0E5FFEA
:102F700003C0E5FF04C0E5FF05C0E5FF020EDBCF9F
:102F800000F0030EDBCF01F0040EDBCF02F00050A7
:102F9000020DF450036EF3CF00F0590E0024046EBE
:102FA000040E0320056E04C0E9FF05C0EAFF01C05E
:102FB000EEFF02C0EFFF930E0024046E040E032008
:102FC000056E04C0E9FF05C0EAFFEECF04F0EFCFC5
:102FD00005F00150045C016E02500558026E000EAF
:102FE0000026030E032200C0E9FF03C0EAFF01C070
:102FF000EEFF02C0EFFFD88002AED89004E3021EBD
:10300000016CD8B4022A0250800F800F02E1030E37
:10301000015C02E2016A026A0150021007E100C08D
:10302000E9FF03C0EAFF000EEE6AEF6AE4CF05F0A5
:10303000E4CF04F0E4CF03F0E4CF02F0E4CF01F0FA
:10304000E4CF00F0E4CFD9FF1200D9CFE5FFE1CF04
:10305000D9FF00C0E5FF01C0E5FF02C0E5FF03C0E6
:10306000E5FF04C0E5FF05C0E5FF06C0E5FF020E71
:10307000DBCF00F0030EDBCF01F0040EDBCF02F05C
:10308000050EDBCF03F0D88001AED890046A043679
:10309000045007E0011C066E001C056E054A062A56
:1030A00004D000C005F001C006F0D88003AED8906F
:1030B00007E3031C016E021C006E004A012A04D0C3
:1030C00002C000F003C001F00150E56E0050E56E53
:1030D0000650E56E0550E56E34EC1AF0006EF3CF45
:1030E00001F0040EE12604500AE0011C036E001CEE
:1030F000026E024A032A03C0F3FF025003D001C04C
:10310000F3FF0050E4CF06F0E4CF05F0E4CF04F085
:10311000E4CF03F0E4CF02F0E4CF01F0E4CF00F01D
:10312000E4CFD9FF1200D9CFE5FFE1CFD9FF00C02E
:10313000E5FF01C0E5FF02C0E5FF03C0E5FF04C0F5
:10314000E5FF05C0E5FF020EDBCF00F0030EDBCF8D
:1031500001F0040EDBCF02F0050EDBCF03F07DC3E0
:1031600004F07EC305F003017D3F01D07E2B0350A8
:10317000E56E0450E56E97EC23F0E652E6527DC30F
:1031800004F07EC305F003017D3F01D07E2B025089
:10319000056EE56E0450E56E97EC23F0E652E652BC
:1031A0007DC304F07EC305F003017D3F01D07E2B7B
:1031B0000150E56E0450E56E97EC23F0E652E652BE
:1031C0007DC304F07EC305F003017D3F01D07E2B5B
:1031D0000050E56E0450E56E97EC23F0E652E6529F
:1031E000E4CF05F0E4CF04F0E4CF03F0E4CF02F045
:1031F000E4CF01F0E4CF00F0E4CFD9FF1200D9CF43
:10320000E5FFE1CFD9FF00C0E5FF01C0E5FF02C047
:10321000E5FF03C0E5FF04C0E5FF05C0E5FF06C00C
:10322000E5FF020EDBCF00F0030EDBCF01F000382C
:10323000E8441F0B026E036A7F0E0226030E032270
:1032400002C0E9FF03C0EAFFEFCF04F00050056EB3
:10325000070E0516010E066E05500DE006E6E86C39
:10326000D8900636010FFDE306D0D89006BED88070
:103270000632010FFBE30450061202C0E9FF03C04F
:10328000EAFF06C0EFFF230E0024026E036A0F0E52
:10329000032202C0E9FF03C0EAFF01C0EFFF016A99
:1032A000230E0026040E012200C0E9FF01C0EAFF40
:1032B000FF0EEF68E4CF06F0E4CF05F0E4CF04F0B2
:1032C000E4CF03F0E4CF02F0E4CF01F0E4CF00F06C
:1032D000E4CFD9FF1200D9CFE5FFE1CFD9FF00C07D
:1032E000E5FF01C0E5FF02C0E5FF03C0E5FF04C044
:1032F000E5FF05C0E5FF06C0E5FF020EDBCF00F0ED
:10330000030EDBCF01F0040EDBCF02F00301895185
:1033100019E19EEC13F0036EF3CF04F0F4CF05F047
:10332000E9CF06F003C0E5FF04C0F4FF05C0F6FFD7
:1033300006C0F7FF00C0E9FF01C0F3FF02508EECAA
:1033400025F01ED003018951010A1AE100C0E9FFEE
:1033500001C0F3FF0250BBEC23F0006EF3CF01F08D
:10336000F4CF02F0E9CF03F00350E56E0250E56EB2
:103370000150E56E0050E56E93EC18F0040EE12666
:10338000E4CF06F0E4CF05F0E4CF04F0E4CF03F09F
:10339000E4CF02F0E4CF01F0E4CF00F0E4CFD9FFB6
:1033A0001200D9CFE5FFE1CFD9FF00C0E5FF01C092
:1033B000E5FF02C0E5FF03C0E5FF04C0E5FF05C06F
:1033C000E5FF06C0E5FF020EDBCF00F0030EDBCF0A
:1033D00001F0040EDBCF02F0050EDBCF03F0060E8A
:1033E000DBCF04F0070EDBCF05F0080EDBCF06F0D5
:1033F000D88003AED89015E306500A0A12E104C043
:10340000E9FF05C0EAFF2D0EEF6E044A052A031EF0
:10341000021E011E006C05E1012A03E1022AD8B454
:10342000032A0650E56E0550E56E0450E56E035024
:10343000E56E0250E56E0150E56E0050E56E25EC3C
:103440000DF0070EE126E4CF06F0E4CF05F0E4CF5F
:1034500004F0E4CF03F0E4CF02F0E4CF01F0E4CFD6
:1034600000F0E4CFD9FF1200D9CFE5FFE1CFD9FFBB
:1034700000C0E5FF01C0E5FF02C0E5FF03C0E5FFB6
:1034800004C0E5FF05C0E5FF06C0E5FF020EDBCF87
:1034900000F0030EDBCF01F0040EDBCF02F0050ECF
:1034A000DBCF03F0046A056A0350800BE844066E24
:1034B000065011E10250022603360350015C02E17E
:1034C0000250005C04E2D8900332023204D0052A94
:1034D00005C004F0E9D70350015C02E10250005C32
:1034E00004E30250005E0350015AD89003320232C6
:1034F00004C005F004060550EEE101C0F3FF0050E2
:10350000E4CF06F0E4CF05F0E4CF04F0E4CF03F01D
:10351000E4CF02F0E4CF01F0E4CF00F0E4CFD9FF34
:103520001200D9CFE5FFE1CFD9FF00C0E5FF01C010
:10353000E5FF02C0E5FF03C0E5FF020EDBCF00F0B0
:10354000030EDBCF01F0040EDBCF02F000C0E9FF79
:1035500001C0F3FF02509FEC25F0036E035029E0F9
:10356000C6A610D00350E56E9FEC24F0036EE65221
:10357000035002E0FD0E1ED01FEC20F0C5AC14D0AD
:10358000FE0E18D09E9600C0E9FF01C0F3FF025066
:103590009FEC25F0C96EC6889EA6FED7C7B404D09E
:1035A000C7B002D0FE0E06D0002AD0E3014A022A9C
:1035B000CDD7E86AE4CF03F0E4CF02F0E4CF01F026
:1035C000E4CF00F0E4CFD9FF120000C0E5FF01C056
:1035D000E5FF02C0E5FF03C0E5FF8FC300F0016A0D
:1035E0009AC302F0036A0250005E0350015AE56A72
:1035F000800EE56E0150E56E0050E56E25EC18F08A
:10360000006E040EE12600069AC301F0430EF6ECAC
:1036100020F0200EF6EC20F0005020E0600E012497
:10362000026E036A000E032202C0E9FF03C0EAFF34
:10363000EFCF02F0E56A0250E56E000EE56E4B0E2C
:10364000E56ED20EE56EB2EC1EF0050EE126012A03
:103650000150800A01E1016A0006DED7E4CF03F0E1
:10366000E4CF02F0E4CF01F0E4CF00F0120000C09C
:10367000E5FF01C0E5FF02C0E5FF36EC22F0006E79
:10368000450A27E1000EE56E440EE56E120EE56E6A
:10369000B2EC1EF0030EE1268BEC26F0006E00C0AB
:1036A00001F001C002F0010602500FE036EC22F0FA
:1036B000E56AE56E000EE56E440EE56E140EE56EED
:1036C000B2EC1EF0050EE126ECD70A0EF6EC20F067
:1036D00017D00050520A14E1270EE56EE56A080E75
:1036E000E56EE6EC11F0030EE126E56A800EE56E6C
:1036F000040EE56E790EE56E87EC1BF0040EE126F4
:10370000E4CF02F0E4CF01F0E4CF00F01200D9CF13
:10371000E5FFE1CFD9FF00C0E5FF01C0E5FF02C032
:10372000E5FF03C0E5FF020EDBCF00F0030EDBCFA9
:1037300001F0040EDBCF02F0050EDBCF03F00350E7
:1037400003E11D0E036E02D0530E036E03C0E5FFAE
:1037500000C0E9FF01C0F3FF025034EC26F0E56A37
:103760002D0EE56E0350E56E88EC21F0030EE12688
:10377000100EE56E2D0EE56E0350E56E88EC21F01F
:10378000030EE126080EE56E2D0EE56E0350E56E84
:1037900088EC21F0030EE126E4CF03F0E4CF02F041
:1037A000E4CF01F0E4CF00F0E4CFD9FF1200D9CF8D
:1037B000E5FFE1CFD9FF00C0E5FF01C0E5FF02C092
:1037C000E5FF03C0E5FF04C0E5FF020EDBCF00F01C
:1037D000030EDBCF01F0040EDBCF02F003018951B1
:1037E00011E191EC20F0036EF3CF04F003C0E5FF8C
:1037F00004C0F4FF00C0E9FF01C0F3FF025006EC73
:1038000026F016D003018951010A12E100C0E9FF38
:1038100001C0F3FF025029EC25F0006EF3CF01F058
:103820000150E56E0050E56E31EC1FF0E652E652B5
:10383000E4CF04F0E4CF03F0E4CF02F0E4CF01F0F2
:10384000E4CF00F0E4CFD9FF1200D9CFE5FFE1CFFC
:10385000D9FF00C0E5FF01C0E5FF02C0E5FF03C0DE
:10386000E5FF04C0E5FF020EDBCF00F00038E844BE
:103870001F0B016E026A830E0126030E022201C095
:10388000E9FF02C0EAFFEFCF01F0070E0016010EBC
:10389000026E000E036E005006E0E86CD89002360F
:1038A0000336010FFCE3046A0150021604500316AC
:1038B00002500310D880E866D890026A023602509F
:1038C000D880E866D890026A02360250E4CF04F04D
:1038D000E4CF03F0E4CF02F0E4CF01F0E4CF00F056
:1038E000E4CFD9FF1200D20EF66E4C0EF76E000E2A
:1038F000F86E0900F550056E0900F550066E04E1FA
:10390000056702D0C0EF1CF00900F550006E0900F9
:10391000F550016E0900F550026E09000900F550DE
:10392000E96E0900F550EA6E090009000900F5503A
:10393000036E0900F550046E09000900F6CF07F088
:10394000F7CF08F0F8CF09F000C0F6FF01C0F7FF8D
:1039500002C0F8FF035002E1045007E00900F550EF
:10396000EE6E0306F8E20406F9D707C0F6FF08C0BA
:10397000F7FF09C0F8FF050601E206067FEF1CF01D
:103980001200D9CFE5FFE1CFD9FF00C0E5FF01C0AC
:10399000E5FF02C0E5FF03C0E5FF04C0E5FF020E3E
:1039A000DBCF00F00038E8441F0B016E026A7F0E87
:1039B0000126030E022201C0E9FF02C0EAFFEFCF99
:1039C00003F0070E0016010E046E00500DE006E62F
:1039D000E86CD8900436010FFDE306D0D89004BE01
:1039E000D8800432010FFBE3041C006E0350001664
:1039F00001C0E9FF02C0EAFF00C0EFFFE4CF04F01E
:103A0000E4CF03F0E4CF02F0E4CF01F0E4CF00F024
:103A1000E4CFD9FF120001C0E5FF02C0E5FF03C0FB
:103A2000E5FF7CEC26F00CEC22F0F3CF01F0F4CFB4
:103A300002F0E9CF03F0880F0F01336F130E01205E
:103A4000346F000E0220356F000E0320366FC0EC7D
:103A500015F0E5EC1DF0270EE56EE56A080EE56E43
:103A6000E6EC11F0030EE126E56A800EE56E040E29
:103A7000E56E790EE56E87EC1BF0040EE126E56A33
:103A8000E568200EE56E800EE56E040EE56E330EE1
:103A9000E56E43EC16F0060EE126E4CF03F0E4CF2A
:103AA00002F0E4CF01F01200D9CFE5FFE1CFD9FF5A
:103AB00000C0E5FF01C0E5FF02C0E5FF03C0E5FF70
:103AC00004C0E5FF05C0E5FF020EDBCF00F00050AB
:103AD000010A22E1016A0150020DF450036EF3CF96
:103AE00002F0B30E0224046E040E0320056E04C01F
:103AF000E9FF05C0EAFFEE687F0EEF6ED30E0226E7
:103B0000040E032202C0E9FF03C0EAFFEE6AEF6A77
:103B1000012A100E015CDFE300C0EAF0E4CF05F0FB
:103B2000E4CF04F0E4CF03F0E4CF02F0E4CF01F0FF
:103B3000E4CF00F0E4CFD9FF1200D9CFE5FFE1CF09
:103B4000D9FF00C0E5FF01C0E5FF02C0E5FF03C0EB
:103B5000E5FF04C0E5FF020EDBCF00F0030EDBCF74
:103B600001F0040EDBCF02F0036A02C004F002068B
:103B700004501DE0B7EC21F0046E00C0E9FF01C065
:103B8000EAFF04C0EFFF004A012A03C004F0C5A603
:103B9000ECD7A1A602D0E8680BD0042A04C003F039
:103BA0000250F5E060EC22F0C5B8FED7F0D7035024
:103BB000E4CF04F0E4CF03F0E4CF02F0E4CF01F06F
:103BC000E4CF00F0E4CFD9FF120000C0E5FF01C050
:103BD000E5FF02C0E5FF03C0E5FF04C0E5FF006AA2
:103BE000810E0024016E026A030E0222830E00245D
:103BF000036E046A030E042203C0E9FF04C0EAFF57
:103C0000010EEF6E01C0E9FF02C0EAFFEF6E002A6D
:103C1000020E005CE5E3006A400E0024016E026AB9
:103C2000030E022201C0E9FF02C0EAFFEF68002A8A
:103C3000100E005CF1E3E4CF04F0E4CF03F0E4CF36
:103C400002F0E4CF01F0E4CF00F012004320732033
:103C500025642025640A0000D9CFE5FFE1CFD9FF14
:103C600000C0E5FF01C0E5FF02C0E5FF03C0E5FFBE
:103C700004C0E5FF05C0E5FF020EDBCF00F0030E38
:103C8000DBCF01F0040EDBCF02F0050EDBCF03F03B
:103C9000060EDBCF04F0056A400E0026030E052257
:103CA000800E015E070E01160138F00B026E070E42
:103CB00004160450022600C0E9FF05C0EAFF02C056
:103CC000EFFFE4CF05F0E4CF04F0E4CF03F0E4CF5E
:103CD00002F0E4CF01F0E4CF00F0E4CFD9FF12000E
:103CE00000C0E5FF01C0E5FF02C0E5FF36EC22F0B1
:103CF000006E36EC22F0016E0050026ED00E0224EF
:103D0000006E0A0E005C05E30050026EF90E0224FC
:103D1000006E0150026ED00E0224016E0A0E015C8C
:103D200005E30150026EF90E0224016E080E005CDC
:103D300012E2100E015CD8B00ED00038F00B012456
:103D4000006EE5EC1FF0016E015005E10050E56EDC
:103D500087EC24F0E652E4CF02F0E4CF01F0E4CFA8
:103D600000F01200D9CFE5FFE1CFD9FF00C0E5FF99
:103D700001C0E5FF02C0E5FF020ED924006E000E6F
:103D8000DA20016E800E026E030E0026000E012264
:103D900002220250E56E0150E56E0050E56E040E01
:103DA000DBCFE5FF030EDBCFE5FF020EDBCFE5FF48
:103DB00003017651E56E7551E56E7451E56E0EECBA
:103DC00000F0006EF3CF01F0090EE12601C0F3FF11
:103DD0000050E4CF02F0E4CF01F0E4CF00F0E4CFF4
:103DE000D9FF1200D9CFE5FFE1CFD9FF00C0E5FF31
:103DF00001C0E5FF02C0E5FF03C0E5FF020EDBCF17
:103E000000F0030EDBCF01F0040EDBCF02F0030164
:103E100089510DE1FDEC24F0036E03C0E5FF00C005
:103E2000E9FF01C0F3FF025034EC26F00FD003018C
:103E30008951010A0BE100C0E9FF01C0F3FF025004
:103E40009FEC25F0E56E4CEC23F0E652E4CF03F056
:103E5000E4CF02F0E4CF01F0E4CF00F0E4CFD9FFEB
:103E60001200D9CFE5FFE1CFD9FF00C0E5FF01C0C7
:103E7000E5FF02C0E5FF03C0E5FF020EDBCF00F067
:103E8000030EDBCF01F07DC302F07EC303F003011C
:103E90007D3F01D07E2B0150E56E0250E56E97EC20
:103EA00023F0E652E6527DC302F07EC303F0030125
:103EB0007D3F01D07E2B0050E56E0250E56E97EC01
:103EC00023F0E652E652E4CF03F0E4CF02F0E4CF71
:103ED00001F0E4CF00F0E4CFD9FF1200D9CFE5FF25
:103EE000E1CFD9FF00C0E5FF01C0E5FF02C0E5FF5B
:103EF00003C0E5FF04C0E5FF020EDBCF00F0E4C025
:103F000001F0026A014A022AE5C003F0046A015086
:103F1000031803E10250041801E001D00ED0000E96
:103F20000001E425016E026A010E022201C0E9FFD0
:103F300002C0EAFF00C0EFFFE42BE4CF04F0E4CFBF
:103F400003F0E4CF02F0E4CF01F0E4CF00F0E4CFDF
:103F5000D9FF1200D9CFE5FFE1CFD9FF00C0E5FFBF
:103F600001C0E5FF02C0E5FF03C0E5FF020EDBCFA5
:103F700000F0016A9AC302F0036A0250002603505F
:103F80000122E56A800EE56E0150E56E0050E56E97
:103F900025EC18F0006EF3CF01F0040EE126600E60
:103FA0000026000E012200C0E9FF01C0EAFFEFCFAA
:103FB00000F00050E4CF03F0E4CF02F0E4CF01F0D2
:103FC000E4CF00F0E4CFD9FF120000C0E5FF01C04C
:103FD000E5FF02C0E5FF010E006E36EC22F0016E37
:103FE00001C002F0015023E00050E56ECFEC25F057
:103FF000016EE652015010E10A0E005C0BE20A0E5F
:10400000006EE56ECFEC25F0016EE652015004E142
:10401000E8680ED0E8680CD00150021802E0E868A9
:1040200007D0002A1B0E005CD8E3E86801D0E86ADC
:10403000E4CF02F0E4CF01F0E4CF00F0120000C0C2
:10404000E5FF01C0E5FF02C0E5FF03C0E5FF04C0D6
:10405000E5FF05C0E5FFE80E006E030E016E00509F
:10406000FF0F026EFF0E0120036E02C000F003C0BE
:1040700001F00250031010E0C5CF02F0036A1F0EDA
:104080000216046AC7B4042A056A045002120550D5
:10409000031202500310E3E1E4CF05F0E4CF04F093
:1040A000E4CF03F0E4CF02F0E4CF01F0E4CF00F07E
:1040B0001200F3CFE5FFF4CFE5FFE9CFE5FFEACF4C
:1040C000E5FFFACFE5FFFBCFE5FF0001E251040178
:1040D000836F0001E3510401846FD650816FD75084
:1040E000826FF2A411D00001E23F01D0E32BF294E1
:1040F0000001E2510401836F0001E3510401846F68
:10410000D650816FD750826FE4CFFBFFE4CFFAFF28
:10411000E4CFEAFFE4CFE9FFE4CFF4FFE4CFF3FF1D
:10412000110000C0E5FF01C0E5FF02C0E5FF03C0CC
:10413000E5FF7DC300F07EC301F003017D3F01D0A8
:104140007E2B0050E56ECFEC25F0E652036E026A3E
:104150007DC300F07EC301F003017D3F01D07E2BC3
:104160000050E56ECFEC25F0E652016A02120150D4
:10417000031203C0F3FF0250E4CF03F0E4CF02F0D8
:10418000E4CF01F0E4CF00F0120000C0E5FF01C071
:10419000E5FF010E006E420E0301506F0401345121
:1041A000FF0B030186190DE00A0E0301516F030E88
:1041B000006E04013451FF0B016E01C086F3030150
:1041C000526F020E005C0DE3002A0050E56E800E77
:1041D000E56E030EE56E500EE56E3DEC15F0040E37
:1041E000E126E4CF01F0E4CF00F0120000C0E5FFCB
:1041F00001C0E5FF02C0E5FF006E000E0001E925E9
:10420000016E026A0F0E022201C0E9FF02C0EAFF3E
:1042100000C0EFFF220EE95D01E2E92B00500A0A1F
:104220000FE10001E951E56E800EE56E0F0EE56EBF
:10423000000EE56E3DEC15F0040EE1260001E96B81
:10424000E4CF02F0E4CF01F0E4CF00F01200D9CFC8
:10425000E5FFE1CFD9FF00C0E5FF01C0E5FF02C0E7
:10426000E5FF020EDBCF00F0030EDBCF01F025EC03
:1042700023F00044FE0B026E0150D880E866D8900F
:10428000016A01360150D880E866D890016A01368B
:10429000015002120250E56E9FEC24F0E652E4CF8A
:1042A00002F0E4CF01F0E4CF00F0E4CFD9FF120038
:1042B0000001E46B0001E56B0001E6698B809490DE
:1042C000B06A3F0EAF6EB886AC8AAC84AC8CAC9052
:1042D000AB8CAB8E0301916B03018B6B03018E6B77
:1042E00003018F6B0301906B000EE56ACFEC25F0A4
:1042F0000001E86FE6529F989F9A010E0001E76F58
:104300000301746B756B2F0E766FDDEC25F01200D8
:10431000D9CFE5FFE1CFD9FF00C0E5FF01C0E5FF40
:1043200002C0E5FF020EDBCF00F0030EDBCF01F091
:10433000040EDBCF02F0E56A0050E56E27EC21F0B9
:10434000E652E6520150E56E9FEC24F0E652025030
:10435000E56E9FEC24F0E652FEEC22F0E4CF02F092
:10436000E4CF01F0E4CF00F0E4CFD9FF120000C0A9
:10437000E5FF01C0E5FF02C0E5FF03C0E5FFE80E71
:10438000006E030E016E1FEC20F0C5860050FF0F7B
:10439000026EFF0E0120036E02C000F003C001F0A8
:1043A0000250031005E076EC26F0026E0250EEE0BB
:1043B000C950E4CF03F0E4CF02F0E4CF01F0E4CF42
:1043C00000F012000001E02BE051010A05E00001BD
:1043D000E051020A0EE01AD0020EE56E800EE56E84
:1043E000040EE56E330EE56E36EC17F0040EE12692
:1043F0000FD0010EE56E800EE56E040EE56E330EF5
:10440000E56EB7EC14F0040EE12602D00001E06B7B
:1044100012004300256300000001E2510401876F90
:104420000001E3510401886FD650856FD750866F25
:1044300087510001E21905E1040188510001E319E7
:104440000CE00001E2510401876F0001E351040117
:10445000886FD650856FD750866F88C4E9FF87C4B0
:10446000F4FF86C4F3FF04018551120000C0E5FF8C
:1044700001C0E5FF03018F510301981905E0030115
:104480008F5103018E1902E1E86A15D08FC300F045
:1044900003018F2B016A600E0026000E012200C06E
:1044A000E9FF01C0EAFFEFCF00F08F51800A02E17F
:1044B00003018F6B0050E4CF01F0E4CF00F0120055
:1044C00000C0E5FF01C0E5FF02C0E5FF03C0E5FF56
:1044D000E80E006E030E016E1FEC20F09E96C59A4A
:1044E000C5880050FF0F026EFF0E0120036E02C050
:1044F00000F003C001F00250031002E09EA6F1D7C5
:10450000E4CF03F0E4CF02F0E4CF01F0E4CF00F019
:10451000120000C0E5FF85EC26F00401896B806B7A
:104520008983006A89B3002A0050010BE844F46EC5
:104530008051FD0BF410806FD58ED59CD59AD5880F
:10454000D596D594D582D580F28AF184D08EF28E1C
:10455000F28CBA80FF0EBB68BA84E4CF00F0120080
:10456000D9CFE5FFE1CFD9FF00C0E5FF01C0E5FFEE
:10457000020EDBCF00F00050020DF450016EF3CFBD
:1045800000F0000E0026030E012200C0E9FF01C06A
:10459000EAFFEECF00F0EFCF01F001C0F3FF0050D3
:1045A000E4CF01F0E4CF00F0E4CFD9FF1200D9CF7F
:1045B000E5FFE1CFD9FF00C0E5FF01C0E5FF020E36
:1045C000DBCF00F00050020DF450016EF3CF00F08D
:1045D000390E0026040E012200C0E9FF01C0EAFFE7
:1045E000EECF00F0EFCF01F001C0F3FF0050E4CFB9
:1045F00001F0E4CF00F0E4CFD9FF120000C0E5FFE6
:1046000001C0E5FF02C0E5FF03C0E5FFE80E006E54
:10461000030E016E1FEC20F0C5840050FF0F026EE8
:10462000FF0E0120036E02C000F003C001F0025033
:10463000031002E0C5B4F1D7E4CF03F0E4CF02F0F9
:10464000E4CF01F0E4CF00F0120000C0E5FF01C0AC
:10465000E5FF02C0E5FF03C0E5FFE80E006E030EB4
:10466000016E1FEC20F0C5800050FF0F026EFF0EA0
:104670000120036E02C000F003C001F002500310DD
:1046800002E0C5B0F1D7E4CF03F0E4CF02F0E4CF0D
:1046900001F0E4CF00F01200D9CFE5FFE1CFD9FF60
:1046A00000C0E5FF01C0E5FF02C0E5FF020EDBCF61
:1046B00000F07DC301F07EC302F003017D3F01D015
:1046C0007E2B0050E56E0150E56E97EC23F0E6522C
:1046D000E652E4CF02F0E4CF01F0E4CF00F0E4CF03
:1046E000D9FF1200D8CFE5FFE0CFE5FFE56EF3CFAD
:1046F000E5FFF4CFE5FFE9CFE5FFEACFE5FFFACF2D
:10470000E5FFFBCFE5FFEAEC09F0E4CFFBFFE4CFE8
:10471000FAFFE4CFEAFFE4CFE9FFE4CFF4FFE4CF10
:10472000F3FFE450E4CFE0FFE4CFD8FF1000D9CF8F
:10473000E5FFE1CFD9FF00C0E5FF020EDBCF00F0BF
:10474000030EDBCFA8FF00C0A9FFA69EA69CA684EF
:10475000F29EF29C550EA76EAA0EA76EA682A6A286
:1047600002D00000FCD7A694F28EF28CE4CF00F0C9
:10477000E4CFD9FF1200E8AE0AD0F3CFEAFFEE5043
:10478000EECFF3FFEECFF4FFEECFE9FF1200E8BC6F
:104790009AEF26F0E9CFF6FFF3CFF7FFF86E0900A6
:1047A000F5500900F5CFF3FF0900F5CFF4FF09003C
:1047B000F5CFE9FF120000C0E5FF01C0E5FF0001F1
:1047C000E4510001E51902E1E86A0FD0000E000192
:1047D000E525006E016A010E012200C0E9FF01C05B
:1047E000EAFFEFCF00F0E52B0050E4CF01F0E4CF7B
:1047F00000F01200F2CFEAFFF29EA69EA69CA684CD
:10480000E9CFA9FFF3CFAAFFE4CFA8FF49EC26F038
:10481000F4CFA8FF49EC26F0F6CFA8FF49EC26F02C
:10482000F7CFA8FF49EC26F0A694EABEF28E12005C
:10483000D9CFE5FFE1CFD9FF00C0E5FF01C0E5FF1B
:10484000020EDBCF00F0016A400E0026030E0122AB
:1048500000C0E9FF01C0EAFFFF0EEF68E4CF01F0FE
:10486000E4CF00F0E4CFD9FF1200F2CFF6FFF29EC2
:10487000A69EA69CE9CFA9FFF3CFAAFFA680A850C9
:10488000A94AAA2AA680A8CFF3FFA94AAA2AA680E5
:10489000A8CFF4FFA94AAA2AA680A8CFEAFFF6BEAD
:1048A000F28E1200E8AE08D0F3CFEAFFEE50EECF62
:1048B000F3FFEECFF4FF1200E8BCA2EF26F0E9CF41
:1048C000F6FFF3CFF7FFF86E0900F5500900F5CFBA
:1048D000F3FF0900F5CFF4FF1200F2CFEAFFF29EDA
:1048E000A69EA69CA684E9CFA9FFF3CFAAFFE4CF9A
:1048F000A8FF49EC26F0F4CFA8FF49EC26F0F6CF4C
:10490000A8FF49EC26F0A694EABEF28E1200D9CF99
:10491000E5FFE1CFD9FF00C0E5FF020EDBCF00F0DD
:1049200000C0E8F00050E56E000EE56A97EC23F059
:10493000E652E652E4CF00F0E4CFD9FF1200D9CF1F
:10494000E5FFE1CFD9FF00C0E5FF020EDBCF00F0AD
:10495000C69E00C0C9FFC6AE02D0E86803D01FECF7
:1049600020F0E86AE4CF00F0E4CFD9FF1200F2CFE4
:10497000F6FFF29EA69EA69CE9CFA9FFF3CFAAFF61
:10498000A680A850A94AAA2AA680A8CFF3FFA94AC0
:10499000AA2AA680A8CFF4FFF6BEF28E120000C0AD
:1049A000E5FF01C0E5FF600E03018F25006E016A7F
:1049B000000E012200C0E9FF01C0EAFFEFCF00F0C6
:1049C0000050E4CF01F0E4CF00F01200D9CFE5FFB2
:1049D000E1CFD9FF00C0E5FF020EDBCF00F0610E92
:1049E000005C05E37B0E005C02E2010E01D0E86A88
:1049F000E4CF00F0E4CFD9FF120000C0E5FF01C012
:104A0000E5FF7DC300F07EC301F003017D3F01D0CF
:104A10007E2B0050E56ECFEC25F0E652E4CF01F09E
:104A2000E4CF00F01200D9CFE5FFE1CFD9FF00C0FD
:104A3000E5FF020EDBCF00F000C0E7F0005004E11C
:104A4000DDEC25F09D9A9D98E4CF00F0E4CFD9FFEE
:104A50001200E8AE06D0F3CFEAFFEE50EECFF3FF40
:104A60001200E8BC98EF26F0E9CFF6FFF3CFF7FF8E
:104A7000F86E0900F5500900F5CFF3FF1200F2CFF0
:104A8000EAFFF29EA69EA69CA684E9CFA9FFF3CFDB
:104A9000AAFFE4CFA8FF49EC26F0F4CFA8FF49EC29
:104AA00026F0A694EABEF28E120012EEFFF022EE7D
:104AB000FFF0F86AA68EA69CE9680E0EEA6E006802
:104AC000000EED6A0050FDE173EC1CF006EC00F006
:104AD000FFD7F2CFF6FFF29EA69EA69CE9CFA9FFD4
:104AE000F3CFAAFFA680A850A94AAA2AA680A8CFD9
:104AF000F3FFF6BEF28E1200F2CFEAFFF29EA69E00
:104B0000A69CA684E9CFA9FFF3CFAAFFE4CFA8FF14
:104B100049EC26F0A694EABEF28E1200E8AE0BD065
:104B2000F3CFEAFFE4CFEEFFF4CFEEFFF6CFEEFFD8
:104B3000F7CFEEFF1200E8BC9CEF26F01200E8AEC3
:104B400004D0F3CFEAFFEE501200E8BC96EF26F057
:104B5000E9CFF6FFF3CFF7FFF86E0900F55012002A
:104B6000000000000000FF000000000A000200003A
:104B700000420000000000000000000000000000F3
:104B8000E8AE09D0F3CFEAFFE4CFEEFFF4CFEEFFBB
:104B9000F6CFEEFF1200E8BCA4EF26F01200D9CF4A
:104BA000E5FFE1CFD9FF020EDBCFA9FFA69CA69EB1
:104BB000A680A850E4CFD9FF1200ACA2FED78B800C
:104BC000AE500000AE50AB98AB88AB869D8A9D98E6
:104BD000120025642000F2CFF6FFF29EA69EA69C4E
:104BE000E9CFA9FFF3CFAAFFA680A850F6BEF28EA8
:104BF000120036EC22F00A0A08E136EC22F003013A
:104C0000886FFF0BFF080401376F1200E8AE07D072
:104C1000F3CFEAFFE4CFEEFFF4CFEEFF1200E8BCE3
:104C2000A0EF26F01200700ED36E9B8CFF0E9268E0
:104C3000936894689668626AF19E120000C0E5FF6E
:104C4000E5EC1FF0006E005001E1FF00E4CF00F042
:104C500012000F01456B900E0F01446F030E0F0100
:104C6000436F0F01458F1200E8AE05D0F3CFEAFF86
:104C7000E4CFEEFF1200E8BC9EEF26F01200D9CF81
:104C8000E5FFE1CFD9FF020EDBCFEDF0E4CFD9FF96
:104C90001200550EA76EAA0EA76EA682A6B2FED768
:104CA000A94AAA2A010E0301896F1C0E03017D6F18
:104CB0007E6B12001FEC20F09E96C58AC5889EA6CA
:104CC000FED712000301896B1C0E03017D6F7E6B02
:104CD00012000100604B0000E00000002000000016
:104CE0001FEC20F0C582C5B2FED71200C7A002D0CB
:104CF000010E01D0E86A120089EC22F058EC21F094
:104D00001200ACA2FED7AD6E120013EC26F012001A
:104D100003018F5112000301995112000001E75164
:104D20001200E8CF7FFF1200C96E1200EBEF25F0F2
:104D300069EF25F035EF24F0FAEF23F07CEF25F052
:0C4D40003FEF25F0B7EF24F06DEF24F0FA
:020000040030CA
:010006008574
:00000001FF
