:020000040000FA
:100000006EEF25F0C69A120046EF20F0BFEC09F023
:1000100039EC17F0FDD712008BEF23F0D9CFE5FFB5
:10002000E1CFD9FF00C0E5FF01C0E5FF02C0E5FF59
:1000300003C0E5FF04C0E5FF05C0E5FF06C0E5FF1E
:1000400007C0E5FF08C0E5FF09C0E5FF0AC0E5FFFE
:100050000BC0E5FF0CC0E5FF0DC0E5FF0EC0E5FFDE
:100060000FC0E5FF10C0E5FF11C0E5FF12C0E5FFBE
:1000700013C0E5FF14C0E5FF15C0E5FF16C0E5FF9E
:1000800017C0E5FF18C0E5FF19C0E5FF1AC0E5FF7E
:100090001BC0E5FF1CC0E5FF1DC0E5FF1EC0E5FF5E
:1000A000020EDBCF00F0030EDBCF01F0040EDBCF3E
:1000B00002F0050EDBCF03F0060EDBCF04F0070ED7
:1000C000DBCF05F0080EDBCF06F0090EDBCF07F023
:1000D0000A0EDBCF08F0096A0A6A02C00DF00D5063
:1000E000800A0DE1025003017C6F01507B6F0050CC
:1000F0007A6F030E016E7A0E006E800E026E03C0E0
:10010000E9FF04C0F3FF0550B8EC25F00B6E0B506F
:10011000D8B4C4EF03F00B50250A02E0ABEF03F0B4
:100120000C6A0D6A0E6A0F6A106A0A0E116E126A64
:10013000136A146A200E156E1668176A2B0E186E55
:10014000032A02E3044A052A03C0E9FF04C0F3FFBF
:100150000550B8EC25F0196E250A13E11950E56E2B
:100160000250E56E0150E56E0050E56EBAEC14F0F9
:10017000040EE126094A0A2A032A02E3044A052A50
:10018000BED71950300A06E1300E156E032A02E37D
:10019000044A052A03C0E9FF04C0F3FF0550B8EC88
:1001A00025F02D0A06E1010E146E032A02E3044A2B
:1001B000052A03C0E9FF04C0F3FF0550B8EC25F0A1
:1001C000200A08E1010E176E200E186E032A02E3C2
:1001D000044A052A03C0E9FF04C0F3FF0550B8EC48
:1001E00025F02B0A06E1010E176E032A02E3044AEA
:1001F000052A03C0E9FF04C0F3FF0550B8EC25F061
:10020000196E310E195C2BE33A0E195C28E203C01B
:1002100019F004C01AF005C01BF019C0E9FF1AC09C
:10022000F3FF1B50B8EC25F01C6E300E1C5C11E384
:100230003A0E1C5C0EE213500A0DF3CF1DF01D5058
:100240001C26D00E1C24136E192A02E31A4A1B2AFC
:10025000E4D719C003F01AC004F01BC005F003C0B6
:10026000E9FF04C0F3FF0550B8EC25F02E0A2DE19C
:10027000032A02E3044A052A166A03C019F004C0DF
:100280001AF005C01BF019C0E9FF1AC0F3FF1B509C
:10029000B8EC25F01C6E300E1C5C11E33A0E1C5CB1
:1002A0000EE216500A0DF3CF1DF01D501C26D00E85
:1002B0001C24166E192A02E31A4A1B2AE4D719C015
:1002C00003F01AC004F01BC005F003C0E9FF04C02E
:1002D000F3FF0550B8EC25F0196E6C0A07E1010E2A
:1002E0000C6E032A02E3044A052A09D01950680A51
:1002F00006E1010E0E6E032A02E3044A052A03C03A
:10030000E9FF04C0F3FF0550B8EC25F0750A06E1DB
:10031000010E106E032A02E3044A052A03C0E9FF16
:1003200004C0F3FF0550B8EC25F0196E730A05E11F
:10033000010E0D6E200E156E3FD01950780A03E1A4
:10034000100E116E39D01950580A05E1100E116EB9
:10035000010E126E31D01950630A02E1116A2CD0DD
:1003600019506F0A03E1080E116E26D01950660A63
:1003700003E1010E0F6E20D01950640A1DE01950E0
:10038000690A1AE0105005E0FF0E03260422052238
:1003900013D01950E56E0250E56E0150E56E005025
:1003A000E56EBAEC14F0040EE126094A0A2A032A83
:1003B00002E3044A052AA3D60D5021E00650030F9C
:1003C0000D6E000E0720196E000E08201A6E0DC06B
:1003D00006F019C007F01AC008F0FD0E0D26FF0E3A
:1003E00019221A220DC0E9FF19C0F3FF1A506BEC55
:1003F00024F00D6EF3CF19F0F4CF1AF0FDD00F50AA
:100400000DE0000E1A6E080E196E100E0D6E040E21
:100410000626000E072208221668EED016680C5039
:1004200023E00650040F0C6E000E07200F6E000E26
:1004300008201B6E0CC006F00FC007F01BC008F0B0
:10044000FC0E0C26FF0E0F221B220CC0E9FF0FC072
:10045000F3FF1B50D4EC23F00C6EF3CF0FF0F4CF6E
:100460001BF0E9CF1CF067D00E502FE00650020FB2
:100470000E6E000E07201D6E000E08201E6E0EC0B0
:1004800006F01DC007F01EC008F0FE0E0E26FF0E7F
:100490001D221E220EC0E9FF1DC0F3FF1E5042ECBC
:1004A00025F00E6E0EC00CF00F6A1B6A1C6A11500C
:1004B0000A0A03E11050D8B43ED00C500E6E0EC0A4
:1004C0000CF00F6A1B6A1C6A36D00650020F0E6EC3
:1004D000000E07201D6E000E08201E6E0EC006F0D6
:1004E0001DC007F01EC008F0FE0E0E26FF0E1D22D6
:1004F0001E220EC0E9FF1DC0F3FF1E5042EC25F086
:100500000E6EF3CF1DF00EC00CF01DC00FF0E86AA8
:100510001DBEFF0E1B6E1C6E11500A0A02E1105028
:100520000AE00C500E6E0F501D6E0EC00CF01DC078
:100530000FF01B6A1C6A040E196EF40E0D6E800E0D
:100540001A6E1150D8B440D0105013E01150E56E1F
:10055000040EE56EF40EE56E1C50E56E1B50E56E64
:100560000F50E56E0C50E56EECEC0DF0070EE12639
:1005700012D01150E56E040EE56EF40EE56E1C50BF
:10058000E56E1B50E56E0F50E56E0C50E56E3CECD1
:100590001AF0070EE12617502FE00DC0E9FF19C031
:1005A000F3FF1A50B8EC25F02D0A26E0FF0E0D26B9
:1005B00019221A2218C0E5FF0DC0E9FF19C0F3FF88
:1005C0001A504DEC26F018D00CC0E5FF0DC0E9FF25
:1005D00019C0F3FF1A504DEC26F00D50010F0C6EB0
:1005E000000E19200E6E000E1A20E56A0CC0E9FFFD
:1005F0000EC0F3FF4DEC26F00DC00CF019C00EF04C
:100600001AC00FF013C010F0105010E00CC0E9FF3A
:100610000EC0F3FF0F50B8EC25F0176E175006E030
:100620000C2A02E30E4A0F2A1006EED710C013F070
:1006300014501EE109C00CF00AC00EF010C00FF0FB
:100640000F5010E01550E56E0250E56E0150E56E5A
:100650000050E56EBAEC14F0040EE1260C4A0E2AA6
:100660000F06EED70CC009F00EC00AF00FC013F051
:1006700016C00CF00DC00DF019C00EF01AC00FF02E
:1006800009C010F00AC015F00DC0E9FF0EC0F3FF5D
:100690000F50B8EC25F0166E1650D8B43ED00CC0F2
:1006A00016F0176A161E171E1650171005E00CC01C
:1006B00016F00C06165031E00DC0E9FF0EC0F3FF36
:1006C0000F50B8EC25F0116E125010E01150E56E8D
:1006D000FFEC24F0166EE652165004E0DF0E111403
:1006E000166E02D011C016F016C011F01150E56E52
:1006F0000250E56E0150E56E0050E56EBAEC14F064
:10070000040EE1260D2A02E30E4A0F2A104A152A8A
:100710001350D8B4B9D71306B7D710C009F015C015
:100720000AF014502BE010C00CF015C00DF013C0EF
:100730000EF00E501FE0200EE56E0250E56E0150E7
:10074000E56E0050E56EBAEC14F0040EE1260C4A9A
:100750000D2A0E06EED70B50E56E0250E56E0150E5
:10076000E56E0050E56EBAEC14F0040EE126094A7D
:100770000A2A04D00CC009F00DC00AF0032A02E3D3
:10078000044A052A7FEF00F00AC0F3FF0950E4CFC6
:100790001EF0E4CF1DF0E4CF1CF0E4CF1BF0E4CF5B
:1007A0001AF0E4CF19F0E4CF18F0E4CF17F0E4CF5B
:1007B00016F0E4CF15F0E4CF14F0E4CF13F0E4CF5B
:1007C00012F0E4CF11F0E4CF10F0E4CF0FF0E4CF5B
:1007D0000EF0E4CF0DF0E4CF0CF0E4CF0BF0E4CF5B
:1007E0000AF0E4CF09F0E4CF08F0E4CF07F0E4CF5B
:1007F00006F0E4CF05F0E4CF04F0E4CF03F0E4CF5B
:1008000002F0E4CF01F0E4CF00F0E4CFD9FF120012
:100810003C4E4F20464C4F41543E000000C0E5FF87
:1008200001C0E5FF02C0E5FF03C0E5FF04C0E5FF2E
:1008300005C0E5FF06C0E5FF07C0E5FF08C0E5FF0E
:1008400009C0E5FF0AC0E5FF0BC0E5FF0CC0E5FFEE
:10085000006A016A026A040E025CD8B0E8D101C0E5
:1008600003F0012A100E035CD8B0E1D10001F02B97
:10087000100EF05D01E3F06B0001F039E8441F0B4E
:10088000036E046A7F0E0326030E042203C0E9FFF1
:1008900004C0EAFFEFCF03F0070EF015046E010E5F
:1008A000056E000E066E045006E0E86CD890053622
:1008B0000636010FFCE3076A0350051607500616BB
:1008C00005500610D880E866D890056A05360550B0
:1008D000D8A4C1D70001F051020DF450046EF3CF3B
:1008E00003F0390E0324056E040E0420066E05C0C5
:1008F000E9FF06C0EAFFEECF05F0EFCF06F00001FA
:10090000EDA19DD0B30E0324076E040E0420086EE3
:1009100007C0E9FF08C0EAFFEECF07F0EFCF08F00D
:100920000650800FF36E0850800FF35C02E1075011
:10093000055C03E2056A066A60D0D30E0326040E46
:10094000042203C0E9FF04C0EAFFEECF03F0EFCFBB
:1009500004F00450800FF36E0650800FF35C02E148
:100960000550035C04E205683F0E066E46D0075052
:10097000055C096E085006580A6EE86A0ABEFF0E4A
:100980000B6EE56E0B50E56E0A50E56E0950E56E94
:10099000E56AE56A400EE56E000EE56AF9EC0AF0DC
:1009A000096EF3CF0AF0F4CF0BF0E9CF0CF0080E8C
:1009B000E1260750035C076E08500458086EE86A89
:1009C00008BEFF0E036EE56E0350E56E0850E56E3F
:1009D0000750E56E0C50E56E0B50E56E0A50E56E63
:1009E0000950E56EFDEC11F0036EF3CF04F0080E34
:1009F000E1260350056E0450066E0001EC51800F95
:100A0000F36E0650800FF35C02E10550EB5D03E3EB
:100A1000056A066A14D00001EB51FF08036E3F0E11
:100A2000EC55046E0650800FF36E0450800FF35C9B
:100A300002E10350055C03E305683F0E066E00010A
:100A4000F051020DF450046EF3CF03F0930E032621
:100A5000040E042203C0E9FF04C0EAFFEECF03F056
:100A6000EFCF04F00350055C036E04500658046E8B
:100A7000D88004AED89004E3041E036CD8B4042AD2
:100A8000022A0001EC51800FF36E0450800FF35CDA
:100A900002E10350EB5DD8B0DED60001F051020D4B
:100AA000F450086EF3CF07F0930E0726040E0822C9
:100AB00007C0E9FF08C0EAFF05C0EEFF06C0EFFF70
:100AC0000001EDA55AD00001F051020DF450086E5E
:100AD000F3CF07F0000E0724096E030E08200A6EFC
:100AE00009C0E9FF0AC0EAFFEECF0BF0EFCF0CF030
:100AF0000B500C10D8B441D0590E0726040E082212
:100B000007C0E9FF08C0EAFFEECF07F0EFCF08F01B
:100B10000750055C036E08500658046E03101CE075
:100B20000450800F800F02E1010E035C076A073654
:100B30000C50800F800F02E1010E0B5C0B6A0B362C
:100B400007500B1809E109C0E9FF0AC0EAFF03C01A
:100B5000EEFF04C0EFFF7FD60001F051020DF4500C
:100B6000046EF3CF03F0000E0326030E042203C02D
:100B7000E9FF04C0EAFFEE6AEF6A0001EDA343D08B
:100B800000500EE100C003F0002A046AF10E0326B3
:100B9000000E042203C0E9FF04C0EAFF420EEF6E1C
:100BA00000C003F0002A046AF10E0326000E04229E
:100BB000640E0001F025076E03C0E9FF04C0EAFFE0
:100BC00007C0EFFF00C003F0002A046AF10E0326FD
:100BD000000E04220650076E03C0E9FF04C0EAFFBE
:100BE00007C0EFFF00C003F0002A046AF10E0326DD
:100BF000000E04220550076E03C0E9FF04C0EAFF9F
:100C000007C0EFFF28D6F0C003F00650E56E055090
:100C1000E56EE56A0350E56E000EE56E2B0EE56E9F
:100C2000800EE56ED9EC1EF0070EE12614D602C048
:100C300001F000501DE00001EDA31AD000C002F049
:100C4000002A036AF10E0226000E032202C0E9FF09
:100C500003C0EAFF0A0EEF6E0050E56E800EE56EEF
:100C6000000EE56EF10EE56E44EC16F0040EE12682
:100C70000150E4CF0CF0E4CF0BF0E4CF0AF0E4CF66
:100C800009F0E4CF08F0E4CF07F0E4CF06F0E4CFBA
:100C900005F0E4CF04F0E4CF03F0E4CF02F0E4CFBA
:100CA00001F0E4CF00F0120000C0E5FF01C0E5FF55
:100CB00002C0E5FF03C0E5FF04C0E5FF05C0E5FF96
:100CC00006C0E5FF07C0E5FF08C0E5FF09C0E5FF76
:100CD0000AC0E5FFC2A204D00001EE5167EF08F0A0
:100CE0000001EF51D8B41BD10001EE51020DF450B8
:100CF000016EF3CF00F0390E0026040E012200C071
:100D0000E9FF01C0EAFFEECF00F0EFCF01F0230EC4
:100D1000EE25026E036A040E032202C0E9FF03C03F
:100D2000EAFFEFCF02F00250FF0A01E152D0023891
:100D30000F0B036E920E0324046E056A0F0E05223C
:100D4000066A920E03260F0E062203C0E9FF06C0B4
:100D5000EAFFEFCF03F0070E0214066E010E076ED6
:100D6000065005E0E86CD8900736010FFDE3071C3C
:100D7000066E031604C0E9FF05C0EAFF03C0EFFFDB
:100D800002380F0B036E890E0324046E056A0F0EE2
:100D90000522066A890E03260F0E062203C0E9FF0C
:100DA00006C0EAFFEFCF03F0070E0214066E010E35
:100DB000076E065005E0E86CD8900736010FFDE39A
:100DC000071C066E031604C0E9FF05C0EAFF03C056
:100DD000EFFF0001EE51020DF450046EF3CF03F06B
:100DE000390E0326040E042201340130066E003051
:100DF000056E0634063205320634063205320550D9
:100E0000005C056E06500158066EC3CF07F0086AF5
:100E10000750052608500622C4CF07F0086A07507D
:100E20000A6E096A095005260A50062203C0E9FF26
:100E300004C0EAFF05C0EEFF06C0EFFF0001EA5163
:100E4000010A01E06AD00001EE51020DF450046E77
:100E5000F3CF03F0390E0324056E040E0420066E52
:100E600005C0E9FF06C0EAFFEECF00F0EFCF01F0CA
:100E7000B30E0326040E042203C0E9FF04C0EAFFF8
:100E8000EECF05F0EFCF06F09C0E0526D8A00606A3
:100E90000150800FF36E0650800FF35C02E10550A5
:100EA000005C0EE20050640F056E000E0120066E1D
:100EB00003C0E9FF04C0EAFF05C0EEFF06C0EFFF74
:100EC0000001EE51020DF450046EF3CF03F0D30E87
:100ED0000326040E042203C0E9FF04C0EAFFEECF9C
:100EE00005F0EFCF06F0640E0526D8B0062A0650AE
:100EF000800FF36E0150800FF35C02E10050055C3F
:100F00000CE29C0E0026D8A0010603C0E9FF04C035
:100F1000EAFF00C0EEFF01C0EFFF0001EF6B000130
:100F2000EE2B100EEE5D01E3EE6B0001EE39E844AE
:100F30001F0B006E016A7F0E0026030E012200C007
:100F4000E9FF01C0EAFFEFCF00F0070EEE15016EDA
:100F5000010E036E000E046E015006E0E86CD8909E
:100F600003360436010FFCE3056A005003160550F2
:100F7000041603500410D880E866D890036A03363C
:100F80000350D8A4A2D0230E0001EE25006E016A02
:100F90000F0E012200C0E9FF01C0EAFFEFCF00F011
:100FA0000044E844FC0B016E0128C26E230EEE25BE
:100FB000006E016A040E012200C0E9FF01C0EAFFD1
:100FC000EFCF02F00250FF0A01E17BD002380F0B95
:100FD000006E920E0024016E036A0F0E0322046A53
:100FE000920E00260F0E042200C0E9FF04C0EAFFA3
:100FF000EFCF00F0070E0214046E010E056E0450D0
:1010000005E0E86CD8900536010FFDE305500012AD
:1010100001C0E9FF03C0EAFF00C0EFFF380E006E19
:101020000F0E016E02380F0B036E046A0350002688
:1010300004500122380E056E0F0E066E0550032671
:101040000650042203C0E9FF04C0EAFFEFCF03F01B
:10105000070E0216010E046E025005E0E86CD890EF
:101060000436010FFDE30450031200C0E9FF01C084
:10107000EAFF03C0EFFF0F01458300000000459326
:101080000F0144930BC0E5FFF2CF0BF0F29E4481B9
:101090000000000000000000000000000000000050
:1010A0000000000000000000000000000000000040
:1010B000000000000000000044910BBEF28EE4CF5F
:1010C0000BF0C282010E0001EF6F0001EE51E4CF80
:1010D0000AF0E4CF09F0E4CF08F0E4CF07F0E4CF62
:1010E00006F0E4CF05F0E4CF04F0E4CF03F0E4CF62
:1010F00002F0E4CF01F0E4CF00F01200800EE56EC4
:10110000040EE56ED30EE56E51EC1CF0030EE126E5
:10111000800EE56E040EE56EB30EE56E51EC1CF02C
:10112000030EE126800EE56E040EE56ED50EE56E2B
:1011300051EC1CF0030EE126800EE56E040EE56E08
:10114000B50EE56E51EC1CF0030EE126800EE56E47
:10115000040EE56ED70EE56E51EC1CF0030EE12691
:10116000800EE56E040EE56EB70EE56E51EC1CF0D8
:10117000030EE126800EE56E040EE56ED90EE56ED7
:1011800051EC1CF0030EE126800EE56E040EE56EB8
:10119000B90EE56E51EC1CF0030EE126800EE56EF3
:1011A000040EE56EDB0EE56E51EC1CF0030EE1263D
:1011B000800EE56E040EE56EBB0EE56E51EC1CF084
:1011C000030EE126800EE56E040EE56EDD0EE56E83
:1011D00051EC1CF0030EE126800EE56E040EE56E68
:1011E000BD0EE56E51EC1CF0030EE126800EE56E9F
:1011F000040EE56EDF0EE56E51EC1CF0030EE126E9
:10120000800EE56E040EE56EBF0EE56E51EC1CF02F
:10121000030EE126800EE56E040EE56EE10EE56E2E
:1012200051EC1CF0030EE126800EE56E040EE56E17
:10123000C10EE56E51EC1CF0030EE126800EE56E4A
:10124000040EE56EE30EE56E51EC1CF0030EE12694
:10125000800EE56E040EE56EC30EE56E51EC1CF0DB
:10126000030EE126800EE56E040EE56EE50EE56EDA
:1012700051EC1CF0030EE126800EE56E040EE56EC7
:10128000C50EE56E51EC1CF0030EE126800EE56EF6
:10129000040EE56EE70EE56E51EC1CF0030EE12640
:1012A000800EE56E040EE56EC70EE56E51EC1CF087
:1012B000030EE126800EE56E040EE56EE90EE56E86
:1012C00051EC1CF0030EE126800EE56E040EE56E77
:1012D000C90EE56E51EC1CF0030EE126800EE56EA2
:1012E000040EE56EEB0EE56E51EC1CF0030EE126EC
:1012F000800EE56E040EE56ECB0EE56E51EC1CF033
:10130000030EE126800EE56E040EE56EED0EE56E31
:1013100051EC1CF0030EE126800EE56E040EE56E26
:10132000CD0EE56E51EC1CF0030EE126800EE56E4D
:10133000040EE56EEF0EE56E51EC1CF0030EE12697
:10134000800EE56E040EE56ECF0EE56E51EC1CF0DE
:10135000030EE126800EE56E040EE56EF10EE56EDD
:1013600051EC1CF0030EE126800EE56E040EE56ED6
:10137000D10EE56E51EC1CF0030EE126120000C008
:10138000E5FF01C0E5FF02C0E5FF03C0E5FF04C0C3
:10139000E5FF95EC26F025EC22F0F3CF01F0F4CF39
:1013A00002F0E9CF03F0880F0F01336F130E012015
:1013B000346F000E0220356F000E0320366F43ECB1
:1013C00015F09280800E006E0F0E016E0F0E036EF0
:1013D000380E002603500122800E026E0F0E036E9F
:1013E000800E005E0350015A0F0E046E380E022666
:1013F000045003220F0E046E800E025E0450035A46
:1014000002C0E9FF03C0EAFFEFCF02F0028000C094
:10141000E9FF01C0EAFF02C0EFFF000EE56AE56ADE
:10142000D9EC19F0E652E652F19ECCEC1DF0938A0D
:10143000810E006E0F0E016E0F0E036E380E002629
:10144000035001220F0E036E800E005E0350015AFE
:10145000810E026E0F0E036E0F0E046E380E022602
:10146000045003220F0E046E800E025E0450035AD5
:1014700002C0E9FF03C0EAFFEFCF02F0029A00C00A
:10148000E9FF01C0EAFF02C0EFFF050EE56E800E26
:10149000E56E0F0EE56E810EE56E000EE56A13EC4B
:1014A0001EF0050EE1269388810E006E0F0E016E70
:1014B0000F0E036E380E0026035001220F0E036E2E
:1014C000800E005E0350015A810E026E0F0E036EF5
:1014D0000F0E046E380E0226045003220F0E046E07
:1014E000800E025E0450035A02C0E9FF03C0EAFF07
:1014F000EFCF02F0029800C0E9FF01C0EAFF02C08E
:10150000EFFF040EE56E800EE56E0F0EE56E810EA8
:10151000E56E010EE56E13EC1EF0050EE1269386D6
:10152000810E006E0F0E016E0F0E036E380E002638
:10153000035001220F0E036E800E005E0350015A0D
:10154000810E026E0F0E036E0F0E046E380E022611
:10155000045003220F0E046E800E025E0450035AE4
:1015600002C0E9FF03C0EAFFEFCF02F0029600C01D
:10157000E9FF01C0EAFF02C0EFFF030EE56E800E37
:10158000E56E0F0EE56E810EE56E020EE56E13EC54
:101590001EF0050EE126270EE56EE56A080EE56EE3
:1015A0006CEC11F0030EE126010EE56E800EE56E87
:1015B000040EE56E790EE56E01EC1CF0040EE126DA
:1015C000E56AE568200EE56E800EE56E040EE56EB8
:1015D000330EE56EBFEC16F0060EE126E4CF04F004
:1015E000E4CF03F0E4CF02F0E4CF01F0E4CF00F069
:1015F0001200D9CFE5FFE1CFD9FF00C0E5FF01C060
:10160000E5FF02C0E5FF03C0E5FF04C0E5FF05C03C
:10161000E5FF06C0E5FF07C0E5FF020EDBCF00F0E7
:10162000030EDBCF01F0040EDBCF02F0050EDBCFA3
:1016300003F0060EDBCF04F0070EDBCF05F0080E3B
:10164000DBCF06F0090EDBCF07F0005004018A6FF4
:1016500001508B6F02508C6F03508D6F045004014A
:101660008E6F05508F6F0650906F0750916F040179
:101670008A5104019003F4CF01F0F3CF00F0005041
:1016800003016A6F01506B6F04018A5104018E03DC
:10169000F4CF01F0F3CF00F000500301686F015068
:1016A000696F04018D5104018E03F3CF00F0030133
:1016B0006B51002600506B6F04018C5104018F03A5
:1016C000F3CF01F001500026005003016B6F0401BD
:1016D0008C5104018E03F4CF01F0F3CF00F003012D
:1016E0006A5100266B51012200506A6F01506B6FE6
:1016F00004018B5104018F03F4CF03F0F3CF02F008
:101700000250002603500122005003016A6F01506D
:101710006B6F04018B5104019003F3CF00F0005074
:1017200003016F6F04018B5104018E03F4CF01F0AC
:10173000F3CF00F0005003016D6F01506E6F040194
:101740008A5104019103F3CF00F000500301736F3D
:1017500004018A5104018F03F4CF01F0F3CF00F0AC
:1017600000500301716F0150726F03016C6B030134
:10177000706B03016C5103016825006E03016D510C
:1017800003016921016E03016E5103016A21026E9A
:1017900003016F5103016B21036E0050686F01500C
:1017A000696F02506A6F03506B6F03017051030140
:1017B0006825006E0301715103016921016E030167
:1017C000725103016A21026E0301735103016B21FF
:1017D000036E03C0E9FF02C0F4FF01C0F3FF005035
:1017E000E4CF07F0E4CF06F0E4CF05F0E4CF04F057
:1017F000E4CF03F0E4CF02F0E4CF01F0E4CF00F057
:10180000E4CFD9FF120000C0E5FF01C0E5FF0001F1
:10181000E751D8B4F5D09DA81DD09EA81BD00301D8
:1018200093510301901905E1F6EC25F00301906B4B
:10183000E7D0000E03019325006E016A040E012219
:1018400000C0E9FF01C0EAFFEFCF8CF3932B8CC3FC
:10185000ADFFD6D09EAAD4D0ABA205D00301918112
:10186000F6EC25F0CDD0ABA405D003019183F6ECC6
:1018700025F0C6D0ABA03ED0AECF8CF3800E0001D9
:10188000E81103018C1904E103019189AB96B8D0EA
:1018900003018C5104E08C510001E81927E1030198
:1018A0009199AB9603018C5103E00301919702D00B
:1018B000030191878CC395F38EC396F303018E05C4
:1018C0000301976F600E03019625006E016A000EFA
:1018D000012200C0E9FF01C0EAFF8CC3EFFF962B95
:1018E0009651800A02E10301966B8AD00301919917
:1018F000AB8686D0AECF8CF3030191A919D0800EB0
:101900000001E81103018C1911E18B909D9AAB98AD
:101910000301905104E1AD6AF6EC25F007D000C454
:10192000ADFF010E0301936F9D886AD0AB8668D02E
:1019300003018C5103019527030196510301971967
:101940001BE1030195510CE196C38EF3030191B79E
:1019500012D08B909D9AAB98AD6AF6EC25F00BD027
:101960000301918591B707D08B909D9AAB98010E9A
:10197000AD6EF6EC25F044D00301965103018F19AA
:1019800008E103018F5103018E1903E0F6EC25F005
:1019900037D08EC300F0016A004A012AE56A800E42
:1019A000E56E0150E56E0050E56E98EC18F0006EA3
:1019B000040EE126005003018D6F030196190CE11E
:1019C0001F0E03018C150301976F972B972B0301B3
:1019D0008E5103019727979F96C300F00301962B22
:1019E000016A600E0026000E012200C0E9FF01C05E
:1019F000EAFF8CC3EFFF9651800A02E10301966B68
:101A0000E4CF01F0E4CF00F0120000C0E5FF01C018
:101A1000E5FF02C0E5FF03C0E5FF04C0E5FF05C028
:101A2000E5FF06C0E5FF07C0E5FF08C0E5FF09C008
:101A3000E5FF0AC0E5FF006A016A040E015CD8B048
:101A4000B3D0400E0001FE25026E036A030E03228E
:101A500002C0E9FF03C0EAFFEFCF02F00250FF0A25
:101A600001E19BD00001FE39E8441F0B026E830E9A
:101A70000224036E046A030E042203C0E9FF04C0BB
:101A8000EAFFEFCF03F0070EFE15046E010E056EA0
:101A9000000E066E045006E0E86CD8900536063657
:101AA000010FFCE3076A05500316065007160350A2
:101AB0000710D880E866D890036A03360350D880B0
:101AC000E866D890036A0336076A810E0226030E81
:101AD000072202C0E9FF07C0EAFFEFCF08F008C005
:101AE00009F00A6A095005160A5006160550061034
:101AF000D880E866D890056A05360550D880E86633
:101B0000D890056A05360350051801E146D0035008
:101B100012E0010E056E045005E0E86CD890053621
:101B2000010FFDE30550081202C0E9FF07C0EAFFFC
:101B300008C0EFFF17D002C0E9FF07C0EAFFEFCFF0
:101B400005F0010E066E045005E0E86CD8900636EC
:101B5000010FFDE3061C051602C0E9FF07C0EAFFFE
:101B600005C0EFFF035003E1036A032A01D0036AB3
:101B7000FEC004F0E56A0350E56EE56A0450E56EC8
:101B8000000EE56E3C0EE56E1A0EE56ED9EC1EF009
:101B9000070EE126012A01C000F00001FE2B100E05
:101BA000FE5DD8A04AD7FE6B0050E4CF0AF0E4CF28
:101BB00009F0E4CF08F0E4CF07F0E4CF06F0E4CF7B
:101BC00005F0E4CF04F0E4CF03F0E4CF02F0E4CF7B
:101BD00001F0E4CF00F01200D9CFE5FFE1CFD9FF4B
:101BE00000C0E5FF01C0E5FF02C0E5FF03C0E5FF5F
:101BF00004C0E5FF05C0E5FF06C0E5FF07C0E5FF3F
:101C000008C0E5FF09C0E5FF0AC0E5FF0BC0E5FF1E
:101C10000CC0E5FF0DC0E5FF0EC0E5FF0FC0E5FFFE
:101C2000020EDBCF00F0030EDBCF01F0040EDBCFA2
:101C300002F0050EDBCF03F0060EDBCF04F0070E3B
:101C4000DBCF05F0080EDBCF06F0200E076E086A2A
:101C500006C009F00A6A0B6A0C6AE56AE56AE56A79
:101C60000950E56E0350E56E0250E56E0150E56ED9
:101C70000050E56E37EC10F00D6E080EE126300EC8
:101C80000D263A0E0D5C05E30D500E6E270E0E2448
:101C90000D6EFF0E07260822200E07240E6E030E7F
:101CA00008200F6E0EC0E9FF0FC0EAFF0DC0EFFF66
:101CB0000C50E56E0B50E56E0A50E56E0950E56E6E
:101CC0000350E56E0250E56E0150E56E0050E56E82
:101CD000FDEC11F0006EF3CF01F0F4CF02F0E9CF8C
:101CE00003F0080EE1260050011002100310D8A4E2
:101CF000AFD707C000F008C001F004C002F005C073
:101D000003F000C004F001C005F0004A012A200ED3
:101D10000426030E052204C0E9FF05C0EAFFEFCF49
:101D200004F002C0E9FF03C0EAFF04C0EFFF024A6B
:101D3000032A000E015C02E1200E005CE2E302C017
:101D4000E9FF03C0EAFF000EEF6AE4CF0FF0E4CF33
:101D50000EF0E4CF0DF0E4CF0CF0E4CF0BF0E4CFC5
:101D60000AF0E4CF09F0E4CF08F0E4CF07F0E4CFC5
:101D700006F0E4CF05F0E4CF04F0E4CF03F0E4CFC5
:101D800002F0E4CF01F0E4CF00F0E4CFD9FF12007D
:101D9000D9CFE5FFE1CFD9FF00C0E5FF01C0E5FFE6
:101DA00002C0E5FF03C0E5FF04C0E5FF05C0E5FF95
:101DB00006C0E5FF020EDBCF00F0030EDBCF01F023
:101DC000040EDBCF02F000C0E9FF01C0F3FF0250B8
:101DD000B8EC25F0036EE56AE56E14EC21F0E652EE
:101DE000E652320EE56EB8EC24F0E65217EC23F022
:101DF000010EE56E0350E56E14EC21F0E652E6525A
:101E00000050010F036E000E0120046E000E022030
:101E1000056ED0EC21F0066E06C0E5FF03C0E9FFB9
:101E200004C0F3FF05504DEC26F079EC22F0005091
:101E3000020F036E000E0120046E000E0220056EDC
:101E4000D0EC21F0066E06C0E5FF03C0E9FF04C038
:101E5000F3FF05504DEC26F079EC22F00050030F13
:101E6000036E000E0120046E000E0220056ED0EC01
:101E700021F0066E06C0E5FF03C0E9FF04C0F3FFD2
:101E800005504DEC26F079EC22F00050040F036E63
:101E9000000E0120046E000E0220056ED0EC21F031
:101EA000066E06C0E5FF03C0E9FF04C0F3FF05505E
:101EB0004DEC26F079EC22F00050050F036E000E79
:101EC0000120046E000E0220056ED0EC21F0066E9B
:101ED00006C0E5FF03C0E9FF04C0F3FF05504DEC69
:101EE00026F079EC22F0060E0026000E01220222D6
:101EF000D0EC21F0036E03C0E5FF00C0E9FF01C094
:101F0000F3FF02504DEC26F017EC23F0E4CF06F07F
:101F1000E4CF05F0E4CF04F0E4CF03F0E4CF02F027
:101F2000E4CF01F0E4CF00F0E4CFD9FF120000C00D
:101F3000E5FF01C0E5FF02C0E5FF03C0E5FF04C007
:101F4000E5FF05C0E5FF006A400E0024016E026A4D
:101F5000030E022201C0E9FF02C0EAFFEFCF01F049
:101F60000150FF0A01E171D001380F0B026E036AC4
:101F7000800E02260F0E032202C0E9FF03C0EAFF13
:101F8000EFCF02F0070E0116010E036E000E046E75
:101F9000015006E0E86CD89003360436010FFCE3EC
:101FA000056A025003160550041603500410D88029
:101FB000E866D890036A0336035024E10038E84409
:101FC0001F0B016E026A830E0126030E022201C05E
:101FD000E9FF02C0EAFFEFCF03F0070E0014046E22
:101FE000010E056E045005E0E86CD8900536010F2F
:101FF000FDE30550031201C0E9FF02C0EAFF03C080
:10200000EFFF23D00038E8441F0B016E026A830EF5
:102010000126030E022201C0E9FF02C0EAFFEFCF52
:1020200003F0070E0014046E010E056E045005E067
:10203000E86CD8900536010FFDE3051C031601C0BE
:10204000E9FF02C0EAFF03C0EFFF002A100E005CA8
:10205000D8A07AD7E4CF05F0E4CF04F0E4CF03F0C2
:10206000E4CF02F0E4CF01F0E4CF00F01200D9CFCA
:10207000E5FFE1CFD9FF00C0E5FF01C0E5FF02C0E9
:10208000E5FF03C0E5FF04C0E5FF05C0E5FF06C0AE
:10209000E5FF07C0E5FF08C0E5FF09C0E5FF0AC08E
:1020A000E5FF020EDBCF00F0030EDBCF01F0040EE4
:1020B000DBCF02F0050EDBCF03F0060EDBCF04F022
:1020C000070EDBCF05F0080EDBCF06F0090EDBCFE5
:1020D00007F0086A045005100610071005E1E968CA
:1020E000F468F368E86847D0096A0750800BE84451
:1020F0000A6E0A501BE104500426053606360736E0
:102100000750035C08E10650025C05E10550015CE4
:1021100002E10450005C06E2D89007320632053234
:10212000043204D0092A09C008F0DFD70750035C45
:1021300008E10650025C05E10550015C02E1045033
:10214000005C08E30450005E0550015A0650025A34
:102150000750035AD890073206320532043208C0BD
:1021600009F008060950E2E103C0E9FF02C0F4FFEC
:1021700001C0F3FF0050E4CF0AF0E4CF09F0E4CF50
:1021800008F0E4CF07F0E4CF06F0E4CF05F0E4CFA9
:1021900004F0E4CF03F0E4CF02F0E4CF01F0E4CFA9
:1021A00000F0E4CFD9FF1200D9CFE5FFE1CFD9FF8E
:1021B00000C0E5FF01C0E5FF02C0E5FF03C0E5FF89
:1021C00004C0E5FF020EDBCF00F0030EDBCF01F011
:1021D000040EDBCF02F0050EDBCF03F0420E03014D
:1021E0005F6F0350606F0050010F036E000E0120FF
:1021F000046E000E022003C0E9FF04C0F3FFB8EC38
:1022000025F00301616F0050020F036E000E0120E4
:10221000046E000E022003C0E9FF04C0F3FFB8EC17
:1022200025F00301626F0050030F036E000E0120C2
:10223000046E000E022003C0E9FF04C0F3FFB8ECF7
:1022400025F00301636F0050040F036E000E0120A0
:10225000046E000E022003C0E9FF04C0F3FFB8ECD7
:1022600025F00301646F0050050F036E000E01207E
:10227000046E000E022003C0E9FF04C0F3FFB8ECB7
:1022800025F00301656F060E0026000E01220222D2
:1022900000C0E9FF01C0F3FF0250B8EC25F00301D4
:1022A000666F0A0E676F090EE56E800EE56E030E0F
:1022B000E56E5F0EE56E44EC16F0040EE126E4CF09
:1022C00004F0E4CF03F0E4CF02F0E4CF01F0E4CF78
:1022D00000F0E4CFD9FF1200D9CFE5FFE1CFD9FF5D
:1022E00000C0E5FF01C0E5FF02C0E5FF03C0E5FF58
:1022F00004C0E5FF05C0E5FF020EDBCF00F0030ED2
:10230000DBCF01F0040EDBCF02F03F0EC716C66A2A
:10231000C56A0050C6120150C7129488820E006E22
:102320000F0E016E0F0E046E380E002604500122AF
:102330000F0E046E800E005E0450015A820E036E72
:102340000F0E046E0F0E056E380E03260550042284
:102350000F0E056E800E035E0550045A03C0E9FFA0
:1023600004C0EAFFEFCF03F0039800C0E9FF01C00B
:10237000EAFF03C0EFFF9486820E006E0F0E016E1F
:102380000F0E046E380E0026045001220F0E046E4C
:10239000800E005E0450015A820E036E0F0E046E12
:1023A0000F0E056E380E0326055004220F0E056E23
:1023B000800E035E0550045A03C0E9FF04C0EAFF23
:1023C000EFCF03F0039600C0E9FF01C0EAFF03C0AE
:1023D000EFFF02C0C8FFC68A9E96A196E4CF05F023
:1023E000E4CF04F0E4CF03F0E4CF02F0E4CF01F057
:1023F000E4CF00F0E4CFD9FF1200D9CFE5FFE1CF61
:10240000D9FF00C0E5FF01C0E5FF02C0E5FF03C042
:10241000E5FF04C0E5FF05C0E5FF06C0E5FF07C016
:10242000E5FF08C0E5FF09C0E5FF0AC0E5FF0BC0F6
:10243000E5FF0CC0E5FF0DC0E5FF020EDBCF00F0AD
:10244000030EDBCF01F0040EDBCF02F0050EDBCF75
:1024500003F0060EDBCF04F0070EDBCF05F0080E0D
:10246000DBCF06F0090EDBCF07F0086A096A0A6ABB
:102470000B6A200E0C6E0350800BE8440D6E00506A
:1024800000260136023603360850082609360A3679
:102490000B360D50D8A4088007500B5C08E106509D
:1024A0000A5C05E10550095C02E10450085C09E39F
:1024B0000450085E0550095A06500A5A07500B5A34
:1024C00000800C040D6E0DC00CF00D50D4E103C063
:1024D000E9FF02C0F4FF01C0F3FF0050E4CF0DF0AC
:1024E000E4CF0CF0E4CF0BF0E4CF0AF0E4CF09F036
:1024F000E4CF08F0E4CF07F0E4CF06F0E4CF05F036
:10250000E4CF04F0E4CF03F0E4CF02F0E4CF01F035
:10251000E4CF00F0E4CFD9FF120000C0E5FF01C016
:10252000E5FF03C0E5FF04C0E5FF05C0E5FF06C009
:10253000E5FF07C0E5FF08C0E5FF09C0E5FF0AC0E9
:10254000E5FF0BC0E5FF7DC300F07EC301F0030192
:102550007D3F01D07E2B0050E56EE8EC25F0E65281
:10256000076E046A056A066A7DC300F07EC301F047
:1025700003017D3F01D07E2B0050E56EE8EC25F095
:10258000E6520B6A0A6E086A0850041205120A50D5
:1025900006120B5007127DC300F07EC301F0030149
:1025A0007D3F01D07E2B0050E56EE8EC25F0E65231
:1025B000036E006A03C001F0E86A03BEFF0E086EF6
:1025C000096E0050041201500512085006120950FD
:1025D00007127DC300F07EC301F003017D3F01D0EF
:1025E0007E2B0050E56EE8EC25F0E652016A0412FD
:1025F000015005120612071207C0E9FF06C0F4FFDA
:1026000005C0F3FF0450E4CF0BF0E4CF0AF0E4CFB1
:1026100009F0E4CF08F0E4CF07F0E4CF06F0E4CF10
:1026200005F0E4CF04F0E4CF03F0E4CF01F0E4CF11
:1026300000F0120000C0E5FF01C0E5FF02C0E5FFA9
:1026400003C0E5FF04C0E5FF03018F5103018E19AC
:1026500001E15FD08FC300F0002A009E600E0024CD
:10266000016E026A000E022201C0E9FF02C0EAFF09
:10267000EFCF99F31F0E030199178FC398F3995168
:1026800003019827982B982B989F4FEC22F0016E0E
:10269000015003E1016A012A01D0016A4FEC22F0E6
:1026A0000301996F800E9915026E1F0E9915036E26
:1026B00003C004F003C099F3045003E18EC38FF309
:1026C0003BD001501BE0025022E04FEC22F0006EA4
:1026D000030199070050420A1AE000504E0A03E134
:1026E00057EC1EF014D00050460A03E137EC26F0F8
:1026F0000ED00050490A0BE1FF0009D08FC39AF3B6
:10270000025003E09FEC1AF002D012EC26F098C3BE
:102710008FF30001E4510001E51906E00301905137
:1027200003E131EC14F008D08BB006D003019051D6
:1027300003E1ACB2F6EC25F0E4CF04F0E4CF03F013
:10274000E4CF02F0E4CF01F0E4CF00F01200D9CFE3
:10275000E5FFE1CFD9FF00C0E5FF01C0E5FF02C002
:10276000E5FF03C0E5FF04C0E5FF05C0E5FF06C0C7
:10277000E5FF07C0E5FF08C0E5FF09C0E5FF0AC0A7
:10278000E5FF020EDBCF00F0030EDBCF01F0040EFD
:10279000DBCF02F0050EDBCF03F0060EDBCF04F03B
:1027A000070EDBCF05F00038E8441F0B066E076A02
:1027B0007F0E0626030E072206C0E9FF07C0EAFFC8
:1027C000EFCF08F0070E0014096E010E0A6E0950D3
:1027D00005E0E86CD8900A36010FFDE30A500812B4
:1027E00006C0E9FF07C0EAFF08C0EFFF230E002480
:1027F000066E076A0F0E072206C0E9FF07C0EAFF50
:1028000001C0EFFF016A230E0026040E0122800E94
:10281000025E070E02160238F00B036E070E051655
:102820000550032600C0E9FF01C0EAFF03C0EFFF27
:10283000E4CF0AF0E4CF09F0E4CF08F0E4CF07F0EA
:10284000E4CF06F0E4CF05F0E4CF04F0E4CF03F0EA
:10285000E4CF02F0E4CF01F0E4CF00F0E4CFD9FF01
:10286000120000C0E5FF01C0E5FF02C0E5FF03C0A4
:10287000E5FFACA276D0F4EC23F0006E005005E149
:102880000001E56B0001E46B6CD0E5C001F0005085
:102890000126F4EC23F0026E00060250230A1FE129
:1028A000010E005CD8A05BD0F4EC23F0026E690A44
:1028B00003E145EC21F053D00250720A03E1F6EC3B
:1028C00025F04DD00250730A01E049D08B80AB86D1
:1028D0009D8A9D98AE50AE50AB98AB8840D00250C8
:1028E000430A05E00250420A01E039D001D0008ECF
:1028F00000C092F300500401006F010E0301936FBA
:102900000001E551011814E0F4EC23F0026E03011C
:102910009227000E03019325006E036A040E032222
:1029200000C0E9FF03C0EAFF02C0EFFF932BE8D726
:10293000000E03019325006E026A040E02220301B9
:10294000921D036E032A00C0E9FF02C0EAFF03C024
:10295000EFFF0301932B93C390F303018A6B01C034
:10296000E5F0E4CF03F0E4CF02F0E4CF01F0E4CFF0
:1029700000F01200D9CFE5FFE1CFD9FF00C0E5FF9D
:1029800001C0E5FF02C0E5FF03C0E5FF04C0E5FFAD
:1029900005C0E5FF06C0E5FF07C0E5FF020EDBCF7F
:1029A00000F0030EDBCF01F0040EDBCF02F0050ECA
:1029B000DBCF03F002C006F00650046E800A33E15C
:1029C00000C0E9FF01C0F3FF02506BEC24F0056E7C
:1029D000F3CF06F0F4CF07F003C0E5FF05C0E9FF31
:1029E00006C0F3FF07504DEC26F000C0E9FF01C020
:1029F000F3FF02506BEC24F0056EF3CF06F0F4CF3A
:102A000007F0052A02E3064A072A05C0E5FF06C0CB
:102A1000F4FF07C0F6FF00C0E9FF01C0F3FF02505A
:102A2000D9EC25F01DD004AA1BD0047A045004E18F
:102A300003509AEC26F014D00450010A04E103502C
:102A4000ADEC26F00DD004500F0A04E10350E3EC86
:102A500020F006D004500E0A03E10350AAEC26F041
:102A6000E4CF07F0E4CF06F0E4CF05F0E4CF04F0C4
:102A7000E4CF03F0E4CF02F0E4CF01F0E4CF00F0C4
:102A8000E4CFD9FF120000C0E5FF01C0E5FF02C09E
:102A9000E5FF03C0E5FF04C0E5FF006A7F0E0024E8
:102AA000016E026A030E022201C0E9FF02C0EAFFC2
:102AB000EF6A002A020E005CF1E3006A0050020D8A
:102AC000F450026EF3CF01F0390E0124036E040EB0
:102AD0000220046E03C0E9FF04C0EAFFEE6AEF6A59
:102AE000590E0124036E040E0220046E03C0E9FF98
:102AF00004C0EAFFEE6AEF6A930E0124036E040E2F
:102B00000220046E03C0E9FF04C0EAFFEE6AEF6A28
:102B1000B30E0124036E040E0220046E03C0E9FF0D
:102B200004C0EAFFEE6AEF6AD30E0126040E022209
:102B300001C0E9FF02C0EAFFEE687F0EEF6E230ED0
:102B40000024016E026A040E022201C0E9FF02C0E5
:102B5000EAFFEF68002A100E005CD8A0AFD7AF0ED6
:102B6000C06EC16A010EC26EC282E4CF04F0E4CF2F
:102B700003F0E4CF02F0E4CF01F0E4CF00F0120064
:102B80004320412025642025640A0000D9CFE5FFB9
:102B9000E1CFD9FF00C0E5FF01C0E5FF02C0E5FFBE
:102BA00003C0E5FF04C0E5FF05C0E5FF06C0E5FF83
:102BB000020EDBCF00F0030EDBCF01F0040EDBCF03
:102BC00002F0050EDBCF03F000C0E9FF01C0F3FF08
:102BD0000250B8EC25F0046EE56AE56E14EC21F0C5
:102BE000E652E652010E0314056E066A055001E135
:102BF000062A0650E56EB8EC24F0E65217EC23F0F6
:102C0000010EE56E0450E56E14EC21F0E652E6523A
:102C1000055016E00050010F046E000E0120056EF5
:102C2000000E0220066ED0EC21F0E56E04C0E9FF34
:102C300005C0F3FF06504DEC26F003B279EC22F00C
:102C400003A20FD0020E0026000E01220222D0ECB9
:102C500021F0E56E00C0E9FF01C0F3FF02504DEC2A
:102C600026F017EC23F0E4CF06F0E4CF05F0E4CF34
:102C700004F0E4CF03F0E4CF02F0E4CF01F0E4CFBE
:102C800000F0E4CFD9FF1200D9CFE5FFE1CFD9FFA3
:102C900000C0E5FF01C0E5FF02C0E5FF03C0E5FF9E
:102CA00004C0E5FF05C0E5FF06C0E5FF07C0E5FF7E
:102CB000020EDBCF00F0030EDBCF01F0040EDBCF02
:102CC00002F0050EDBCF03F0E5C0E6F00001E451B1
:102CD0000001E65FE60703C004F0056A030E042660
:102CE000D8B0052AE6C006F0076A0750800FF36ED9
:102CF0000550800FF35C02E10450065C02E2E868D4
:102D00002BD0020E035C02E2E86A26D003060350D1
:102D1000E56E95EC1FF0E652046A0350045C14E281
:102D200004500024056EE86A0120066EE86A02205D
:102D300005C0E9FF06C0F3FFB8EC25F0042AE56EF4
:102D400095EC1FF0E652E9D7E5C0E6F00001E4514A
:102D50000001E65FE607E86AE4CF07F0E4CF06F09B
:102D6000E4CF05F0E4CF04F0E4CF03F0E4CF02F0C9
:102D7000E4CF01F0E4CF00F0E4CFD9FF1200D9CFC7
:102D8000E5FFE1CFD9FF00C0E5FF01C0E5FF02C0CC
:102D9000E5FF03C0E5FF04C0E5FF05C0E5FF020E47
:102DA000DBCF00F0030EDBCF01F0040EDBCF02F02F
:102DB000050EDBCF03F0060EDBCF04F0070EDBCFF2
:102DC00005F0035009E003C0E5FF00C0E9FF01C0C2
:102DD000F3FF02504DEC26F0E56A0350E56E14EC6B
:102DE00021F0E652E652060EE56EB8EC24F0E6520B
:102DF0000450E56EB8EC24F0E6520550E56EB8ECF0
:102E000024F0E65217EC23F00050030F036E000E7F
:102E10000120046E000E0220056E040E0026000E36
:102E200001220222E56800C0E9FF01C0F3FF025061
:102E30004DEC26F000C0E9FF01C0F3FF0250B8ECF2
:102E400025F0FF0BE56E03C0E9FF04C0F3FF05505A
:102E50004DEC26F0E4CF05F0E4CF04F0E4CF03F02E
:102E6000E4CF02F0E4CF01F0E4CF00F0E4CFD9FFEB
:102E7000120000C0E5FF01C0E5FF02C0E5FF03C08E
:102E8000E5FF1AEC13F054EC06F097EC0FF01AEC97
:102E900013F0FBEC21F01AEC13F025EC22F0006E9D
:102EA000F3CF01F0F4CF02F0E9CF03F00F0133517B
:102EB000005E3451015A3551025A3651035A039E6D
:102EC0003F0E035C08E1FF0E025C05E1FF0E015CB2
:102ED00002E1FF0E005CD8B03BD025EC22F0F3CF2E
:102EE00001F0F4CF02F0E9CF03F0880F0F01336F48
:102EF000130E0120346F000E0220356F000E0320E8
:102F0000366F0001E1B10DD0010EE56E800EE56E69
:102F1000040EE56E790EE56ED4EC10F0040EE12699
:102F200002D0B2EC20F005EC0DF0006E0050D8B4E9
:102F30000EEC04F00001E12B1AEC13F0800EE56EAC
:102F4000040EE56E790EE56EC8EC0EF0030EE12678
:102F5000E4CF03F0E4CF02F0E4CF01F0E4CF00F0DF
:102F60001200D9CFE5FFE1CFD9FF00C0E5FF01C0D6
:102F7000E5FF02C0E5FF03C0E5FF04C0E5FF05C0B3
:102F8000E5FF020EDBCF00F0030EDBCF01F0040EF5
:102F9000DBCF02F00050020DF450036EF3CF00F0CF
:102FA000590E0024046E040E0320056E04C0E9FFD0
:102FB00005C0EAFF01C0EEFF02C0EFFF930E002440
:102FC000046E040E0320056E04C0E9FF05C0EAFF8D
:102FD000EECF04F0EFCF05F00150045C016E02501B
:102FE0000558026E000E0026030E032200C0E9FF02
:102FF00003C0EAFF01C0EEFF02C0EFFFD88002AEBF
:10300000D89004E3021E016CD8B4022A0250800F4B
:10301000800F02E1030E015C02E2016A026A0150C4
:10302000021007E100C0E9FF03C0EAFF000EEE6AEC
:10303000EF6AE4CF05F0E4CF04F0E4CF03F0E4CF8F
:1030400002F0E4CF01F0E4CF00F0E4CFD9FF1200AA
:10305000D9CFE5FFE1CFD9FF00C0E5FF01C0E5FF13
:1030600002C0E5FF03C0E5FF04C0E5FF05C0E5FFC2
:10307000020EDBCF00F0030EDBCF01F0040EDBCF3E
:1030800002F0050EDBCF03F000C0E9FF01C0F3FF43
:103090000250B8EC25F0E56AE56E14EC21F0E6523A
:1030A000E652010E0314046E056A045001E1052A7C
:1030B000052A052A0550E56EB8EC24F0E6520450C6
:1030C00013E00050030F046E000E0120056E000E89
:1030D000022004C0E9FF05C0F3FFB8EC25F0FF0BA8
:1030E000E56EB8EC24F0E65203A211D0040E0026DF
:1030F000000E0122022200C0E9FF01C0F3FF0250CE
:10310000B8EC25F0FF0BE56EB8EC24F0E65217ECB6
:1031100023F0E4CF05F0E4CF04F0E4CF03F0E4CFF4
:1031200002F0E4CF01F0E4CF00F0E4CFD9FF1200C9
:10313000D9CFE5FFE1CFD9FF00C0E5FF01C0E5FF32
:1031400002C0E5FF03C0E5FF04C0E5FF05C0E5FFE1
:1031500006C0E5FF020EDBCF00F0030EDBCF01F06F
:10316000040EDBCF02F0050EDBCF03F0D88001AEFA
:10317000D890046A0436045007E0011C066E001C57
:10318000056E054A062A04D000C005F001C006F00D
:10319000D88003AED89007E3031C016E021C006EBA
:1031A000004A012A04D002C000F003C001F001501F
:1031B000E56E0050E56E0650E56E0550E56EFEECDE
:1031C0001AF0006EF3CF01F0040EE12604500AE07D
:1031D000011C036E001C026E024A032A03C0F3FFA7
:1031E000025003D001C0F3FF0050E4CF06F0E4CF5B
:1031F00005F0E4CF04F0E4CF03F0E4CF02F0E4CF35
:1032000001F0E4CF00F0E4CFD9FF1200D9CFE5FF01
:10321000E1CFD9FF00C0E5FF01C0E5FF02C0E5FF37
:1032200003C0E5FF04C0E5FF05C0E5FF020EDBCFEC
:1032300000F0030EDBCF01F0040EDBCF02F0050E31
:10324000DBCF03F07DC304F07EC305F003017D3FB7
:1032500001D07E2B0350E56E0450E56EB0EC23F0F8
:10326000E652E6527DC304F07EC305F003017D3FC4
:1032700001D07E2B0250056EE56E0450E56EB0EC79
:1032800023F0E652E6527DC304F07EC305F003014D
:103290007D3F01D07E2B0150056EE56E0450E56E3A
:1032A000B0EC23F0E652E6527DC304F07EC305F095
:1032B00003017D3F01D07E2B0050E56E0450E56E8A
:1032C000B0EC23F0E652E652E4CF05F0E4CF04F090
:1032D000E4CF03F0E4CF02F0E4CF01F0E4CF00F05C
:1032E000E4CFD9FF1200D9CFE5FFE1CFD9FF00C06D
:1032F000E5FF01C0E5FF02C0E5FF03C0E5FF04C034
:10330000E5FF05C0E5FF06C0E5FF020EDBCF00F0DC
:10331000030EDBCF01F0040EDBCF02F00301895175
:1033200019E18DEC12F0036EF3CF04F0F4CF05F049
:10333000E9CF06F003C0E5FF04C0F4FF05C0F6FFC7
:1033400006C0F7FF00C0E9FF01C0F3FF0250A7EC81
:1033500025F01ED003018951010A1AE100C0E9FFDE
:1033600001C0F3FF0250D4EC23F0006EF3CF01F064
:10337000F4CF02F0E9CF03F00350E56E0250E56EA2
:103380000150E56E0050E56E06EC19F0040EE126E2
:10339000E4CF06F0E4CF05F0E4CF04F0E4CF03F08F
:1033A000E4CF02F0E4CF01F0E4CF00F0E4CFD9FFA6
:1033B0001200D9CFE5FFE1CFD9FF00C0E5FF01C082
:1033C000E5FF02C0E5FF03C0E5FF04C0E5FF05C05F
:1033D000E5FF06C0E5FF020EDBCF00F0030EDBCFFA
:1033E00001F00038E8441F0B026E036A7F0E0226CC
:1033F000030E032202C0E9FF03C0EAFFEFCF04F08F
:10340000070E0014056E010E066E055005E0E86C0F
:10341000D8900636010FFDE30650041202C0E9FF02
:1034200003C0EAFF04C0EFFF230E0024026E036A0C
:103430000F0E032202C0E9FF03C0EAFF01C0EFFF45
:10344000016A230E0026040E012200C0E9FF01C01C
:10345000EAFFFF0EEF68E4CF06F0E4CF05F0E4CF1B
:1034600004F0E4CF03F0E4CF02F0E4CF01F0E4CFC6
:1034700000F0E4CFD9FF1200D9CFE5FFE1CFD9FFAB
:1034800000C0E5FF01C0E5FF02C0E5FF03C0E5FFA6
:1034900004C0E5FF05C0E5FF06C0E5FF020EDBCF77
:1034A00000F0030EDBCF01F0040EDBCF02F0050EBF
:1034B000DBCF03F0060EDBCF04F0070EDBCF05F009
:1034C000080EDBCF06F0D88003AED89015E3065087
:1034D0000A0A12E104C0E9FF05C0EAFF2D0EEF6EF3
:1034E000044A052A031E021E011E006C05E1012A82
:1034F00003E1022AD8B4032A0650E56E0550E56EB2
:103500000450E56E0350E56E0250E56E0150E56E25
:103510000050E56EECEC0DF0070EE126E4CF06F06E
:10352000E4CF05F0E4CF04F0E4CF03F0E4CF02F001
:10353000E4CF01F0E4CF00F0E4CFD9FF120000C0E7
:10354000E5FF01C0E5FF02C0E5FF4FEC22F0006E91
:10355000450A27E1000EE56E440EE56E440EE56E69
:10356000D9EC1EF0030EE126A4EC26F0006E00C09C
:1035700001F001C002F0010602500FE04FEC22F012
:10358000E56AE56E000EE56E440EE56E460EE56EEC
:10359000D9EC1EF0050EE126ECD70A0EE3EC20F084
:1035A00026D00050520A23E1270EE56EE56A080E88
:1035B000E56E6CEC11F0030EE126010EE56E800E57
:1035C000E56E040EE56E790EE56E01EC1CF0040E5E
:1035D000E126E56AE568200EE56E800EE56E040ED4
:1035E000E56E330EE56EBFEC16F0060EE126E4CF75
:1035F00002F0E4CF01F0E4CF00F01200D9CFE5FFF4
:10360000E1CFD9FF00C0E5FF01C0E5FF02C0E5FF43
:1036100003C0E5FF04C0E5FF05C0E5FF06C0E5FF08
:10362000020EDBCF00F0030EDBCF01F0040EDBCF88
:1036300002F0050EDBCF03F0046A056A0350800B2D
:10364000E844066E065011E102500226033603508C
:10365000015C02E10250005C04E2D89003320232C5
:1036600004D0052A05C004F0E9D70350015C02E14B
:103670000250005C04E30250005E0350015AD890EF
:103680000332023204C005F004060550EEE101C029
:10369000F3FF0050E4CF06F0E4CF05F0E4CF04F0F0
:1036A000E4CF03F0E4CF02F0E4CF01F0E4CF00F088
:1036B000E4CFD9FF1200D9CFE5FFE1CFD9FF00C099
:1036C000E5FF01C0E5FF02C0E5FF03C0E5FF020E14
:1036D000DBCF00F0030EDBCF01F0040EDBCF02F0F6
:1036E00000C0E9FF01C0F3FF0250B8EC25F0036E03
:1036F000035029E0C6A610D00350E56EB8EC24F0C4
:10370000036EE652035002E0FD0E1ED0A4EC21F041
:10371000C5AC14D0FE0E18D09E9600C0E9FF01C0C3
:10372000F3FF0250B8EC25F0C96EC6889EA6FED7FE
:10373000C7B404D0C7B002D0FE0E06D0002AD0E332
:10374000014A022ACDD7E86AE4CF03F0E4CF02F0C1
:10375000E4CF01F0E4CF00F0E4CFD9FF120000C0C5
:10376000E5FF01C0E5FF02C0E5FF03C0E5FF8FC331
:1037700000F0016A9AC302F0036A0250005E03502F
:10378000015AE56A800EE56E0150E56E0050E56E67
:1037900098EC18F0006E040EE12600069AC301F0C2
:1037A000430EE3EC20F0200EE3EC20F0005020E08C
:1037B000600E0124026E036A000E032202C0E9FFBC
:1037C00003C0EAFFEFCF02F0E56A0250E56E000E9B
:1037D000E56E4C0EE56E040EE56ED9EC1EF0050E9E
:1037E000E126012A0150800A01E1016A0006DED7C4
:1037F000E4CF03F0E4CF02F0E4CF01F0E4CF00F037
:103800001200D9CFE5FFE1CFD9FF00C0E5FF01C02D
:10381000E5FF02C0E5FF03C0E5FF020EDBCF00F0CD
:10382000030EDBCF01F0040EDBCF02F0050EDBCF81
:1038300003F0035003E11D0E036E02D0530E036E1E
:1038400003C0E5FF00C0E9FF01C0F3FF02504DECEB
:1038500026F0E56A2D0EE56E0350E56E75EC21F05D
:10386000030EE126100EE56E2D0EE56E0350E56E9B
:1038700075EC21F0030EE126080EE56E2D0EE56EC7
:103880000350E56E75EC21F0030EE126E4CF03F062
:10389000E4CF02F0E4CF01F0E4CF00F0E4CFD9FFB1
:1038A0001200D9CFE5FFE1CFD9FF00C0E5FF01C08D
:1038B000E5FF02C0E5FF03C0E5FF04C0E5FF020E1F
:1038C000DBCF00F0030EDBCF01F0040EDBCF02F004
:1038D0000301895111E17EEC20F0036EF3CF04F077
:1038E00003C0E5FF04C0F4FF00C0E9FF01C0F3FF1F
:1038F00002501FEC26F016D003018951010A12E193
:1039000000C0E9FF01C0F3FF025042EC25F0006E59
:10391000F3CF01F00150E56E0050E56E58EC1FF05A
:10392000E652E652E4CF04F0E4CF03F0E4CF02F035
:10393000E4CF01F0E4CF00F0E4CFD9FF1200D9CFFB
:10394000E5FFE1CFD9FF00C0E5FF01C0E5FF02C000
:10395000E5FF03C0E5FF04C0E5FF020EDBCF00F08A
:103960000038E8441F0B016E026A830E0126030E25
:10397000022201C0E9FF02C0EAFFEFCF01F0070E0B
:103980000016010E026E000E036E005006E0E86C99
:10399000D89002360336010FFCE3046A0150021688
:1039A0000450031602500310D880E866D890026ACB
:1039B00002360250D880E866D890026A0236025079
:1039C000E4CF04F0E4CF03F0E4CF02F0E4CF01F061
:1039D000E4CF00F0E4CFD9FF1200040EF66E4D0ED6
:1039E000F76E000EF86E0900F550056E0900F550EF
:1039F000066E04E1056702D03AEF1DF00900F550AC
:103A0000006E0900F550016E0900F550026E0900C4
:103A10000900F550E96E0900F550EA6E0900090049
:103A20000900F550036E0900F550046E0900090005
:103A3000F6CF07F0F7CF08F0F8CF09F000C0F6FF97
:103A400001C0F7FF02C0F8FF035002E1045007E095
:103A50000900F550EE6E0306F8E20406F9D707C038
:103A6000F6FF08C0F7FF09C0F8FF050601E20606E9
:103A7000F9EF1CF01200D9CFE5FFE1CFD9FF00C06C
:103A8000E5FF01C0E5FF02C0E5FF03C0E5FF04C09C
:103A9000E5FF05C0E5FF020EDBCF00F00050010A94
:103AA00022E1016A0150020DF450036EF3CF02F0DF
:103AB000B30E0224046E040E0320056E04C0E9FF59
:103AC00005C0EAFFEE687F0EEF6ED30E0226040EED
:103AD000032202C0E9FF03C0EAFFEE6AEF6A012A8F
:103AE000100E015CDFE300C0EAF0E4CF05F0E4CFA4
:103AF00004F0E4CF03F0E4CF02F0E4CF01F0E4CF30
:103B000000F0E4CFD9FF1200D9CFE5FFE1CFD9FF14
:103B100000C0E5FF01C0E5FF02C0E5FF03C0E5FF0F
:103B200004C0E5FF020EDBCF00F0030EDBCF01F097
:103B3000040EDBCF02F0036A02C004F00206045058
:103B40001DE0D0EC21F0046E00C0E9FF01C0EAFFE7
:103B500004C0EFFF004A012A03C004F0C5A6ECD759
:103B6000A1A602D0E8680BD0042A04C003F00250DA
:103B7000F5E079EC22F0C5B8FED7F0D70350E4CFDA
:103B800004F0E4CF03F0E4CF02F0E4CF01F0E4CF9F
:103B900000F0E4CFD9FF120000C0E5FF01C0E5FF4F
:103BA00002C0E5FF03C0E5FF04C0E5FF006A810E27
:103BB0000024016E026A030E0222830E0024036EAB
:103BC000046A030E042203C0E9FF04C0EAFF010EE9
:103BD000EF6E01C0E9FF02C0EAFFEF6E002A020E9D
:103BE000005CE5E3006A400E0024016E026A030EE9
:103BF000022201C0E9FF02C0EAFFEF68002A100EAE
:103C0000005CF1E3E4CF04F0E4CF03F0E4CF02F092
:103C1000E4CF01F0E4CF00F01200432073202564CC
:103C20002025640A0000D9CFE5FFE1CFD9FF00C00D
:103C3000E5FF01C0E5FF02C0E5FF03C0E5FF04C0EA
:103C4000E5FF05C0E5FF020EDBCF00F0030EDBCF82
:103C500001F0040EDBCF02F0050EDBCF03F0060E01
:103C6000DBCF04F0056A400E0026030E0522800E0D
:103C7000015E070E01160138F00B026E070E0416E6
:103C80000450022600C0E9FF05C0EAFF02C0EFFFB2
:103C9000E4CF05F0E4CF04F0E4CF03F0E4CF02F08A
:103CA000E4CF01F0E4CF00F0E4CFD9FF120000C070
:103CB000E5FF01C0E5FF02C0E5FF4FEC22F0006E1A
:103CC0004FEC22F0016E0050026ED00E0224006E06
:103CD0000A0E005C05E30050026EF90E0224006E2D
:103CE0000150026ED00E0224016E0A0E015C05E343
:103CF0000150026EF90E0224016E080E005C12E201
:103D0000100E015CD8B00ED00038F00B0124006E0C
:103D10000CEC20F0016E015005E10050E56EA0ECC6
:103D200024F0E652E4CF02F0E4CF01F0E4CF00F05B
:103D30001200D9CFE5FFE1CFD9FF00C0E5FF01C0F8
:103D4000E5FF02C0E5FF03C0E5FF04C0E5FF020E8A
:103D5000DBCF00F00038E8441F0B016E026A7F0ED3
:103D60000126030E022201C0E9FF02C0EAFFEFCFE5
:103D700003F0070E0016010E046E005005E0E86C1B
:103D8000D8900436010FFDE3041C031601C0E9FFBF
:103D900002C0EAFF03C0EFFFE4CF04F0E4CF03F07A
:103DA000E4CF02F0E4CF01F0E4CF00F0E4CFD9FF9C
:103DB0001200D9CFE5FFE1CFD9FF00C0E5FF01C078
:103DC000E5FF02C0E5FF020ED924006E000EDA20E6
:103DD000016E800E026E030E0026000E01220222EA
:103DE0000250E56E0150E56E0050E56E040EDBCF2B
:103DF000E5FF030EDBCFE5FF020EDBCFE5FF03019E
:103E00007651E56E7551E56E7451E56E0EEC00F07D
:103E1000006EF3CF01F0090EE12601C0F3FF005060
:103E2000E4CF02F0E4CF01F0E4CF00F0E4CFD9FF1B
:103E30001200D9CFE5FFE1CFD9FF00C0E5FF01C0F7
:103E4000E5FF02C0E5FF03C0E5FF020EDBCF00F097
:103E5000030EDBCF01F0040EDBCF02F0030189512A
:103E60000DE116EC25F0036E03C0E5FF00C0E9FF8D
:103E700001C0F3FF02504DEC26F00FD00301895131
:103E8000010A0BE100C0E9FF01C0F3FF0250B8ECEA
:103E900025F0E56E65EC23F0E652E4CF03F0E4CFC5
:103EA00002F0E4CF01F0E4CF00F0E4CFD9FF12003C
:103EB000D9CFE5FFE1CFD9FF00C0E5FF01C0E5FFA5
:103EC00002C0E5FF03C0E5FF020EDBCF00F0030EEA
:103ED000DBCF01F07DC302F07EC303F003017D3F21
:103EE00001D07E2B0150E56E0250E56EB0EC23F060
:103EF000E652E6527DC302F07EC303F003017D3F2C
:103F000001D07E2B0050E56E0250E56EB0EC23F040
:103F1000E652E652E4CF03F0E4CF02F0E4CF01F042
:103F2000E4CF00F0E4CFD9FF1200D9CFE5FFE1CF15
:103F3000D9FF00C0E5FF01C0E5FF02C0E5FF03C0F7
:103F4000E5FF04C0E5FF020EDBCF00F0E4C001F0A6
:103F5000026A014A022AE5C003F0046A015003180C
:103F600003E10250041801E001D00ED0000E000160
:103F7000E425016E026A010E022201C0E9FF02C0BF
:103F8000EAFF00C0EFFFE42BE4CF04F0E4CF03F03E
:103F9000E4CF02F0E4CF01F0E4CF00F0E4CFD9FFAA
:103FA0001200D9CFE5FFE1CFD9FF00C0E5FF01C086
:103FB000E5FF02C0E5FF03C0E5FF020EDBCF00F026
:103FC000016A9AC302F0036A0250002603500122DC
:103FD000E56A800EE56E0150E56E0050E56E98ECE6
:103FE00018F0006EF3CF01F0040EE126600E0026FB
:103FF000000E012200C0E9FF01C0EAFFEFCF00F090
:104000000050E4CF03F0E4CF02F0E4CF01F0E4CFBE
:1040100000F0E4CFD9FF120000C0E5FF01C0E5FFCA
:1040200002C0E5FF010E006E4FEC22F0016E01C0F0
:1040300002F0015023E00050E56EE8EC25F0016E3F
:10404000E652015010E10A0E005C0BE20A0E006E0F
:10405000E56EE8EC25F0016EE652015004E1E868F7
:104060000ED0E8680CD00150021802E0E86807D0D2
:10407000002A1B0E005CD8E3E86801D0E86AE4CFB0
:1040800002F0E4CF01F0E4CF00F01200F3CFE5FF3F
:10409000F4CFE5FFE9CFE5FFEACFE5FFFACFE5FF93
:1040A000FBCFE5FF0001E2510401836F0001E35102
:1040B0000401846FD650816FD750826FF2A411D063
:1040C0000001E23F01D0E32BF2940001E251040130
:1040D000836F0001E3510401846FD650816FD75084
:1040E000826FE4CFFBFFE4CFFAFFE4CFEAFFE4CF37
:1040F000E9FFE4CFF4FFE4CFF3FF110000C0E5FFD8
:1041000001C0E5FF02C0E5FF03C0E5FF7DC300F08D
:104110007EC301F003017D3F01D07E2B0050E56E90
:10412000E8EC25F0E652036E026A7DC300F07EC320
:1041300001F003017D3F01D07E2B0050E56EE8ECDD
:1041400025F0E652016A02120150031203C0F3FF88
:104150000250E4CF03F0E4CF02F0E4CF01F0E4CF6B
:1041600000F0120000C0E5FF01C0E5FF010E006E87
:10417000420E0301506F04013451FF0B03018619F5
:104180000DE00A0E0301516F030E006E040134515D
:10419000FF0B016E01C086F30301526F020E005C3B
:1041A0000DE3002A0050E56E800EE56E030EE56E0D
:1041B000500EE56E44EC16F0040EE126E4CF01F05B
:1041C000E4CF00F0120000C0E5FF01C0E5FF02C02F
:1041D000E5FF006E000E0001E925016E026A0F0E78
:1041E000022201C0E9FF02C0EAFF00C0EFFF220E79
:1041F000E95D01E2E92B00500A0A0FE10001E951F3
:10420000E56E800EE56E0F0EE56E000EE56E44EC79
:1042100016F0040EE1260001E96BE4CF02F0E4CFD2
:1042200001F0E4CF00F01200D9CFE5FFE1CFD9FFD4
:1042300000C0E5FF01C0E5FF02C0E5FF020EDBCFD5
:1042400000F0030EDBCF01F03EEC23F00044FE0B48
:10425000026E0150D880E866D890006A003600509F
:10426000D880E866D890006A0036005002120250EA
:10427000E56EB8EC24F0E652E4CF02F0E4CF01F0B2
:10428000E4CF00F0E4CFD9FF12000001E46B00019D
:10429000E56B0001E6698B809490B06A3F0EAF6ECB
:1042A000B886AC8AAC84AC8CAC90AB8CAB8E030182
:1042B000916B03018B6B03018E6B03018F6B030109
:1042C000906B000EE56AE8EC25F00001E86FE6521D
:1042D0009F989F9A010E0001E76F0301746B756B45
:1042E0002F0E766FF6EC25F01200D9CFE5FFE1CF67
:1042F000D9FF00C0E5FF01C0E5FF02C0E5FF020EE7
:10430000DBCF00F0030EDBCF01F0040EDBCF02F0B9
:10431000E56A0050E56E14EC21F0E652E6520150D9
:10432000E56EB8EC24F0E6520250E56EB8EC24F0ED
:10433000E65217EC23F0E4CF02F0E4CF01F0E4CF33
:1043400000F0E4CFD9FF120000C0E5FF01C0E5FF97
:1043500002C0E5FF03C0E5FFE80E006E030E016E2C
:104360000050FF0F026EFF0E0120036E02C000F02E
:1043700003C001F0025003100AE01F0EC514026EC4
:10438000036AC7B4032A035002120250E9E1E4CFE2
:1043900003F0E4CF02F0E4CF01F0E4CF00F012002C
:1043A00000C0E5FF01C0E5FF02C0E5FF03C0E5FF77
:1043B000E80E006E030E016EA4EC21F0C5860050DD
:1043C000FF0F026EFF0E0120036E02C000F003C05B
:1043D00001F00250031005E08FEC26F0026E02504F
:1043E000EEE0C950E4CF03F0E4CF02F0E4CF01F0F7
:1043F000E4CF00F012000001E02BE051010A05E0DB
:104400000001E051020A0EE01AD0020EE56E800EA5
:10441000E56E040EE56E330EE56E28EC18F0040E22
:10442000E1260FD0010EE56E800EE56E040EE56EFE
:10443000330EE56EC6EC15F0040EE12602D0000145
:10444000E06B12004300256300000001E25104010B
:10445000876F0001E3510401886FD650856FD750F4
:10446000866F87510001E21905E1040188510001BE
:10447000E3190CE00001E2510401876F0001E351F0
:104480000401886FD650856FD750866F88C4E9FFC6
:1044900087C4F4FF86C4F3FF04018551120000C0F5
:1044A000E5FF01C0E5FF03018F510301981905E005
:1044B00003018F5103018E1902E1E86A15D08FC301
:1044C00000F003018F2B016A600E0026000E01220E
:1044D00000C0E9FF01C0EAFFEFCF00F08F51800A72
:1044E00002E103018F6B0050E4CF01F0E4CF00F054
:1044F000120000C0E5FF01C0E5FF02C0E5FF03C0F8
:10450000E5FFE80E006E030E016EA4EC21F09E960E
:10451000C59AC5880050FF0F026EFF0E0120036E82
:1045200002C000F003C001F00250031002E09EA69A
:10453000F1D7E4CF03F0E4CF02F0E4CF01F0E4CF11
:1045400000F0120000C0E5FF9EEC26F00401896B2C
:10455000806B8983006A89B3002A0050010BE8440C
:10456000F46E8051FD0BF410806FD58ED59CD59ADA
:10457000D588D596D594D582D580F28AF184D08E0F
:10458000F28EF28CBA80FF0EBB68BA84E4CF00F0E2
:104590001200D9CFE5FFE1CFD9FF00C0E5FF01C090
:1045A000E5FF020EDBCF00F00050020DF450016E6B
:1045B000F3CF00F0000E0026030E012200C0E9FF39
:1045C00001C0EAFFEECF00F0EFCF01F001C0F3FF32
:1045D0000050E4CF01F0E4CF00F0E4CFD9FF1200A7
:1045E000D9CFE5FFE1CFD9FF00C0E5FF01C0E5FF6E
:1045F000020EDBCF00F00050020DF450016EF3CF3D
:1046000000F0390E0026040E012200C0E9FF01C0AF
:10461000EAFFEECF00F0EFCF01F001C0F3FF005052
:10462000E4CF01F0E4CF00F0E4CFD9FF120000C0E6
:10463000E5FF01C0E5FF02C0E5FF03C0E5FFE80EAE
:10464000006E030E016EA4EC21F0C5840050FF0F34
:10465000026EFF0E0120036E02C000F003C001F0E5
:104660000250031002E0C5B4F1D7E4CF03F0E4CF69
:1046700002F0E4CF01F0E4CF00F0120000C0E5FF4B
:1046800001C0E5FF02C0E5FF03C0E5FFE80E006ED4
:10469000030E016EA4EC21F0C5800050FF0F026EE6
:1046A000FF0E0120036E02C000F003C001F00250B3
:1046B000031002E0C5B0F1D7E4CF03F0E4CF02F07D
:1046C000E4CF01F0E4CF00F01200D9CFE5FFE1CF55
:1046D000D9FF00C0E5FF01C0E5FF02C0E5FF020E03
:1046E000DBCF00F07DC301F07EC302F003017D3F0C
:1046F00001D07E2B0050E56E0150E56EB0EC23F04A
:10470000E652E652E4CF02F0E4CF01F0E4CF00F04D
:10471000E4CFD9FF1200D8CFE5FFE0CFE5FFE56E8B
:10472000F3CFE5FFF4CFE5FFE9CFE5FFEACFE5FF03
:10473000FACFE5FFFBCFE5FF03EC0CF0E4CFFBFF86
:10474000E4CFFAFFE4CFEAFFE4CFE9FFE4CFF4FFE0
:10475000E4CFF3FFE450E4CFE0FFE4CFD8FF100054
:10476000D9CFE5FFE1CFD9FF00C0E5FF020EDBCFD7
:1047700000F0030EDBCFA8FF00C0A9FFA69EA69CF9
:10478000A684F29EF29C550EA76EAA0EA76EA68274
:10479000A6A202D00000FCD7A694F28EF28CE4CF41
:1047A00000F0E4CFD9FF1200E8AE0AD0F3CFEAFF61
:1047B000EE50EECFF3FFEECFF4FFEECFE9FF1200A5
:1047C000E8BCB3EF26F0E9CFF6FFF3CFF7FFF86EC2
:1047D0000900F5500900F5CFF3FF0900F5CFF4FF0C
:1047E0000900F5CFE9FF120000C0E5FF01C0E5FFB9
:1047F0000001E4510001E51902E1E86A0FD0000E62
:104800000001E525006E016A010E012200C0E9FFEA
:1048100001C0EAFFEFCF00F0E52B0050E4CF01F03C
:10482000E4CF00F01200F2CFEAFFF29EA69EA69C13
:10483000A684E9CFA9FFF3CFAAFFE4CFA8FF62ECDB
:1048400026F0F4CFA8FF62EC26F0F6CFA8FF62ECCA
:1048500026F0F7CFA8FF62EC26F0A694EABEF28E0F
:104860001200D9CFE5FFE1CFD9FF00C0E5FF01C0BD
:10487000E5FF020EDBCF00F0016A400E0026030EBA
:10488000012200C0E9FF01C0EAFFFF0EEF68E4CF9C
:1048900001F0E4CF00F0E4CFD9FF1200F2CFF6FF31
:1048A000F29EA69EA69CE9CFA9FFF3CFAAFFA68001
:1048B000A850A94AAA2AA680A8CFF3FFA94AAA2AE3
:1048C000A680A8CFF4FFA94AAA2AA680A8CFEAFF0B
:1048D000F6BEF28E1200E8AE08D0F3CFEAFFEE503B
:1048E000EECFF3FFEECFF4FF1200E8BCBBEF26F0F3
:1048F000E9CFF6FFF3CFF7FFF86E0900F550090096
:10490000F5CFF3FF0900F5CFF4FF1200F2CFEAFF75
:10491000F29EA69EA69CA684E9CFA9FFF3CFAAFF8C
:10492000E4CFA8FF62EC26F0F4CFA8FF62EC26F0FB
:10493000F6CFA8FF62EC26F0A694EABEF28E120033
:10494000D9CFE5FFE1CFD9FF00C0E5FF020EDBCFF5
:1049500000F000C0E8F00050E56E000EE56AB0EC33
:1049600023F0E652E652E4CF00F0E4CFD9FF120084
:10497000D9CFE5FFE1CFD9FF00C0E5FF020EDBCFC5
:1049800000F0C69E00C0C9FFC6AE02D0E86803D0E2
:10499000A4EC21F0E86AE4CF00F0E4CFD9FF1200E4
:1049A000F2CFF6FFF29EA69EA69CE9CFA9FFF3CF19
:1049B000AAFFA680A850A94AAA2AA680A8CFF3FFDA
:1049C000A94AAA2AA680A8CFF4FFF6BEF28E12004A
:1049D00000C0E5FF01C0E5FF600E03018F25006EFA
:1049E000016A000E012200C0E9FF01C0EAFFEFCF1B
:1049F00000F00050E4CF01F0E4CF00F01200D9CF76
:104A0000E5FFE1CFD9FF00C0E5FF020EDBCF00F0EC
:104A1000610E005C05E37B0E005C02E2010E01D03A
:104A2000E86AE4CF00F0E4CFD9FF120000C0E5FF50
:104A300001C0E5FF7DC300F07EC301F003017D3FAF
:104A400001D07E2B0050E56EE8EC25F0E652E4CF75
:104A500001F0E4CF00F01200D9CFE5FFE1CFD9FF9C
:104A600000C0E5FF020EDBCF00F000C0E7F0005011
:104A700004E1F6EC25F09D9A9D98E4CF00F0E4CF98
:104A8000D9FF1200E8AE06D0F3CFEAFFEE50EECF2A
:104A9000F3FF1200E8BCB1EF26F0E9CFF6FFF3CF49
:104AA000F7FFF86E0900F5500900F5CFF3FF12008B
:104AB000F2CFEAFFF29EA69EA69CA684E9CFA9FFAC
:104AC000F3CFAAFFE4CFA8FF62EC26F0F4CFA8FF53
:104AD00062EC26F0A694EABEF28E120012EEFFF00F
:104AE00022EEFFF0F86AA68EA69CE9680E0EEA6E2A
:104AF0000068000EED6A0050FDE1EDEC1CF006ECE4
:104B000000F0FFD7F2CFF6FFF29EA69EA69CE9CF5B
:104B1000A9FFF3CFAAFFA680A850A94AAA2AA68077
:104B2000A8CFF3FFF6BEF28E1200F2CFEAFFF29E9C
:104B3000A69EA69CA684E9CFA9FFF3CFAAFFE4CF47
:104B4000A8FF62EC26F0A694EABEF28E1200E8AE50
:104B50000BD0F3CFEAFFE4CFEEFFF4CFEEFFF6CFBA
:104B6000EEFFF7CFEEFF1200E8BCB5EF26F0120023
:104B7000E8AE04D0F3CFEAFFEE501200E8BCAFEF8E
:104B800026F0E9CFF6FFF3CFF7FFF86E0900F550F6
:104B90001200000000000000FF000000000A0002F8
:104BA00000000042000000000000000000000000C3
:104BB0000000E8AE09D0F3CFEAFFE4CFEEFFF4CF78
:104BC000EEFFF6CFEEFF1200E8BCBDEF26F01200BC
:104BD000D9CFE5FFE1CFD9FF020EDBCFA9FFA69C1D
:104BE000A69EA680A850E4CFD9FF1200ACA2FED7A3
:104BF0008B80AE500000AE50AB98AB88AB869D8AE0
:104C00009D98120025642000F2CFF6FFF29EA69E2A
:104C1000A69CE9CFA9FFF3CFAAFFA680A850F6BEB5
:104C2000F28E12004FEC22F00A0A08E14FEC22F05B
:104C30000301886FFF0BFF080401376F1200E8AE15
:104C400007D0F3CFEAFFE4CFEEFFF4CFEEFF120080
:104C5000E8BCB9EF26F01200700ED36E9B8CFF0EED
:104C60009268936894689668626AF19E120000C028
:104C7000E5FF0CEC20F0006E005001E1FF00E4CFF6
:104C800000F012000F01456B900E0F01446F030EF0
:104C90000F01436F0F01458F1200E8AE05D0F3CF2F
:104CA000EAFFE4CFEEFF1200E8BCB7EF26F01200F7
:104CB000D9CFE5FFE1CFD9FF020EDBCFEDF0E4CF96
:104CC000D9FF1200550EA76EAA0EA76EA682A6B235
:104CD000FED7A94AAA2A010E0301896F1C0E0301FF
:104CE0007D6F7E6B1200A4EC21F09E96C58AC5886C
:104CF0009EA6FED712000301896B1C0E03017D6F77
:104D00007E6B12000100924B0000E00000002000CA
:104D10000000A4EC21F0C582C5B2FED71200C7A0E6
:104D200002D0010E01D0E86A1200A2EC22F045EC9C
:104D300021F01200ACA2FED7AD6E12002CEC26F0D2
:104D4000120003018F51120003019951120000015A
:104D5000E7511200E8CF7FFF1200C96E120004EF86
:104D600026F082EF25F04EEF24F013EF24F095EFBC
:0E4D700025F058EF25F0D0EF24F086EF24F068
:00000001FF
