:020000040000FA
:10000000B3EF24F0C69A1200E6EF1FF054EC06F0AE
:1000100028EC18F0FDD71200D0EF22F0D9CFE5FF81
:10002000E1CFD9FF00C0E5FF01C0E5FF02C0E5FF59
:1000300003C0E5FF04C0E5FF05C0E5FF06C0E5FF1E
:1000400007C0E5FF08C0E5FF09C0E5FF0AC0E5FFFE
:100050000BC0E5FF0CC0E5FF0DC0E5FF0EC0E5FFDE
:100060000FC0E5FF10C0E5FF11C0E5FF12C0E5FFBE
:1000700013C0E5FF14C0E5FF15C0E5FF16C0E5FF9E
:1000800017C0E5FF18C0E5FF19C0E5FF1AC0E5FF7E
:100090001BC0E5FF1CC0E5FF1DC0E5FF1EC0E5FF5E
:1000A000020EDBCF00F0030EDBCF01F0040EDBCF3E
:1000B00002F0050EDBCF03F0060EDBCF04F0070ED7
:1000C000DBCF05F0080EDBCF06F0090EDBCF07F023
:1000D0000A0EDBCF08F0096A0A6A02C00DF00D5063
:1000E000800A0DE102500A01686F0150676F0050ED
:1000F000666F0A0E016E660E006E800E026E03C001
:10010000E9FF04C0F3FF0550ECEC24F00B6E0B503C
:10011000D8B4C4EF03F00B50250A02E0ABEF03F0B4
:100120000C6A0D6A0E6A0F6A106A0A0E116E126A64
:10013000136A146A200E156E1668176A2B0E186E55
:10014000032A02E3044A052A03C0E9FF04C0F3FFBF
:100150000550ECEC24F0196E250A13E11950E56EF8
:100160000250E56E0150E56E0050E56EA7EC15F00B
:10017000040EE126094A0A2A032A02E3044A052A50
:10018000BED71950300A06E1300E156E032A02E37D
:10019000044A052A03C0E9FF04C0F3FF0550ECEC54
:1001A00024F02D0A06E1010E146E032A02E3044A2C
:1001B000052A03C0E9FF04C0F3FF0550ECEC24F06E
:1001C000200A08E1010E176E200E186E032A02E3C2
:1001D000044A052A03C0E9FF04C0F3FF0550ECEC14
:1001E00024F02B0A06E1010E176E032A02E3044AEB
:1001F000052A03C0E9FF04C0F3FF0550ECEC24F02E
:10020000196E310E195C2BE33A0E195C28E203C01B
:1002100019F004C01AF005C01BF019C0E9FF1AC09C
:10022000F3FF1B50ECEC24F01C6E300E1C5C11E351
:100230003A0E1C5C0EE213500A0DF3CF1DF01D5058
:100240001C26D00E1C24136E192A02E31A4A1B2AFC
:10025000E4D719C003F01AC004F01BC005F003C0B6
:10026000E9FF04C0F3FF0550ECEC24F02E0A2DE169
:10027000032A02E3044A052A166A03C019F004C0DF
:100280001AF005C01BF019C0E9FF1AC0F3FF1B509C
:10029000ECEC24F01C6E300E1C5C11E33A0E1C5C7E
:1002A0000EE216500A0DF3CF1DF01D501C26D00E85
:1002B0001C24166E192A02E31A4A1B2AE4D719C015
:1002C00003F01AC004F01BC005F003C0E9FF04C02E
:1002D000F3FF0550ECEC24F0196E6C0A07E1010EF7
:1002E0000C6E032A02E3044A052A09D01950680A51
:1002F00006E1010E0E6E032A02E3044A052A03C03A
:10030000E9FF04C0F3FF0550ECEC24F0750A06E1A8
:10031000010E106E032A02E3044A052A03C0E9FF16
:1003200004C0F3FF0550ECEC24F0196E730A05E1EC
:10033000010E0D6E200E156E3FD01950780A03E1A4
:10034000100E116E39D01950580A05E1100E116EB9
:10035000010E126E31D01950630A02E1116A2CD0DD
:1003600019506F0A03E1080E116E26D01950660A63
:1003700003E1010E0F6E20D01950640A1DE01950E0
:10038000690A1AE0105005E0FF0E03260422052238
:1003900013D01950E56E0250E56E0150E56E005025
:1003A000E56EA7EC15F0040EE126094A0A2A032A95
:1003B00002E3044A052AA3D60D5021E00650030F9C
:1003C0000D6E000E0720196E000E08201A6E0DC06B
:1003D00006F019C007F01AC008F0FD0E0D26FF0E3A
:1003E00019221A220DC0E9FF19C0F3FF1A50B0EC10
:1003F00023F00D6EF3CF19F0F4CF1AF0FDD00F50AB
:100400000DE0000E1A6E080E196E100E0D6E040E21
:100410000626000E072208221668EED016680C5039
:1004200023E00650040F0C6E000E07200F6E000E26
:1004300008201B6E0CC006F00FC007F01BC008F0B0
:10044000FC0E0C26FF0E0F221B220CC0E9FF0FC072
:10045000F3FF1B5019EC23F00C6EF3CF0FF0F4CF29
:100460001BF0E9CF1CF067D00E502FE00650020FB2
:100470000E6E000E07201D6E000E08201E6E0EC0B0
:1004800006F01DC007F01EC008F0FE0E0E26FF0E7F
:100490001D221E220EC0E9FF1DC0F3FF1E5087EC77
:1004A00024F00E6E0EC00CF00F6A1B6A1C6A11500D
:1004B0000A0A03E11050D8B43ED00C500E6E0EC0A4
:1004C0000CF00F6A1B6A1C6A36D00650020F0E6EC3
:1004D000000E07201D6E000E08201E6E0EC006F0D6
:1004E0001DC007F01EC008F0FE0E0E26FF0E1D22D6
:1004F0001E220EC0E9FF1DC0F3FF1E5087EC24F042
:100500000E6EF3CF1DF00EC00CF01DC00FF0E86AA8
:100510001DBEFF0E1B6E1C6E11500A0A02E1105028
:100520000AE00C500E6E0F501D6E0EC00CF01DC078
:100530000FF01B6A1C6A040E196EF40E0D6E800E0D
:100540001A6E1150D8B440D0105013E01150E56E1F
:10055000040EE56EF40EE56E1C50E56E1B50E56E64
:100560000F50E56E0C50E56EDCEC0EF0070EE12648
:1005700012D01150E56E040EE56EF40EE56E1C50BF
:10058000E56E1B50E56E0F50E56E0C50E56E3BECD2
:100590001AF0070EE12617502FE00DC0E9FF19C031
:1005A000F3FF1A50ECEC24F02D0A26E0FF0E0D2686
:1005B00019221A2218C0E5FF0DC0E9FF19C0F3FF88
:1005C0001A5085EC25F018D00CC0E5FF0DC0E9FFEE
:1005D00019C0F3FF1A5085EC25F00D50010F0C6E79
:1005E000000E19200E6E000E1A20E56A0CC0E9FFFD
:1005F0000EC0F3FF85EC25F00DC00CF019C00EF015
:100600001AC00FF013C010F0105010E00CC0E9FF3A
:100610000EC0F3FF0F50ECEC24F0176E175006E0FD
:100620000C2A02E30E4A0F2A1006EED710C013F070
:1006300014501EE109C00CF00AC00EF010C00FF0FB
:100640000F5010E01550E56E0250E56E0150E56E5A
:100650000050E56EA7EC15F0040EE1260C4A0E2AB8
:100660000F06EED70CC009F00EC00AF00FC013F051
:1006700016C00CF00DC00DF019C00EF01AC00FF02E
:1006800009C010F00AC015F00DC0E9FF0EC0F3FF5D
:100690000F50ECEC24F0166E1650D8B43ED00CC0BF
:1006A00016F0176A161E171E1650171005E00CC01C
:1006B00016F00C06165031E00DC0E9FF0EC0F3FF36
:1006C0000F50ECEC24F0116E125010E01150E56E5A
:1006D00044EC24F0166EE652165004E0DF0E1114BE
:1006E000166E02D011C016F016C011F01150E56E52
:1006F0000250E56E0150E56E0050E56EA7EC15F076
:10070000040EE1260D2A02E30E4A0F2A104A152A8A
:100710001350D8B4B9D71306B7D710C009F015C015
:100720000AF014502BE010C00CF015C00DF013C0EF
:100730000EF00E501FE0200EE56E0250E56E0150E7
:10074000E56E0050E56EA7EC15F0040EE1260C4AAC
:100750000D2A0E06EED70B50E56E0250E56E0150E5
:10076000E56E0050E56EA7EC15F0040EE126094A8F
:100770000A2A04D00CC009F00DC00AF0032A02E3D3
:10078000044A052A7FEF00F00AC0F3FF0950E4CFC6
:100790001EF0E4CF1DF0E4CF1CF0E4CF1BF0E4CF5B
:1007A0001AF0E4CF19F0E4CF18F0E4CF17F0E4CF5B
:1007B00016F0E4CF15F0E4CF14F0E4CF13F0E4CF5B
:1007C00012F0E4CF11F0E4CF10F0E4CF0FF0E4CF5B
:1007D0000EF0E4CF0DF0E4CF0CF0E4CF0BF0E4CF5B
:1007E0000AF0E4CF09F0E4CF08F0E4CF07F0E4CF5B
:1007F00006F0E4CF05F0E4CF04F0E4CF03F0E4CF5B
:1008000002F0E4CF01F0E4CF00F0E4CFD9FF120012
:100810003C4E4F20464C4F41543E000000C0E5FF87
:1008200001C0E5FF02C0E5FF03C0E5FF04C0E5FF2E
:1008300005C0E5FF06C0E5FF07C0E5FF08C0E5FF0E
:1008400009C0E5FF0AC0E5FF0BC0E5FF0CC0E5FFEE
:10085000006A016A026A040E025CD8B0E8D101C0E5
:1008600003F0012A100E035CD8B0E1D10A012F2B4E
:10087000100E2F5D01E32F6B0A012F39E8441F0B87
:10088000036E046A6B0E03260A0E042203C0E9FFFE
:1008900004C0EAFFEFCF03F0070E2F15046E010E20
:1008A000056E000E066E045006E0E86CD890053622
:1008B0000636010FFCE3076A0350051607500616BB
:1008C00005500610D880E866D890056A05360550B0
:1008D000D8A4C1D70A012F51020DF450046EF3CFF2
:1008E00003F0E00E0324056E000E0420066E05C022
:1008F000E9FF06C0EAFFEECF05F0EFCF06F00A01F0
:100900002CA19DD0930E0324076E040E0420086EC4
:1009100007C0E9FF08C0EAFFEECF07F0EFCF08F00D
:100920000650800FF36E0850800FF35C02E1075011
:10093000055C03E2056A066A60D0B30E0326040E66
:10094000042203C0E9FF04C0EAFFEECF03F0EFCFBB
:1009500004F00450800FF36E0650800FF35C02E148
:100960000550035C04E205683F0E066E46D0075052
:10097000055C096E085006580A6EE86A0ABEFF0E4A
:100980000B6EE56E0B50E56E0A50E56E0950E56E94
:10099000E56AE56A400EE56E000EE56AE9EC0BF0EB
:1009A000096EF3CF0AF0F4CF0BF0E9CF0CF0080E8C
:1009B000E1260750035C076E08500458086EE86A89
:1009C00008BEFF0E036EE56E0350E56E0850E56E3F
:1009D0000750E56E0C50E56E0B50E56E0A50E56E63
:1009E0000950E56EEDEC12F0036EF3CF04F0080E43
:1009F000E1260350056E0450066E0A012B51800F4C
:100A0000F36E0650800FF35C02E105502A5D03E3AC
:100A1000056A066A14D00A012A51FF08036E3F0EC8
:100A20002B55046E0650800FF36E0450800FF35C5C
:100A300002E10350055C03E305683F0E066E0A0100
:100A40002F51020DF450046EF3CF03F0590E03261C
:100A5000040E042203C0E9FF04C0EAFFEECF03F056
:100A6000EFCF04F00350055C036E04500658046E8B
:100A7000D88004AED89004E3041E036CD8B4042AD2
:100A8000022A0A012B51800FF36E0450800FF35C91
:100A900002E103502A5DD8B0DED60A012F51020DC3
:100AA000F450086EF3CF07F0590E0726040E082203
:100AB00007C0E9FF08C0EAFF05C0EEFF06C0EFFF70
:100AC0000A012CA55AD00A012F51020DF450086ECC
:100AD000F3CF07F0D30E0724096E040E08200A6E28
:100AE00009C0E9FF0AC0EAFFEECF0BF0EFCF0CF030
:100AF0000B500C10D8B441D0390E0726040E082232
:100B000007C0E9FF08C0EAFFEECF07F0EFCF08F01B
:100B10000750055C036E08500658046E03101CE075
:100B20000450800F800F02E1010E035C076A073654
:100B30000C50800F800F02E1010E0B5C0B6A0B362C
:100B400007500B1809E109C0E9FF0AC0EAFF03C01A
:100B5000EEFF04C0EFFF7FD60A012F51020DF450C3
:100B6000046EF3CF03F0D30E0326040E042203C059
:100B7000E9FF04C0EAFFEE6AEF6A0A012CA343D042
:100B800000500EE100C003F0002A046A300E032674
:100B90000A0E042203C0E9FF04C0EAFF420EEF6E12
:100BA00000C003F0002A046A300E03260A0E042255
:100BB000640E0A012F25076E03C0E9FF04C0EAFF97
:100BC00007C0EFFF00C003F0002A046A300E0326BE
:100BD0000A0E04220650076E03C0E9FF04C0EAFFB4
:100BE00007C0EFFF00C003F0002A046A300E03269E
:100BF0000A0E04220550076E03C0E9FF04C0EAFF95
:100C000007C0EFFF28D62FCA03F00650E56E055047
:100C1000E56EE56A0350E56E000EE56E2E0EE56E9C
:100C2000600EE56E79EC1EF0070EE12614D602C0C8
:100C300001F000501DE00A012CA31AD000C002F000
:100C4000002A036A300E02260A0E032202C0E9FFC0
:100C500003C0EAFF0A0EEF6E0050E56E800EE56EEF
:100C60000A0EE56E300EE56E36EC17F0040EE12646
:100C70000150E4CF0CF0E4CF0BF0E4CF0AF0E4CF66
:100C800009F0E4CF08F0E4CF07F0E4CF06F0E4CFBA
:100C900005F0E4CF04F0E4CF03F0E4CF02F0E4CFBA
:100CA00001F0E4CF00F0120000C0E5FF01C0E5FF55
:100CB00002C0E5FF03C0E5FF04C0E5FFCDEC25F071
:100CC00094926AEC21F0F3CF01F0F4CF02F0E9CF77
:100CD00003F0880F0401336F130E0120346F000EF0
:100CE0000220356F000E0320366F92988998939CEE
:100CF0008A9C939E8A9EB3EC16F09280800E006EC2
:100D00000F0E016E0F0E036E380E002603500122E7
:100D1000800E026E0F0E036E800E005E0350015AAD
:100D20000F0E046E380E0226045003220F0E046EBE
:100D3000800E025E0450035A02C0E9FF03C0EAFFBE
:100D4000EFCF02F0028000C0E9FF01C0EAFF02C05D
:100D5000EFFF000EE56AE56AD8EC19F0E652E652BC
:100D60009282800E006E0F0E016E0F0E036E380E13
:100D7000002603500122800E026E0F0E036E800EBD
:100D8000005E0350015A0F0E046E380E0226045006
:100D900003220F0E046E800E025E0450035A02C03E
:100DA000E9FF03C0EAFFEFCF02F0028200C0E9FFD3
:100DB00001C0EAFF02C0EFFF010EE56EE56ED8EC60
:100DC00019F0E652E6529284800E006E0F0E016E0C
:100DD0000F0E036E380E002603500122800E026EA5
:100DE0000F0E036E800E005E0350015A0F0E046E4C
:100DF000380E0226045003220F0E046E800E025E8F
:100E00000450035A02C0E9FF03C0EAFFEFCF02F02B
:100E1000028400C0E9FF01C0EAFF02C0EFFF020E3A
:100E2000E56EE56ED8EC19F0E652E6529484820E37
:100E3000006E0F0E016E0F0E036E380E002603506B
:100E400001220F0E036E800E005E0350015A820EC7
:100E5000026E0F0E036E0F0E046E380E0226045043
:100E600003220F0E046E800E025E0450035A02C06D
:100E7000E9FF03C0EAFFEFCF02F0028400C0E9FF00
:100E800001C0EAFF02C0EFFF0E0EE56E030EE56E35
:100E9000D8EC19F0E652E652948A820E006E0F0EDC
:100EA000016E0F0E036E380E0026035001220F0E46
:100EB000036E800E005E0350015A820E026E0F0E0A
:100EC000036E0F0E046E380E0226045003220F0E1E
:100ED000046E800E025E0450035A02C0E9FF03C094
:100EE000EAFFEFCF02F0028A00C0E9FF01C0EAFF8B
:100EF00002C0EFFF110EE56E040EE56ED8EC19F09E
:100F0000E652E6529384810E006E0F0E016E0F0EB4
:100F1000036E380E0026035001220F0E036E800E62
:100F2000005E0350015A810E026E0F0E036E0F0E0B
:100F3000046E380E0226045003220F0E046E800E3B
:100F4000025E0450035A02C0E9FF03C0EAFFEFCF7C
:100F500002F0028400C0E9FF01C0EAFF02C0EFFF17
:100F6000080EE56E050EE56ED8EC19F0E652E65275
:100F70009386810E006E0F0E016E0F0E036E380EFB
:100F80000026035001220F0E036E800E005E0350F8
:100F9000015A810E026E0F0E036E0F0E046E380E94
:100FA0000226045003220F0E046E800E025E0450CF
:100FB000035A02C0E9FF03C0EAFFEFCF02F0028646
:100FC00000C0E9FF01C0EAFF02C0EFFF090EE56EB5
:100FD000060EE56ED8EC19F0E652E6529380810ECB
:100FE000006E0F0E016E0F0E036E380E00260350BA
:100FF00001220F0E036E800E005E0350015A810E17
:10100000026E0F0E036E0F0E046E380E0226045091
:1010100003220F0E046E800E025E0450035A02C0BB
:10102000E9FF03C0EAFFEFCF02F0028000C0E9FF52
:1010300001C0EAFF02C0EFFF0C0EE56E070EE56E81
:10104000D8EC19F0E652E6529382810E006E0F0E34
:10105000016E0F0E036E380E0026035001220F0E94
:10106000036E800E005E0350015A810E026E0F0E59
:10107000036E0F0E046E380E0226045003220F0E6C
:10108000046E800E025E0450035A02C0E9FF03C0E2
:10109000EAFFEFCF02F0028200C0E9FF01C0EAFFE1
:1010A00002C0EFFF0A0EE56E080EE56ED8EC19F0EF
:1010B000E652E6526CEC1DF0270EE56EE56A080E6E
:1010C000E56E5CEC12F0030EE126E56A800EE56E3B
:1010D000040EE56E790EE56EA1EC1BF0040EE12620
:1010E000E4CF04F0E4CF03F0E4CF02F0E4CF01F06A
:1010F000E4CF00F0120043002563000000C0E5FFCC
:1011000001C0E5FF02C0E5FF03C0E5FF04C0E5FF45
:1011100005C0E5FF06C0E5FF07C0E5FF08C0E5FF25
:1011200009C0E5FF0AC0E5FFC2A204D00A012D51A3
:1011300091EF0AF00A012E51D8B41BD10A012D51AA
:10114000020DF450016EF3CF00F0E00E0026000E09
:10115000012200C0E9FF01C0EAFFEECF00F0EFCFAF
:1011600001F0230E2D25026E036A040E032202C035
:10117000E9FF03C0EAFFEFCF02F00250FF0A01E1EE
:1011800052D002380F0B036E920E0324046E056AD0
:101190000F0E0522066A920E03260F0E062203C0CA
:1011A000E9FF06C0EAFFEFCF03F0070E0214066E58
:1011B000010E076E065005E0E86CD8900736010F67
:1011C000FDE3071C066E031604C0E9FF05C0EAFF35
:1011D00003C0EFFF02380F0B036E890E0324046E69
:1011E000056A0F0E0522066A890E03260F0E0622D7
:1011F00003C0E9FF06C0EAFFEFCF03F0070E0214B9
:10120000066E010E076E065005E0E86CD8900736B2
:10121000010FFDE3071C066E031604C0E9FF05C0BD
:10122000EAFF03C0EFFF0A012D51020DF450046ED6
:10123000F3CF03F0E00E0326000E042200380F0B5C
:10124000056E0138066EF00B061A0526F00E06B67E
:1012500006260550005C056E06500158066EC3CF89
:1012600007F0086A0750052608500622C4CF07F089
:10127000086A07500A6E096A095005260A500622B4
:1012800003C0E9FF04C0EAFF05C0EEFF06C0EFFFA0
:101290000A012951010A01E06AD00A012D51020D0B
:1012A000F450046EF3CF03F0E00E0324056E000E3D
:1012B0000420066E05C0E9FF06C0EAFFEECF00F08D
:1012C000EFCF01F0930E0326040E042203C0E9FFC2
:1012D00004C0EAFFEECF05F0EFCF06F09C0E052626
:1012E000D8A006060150800FF36E0650800FF35C05
:1012F00002E10550005C0EE20050640F056E000E26
:101300000120066E03C0E9FF04C0EAFF05C0EEFF3E
:1013100006C0EFFF0A012D51020DF450046EF3CF09
:1013200003F0B30E0326040E042203C0E9FF04C039
:10133000EAFFEECF05F0EFCF06F0640E0526D8B039
:10134000062A0650800FF36E0150800FF35C02E115
:101350000050055C0CE29C0E0026D8A0010603C0DC
:10136000E9FF04C0EAFF00C0EEFF01C0EFFF0A0181
:101370002E6B0A012D2B100E2D5D01E32D6B0A0142
:101380002D39E8441F0B006E016A6B0E00260A0E11
:10139000012200C0E9FF01C0EAFFEFCF00F0070E15
:1013A0002D15016E010E036E000E046E015006E055
:1013B000E86CD89003360436010FFCE3056A005050
:1013C00003160550041603500410D880E866D89020
:1013D000036A03360350D8A4A2D0230E0A012D2598
:1013E000006E016A0F0E012200C0E9FF01C0EAFF92
:1013F000EFCF00F00044E844FC0B016E0128C26E00
:10140000230E2D25006E016A040E012200C0E9FFA3
:1014100001C0EAFFEFCF02F00250FF0A01E17BD0EA
:1014200002380F0B006E920E0024016E036A0F0E3D
:101430000322046A920E00260F0E042200C0E9FF68
:1014400004C0EAFFEFCF00F0070E0214046E010E95
:10145000056E045005E0E86CD8900536010FFDE3F9
:101460000550001201C0E9FF03C0EAFF00C0EFFF12
:10147000380E006E0F0E016E02380F0B036E046AF9
:101480000350002604500122380E056E0F0E066E22
:10149000055003260650042203C0E9FF04C0EAFFFA
:1014A000EFCF03F0070E0216010E046E025005E0A6
:1014B000E86CD8900436010FFDE30450031200C01D
:1014C000E9FF01C0EAFF03C0EFFF0F014583000001
:1014D000000045930F0144930BC0E5FFF2CF0BF0E2
:1014E000F29E4481000000000000000000000000A7
:1014F00000000000000000000000000000000000EC
:1015000000000000000000000000000044910BBE3D
:10151000F28EE4CF0BF0C282010E0A012E6F0A0197
:101520002D51E4CF0AF0E4CF09F0E4CF08F0E4CF86
:1015300007F0E4CF06F0E4CF05F0E4CF04F0E4CF09
:1015400003F0E4CF02F0E4CF01F0E4CF00F01200AA
:10155000800EE56E040EE56EB30EE56EF1EC1BF049
:10156000030EE126800EE56E040EE56E930EE56E29
:10157000F1EC1BF0030EE126800EE56E040EE56E25
:10158000B50EE56EF1EC1BF0030EE126800EE56E64
:10159000040EE56E950EE56EF1EC1BF0030EE126F0
:1015A000800EE56E040EE56EB70EE56EF1EC1BF0F5
:1015B000030EE126800EE56E040EE56E970EE56ED5
:1015C000F1EC1BF0030EE126800EE56E040EE56ED5
:1015D000B90EE56EF1EC1BF0030EE126800EE56E10
:1015E000040EE56E990EE56EF1EC1BF0030EE1269C
:1015F000800EE56E040EE56EBB0EE56EF1EC1BF0A1
:10160000030EE126800EE56E040EE56E9B0EE56E80
:10161000F1EC1BF0030EE126800EE56E040EE56E84
:10162000BD0EE56EF1EC1BF0030EE126800EE56EBB
:10163000040EE56E9D0EE56EF1EC1BF0030EE12647
:10164000800EE56E040EE56EBF0EE56EF1EC1BF04C
:10165000030EE126800EE56E040EE56E9F0EE56E2C
:10166000F1EC1BF0030EE126800EE56E040EE56E34
:10167000C10EE56EF1EC1BF0030EE126800EE56E67
:10168000040EE56EA10EE56EF1EC1BF0030EE126F3
:10169000800EE56E040EE56EC30EE56EF1EC1BF0F8
:1016A000030EE126800EE56E040EE56EA30EE56ED8
:1016B000F1EC1BF0030EE126800EE56E040EE56EE4
:1016C000C50EE56EF1EC1BF0030EE126800EE56E13
:1016D000040EE56EA50EE56EF1EC1BF0030EE1269F
:1016E000800EE56E040EE56EC70EE56EF1EC1BF0A4
:1016F000030EE126800EE56E040EE56EA70EE56E84
:10170000F1EC1BF0030EE126800EE56E040EE56E93
:10171000C90EE56EF1EC1BF0030EE126800EE56EBE
:10172000040EE56EA90EE56EF1EC1BF0030EE1264A
:10173000800EE56E040EE56ECB0EE56EF1EC1BF04F
:10174000030EE126800EE56E040EE56EAB0EE56E2F
:10175000F1EC1BF0030EE126800EE56E040EE56E43
:10176000CD0EE56EF1EC1BF0030EE126800EE56E6A
:10177000040EE56EAD0EE56EF1EC1BF0030EE126F6
:10178000800EE56E040EE56ECF0EE56EF1EC1BF0FB
:10179000030EE126800EE56E040EE56EAF0EE56EDB
:1017A000F1EC1BF0030EE126800EE56E040EE56EF3
:1017B000D10EE56EF1EC1BF0030EE126800EE56E16
:1017C000040EE56EB10EE56EF1EC1BF0030EE126A2
:1017D0001200D9CFE5FFE1CFD9FF00C0E5FF01C07E
:1017E000E5FF02C0E5FF03C0E5FF04C0E5FF05C05B
:1017F000E5FF06C0E5FF07C0E5FF020EDBCF00F006
:10180000030EDBCF01F0040EDBCF02F0050EDBCFC1
:1018100003F0060EDBCF04F0070EDBCF05F0080E59
:10182000DBCF06F0090EDBCF07F000500401856F17
:101830000150866F0250876F0350886F0450040177
:101840008A6F05508B6F06508C6F07508D6F0401A7
:10185000855104018C03F4CF01F0F3CF00F0005068
:101860000401906F0150916F0401855104018A03B6
:10187000F4CF01F0F3CF00F0005004018E6F01505F
:101880008F6F0401885104018A03F3CF00F0040133
:10189000915100260050916F0401875104018B0380
:1018A000F3CF01F00150002600500401916F0401B4
:1018B000875104018A03F4CF01F0F3CF00F0040153
:1018C00090510026915101220050906F0150916F6C
:1018D0000401865104018B03F4CF03F0F3CF02F02F
:1018E000025000260350012200500401906F015065
:1018F000916F0401865104018C03F3CF00F0005076
:101900000A015B6F0401865104018A03F4CF01F0E0
:10191000F3CF00F000500A01596F01505A6F0401D3
:10192000855104018D03F3CF00F000500A015F6F71
:101930000401855104018B03F4CF01F0F3CF00F0D3
:1019400000500A015D6F01505E6F0A01586B0A0179
:101950005C6B0A01585104018E25006E0A01595131
:1019600004018F21016E0A015A5104019021026E77
:101970000A015B5104019121036E00508E6F0150EA
:101980008F6F0250906F0350916F0A015C510401F8
:101990008E25006E0A015D5104018F21016E0A013E
:1019A0005E5104019021026E0A015F5104019121F0
:1019B000036E03C0E9FF02C0F4FF01C0F3FF005053
:1019C000E4CF07F0E4CF06F0E4CF05F0E4CF04F075
:1019D000E4CF03F0E4CF02F0E4CF01F0E4CF00F075
:1019E000E4CFD9FF120000C0E5FF01C0E5FF0A0106
:1019F0002651D8B4F5D09DA81DD09EA81BD00A01B1
:101A00007A510A01771905E13BEC25F00A01776B61
:101A1000E7D0000E0A017A25006E016A040E012249
:101A200000C0E9FF01C0EAFFEFCF73FA7A2B73CA57
:101A3000ADFFD6D09EAAD4D0ABA205D00A01788142
:101A40003BEC25F0CDD0ABA405D00A0178833BEC6C
:101A500025F0C6D0ABA03ED0AECF73FA800E0A01FF
:101A600027110A01731904E10A017889AB96B8D0ED
:101A70000A01735104E073510A01271927E10A0191
:101A80007899AB960A01735103E00A01789702D066
:101A90000A01788773CA7CFA75CA7DFA0A0175054E
:101AA0000A017E6F600E0A017D25006E016A000E3C
:101AB000012200C0E9FF01C0EAFF73CAEFFF7D2BDE
:101AC0007D51800A02E10A017D6B8AD00A01789972
:101AD000AB8686D0AECF73FA0A0178A919D0800EF2
:101AE0000A0127110A01731911E18B909D9AAB9895
:101AF0000A01775104E1AD6A3BEC25F007D000C440
:101B0000ADFF010E0A017A6F9D886AD0AB8668D05E
:101B10000A0173510A017C270A017D510A017E19CD
:101B20001BE10A017C510CE17DCA75FA0A0178B704
:101B300012D08B909D9AAB98AD6A3BEC25F00BD000
:101B40000A01788578B707D08B909D9AAB98010EE3
:101B5000AD6E3BEC25F044D00A017D510A017619A7
:101B600008E10A0176510A01751903E03BEC25F002
:101B700037D075CA00F0016A004A012AE56A800E72
:101B8000E56E0150E56E0050E56E97EC18F0006EC2
:101B9000040EE12600500A01746F0A017D190CE160
:101BA0001F0E0A0173150A017E6F7E2B7E2B0A0120
:101BB00075510A017E277E9F7DCA00F00A017D2BA8
:101BC000016A600E0026000E012200C0E9FF01C07C
:101BD000EAFF73CAEFFF7D51800A02E10A017D6BC3
:101BE000E4CF01F0E4CF00F0120000C0E5FF01C037
:101BF000E5FF02C0E5FF03C0E5FF04C0E5FF05C047
:101C0000E5FF06C0E5FF07C0E5FF08C0E5FF09C026
:101C1000E5FF0AC0E5FF006A016A040E015CD8B066
:101C2000B3D03F0E0A013D25026E036A0A0E03225D
:101C300002C0E9FF03C0EAFFEFCF02F00250FF0A43
:101C400001E19BD00A013D39E8441F0B026E6F0E83
:101C50000224036E046A0A0E042203C0E9FF04C0D2
:101C6000EAFFEFCF03F0070E3D15046E010E056E7F
:101C7000000E066E045006E0E86CD8900536063675
:101C8000010FFCE3076A05500316065007160350C0
:101C90000710D880E866D890036A03360350D880CE
:101CA000E866D890036A0336076A6D0E02260A0EAC
:101CB000072202C0E9FF07C0EAFFEFCF08F008C023
:101CC00009F00A6A095005160A5006160550061052
:101CD000D880E866D890056A05360550D880E86651
:101CE000D890056A05360350051801E146D0035027
:101CF00012E0010E056E045005E0E86CD890053640
:101D0000010FFDE30550081202C0E9FF07C0EAFF1A
:101D100008C0EFFF17D002C0E9FF07C0EAFFEFCF0E
:101D200005F0010E066E045005E0E86CD89006360A
:101D3000010FFDE3061C051602C0E9FF07C0EAFF1C
:101D400005C0EFFF035003E1036A032A01D0036AD1
:101D50003DCA04F0E56A0350E56EE56A0450E56E9D
:101D6000000EE56E3B0EE56E5A0EE56E79EC1EF048
:101D7000070EE126012A01C000F00A013D2B100EDA
:101D80003D5DD8A04AD73D6B0050E4CF0AF0E4CFC8
:101D900009F0E4CF08F0E4CF07F0E4CF06F0E4CF99
:101DA00005F0E4CF04F0E4CF03F0E4CF02F0E4CF99
:101DB00001F0E4CF00F01200D9CFE5FFE1CFD9FF69
:101DC00000C0E5FF01C0E5FF02C0E5FF03C0E5FF7D
:101DD00004C0E5FF05C0E5FF06C0E5FF07C0E5FF5D
:101DE00008C0E5FF09C0E5FF0AC0E5FF0BC0E5FF3D
:101DF0000CC0E5FF0DC0E5FF0EC0E5FF0FC0E5FF1D
:101E0000020EDBCF00F0030EDBCF01F0040EDBCFC0
:101E100002F0050EDBCF03F0060EDBCF04F0070E59
:101E2000DBCF05F0080EDBCF06F0200E076E086A48
:101E300006C009F00A6A0B6A0C6AE56AE56AE56A97
:101E40000950E56E0350E56E0250E56E0150E56EF7
:101E50000050E56E27EC11F00D6E080EE126300EF5
:101E60000D263A0E0D5C05E30D500E6E270E0E2466
:101E70000D6EFF0E07260822000E07240E6E0A0EB6
:101E800008200F6E0EC0E9FF0FC0EAFF0DC0EFFF84
:101E90000C50E56E0B50E56E0A50E56E0950E56E8C
:101EA0000350E56E0250E56E0150E56E0050E56EA0
:101EB000EDEC12F0006EF3CF01F0F4CF02F0E9CFB9
:101EC00003F0080EE1260050011002100310D8A400
:101ED000AFD707C000F008C001F004C002F005C091
:101EE00003F000C004F001C005F0004A012A000E12
:101EF00004260A0E052204C0E9FF05C0EAFFEFCF61
:101F000004F002C0E9FF03C0EAFF04C0EFFF024A89
:101F1000032A000E015C02E1200E005CE2E302C035
:101F2000E9FF03C0EAFF000EEF6AE4CF0FF0E4CF51
:101F30000EF0E4CF0DF0E4CF0CF0E4CF0BF0E4CFE3
:101F40000AF0E4CF09F0E4CF08F0E4CF07F0E4CFE3
:101F500006F0E4CF05F0E4CF04F0E4CF03F0E4CFE3
:101F600002F0E4CF01F0E4CF00F0E4CFD9FF12009B
:101F7000D9CFE5FFE1CFD9FF00C0E5FF01C0E5FF04
:101F800002C0E5FF03C0E5FF04C0E5FF05C0E5FFB3
:101F900006C0E5FF020EDBCF00F0030EDBCF01F041
:101FA000040EDBCF02F000C0E9FF01C0F3FF0250D6
:101FB000ECEC24F0036EE56AE56E83EC20F0E6526B
:101FC000E652320EE56EFDEC23F0E6525CEC22F0B8
:101FD000010EE56E0350E56E83EC20F0E652E6520A
:101FE0000050010F036E000E0120046E000E02204F
:101FF000056E3FEC21F0066E06C0E5FF03C0E9FF69
:1020000004C0F3FF055085EC25F0BEEC21F0005034
:10201000020F036E000E0120046E000E0220056EFA
:102020003FEC21F0066E06C0E5FF03C0E9FF04C0E7
:10203000F3FF055085EC25F0BEEC21F00050030FB6
:10204000036E000E0120046E000E0220056E3FECB0
:1020500021F0066E06C0E5FF03C0E9FF04C0F3FFF0
:10206000055085EC25F0BEEC21F00050040F036E06
:10207000000E0120046E000E0220056E3FEC21F0E0
:10208000066E06C0E5FF03C0E9FF04C0F3FF05507C
:1020900085EC25F0BEEC21F00050050F036E000E1C
:1020A0000120046E000E0220056E3FEC21F0066E4A
:1020B00006C0E5FF03C0E9FF04C0F3FF055085EC4F
:1020C00025F0BEEC21F0060E0026000E01220222B1
:1020D0003FEC21F0036E03C0E5FF00C0E9FF01C043
:1020E000F3FF025085EC25F05CEC22F0E4CF06F023
:1020F000E4CF05F0E4CF04F0E4CF03F0E4CF02F046
:10210000E4CF01F0E4CF00F0E4CFD9FF120000C02B
:10211000E5FF01C0E5FF02C0E5FF03C0E5FF04C025
:10212000E5FF05C0E5FF006A3F0E0024016E026A6C
:102130000A0E022201C0E9FF02C0EAFFEFCF01F060
:102140000150FF0A01E171D001380F0B026E036AE2
:10215000800E02260F0E032202C0E9FF03C0EAFF31
:10216000EFCF02F0070E0116010E036E000E046E93
:10217000015006E0E86CD89003360436010FFCE30A
:10218000056A025003160550041603500410D88047
:10219000E866D890036A0336035024E10038E84427
:1021A0001F0B016E026A6F0E01260A0E022201C089
:1021B000E9FF02C0EAFFEFCF03F0070E0014046E40
:1021C000010E056E045005E0E86CD8900536010F4D
:1021D000FDE30550031201C0E9FF02C0EAFF03C09E
:1021E000EFFF23D00038E8441F0B016E026A6F0E28
:1021F00001260A0E022201C0E9FF02C0EAFFEFCF6A
:1022000003F0070E0014046E010E056E045005E085
:10221000E86CD8900536010FFDE3051C031601C0DC
:10222000E9FF02C0EAFF03C0EFFF002A100E005CC6
:10223000D8A07AD7E4CF05F0E4CF04F0E4CF03F0E0
:10224000E4CF02F0E4CF01F0E4CF00F01200D9CFE8
:10225000E5FFE1CFD9FF00C0E5FF01C0E5FF02C007
:10226000E5FF03C0E5FF04C0E5FF05C0E5FF06C0CC
:10227000E5FF07C0E5FF08C0E5FF09C0E5FF0AC0AC
:10228000E5FF020EDBCF00F0030EDBCF01F0040E02
:10229000DBCF02F0050EDBCF03F0060EDBCF04F040
:1022A000070EDBCF05F0080EDBCF06F0090EDBCF03
:1022B00007F0086A045005100610071005E1E968E8
:1022C000F468F368E86847D0096A0750800BE8446F
:1022D0000A6E0A501BE104500426053606360736FE
:1022E0000750035C08E10650025C05E10550015C03
:1022F00002E10450005C06E2D89007320632053253
:10230000043204D0092A09C008F0DFD70750035C63
:1023100008E10650025C05E10550015C02E1045051
:10232000005C08E30450005E0550015A0650025A52
:102330000750035AD890073206320532043208C0DB
:1023400009F008060950E2E103C0E9FF02C0F4FF0A
:1023500001C0F3FF0050E4CF0AF0E4CF09F0E4CF6E
:1023600008F0E4CF07F0E4CF06F0E4CF05F0E4CFC7
:1023700004F0E4CF03F0E4CF02F0E4CF01F0E4CFC7
:1023800000F0E4CFD9FF1200D9CFE5FFE1CFD9FFAC
:1023900000C0E5FF01C0E5FF02C0E5FF03C0E5FFA7
:1023A00004C0E5FF020EDBCF00F0030EDBCF01F02F
:1023B000040EDBCF02F0050EDBCF03F0420E0A0164
:1023C0004F6F0350506F0050010F036E000E01203D
:1023D000046E000E022003C0E9FF04C0F3FFECEC22
:1023E00024F00A01516F0050020F036E000E01200D
:1023F000046E000E022003C0E9FF04C0F3FFECEC02
:1024000024F00A01526F0050030F036E000E0120EA
:10241000046E000E022003C0E9FF04C0F3FFECECE1
:1024200024F00A01536F0050040F036E000E0120C8
:10243000046E000E022003C0E9FF04C0F3FFECECC1
:1024400024F00A01546F0050050F036E000E0120A6
:10245000046E000E022003C0E9FF04C0F3FFECECA1
:1024600024F00A01556F060E0026000E01220222FA
:1024700000C0E9FF01C0F3FF0250ECEC24F00A01B8
:10248000566F0A0E576F090EE56E800EE56E0A0E46
:10249000E56E4F0EE56E36EC17F0040EE126E4CF44
:1024A00004F0E4CF03F0E4CF02F0E4CF01F0E4CF96
:1024B00000F0E4CFD9FF1200D9CFE5FFE1CFD9FF7B
:1024C00000C0E5FF01C0E5FF02C0E5FF03C0E5FF76
:1024D00004C0E5FF05C0E5FF020EDBCF00F0030EF0
:1024E000DBCF01F0040EDBCF02F03F0EC716C66A49
:1024F000C56A0050C6120150C7129488820E006E41
:102500000F0E016E0F0E046E380E002604500122CD
:102510000F0E046E800E005E0450015A820E036E90
:102520000F0E046E0F0E056E380E032605500422A2
:102530000F0E056E800E035E0550045A03C0E9FFBE
:1025400004C0EAFFEFCF03F0039800C0E9FF01C029
:10255000EAFF03C0EFFF9486820E006E0F0E016E3D
:102560000F0E046E380E0026045001220F0E046E6A
:10257000800E005E0450015A820E036E0F0E046E30
:102580000F0E056E380E0326055004220F0E056E41
:10259000800E035E0550045A03C0E9FF04C0EAFF41
:1025A000EFCF03F0039600C0E9FF01C0EAFF03C0CC
:1025B000EFFF02C0C8FFC68A9E96A196E4CF05F041
:1025C000E4CF04F0E4CF03F0E4CF02F0E4CF01F075
:1025D000E4CF00F0E4CFD9FF1200D9CFE5FFE1CF7F
:1025E000D9FF00C0E5FF01C0E5FF02C0E5FF03C061
:1025F000E5FF04C0E5FF05C0E5FF06C0E5FF07C035
:10260000E5FF08C0E5FF09C0E5FF0AC0E5FF0BC014
:10261000E5FF0CC0E5FF0DC0E5FF020EDBCF00F0CB
:10262000030EDBCF01F0040EDBCF02F0050EDBCF93
:1026300003F0060EDBCF04F0070EDBCF05F0080E2B
:10264000DBCF06F0090EDBCF07F0086A096A0A6AD9
:102650000B6A200E0C6E0350800BE8440D6E005088
:1026600000260136023603360850082609360A3697
:102670000B360D50D8A4088007500B5C08E10650BB
:102680000A5C05E10550095C02E10450085C09E3BD
:102690000450085E0550095A06500A5A07500B5A52
:1026A00000800C040D6E0DC00CF00D50D4E103C081
:1026B000E9FF02C0F4FF01C0F3FF0050E4CF0DF0CA
:1026C000E4CF0CF0E4CF0BF0E4CF0AF0E4CF09F054
:1026D000E4CF08F0E4CF07F0E4CF06F0E4CF05F054
:1026E000E4CF04F0E4CF03F0E4CF02F0E4CF01F054
:1026F000E4CF00F0E4CFD9FF120000C0E5FF01C035
:10270000E5FF03C0E5FF04C0E5FF05C0E5FF06C027
:10271000E5FF07C0E5FF08C0E5FF09C0E5FF0AC007
:10272000E5FF0BC0E5FF69CA00F06ACA01F00A01C3
:10273000693F01D06A2B0050E56E2DEC25F0E65282
:10274000076E046A056A066A69CA00F06ACA01F07F
:102750000A01693F01D06A2B0050E56E2DEC25F08F
:10276000E6520B6A0A6E086A0850041205120A50F3
:1027700006120B50071269CA00F06ACA01F00A017A
:10278000693F01D06A2B0050E56E2DEC25F0E65232
:10279000036E006A03C001F0E86A03BEFF0E086E14
:1027A000096E00500412015005120850061209501B
:1027B000071269CA00F06ACA01F00A01693F01D034
:1027C0006A2B0050E56E2DEC25F0E652016A0412EA
:1027D000015005120612071207C0E9FF06C0F4FFF8
:1027E00005C0F3FF0450E4CF0BF0E4CF0AF0E4CFD0
:1027F00009F0E4CF08F0E4CF07F0E4CF06F0E4CF2F
:1028000005F0E4CF04F0E4CF03F0E4CF01F0E4CF2F
:1028100000F0120000C0E5FF01C0E5FF02C0E5FFC7
:1028200003C0E5FF04C0E5FF0A0176510A017519EE
:1028300001E15CD076CA00F0002A009E600E002400
:10284000016E026A000E022201C0E9FF02C0EAFF27
:10285000EFCF80FA1F0E0A01801776CA7FFA8051E7
:102860000A017F277F2B7F2B7F9F94EC21F0016E45
:10287000015003E1016A012A01D0016A94EC21F0C0
:102880000A01806F800E8015026E1F0E8015036E88
:1028900003C004F003C080FA045003E175CA76FA5D
:1028A00038D001501BE002501FE094EC21F0006E84
:1028B0000A0180070050420A17E000504E0A03E167
:1028C000F7EC1DF011D00050460A03E16FEC25F043
:1028D0000BD00050490A08E1FF0006D076CA81FA01
:1028E0000250D8A430EC16F07FCA76FA0A012351C0
:1028F0000A01241906E00A01775103E11EEC15F0E4
:1029000008D08BB006D00A01775103E1ACB23BECA2
:1029100025F0E4CF04F0E4CF03F0E4CF02F0E4CFFD
:1029200001F0E4CF00F01200D9CFE5FFE1CFD9FFED
:1029300000C0E5FF01C0E5FF02C0E5FF03C0E5FF01
:1029400004C0E5FF05C0E5FF06C0E5FF07C0E5FFE1
:1029500008C0E5FF09C0E5FF0AC0E5FF020EDBCFB6
:1029600000F0030EDBCF01F0040EDBCF02F0050E0A
:10297000DBCF03F0060EDBCF04F0070EDBCF05F054
:102980000038E8441F0B066E076A6B0E06260A0E17
:10299000072206C0E9FF07C0EAFFEFCF08F0070EE5
:1029A0000014096E010E0A6E095005E0E86CD8901B
:1029B0000A36010FFDE30A50081206C0E9FF07C0FE
:1029C000EAFF08C0EFFF230E0024066E076A0F0E11
:1029D000072206C0E9FF07C0EAFF01C0EFFF016A56
:1029E000230E0026040E0122800E025E070E021640
:1029F0000238F00B036E070E05160550032600C0C3
:102A0000E9FF01C0EAFF03C0EFFFE4CF0AF0E4CF23
:102A100009F0E4CF08F0E4CF07F0E4CF06F0E4CF0C
:102A200005F0E4CF04F0E4CF03F0E4CF02F0E4CF0C
:102A300001F0E4CF00F0E4CFD9FF120000C0E5FFC1
:102A400001C0E5FF02C0E5FF03C0E5FFACA276D000
:102A500039EC23F0006E005005E10A01246B0A01F5
:102A6000236B6CD024CA01F00050012639EC23F00E
:102A7000026E00060250230A1FE1010E005CD8A07E
:102A80005BD039EC23F0026E690A03E1B4EC20F06C
:102A900053D00250720A03E13BEC25F04DD00250B6
:102AA000730A01E049D08B80AB869D8A9D98AE5019
:102AB000AE50AB98AB8840D00250430A05E00250BC
:102AC000420A01E039D001D0008E00C079FA0050EE
:102AD0000401006F010E0A017A6F0A0124510118E6
:102AE00014E039EC23F0026E0A017927000E0A0186
:102AF0007A25006E036A040E032200C0E9FF03C0BA
:102B0000EAFF02C0EFFF7A2BE8D7000E0A017A2510
:102B1000006E026A040E02220A01791D036E032A66
:102B200000C0E9FF02C0EAFF03C0EFFF0A017A2BF1
:102B30007ACA77FA0A01716B01C024FAE4CF03F074
:102B4000E4CF02F0E4CF01F0E4CF00F01200D9CFDF
:102B5000E5FFE1CFD9FF00C0E5FF01C0E5FF02C0FE
:102B6000E5FF03C0E5FF04C0E5FF05C0E5FF06C0C3
:102B7000E5FF07C0E5FF020EDBCF00F0030EDBCF61
:102B800001F0040EDBCF02F0050EDBCF03F002C034
:102B900006F00650046E800A33E100C0E9FF01C070
:102BA000F3FF0250B0EC23F0056EF3CF06F0F4CF44
:102BB00007F003C0E5FF05C0E9FF06C0F3FF0750BB
:102BC00085EC25F000C0E9FF01C0F3FF0250B0EC36
:102BD00023F0056EF3CF06F0F4CF07F0052A02E3E9
:102BE000064A072A05C0E5FF06C0F4FF07C0F6FF46
:102BF00000C0E9FF01C0F3FF02501EEC25F01DD01C
:102C000004AA1BD0047A045004E10350D2EC25F04E
:102C100014D00450010A04E10350E5EC25F00DD076
:102C200004500F0A04E1035052EC20F006D0045087
:102C30000E0A03E10350E2EC25F0E4CF07F0E4CF05
:102C400006F0E4CF05F0E4CF04F0E4CF03F0E4CFE6
:102C500002F0E4CF01F0E4CF00F0E4CFD9FF12009E
:102C600000C0E5FF01C0E5FF02C0E5FF94EC21F0E4
:102C7000006E4C0A08E194EC21F0300A02E08B82ED
:102C80006BD08B9269D000506C0A25E194EC21F056
:102C9000006E94EC21F0016E0050300A07E1015003
:102CA000300A02E0898858D0899856D00050310AFD
:102CB00007E10150300A02E08A8C4ED08A9C4CD049
:102CC0000050320A01E048D00150300A02E08A8EFA
:102CD00043D08A9E41D00050450A27E1000EE56EA0
:102CE000100EE56EF60EE56E79EC1EF0030EE12691
:102CF000DCEC25F0006E00C001F001C002F001061E
:102D000002500FE094EC21F0E56AE56E000EE56EEE
:102D1000100EE56EF80EE56E79EC1EF0050EE1265C
:102D2000ECD70A0E52EC20F017D00050520A14E1F2
:102D3000270EE56EE56A080EE56E5CEC12F0030EF8
:102D4000E126E56A800EE56E040EE56E790EE56E0D
:102D5000A1EC1BF0040EE126E4CF02F0E4CF01F079
:102D6000E4CF00F0120000C0E5FF01C0E5FF02C0A3
:102D7000E5FF03C0E5FF04C0E5FF006A6B0E002419
:102D8000016E026A0A0E022201C0E9FF02C0EAFFD8
:102D9000EF6A002A020E005CF1E3006A0050020DA7
:102DA000F450026EF3CF01F0E00E0124036E000E2A
:102DB0000220046E03C0E9FF04C0EAFFEE6AEF6A76
:102DC000390E0124036E040E0220046E03C0E9FFD5
:102DD00004C0EAFFEE6AEF6A590E0124036E040E86
:102DE0000220046E03C0E9FF04C0EAFFEE6AEF6A46
:102DF000930E0124036E040E0220046E03C0E9FF4B
:102E000004C0EAFFEE6AEF6AB30E0126040E022246
:102E100001C0E9FF02C0EAFFEE687F0EEF6E230EED
:102E20000024016E026A040E022201C0E9FF02C002
:102E3000EAFFEF68002A100E005CD8A0AFD7AF0EF3
:102E4000C06EC16A010EC26EC282E4CF04F0E4CF4C
:102E500003F0E4CF02F0E4CF01F0E4CF00F0120081
:102E60004320412025642025640A0000D9CFE5FFD6
:102E7000E1CFD9FF00C0E5FF01C0E5FF02C0E5FFDB
:102E800003C0E5FF04C0E5FF05C0E5FF06C0E5FFA0
:102E900007C0E5FF020EDBCF00F0030EDBCF01F031
:102EA000040EDBCF02F0050EDBCF03F024CA25FAB7
:102EB0000A0123510A01255F250703C004F0056AB2
:102EC000030E0426D8B0052A25CA06F0076A075063
:102ED000800FF36E0550800FF35C02E10450065C36
:102EE00002E2E8682BD0020E035C02E2E86A26D018
:102EF00003060350E56E35EC1FF0E652046A0350FA
:102F0000045C14E204500024056EE86A0120066E99
:102F1000E86A022005C0E9FF06C0F3FFECEC24F0EC
:102F2000042AE56E35EC1FF0E652E9D724CA25FAEB
:102F30000A0123510A01255F2507E86AE4CF07F05B
:102F4000E4CF06F0E4CF05F0E4CF04F0E4CF03F0E3
:102F5000E4CF02F0E4CF01F0E4CF00F0E4CFD9FFFA
:102F60001200D9CFE5FFE1CFD9FF00C0E5FF01C0D6
:102F7000E5FF02C0E5FF03C0E5FF04C0E5FF05C0B3
:102F8000E5FF020EDBCF00F0030EDBCF01F0040EF5
:102F9000DBCF02F00050020DF450036EF3CF00F0CF
:102FA000390E0024046E040E0320056E04C0E9FFF0
:102FB00005C0EAFF01C0EEFF02C0EFFF590E00247A
:102FC000046E040E0320056E04C0E9FF05C0EAFF8D
:102FD000EECF04F0EFCF05F00150045C016E02501B
:102FE0000558026ED30E0026040E032200C0E9FF2E
:102FF00003C0EAFF01C0EEFF02C0EFFFD88002AEBF
:10300000D89004E3021E016CD8B4022A0250800F4B
:10301000800F02E1030E015C02E2016A026A0150C4
:10302000021007E100C0E9FF03C0EAFF000EEE6AEC
:10303000EF6AE4CF05F0E4CF04F0E4CF03F0E4CF8F
:1030400002F0E4CF01F0E4CF00F0E4CFD9FF1200AA
:1030500000C0E5FF01C0E5FF02C0E5FF03C0E5FFDA
:103060000AEC14F07EEC08F087EC10F00AEC14F097
:103070006AEC21F0006EF3CF01F0F4CF02F0E9CF5B
:1030800003F004013351005E3451015A3551025AA4
:103090003651035A039E3F0E035C08E1FF0E025CAB
:1030A00005E1FF0E015C02E1FF0E005C37E26AEC15
:1030B00021F0F3CF01F0F4CF02F0E9CF03F0880F55
:1030C0000401336F130E0120346F000E0220356FA0
:1030D000000E0320366F0A0120A10DD0010EE56E0F
:1030E000800EE56E040EE56E790EE56EC4EC11F00F
:1030F000040EE12607D0F5EC0DF0006E0050D8B4B8
:103100000EEC04F00A01202B800EE56E040EE56E35
:10311000790EE56EB8EC0FF0030EE126E4CF03F074
:10312000E4CF02F0E4CF01F0E4CF00F01200D9CFF9
:10313000E5FFE1CFD9FF00C0E5FF01C0E5FF02C018
:10314000E5FF03C0E5FF04C0E5FF05C0E5FF06C0DD
:10315000E5FF020EDBCF00F0030EDBCF01F0040E23
:10316000DBCF02F0050EDBCF03F0D88001AED890A4
:10317000046A0436045007E0011C066E001C056E4C
:10318000054A062A04D000C005F001C006F0D88028
:1031900003AED89007E3031C016E021C006E004AC8
:1031A000012A04D002C000F003C001F00150E56E16
:1031B0000050E56E0650E56E0550E56E9EEC1AF087
:1031C000006EF3CF01F0040EE12604500AE0011C6A
:1031D000036E001C026E024A032A03C0F3FF025072
:1031E00003D001C0F3FF0050E4CF06F0E4CF05F0B8
:1031F000E4CF04F0E4CF03F0E4CF02F0E4CF01F039
:10320000E4CF00F0E4CFD9FF1200D9CFE5FFE1CF42
:10321000D9FF00C0E5FF01C0E5FF02C0E5FF03C024
:10322000E5FF04C0E5FF05C0E5FF020EDBCF00F0BF
:10323000030EDBCF01F0040EDBCF02F0050EDBCF77
:1032400003F069CA04F06ACA05F00A01693F01D0B7
:103250006A2B0350E56E0450E56EF5EC22F0E65261
:10326000E65269CA04F06ACA05F00A01693F01D052
:103270006A2B0250056EE56E0450E56EF5EC22F007
:10328000E652E65269CA04F06ACA05F00A01693FCB
:1032900001D06A2B0150056EE56E0450E56EF5EC29
:1032A00022F0E652E65269CA04F06ACA05F00A0141
:1032B000693F01D06A2B0050E56E0450E56EF5ECD5
:1032C00022F0E652E652E4CF05F0E4CF04F0E4CF7A
:1032D00003F0E4CF02F0E4CF01F0E4CF00F0E4CF5C
:1032E000D9FF1200D9CFE5FFE1CFD9FF00C0E5FF3C
:1032F00001C0E5FF02C0E5FF03C0E5FF04C0E5FF34
:1033000005C0E5FF06C0E5FF020EDBCF00F0030EAF
:10331000DBCF01F0040EDBCF02F00401375119E1DD
:103320007DEC13F0036EF3CF04F0F4CF05F0E9CF9A
:1033300006F003C0E5FF04C0F4FF05C0F6FF06C0B9
:10334000F7FF00C0E9FF01C0F3FF0250FDEC24F0DD
:103350001ED004013751010A1AE100C0E9FF01C083
:10336000F3FF025019EC23F0006EF3CF01F0F4CF1D
:1033700002F0E9CF03F00350E56E0250E56E015014
:10338000E56E0050E56E05EC19F0040EE126E4CF81
:1033900006F0E4CF05F0E4CF04F0E4CF03F0E4CF8F
:1033A00002F0E4CF01F0E4CF00F0E4CFD9FF120047
:1033B000D9CFE5FFE1CFD9FF00C0E5FF01C0E5FFB0
:1033C00002C0E5FF03C0E5FF04C0E5FF05C0E5FF5F
:1033D00006C0E5FF020EDBCF00F0030EDBCF01F0ED
:1033E0000038E8441F0B026E036A6B0E02260A0EB9
:1033F000032202C0E9FF03C0EAFFEFCF04F0070E8B
:103400000014056E010E066E055005E0E86CD890BC
:103410000636010FFDE30650041202C0E9FF03C0A7
:10342000EAFF04C0EFFF230E0024026E036A0F0EB2
:10343000032202C0E9FF03C0EAFF01C0EFFF016AF7
:10344000230E0026040E012200C0E9FF01C0EAFF9E
:10345000FF0EEF68E4CF06F0E4CF05F0E4CF04F010
:10346000E4CF03F0E4CF02F0E4CF01F0E4CF00F0CA
:10347000E4CFD9FF1200D9CFE5FFE1CFD9FF00C0DB
:10348000E5FF01C0E5FF02C0E5FF03C0E5FF04C0A2
:10349000E5FF05C0E5FF06C0E5FF020EDBCF00F04B
:1034A000030EDBCF01F0040EDBCF02F0050EDBCF05
:1034B00003F0060EDBCF04F0070EDBCF05F0080E9D
:1034C000DBCF06F0D88003AED89015E306500A0A89
:1034D00012E104C0E9FF05C0EAFF2D0EEF6E044AB9
:1034E000052A031E021E011E006C05E1012A03E1EC
:1034F000022AD8B4032A0650E56E0550E56E045042
:10350000E56E0350E56E0250E56E0150E56E005029
:10351000E56EDCEC0EF0070EE126E4CF06F0E4CF1A
:1035200005F0E4CF04F0E4CF03F0E4CF02F0E4CF01
:1035300001F0E4CF00F0E4CFD9FF1200D9CFE5FFCE
:10354000E1CFD9FF00C0E5FF01C0E5FF02C0E5FF04
:1035500003C0E5FF04C0E5FF05C0E5FF06C0E5FFC9
:10356000020EDBCF00F0030EDBCF01F0040EDBCF49
:1035700002F0050EDBCF03F0046A056A0350800BEE
:10358000E844066E065011E102500226033603504D
:10359000015C02E10250005C04E2D8900332023286
:1035A00004D0052A05C004F0E9D70350015C02E10C
:1035B0000250005C04E30250005E0350015AD890B0
:1035C0000332023204C005F004060550EEE101C0EA
:1035D000F3FF0050E4CF06F0E4CF05F0E4CF04F0B1
:1035E000E4CF03F0E4CF02F0E4CF01F0E4CF00F049
:1035F000E4CFD9FF1200D9CFE5FFE1CFD9FF00C05A
:10360000E5FF01C0E5FF02C0E5FF03C0E5FF020ED4
:10361000DBCF00F0030EDBCF01F0040EDBCF02F0B6
:1036200000C0E9FF01C0F3FF0250ECEC24F0036E90
:10363000035029E0C6A610D00350E56EFDEC23F040
:10364000036EE652035002E0FD0E1ED013EC21F093
:10365000C5AC14D0FE0E18D09E9600C0E9FF01C084
:10366000F3FF0250ECEC24F0C96EC6889EA6FED78C
:10367000C7B404D0C7B002D0FE0E06D0002AD0E3F3
:10368000014A022ACDD7E86AE4CF03F0E4CF02F082
:10369000E4CF01F0E4CF00F0E4CFD9FF120000C086
:1036A000E5FF01C0E5FF02C0E5FF03C0E5FF76CA04
:1036B00000F0016A81CA02F0036A0250005E035002
:1036C000015AE56A800EE56E0150E56E0050E56E28
:1036D00097EC18F0006E040EE126000681CA01F096
:1036E000430E52EC20F0200E52EC20F0005020E06F
:1036F000600E0124026E036A000E032202C0E9FF7D
:1037000003C0EAFFEFCF02F0E56A0250E56E000E5B
:10371000E56E4A0EE56E8E0EE56E79EC1EF0050E36
:10372000E126012A0150800A01E1016A0006DED784
:10373000E4CF03F0E4CF02F0E4CF01F0E4CF00F0F7
:103740001200D9CFE5FFE1CFD9FF00C0E5FF01C0EE
:10375000E5FF02C0E5FF03C0E5FF020EDBCF00F08E
:10376000030EDBCF01F0040EDBCF02F0050EDBCF42
:1037700003F0035003E11D0E036E02D0530E036EDF
:1037800003C0E5FF00C0E9FF01C0F3FF025085EC74
:1037900025F0E56A2D0EE56E0350E56EE4EC20F0B1
:1037A000030EE126100EE56E2D0EE56E0350E56E5C
:1037B000E4EC20F0030EE126080EE56E2D0EE56E1A
:1037C0000350E56EE4EC20F0030EE126E4CF03F0B5
:1037D000E4CF02F0E4CF01F0E4CF00F0E4CFD9FF72
:1037E0001200D9CFE5FFE1CFD9FF00C0E5FF01C04E
:1037F000E5FF02C0E5FF03C0E5FF04C0E5FF020EE0
:10380000DBCF00F0030EDBCF01F0040EDBCF02F0C4
:103810000401375111E11EEC20F0036EF3CF04F0E8
:1038200003C0E5FF04C0F4FF00C0E9FF01C0F3FFDF
:10383000025057EC25F016D004013751010A12E16D
:1038400000C0E9FF01C0F3FF025087EC24F0006ED6
:10385000F3CF01F00150E56E0050E56EF8EC1EF07C
:10386000E652E652E4CF04F0E4CF03F0E4CF02F0F6
:10387000E4CF01F0E4CF00F0E4CFD9FF1200D9CFBC
:10388000E5FFE1CFD9FF00C0E5FF01C0E5FF02C0C1
:10389000E5FF03C0E5FF04C0E5FF020EDBCF00F04B
:1038A0000038E8441F0B016E026A6F0E01260A0EF3
:1038B000022201C0E9FF02C0EAFFEFCF01F0070ECC
:1038C0000016010E026E000E036E005006E0E86C5A
:1038D000D89002360336010FFCE3046A0150021649
:1038E0000450031602500310D880E866D890026A8C
:1038F00002360250D880E866D890026A023602503A
:10390000E4CF04F0E4CF03F0E4CF02F0E4CF01F021
:10391000E4CF00F0E4CFD9FF1200740EF66E4B0E28
:10392000F76E000EF86E0900F550056E0900F550AF
:10393000066E04E1056702D0DAEF1CF00900F550CD
:10394000006E0900F550016E0900F550026E090085
:103950000900F550E96E0900F550EA6E090009000A
:103960000900F550036E0900F550046E09000900C6
:10397000F6CF07F0F7CF08F0F8CF09F000C0F6FF58
:1039800001C0F7FF02C0F8FF035002E1045007E056
:103990000900F550EE6E0306F8E20406F9D707C0F9
:1039A000F6FF08C0F7FF09C0F8FF050601E20606AA
:1039B00099EF1CF01200D9CFE5FFE1CFD9FF00C08D
:1039C000E5FF01C0E5FF02C0E5FF03C0E5FF04C05D
:1039D000E5FF05C0E5FF020EDBCF00F00050010A55
:1039E00022E1016A0150020DF450036EF3CF02F0A0
:1039F000930E0224046E040E0320056E04C0E9FF3A
:103A000005C0EAFFEE687F0EEF6EB30E0226040ECD
:103A1000032202C0E9FF03C0EAFFEE6AEF6A012A4F
:103A2000100E015CDFE300C029FAE4CF05F0E4CF1B
:103A300004F0E4CF03F0E4CF02F0E4CF01F0E4CFF0
:103A400000F0E4CFD9FF1200D9CFE5FFE1CFD9FFD5
:103A500000C0E5FF01C0E5FF02C0E5FF03C0E5FFD0
:103A600004C0E5FF020EDBCF00F0030EDBCF01F058
:103A7000040EDBCF02F0036A02C004F00206045019
:103A80001DE03FEC21F0046E00C0E9FF01C0EAFF39
:103A900004C0EFFF004A012A03C004F0C5A6ECD71A
:103AA000A1A602D0E8680BD0042A04C003F002509B
:103AB000F5E0BEEC21F0C5B8FED7F0D70350E4CF57
:103AC00004F0E4CF03F0E4CF02F0E4CF01F0E4CF60
:103AD00000F0E4CFD9FF120000C0E5FF01C0E5FF10
:103AE00002C0E5FF03C0E5FF04C0E5FF006A6D0EFC
:103AF0000024016E026A0A0E02226F0E0024036E79
:103B0000046A0A0E042203C0E9FF04C0EAFF010EA2
:103B1000EF6E01C0E9FF02C0EAFFEF6E002A020E5D
:103B2000005CE5E3006A3F0E0024016E026A0A0EA3
:103B3000022201C0E9FF02C0EAFFEF68002A100E6E
:103B4000005CF1E3E4CF04F0E4CF03F0E4CF02F053
:103B5000E4CF01F0E4CF00F012004320732025648D
:103B60002025640A0000D9CFE5FFE1CFD9FF00C0CE
:103B7000E5FF01C0E5FF02C0E5FF03C0E5FF04C0AB
:103B8000E5FF05C0E5FF020EDBCF00F0030EDBCF43
:103B900001F0040EDBCF02F0050EDBCF03F0060EC2
:103BA000DBCF04F0056A3F0E00260A0E0522800EC8
:103BB000015E070E01160138F00B026E070E0416A7
:103BC0000450022600C0E9FF05C0EAFF02C0EFFF73
:103BD000E4CF05F0E4CF04F0E4CF03F0E4CF02F04B
:103BE000E4CF01F0E4CF00F0E4CFD9FF120000C031
:103BF000E5FF01C0E5FF02C0E5FF94EC21F0006E97
:103C000094EC21F0016E0050026ED00E0224006E82
:103C10000A0E005C05E30050026EF90E0224006EED
:103C20000150026ED00E0224016E0A0E015C05E303
:103C30000150026EF90E0224016E080E005C12E2C1
:103C4000100E015CD8B00ED00038F00B0124006ECD
:103C5000ACEC1FF0016E015005E10050E56EE5ECA3
:103C600023F0E652E4CF02F0E4CF01F0E4CF00F01D
:103C70001200D9CFE5FFE1CFD9FF00C0E5FF01C0B9
:103C8000E5FF02C0E5FF03C0E5FF04C0E5FF020E4B
:103C9000DBCF00F00038E8441F0B016E026A6B0EA8
:103CA00001260A0E022201C0E9FF02C0EAFFEFCF9F
:103CB00003F0070E0016010E046E005005E0E86CDC
:103CC000D8900436010FFDE3041C031601C0E9FF80
:103CD00002C0EAFF03C0EFFFE4CF04F0E4CF03F03B
:103CE000E4CF02F0E4CF01F0E4CF00F0E4CFD9FF5D
:103CF0001200D9CFE5FFE1CFD9FF00C0E5FF01C039
:103D0000E5FF02C0E5FF020ED924006E000EDA20A6
:103D1000016E800E026E030E0026000E01220222AA
:103D20000250E56E0150E56E0050E56E040EDBCFEB
:103D3000E5FF030EDBCFE5FF020EDBCFE5FF0A0157
:103D40006251E56E6151E56E6051E56E0EEC00F07A
:103D5000006EF3CF01F0090EE12601C0F3FF005021
:103D6000E4CF02F0E4CF01F0E4CF00F0E4CFD9FFDC
:103D70001200D9CFE5FFE1CFD9FF00C0E5FF01C0B8
:103D8000E5FF02C0E5FF03C0E5FF020EDBCF00F058
:103D9000030EDBCF01F0040EDBCF02F0040137513C
:103DA0000DE15BEC24F0036E03C0E5FF00C0E9FF0A
:103DB00001C0F3FF025085EC25F00FD0040137510C
:103DC000010A0BE100C0E9FF01C0F3FF0250ECEC77
:103DD00024F0E56EAAEC22F0E652E4CF03F0E4CF43
:103DE00002F0E4CF01F0E4CF00F0E4CFD9FF1200FD
:103DF000D9CFE5FFE1CFD9FF00C0E5FF01C0E5FF66
:103E000002C0E5FF03C0E5FF020EDBCF00F0030EAA
:103E1000DBCF01F069CA02F06ACA03F00A01693F08
:103E200001D06A2B0150E56E0250E56EF5EC22F0F0
:103E3000E652E65269CA02F06ACA03F00A01693F13
:103E400001D06A2B0050E56E0250E56EF5EC22F0D1
:103E5000E652E652E4CF03F0E4CF02F0E4CF01F003
:103E6000E4CF00F0E4CFD9FF1200D9CFE5FFE1CFD6
:103E7000D9FF00C0E5FF01C0E5FF02C0E5FF03C0B8
:103E8000E5FF04C0E5FF020EDBCF00F023CA01F01E
:103E9000026A014A022A24CA03F0046A0150031884
:103EA00003E10250041801E001D00ED0000E0A0117
:103EB0002325016E026A070E022201C0E9FF02C03B
:103EC000EAFF00C0EFFF232BE4CF04F0E4CF03F0C0
:103ED000E4CF02F0E4CF01F0E4CF00F0E4CFD9FF6B
:103EE0001200D9CFE5FFE1CFD9FF00C0E5FF01C047
:103EF000E5FF02C0E5FF03C0E5FF020EDBCF00F0E7
:103F0000016A81CA02F0036A0250002603500122AE
:103F1000E56A800EE56E0150E56E0050E56E97ECA7
:103F200018F0006EF3CF01F0040EE126600E0026BB
:103F3000000E012200C0E9FF01C0EAFFEFCF00F050
:103F40000050E4CF03F0E4CF02F0E4CF01F0E4CF7F
:103F500000F0E4CFD9FF120000C0E5FF01C0E5FF8B
:103F600002C0E5FF010E006E94EC21F0016E01C06D
:103F700002F0015023E00050E56E2DEC25F0016EBB
:103F8000E652015010E10A0E005C0BE20A0E006ED0
:103F9000E56E2DEC25F0016EE652015004E1E86873
:103FA0000ED0E8680CD00150021802E0E86807D093
:103FB000002A1B0E005CD8E3E86801D0E86AE4CF71
:103FC00002F0E4CF01F0E4CF00F01200F3CFE5FF00
:103FD000F4CFE5FFE9CFE5FFEACFE5FFFACFE5FF54
:103FE000FBCFE5FF0A0121510F01356F0A01225174
:103FF0000F01366FD650336FD750346FF2A411D003
:104000000A01213F01D0222BF2940A0121510F0114
:10401000356F0A0122510F01366FD650336FD750DA
:10402000346FE4CFFBFFE4CFFAFFE4CFEAFFE4CF45
:10403000E9FFE4CFF4FFE4CFF3FF110000C0E5FF98
:1040400001C0E5FF02C0E5FF03C0E5FF69CA00F05B
:104050006ACA01F00A01693F01D06A2B0050E56E7F
:104060002DEC25F0E652036E026A69CA00F06ACAB6
:1040700001F00A01693F01D06A2B0050E56E2DEC7A
:1040800025F0E652016A02120150031203C0F3FF49
:104090000250E4CF03F0E4CF02F0E4CF01F0E4CF2C
:1040A00000F0120000C0E5FF01C0E5FF02C0E5FF1F
:1040B000006E000E0A012825016E026A0F0E022210
:1040C00001C0E9FF02C0EAFF00C0EFFF220E285D39
:1040D00001E2282B00500A0A0FE10A012851E56E7F
:1040E000800EE56E0F0EE56E000EE56E36EC17F0F5
:1040F000040EE1260A01286BE4CF02F0E4CF01F0C0
:10410000E4CF00F01200D9CFE5FFE1CFD9FF00C026
:10411000E5FF01C0E5FF02C0E5FF020EDBCF00F0C6
:10412000030EDBCF01F083EC22F00044FE0B026EA5
:104130000150D880E866D890006A00360050D880D8
:10414000E866D890006A0036005002120250E56E10
:10415000FDEC23F0E652E4CF02F0E4CF01F0E4CF2F
:1041600000F0E4CFD9FF12000A01236B0A01246B8F
:104170000A0125698B809490B06A3F0EAF6EB886B5
:10418000AC8AAC84AC8CAC90AB8CAB8E0A01786BF7
:104190000A01726B0A01756B0A01766B0A01776B73
:1041A000000EE56A2DEC25F00A01276FE6529F9874
:1041B0009F9A010E0A01266F0A01606B616B2F0E38
:1041C000626F3BEC25F01200D9CFE5FFE1CFD9FFBC
:1041D00000C0E5FF01C0E5FF02C0E5FF020EDBCF36
:1041E00000F0030EDBCF01F0040EDBCF02F0E56A36
:1041F0000050E56E83EC20F0E652E6520150E56E89
:10420000FDEC23F0E6520250E56EFDEC23F0E652A1
:104210005CEC22F0E4CF02F0E4CF01F0E4CF00F058
:10422000E4CFD9FF120000C0E5FF01C0E5FF02C0E6
:10423000E5FF03C0E5FFE80E006E030E016E0050BF
:10424000FF0F026EFF0E0120036E02C000F003C0DC
:1042500001F0025003100AE01F0EC514026E036A3B
:10426000C7B4032A035002120250E9E1E4CF03F07D
:10427000E4CF02F0E4CF01F0E4CF00F0120000C080
:10428000E5FF01C0E5FF02C0E5FF03C0E5FFE80E62
:10429000006E030E016E13EC21F0C5860050FF0F77
:1042A000026EFF0E0120036E02C000F003C001F099
:1042B0000250031005E0C7EC25F0026E0250EEE05C
:1042C000C950E4CF03F0E4CF02F0E4CF01F0E4CF33
:1042D00000F012000A0121510401836F0A012251EA
:1042E0000401846FD650816FD750826F83510A01C9
:1042F000211905E1040184510A0122190CE00A0187
:1043000021510401836F0A0122510401846FD650A8
:10431000816FD750826F84C4E9FF83C4F4FF82C4E5
:10432000F3FF04018151120000C0E5FF01C0E5FF69
:104330000A0176510A017F1905E00A0176510A0146
:10434000751902E1E86A15D076CA00F00A01762BE9
:10435000016A600E0026000E012200C0E9FF01C0C4
:10436000EAFFEFCF00F07651800A02E10A01766B96
:104370000050E4CF01F0E4CF00F0120000C0E5FFF0
:1043800001C0E5FF02C0E5FF03C0E5FFE80E006ED7
:10439000030E016E13EC21F09E96C59AC58800505D
:1043A000FF0F026EFF0E0120036E02C000F003C07B
:1043B00001F00250031002E09EA6F1D7E4CF03F013
:1043C000E4CF02F0E4CF01F0E4CF00F0120000C02F
:1043D000E5FFD6EC25F00401896B806B8983006AC8
:1043E00089B3002A0050010BE844F46E8051FD0BA4
:1043F000F410806FD58ED59CD59AD588D596D59456
:10440000D582D580F28AF184D08EF28EF28CBA8079
:10441000FF0EBB68BA84E4CF00F01200D9CFE5FFED
:10442000E1CFD9FF00C0E5FF01C0E5FF020EDBCF01
:1044300000F00050020DF450016EF3CF00F0D30EE7
:104440000026040E012200C0E9FF01C0EAFFEECF02
:1044500000F0EFCF01F001C0F3FF0050E4CF01F016
:10446000E4CF00F0E4CFD9FF1200D9CFE5FFE1CFD0
:10447000D9FF00C0E5FF01C0E5FF020EDBCF00F071
:104480000050020DF450016EF3CF00F0E00E002654
:10449000000E012200C0E9FF01C0EAFFEECF00F0EC
:1044A000EFCF01F001C0F3FF0050E4CF01F0E4CF03
:1044B00000F0E4CFD9FF120000C0E5FF01C0E5FF26
:1044C00002C0E5FF03C0E5FFE80E006E030E016EBB
:1044D00013EC21F0C5840050FF0F026EFF0E012087
:1044E000036E02C000F003C001F00250031002E0AE
:1044F000C5B4F1D7E4CF03F0E4CF02F0E4CF01F08C
:10450000E4CF00F0120000C0E5FF01C0E5FF02C0EB
:10451000E5FF03C0E5FFE80E006E030E016E13EC2D
:1045200021F0C5800050FF0F026EFF0E0120036EC8
:1045300002C000F003C001F00250031002E0C5B059
:10454000F1D7E4CF03F0E4CF02F0E4CF01F0E4CF01
:1045500000F01200D9CFE5FFE1CFD9FF00C0E5FFA1
:1045600001C0E5FF02C0E5FF020EDBCF00F069CA23
:1045700001F06ACA02F00A01693F01D06A2B0050BB
:10458000E56E0150E56EF5EC22F0E652E652E4CF1E
:1045900002F0E4CF01F0E4CF00F0E4CFD9FF120045
:1045A000D8CFE5FFE0CFE5FFE56EF3CFE5FFF4CF31
:1045B000E5FFE9CFE5FFEACFE5FFFACFE5FFFBCF67
:1045C000E5FFF3EC0CF0E4CFFBFFE4CFFAFFE4CF20
:1045D000EAFFE4CFE9FFE4CFF4FFE4CFF3FFE450D8
:1045E000E4CFE0FFE4CFD8FF1000D9CFE5FFE1CF63
:1045F000D9FF00C0E5FF020EDBCF00F0030EDBCFDA
:10460000A8FF00C0A9FFA69EA69CA684F29EF29CCD
:10461000550EA76EAA0EA76EA682A6A202D0000013
:10462000FCD7A694F28EF28CE4CF00F0E4CFD9FF51
:104630001200E8AE0AD0F3CFEAFFEE50EECFF3FF60
:10464000EECFF4FFEECFE9FF1200E8BCF1EF25F06A
:10465000E9CFF6FFF3CFF7FFF86E0900F550090038
:10466000F5CFF3FF0900F5CFF4FF0900F5CFE9FF1F
:10467000120000C0E5FF01C0E5FF0A0123510A0155
:10468000241902E1E86A0FD0000E0A012425006E09
:10469000016A070E012200C0E9FF01C0EAFFEFCF67
:1046A00000F0242B0050E4CF01F0E4CF00F0120022
:1046B000F2CFEAFFF29EA69EA69CA684E9CFA9FFB0
:1046C000F3CFAAFFE4CFA8FF9AEC25F0F4CFA8FF20
:1046D0009AEC25F0F6CFA8FF9AEC25F0F7CFA8FFCB
:1046E0009AEC25F0A694EABEF28E1200D9CFE5FF2F
:1046F000E1CFD9FF00C0E5FF01C0E5FF020EDBCF2F
:1047000000F0016A3F0E00260A0E012200C0E9FFF8
:1047100001C0EAFFFF0EEF68E4CF01F0E4CF00F044
:10472000E4CFD9FF1200F2CFF6FFF29EA69EA69C20
:10473000E9CFA9FFF3CFAAFFA680A850A94AAA2AC9
:10474000A680A8CFF3FFA94AAA2AA680A8CFF4FF83
:10475000A94AAA2AA680A8CFEAFFF6BEF28E1200C6
:10476000E8AE08D0F3CFEAFFEE50EECFF3FFEECF86
:10477000F4FF1200E8BCF3EF25F0E9CFF6FFF3CF2A
:10478000F7FFF86E0900F5500900F5CFF3FF0900B7
:10479000F5CFF4FF1200F2CFEAFFF29EA69EA69C90
:1047A000A684E9CFA9FFF3CFAAFFE4CFA8FF9AEC34
:1047B00025F0F4CFA8FF9AEC25F0F6CFA8FF9AECED
:1047C00025F0A694EABEF28E1200D9CFE5FFE1CF24
:1047D000D9FF00C0E5FF020EDBCF00F000C027FAD2
:1047E0000050E56E000EE56AF5EC22F0E652E65266
:1047F000E4CF00F0E4CFD9FF1200D9CFE5FFE1CF3D
:10480000D9FF00C0E5FF020EDBCF00F0C69E00C05E
:10481000C9FFC6AE02D0E86803D013EC21F0E86A05
:10482000E4CF00F0E4CFD9FF1200F2CFF6FFF29E02
:10483000A69EA69CE9CFA9FFF3CFAAFFA680A85009
:10484000A94AAA2AA680A8CFF3FFA94AAA2AA68025
:10485000A8CFF4FFF6BEF28E120000C0E5FF01C043
:10486000E5FF600E0A017625006E016A000E012246
:1048700000C0E9FF01C0EAFFEFCF00F00050E4CF35
:1048800001F0E4CF00F01200D9CFE5FFE1CFD9FF6E
:1048900000C0E5FF020EDBCF00F0610E005C05E317
:1048A0007B0E005C02E2010E01D0E86AE4CF00F06A
:1048B000E4CFD9FF120000C0E5FF01C0E5FF69CADF
:1048C00000F06ACA01F00A01693F01D06A2B00506A
:1048D000E56E2DEC25F0E652E4CF01F0E4CF00F0D8
:1048E0001200D9CFE5FFE1CFD9FF00C0E5FF020EEE
:1048F000DBCF00F000C026FA005004E13BEC25F0CD
:104900009D9A9D98E4CF00F0E4CFD9FF1200E8AE65
:1049100006D0F3CFEAFFEE50EECFF3FF1200E8BC73
:10492000EFEF25F0E9CFF6FFF3CFF7FFF86E0900C0
:10493000F5500900F5CFF3FF1200F2CFEAFFF29E27
:10494000A69EA69CA684E9CFA9FFF3CFAAFFE4CF39
:10495000A8FF9AEC25F0F4CFA8FF9AEC25F0A694D6
:10496000EABEF28E120018EEFFF028EEFFF0F86AB1
:10497000A68EA69CE9680E0EEA6E0068000EED6A2F
:104980000050FDE18DEC1CF006EC00F0FFD7F2CFFB
:10499000F6FFF29EA69EA69CE9CFA9FFF3CFAAFF41
:1049A000A680A850A94AAA2AA680A8CFF3FFF6BEDF
:1049B000F28E1200F2CFEAFFF29EA69EA69CA6847B
:1049C000E9CFA9FFF3CFAAFFE4CFA8FF9AEC25F027
:1049D000A694EABEF28E1200E8AE04D0F3CFEAFF4E
:1049E000EE501200E8BCEDEF25F0E9CFF6FFF3CF73
:1049F000F7FFF86E0900F5501200E8AE0BD0F3CFC8
:104A0000EAFFE4CFEEFFF4CFEEFFF6CFEEFFF7CFF5
:104A1000EEFF1200E8BCEBEF25F0120000000000F2
:104A200000FF000000000A00020000004200000039
:104A3000000000000000000000000000E8AE09D007
:104A4000F3CFEAFFE4CFEEFFF4CFEEFFF6CFEEFFB9
:104A50001200E8BCF5EF25F01200D9CFE5FFE1CF59
:104A6000D9FF020EDBCFA9FFA69CA69EA680A85068
:104A7000E4CFD9FF1200ACA2FED78B80AE5000006D
:104A8000AE50AB98AB88AB869D8A9D98120025648A
:104A90002000F2CFF6FFF29EA69EA69CE9CFA9FFCA
:104AA000F3CFAAFFA680A850F6BEF28E1200E8AEA1
:104AB00007D0F3CFEAFFE4CFEEFFF4CFEEFF120012
:104AC000E8BCE9EF25F01200700ED36E9B8CFF0E50
:104AD0009268936894689668626AF19E120000C0BA
:104AE000E5FFACEC1FF0006E005001E1FF00E4CFE9
:104AF00000F012000F01456B900E0F01446F030E82
:104B00000F01436F0F01458F1200E8AE05D0F3CFC0
:104B1000EAFFE4CFEEFF1200E8BCE7EF25F0120059
:104B2000D9CFE5FFE1CFD9FF020EDBCF2CFAE4CFDE
:104B3000D9FF1200550EA76EAA0EA76EA682A6B2C6
:104B4000FED7A94AAA2A010E0401376F1C0E0A01DA
:104B5000696F6A6B120013EC21F09E96C58AC588B6
:104B60009EA6FED712000401376B1C0E0A01696F66
:104B70006A6B120001001C4A0000200A00001F009E
:104B8000000013EC21F0C582C5B2FED71200C7A009
:104B900002D0010E01D0E86A1200E7EC21F0B4EC7B
:104BA00020F01200ACA2FED7AD6E120064EC25F02E
:104BB00012000A01765112000A01805112000A0106
:104BC00026511200E8CF7FFF1200C96E1200DAEF03
:104BD00024F09DEF24F058EF23F049EF25F0C7EFC4
:0E4BE00024F093EF23F015EF24F0CBEF23F039
:00000001FF
