:020000040000FA
:100000000EEF27F0C69A12005CEF1CF0EAEC09F044
:1000100086EC18F0FDD71200B5EF20F0D9CFE5FF40
:10002000E1CFD9FF00C0E5FF01C0E5FF02C0E5FF59
:1000300003C0E5FF04C0E5FF05C0E5FF06C0E5FF1E
:1000400007C0E5FF08C0E5FF09C0E5FF0AC0E5FFFE
:100050000BC0E5FF0CC0E5FF0DC0E5FF0EC0E5FFDE
:100060000FC0E5FF10C0E5FF11C0E5FF12C0E5FFBE
:1000700013C0E5FF14C0E5FF15C0E5FF16C0E5FF9E
:1000800017C0E5FF18C0E5FF19C0E5FF1AC0E5FF7E
:100090001BC0E5FF1CC0E5FF1DC0E5FF1EC0E5FF5E
:1000A000020EDBCF00F0030EDBCF01F0040EDBCF3E
:1000B00002F0050EDBCF03F0060EDBCF04F0070ED7
:1000C000DBCF05F0080EDBCF06F0090EDBCF07F023
:1000D0000A0EDBCF08F0096A0A6A02C00DF00D5063
:1000E000800A0DE102500301806F01507F6F0050C4
:1000F0007E6F030E016E7E0E006E800E026E03C0D8
:10010000E9FF04C0F3FF055069EC27F00B6E0B50BC
:10011000D8B4C4EF03F00B50250A02E0ABEF03F0B4
:100120000C6A0D6A0E6A0F6A106A0A0E116E126A64
:10013000136A146A200E156E1668176A2B0E186E55
:10014000032A02E3044A052A03C0E9FF04C0F3FFBF
:10015000055069EC27F0196E250A13E11950E56E78
:100160000250E56E0150E56E0050E56EF4EC15F0BE
:10017000040EE126094A0A2A032A02E3044A052A50
:10018000BED71950300A06E1300E156E032A02E37D
:10019000044A052A03C0E9FF04C0F3FF055069ECD7
:1001A00027F02D0A06E1010E146E032A02E3044A29
:1001B000052A03C0E9FF04C0F3FF055069EC27F0EE
:1001C000200A08E1010E176E200E186E032A02E3C2
:1001D000044A052A03C0E9FF04C0F3FF055069EC97
:1001E00027F02B0A06E1010E176E032A02E3044AE8
:1001F000052A03C0E9FF04C0F3FF055069EC27F0AE
:10020000196E310E195C2BE33A0E195C28E203C01B
:1002100019F004C01AF005C01BF019C0E9FF1AC09C
:10022000F3FF1B5069EC27F01C6E300E1C5C11E3D1
:100230003A0E1C5C0EE213500A0DF3CF1DF01C5059
:100240001D26D00E1D24136E192A02E31A4A1B2AFA
:10025000E4D719C003F01AC004F01BC005F003C0B6
:10026000E9FF04C0F3FF055069EC27F02E0A2DE1E9
:10027000032A02E3044A052A166A03C019F004C0DF
:100280001AF005C01BF019C0E9FF1AC0F3FF1B509C
:1002900069EC27F01C6E300E1C5C11E33A0E1C5CFE
:1002A0000EE216500A0DF3CF1DF01C501D26D00E85
:1002B0001D24166E192A02E31A4A1B2AE4D719C014
:1002C00003F01AC004F01BC005F003C0E9FF04C02E
:1002D000F3FF055069EC27F0196E6C0A07E1010E77
:1002E0000C6E032A02E3044A052A09D01950680A51
:1002F00006E1010E0E6E032A02E3044A052A03C03A
:10030000E9FF04C0F3FF055069EC27F0750A06E128
:10031000010E106E032A02E3044A052A03C0E9FF16
:1003200004C0F3FF055069EC27F0196E730A05E16C
:10033000010E0D6E200E156E3FD01950780A03E1A4
:10034000100E116E39D01950580A05E1100E116EB9
:10035000010E126E31D01950630A02E1116A2CD0DD
:1003600019506F0A03E1080E116E26D01950660A63
:1003700003E1010E0F6E20D01950640A1DE01950E0
:10038000690A1AE0105005E0FF0E03260422052238
:1003900013D01950E56E0250E56E0150E56E005025
:1003A000E56EF4EC15F0040EE126094A0A2A032A48
:1003B00002E3044A052AA3D60D5021E00650030F9C
:1003C0000D6E000E0720196E000E08201A6E0DC06B
:1003D00006F019C007F01AC008F0FD0E0D26FF0E3A
:1003E00019221A220DC0E9FF19C0F3FF1A5023EC9D
:1003F00026F00D6EF3CF19F0F4CF1AF0FDD00F50A8
:100400000DE0000E1A6E080E196E100E0D6E040E21
:100410000626000E072208221668EED016680C5039
:1004200023E00650040F0C6E000E07200F6E000E26
:1004300008201B6E0CC006F00FC007F01BC008F0B0
:10044000FC0E0C26FF0E0F221B220CC0E9FF0FC072
:10045000F3FF1B504EEC25F00C6EF3CF0FF0F4CFF2
:100460001BF0E9CF1CF067D00E502FE00650020FB2
:100470000E6E000E07201D6E000E08201E6E0EC0B0
:1004800006F01DC007F01EC008F0FE0E0E26FF0E7F
:100490001D221E220EC0E9FF1DC0F3FF1E50E2EC1C
:1004A00026F00E6E0EC00CF00F6A1B6A1C6A11500B
:1004B0000A0A03E11050D8B43ED00C500E6E0EC0A4
:1004C0000CF00F6A1B6A1C6A36D00650020F0E6EC3
:1004D000000E07201D6E000E08201E6E0EC006F0D6
:1004E0001DC007F01EC008F0FE0E0E26FF0E1D22D6
:1004F0001E220EC0E9FF1DC0F3FF1E50E2EC26F0E5
:100500000E6EF3CF1DF00EC00CF01DC00FF0E86AA8
:100510001DBEFF0E1B6E1C6E11500A0A02E1105028
:100520000AE00C500E6E0F501D6E0EC00CF01DC078
:100530000FF01B6A1C6A040E196EF40E0D6E800E0D
:100540001A6E1150D8B440D0105013E01150E56E1F
:10055000040EE56EF40EE56E1C50E56E1B50E56E64
:100560000F50E56E0C50E56E61EC0EF0070EE126C3
:1005700012D01150E56E040EE56EF40EE56E1C50BF
:10058000E56E1B50E56E0F50E56E0C50E56E9AEC73
:100590001BF0070EE12617502FE00DC0E9FF19C030
:1005A000F3FF1A5069EC27F02D0A26E0FF0E0D2606
:1005B00019221A2218C0E5FF0DC0E9FF19C0F3FF88
:1005C0001A50EEEC27F018D00CC0E5FF0DC0E9FF83
:1005D00019C0F3FF1A50EEEC27F00D50010F0C6E0E
:1005E000000E19200E6E000E1A20E56A0CC0E9FFFD
:1005F0000EC0F3FFEEEC27F00DC00CF019C00EF0AA
:100600001AC00FF013C010F0105010E00CC0E9FF3A
:100610000EC0F3FF0F5069EC27F0176E175006E07D
:100620000C2A02E30E4A0F2A1006EED710C013F070
:1006300014501EE109C00CF00AC00EF010C00FF0FB
:100640000F5010E01550E56E0250E56E0150E56E5A
:100650000050E56EF4EC15F0040EE1260C4A0E2A6B
:100660000F06EED70CC009F00EC00AF00FC013F051
:1006700016C00CF00DC00DF019C00EF01AC00FF02E
:1006800009C010F00AC015F00DC0E9FF0EC0F3FF5D
:100690000F5069EC27F0166E1650D8B43ED00CC03F
:1006A00016F0176A161E171E1650171005E00CC01C
:1006B00016F00C06165031E00DC0E9FF0EC0F3FF36
:1006C0000F5069EC27F0116E125010E01150E56EDA
:1006D0009FEC26F0166EE652165004E0DF0E111461
:1006E000166E02D011C016F016C011F01150E56E52
:1006F0000250E56E0150E56E0050E56EF4EC15F029
:10070000040EE1260D2A02E30E4A0F2A104A152A8A
:100710001350D8B4B9D71306B7D710C009F015C015
:100720000AF014502BE010C00CF015C00DF013C0EF
:100730000EF00E501FE0200EE56E0250E56E0150E7
:10074000E56E0050E56EF4EC15F0040EE1260C4A5F
:100750000D2A0E06EED70B50E56E0250E56E0150E5
:10076000E56E0050E56EF4EC15F0040EE126094A42
:100770000A2A04D00CC009F00DC00AF0032A02E3D3
:10078000044A052A7FEF00F00AC0F3FF0950E4CFC6
:100790001EF0E4CF1DF0E4CF1CF0E4CF1BF0E4CF5B
:1007A0001AF0E4CF19F0E4CF18F0E4CF17F0E4CF5B
:1007B00016F0E4CF15F0E4CF14F0E4CF13F0E4CF5B
:1007C00012F0E4CF11F0E4CF10F0E4CF0FF0E4CF5B
:1007D0000EF0E4CF0DF0E4CF0CF0E4CF0BF0E4CF5B
:1007E0000AF0E4CF09F0E4CF08F0E4CF07F0E4CF5B
:1007F00006F0E4CF05F0E4CF04F0E4CF03F0E4CF5B
:1008000002F0E4CF01F0E4CF00F0E4CFD9FF120012
:100810003C4E4F20464C4F41543E000000C0E5FF87
:1008200001C0E5FF02C0E5FF03C0E5FF04C0E5FF2E
:1008300005C0E5FF06C0E5FF07C0E5FF08C0E5FF0E
:1008400009C0E5FF0AC0E5FFC2A204D00401475178
:1008500047EF06F004014851D8B42FD104014751A5
:10086000020DF450016EF3CF00F0E00E0026000EF2
:10087000012200C0E9FF01C0EAFFEECF00F0EFCF98
:1008800001F0230E4725026E036A040E032202C004
:10089000E9FF03C0EAFFEFCF02F00250FF0A01E1D7
:1008A00066D002380F0B036E920E0324046E056AA5
:1008B0000F0E0522066A920E03260F0E062203C0B3
:1008C000E9FF06C0EAFFEFCF03F00250066E070E05
:1008D0000616010E076E06500DE006E6E86CD8908D
:1008E0000736010FFDE306D0D89007BED880073247
:1008F000010FFBE3071C066E0350061604C0E9FF58
:1009000005C0EAFF06C0EFFF02380F0B036E890E29
:100910000324046E056A0F0E0522066A890E03265B
:100920000F0E062203C0E9FF06C0EAFFEFCF03F077
:100930000250066E070E0616010E076E06500DE0F9
:1009400006E6E86CD8900736010FFDE306D0D89094
:1009500007BED8800732010FFBE3071C066E035069
:10096000061604C0E9FF05C0EAFF06C0EFFF040158
:100970004751020DF450046EF3CF03F0E00E03264E
:10098000000E042201340130066E0030056E06347C
:10099000063205320634063205320550005C056E1B
:1009A00006500158066EC3CF07F0086A07500526A7
:1009B00008500622C4CF07F0086A07500A6E096A79
:1009C000095005260A50062203C0E9FF04C0EAFFC9
:1009D00005C0EEFF06C0EFFF04014351010A01E02C
:1009E0006AD004014751020DF450046EF3CF03F0B6
:1009F000E00E0324056E000E0420066E05C0E9FF1C
:100A000006C0EAFFEECF00F0EFCF01F0B30E0326F1
:100A1000040E042203C0E9FF04C0EAFFEECF05F094
:100A2000EFCF06F09C0E0526D8A006060150800FD9
:100A3000F36E0650800FF35C02E10550005C0EE29D
:100A40000050640F056E000E0120066E03C0E9FF22
:100A500004C0EAFF05C0EEFF06C0EFFF04014751E6
:100A6000020DF450046EF3CF03F0D30E0326040EF0
:100A7000042203C0E9FF04C0EAFFEECF05F0EFCF88
:100A800006F0640E0526D8B0062A0650800FF36ED5
:100A90000150800FF35C02E10050055C0CE29C0EFB
:100AA0000026D8A0010603C0E9FF04C0EAFF00C089
:100AB000EEFF01C0EFFF0401486B0401472B100E4D
:100AC000475D01E3476B04014739E8441F0B006EA3
:100AD000016A810E0026030E012200C0E9FF01C059
:100AE000EAFFEFCF00F047C401F0070E0116010E38
:100AF000036E000E046E015006E0E86CD8900336D9
:100B00000436010FFCE3056A005003160550041675
:100B100003500410D880E866D890036A0336035067
:100B2000D8A4B3D0230E04014725006E016A0F0E2E
:100B3000012200C0E9FF01C0EAFFEFCF00F000444E
:100B4000E844FC0B016E0128C26E230E4725006E9F
:100B5000016A040E012200C0E9FF01C0EAFFEFCFE5
:100B600002F00250FF0A01E18CD002380F0B006E38
:100B7000920E0024016E036A0F0E0322046A920E85
:100B800000260F0E042200C0E9FF04C0EAFFEFCFE9
:100B900000F00250046E070E0416010E056E04509C
:100BA0000DE006E6E86CD8900536010FFDE306D0AF
:100BB000D89005BED8800532010FFBE30050051226
:100BC00001C0E9FF03C0EAFF05C0EFFF380E006E69
:100BD0000F0E016E02380F0B036E046A03500026DD
:100BE00004500122380E056E0F0E066E05500326C6
:100BF0000650042203C0E9FF04C0EAFFEFCF03F070
:100C0000070E0216010E046E02500DE006E6E86CB7
:100C1000D8900436010FFDE306D0D89004BED880EA
:100C20000432010FFBE30350041200C0E9FF01C0CE
:100C3000EAFF04C0EFFF0F01458300000000459369
:100C40000F0144930BC0E5FFF2CF0BF0F29E4481FD
:100C50000000000000000000000000000000000094
:100C60000000000000000000000000000000000084
:100C7000000000000000000044910BBEF28EE4CFA3
:100C80000BF0C282010E0401486F04014751E4CF0A
:100C90000AF0E4CF09F0E4CF08F0E4CF07F0E4CFA6
:100CA00006F0E4CF05F0E4CF04F0E4CF03F0E4CFA6
:100CB00002F0E4CF01F0E4CF00F0120000C0E5FF45
:100CC00001C0E5FF02C0E5FF03C0E5FF04C0E5FF8A
:100CD00005C0E5FF06C0E5FF07C0E5FF08C0E5FF6A
:100CE00009C0E5FF0AC0E5FF0BC0E5FF0CC0E5FF4A
:100CF000006A016A026A040E025CD8B0ECD101C03D
:100D000003F0012A100E035CD8B0E5D10401492B91
:100D1000100E495D01E3496B04014939E8441F0B9A
:100D2000036E046A810E0326030E042203C0E9FF4A
:100D300004C0EAFFEFCF03F049C404F0070E041625
:100D4000010E056E000E066E045006E0E86CD890A9
:100D500005360636010FFCE3076A035005160750F7
:100D6000061605500610D880E866D890056A053644
:100D70000550D8A4C0D704014951020DF450046EA7
:100D8000F3CF03F0E00E0324056E000E0420066E80
:100D900005C0E9FF06C0EAFFEECF05F0EFCF06F091
:100DA00046C407F007A09DD0B30E0324076E040EBF
:100DB0000420086E07C0E9FF08C0EAFFEECF07F085
:100DC000EFCF08F00650800FF36E0850800FF35CF1
:100DD00002E10750055C03E2056A066A60D0D30EA3
:100DE0000326040E042203C0E9FF04C0EAFFEECF8D
:100DF00003F0EFCF04F00450800FF36E0650800F25
:100E0000F35C02E10550035C04E205683F0E066EE8
:100E100046D00750055C096E085006580A6EE86A0D
:100E20000ABEFF0E0B6EE56E0B50E56E0A50E56EC6
:100E30000950E56EE56AE56A400EE56E000EE56A6A
:100E400057EC0DF0096EF3CF0AF0F4CF0BF0E9CFB9
:100E50000CF0080EE1260750035C076E085004589A
:100E6000086EE86A08BEFF0E036EE56E0350E56E7D
:100E70000850E56E0750E56E0C50E56E0B50E56EC0
:100E80000A50E56E0950E56E4AEC14F0036EF3CF9C
:100E900004F0080EE1260350056E0450066E0401AE
:100EA0004551800FF36E0650800FF35C02E1055050
:100EB000445D03E3056A066A14D004014451FF0847
:100EC000036E3F0E4555046E0650800FF36E0450BE
:100ED000800FF35C02E10350055C03E305683F0EFD
:100EE000066E04014951020DF450046EF3CF03F075
:100EF000930E0326040E042203C0E9FF04C0EAFF98
:100F0000EECF03F0EFCF04F00350055C036E045006
:100F10000658046ED88004AED89004E3041E036C17
:100F2000D8B4042A022A04014551800FF36E0450FC
:100F3000800FF35C02E10350445DD8B0DCD60401BD
:100F40004951020DF450086EF3CF07F0930E0726B7
:100F5000040E082207C0E9FF08C0EAFF05C0EEFF43
:100F600006C0EFFF46C407F007A459D04951020D4F
:100F7000F450086EF3CF07F0000E0724096E030E3D
:100F800008200A6E09C0E9FF0AC0EAFFEECF0BF0A5
:100F9000EFCF0CF00B500C10D8B441D05A0E0726EE
:100FA000040E082207C0E9FF08C0EAFFEECF07F0F1
:100FB000EFCF08F00750055C036E08500658046E2A
:100FC00003101CE00450800F800F02E1010E035C4F
:100FD000076A07360C50800F800F02E1010E0B5C90
:100FE0000B6A0B3607500B1809E109C0E9FF0AC06C
:100FF000EAFF03C0EEFF04C0EFFF7DD604014951B4
:10100000020DF450046EF3CF03F0000E0326030E1E
:10101000042203C0E9FF04C0EAFFEE6AEF6A46C497
:1010200003F003A244D000500EE100C003F0002AF8
:10103000046A4A0E0326040E042203C0E9FF04C01A
:10104000EAFF420EEF6E00C003F0002A046A4A0E67
:101050000326040E042204014951076E640E07267C
:1010600003C0E9FF04C0EAFF07C0EFFF00C003F0C0
:10107000002A046A4A0E0326040E04220650076E54
:1010800003C0E9FF04C0EAFF07C0EFFF00C003F0A0
:10109000002A046A4A0E0326040E04220550076E35
:1010A00003C0E9FF04C0EAFF07C0EFFF24D649C42C
:1010B00003F00650E56E0550E56EE56A0350E56EF7
:1010C000000EE56E300EE56E0C0EE56EF6EC20F0CF
:1010D000070EE12610D602C001F000501EE046C403
:1010E00002F002A21AD000C002F0002A036A4A0EDF
:1010F0000226040E032202C0E9FF03C0EAFF0A0E23
:10110000EF6E0050E56E800EE56E040EE56E4A0E41
:10111000E56E06EC17F0040EE1260150E4CF0CF06A
:10112000E4CF0BF0E4CF0AF0E4CF09F0E4CF08F00D
:10113000E4CF07F0E4CF06F0E4CF05F0E4CF04F00D
:10114000E4CF03F0E4CF02F0E4CF01F0E4CF00F00D
:101150001200800EE56E040EE56ED30EE56E6BECAC
:101160001EF0030EE126800EE56E040EE56EB30E52
:10117000E56E6BEC1EF0030EE126800EE56E040EAC
:10118000E56ED50EE56E6BEC1EF0030EE126800ECB
:10119000E56E040EE56EB50EE56E6BEC1EF0030E0B
:1011A000E126800EE56E040EE56ED70EE56E6BEC63
:1011B0001EF0030EE126800EE56E040EE56EB70EFE
:1011C000E56E6BEC1EF0030EE126800EE56E040E5C
:1011D000E56ED90EE56E6BEC1EF0030EE126800E77
:1011E000E56E040EE56EB90EE56E6BEC1EF0030EB7
:1011F000E126800EE56E040EE56EDB0EE56E6BEC0F
:101200001EF0030EE126800EE56E040EE56EBB0EA9
:10121000E56E6BEC1EF0030EE126800EE56E040E0B
:10122000E56EDD0EE56E6BEC1EF0030EE126800E22
:10123000E56E040EE56EBD0EE56E6BEC1EF0030E62
:10124000E126800EE56E040EE56EDF0EE56E6BECBA
:101250001EF0030EE126800EE56E040EE56EBF0E55
:10126000E56E6BEC1EF0030EE126800EE56E040EBB
:10127000E56EE10EE56E6BEC1EF0030EE126800ECE
:10128000E56E040EE56EC10EE56E6BEC1EF0030E0E
:10129000E126800EE56E040EE56EE30EE56E6BEC66
:1012A0001EF0030EE126800EE56E040EE56EC30E01
:1012B000E56E6BEC1EF0030EE126800EE56E040E6B
:1012C000E56EE50EE56E6BEC1EF0030EE126800E7A
:1012D000E56E040EE56EC50EE56E6BEC1EF0030EBA
:1012E000E126800EE56E040EE56EE70EE56E6BEC12
:1012F0001EF0030EE126800EE56E040EE56EC70EAD
:10130000E56E6BEC1EF0030EE126800EE56E040E1A
:10131000E56EE90EE56E6BEC1EF0030EE126800E25
:10132000E56E040EE56EC90EE56E6BEC1EF0030E65
:10133000E126800EE56E040EE56EEB0EE56E6BECBD
:101340001EF0030EE126800EE56E040EE56ECB0E58
:10135000E56E6BEC1EF0030EE126800EE56E040ECA
:10136000E56EED0EE56E6BEC1EF0030EE126800ED1
:10137000E56E040EE56ECD0EE56E6BEC1EF0030E11
:10138000E126800EE56E040EE56EEF0EE56E6BEC69
:101390001EF0030EE126800EE56E040EE56ECF0E04
:1013A000E56E6BEC1EF0030EE126800EE56E040E7A
:1013B000E56EF10EE56E6BEC1EF0030EE126800E7D
:1013C000E56E040EE56ED10EE56E6BEC1EF0030EBD
:1013D000E126120000C0E5FF01C0E5FF02C0E5FF05
:1013E00003C0E5FF04C0E5FF36EC28F0F3EC23F082
:1013F000F3CF01F0F4CF02F0E9CF03F0880F0F0133
:10140000336F130E0120346F000E0220356F000E73
:101410000320366F89EC17F09280800E006E0F0E5D
:10142000016E0F0E036E380E002603500122800E4F
:10143000026E0F0E036E800E005E0350015A0F0EF7
:10144000046E380E0226045003220F0E046E800E26
:10145000025E0450035A02C0E9FF03C0EAFFEFCF67
:1014600002F0028000C0E9FF01C0EAFF02C0EFFF06
:10147000000EE56AE56AC8EC1AF0E652E652F19E03
:10148000E8EC1FF0938A810E006E0F0E016E0F0EB6
:10149000036E380E0026035001220F0E036E800EDD
:1014A000005E0350015A810E026E0F0E036E0F0E86
:1014B000046E380E0226045003220F0E046E800EB6
:1014C000025E0450035A02C0E9FF03C0EAFFEFCFF7
:1014D00002F0029A00C0E9FF01C0EAFF02C0EFFF7C
:1014E000050EE56E800EE56E0F0EE56E810EE56E63
:1014F000020EE56E2FEC20F0050EE1269388810E9A
:10150000006E0F0E016E0F0E036E380E0026035094
:1015100001220F0E036E800E005E0350015A810EF1
:10152000026E0F0E036E0F0E046E380E022604506C
:1015300003220F0E046E800E025E0450035A02C096
:10154000E9FF03C0EAFFEFCF02F0029800C0E9FF15
:1015500001C0EAFF02C0EFFF040EE56E800EE56EEB
:101560000F0EE56E810EE56E010EE56E2FEC20F09C
:10157000050EE1269386810E006E0F0E016E0F0E92
:10158000036E380E0026035001220F0E036E800EEC
:10159000005E0350015A810E026E0F0E036E0F0E95
:1015A000046E380E0226045003220F0E046E800EC5
:1015B000025E0450035A02C0E9FF03C0EAFFEFCF06
:1015C00002F0029600C0E9FF01C0EAFF02C0EFFF8F
:1015D000030EE56E800EE56E0F0EE56E810EE56E74
:1015E000000EE56A2FEC20F0050EE126270EE56ED1
:1015F000E56A080EE56E22EC13F0030EE126010EFB
:10160000E56E800EE56E040EE56E810EE56E17EC5C
:101610001DF0040EE126E56AE568200EE56E800EF9
:10162000E56E040EE56E330EE56E0CEC18F0060E5A
:10163000E126E4CF04F0E4CF03F0E4CF02F0E4CFFE
:1016400001F0E4CF00F0120000C0E5FF01C0E5FFAB
:1016500002C0E5FF03C0E5FF04014051D8B40CD13E
:101660009DA81DD09EA81BD0030194510301911980
:1016700005E197EC27F00301916BFED0000E03010A
:101680009425006E016A040E012200C0E9FF01C02A
:10169000EAFFEFCF8DF3942B8DC3ADFFEDD09DAA64
:1016A000EBD09EAAE9D0ABA205D00301928197ECC2
:1016B00027F0E2D0ABA405D00301928397EC27F08A
:1016C000DBD0ABA048D0AECF8DF341C400F0016AAF
:1016D000008E8DC302F0036A0250001803E103502C
:1016E000011801E004D003019289AB96C5D0030133
:1016F0008D5104E08D510401411929E103019299B2
:10170000AB9603018D5103E00301929702D00301D0
:1017100092878DC396F38FC397F303018F51006EA9
:1017200000040301986F600E03019725006E016AA3
:10173000000E012200C0E9FF01C0EAFF8DC3EFFFE8
:10174000972B9751800A02E10301976B95D0030113
:101750009299AB8691D0AECF8DF3030192A921D09F
:1017600041C400F0016A008E8DC302F0036A02508A
:10177000001803E10350011801E011D09D9AAB98C5
:1017800094900301915104E1AD6A97EC27F007D0E2
:1017900000C4ADFF010E0301946F9D886DD0AB8630
:1017A0006BD003018D51030196270301975103016B
:1017B00098191BE1030196510CE197C38FF30301C4
:1017C00092B712D09D9AAB989490AD6A97EC27F09F
:1017D0000BD00301928592B707D09D9AAB98949055
:1017E000010EAD6E97EC27F047D00301975103012E
:1017F000901908E10301905103018F1903E097EC60
:1018000027F03AD08FC300F0016A004A012AE56A46
:10181000800EE56E0150E56E0050E56EEEEC19F0BD
:10182000006E040EE126005003018E6F030197192C
:101830000FE18DC300F01F0E00140301986F006EBE
:10184000020E0024986F03018F5103019827989F7F
:1018500097C300F00301972B016A600E0026000E6B
:10186000012200C0E9FF01C0EAFF8DC3EFFF9751DD
:10187000800A02E10301976BE4CF03F0E4CF02F0AA
:10188000E4CF01F0E4CF00F0120000C0E5FF01C09A
:10189000E5FF02C0E5FF03C0E5FF04C0E5FF05C0AA
:1018A000E5FF06C0E5FF07C0E5FF08C0E5FF09C08A
:1018B000E5FF006A016A040E015CD8B0E2D0400E78
:1018C00004015725026E036A030E032202C0E9FFDA
:1018D00003C0EAFFEFCF02F00250FF0A01E1CAD0D5
:1018E00004015739E8441F0B026E850E0224036E73
:1018F000046A030E042203C0E9FF04C0EAFFEFCF2D
:1019000003F057C404F0070E0416010E056E000E16
:10191000066E045006E0E86CD89005360636010FD6
:10192000FCE3076A0350051607500616055006101B
:10193000D880E866D890056A05360550D880E866F4
:10194000D890056A05360550036E046A830E022698
:10195000030E042202C0E9FF04C0EAFFEFCF05F046
:1019600057C406F0070E0616010E076E000E086E2D
:10197000065006E0E86CD89007360836010FFCE305
:1019800005C006F0096A06500716095008160750E8
:101990000810D880E866D890076A07360750D880C4
:1019A000E866D890076A07360350071801E162D04D
:1019B00003501FE004015751066E070E0616010E74
:1019C000076E06500DE006E6E86CD8900736010F6A
:1019D000FDE306D0D89007BED8800732010FFBE3A5
:1019E0000550071202C0E9FF04C0EAFF07C0EFFF7D
:1019F00026D002C0E9FF04C0EAFFEFCF05F00401E2
:101A00005751066E070E0616010E076E06500DE0C2
:101A100006E6E86CD8900736010FFDE306D0D890B3
:101A200007BED8800732010FFBE3071C066E055086
:101A3000061602C0E9FF04C0EAFF06C0EFFF03502C
:101A400003E1036A032A01D0036A57C404F0E56A7C
:101A50000350E56EE56A0450E56E000EE56E400E3B
:101A6000E56E520EE56EF6EC20F0070EE126012A37
:101A700001C000F00401572B100E575DD8A01BD7F2
:101A8000576B0050E4CF09F0E4CF08F0E4CF07F043
:101A9000E4CF06F0E4CF05F0E4CF04F0E4CF03F0A8
:101AA000E4CF02F0E4CF01F0E4CF00F01200D9CF90
:101AB000E5FFE1CFD9FF00C0E5FF01C0E5FF02C0AF
:101AC000E5FF03C0E5FF04C0E5FF05C0E5FF06C074
:101AD000E5FF07C0E5FF020EDBCF00F0030EDBCF12
:101AE00001F0040EDBCF02F0050EDBCF03F0060E93
:101AF000DBCF04F0070EDBCF05F0080EDBCF06F0DE
:101B0000090EDBCF07F0005004018E6F01508F6F7C
:101B10000250906F0350916F04500301686F05509D
:101B2000696F06506A6F07506B6F04018E51030195
:101B30006A03F4CF01F0F3CF00F0005003016E6FA1
:101B400001506F6F04018E5103016803F4CF01F05F
:101B5000F3CF00F0005003016C6F01506D6F040172
:101B6000915103016803F3CF00F003016F51002688
:101B700000506F6F0401905103016903F3CF01F02E
:101B800001500026005003016F6F040190510301C2
:101B90006803F4CF01F0F3CF00F003016E5100268B
:101BA0006F51012200506E6F01506F6F04018F5111
:101BB00003016903F4CF03F0F3CF02F002500026D3
:101BC00003500122005003016E6F01506F6F04013A
:101BD0008F5103016A03F3CF00F000500301736FCC
:101BE00004018F5103016803F4CF01F0F3CF00F03B
:101BF00000500301716F0150726F04018E51030197
:101C00006B03F3CF00F000500301776F04018E5196
:101C100003016903F4CF01F0F3CF00F0005003019A
:101C2000756F0150766F0301706B0301746B0301D4
:101C3000705103016C25006E0301715103016D2188
:101C4000016E0301725103016E21026E0301735193
:101C500003016F21036E00506C6F01506D6F0250D5
:101C60006E6F03506F6F0301745103016C25006E9A
:101C70000301755103016D21016E030176510301CA
:101C80006E21026E0301775103016F21036E03C0C1
:101C9000E9FF02C0F4FF01C0F3FF0050E4CF07F0FA
:101CA000E4CF06F0E4CF05F0E4CF04F0E4CF03F096
:101CB000E4CF02F0E4CF01F0E4CF00F0E4CFD9FFAD
:101CC0001200D9CFE5FFE1CFD9FF00C0E5FF01C089
:101CD000E5FF02C0E5FF03C0E5FF04C0E5FF05C066
:101CE000E5FF06C0E5FF07C0E5FF08C0E5FF09C046
:101CF000E5FF0AC0E5FF0BC0E5FF0CC0E5FF0DC026
:101D0000E5FF0EC0E5FF0FC0E5FF020EDBCF00F0E0
:101D1000030EDBCF01F0040EDBCF02F0050EDBCFAC
:101D200003F0060EDBCF04F0070EDBCF05F0080E44
:101D3000DBCF06F0200E076E086A06C009F00A6ABB
:101D40000B6A0C6AE56AE56AE56A0950E56E0350BC
:101D5000E56E0250E56E0150E56E0050E56EC0EC98
:101D600010F00D6E080EE126300E0D263A0E0D5CB9
:101D700005E30D500E6E270E0E240D6EFF0E072686
:101D80000822200E07240E6E030E08200F6E0EC0D0
:101D9000E9FF0FC0EAFF0DC0EFFF0C50E56E0B50DE
:101DA000E56E0A50E56E0950E56E0350E56E02508F
:101DB000E56E0150E56E0050E56E4AEC14F0006EE1
:101DC000F3CF01F0F4CF02F0E9CF03F0080EE126E3
:101DD0000050011002100310D8A4AFD707C000F0C4
:101DE00008C001F004C002F005C003F000C004F018
:101DF00001C005F0004A012A200E0426030E052228
:101E000004C0E9FF05C0EAFFEFCF04F002C0E9FF1C
:101E100003C0EAFF04C0EFFF024A032A000E015C80
:101E200002E1200E005CE2E302C0E9FF03C0EAFF2A
:101E3000000EEF6AE4CF0FF0E4CF0EF0E4CF0DF028
:101E4000E4CF0CF0E4CF0BF0E4CF0AF0E4CF09F0DC
:101E5000E4CF08F0E4CF07F0E4CF06F0E4CF05F0DC
:101E6000E4CF04F0E4CF03F0E4CF02F0E4CF01F0DC
:101E7000E4CF00F0E4CFD9FF1200D9CFE5FFE1CFE6
:101E8000D9FF00C0E5FF01C0E5FF02C0E5FF03C0C8
:101E9000E5FF04C0E5FF05C0E5FF06C0E5FF020E53
:101EA000DBCF00F0030EDBCF01F0040EDBCF02F03E
:101EB00000C0E9FF01C0F3FF025069EC27F0036E98
:101EC000E56AE56E9DEC22F0E652E652320EE56ED2
:101ED0008DEC25F0E6523BEC28F0010EE56E035048
:101EE000E56E9DEC22F0E652E6520050010F036EC3
:101EF000000E0120046E000E0220056EBCEC24F0E2
:101F0000066E06C0E5FF03C0E9FF04C0F3FF0550FD
:101F1000EEEC27F02DEC25F00050020F036E000EC2
:101F20000120046E000E0220056EBCEC24F0066E4B
:101F300006C0E5FF03C0E9FF04C0F3FF0550EEEC67
:101F400027F02DEC25F00050030F036E000E01204A
:101F5000046E000E0220056EBCEC24F0066E06C076
:101F6000E5FF03C0E9FF04C0F3FF0550EEEC27F0E6
:101F70002DEC25F00050040F036E000E0120046EBE
:101F8000000E0220056EBCEC24F0066E06C0E5FFD4
:101F900003C0E9FF04C0F3FF0550EEEC27F02DEC81
:101FA00025F00050050F036E000E0120046E000E98
:101FB0000220056EBCEC24F0066E06C0E5FF03C0EF
:101FC000E9FF04C0F3FF0550EEEC27F02DEC25F0FF
:101FD000060E0026000E01220222BCEC24F0036E45
:101FE00003C0E5FF00C0E9FF01C0F3FF0250EEECC3
:101FF00027F03BEC28F0E4CF06F0E4CF05F0E4CF87
:1020000004F0E4CF03F0E4CF02F0E4CF01F0E4CF3A
:1020100000F0E4CFD9FF120000C0E5FF01C0E5FFEA
:1020200002C0E5FF03C0E5FF04C0E5FF05C0E5FF12
:10203000006A400E0024016E026A030E022201C0F3
:10204000E9FF02C0EAFFEFCF01F00150FF0A01E112
:1020500085D001380F0B026E036A800E02260F0E28
:10206000032202C0E9FF03C0EAFFEFCF02F0070E30
:102070000116010E036E000E046E015006E0E86CBE
:10208000D89003360436010FFCE3056A02500316AC
:102090000550041603500410D880E866D890036AEF
:1020A000033603502DE10038E8441F0B016E026A2D
:1020B000850E0126030E022201C0E9FF02C0EAFFDD
:1020C000EFCF03F00050046E070E0416010E056EEC
:1020D00004500DE006E6E86CD8900536010FFDE3EC
:1020E00006D0D89005BED8800532010FFBE303501F
:1020F000051201C0E9FF02C0EAFF05C0EFFF2ED0C4
:102100000038E8441F0B016E026A850E0126030E9B
:10211000022201C0E9FF02C0EAFFEFCF03F0005046
:10212000046E070E0416010E056E04500DE006E65F
:10213000E86CD8900536010FFDE306D0D89005BEB7
:10214000D8800532010FFBE3051C046E0350041612
:1021500001C0E9FF02C0EAFF04C0EFFF002A100E31
:10216000005CD8A066D7E4CF05F0E4CF04F0E4CF5C
:1021700003F0E4CF02F0E4CF01F0E4CF00F012006E
:10218000D9CFE5FFE1CFD9FF00C0E5FF01C0E5FFF2
:1021900002C0E5FF03C0E5FF04C0E5FF05C0E5FFA1
:1021A00006C0E5FF07C0E5FF08C0E5FF09C0E5FF81
:1021B0000AC0E5FF020EDBCF00F0030EDBCF01F01B
:1021C000040EDBCF02F0050EDBCF03F0060EDBCFF3
:1021D00004F0070EDBCF05F0080EDBCF06F0090E8A
:1021E000DBCF07F0086A045005100610071005E160
:1021F000E968F468F368E86847D0096A0750800B1B
:10220000E8440A6E0A501BE10450042605360636DF
:1022100007360750035C08E10650025C05E10550F3
:10222000015C02E10450005C06E2D89007320632FD
:102230000532043204D0092A09C008F0DFD707505C
:10224000035C08E10650025C05E10550015C02E117
:102250000450005C08E30450005E0550015A06502B
:10226000025A0750035AD890073206320532043218
:1022700008C009F008060950E2E103C0E9FF02C006
:10228000F4FF01C0F3FF0050E4CF0AF0E4CF09F0FF
:10229000E4CF08F0E4CF07F0E4CF06F0E4CF05F098
:1022A000E4CF04F0E4CF03F0E4CF02F0E4CF01F098
:1022B000E4CF00F0E4CFD9FF120000C0E5FF01C079
:1022C000E5FF02C0E5FF03C0E5FF04C0E5FF030131
:1022D000905103018F1901E16AD090C300F00050C2
:1022E000016E0128006E009E600E0024016E026ADD
:1022F000000E022201C0E9FF02C0EAFFEFCF9AF30D
:102300001F0E03019A1790C399F39A51030199275D
:102310009951016E020E0124996F999F1DEC24F0D2
:10232000016E015003E1016A012A01D0016A1DEC2E
:1023300024F003019A6F9AC302F0800E02169AC32A
:1023400003F01F0E031603C004F003C09AF30450F9
:1023500003E18FC390F33ED001501EE0025025E010
:102360001DEC24F0006E03019A51016E01049A6F76
:102370000050420A1AE000504E0A03E173EC20F0CC
:1023800014D00050460A03E1D8EC27F00ED00050DC
:10239000490A0BE1FF0009D090C39BF3025003E010
:1023A000FDEC1BF002D0B3EC27F099C390F30401CD
:1023B0003D5104013E1906E00301915103E18DEC0A
:1023C00012F008D094B006D00301915103E1ACB2F1
:1023D00097EC27F0E4CF04F0E4CF03F0E4CF02F071
:1023E000E4CF01F0E4CF00F01200D9CFE5FFE1CF58
:1023F000D9FF00C0E5FF01C0E5FF02C0E5FF03C053
:10240000E5FF04C0E5FF020EDBCF00F0030EDBCFDB
:1024100001F0040EDBCF02F0050EDBCF03F0420E1D
:1024200003015F6F0350606F0050010F036E000ED9
:102430000120046E000E022003C0E9FF04C0F3FF78
:1024400069EC27F00301616F0050020F036E000E6C
:102450000120046E000E022003C0E9FF04C0F3FF58
:1024600069EC27F00301626F0050030F036E000E4A
:102470000120046E000E022003C0E9FF04C0F3FF38
:1024800069EC27F00301636F0050040F036E000E28
:102490000120046E000E022003C0E9FF04C0F3FF18
:1024A00069EC27F00301646F0050050F036E000E06
:1024B0000120046E000E022003C0E9FF04C0F3FFF8
:1024C00069EC27F00301656F060E0026000E01225D
:1024D000022200C0E9FF01C0F3FF025069EC27F0BF
:1024E0000301666F0A0E676F090EE56E800EE56EDA
:1024F000030EE56E5F0EE56E06EC17F0040EE126A6
:10250000E4CF04F0E4CF03F0E4CF02F0E4CF01F035
:10251000E4CF00F0E4CFD9FF120000C0E5FF01C016
:10252000E5FF02C0E5FF03C0E5FF04C0E5FFACA284
:102530007ED06EEC25F0006E005005E104013E6B8C
:1025400004013D6B74D03EC401F0005001266EECD6
:1025500025F0026E0050036E0304006E0250230A41
:102560001FE1010E005CD8A060D06EEC25F0026E79
:10257000690A03E169EC23F058D00250720A03E1C2
:1025800097EC27F052D00250730A01E04ED09480AD
:10259000AB869D8A9D98AE50AE50AB98AB8845D027
:1025A0000250430A05E00250420A01E03ED006D044
:1025B00000C003F0046A038E0350006E00C093F362
:1025C00000500401006F010E0301946F04013E519D
:1025D000011814E06EEC25F0026E03019327000E43
:1025E00003019425006E036A040E032200C0E9FF74
:1025F00003C0EAFF02C0EFFF942BE8D7000E0301EF
:102600009425006E026A040E02220301931D036EDC
:10261000032A00C0E9FF02C0EAFF03C0EFFF030185
:10262000942B94C391F303018B6B01C03EF4E4CF70
:1026300004F0E4CF03F0E4CF02F0E4CF01F0E4CF04
:1026400000F01200D9CFE5FFE1CFD9FF00C0E5FFD0
:1026500001C0E5FF02C0E5FF03C0E5FF04C0E5FFE0
:1026600006C0E5FF020EDBCF00F0030EDBCF01F06A
:10267000040EDBCF02F03F0EC716C66AC56A0050D3
:10268000C6120150C7129488820E006E0F0E016EA2
:102690000F0E046E380E0026045001220F0E046E39
:1026A000800E005E0450015A820E036E0F0E046EFF
:1026B0000F0E066E380E0326065004220F0E066E0D
:1026C000800E035E0650045A03C0E9FF04C0EAFF0F
:1026D000EFCF03F0039800C0E9FF01C0EAFF03C099
:1026E000EFFF9486820E006E0F0E016E0F0E046EC9
:1026F000380E0026045001220F0E046E800E005E7C
:102700000450015A820E036E0F0E046E0F0E066EF9
:10271000380E0326065004220F0E066E800E035E4E
:102720000650045A03C0E9FF04C0EAFFEFCF03F0EC
:10273000039600C0E9FF01C0EAFF03C0EFFF02C03B
:10274000C8FFC6CF00F0008A0050C66E9E96A196C4
:10275000E4CF06F0E4CF04F0E4CF03F0E4CF02F0DE
:10276000E4CF01F0E4CF00F0E4CFD9FF1200D9CFDD
:10277000E5FFE1CFD9FF00C0E5FF01C0E5FF02C0E2
:10278000E5FF03C0E5FF04C0E5FF05C0E5FF06C0A7
:10279000E5FF07C0E5FF08C0E5FF09C0E5FF0AC087
:1027A000E5FF020EDBCF00F0030EDBCF01F0040EDD
:1027B000DBCF02F0050EDBCF03F0060EDBCF04F01B
:1027C000070EDBCF05F00038E8441F0B066E076AE2
:1027D000810E0626030E072206C0E9FF07C0EAFFA6
:1027E000EFCF08F00050096E070E0916010E0A6EB1
:1027F00009500DE006E6E86CD8900A36010FFDE3BB
:1028000006D0D8900ABED8800A32010FFBE30850E8
:102810000A1206C0E9FF07C0EAFF0AC0EFFF230E55
:102820000024066E076A0F0E072206C0E9FF07C0E4
:10283000EAFF01C0EFFF016A230E0026040E012209
:10284000800E025E070E02160238F00B036E070EB2
:1028500005160550032600C0E9FF01C0EAFF03C0CA
:10286000EFFFE4CF0AF0E4CF09F0E4CF08F0E4CFC3
:1028700007F0E4CF06F0E4CF05F0E4CF04F0E4CFB6
:1028800003F0E4CF02F0E4CF01F0E4CF00F0E4CFB6
:10289000D9FF1200D9CFE5FFE1CFD9FF00C0E5FF96
:1028A00001C0E5FF02C0E5FF03C0E5FF04C0E5FF8E
:1028B00005C0E5FF06C0E5FF07C0E5FF08C0E5FF6E
:1028C00009C0E5FF0AC0E5FF0BC0E5FF0CC0E5FF4E
:1028D0000DC0E5FF020EDBCF00F0030EDBCF01F0F1
:1028E000040EDBCF02F0050EDBCF03F0060EDBCFCC
:1028F00004F0070EDBCF05F0080EDBCF06F0090E63
:10290000DBCF07F0086A096A0A6A0B6A200E0C6EB0
:102910000350800BE8440D6E00500026013602364D
:1029200003360850082609360A360B360D50D8A44F
:10293000088007500B5C08E106500A5C05E1055071
:10294000095C02E10450085C09E30450085E05508C
:10295000095A06500A5A07500B5A00800C040D6E93
:102960000DC00CF00D50D4E103C0E9FF02C0F4FF2C
:1029700001C0F3FF0050E4CF0DF0E4CF0CF0E4CF42
:102980000BF0E4CF0AF0E4CF09F0E4CF08F0E4CF95
:1029900007F0E4CF06F0E4CF05F0E4CF04F0E4CF95
:1029A00003F0E4CF02F0E4CF01F0E4CF00F0E4CF95
:1029B000D9FF120000C0E5FF01C0E5FF03C0E5FF3D
:1029C00004C0E5FF05C0E5FF06C0E5FF07C0E5FF61
:1029D00008C0E5FF09C0E5FF0AC0E5FF0BC0E5FF41
:1029E0007EC400F07FC401F004017E3F01D07F2B44
:1029F0000050E56E89EC27F0E652076E046A056A1E
:102A0000066A7EC400F07FC401F004017E3F01D05D
:102A10007F2B0050E56E89EC27F0E6520B6A0A6EB8
:102A2000086A0850041205120A5006120B500712C9
:102A30007EC400F07FC401F004017E3F01D07F2BF3
:102A40000050E56E89EC27F0E652036E006A03C081
:102A500001F0E86A03BEFF0E086E096E0050041212
:102A60000150051208500612095007127EC400F0EA
:102A70007FC401F004017E3F01D07F2B0050E56E42
:102A800089EC27F0E652016A041201500512061281
:102A9000071207C0E9FF06C0F4FF05C0F3FF0450AA
:102AA000E4CF0BF0E4CF0AF0E4CF09F0E4CF08F074
:102AB000E4CF07F0E4CF06F0E4CF05F0E4CF04F074
:102AC000E4CF03F0E4CF01F0E4CF00F01200D9CF5F
:102AD000E5FFE1CFD9FF00C0E5FF01C0E5FF02C07F
:102AE000E5FF03C0E5FF04C0E5FF05C0E5FF06C044
:102AF000E5FF07C0E5FF020EDBCF00F0030EDBCFE2
:102B000001F0040EDBCF02F0050EDBCF03F003C0B3
:102B100004F0056A0350D8B454D000C0E9FF01C0E6
:102B2000F3FF025069EC27F0066E430A08E1010E3C
:102B3000056E03C006F0076A068E0650036E040693
:102B4000002A02E3014A022A9D9AAB9894909D982C
:102B50009EA8FED7AC80AD6A00009EA8FED7AC90C0
:102B600003C0ADFF00009EA8FED7055004E0420E52
:102B7000AD6E032604D0620EAD6E620E03260450C5
:102B800015E000009EA8FED700C0E9FF01C0F3FFDA
:102B9000025069EC27F0056E05C0ADFF0550032615
:102BA0000406002A02E3014A022AE9D700009EA88F
:102BB000FED7031CAD6EAD2A00009EA8FED797EC91
:102BC00027F0E4CF07F0E4CF06F0E4CF05F0E4CF40
:102BD00004F0E4CF03F0E4CF02F0E4CF01F0E4CF5F
:102BE00000F0E4CFD9FF1200D9CFE5FFE1CFD9FF44
:102BF00000C0E5FF01C0E5FF02C0E5FF03C0E5FF3F
:102C000004C0E5FF05C0E5FF06C0E5FF07C0E5FF1E
:102C1000020EDBCF00F0030EDBCF01F0040EDBCFA2
:102C200002F0050EDBCF03F002C006F00650046E82
:102C3000800A33E100C0E9FF01C0F3FF025023EC3A
:102C400026F0056EF3CF06F0F4CF07F003C0E5FFE2
:102C500005C0E9FF06C0F3FF0750EEEC27F000C007
:102C6000E9FF01C0F3FF025023EC26F0056EF3CF1D
:102C700006F0F4CF07F0052A02E3064A072A05C04A
:102C8000E5FF06C0F4FF07C0F6FF00C0E9FF01C082
:102C9000F3FF02507AEC27F020D004C000F000AA25
:102CA0001CD0007A0050046E04E103503FEC28F081
:102CB00014D00450010A04E1035052EC28F00DD066
:102CC00004500F0A04E1035038EC23F006D00450FE
:102CD0000E0A03E103504FEC28F0E4CF07F0E4CFF5
:102CE00006F0E4CF05F0E4CF04F0E4CF03F0E4CF46
:102CF00002F0E4CF01F0E4CF00F0E4CFD9FF1200FE
:102D0000D9CFE5FFE1CFD9FF00C0E5FF01C0E5FF66
:102D100002C0E5FF03C0E5FF04C0E5FF06C0E5FF14
:102D200007C0E5FF08C0E5FF020EDBCF00F0030E91
:102D3000DBCF01F0040EDBCF02F0050EDBCF03F09A
:102D400000C0E9FF01C0F3FF025069EC27F0046EF8
:102D5000E56AE56E9DEC22F0E652E652010E0314A0
:102D6000066E076A086A065003E1075001E1082A67
:102D70000850E56E8DEC25F0E6523BEC28F0010E94
:102D8000E56E0450E56E9DEC22F0E652E6520650E8
:102D9000071016E00050010F046E000E0120066EB1
:102DA000000E0220076EBCEC24F0E56E04C0E9FFC3
:102DB00006C0F3FF0750EEEC27F003B22DEC25F030
:102DC00003A20FD0020E0026000E01220222BCEC4C
:102DD00024F0E56E00C0E9FF01C0F3FF0250EEEC05
:102DE00027F03BEC28F0E4CF08F0E4CF07F0E4CF85
:102DF00006F0E4CF04F0E4CF03F0E4CF02F0E4CF38
:102E000001F0E4CF00F0E4CFD9FF1200D9CFE5FF05
:102E1000E1CFD9FF00C0E5FF01C0E5FF02C0E5FF3B
:102E200003C0E5FF04C0E5FF05C0E5FF06C0E5FF00
:102E300007C0E5FF020EDBCF00F0030EDBCF01F091
:102E4000040EDBCF02F0050EDBCF03F03EC43FF4EF
:102E500004013D5104013F5F3F51046E04043F6F84
:102E600003C004F0056A030E0426D8B0052A3FC447
:102E700006F0076A0750800FF36E0550800FF35C71
:102E800002E10450065C02E2E86830D0020E035C06
:102E900002E2E86A2BD00350046E0404036EE56E70
:102EA000B2EC21F0E652046A0350045C14E20450D0
:102EB0000024056EE86A0120066EE86A022005C05B
:102EC000E9FF06C0F3FF69EC27F0042AE56EB2ECD7
:102ED00021F0E652E9D73EC43FF404013D5104011C
:102EE0003F5F3F51006E00043F6FE86AE4CF07F098
:102EF000E4CF06F0E4CF05F0E4CF04F0E4CF03F034
:102F0000E4CF02F0E4CF01F0E4CF00F0E4CFD9FF4A
:102F1000120000C0E5FF01C0E5FF02C0E5FF03C0ED
:102F2000E5FF04C0E5FF006A810E0024016E026A1D
:102F3000030E022201C0E9FF02C0EAFFEF6A002A85
:102F4000020E005CF1E3006A0050020DF450026EC4
:102F5000F3CF01F0E00E0124036E000E0220046E98
:102F600003C0E9FF04C0EAFFEE6AEF6A5A0E0124CB
:102F7000036E040E0220046E03C0E9FF04C0EAFFE2
:102F8000EE6AEF6A930E0124036E040E0220046EB3
:102F900003C0E9FF04C0EAFFEE6AEF6AB30E012442
:102FA000036E040E0220046E03C0E9FF04C0EAFFB2
:102FB000EE6AEF6AD30E0126040E022201C0E9FF79
:102FC00002C0EAFFEE687F0EEF6E230E0024016E52
:102FD000026A040E022201C0E9FF02C0EAFFEF68A4
:102FE000002A100E005CD8A0AFD7AF0EC06EC16A29
:102FF000010EC26EC282E4CF04F0E4CF03F0E4CF4E
:1030000002F0E4CF01F0E4CF00F0120043204120B1
:1030100025642025640A0000D9CFE5FFE1CFD9FF60
:1030200000C0E5FF01C0E5FF02C0E5FF03C0E5FF0A
:1030300004C0E5FF05C0E5FF020EDBCF00F0030E84
:10304000DBCF01F0040EDBCF02F0050EDBCF03F087
:10305000060EDBCF04F0070EDBCF05F0035009E0CE
:1030600003C0E5FF00C0E9FF01C0F3FF0250EEEC32
:1030700027F0E56A0350E56E9DEC22F0E652E65239
:10308000060EE56E8DEC25F0E6520450E56E8DECF3
:1030900025F0E6520550E56E8DEC25F0E6523BEC4E
:1030A00028F00050030F036E000E0120046E000E86
:1030B0000220056E040E0026000E01220222E568A1
:1030C00000C0E9FF01C0F3FF0250EEEC27F000C0A2
:1030D000E9FF01C0F3FF025069EC27F0FF0BE56E3A
:1030E00003C0E9FF04C0F3FF0550EEEC27F0E4CF86
:1030F00005F0E4CF04F0E4CF03F0E4CF02F0E4CF36
:1031000001F0E4CF00F0E4CFD9FF120000C0E5FFEA
:1031100001C0E5FF02C0E5FF03C0E5FF5DEC11F073
:103120000EEC04F00CEC10F05DEC11F0C9EC23F0A7
:103130005DEC11F0F3EC23F0006EF3CF01F0F4CF6F
:1031400002F0E9CF03F00F013351005E3451015A10
:103150003551025A3651035A039E3F0E035C08E173
:10316000FF0E025C05E1FF0E015C02E1FF0E005C58
:10317000D8B03CD0F3EC23F0F3CF01F0F4CF02F061
:10318000E9CF03F0880F0F01336F130E0120346F66
:10319000000E0220356F000E0320366F3AC400F097
:1031A00000B00DD0010EE56E800EE56E040EE56EEA
:1031B000810EE56EF5EC11F0040EE12602D007EC6D
:1031C00023F045EC0CF0006E0050D8B45EEC06F035
:1031D00004013A2B5DEC11F0800EE56E040EE56EF5
:1031E000810EE56E3DEC0FF0030EE126E4CF03F017
:1031F000E4CF02F0E4CF01F0E4CF00F01200D9CF29
:10320000E5FFE1CFD9FF00C0E5FF01C0E5FF02C047
:10321000E5FF03C0E5FF05C0E5FF06C0E5FF07C009
:10322000E5FF020EDBCF00F0030EDBCF01F0040E52
:10323000DBCF02F0050EDBCF03F000C0E9FF01C0D9
:10324000F3FF025069EC27F0E56AE56E9DEC22F091
:10325000E652E652010E0314056E066A076A05502F
:1032600003E1065001E1072A072A072A0750E56E05
:103270008DEC25F0E6520550061013E00050030FC8
:10328000056E000E0120066E000E022005C0E9FF4B
:1032900006C0F3FF69EC27F0FF0BE56E8DEC25F01F
:1032A000E65203A211D0040E0026000E01220222D3
:1032B00000C0E9FF01C0F3FF025069EC27F0FF0BEB
:1032C000E56E8DEC25F0E6523BEC28F0E4CF07F0FC
:1032D000E4CF06F0E4CF05F0E4CF03F0E4CF02F052
:1032E000E4CF01F0E4CF00F0E4CFD9FF1200D9CF52
:1032F000E5FFE1CFD9FF00C0E5FF01C0E5FF02C057
:10330000E5FF03C0E5FF04C0E5FF05C0E5FF020ED1
:10331000DBCF00F0030EDBCF01F0040EDBCF02F0B9
:103320000050020DF450036EF3CF00F05A0E00244B
:10333000046E040E0320056E04C0E9FF05C0EAFF19
:1033400001C0EEFF02C0EFFF930E0024046E040ED6
:103350000320056E04C0E9FF05C0EAFFEECF04F0CC
:10336000EFCF05F00150045C016E02500558026E6B
:10337000000E0026030E032200C0E9FF03C0EAFF8F
:1033800001C0EEFF02C0EFFFD88002AED89004E388
:10339000021E016CD8B4022A0250800F800F02E195
:1033A000030E015C02E2016A026A0150021007E1A9
:1033B00000C0E9FF03C0EAFF000EEE6AEF6AE4CF47
:1033C00005F0E4CF04F0E4CF03F0E4CF02F0E4CF63
:1033D00001F0E4CF00F0E4CFD9FF1200D9CFE5FF30
:1033E000E1CFD9FF00C0E5FF01C0E5FF02C0E5FF66
:1033F00003C0E5FF04C0E5FF05C0E5FF06C0E5FF2B
:10340000020EDBCF00F0030EDBCF01F0040EDBCFAA
:1034100002F0050EDBCF03F0D88001AED890046A2D
:103420000436045007E0011C066E001C056E054AB8
:10343000062A04D000C005F001C006F0D88003AE13
:10344000D89007E3031C016E021C006E004A012A9B
:1034500004D002C000F003C001F00150E56E00503E
:10346000E56E0650E56E0550E56EBAEC1CF0006E98
:10347000F3CF01F0040EE12604500AE0011C036EB4
:10348000001C026E024A032A03C0F3FF025003D05D
:1034900001C0F3FF0050E4CF06F0E4CF05F0E4CF25
:1034A00004F0E4CF03F0E4CF02F0E4CF01F0E4CF86
:1034B00000F0E4CFD9FF1200D9CFE5FFE1CFD9FF6B
:1034C00000C0E5FF01C0E5FF02C0E5FF03C0E5FF66
:1034D00004C0E5FF05C0E5FF020EDBCF00F0030EE0
:1034E000DBCF01F0040EDBCF02F0050EDBCF03F0E3
:1034F0007EC404F07FC405F004017E3F01D07F2B21
:103500000350E56E0450E56E09EC25F0E652E652F4
:103510007EC404F07FC405F004017E3F01D07F2B00
:103520000250056EE56E0450E56E09EC25F0E6529A
:10353000E6527EC404F07FC405F004017E3F01D052
:103540007F2B0150E56E0450E56E09EC25F0E65244
:10355000E6527EC404F07FC405F004017E3F01D032
:103560007F2B0050E56E0450E56E09EC25F0E65225
:10357000E652E4CF05F0E4CF04F0E4CF03F0E4CF6B
:1035800002F0E4CF01F0E4CF00F0E4CFD9FF120065
:10359000D9CFE5FFE1CFD9FF00C0E5FF01C0E5FFCE
:1035A00002C0E5FF03C0E5FF04C0E5FF05C0E5FF7D
:1035B00006C0E5FF020EDBCF00F0030EDBCF01F00B
:1035C0000038E8441F0B026E036A810E0226030EC8
:1035D000032202C0E9FF03C0EAFFEFCF04F000506E
:1035E000056E070E0516010E066E05500DE006E687
:1035F000E86CD8900636010FFDE306D0D89006BEE1
:10360000D8800632010FFBE30450061202C0E9FF26
:1036100003C0EAFF06C0EFFF230E0024026E036A18
:103620000F0E032202C0E9FF03C0EAFF01C0EFFF53
:10363000016A230E0026040E012200C0E9FF01C02A
:10364000EAFFFF0EEF68E4CF06F0E4CF05F0E4CF29
:1036500004F0E4CF03F0E4CF02F0E4CF01F0E4CFD4
:1036600000F0E4CFD9FF1200D9CFE5FFE1CFD9FFB9
:1036700000C0E5FF01C0E5FF02C0E5FF03C0E5FFB4
:1036800004C0E5FF05C0E5FF06C0E5FF020EDBCF85
:1036900000F0030EDBCF01F0040EDBCF02F00301DC
:1036A0008A5119E1DAEC14F0036EF3CF04F0F4CF91
:1036B00005F0E9CF06F003C0E5FF04C0F4FF05C044
:1036C000F6FF06C0F7FF00C0E9FF01C0F3FF02509C
:1036D00058EC27F01ED003018A51010A1AE100C0FC
:1036E000E9FF01C0F3FF02504EEC25F0006EF3CF6E
:1036F00001F0F4CF02F0E9CF03F00350E56E025081
:10370000E56E0150E56E0050E56E5CEC1AF0040EBB
:10371000E126E4CF06F0E4CF05F0E4CF04F0E4CFF7
:1037200003F0E4CF02F0E4CF01F0E4CF00F0E4CF07
:10373000D9FF1200D9CFE5FFE1CFD9FF00C0E5FFE7
:1037400001C0E5FF02C0E5FF03C0E5FF04C0E5FFDF
:1037500005C0E5FF06C0E5FF020EDBCF00F0030E5B
:10376000DBCF01F0040EDBCF02F0050EDBCF03F060
:10377000060EDBCF04F0070EDBCF05F0080EDBCF23
:1037800006F0D88003AED89015E306500A0A12E17D
:1037900004C0E9FF05C0EAFF2D0EEF6E044A052ABA
:1037A000031E021E011E006C05E1012A03E1022A2C
:1037B000D8B4032A0650E56E0550E56E0450E56E58
:1037C0000350E56E0250E56E0150E56E0050E56E67
:1037D00061EC0EF0070EE126E4CF06F0E4CF05F031
:1037E000E4CF04F0E4CF03F0E4CF02F0E4CF01F043
:1037F000E4CF00F0E4CFD9FF120000C0E5FF01C024
:10380000E5FF02C0E5FF1DEC24F0006E450A27E14C
:10381000000EE56E470EE56EE00EE56EF6EC20F06C
:10382000030EE12649EC28F0006E00C001F001C053
:1038300002F0010602500FE01DEC24F0E56AE56E8F
:10384000000EE56E470EE56EE20EE56EF6EC20F03A
:10385000050EE126ECD70A0E38EC23F026D00050F6
:10386000520A23E1270EE56EE56A080EE56E22ECAA
:1038700013F0030EE126010EE56E800EE56E040ED8
:10388000E56E810EE56E17EC1DF0040EE126E56A8B
:10389000E568200EE56E800EE56E040EE56E330ED3
:1038A000E56E0CEC18F0060EE126E4CF02F0E4CF52
:1038B00001F0E4CF00F01200D8CFE5FFE0CFE5FF44
:1038C000E56EF3CFE5FFF4CFE5FFE9CFE5FFEACF03
:1038D000E5FFFACFE5FFFBCFE5FFF6CFE5FFF6CF3B
:1038E000E5FFF7CFE5FFF8CFE5FFF5CFE5FFE1CF47
:1038F000E5FFE2CFE5FF04013B5104017C6F0401C9
:103900003C5104017D6FD6507A6FD7507B6FF2A483
:1039100011D004013B3F01D03C2BF29404013B51F8
:1039200004017C6F04013C5104017D6FD6507A6F15
:10393000D7507B6FE4CFE2FFE4CFE1FFE4CFF5FFA8
:10394000E4CFF8FFE4CFF7FFE4CFF6FFE4CFF6FFD4
:10395000E4CFFBFFE4CFFAFFE4CFEAFFE4CFE9FFD7
:10396000E4CFF4FFE4CFF3FFE450E4CFE0FFE4CF93
:10397000D8FF1000D9CFE5FFE1CFD9FF00C0E5FFA8
:1039800001C0E5FF02C0E5FF03C0E5FF04C0E5FF9D
:1039900005C0E5FF06C0E5FF020EDBCF00F0030E19
:1039A000DBCF01F0040EDBCF02F0050EDBCF03F01E
:1039B000046A056A0350800BE844066E065011E164
:1039C0000250022603360350015C02E10250005C03
:1039D00004E2D8900332023204D0052A05C004F074
:1039E000E9D70350015C02E10250005C04E302509D
:1039F000005E0350015AD8900332023204C005F031
:103A000004060550EEE101C0F3FF0050E4CF06F0DC
:103A1000E4CF05F0E4CF04F0E4CF03F0E4CF02F00C
:103A2000E4CF01F0E4CF00F0E4CFD9FF1200D9CF0A
:103A3000E5FFE1CFD9FF00C0E5FF01C0E5FF02C00F
:103A4000E5FF03C0E5FF020EDBCF00F0030EDBCF86
:103A500001F0040EDBCF02F0050EDBCF03F00350C4
:103A600003E11D0E036E02D0530E036E03C0E5FF8B
:103A700000C0E9FF01C0F3FF0250EEEC27F0E56A59
:103A80002D0EE56E0350E56E9AEC23F0030EE12651
:103A9000100EE56E2D0EE56E0350E56E9AEC23F0E8
:103AA000030EE126080EE56E2D0EE56E0350E56E61
:103AB0009AEC23F0030EE1260B0EE56E310EE56E57
:103AC0000350E56E9AEC23F0030EE126E4CF03F0F9
:103AD000E4CF02F0E4CF01F0E4CF00F0E4CFD9FF6F
:103AE0001200D9CFE5FFE1CFD9FF00C0E5FF01C04B
:103AF000E5FF02C0E5FF03C0E5FF020EDBCF00F0EB
:103B0000030EDBCF01F0040EDBCF02F000C0E9FFB3
:103B100001C0F3FF025069EC27F0036E035029E067
:103B2000C6A610D00350E56E8DEC25F0036EE6526C
:103B3000035002E0FD0E1ED063EC22F0C5AC14D0A1
:103B4000FE0E18D09E9600C0E9FF01C0F3FF0250A0
:103B500069EC27F0C96EC6889EA6FED7C7B404D00C
:103B6000C7B002D0FE0E06D0002AD0E3014A022AD6
:103B7000CDD7E86AE4CF03F0E4CF02F0E4CF01F060
:103B8000E4CF00F0E4CFD9FF1200D9CFE5FFE1CFB9
:103B9000D9FF00C0E5FF01C0E5FF02C0E5FF03C09B
:103BA000E5FF04C0E5FF05C0E5FF020EDBCF00F036
:103BB000030EDBCF01F0040EDBCF02F0050EDBCFEE
:103BC00003F0046A03C005F00306055022E0BCECD4
:103BD00024F0056E05C0E5FF00C0E9FF01C0F3FF5A
:103BE0000250EEEC27F0002A02E3014A022A04C048
:103BF00005F0C5A6E7D7A1A602D0E8680BD0052A34
:103C000005C004F00350F5E02DEC25F0C5B8FED753
:103C1000F0D70450E4CF05F0E4CF04F0E4CF03F094
:103C2000E4CF02F0E4CF01F0E4CF00F0E4CFD9FF1D
:103C3000120000C0E5FF01C0E5FF02C0E5FF03C0C0
:103C4000E5FF90C300F0016A9BC302F0036A0250D3
:103C5000005E0350015AE56A800EE56E0150E56E84
:103C60000050E56EEEEC19F0006E040EE126000641
:103C70009BC301F0430E38EC23F0200E38EC23F008
:103C8000005020E0600E0124026E036A000E032241
:103C900002C0E9FF03C0EAFFEFCF02F0E56A02507D
:103CA000E56E000EE56E4F0EE56E460EE56EF6EC27
:103CB00020F0050EE126012A0150800A01E1016A87
:103CC0000006DED7E4CF03F0E4CF02F0E4CF01F04A
:103CD000E4CF00F01200D9CFE5FFE1CFD9FF00C05B
:103CE000E5FF01C0E5FF02C0E5FF03C0E5FF04C03A
:103CF000E5FF020EDBCF00F0030EDBCF01F0040E78
:103D0000DBCF02F003018A5111E1D3EC22F0036E04
:103D1000F3CF04F003C0E5FF04C0F4FF00C0E9FFE7
:103D200001C0F3FF0250C0EC27F016D003018A5106
:103D3000010A12E100C0E9FF01C0F3FF0250E2EC0A
:103D400026F0006EF3CF01F00150E56E0050E56EF5
:103D500075EC21F0E652E652E4CF04F0E4CF03F034
:103D6000E4CF02F0E4CF01F0E4CF00F0E4CFD9FFDC
:103D70001200D9CFE5FFE1CFD9FF00C0E5FF01C0B8
:103D8000E5FF02C0E5FF03C0E5FF04C0E5FF020E4A
:103D9000DBCF00F00038E8441F0B016E026A850E8D
:103DA0000126030E022201C0E9FF02C0EAFFEFCFA5
:103DB00001F0070E0016010E026E000E036E005099
:103DC00006E0E86CD89002360336010FFCE3046A83
:103DD000015002160450031602500310D880E86602
:103DE000D890026A02360250D880E866D890026AFB
:103DF00002360250E4CF04F0E4CF03F0E4CF02F047
:103E0000E4CF01F0E4CF00F0E4CFD9FF1200460E7A
:103E1000F66E500EF76E000EF86E0900F550056E46
:103E20000900F550066E04E1056702D054EF1FF05B
:103E30000900F550006E0900F550016E0900F550BB
:103E4000026E09000900F550E96E0900F550EA6EAE
:103E5000090009000900F550036E0900F550046ED1
:103E600009000900F6CF07F0F7CF08F0F8CF09F006
:103E700000C0F6FF01C0F7FF02C0F8FF035002E1E7
:103E8000045007E00900F550EE6E0306F8E2040660
:103E9000F9D707C0F6FF08C0F7FF09C0F8FF05060D
:103EA00001E2060613EF1FF01200D9CFE5FFE1CFC4
:103EB000D9FF00C0E5FF01C0E5FF02C0E5FF03C078
:103EC000E5FF04C0E5FF020EDBCF00F00038E84458
:103ED0001F0B016E026A810E0126030E022201C031
:103EE000E9FF02C0EAFFEFCF03F0070E0016010E54
:103EF000046E00500DE006E6E86CD8900436010F21
:103F0000FDE306D0D89004BED8800432010FFBE355
:103F1000041C006E0350001601C0E9FF02C0EAFF56
:103F200000C0EFFFE4CF04F0E4CF03F0E4CF02F0F1
:103F3000E4CF01F0E4CF00F0E4CFD9FF1200D9CFF5
:103F4000E5FFE1CFD9FF00C0E5FF01C0E5FF02C0FA
:103F5000E5FF03C0E5FF04C0E5FF05C0E5FF020E75
:103F6000DBCF00F00050010A22E1016A0150020D8E
:103F7000F450036EF3CF02F0B30E0224046E040E6D
:103F80000320056E04C0E9FF05C0EAFFEE687F0E5E
:103F9000EF6ED30E0226040E032202C0E9FF03C017
:103FA000EAFFEE6AEF6A012A100E015CDFE300C04F
:103FB00043F4E4CF05F0E4CF04F0E4CF03F0E4CF22
:103FC00002F0E4CF01F0E4CF00F0E4CFD9FF12001B
:103FD00000C0E5FF01C0E5FF02C0E5FF03C0E5FF4B
:103FE00004C0E5FF006A830E0024016E026A030E1E
:103FF0000222850E0024036E046A030E042203C00D
:10400000E9FF04C0EAFF010EEF6E01C0E9FF02C044
:10401000EAFFEF6E002A020E005CE5E3006A400E44
:104020000024016E026A030E022201C0E9FF02C0F1
:10403000EAFFEF68002A100E005CF1E3E4CF04F021
:10404000E4CF03F0E4CF02F0E4CF01F0E4CF00F0DE
:1040500012004320732025642025640A0000D9CF74
:10406000E5FFE1CFD9FF00C0E5FF01C0E5FF02C0D9
:10407000E5FF03C0E5FF04C0E5FF05C0E5FF020E54
:10408000DBCF00F0030EDBCF01F0040EDBCF02F03C
:10409000050EDBCF03F0060EDBCF04F0056A400E01
:1040A0000026030E0522800E015E070E0116013860
:1040B000F00B026E070E04160450022600C0E9FF42
:1040C00005C0EAFF02C0EFFFE4CF05F0E4CF04F043
:1040D000E4CF03F0E4CF02F0E4CF01F0E4CF00F04E
:1040E000E4CFD9FF120000C0E5FF01C0E5FF02C028
:1040F000E5FF1DEC24F0006E1DEC24F0016E005075
:10410000026ED00E0224006E0A0E005C05E3005021
:10411000026EF90E0224006E0150026ED00E0224CF
:10412000016E0A0E015C05E30150026EF90E0224D5
:10413000016E080E005C12E2100E015CD8B00ED0C9
:104140000038F00B0124006E29EC22F0016E0150C2
:1041500005E10050E56E58EC26F0E652E4CF02F09F
:10416000E4CF01F0E4CF00F01200D8CFE5FFE0CFBC
:10417000E5FFE56EF3CFE5FFF4CFE5FFE9CFE5FF1F
:10418000EACFE5FFFACFE5FFFBCFE5FFF6CFE5FF8E
:10419000F6CFE5FFF7CFE5FFF8CFE5FFF5CFE5FF79
:1041A000E1CFE5FFE2CFE5FF24EC0BF0E4CFE2FF47
:1041B000E4CFE1FFE4CFF5FFE4CFF8FFE4CFF7FF72
:1041C000E4CFF6FFE4CFF6FFE4CFFBFFE4CFFAFF46
:1041D000E4CFEAFFE4CFE9FFE4CFF4FFE4CFF3FF5D
:1041E000E450E4CFE0FFE4CFD8FF1000D9CFE5FFE3
:1041F000E1CFD9FF00C0E5FF01C0E5FF02C0E5FF48
:10420000020ED924006E000EDA20016E800E026EBE
:10421000030E0026000E012202220250E56E01501C
:10422000E56E0050E56E040EDBCFE5FF030EDBCF3D
:10423000E5FF020EDBCFE5FF03017A51E56E795110
:10424000E56E7851E56E0EEC00F0006EF3CF01F0F4
:10425000090EE12601C0F3FF0050E4CF02F0E4CFE5
:1042600001F0E4CF00F0E4CFD9FF1200D9CFE5FF91
:10427000E1CFD9FF00C0E5FF01C0E5FF02C0E5FFC7
:1042800003C0E5FF020EDBCF00F0030EDBCF01F031
:10429000040EDBCF02F003018A510DE1B6EC26F0EB
:1042A000036E03C0E5FF00C0E9FF01C0F3FF025049
:1042B000EEEC27F00FD003018A51010A0BE100C098
:1042C000E9FF01C0F3FF025069EC27F0E56EE3EC73
:1042D00024F0E652E4CF03F0E4CF02F0E4CF01F0A3
:1042E000E4CF00F0E4CFD9FF1200D9CFE5FFE1CF52
:1042F000D9FF00C0E5FF01C0E5FF02C0E5FF03C034
:10430000E5FF020EDBCF00F0030EDBCF01F07EC431
:1043100002F07FC403F004017E3F01D07F2B0150E7
:10432000E56E0250E56E09EC25F0E652E6527EC4D9
:1043300002F07FC403F004017E3F01D07F2B0050C8
:10434000E56E0250E56E09EC25F0E652E652E4CF48
:1043500003F0E4CF02F0E4CF01F0E4CF00F0E4CFCB
:10436000D9FF1200D9CFE5FFE1CFD9FF00C0E5FFAB
:1043700001C0E5FF02C0E5FF03C0E5FF04C0E5FFA3
:10438000020EDBCF00F03DC401F0026A014A022AAE
:104390003EC403F0046A0150031803E102500418FC
:1043A00001E001D00ED0000E04013D25016E026A2D
:1043B000010E022201C0E9FF02C0EAFF00C0EFFFC8
:1043C0003D2BE4CF04F0E4CF03F0E4CF02F0E4CFE0
:1043D00001F0E4CF00F0E4CFD9FF1200D9CFE5FF20
:1043E000E1CFD9FF00C0E5FF01C0E5FF02C0E5FF56
:1043F00003C0E5FF020EDBCF00F0016A9BC302F0B1
:10440000036A0250002603500122E56A800EE56E21
:104410000150E56E0050E56EEEEC19F0006EF3CF42
:1044200001F0040EE126600E0026000E012200C0FD
:10443000E9FF01C0EAFFEFCF00F00050E4CF03F046
:10444000E4CF02F0E4CF01F0E4CF00F0E4CFD9FFF5
:10445000120000C0E5FF01C0E5FF02C0E5FF010E4C
:10446000006E1DEC24F0016E01C002F0015023E04B
:104470000050E56E89EC27F0016EE652015010E124
:104480000A0E005C0BE20A0E006EE56E89EC27F066
:10449000016EE652015004E1E8680ED0E8680CD0E5
:1044A0000150021802E0E86807D0002A1B0E005CE9
:1044B000D8E3E86801D0E86AE4CF02F0E4CF01F085
:1044C000E4CF00F0120000C0E5FF01C0E5FF02C02C
:1044D000E5FF03C0E5FF04C0E5FF05C0E5FFE80E0A
:1044E000006E030E016EFF0E002601220050011027
:1044F00010E0C5CF02F0036A1F0E0216046AC7B4AB
:10450000042A056A045002120550031202500310D7
:10451000EAE10401586B005003E1015001E1582B1E
:10452000E4CF05F0E4CF04F0E4CF03F0E4CF02F0F1
:10453000E4CF01F0E4CF00F01200D9CFE5FFE1CFE6
:10454000D9FF00C0E5FF01C0E5FF02C0E5FF020E94
:10455000DBCF00F0030EDBCF01F0ACEC25F0040163
:10456000585102E0E86816D00044FE0B026E01507C
:10457000D880E866D890016A01360150D880E86694
:10458000D890016A0136015002120250E56E8DEC9E
:1045900025F0E652E4CF02F0E4CF01F0E4CF00F0E2
:1045A000E4CFD9FF120000C0E5FF01C0E5FF02C063
:1045B000E5FF03C0E5FF7EC400F07FC401F0040105
:1045C0007E3F01D07F2B0050E56E89EC27F0E6524C
:1045D000036E026A7EC400F07FC401F004017E3FD6
:1045E00001D07F2B0050E56E89EC27F0E652016A7E
:1045F00002120150031203C0F3FF0250E4CF03F094
:10460000E4CF02F0E4CF01F0E4CF00F0120000C0EC
:10461000E5FF01C0E5FF010E006E420E0301506F81
:1046200004013451FF0B030187190DE00A0E030149
:10463000516F030E006E04013451FF0B016E01C077
:1046400087F30301526F020E005C0DE3002A005055
:10465000E56E800EE56E030EE56E500EE56E06EC1F
:1046600017F0040EE126E4CF01F0E4CF00F01200D1
:1046700000C0E5FF01C0E5FF02C0E5FF006E000ECF
:1046800004014225016E026A0F0E022201C0E9FFF9
:1046900002C0EAFF00C0EFFF220E425D01E2422BA2
:1046A00000500A0A0FE104014251E56E800EE56EEA
:1046B0000F0EE56E000EE56E06EC17F0040EE12617
:1046C0000401426BE4CF02F0E4CF01F0E4CF00F04C
:1046D000120004013D6B04013E6B04013F699480AC
:1046E0008B909480B06A3F0EAF6EB886AC8AAC8473
:1046F000AC8CAC90AB8CAB8E0301926B03018C6BDA
:1047000003018F6B0301906B0301916B000EE56A4F
:1047100089EC27F00401416FE6529F989F9A010EA1
:104720000401406F0301786B796B2F0E7A6F97EC61
:1047300027F01200D9CFE5FFE1CFD9FF00C0E5FF98
:1047400001C0E5FF02C0E5FF020EDBCF00F0030E63
:10475000DBCF01F0040EDBCF02F0E56A0050E56E1E
:104760009DEC22F0E652E6520150E56E8DEC25F00C
:10477000E6520250E56E8DEC25F0E6523BEC28F057
:10478000E4CF02F0E4CF01F0E4CF00F0E4CFD9FFB2
:1047900012000401392B3951010A05E00401395195
:1047A000020A0EE01AD0020EE56E800EE56E040ECF
:1047B000E56E330EE56EFFEC18F0040EE1260FD027
:1047C000010EE56E800EE56E040EE56E330EE56EAD
:1047D00080EC16F0040EE12602D00401396B1200C1
:1047E00043002563000004013B5104018C6F040168
:1047F0003C5104018D6FD6508A6FD7508B6F8C510E
:1048000004013B1905E104018D5104013C190CE040
:1048100004013B5104018C6F04013C5104018D6F74
:10482000D6508A6FD7508B6F8DC4E9FF8CC4F4FFCC
:104830008BC4F3FF04018A51120000C0E5FF01C0E0
:10484000E5FF030190510301991905E0030190511F
:1048500003018F1902E1E86A15D090C300F003014B
:10486000902B016A600E0026000E012200C0E9FFB5
:1048700001C0EAFFEFCF00F09051800A02E103018E
:10488000906B0050E4CF01F0E4CF00F0120000C0C4
:10489000E5FF43EC28F00401896B806B8983006A93
:1048A00089B3002A0050010BE844F46E8051FD0BDF
:1048B000F410806FD58ED59CD59AD588D596D59491
:1048C000D582D580F28AF184D08EF28EF28CBA80B5
:1048D000FF0EBB68BA84E4CF00F01200D9CFE5FF29
:1048E000E1CFD9FF00C0E5FF01C0E5FF020EDBCF3D
:1048F00000F00050020DF450016EF3CF00F0000EF6
:104900000026030E012200C0E9FF01C0EAFFEECF3E
:1049100000F0EFCF01F001C0F3FF0050E4CF01F051
:10492000E4CF00F0E4CFD9FF1200D9CFE5FFE1CF0B
:10493000D9FF00C0E5FF01C0E5FF020EDBCF00F0AC
:104940000050020DF450016EF3CF00F0E00E00268F
:10495000000E012200C0E9FF01C0EAFFEECF00F027
:10496000EFCF01F001C0F3FF0050E4CF01F0E4CF3E
:1049700000F0E4CFD9FF120000C0E5FF01C0E5FF61
:1049800002C0E5FF63EC22F0C586E80E006E030E60
:10499000016EFF0E002601220050011005E030ECF0
:1049A00028F0026E0250F5E00401586B005003E15C
:1049B000015001E1582BC950E4CF02F0E4CF01F0DF
:1049C000E4CF00F01200D9CFE5FFE1CFD9FF00C05E
:1049D000E5FF01C0E5FF02C0E5FF020EDBCF00F0FE
:1049E0007EC401F07FC402F004017E3F01D07F2B22
:1049F0000050E56E0150E56E09EC25F0E652E652F6
:104A0000E4CF02F0E4CF01F0E4CF00F0E4CFD9FF2F
:104A10001200D9CFE5FFE1CFD9FF00C0E5FF020EBC
:104A2000DBCF00F0030EDBCFA8FF00C0A9FFA69EDE
:104A3000A69CA684F29EF29C550EA76EAA0EA76EA7
:104A4000A682A6A202D00000FCD7A694F28EF28C19
:104A5000E4CF00F0E4CFD9FF120000C0E5FF01C0B1
:104A6000E5FF63EC22F09E96C59AC588E80E006EBD
:104A7000030E016EFF0E002601220050011002E01D
:104A80009EA6F8D70401586B005003E1015001E1E4
:104A9000582BE4CF01F0E4CF00F01200E8AE0AD0CA
:104AA000F3CFEAFFEE50EECFF3FFEECFF4FFEECF01
:104AB000E9FF1200E8BC58EF28F0E9CFF6FFF3CF8A
:104AC000F7FFF86E0900F5500900F5CFF3FF090074
:104AD000F5CFF4FF0900F5CFE9FF120000C0E5FFB4
:104AE00001C0E5FF04013D5104013E1902E1E86AFD
:104AF0000FD0000E04013E25006E016A010E012256
:104B000000C0E9FF01C0EAFFEFCF00F03E2B0050EC
:104B1000E4CF01F0E4CF00F01200D9CFE5FFE1CF00
:104B2000D9FF00C0E5FF020EDBCF00F0C69E00C03B
:104B3000C9FFC6AE02D0E8680AD063EC22F0C5BC5B
:104B400003D00401585102E0E86801D0E86AE4CFDC
:104B500000F0E4CFD9FF120000C0E5FF01C0E5FF7F
:104B600063EC22F0C580E80E006E030E016EFF0EAE
:104B7000002601220050011002E0C5B0F8D7040160
:104B8000586B005003E1015001E1582BE4CF01F0D4
:104B9000E4CF00F01200F2CFEAFFF29EA69EA69CA0
:104BA000A684E9CFA9FFF3CFAAFFE4CFA8FF03ECC7
:104BB00028F0F4CFA8FF03EC28F0F6CFA8FF03EC11
:104BC00028F0F7CFA8FF03EC28F0A694EABEF28EF7
:104BD0001200D9CFE5FFE1CFD9FF00C0E5FF01C04A
:104BE000E5FF020EDBCF00F0016A400E0026030E47
:104BF000012200C0E9FF01C0EAFFFF0EEF68E4CF29
:104C000001F0E4CF00F0E4CFD9FF1200F2CFF6FFBD
:104C1000F29EA69EA69CE9CFA9FFF3CFAAFFA6808D
:104C2000A850A94AAA2AA680A8CFF3FFA94AAA2A6F
:104C3000A680A8CFF4FFA94AAA2AA680A8CFEAFF97
:104C4000F6BEF28E1200E8AE08D0F3CFEAFFEE50C7
:104C5000EECFF3FFEECFF4FF1200E8BC60EF28F0D8
:104C6000E9CFF6FFF3CFF7FFF86E0900F550090022
:104C7000F5CFF3FF0900F5CFF4FF1200F2CFEAFF02
:104C8000F29EA69EA69CA684E9CFA9FFF3CFAAFF19
:104C9000E4CFA8FF03EC28F0F4CFA8FF03EC28F042
:104CA000F6CFA8FF03EC28F0A694EABEF28E12001D
:104CB000D9CFE5FFE1CFD9FF00C0E5FF020EDBCF82
:104CC00000F000C041F40050E56E000EE56A09EC0A
:104CD00025F0E652E652E4CF00F0E4CFD9FF12000F
:104CE000F2CFF6FFF29EA69EA69CE9CFA9FFF3CFD6
:104CF000AAFFA680A850A94AAA2AA680A8CFF3FF97
:104D0000A94AAA2AA680A8CFF4FFF6BEF28E120006
:104D100000C0E5FF01C0E5FF600E03019025006EB5
:104D2000016A000E012200C0E9FF01C0EAFFEFCFD7
:104D300000F00050E4CF01F0E4CF00F01200D9CF32
:104D4000E5FFE1CFD9FF00C0E5FF020EDBCF00F0A9
:104D5000610E005C05E37B0E005C02E2010E01D0F7
:104D6000E86AE4CF00F0E4CFD9FF120000C0E5FF0D
:104D700001C0E5FF7EC400F07FC401F004017E3F66
:104D800001D07F2B0050E56E89EC27F0E652E4CF8E
:104D900001F0E4CF00F01200D9CFE5FFE1CFD9FF59
:104DA00000C0E5FF020EDBCF00F000C040F4005071
:104DB00004E197EC27F09D9A9D98E4CF00F0E4CFB2
:104DC000D9FF1200E8AE06D0F3CFEAFFEE50EECFE7
:104DD000F3FF1200E8BC56EF28F0E9CFF6FFF3CF5F
:104DE000F7FFF86E0900F5500900F5CFF3FF120048
:104DF000F2CFEAFFF29EA69EA69CA684E9CFA9FF69
:104E0000F3CFAAFFE4CFA8FF03EC28F0F4CFA8FF6C
:104E100003EC28F0A694EABEF28E120012EEFFF028
:104E200022EEFFF0F86AA68EA69CE9680E0EEA6EE6
:104E30000068000EED6A0050FDE107EC1FF006EC83
:104E400000F0FFD7F2CFF6FFF29EA69EA69CE9CF18
:104E5000A9FFF3CFAAFFA680A850A94AAA2AA68034
:104E6000A8CFF3FFF6BEF28E1200F2CFEAFFF29E59
:104E7000A69EA69CA684E9CFA9FFF3CFAAFFE4CF04
:104E8000A8FF03EC28F0A694EABEF28E1200000000
:104E900000000000FF000000000A000200000042C5
:104EA0000000000000000000000000000000000002
:104EB000E8AE0BD0F3CFEAFFE4CFEEFFF4CFEEFF86
:104EC000F6CFEEFFF7CFEEFF1200E8BC5AEF28F066
:104ED0001200E8AE04D0F3CFEAFFEE501200E8BCB7
:104EE00054EF28F0E9CFF6FFF3CFF7FFF86E090093
:104EF000F5501200E8AE09D0F3CFEAFFE4CFEEFFA1
:104F0000F4CFEEFFF6CFEEFF1200E8BC62EF28F020
:104F10001200D9CFE5FFE1CFD9FF020EDBCFA9FF09
:104F2000A69CA69EA680A850E4CFD9FF1200ACA2F2
:104F3000FED79480AE500000AE50AB98AB88AB86E5
:104F40009D8A9D98120025642000F2CFF6FFF29E04
:104F5000A69EA69CE9CFA9FFF3CFAAFFA680A850E2
:104F6000F6BEF28E12001DEC24F00A0A08E11DECD8
:104F700024F00301896FFF0BFF080401376F120053
:104F8000E8AE07D0F3CFEAFFE4CFEEFFF4CFEEFFB9
:104F90001200E8BC5EEF28F01200700ED36E9B8CFE
:104FA000FF0E9268936894689668626AF19E120098
:104FB00000C0E5FF29EC22F0006E005001E1FF0087
:104FC000E4CF00F012000F01456B900E0F01446F0B
:104FD000030E0F01436F0F01458F1200E8AE05D09D
:104FE000F3CFEAFFE4CFEEFF1200E8BC5CEF28F05D
:104FF0001200D9CFE5FFE1CFD9FF020EDBCF46F497
:10500000E4CFD9FF1200550EA76EAA0EA76EA68296
:10501000A6B2FED7A94AAA2A010E03018A6F1C0E66
:1050200004017E6F7F6B120063EC22F09E96C58AAE
:10503000C5889EA6FED7120003018A6B1C0E0401D0
:105040007E6F7F6B120001008E4E0000390400005D
:105050002100000063EC22F0C582C5B2FED7120029
:10506000C7A002D0010E01D0E86A120047EC24F07C
:1050700069EC23F0120063EC22F0C5841200ACA2AC
:10508000FED7AD6E1200CDEC27F012000301905157
:10509000120003019A511200040140511200E8CF9E
:1050A0007FFF1200C96E1200A5EF27F022EF27F054
:1050B00006EF26F0CBEF25F035EF27F0F8EF26F0DE
:0850C00070EF26F03EEF26F030
:020000040030CA
:010006008574
:00000001FF
