:020000040000FA
:10000000D9EF25F0C69A12000CEF21F00EEC04F0A7
:100010009AEC17F0FDD71200F6EF23F0D9CFE5FFE9
:10002000E1CFD9FF00C0E5FF01C0E5FF02C0E5FF59
:1000300003C0E5FF04C0E5FF05C0E5FF06C0E5FF1E
:1000400007C0E5FF08C0E5FF09C0E5FF0AC0E5FFFE
:100050000BC0E5FF0CC0E5FF0DC0E5FF0EC0E5FFDE
:100060000FC0E5FF10C0E5FF11C0E5FF12C0E5FFBE
:1000700013C0E5FF14C0E5FF15C0E5FF16C0E5FF9E
:1000800017C0E5FF18C0E5FF19C0E5FF1AC0E5FF7E
:100090001BC0E5FF1CC0E5FF1DC0E5FF1EC0E5FF5E
:1000A000020EDBCF00F0030EDBCF01F0040EDBCF3E
:1000B00002F0050EDBCF03F0060EDBCF04F0070ED7
:1000C000DBCF05F0080EDBCF06F0090EDBCF07F023
:1000D0000A0EDBCF08F0096A0A6A02C00DF00D5063
:1000E000800A0DE102500A016D6F01506C6F0050E3
:1000F0006B6F0A0E016E6B0E006E800E026E03C0F7
:10010000E9FF04C0F3FF055012EC26F00B6E0B5014
:10011000D8B4C4EF03F00B50250A02E0ABEF03F0B4
:100120000C6A0D6A0E6A0F6A106A0A0E116E126A64
:10013000136A146A200E156E1668176A2B0E186E55
:10014000032A02E3044A052A03C0E9FF04C0F3FFBF
:10015000055012EC26F0196E250A13E11950E56ED0
:100160000250E56E0150E56E0050E56E8EEC16F023
:10017000040EE126094A0A2A032A02E3044A052A50
:10018000BED71950300A06E1300E156E032A02E37D
:10019000044A052A03C0E9FF04C0F3FF055012EC2E
:1001A00026F02D0A06E1010E146E032A02E3044A2A
:1001B000052A03C0E9FF04C0F3FF055012EC26F046
:1001C000200A08E1010E176E200E186E032A02E3C2
:1001D000044A052A03C0E9FF04C0F3FF055012ECEE
:1001E00026F02B0A06E1010E176E032A02E3044AE9
:1001F000052A03C0E9FF04C0F3FF055012EC26F006
:10020000196E310E195C2BE33A0E195C28E203C01B
:1002100019F004C01AF005C01BF019C0E9FF1AC09C
:10022000F3FF1B5012EC26F01C6E300E1C5C11E329
:100230003A0E1C5C0EE213500A0DF3CF1DF01D5058
:100240001C26D00E1C24136E192A02E31A4A1B2AFC
:10025000E4D719C003F01AC004F01BC005F003C0B6
:10026000E9FF04C0F3FF055012EC26F02E0A2DE141
:10027000032A02E3044A052A166A03C019F004C0DF
:100280001AF005C01BF019C0E9FF1AC0F3FF1B509C
:1002900012EC26F01C6E300E1C5C11E33A0E1C5C56
:1002A0000EE216500A0DF3CF1DF01D501C26D00E85
:1002B0001C24166E192A02E31A4A1B2AE4D719C015
:1002C00003F01AC004F01BC005F003C0E9FF04C02E
:1002D000F3FF055012EC26F0196E6C0A07E1010ECF
:1002E0000C6E032A02E3044A052A09D01950680A51
:1002F00006E1010E0E6E032A02E3044A052A03C03A
:10030000E9FF04C0F3FF055012EC26F0750A06E180
:10031000010E106E032A02E3044A052A03C0E9FF16
:1003200004C0F3FF055012EC26F0196E730A05E1C4
:10033000010E0D6E200E156E3FD01950780A03E1A4
:10034000100E116E39D01950580A05E1100E116EB9
:10035000010E126E31D01950630A02E1116A2CD0DD
:1003600019506F0A03E1080E116E26D01950660A63
:1003700003E1010E0F6E20D01950640A1DE01950E0
:10038000690A1AE0105005E0FF0E03260422052238
:1003900013D01950E56E0250E56E0150E56E005025
:1003A000E56E8EEC16F0040EE126094A0A2A032AAD
:1003B00002E3044A052AA3D60D5021E00650030F9C
:1003C0000D6E000E0720196E000E08201A6E0DC06B
:1003D00006F019C007F01AC008F0FD0E0D26FF0E3A
:1003E00019221A220DC0E9FF19C0F3FF1A50D6ECEA
:1003F00024F00D6EF3CF19F0F4CF1AF0FDD00F50AA
:100400000DE0000E1A6E080E196E100E0D6E040E21
:100410000626000E072208221668EED016680C5039
:1004200023E00650040F0C6E000E07200F6E000E26
:1004300008201B6E0CC006F00FC007F01BC008F0B0
:10044000FC0E0C26FF0E0F221B220CC0E9FF0FC072
:10045000F3FF1B503FEC24F00C6EF3CF0FF0F4CF02
:100460001BF0E9CF1CF067D00E502FE00650020FB2
:100470000E6E000E07201D6E000E08201E6E0EC0B0
:1004800006F01DC007F01EC008F0FE0E0E26FF0E7F
:100490001D221E220EC0E9FF1DC0F3FF1E50ADEC51
:1004A00025F00E6E0EC00CF00F6A1B6A1C6A11500C
:1004B0000A0A03E11050D8B43ED00C500E6E0EC0A4
:1004C0000CF00F6A1B6A1C6A36D00650020F0E6EC3
:1004D000000E07201D6E000E08201E6E0EC006F0D6
:1004E0001DC007F01EC008F0FE0E0E26FF0E1D22D6
:1004F0001E220EC0E9FF1DC0F3FF1E50ADEC25F01B
:100500000E6EF3CF1DF00EC00CF01DC00FF0E86AA8
:100510001DBEFF0E1B6E1C6E11500A0A02E1105028
:100520000AE00C500E6E0F501D6E0EC00CF01DC078
:100530000FF01B6A1C6A040E196EF40E0D6E800E0D
:100540001A6E1150D8B440D0105013E01150E56E1F
:10055000040EE56EF40EE56E1C50E56E1B50E56E64
:100560000F50E56E0C50E56EC0EC0FF0070EE12663
:1005700012D01150E56E040EE56EF40EE56E1C50BF
:10058000E56E1B50E56E0F50E56E0C50E56EB1EC5C
:100590001AF0070EE12617502FE00DC0E9FF19C031
:1005A000F3FF1A5012EC26F02D0A26E0FF0E0D265E
:1005B00019221A2218C0E5FF0DC0E9FF19C0F3FF88
:1005C0001A50ABEC26F018D00CC0E5FF0DC0E9FFC7
:1005D00019C0F3FF1A50ABEC26F00D50010F0C6E52
:1005E000000E19200E6E000E1A20E56A0CC0E9FFFD
:1005F0000EC0F3FFABEC26F00DC00CF019C00EF0EE
:100600001AC00FF013C010F0105010E00CC0E9FF3A
:100610000EC0F3FF0F5012EC26F0176E175006E0D5
:100620000C2A02E30E4A0F2A1006EED710C013F070
:1006300014501EE109C00CF00AC00EF010C00FF0FB
:100640000F5010E01550E56E0250E56E0150E56E5A
:100650000050E56E8EEC16F0040EE1260C4A0E2AD0
:100660000F06EED70CC009F00EC00AF00FC013F051
:1006700016C00CF00DC00DF019C00EF01AC00FF02E
:1006800009C010F00AC015F00DC0E9FF0EC0F3FF5D
:100690000F5012EC26F0166E1650D8B43ED00CC097
:1006A00016F0176A161E171E1650171005E00CC01C
:1006B00016F00C06165031E00DC0E9FF0EC0F3FF36
:1006C0000F5012EC26F0116E125010E01150E56E32
:1006D0006AEC25F0166EE652165004E0DF0E111497
:1006E000166E02D011C016F016C011F01150E56E52
:1006F0000250E56E0150E56E0050E56E8EEC16F08E
:10070000040EE1260D2A02E30E4A0F2A104A152A8A
:100710001350D8B4B9D71306B7D710C009F015C015
:100720000AF014502BE010C00CF015C00DF013C0EF
:100730000EF00E501FE0200EE56E0250E56E0150E7
:10074000E56E0050E56E8EEC16F0040EE1260C4AC4
:100750000D2A0E06EED70B50E56E0250E56E0150E5
:10076000E56E0050E56E8EEC16F0040EE126094AA7
:100770000A2A04D00CC009F00DC00AF0032A02E3D3
:10078000044A052A7FEF00F00AC0F3FF0950E4CFC6
:100790001EF0E4CF1DF0E4CF1CF0E4CF1BF0E4CF5B
:1007A0001AF0E4CF19F0E4CF18F0E4CF17F0E4CF5B
:1007B00016F0E4CF15F0E4CF14F0E4CF13F0E4CF5B
:1007C00012F0E4CF11F0E4CF10F0E4CF0FF0E4CF5B
:1007D0000EF0E4CF0DF0E4CF0CF0E4CF0BF0E4CF5B
:1007E0000AF0E4CF09F0E4CF08F0E4CF07F0E4CF5B
:1007F00006F0E4CF05F0E4CF04F0E4CF03F0E4CF5B
:1008000002F0E4CF01F0E4CF00F0E4CFD9FF120012
:100810003C4E4F20464C4F41543E000000C0E5FF87
:1008200001C0E5FF02C0E5FF03C0E5FF05C0E5FF2D
:10083000FBEC26F094928B9290EC22F0F3CF01F037
:10084000F4CF02F0E9CF03F0880F0F01336F130EDE
:100850000120346F000E0220356F000E0320366F2A
:10086000F19E92EC1EF09280800E006E0F0E016ED3
:100870000F0E036E380E002603500122800E026E0A
:100880000F0E036E800E005E0350015A0F0E056EB0
:10089000380E0226055003220F0E056E800E025EF2
:1008A0000550035A02C0E9FF03C0EAFFEFCF02F090
:1008B000029000C0E9FF01C0EAFF02C0EFFF016E35
:1008C000E56A800EE56E0150E56E800EE56E000E65
:1008D000E56AD9EC1EF0050EE1269282800E006ECC
:1008E0000F0E016E0F0E036E380E0026035001220C
:1008F000800E026E0F0E036E800E005E0350015AD2
:100900000F0E056E380E0226055003220F0E056EDF
:10091000800E025E0550035A02C0E9FF03C0EAFFE1
:10092000EFCF02F0029200C0E9FF01C0EAFF02C06F
:10093000EFFF016E010EE56E800EE56E0150E56E73
:10094000800EE56E010EE56ED9EC1EF0050EE12677
:100950009284800E006E0F0E016E0F0E036E380E25
:10096000002603500122800E026E0F0E036E800ED1
:10097000005E0350015A0F0E056E380E0226055018
:1009800003220F0E056E800E025E0550035A02C050
:10099000E9FF03C0EAFFEFCF02F0029400C0E9FFD5
:1009A00001C0EAFF02C0EFFF016E020EE56E800E8D
:1009B000E56E0150E56E800EE56E020EE56ED9EC37
:1009C0001EF0050EE1269288800E006E0F0E016E5D
:1009D0000F0E036E380E002603500122800E026EA9
:1009E0000F0E036E800E005E0350015A0F0E056E4F
:1009F000380E0226055003220F0E056E800E025E91
:100A00000550035A02C0E9FF03C0EAFFEFCF02F02E
:100A1000029800C0E9FF01C0EAFF02C0EFFF016ECB
:100A2000040EE56E800EE56E0150E56E800EE56EFB
:100A3000030EE56ED9EC1EF0050EE1269484820EBD
:100A4000006E0F0E016E0F0E036E380E002603505F
:100A500001220F0E036E800E005E0350015A820EBB
:100A6000026E0F0E036E0F0E056E380E0226055035
:100A700003220F0E056E800E025E0550035A02C05F
:100A8000E9FF03C0EAFFEFCF02F0029400C0E9FFE4
:100A900001C0EAFF02C0EFFF020EE56E800EE56EB8
:100AA0000F0EE56E820EE56E040EE56ED9EC1EF0BB
:100AB000050EE126948A820E006E0F0E016E0F0E57
:100AC000036E380E0026035001220F0E036E800EB7
:100AD000005E0350015A820E026E0F0E036E0F0E5F
:100AE000056E380E0226055003220F0E056E800E8D
:100AF000025E0550035A02C0E9FF03C0EAFFEFCFD0
:100B000002F0029A00C0E9FF01C0EAFF02C0EFFF55
:100B1000050EE56E800EE56E0F0EE56E820EE56E3B
:100B2000050EE56ED9EC1EF0050EE126938C810EC4
:100B3000006E0F0E016E0F0E036E380E002603506E
:100B400001220F0E036E800E005E0350015A810ECB
:100B5000026E0F0E036E0F0E056E380E0226055044
:100B600003220F0E056E800E025E0550035A02C06E
:100B7000E9FF03C0EAFFEFCF02F0029C00C0E9FFEB
:100B800001C0EAFF02C0EFFF060EE56E800EE56EC3
:100B90000F0EE56E810EE56E060EE56ED9EC1EF0C9
:100BA000050EE126938E810E006E0F0E016E0F0E64
:100BB000036E380E0026035001220F0E036E800EC6
:100BC000005E0350015A810E026E0F0E036E0F0E6F
:100BD000056E380E0226055003220F0E056E800E9C
:100BE000025E0550035A02C0E9FF03C0EAFFEFCFDF
:100BF00002F0029E00C0E9FF01C0EAFF02C0EFFF61
:100C0000070EE56E800EE56E0F0EE56E810EE56E49
:100C1000070EE56ED9EC1EF0050EE1269380810EDD
:100C2000006E0F0E016E0F0E036E380E002603507D
:100C300001220F0E036E800E005E0350015A810EDA
:100C4000026E0F0E036E0F0E056E380E0226055053
:100C500003220F0E056E800E025E0550035A02C07D
:100C6000E9FF03C0EAFFEFCF02F0029000C0E9FF06
:100C700001C0EAFF02C0EFFFE56A800EE56E0F0ECD
:100C8000E56E810EE56E080EE56ED9EC1EF0050EE0
:100C9000E1269382810E006E0F0E016E0F0E036E21
:100CA000380E0026035001220F0E036E800E005EE8
:100CB0000350015A810E026E0F0E036E0F0E056E69
:100CC000380E0226055003220F0E056E800E025EBE
:100CD0000550035A02C0E9FF03C0EAFFEFCF02F05C
:100CE000029200C0E9FF01C0EAFF02C0EFFF010E5F
:100CF000E56E800EE56E0F0EE56E810EE56E090E57
:100D0000E56ED9EC1EF0050EE1269388810E006E8B
:100D10000F0E016E0F0E036E380E002603500122D7
:100D20000F0E036E800E005E0350015A810E026E9C
:100D30000F0E036E0F0E056E380E022605500322AD
:100D40000F0E056E800E025E0550035A02C0E9FFC9
:100D500003C0EAFFEFCF02F0029800C0E9FF01C034
:100D6000EAFF02C0EFFF040EE56E800EE56E0F0E87
:100D7000E56E810EE56E0A0EE56ED9EC1EF0050EED
:100D8000E126270EE56EE56A080EE56E40EC13F0ED
:100D9000030EE126E56A800EE56E040EE56E790E1F
:100DA000E56EC7EC1CF0040EE12693948A949386BA
:100DB000810E006E0F0E016E0F0E036E380E0026B0
:100DC000035001220F0E036E800E005E0350015A85
:100DD000810E026E0F0E036E0F0E056E380E022688
:100DE000055003220F0E056E800E025E0550035A59
:100DF00002C0E9FF03C0EAFFEFCF02F0028600C0A5
:100E0000E9FF01C0EAFF02C0EFFF17EC17F08E0EFA
:100E1000C06EE4CF05F0E4CF03F0E4CF02F0E4CFFE
:100E200001F0E4CF00F0120043204920256C640A51
:100E3000000043002563000000C0E5FF01C0E5FF9E
:100E400002C0E5FF03C0E5FF04C0E5FF05C0E5FF04
:100E500006C0E5FF07C0E5FF08C0E5FF09C0E5FFE4
:100E60000AC0E5FF0BC0E5FF0CC0E5FF006A016AA0
:100E7000026A040E025CD8B0E8D101C003F0012A76
:100E8000100E035CD8B0E1D10001F12B100EF15D22
:100E900001E3F16B0001F139E8441F0B036E046AB2
:100EA000760E03260A0E042203C0E9FF04C0EAFFFF
:100EB000EFCF03F0070EF115046E010E056E000E64
:100EC000066E045006E0E86CD89005360636010F31
:100ED000FCE3076A03500516075006160550061076
:100EE000D880E866D890056A05360550D8A4C1D7E1
:100EF0000001F151020DF450046EF3CF03F0390EEE
:100F00000324056E040E0420066E05C0E9FF06C02A
:100F1000EAFFEECF05F0EFCF06F00001EEA19DD085
:100F2000B30E0324076E040E0420086E07C0E9FF09
:100F300008C0EAFFEECF07F0EFCF08F00650800FB1
:100F4000F36E0850800FF35C02E10750055C03E28A
:100F5000056A066A60D0D30E0326040E042203C07D
:100F6000E9FF04C0EAFFEECF03F0EFCF04F0045036
:100F7000800FF36E0650800FF35C02E10550035CB6
:100F800004E205683F0E066E46D00750055C096E08
:100F9000085006580A6EE86A0ABEFF0E0B6EE56E30
:100FA0000B50E56E0A50E56E0950E56EE56AE56A9C
:100FB000400EE56E000EE56ACDEC0CF0096EF3CF45
:100FC0000AF0F4CF0BF0E9CF0CF0080EE126075041
:100FD000035C076E08500458086EE86A08BEFF0EEE
:100FE000036EE56E0350E56E0850E56E0750E56E42
:100FF0000C50E56E0B50E56E0A50E56E0950E56E3B
:10100000D1EC13F0036EF3CF04F0080EE126035089
:10101000056E0450066E0001ED51800FF36E065010
:10102000800FF35C02E10550EC5D03E3056A066A9C
:1010300014D00001EC51FF08036E3F0EED55046E15
:101040000650800FF36E0450800FF35C02E10350F2
:10105000055C03E305683F0E066E0001F151020DC9
:10106000F450046EF3CF03F0930E0326040E042213
:1010700003C0E9FF04C0EAFFEECF03F0EFCF04F0B6
:101080000350055C036E04500658046ED88004AE0D
:10109000D89004E3041E036CD8B4042A022A000189
:1010A000ED51800FF36E0450800FF35C02E10350AA
:1010B000EC5DD8B0DED60001F151020DF450086E9F
:1010C000F3CF07F0930E0726040E082207C0E9FFAE
:1010D00008C0EAFF05C0EEFF06C0EFFF0001EEA565
:1010E0005AD00001F151020DF450086EF3CF07F011
:1010F000000E0724096E0A0E08200A6E09C0E9FFD7
:101100000AC0EAFFEECF0BF0EFCF0CF00B500C1043
:10111000D8B441D0590E0726040E082207C0E9FFB3
:1011200008C0EAFFEECF07F0EFCF08F00750055CEC
:10113000036E08500658046E03101CE00450800F24
:10114000800F02E1010E035C076A07360C50800F26
:10115000800F02E1010E0B5C0B6A0B3607500B1877
:1011600009E109C0E9FF0AC0EAFF03C0EEFF04C0BD
:10117000EFFF7FD60001F151020DF450046EF3CF62
:1011800003F0000E03260A0E042203C0E9FF04C088
:10119000EAFFEE6AEF6A0001EEA343D000500EE1D1
:1011A00000C003F0002A046AF20E0326000E042297
:1011B00003C0E9FF04C0EAFF420EEF6E00C003F077
:1011C000002A046AF20E0326000E0422640E0001B7
:1011D000F125076E03C0E9FF04C0EAFF07C0EFFF77
:1011E00000C003F0002A046AF20E0326000E042257
:1011F0000650076E03C0E9FF04C0EAFF07C0EFFF17
:1012000000C003F0002A046AF20E0326000E042236
:101210000550076E03C0E9FF04C0EAFF07C0EFFFF7
:1012200028D6F1C003F00650E56E0550E56EE56A7C
:101230000350E56E000EE56E2F0EE56E280EE56E8E
:101240009FEC1FF0070EE12614D602C001F00050FB
:101250001DE00001EEA31AD000C002F0002A036ACC
:10126000F20E0226000E032202C0E9FF03C0EAFFCD
:101270000A0EEF6E0050E56E800EE56E000EE56E14
:10128000F20EE56E1BEC18F0040EE1260150E4CFDF
:101290000CF0E4CF0BF0E4CF0AF0E4CF09F0E4CF98
:1012A00008F0E4CF07F0E4CF06F0E4CF05F0E4CF98
:1012B00004F0E4CF03F0E4CF02F0E4CF01F0E4CF98
:1012C00000F0120000C0E5FF01C0E5FF02C0E5FF2D
:1012D00003C0E5FF04C0E5FF05C0E5FF06C0E5FF6C
:1012E00007C0E5FF08C0E5FF09C0E5FF0AC0E5FF4C
:1012F000C2A204D00001EF5175EF0BF00001F051D4
:10130000D8B41BD10001EF51020DF450016EF3CFA0
:1013100000F0390E0026040E012200C0E9FF01C0D2
:10132000EAFFEECF00F0EFCF01F0230EEF25026EC3
:10133000036A0F0E032202C0E9FF03C0EAFFEFCFEA
:1013400002F00250FF0A01E152D002380F0B036E87
:10135000920E0324046E056A0F0E0522066A920E91
:1013600003260F0E062203C0E9FF06C0EAFFEFCFF7
:1013700003F0070E0214066E010E076E065005E01C
:10138000E86CD8900736010FFDE3071C066E0316C4
:1013900004C0E9FF05C0EAFF03C0EFFF02380F0BEE
:1013A000036E890E0324046E056A0F0E0522066A79
:1013B000890E03260F0E062203C0E9FF06C0EAFFCE
:1013C000EFCF03F0070E0214066E010E076E0650F3
:1013D00005E0E86CD8900736010FFDE3071C066EA8
:1013E000031604C0E9FF05C0EAFF03C0EFFF0001D8
:1013F000EF51020DF450046EF3CF03F0390E0326C3
:10140000040E042201340130066E0030056E0634ED
:10141000063205320634063205320550005C056E90
:1014200006500158066EC3CF07F0086A075005261C
:1014300008500622C4CF07F0086A07500A6E096AEE
:10144000095005260A50062203C0E9FF04C0EAFF3E
:1014500005C0EEFF06C0EFFF0001EB51010A01E0FD
:101460006AD00001EF51020DF450046EF3CF03F087
:10147000390E0324056E040E0420066E05C0E9FF34
:1014800006C0EAFFEECF00F0EFCF01F0B30E032667
:10149000040E042203C0E9FF04C0EAFFEECF05F00A
:1014A000EFCF06F09C0E0526D8A006060150800F4F
:1014B000F36E0650800FF35C02E10550005C0EE213
:1014C0000050640F056E000E0120066E03C0E9FF98
:1014D00004C0EAFF05C0EEFF06C0EFFF0001EF51B8
:1014E000020DF450046EF3CF03F0D30E0326040E66
:1014F000042203C0E9FF04C0EAFFEECF05F0EFCFFE
:1015000006F0640E0526D8B0062A0650800FF36E4A
:101510000150800FF35C02E10050055C0CE29C0E70
:101520000026D8A0010603C0E9FF04C0EAFF00C0FE
:10153000EEFF01C0EFFF0001F06B0001EF2B100E7A
:10154000EF5D01E3EF6B0001EF39E8441F0B006E24
:10155000016A760E00260A0E012200C0E9FF01C0D2
:10156000EAFFEFCF00F0070EEF15016E010E036EDC
:10157000000E046E015006E0E86CD8900336043685
:10158000010FFCE3056A00500316055004160350D2
:101590000410D880E866D890036A03360350D8A4B4
:1015A000A2D0400E0001EF25006E016A0A0E012252
:1015B00000C0E9FF01C0EAFFEFCF00F00044E844BB
:1015C000FC0B016E0128C26E230EEF25006E016A2E
:1015D0000F0E012200C0E9FF01C0EAFFEFCF02F0C9
:1015E0000250FF0A01E17BD002380F0B006E920E11
:1015F0000024016E036A0F0E0322046A920E002675
:101600000F0E042200C0E9FF04C0EAFFEFCF00F094
:10161000070E0214046E010E056E045005E0E86C1E
:10162000D8900536010FFDE30550001201C0E9FF17
:1016300003C0EAFF00C0EFFF380E006E0F0E016E10
:1016400002380F0B036E046A035000260450012277
:10165000380E056E0F0E066E055003260650042246
:1016600003C0E9FF04C0EAFFEFCF03F0070E021644
:10167000010E046E025005E0E86CD8900436010FAC
:10168000FDE30450031200C0E9FF01C0EAFF03C0FC
:10169000EFFF0F0145830000000045930F014493C5
:1016A0000BC0E5FFF2CF0BF0F29E4481000000007A
:1016B000000000000000000000000000000000002A
:1016C000000000000000000000000000000000001A
:1016D0000000000044910BBEF28EE4CF0BF0C282FA
:1016E000010E0001F06F0001EF51E4CF0AF0E4CFEA
:1016F00009F0E4CF08F0E4CF07F0E4CF06F0E4CF40
:1017000005F0E4CF04F0E4CF03F0E4CF02F0E4CF3F
:1017100001F0E4CF00F01200800EE56E040EE56EDD
:10172000D30EE56E17EC1DF0030EE126800EE56E7C
:10173000040EE56EB30EE56E17EC1DF0030EE12608
:10174000800EE56E040EE56ED50EE56E17EC1DF00D
:10175000030EE126800EE56E040EE56EB50EE56E15
:1017600017EC1DF0030EE126800EE56E040EE56E0B
:10177000D70EE56E17EC1DF0030EE126800EE56E28
:10178000040EE56EB70EE56E17EC1DF0030EE126B4
:10179000800EE56E040EE56ED90EE56E17EC1DF0B9
:1017A000030EE126800EE56E040EE56EB90EE56EC1
:1017B00017EC1DF0030EE126800EE56E040EE56EBB
:1017C000DB0EE56E17EC1DF0030EE126800EE56ED4
:1017D000040EE56EBB0EE56E17EC1DF0030EE12660
:1017E000800EE56E040EE56EDD0EE56E17EC1DF065
:1017F000030EE126800EE56E040EE56EBD0EE56E6D
:1018000017EC1DF0030EE126800EE56E040EE56E6A
:10181000DF0EE56E17EC1DF0030EE126800EE56E7F
:10182000040EE56EBF0EE56E17EC1DF0030EE1260B
:10183000800EE56E040EE56EE10EE56E17EC1DF010
:10184000030EE126800EE56E040EE56EC10EE56E18
:1018500017EC1DF0030EE126800EE56E040EE56E1A
:10186000E30EE56E17EC1DF0030EE126800EE56E2B
:10187000040EE56EC30EE56E17EC1DF0030EE126B7
:10188000800EE56E040EE56EE50EE56E17EC1DF0BC
:10189000030EE126800EE56E040EE56EC50EE56EC4
:1018A00017EC1DF0030EE126800EE56E040EE56ECA
:1018B000E70EE56E17EC1DF0030EE126800EE56ED7
:1018C000040EE56EC70EE56E17EC1DF0030EE12663
:1018D000800EE56E040EE56EE90EE56E17EC1DF068
:1018E000030EE126800EE56E040EE56EC90EE56E70
:1018F00017EC1DF0030EE126800EE56E040EE56E7A
:10190000EB0EE56E17EC1DF0030EE126800EE56E82
:10191000040EE56ECB0EE56E17EC1DF0030EE1260E
:10192000800EE56E040EE56EED0EE56E17EC1DF013
:10193000030EE126800EE56E040EE56ECD0EE56E1B
:1019400017EC1DF0030EE126800EE56E040EE56E29
:10195000EF0EE56E17EC1DF0030EE126800EE56E2E
:10196000040EE56ECF0EE56E17EC1DF0030EE126BA
:10197000800EE56E040EE56EF10EE56E17EC1DF0BF
:10198000030EE126800EE56E040EE56ED10EE56EC7
:1019900017EC1DF0030EE1261200D9CFE5FFE1CFD1
:1019A000D9FF00C0E5FF01C0E5FF02C0E5FF03C0AD
:1019B000E5FF04C0E5FF05C0E5FF06C0E5FF07C081
:1019C000E5FF020EDBCF00F0030EDBCF01F0040ECB
:1019D000DBCF02F0050EDBCF03F0060EDBCF04F009
:1019E000070EDBCF05F0080EDBCF06F0090EDBCFCC
:1019F00007F0005004018A6F01508B6F02508C6F0A
:101A000003508D6F045004018E6F05508F6F065088
:101A1000906F0750916F04018A5104019003F4CF35
:101A200001F0F3CF00F000500A015B6F01505C6FD2
:101A300004018A5104018E03F4CF01F0F3CF00F0CA
:101A400000500A01596F01505A6F04018D51040171
:101A50008E03F3CF00F00A015C51002600505C6F4A
:101A600004018C5104018F03F3CF01F001500026D3
:101A700000500A015C6F04018C5104018E03F4CF05
:101A800001F0F3CF00F00A015B5100265C51012206
:101A900000505B6F01505C6F04018B5104018F0398
:101AA000F4CF03F0F3CF02F00250002603500122DE
:101AB00000500A015B6F01505C6F04018B510401FF
:101AC0009003F3CF00F000500A01606F04018B51C6
:101AD00004018E03F4CF01F0F3CF00F000500A01AF
:101AE0005E6F01505F6F04018A5104019103F3CFCF
:101AF00000F000500A01646F04018A5104018F0351
:101B0000F4CF01F0F3CF00F000500A01626F0150F2
:101B1000636F0A015D6B0A01616B0A015D510A0185
:101B20005925006E0A015E510A015A21016E0A010F
:101B30005F510A015B21026E0A0160510A015C21BA
:101B4000036E0050596F01505A6F02505B6F035083
:101B50005C6F0A0161510A015925006E0A01625148
:101B60000A015A21016E0A0163510A015B21026ECA
:101B70000A0164510A015C21036E03C0E9FF02C03F
:101B8000F4FF01C0F3FF0050E4CF07F0E4CF06F00C
:101B9000E4CF05F0E4CF04F0E4CF03F0E4CF02F0AB
:101BA000E4CF01F0E4CF00F0E4CFD9FF120000C091
:101BB000E5FF01C0E5FF0001E751D8B4F5D09DA8CD
:101BC0001DD09EA81BD00A0181510A017E1905E192
:101BD00061EC26F00A017E6BE7D0000E0A01812538
:101BE000006E016A040E012200C0E9FF01C0EAFF95
:101BF000EFCF7AFA812B7ACAADFFD6D09EAAD4D085
:101C0000ABA205D00A017F8161EC26F0CDD0ABA458
:101C100005D00A017F8361EC26F0C6D0ABA03ED090
:101C2000AECF7AFA800E0001E8110A017A1904E1B8
:101C30000A017F89AB96B8D00A017A5104E07A5143
:101C40000001E81927E10A017F99AB960A017A5150
:101C500003E00A017F9702D00A017F877ACA83FADC
:101C60007CCA84FA0A017C050A01856F600E0A01AC
:101C70008425006E016A000E012200C0E9FF01C048
:101C8000EAFF7ACAEFFF842B8451800A02E10A013D
:101C9000846B8AD00A017F99AB8686D0AECF7AFA60
:101CA0000A017FA919D0800E0001E8110A017A19F2
:101CB00011E18B909D9AAB980A017E5104E1AD6AC7
:101CC00061EC26F007D000C4ADFF010E0A01816F60
:101CD0009D886AD0AB8668D00A017A510A018327B1
:101CE0000A0184510A0185191BE10A0183510CE1A3
:101CF00084CA7CFA0A017FB712D08B909D9AAB9868
:101D0000AD6A61EC26F00BD00A017F857FB707D062
:101D10008B909D9AAB98010EAD6E61EC26F044D08D
:101D20000A0184510A017D1908E10A017D510A0165
:101D30007C1903E061EC26F037D07CCA00F0016A20
:101D4000004A012AE56A800EE56E0150E56E0050FA
:101D5000E56E0DEC19F0006E040EE12600500A014C
:101D60007B6F0A0184190CE11F0E0A017A150A0122
:101D7000856F852B852B0A017C510A018527859F5C
:101D800084CA00F00A01842B016A600E0026000E4E
:101D9000012200C0E9FF01C0EAFF7ACAEFFF8451C7
:101DA000800A02E10A01846BE4CF01F0E4CF00F085
:101DB000120000C0E5FF01C0E5FF02C0E5FF03C05F
:101DC000E5FF04C0E5FF05C0E5FF06C0E5FF07C06D
:101DD000E5FF08C0E5FF09C0E5FF0AC0E5FF006AAE
:101DE000016A040E015CD8B0B3D0230E0001EA25CD
:101DF000026E036A040E032202C0E9FF03C0EAFF79
:101E0000EFCF02F00250FF0A01E19BD00001EA3956
:101E1000E8441F0B026E740E0224036E046A0A0E5D
:101E2000042203C0E9FF04C0EAFFEFCF03F0070E6E
:101E3000EA15046E010E056E000E066E045006E0F3
:101E4000E86CD89005360636010FFCE3076A0550AA
:101E500003160650071603500710D880E866D8907E
:101E6000036A03360350D880E866D890036A0336C5
:101E7000076A720E02260A0E072202C0E9FF07C097
:101E8000EAFFEFCF08F008C009F00A6A095005160A
:101E90000A50061605500610D880E866D890056AE4
:101EA00005360550D880E866D890056A0536035097
:101EB000051801E146D0035012E0010E056E0450F2
:101EC00005E0E86CD8900536010FFDE305500812D7
:101ED00002C0E9FF07C0EAFF08C0EFFF17D002C049
:101EE000E9FF07C0EAFFEFCF05F0010E066E0450D0
:101EF00005E0E86CD8900636010FFDE3061C0516D8
:101F000002C0E9FF07C0EAFF05C0EFFF035003E18D
:101F1000036A032A01D0036AEAC004F0E56A0350A9
:101F2000E56EE56A0450E56E000EE56E3D0EE56E69
:101F3000A60EE56E9FEC1FF0070EE126012A01C0F8
:101F400000F00001EA2B100EEA5DD8A04AD7EA6B38
:101F50000050E4CF0AF0E4CF09F0E4CF08F0E4CF7A
:101F600007F0E4CF06F0E4CF05F0E4CF04F0E4CFCF
:101F700003F0E4CF02F0E4CF01F0E4CF00F0120070
:101F8000D9CFE5FFE1CFD9FF00C0E5FF01C0E5FFF4
:101F900002C0E5FF03C0E5FF04C0E5FF05C0E5FFA3
:101FA00006C0E5FF07C0E5FF08C0E5FF09C0E5FF83
:101FB0000AC0E5FF0BC0E5FF0CC0E5FF0DC0E5FF63
:101FC0000EC0E5FF0FC0E5FF020EDBCF00F0030EF1
:101FD000DBCF01F0040EDBCF02F0050EDBCF03F008
:101FE000060EDBCF04F0070EDBCF05F0080EDBCFCB
:101FF00006F0200E076E086A06C009F00A6A0B6A2E
:102000000C6AE56AE56AE56A0950E56E0350E56E1B
:102010000250E56E0150E56E0050E56E0BEC12F0DB
:102020000D6E080EE126300E0D263A0E0D5C05E30E
:102030000D500E6E270E0E240D6EFF0E0726082281
:10204000200E07240E6E0A0E08200F6E0EC0E9FF48
:102050000FC0EAFF0DC0EFFF0C50E56E0B50E56EB0
:102060000A50E56E0950E56E0350E56E0250E56ECC
:102070000150E56E0050E56ED1EC13F0006EF3CF29
:1020800001F0F4CF02F0E9CF03F0080EE126005092
:10209000011002100310D8A4AFD707C000F008C089
:1020A00001F004C002F005C003F000C004F001C05C
:1020B00005F0004A012A200E04260A0E052204C05B
:1020C000E9FF05C0EAFFEFCF04F002C0E9FF03C05B
:1020D000EAFF04C0EFFF024A032A000E015C02E19E
:1020E000200E005CE2E302C0E9FF03C0EAFF000E3D
:1020F000EF6AE4CF0FF0E4CF0EF0E4CF0DF0E4CFC1
:102100000CF0E4CF0BF0E4CF0AF0E4CF09F0E4CF19
:1021100008F0E4CF07F0E4CF06F0E4CF05F0E4CF19
:1021200004F0E4CF03F0E4CF02F0E4CF01F0E4CF19
:1021300000F0E4CFD9FF1200D9CFE5FFE1CFD9FFFE
:1021400000C0E5FF01C0E5FF02C0E5FF03C0E5FFF9
:1021500004C0E5FF05C0E5FF06C0E5FF020EDBCFCA
:1021600000F0030EDBCF01F0040EDBCF02F000C065
:10217000E9FF01C0F3FF025012EC26F0036EE56A9E
:10218000E56EA9EC21F0E652E652320EE56E23EC44
:1021900025F0E65234EC23F0010EE56E0350E56EB7
:1021A000A9EC21F0E652E6520050010F036E000E3A
:1021B0000120046E000E0220056E65EC22F0066E12
:1021C00006C0E5FF03C0E9FF04C0F3FF0550ABEC18
:1021D00026F0E4EC22F00050020F036E000E012006
:1021E000046E000E0220056E65EC22F0066E06C03D
:1021F000E5FF03C0E9FF04C0F3FF0550ABEC26F098
:10220000E4EC22F00050030F036E000E0120046E78
:10221000000E0220056E65EC22F0066E06C0E5FF9A
:1022200003C0E9FF04C0F3FF0550ABEC26F0E4EC7B
:1022300022F00050040F036E000E0120046E000E09
:102240000220056E65EC22F0066E06C0E5FF03C0B5
:10225000E9FF04C0F3FF0550ABEC26F0E4EC22F0FC
:102260000050050F036E000E0120046E000E0220C8
:10227000056E65EC22F0066E06C0E5FF03C0E9FFBF
:1022800004C0F3FF0550ABEC26F0E4EC22F0060EA0
:102290000026000E0122022265EC22F0036E03C02C
:1022A000E5FF00C0E9FF01C0F3FF0250ABEC26F0F0
:1022B00034EC23F0E4CF06F0E4CF05F0E4CF04F0F3
:1022C000E4CF03F0E4CF02F0E4CF01F0E4CF00F07C
:1022D000E4CFD9FF120000C0E5FF01C0E5FF02C056
:1022E000E5FF03C0E5FF04C0E5FF05C0E5FF006AA8
:1022F000230E0024016E026A040E022201C0E9FFCF
:1023000002C0EAFFEFCF01F00150FF0A01E171D0F6
:1023100001380F0B026E036A800E02260F0E032295
:1023200002C0E9FF03C0EAFFEFCF02F0070E01167B
:10233000010E036E000E046E015006E0E86CD890AA
:1023400003360436010FFCE3056A025003160550FC
:10235000041603500410D880E866D890036A033648
:10236000035024E10038E8441F0B016E026A740E2A
:1023700001260A0E022201C0E9FF02C0EAFFEFCFE8
:1023800003F0070E0014046E010E056E045005E004
:10239000E86CD8900536010FFDE30550031201C02B
:1023A000E9FF02C0EAFF03C0EFFF23D00038E84492
:1023B0001F0B016E026A740E01260A0E022201C072
:1023C000E9FF02C0EAFFEFCF03F0070E0014046E2E
:1023D000010E056E045005E0E86CD8900536010F3B
:1023E000FDE3051C031601C0E9FF02C0EAFF03C0BC
:1023F000EFFF002A100E005CD8A07AD7E4CF05F0DA
:10240000E4CF04F0E4CF03F0E4CF02F0E4CF01F036
:10241000E4CF00F01200D9CFE5FFE1CFD9FF00C033
:10242000E5FF01C0E5FF02C0E5FF03C0E5FF04C012
:10243000E5FF05C0E5FF06C0E5FF07C0E5FF08C0F2
:10244000E5FF09C0E5FF0AC0E5FF020EDBCF00F0A3
:10245000030EDBCF01F0040EDBCF02F0050EDBCF65
:1024600003F0060EDBCF04F0070EDBCF05F0080EFD
:10247000DBCF06F0090EDBCF07F0086A0450051029
:102480000610071005E1E968F468F368E86847D0CA
:10249000096A0750800BE8440A6E0A501BE1045099
:1024A00004260536063607360750035C08E1065059
:1024B000025C05E10550015C02E10450005C06E2AB
:1024C000D890073206320532043204D0092A09C0F6
:1024D00008F0DFD70750035C08E10650025C05E115
:1024E0000550015C02E10450005C08E30450005E0A
:1024F0000550015A0650025A0750035AD890073225
:1025000006320532043208C009F008060950E2E13B
:1025100003C0E9FF02C0F4FF01C0F3FF0050E4CFA5
:102520000AF0E4CF09F0E4CF08F0E4CF07F0E4CFFD
:1025300006F0E4CF05F0E4CF04F0E4CF03F0E4CFFD
:1025400002F0E4CF01F0E4CF00F0E4CFD9FF1200B5
:10255000D9CFE5FFE1CFD9FF00C0E5FF01C0E5FF1E
:1025600002C0E5FF03C0E5FF04C0E5FF020EDBCFBC
:1025700000F0030EDBCF01F0040EDBCF02F0050EFE
:10258000DBCF03F0420E0A01506F0350516F005031
:10259000010F036E000E0120046E000E022003C026
:1025A000E9FF04C0F3FF12EC26F00A01526F00505D
:1025B000020F036E000E0120046E000E022003C005
:1025C000E9FF04C0F3FF12EC26F00A01536F00503C
:1025D000030F036E000E0120046E000E022003C0E4
:1025E000E9FF04C0F3FF12EC26F00A01546F00501B
:1025F000040F036E000E0120046E000E022003C0C3
:10260000E9FF04C0F3FF12EC26F00A01556F0050F9
:10261000050F036E000E0120046E000E022003C0A1
:10262000E9FF04C0F3FF12EC26F00A01566F060E14
:102630000026000E0122022200C0E9FF01C0F3FFC4
:10264000025012EC26F00A01576F0A0E586F090E5D
:10265000E56E800EE56E0A0EE56E500EE56E1BEC23
:1026600018F0040EE126E4CF04F0E4CF03F0E4CF49
:1026700002F0E4CF01F0E4CF00F0E4CFD9FF120084
:10268000D9CFE5FFE1CFD9FF00C0E5FF01C0E5FFED
:1026900002C0E5FF03C0E5FF04C0E5FF05C0E5FF9C
:1026A000020EDBCF00F0030EDBCF01F0040EDBCF18
:1026B00002F03F0EC716C66AC56A0050C612015026
:1026C000C7129488820E006E0F0E016E0F0E046EFC
:1026D000380E0026045001220F0E046E800E005E9C
:1026E0000450015A820E036E0F0E046E0F0E056E1B
:1026F000380E0326055004220F0E056E800E035E71
:102700000550045A03C0E9FF04C0EAFFEFCF03F00D
:10271000039800C0E9FF01C0EAFF03C0EFFF948601
:10272000820E006E0F0E016E0F0E046E380E002624
:10273000045001220F0E046E800E005E0450015AF8
:10274000820E036E0F0E046E0F0E056E380E0326FA
:10275000055004220F0E056E800E035E0550045ACC
:1027600003C0E9FF04C0EAFFEFCF03F0039600C007
:10277000E9FF01C0EAFF03C0EFFF02C0C8FFC68A3D
:102780009E96A196E4CF05F0E4CF04F0E4CF03F0E9
:10279000E4CF02F0E4CF01F0E4CF00F0E4CFD9FFC2
:1027A0001200D9CFE5FFE1CFD9FF00C0E5FF01C09E
:1027B000E5FF02C0E5FF03C0E5FF04C0E5FF05C07B
:1027C000E5FF06C0E5FF07C0E5FF08C0E5FF09C05B
:1027D000E5FF0AC0E5FF0BC0E5FF0CC0E5FF0DC03B
:1027E000E5FF020EDBCF00F0030EDBCF01F0040E9D
:1027F000DBCF02F0050EDBCF03F0060EDBCF04F0DB
:10280000070EDBCF05F0080EDBCF06F0090EDBCF9D
:1028100007F0086A096A0A6A0B6A200E0C6E0350F8
:10282000800BE8440D6E0050002601360236033658
:102830000850082609360A360B360D50D8A40880F1
:1028400007500B5C08E106500A5C05E10550095C85
:1028500002E10450085C09E30450085E0550095A7F
:1028600006500A5A07500B5A00800C040D6E0DC01A
:102870000CF00D50D4E103C0E9FF02C0F4FF01C029
:10288000F3FF0050E4CF0DF0E4CF0CF0E4CF0BF0F9
:10289000E4CF0AF0E4CF09F0E4CF08F0E4CF07F08A
:1028A000E4CF06F0E4CF05F0E4CF04F0E4CF03F08A
:1028B000E4CF02F0E4CF01F0E4CF00F0E4CFD9FFA1
:1028C000120000C0E5FF01C0E5FF03C0E5FF04C042
:1028D000E5FF05C0E5FF06C0E5FF07C0E5FF08C04E
:1028E000E5FF09C0E5FF0AC0E5FF0BC0E5FF70CAC0
:1028F00000F071CA01F00A01703F01D0712B005045
:10290000E56E53EC26F0E652076E046A056A066A25
:1029100070CA00F071CA01F00A01703F01D0712B3A
:102920000050E56E53EC26F0E6520B6A0A6E086A18
:102930000850041205120A5006120B50071270CAF2
:1029400000F071CA01F00A01703F01D0712B0050F4
:10295000E56E53EC26F0E652036E006A03C001F008
:10296000E86A03BEFF0E086E096E005004120150A3
:102970000512085006120950071270CA00F071CAF9
:1029800001F00A01703F01D0712B0050E56E53EC4D
:1029900026F0E652016A04120150051206120712CF
:1029A00007C0E9FF06C0F4FF05C0F3FF0450E4CF01
:1029B0000BF0E4CF0AF0E4CF09F0E4CF08F0E4CF65
:1029C00007F0E4CF06F0E4CF05F0E4CF04F0E4CF65
:1029D00003F0E4CF01F0E4CF00F0120000C0E5FF07
:1029E00001C0E5FF02C0E5FF03C0E5FF04C0E5FF4D
:1029F0000A017D510A017C1901E15FD07DCA00F016
:102A0000002A009E600E0024016E026A000E02225F
:102A100001C0E9FF02C0EAFFEFCF87FA1F0E0A01EB
:102A200087177DCA86FA87510A018627862B862B4F
:102A3000869FBAEC22F0016E015003E1016A012A7F
:102A400001D0016ABAEC22F00A01876F800E871567
:102A5000026E1F0E8715036E03C004F003C087FAD1
:102A6000045003E17CCA7DFA3BD001501BE00250C8
:102A700022E0BAEC22F0006E0A0187070050420AF9
:102A80001AE000504E0A03E11DEC1FF014D0005074
:102A9000460A03E195EC26F00ED00050490A0BE1FE
:102AA000FF0009D07DCA88FA025003E071EC1BF0E8
:102AB00002D0C9EC26F086CA7DFA0001E45100017B
:102AC000E51906E00A017E5103E105EC16F008D095
:102AD0008BB006D00A017E5103E1ACB261EC26F066
:102AE000E4CF04F0E4CF03F0E4CF02F0E4CF01F050
:102AF000E4CF00F01200D9CFE5FFE1CFD9FF00C04D
:102B0000E5FF01C0E5FF02C0E5FF03C0E5FF04C02B
:102B1000E5FF05C0E5FF06C0E5FF07C0E5FF08C00B
:102B2000E5FF09C0E5FF0AC0E5FF020EDBCF00F0BC
:102B3000030EDBCF01F0040EDBCF02F0050EDBCF7E
:102B400003F0060EDBCF04F0070EDBCF05F00038F4
:102B5000E8441F0B066E076A760E06260A0E072249
:102B600006C0E9FF07C0EAFFEFCF08F0070E001428
:102B7000096E010E0A6E095005E0E86CD8900A361D
:102B8000010FFDE30A50081206C0E9FF07C0EAFF83
:102B900008C0EFFF400E0024066E076A0A0E0722E7
:102BA00006C0E9FF07C0EAFF01C0EFFF016A230E7C
:102BB00000260F0E0122800E025E070E021602385A
:102BC000F00B036E070E05160550032600C0E9FF43
:102BD00001C0EAFF03C0EFFFE4CF0AF0E4CF09F041
:102BE000E4CF08F0E4CF07F0E4CF06F0E4CF05F03F
:102BF000E4CF04F0E4CF03F0E4CF02F0E4CF01F03F
:102C0000E4CF00F0E4CFD9FF120000C0E5FF01C01F
:102C1000E5FF02C0E5FF03C0E5FFACA276D05FECA4
:102C200024F0006E005005E10001E56B0001E46B4B
:102C30006CD0E5C001F0005001265FEC24F0026E7C
:102C400000060250230A1FE1010E005CD8A05BD0F1
:102C50005FEC24F0026E690A03E1DAEC21F053D054
:102C60000250720A03E161EC26F04DD00250730A63
:102C700001E049D08B80AB869D8A9D98AE50AE50C6
:102C8000AB98AB8840D00250430A05E00250420A9C
:102C900001E039D001D0008E00C080FA005004015C
:102CA000006F010E0A01816F0001E551011814E067
:102CB0005FEC24F0026E0A018027000E0A018125D4
:102CC000006E036A040E032200C0E9FF03C0EAFF9E
:102CD00002C0EFFF812BE8D7000E0A018125006EAC
:102CE000026A040E02220A01801D036E032A00C03C
:102CF000E9FF02C0EAFF03C0EFFF0A01812B81CA8E
:102D00007EFA0A01786B01C0E5F0E4CF03F0E4CF6E
:102D100002F0E4CF01F0E4CF00F01200D9CFE5FFDC
:102D2000E1CFD9FF00C0E5FF01C0E5FF02C0E5FF2C
:102D300003C0E5FF04C0E5FF05C0E5FF06C0E5FFF1
:102D400007C0E5FF020EDBCF00F0030EDBCF01F082
:102D5000040EDBCF02F0050EDBCF03F002C006F05D
:102D60000650046E800A33E100C0E9FF01C0F3FFA2
:102D70000250D6EC24F0056EF3CF06F0F4CF07F046
:102D800003C0E5FF05C0E9FF06C0F3FF0750ABEC49
:102D900026F000C0E9FF01C0F3FF0250D6EC24F09A
:102DA000056EF3CF06F0F4CF07F0052A02E3064ADA
:102DB000072A05C0E5FF06C0F4FF07C0F6FF00C004
:102DC000E9FF01C0F3FF025044EC26F01DD004AA35
:102DD0001BD0047A045004E1035000EC27F014D017
:102DE0000450010A04E1035013EC27F00DD0045005
:102DF0000F0A04E1035078EC21F006D004500E0ACB
:102E000003E1035010EC27F0E4CF07F0E4CF06F025
:102E1000E4CF05F0E4CF04F0E4CF03F0E4CF02F018
:102E2000E4CF01F0E4CF00F0E4CFD9FF120000C0FE
:102E3000E5FF01C0E5FF02C0E5FF03C0E5FF04C0F8
:102E4000E5FF006A760E0024016E026A0A0E022275
:102E500001C0E9FF02C0EAFFEF6A002A020E005C2F
:102E6000F1E3006A0050020DF450026EF3CF01F05E
:102E7000390E0124036E040E0220046E03C0E9FF24
:102E800004C0EAFFEE6AEF6A590E0124036E040ED5
:102E90000220046E03C0E9FF04C0EAFFEE6AEF6A95
:102EA000930E0124036E040E0220046E03C0E9FF9A
:102EB00004C0EAFFEE6AEF6AB30E0124036E040E4B
:102EC0000220046E03C0E9FF04C0EAFFEE6AEF6A65
:102ED000D30E0126040E022201C0E9FF02C0EAFF60
:102EE000EE687F0EEF6E230E0024016E026A0F0E55
:102EF000022201C0E9FF02C0EAFFEF68002A100EBB
:102F0000005CD8A0AFD7AF0EC06EC16A010EC26E12
:102F1000C282E4CF04F0E4CF03F0E4CF02F0E4CFC8
:102F200001F0E4CF00F01200432041202564202569
:102F3000640A000000C0E5FF01C0E5FF02C0E5FF34
:102F400003C0E5FFEEEC14F06BEC11F0EEEC14F0C6
:102F5000800EE56E040EE56E790EE56E9CEC10F0C9
:102F6000030EE126EEEC14F0CCEC1BF0EEEC14F0CA
:102F700090EC22F0006EF3CF01F0F4CF02F0E9CF35
:102F800003F00F013351005E3451015A3551025A9A
:102F90003651035A039E3F0E035C08E1FF0E025CAC
:102FA00005E1FF0E015C02E1FF0E005CD8B03AD0F3
:102FB00090EC22F0F3CF01F0F4CF02F0E9CF03F070
:102FC000880F0F01336F130E0120346F000E0220A3
:102FD000356F000E0320366FD9EC0EF0006E0050F6
:102FE0000CE1010EE56E800EE56E040EE56E790EC5
:102FF000E56EA8EC12F0040EE1260001E151030B8E
:103000000FE10A016F51E56E6E51E56E000EE56E3F
:103010000E0EE56E280EE56E9FEC1FF0050EE12604
:103020000001E12BE4CF03F0E4CF02F0E4CF01F0A4
:10303000E4CF00F01200D9CFE5FFE1CFD9FF00C007
:10304000E5FF01C0E5FF02C0E5FF03C0E5FF04C0E6
:10305000E5FF05C0E5FF06C0E5FF07C0E5FF020E7E
:10306000DBCF00F0030EDBCF01F0040EDBCF02F06C
:10307000050EDBCF03F0E5C0E6F00001E4510001EE
:10308000E65FE60703C004F0056A030E0426D8B025
:10309000052AE6C006F0076A0750800FF36E055058
:1030A000800FF35C02E10450065C02E2E8682BD07A
:1030B000020E035C02E2E86A26D003060350E56EC6
:1030C0005BEC20F0E652046A0350045C14E2045006
:1030D0000024056EE86A0120066EE86A022005C039
:1030E000E9FF06C0F3FF12EC26F0042AE56E5BEC64
:1030F00020F0E652E9D7E5C0E6F00001E451000116
:10310000E65FE607E86AE4CF07F0E4CF06F0E4CF35
:1031100005F0E4CF04F0E4CF03F0E4CF02F0E4CF15
:1031200001F0E4CF00F0E4CFD9FF1200D9CFE5FFE2
:10313000E1CFD9FF00C0E5FF01C0E5FF02C0E5FF18
:1031400003C0E5FF04C0E5FF05C0E5FF020EDBCFCD
:1031500000F0030EDBCF01F0040EDBCF02F00050D5
:10316000020DF450036EF3CF00F0590E0024046EEC
:10317000040E0320056E04C0E9FF05C0EAFF01C08C
:10318000EEFF02C0EFFF930E0024046E040E032036
:10319000056E04C0E9FF05C0EAFFEECF04F0EFCFF3
:1031A00005F00150045C016E02500558026E000EDD
:1031B00000260A0E032200C0E9FF03C0EAFF01C097
:1031C000EEFF02C0EFFFD88002AED89004E3021EEB
:1031D000016CD8B4022A0250800F800F02E1030E66
:1031E000015C02E2016A026A0150021007E100C0BC
:1031F000E9FF03C0EAFF000EEE6AEF6AE4CF05F0D4
:10320000E4CF04F0E4CF03F0E4CF02F0E4CF01F028
:10321000E4CF00F0E4CFD9FF1200D9CFE5FFE1CF32
:10322000D9FF00C0E5FF01C0E5FF02C0E5FF03C014
:10323000E5FF04C0E5FF05C0E5FF06C0E5FF020E9F
:10324000DBCF00F0030EDBCF01F0040EDBCF02F08A
:10325000050EDBCF03F0D88001AED890046A0436A7
:10326000045007E0011C066E001C056E054A062A84
:1032700004D000C005F001C006F0D88003AED8909D
:1032800007E3031C016E021C006E004A012A04D0F1
:1032900002C000F003C001F00150E56E0050E56E81
:1032A0000650E56E0550E56E14EC1BF0006EF3CF92
:1032B00001F0040EE12604500AE0011C036E001C1C
:1032C000026E024A032A03C0F3FF025003D001C07A
:1032D000F3FF0050E4CF06F0E4CF05F0E4CF04F0B4
:1032E000E4CF03F0E4CF02F0E4CF01F0E4CF00F04C
:1032F000E4CFD9FF1200D9CFE5FFE1CFD9FF00C05D
:10330000E5FF01C0E5FF02C0E5FF03C0E5FF04C023
:10331000E5FF05C0E5FF020EDBCF00F0030EDBCFBB
:1033200001F0040EDBCF02F0050EDBCF03F070CA14
:1033300004F071CA05F00A01703F01D0712B0350EF
:10334000E56E0450E56E1BEC24F0E652E65270CABE
:1033500004F071CA05F00A01703F01D0712B0250D0
:10336000056EE56E0450E56E1BEC24F0E652E65265
:1033700070CA04F071CA05F00A01703F01D0712BC8
:103380000150056EE56E0450E56E1BEC24F0E6522C
:10339000E65270CA04F071CA05F00A01703F01D00C
:1033A000712B0050E56E0450E56E1BEC24F0E652E4
:1033B000E652E4CF05F0E4CF04F0E4CF03F0E4CF2D
:1033C00002F0E4CF01F0E4CF00F0E4CFD9FF120027
:1033D000D9CFE5FFE1CFD9FF00C0E5FF01C0E5FF90
:1033E00002C0E5FF03C0E5FF04C0E5FF05C0E5FF3F
:1033F00006C0E5FF020EDBCF00F0030EDBCF01F0CD
:10340000040EDBCF02F00401375119E161EC14F036
:10341000036EF3CF04F0F4CF05F0E9CF06F003C05C
:10342000E5FF04C0F4FF05C0F6FF06C0F7FF00C0CB
:10343000E9FF01C0F3FF025023EC26F01ED0040187
:103440003751010A1AE100C0E9FF01C0F3FF025041
:103450003FEC24F0006EF3CF01F0F4CF02F0E9CF9F
:1034600003F00350E56E0250E56E0150E56E00502A
:10347000E56E7BEC19F0040EE126E4CF06F0E4CF14
:1034800005F0E4CF04F0E4CF03F0E4CF02F0E4CFA2
:1034900001F0E4CF00F0E4CFD9FF1200D9CFE5FF6F
:1034A000E1CFD9FF00C0E5FF01C0E5FF02C0E5FFA5
:1034B00003C0E5FF04C0E5FF05C0E5FF06C0E5FF6A
:1034C000020EDBCF00F0030EDBCF01F00038E84442
:1034D0001F0B026E036A760E02260A0E032202C03A
:1034E000E9FF03C0EAFFEFCF04F0070E0014056EFA
:1034F000010E066E055005E0E86CD8900636010F07
:10350000FDE30650041202C0E9FF03C0EAFF04C055
:10351000EFFF400E0024026E036A0A0E032202C06F
:10352000E9FF03C0EAFF01C0EFFF016A230E002696
:103530000F0E012200C0E9FF01C0EAFFFF0EEF6895
:10354000E4CF06F0E4CF05F0E4CF04F0E4CF03F0DD
:10355000E4CF02F0E4CF01F0E4CF00F0E4CFD9FFF4
:103560001200D9CFE5FFE1CFD9FF00C0E5FF01C0D0
:10357000E5FF02C0E5FF03C0E5FF04C0E5FF05C0AD
:10358000E5FF06C0E5FF020EDBCF00F0030EDBCF48
:1035900001F0040EDBCF02F0050EDBCF03F0060EC8
:1035A000DBCF04F0070EDBCF05F0080EDBCF06F013
:1035B000D88003AED89015E306500A0A12E104C081
:1035C000E9FF05C0EAFF2D0EEF6E044A052A031E2F
:1035D000021E011E006C05E1012A03E1022AD8B493
:1035E000032A0650E56E0550E56E0450E56E035063
:1035F000E56E0250E56E0150E56E0050E56EC0ECE0
:103600000FF0070EE126E4CF06F0E4CF05F0E4CF9B
:1036100004F0E4CF03F0E4CF02F0E4CF01F0E4CF14
:1036200000F0E4CFD9FF1200D9CFE5FFE1CFD9FFF9
:1036300000C0E5FF01C0E5FF02C0E5FF03C0E5FFF4
:1036400004C0E5FF05C0E5FF06C0E5FF020EDBCFC5
:1036500000F0030EDBCF01F0040EDBCF02F0050E0D
:10366000DBCF03F0046A056A0350800BE844066E62
:10367000065011E10250022603360350015C02E1BC
:103680000250005C04E2D8900332023204D0052AD2
:1036900005C004F0E9D70350015C02E10250005C70
:1036A00004E30250005E0350015AD8900332023204
:1036B00004C005F004060550EEE101C0F3FF005020
:1036C000E4CF06F0E4CF05F0E4CF04F0E4CF03F05C
:1036D000E4CF02F0E4CF01F0E4CF00F0E4CFD9FF73
:1036E000120000C0E5FF01C0E5FF02C0E5FFBAEC33
:1036F00022F0006E4C0A08E1BAEC22F0300A02E037
:103700008B8243D08B9241D00050450A27E1000EB6
:10371000E56E0E0EE56E320EE56E9FEC1FF0030EA9
:10372000E1260AEC27F0006E00C001F001C002F0B3
:10373000010602500FE0BAEC22F0E56AE56E000ED9
:10374000E56E0E0EE56E340EE56E9FEC1FF0050E75
:10375000E126ECD70A0E78EC21F017D00050520A7F
:1037600014E1270EE56EE56A080EE56E40EC13F0F5
:10377000030EE126E56A800EE56E040EE56E790E15
:10378000E56EC7EC1CF0040EE126E4CF02F0E4CFB6
:1037900001F0E4CF00F0120000C0E5FF01C0E5FF3A
:1037A00002C0E5FF03C0E5FF04C0E5FF05C0E5FF7B
:1037B0000001E0B12BD0C2B237D00A016E390F0B35
:1037C000006E6F39016EF00B011A0026F00E01B683
:1037D000012600506E5D006E01506F59016EC3CF1F
:1037E00002F0036A0250002603500122C4CF02F007
:1037F000036A0250056E046A045000246E6F05507F
:1038000001206F6F250EC26E8A940CD006C0E5FFB2
:10381000F2CF06F0F29E8A840000C28206BEF28ECB
:10382000E4CF06F00001E02BE4CF05F0E4CF04F094
:10383000E4CF03F0E4CF02F0E4CF01F0E4CF00F0F6
:103840001200D9CFE5FFE1CFD9FF00C0E5FF01C0ED
:10385000E5FF02C0E5FF03C0E5FF020EDBCF00F08D
:10386000030EDBCF01F0040EDBCF02F000C0E9FF56
:1038700001C0F3FF025012EC26F0036E035029E062
:10388000C6A610D00350E56E23EC25F0036EE65279
:10389000035002E0FD0E1ED039EC22F0C5AC14D06E
:1038A000FE0E18D09E9600C0E9FF01C0F3FF025043
:1038B00012EC26F0C96EC6889EA6FED7C7B404D007
:1038C000C7B002D0FE0E06D0002AD0E3014A022A79
:1038D000CDD7E86AE4CF03F0E4CF02F0E4CF01F003
:1038E000E4CF00F0E4CFD9FF120000C0E5FF01C033
:1038F000E5FF02C0E5FF03C0E5FF7DCA00F0016AF5
:1039000088CA02F0036A0250005E0350015AE56A59
:10391000800EE56E0150E56E0050E56E0DEC19F07D
:10392000006E040EE126000688CA01F0430E78EC12
:1039300021F0200E78EC21F0005020E0600E0124F0
:10394000026E036A000E032202C0E9FF03C0EAFF11
:10395000EFCF02F0E56A0250E56E000EE56E4C0E08
:10396000E56EDA0EE56E9FEC1FF0050EE126012AEA
:103970000150800A01E1016A0006DED7E4CF03F0BE
:10398000E4CF02F0E4CF01F0E4CF00F01200D9CF91
:10399000E5FFE1CFD9FF00C0E5FF01C0E5FF02C0B0
:1039A000E5FF03C0E5FF020EDBCF00F0030EDBCF27
:1039B00001F0040EDBCF02F0050EDBCF03F0035065
:1039C00003E11D0E036E02D0530E036E03C0E5FF2C
:1039D00000C0E9FF01C0F3FF0250ABEC26F0E56A3E
:1039E0002D0EE56E0350E56E0AEC22F0030EE12683
:1039F000100EE56E2D0EE56E0350E56E0AEC22F01A
:103A0000030EE126080EE56E2D0EE56E0350E56E01
:103A10000AEC22F0030EE126E4CF03F0E4CF02F03B
:103A2000E4CF01F0E4CF00F0E4CFD9FF1200D9CF0A
:103A3000E5FFE1CFD9FF00C0E5FF01C0E5FF02C00F
:103A4000E5FF03C0E5FF04C0E5FF020EDBCF00F099
:103A5000030EDBCF01F0040EDBCF02F0040137517F
:103A600011E144EC21F0036EF3CF04F003C0E5FF55
:103A700004C0F4FF00C0E9FF01C0F3FF02507DEC79
:103A800026F016D004013751010A12E100C0E9FF07
:103A900001C0F3FF0250ADEC25F0006EF3CF01F052
:103AA0000150E56E0050E56E1EEC20F0E652E65245
:103AB000E4CF04F0E4CF03F0E4CF02F0E4CF01F070
:103AC000E4CF00F0E4CFD9FF1200D9CFE5FFE1CF7A
:103AD000D9FF00C0E5FF01C0E5FF02C0E5FF03C05C
:103AE000E5FF04C0E5FF020EDBCF00F00038E8443C
:103AF0001F0B016E026A740E01260A0E022201C01B
:103B0000E9FF02C0EAFFEFCF01F0070E0016010E39
:103B1000026E000E036E005006E0E86CD89002368C
:103B20000336010FFCE3046A015002160450031629
:103B300002500310D880E866D890026A023602501C
:103B4000D880E866D890026A02360250E4CF04F0CA
:103B5000E4CF03F0E4CF02F0E4CF01F0E4CF00F0D3
:103B6000E4CFD9FF1200D00EF66E4D0EF76E000EA8
:103B7000F86E0900F550056E0900F550066E04E177
:103B8000056702D000EF1EF00900F550006E090035
:103B9000F550016E0900F550026E09000900F5505C
:103BA000E96E0900F550EA6E090009000900F550B8
:103BB000036E0900F550046E09000900F6CF07F006
:103BC000F7CF08F0F8CF09F000C0F6FF01C0F7FF0B
:103BD00002C0F8FF035002E1045007E00900F5506D
:103BE000EE6E0306F8E20406F9D707C0F6FF08C038
:103BF000F7FF09C0F8FF050601E20606BFEF1DF05A
:103C00001200D9CFE5FFE1CFD9FF00C0E5FF01C029
:103C1000E5FF02C0E5FF03C0E5FF04C0E5FF05C006
:103C2000E5FF020EDBCF00F00050010A22E1016A3D
:103C30000150020DF450036EF3CF02F0B30E0224D4
:103C4000046E040E0320056E04C0E9FF05C0EAFF00
:103C5000EE687F0EEF6ED30E0226040E032202C022
:103C6000E9FF03C0EAFFEE6AEF6A012A100E015C69
:103C7000DFE300C0EBF0E4CF05F0E4CF04F0E4CFE5
:103C800003F0E4CF02F0E4CF01F0E4CF00F0E4CFA2
:103C9000D9FF1200D9CFE5FFE1CFD9FF00C0E5FF82
:103CA00001C0E5FF02C0E5FF03C0E5FF04C0E5FF7A
:103CB000020EDBCF00F0030EDBCF01F0040EDBCFF2
:103CC00002F0036A02C004F0020604501DE065EC35
:103CD00022F0046E00C0E9FF01C0EAFF04C0EFFF5C
:103CE000004A012A03C004F0C5A6ECD7A1A602D061
:103CF000E8680BD0042A04C003F00250F5E0E4ECBD
:103D000022F0C5B8FED7F0D70350E4CF04F0E4CFDB
:103D100003F0E4CF02F0E4CF01F0E4CF00F0E4CF11
:103D2000D9FF120000C0E5FF01C0E5FF02C0E5FFBA
:103D300003C0E5FF04C0E5FF006A720E0024016EB7
:103D4000026A0A0E0222740E0024036E046A0A0E2E
:103D5000042203C0E9FF04C0EAFF010EEF6E01C0B8
:103D6000E9FF02C0EAFFEF6E002A020E005CE5E305
:103D7000006A230E0024016E026A040E022201C0B2
:103D8000E9FF02C0EAFFEF68002A100E005CF1E3D1
:103D9000E4CF04F0E4CF03F0E4CF02F0E4CF01F08D
:103DA000E4CF00F012004320732025642025640A2C
:103DB0000000D9CFE5FFE1CFD9FF00C0E5FF01C08A
:103DC000E5FF02C0E5FF03C0E5FF04C0E5FF05C055
:103DD000E5FF020EDBCF00F0030EDBCF01F0040E97
:103DE000DBCF02F0050EDBCF03F0060EDBCF04F0D5
:103DF000056A230E0026040E0522800E015E070EC2
:103E000001160138F00B026E070E0416045002264C
:103E100000C0E9FF05C0EAFF02C0EFFFE4CF05F0F4
:103E2000E4CF04F0E4CF03F0E4CF02F0E4CF01F0FC
:103E3000E4CF00F0E4CFD9FF120000C0E5FF01C0DD
:103E4000E5FF02C0E5FFBAEC22F0006EBAEC22F00A
:103E5000016E0050026ED00E0224006E0A0E005C4D
:103E600005E30050026EF90E0224006E0150026E4E
:103E7000D00E0224016E0A0E015C05E30150026EB1
:103E8000F90E0224016E080E005C12E2100E015CB5
:103E9000D8B00ED00038F00B0124006ED2EC20F028
:103EA000016E015005E10050E56E0BEC25F0E65285
:103EB000E4CF02F0E4CF01F0E4CF00F01200D9CF5C
:103EC000E5FFE1CFD9FF00C0E5FF01C0E5FF02C07B
:103ED000E5FF03C0E5FF04C0E5FF020EDBCF00F005
:103EE0000038E8441F0B016E026A760E01260A0EA6
:103EF000022201C0E9FF02C0EAFFEFCF03F0070E84
:103F00000016010E046E005005E0E86CD8900436EF
:103F1000010FFDE3041C031601C0E9FF02C0EAFF24
:103F200003C0EFFFE4CF04F0E4CF03F0E4CF02F0EE
:103F3000E4CF01F0E4CF00F0E4CFD9FF1200D9CFF5
:103F4000E5FFE1CFD9FF00C0E5FF01C0E5FF02C0FA
:103F5000E5FF020ED924006E000EDA20016E800EFD
:103F6000026E030E0026000E012202220250E56EB0
:103F70000150E56E0050E56E040EDBCFE5FF030E49
:103F8000DBCFE5FF020EDBCFE5FF0A016751E56EEF
:103F90006651E56E6551E56E0EEC00F0006EF3CFF4
:103FA00001F0090EE12601C0F3FF0050E4CF02F05A
:103FB000E4CF01F0E4CF00F0E4CFD9FF1200D9CF75
:103FC000E5FFE1CFD9FF00C0E5FF01C0E5FF02C07A
:103FD000E5FF03C0E5FF020EDBCF00F0030EDBCFF1
:103FE00001F0040EDBCF02F0040137510DE181EC4A
:103FF00025F0036E03C0E5FF00C0E9FF01C0F3FF39
:104000000250ABEC26F00FD004013751010A0BE14E
:1040100000C0E9FF01C0F3FF025012EC26F0E56E8C
:10402000D0EC23F0E652E4CF03F0E4CF02F0E4CF8B
:1040300001F0E4CF00F0E4CFD9FF1200D9CFE5FFC3
:10404000E1CFD9FF00C0E5FF01C0E5FF02C0E5FFF9
:1040500003C0E5FF020EDBCF00F0030EDBCF01F063
:1040600070CA02F071CA03F00A01703F01D0712BCF
:104070000150E56E0250E56E1BEC24F0E652E6526C
:1040800070CA02F071CA03F00A01703F01D0712BAF
:104090000050E56E0250E56E1BEC24F0E652E6524D
:1040A000E4CF03F0E4CF02F0E4CF01F0E4CF00F07E
:1040B000E4CFD9FF1200D9CFE5FFE1CFD9FF00C08F
:1040C000E5FF01C0E5FF02C0E5FF03C0E5FF04C056
:1040D000E5FF020EDBCF00F0E4C001F0026A014A06
:1040E000022AE5C003F0046A0150031803E10250FC
:1040F000041801E001D00ED0000E0001E425016E8D
:10410000026A070E022201C0E9FF02C0EAFF00C0F6
:10411000EFFFE42BE4CF04F0E4CF03F0E4CF02F0B0
:10412000E4CF01F0E4CF00F0E4CFD9FF1200D9CF03
:10413000E5FFE1CFD9FF00C0E5FF01C0E5FF02C008
:10414000E5FF03C0E5FF020EDBCF00F0016A88CA7D
:1041500002F0036A0250002603500122E56A800E35
:10416000E56E0150E56E0050E56E0DEC19F0006E45
:10417000F3CF01F0040EE126600E0026000E0122AE
:1041800000C0E9FF01C0EAFFEFCF00F00050E4CF2C
:1041900003F0E4CF02F0E4CF01F0E4CF00F0E4CF8D
:1041A000D9FF120000C0E5FF01C0E5FF02C0E5FF36
:1041B000010E006EBAEC22F0016E01C002F0015057
:1041C00023E00050E56E53EC26F0016EE6520150FC
:1041D00010E10A0E005C0BE20A0E006EE56E53EC75
:1041E00026F0016EE652015004E1E8680ED0E8685E
:1041F0000CD00150021802E0E86807D0002A1B0E1C
:10420000005CD8E3E86801D0E86AE4CF02F0E4CFCC
:1042100001F0E4CF00F01200F3CFE5FFF4CFE5FFAB
:10422000E9CFE5FFEACFE5FFFACFE5FFFBCFE5FFFA
:104230000001E2510401836F0001E3510401846F26
:10424000D650816FD750826FF2A411D00001E23FA7
:1042500001D0E32BF2940001E2510401836F0001CD
:10426000E3510401846FD650816FD750826FE4CF41
:10427000FBFFE4CFFAFFE4CFEAFFE4CFE9FFE4CFAE
:10428000F4FFE4CFF3FF110000C0E5FF01C0E5FF3C
:1042900002C0E5FF03C0E5FF70CA00F071CA01F07B
:1042A0000A01703F01D0712B0050E56E53EC26F0EF
:1042B000E652036E026A70CA00F071CA01F00A0188
:1042C000703F01D0712B0050E56E53EC26F0E652A2
:1042D000016A02120150031203C0F3FF0250E4CF3F
:1042E00003F0E4CF02F0E4CF01F0E4CF00F01200DD
:1042F00000C0E5FF01C0E5FF02C0E5FF006E000E53
:104300000001E925016E026A0F0E022201C0E9FFD9
:1043100002C0EAFF00C0EFFF220EE95D01E2E92BD7
:1043200000500A0A0FE10001E951E56E800EE56ECA
:104330000F0EE56E000EE56E1BEC18F0040EE12684
:104340000001E96BE4CF02F0E4CF01F0E4CF00F02C
:104350001200D9CFE5FFE1CFD9FF00C0E5FF01C0D2
:10436000E5FF02C0E5FF020EDBCF00F0030EDBCF5E
:1043700001F05BEC23F00044FE0B026E0150D8808C
:10438000E866D890006A00360050D880E866D89079
:10439000006A0036005002120250E56E23EC25F050
:1043A000E652E4CF02F0E4CF01F0E4CF00F0E4CF36
:1043B000D9FF12000001E46B0001E56B0001E66922
:1043C0008B809490B06A3F0EAF6EB886AC8AAC8496
:1043D000AC8CAC90AB8CAB8E0A017F6B0A01796B15
:1043E0000A017C6B0A017D6B0A017E6B000EE56A97
:1043F00053EC26F00001E86FE6529F989F9A010E59
:104400000001E76F0A01656B666B2F0E676F61EC49
:1044100026F01200D9CFE5FFE1CFD9FF00C0E5FFBC
:1044200001C0E5FF02C0E5FF020EDBCF00F0030E86
:10443000DBCF01F0040EDBCF02F0E56A0050E56E41
:10444000A9EC21F0E652E6520150E56E23EC25F08E
:10445000E6520250E56E23EC25F0E65234EC23F0F0
:10446000E4CF02F0E4CF01F0E4CF00F0E4CFD9FFD5
:10447000120000C0E5FF01C0E5FF02C0E5FF03C078
:10448000E5FFE80E006E030E016E0050FF0F026E96
:10449000FF0E0120036E02C000F003C001F00250C5
:1044A00003100AE01F0EC514026E036AC7B4032A84
:1044B000035002120250E9E1E4CF03F0E4CF02F02E
:1044C000E4CF01F0E4CF00F0120000C0E5FF01C02E
:1044D000E5FF02C0E5FF03C0E5FFE80E006E030E36
:1044E000016E39EC22F0C5860050FF0F026EFF0E00
:1044F0000120036E02C000F003C001F0025003105F
:1045000005E0F5EC26F0026E0250EEE0C950E4CF73
:1045100003F0E4CF02F0E4CF01F0E4CF00F01200AA
:104520000001E2510401876F0001E3510401886F2B
:10453000D650856FD750866F87510001E21905E18B
:10454000040188510001E3190CE00001E25104016B
:10455000876F0001E3510401886FD650856FD750F3
:10456000866F88C4E9FF87C4F4FF86C4F3FF0401A3
:104570008551120000C0E5FF01C0E5FF0A017D5131
:104580000A01861905E00A017D510A017C1902E140
:10459000E86A15D07DCA00F00A017D2B016A600E21
:1045A0000026000E012200C0E9FF01C0EAFFEFCFA4
:1045B00000F07D51800A02E10A017D6B0050E4CFDA
:1045C00001F0E4CF00F0120000C0E5FF01C0E5FFFC
:1045D00002C0E5FF03C0E5FFE80E006E030E016EAA
:1045E00039EC22F09E96C59AC5880050FF0F026EE6
:1045F000FF0E0120036E02C000F003C001F0025064
:10460000031002E09EA6F1D7E4CF03F0E4CF02F05E
:10461000E4CF01F0E4CF00F0120000C0E5FF04ECAD
:1046200027F00401896B806B8983006A89B3002AB3
:104630000050010BE844F46E8051FD0BF410806FC4
:10464000D58ED59CD59AD588D596D594D582D5804A
:10465000F28AF184D08EF28EF28CBA80FF0EBB68A3
:10466000BA84E4CF00F0120000C0E5FF01C0E5FF0E
:1046700002C0E5FF03C0E5FFE80E006E030E016E09
:1046800039EC22F0C5840050FF0F026EFF0E0120AE
:10469000036E02C000F003C001F00250031002E0FC
:1046A000C5B4F1D7E4CF03F0E4CF02F0E4CF01F0DA
:1046B000E4CF00F0120000C0E5FF01C0E5FF02C03A
:1046C000E5FF03C0E5FFE80E006E030E016E39EC56
:1046D00022F0C5800050FF0F026EFF0E0120036E16
:1046E00002C000F003C001F00250031002E0C5B0A8
:1046F000F1D7E4CF03F0E4CF02F0E4CF01F0E4CF50
:1047000000F01200D9CFE5FFE1CFD9FF00C0E5FFEF
:1047100001C0E5FF020EDBCF00F00050020DF450A7
:10472000016EF3CF00F0000E00260A0E012200C039
:10473000E9FF01C0EAFFEECF00F0EFCF01F001C0CA
:10474000F3FF0050E4CF01F0E4CF00F0E4CFD9FF55
:104750001200D9CFE5FFE1CFD9FF00C0E5FF01C0CE
:10476000E5FF020EDBCF00F00050020DF450016EA9
:10477000F3CF00F0390E0026040E012200C0E9FF3D
:1047800001C0EAFFEECF00F0EFCF01F001C0F3FF70
:104790000050E4CF01F0E4CF00F0E4CFD9FF1200E5
:1047A000D9CFE5FFE1CFD9FF00C0E5FF01C0E5FFAC
:1047B00002C0E5FF020EDBCF00F070CA01F071CA43
:1047C00002F00A01703F01D0712B0050E56E0150DC
:1047D000E56E1BEC24F0E652E652E4CF02F0E4CFA3
:1047E00001F0E4CF00F0E4CFD9FF1200D8CFE5FF0D
:1047F000E0CFE5FFE56EF3CFE5FFF4CFE5FFE9CFCE
:10480000E5FFEACFE5FFFACFE5FFFBCFE5FFD7EC09
:104810000DF0E4CFFBFFE4CFFAFFE4CFEAFFE4CFF3
:10482000E9FFE4CFF4FFE4CFF3FFE450E4CFE0FF8F
:10483000E4CFD8FF1000D9CFE5FFE1CFD9FF00C00A
:10484000E5FF020EDBCF00F0030EDBCFA8FF00C0B8
:10485000A9FFA69EA69CA684F29EF29C550EA76E6A
:10486000AA0EA76EA682A6A202D00000FCD7A6942C
:10487000F28EF28CE4CF00F0E4CFD9FF1200E8AE64
:104880000AD0F3CFEAFFEE50EECFF3FFEECFF4FF06
:10489000EECFE9FF1200E8BC1FEF27F0E9CFF6FFEB
:1048A000F3CFF7FFF86E0900F5500900F5CFF3FFDD
:1048B0000900F5CFF4FF0900F5CFE9FF120000C0B1
:1048C000E5FF01C0E5FF0001E4510001E51902E147
:1048D000E86A0FD0000E0001E525006E016A070EA0
:1048E000012200C0E9FF01C0EAFFEFCF00F0E52B95
:1048F0000050E4CF01F0E4CF00F01200F2CFEAFF65
:10490000F29EA69EA69CA684E9CFA9FFF3CFAAFF9C
:10491000E4CFA8FFC0EC26F0F4CFA8FFC0EC26F04F
:10492000F6CFA8FFC0EC26F0F7CFA8FFC0EC26F02A
:10493000A694EABEF28E1200D9CFE5FFE1CFD9FFEF
:1049400000C0E5FF01C0E5FF020EDBCF00F0016A09
:10495000230E0026040E012200C0E9FF01C0EAFF79
:10496000FF0EEF68E4CF01F0E4CF00F0E4CFD9FF11
:104970001200F2CFF6FFF29EA69EA69CE9CFA9FFF9
:10498000F3CFAAFFA680A850A94AAA2AA680A8CF3A
:10499000F3FFA94AAA2AA680A8CFF4FFA94AAA2A07
:1049A000A680A8CFEAFFF6BEF28E1200E8AE08D0CD
:1049B000F3CFEAFFEE50EECFF3FFEECFF4FF12009D
:1049C000E8BC21EF27F0E9CFF6FFF3CFF7FFF86E51
:1049D0000900F5500900F5CFF3FF0900F5CFF4FF0A
:1049E0001200F2CFEAFFF29EA69EA69CA684E9CF13
:1049F000A9FFF3CFAAFFE4CFA8FFC0EC26F0F4CFC5
:104A0000A8FFC0EC26F0F6CFA8FFC0EC26F0A694D5
:104A1000EABEF28E1200D9CFE5FFE1CFD9FF00C088
:104A2000E5FF020EDBCF00F000C0E8F00050E56EBD
:104A3000000EE56A1BEC24F0E652E652E4CF00F0EB
:104A4000E4CFD9FF1200D9CFE5FFE1CFD9FF00C0F5
:104A5000E5FF020EDBCF00F0C69E00C0C9FFC6AE68
:104A600002D0E86803D039EC22F0E86AE4CF00F025
:104A7000E4CFD9FF1200F2CFF6FFF29EA69EA69CCD
:104A8000E9CFA9FFF3CFAAFFA680A850A94AAA2A76
:104A9000A680A8CFF3FFA94AAA2AA680A8CFF4FF30
:104AA000F6BEF28E120000C0E5FF01C0E5FF600E09
:104AB0000A017D25006E016A000E012200C0E9FF97
:104AC00001C0EAFFEFCF00F00050E4CF01F0E4CFE7
:104AD00000F01200D9CFE5FFE1CFD9FF00C0E5FF1C
:104AE000020EDBCF00F0610E005C05E37B0E005C84
:104AF00002E2010E01D0E86AE4CF00F0E4CFD9FF72
:104B0000120000C0E5FF01C0E5FF70CA00F071CAE5
:104B100001F00A01703F01D0712B0050E56E53EC9B
:104B200026F0E652E4CF01F0E4CF00F01200D9CF36
:104B3000E5FFE1CFD9FF00C0E5FF020EDBCF00F0BB
:104B400000C0E7F0005004E161EC26F09D9A9D98CA
:104B5000E4CF00F0E4CFD9FF1200E8AE06D0F3CFE7
:104B6000EAFFEE50EECFF3FF1200E8BC1DEF27F096
:104B7000E9CFF6FFF3CFF7FFF86E0900F550090013
:104B8000F5CFF3FF1200F2CFEAFFF29EA69EA69C9D
:104B9000A684E9CFA9FFF3CFAAFFE4CFA8FFC0EC1A
:104BA00026F0F4CFA8FFC0EC26F0A694EABEF28E61
:104BB000120018EEFFF028EEFFF0F86AA68EA69C11
:104BC000E9680E0EEA6E0068000EED6A0050FDE125
:104BD000B3EC1DF006EC00F0FFD7F2CFF6FFF29E2B
:104BE000A69EA69CE9CFA9FFF3CFAAFFA680A85056
:104BF000A94AAA2AA680A8CFF3FFF6BEF28E120019
:104C0000F2CFEAFFF29EA69EA69CA684E9CFA9FF5A
:104C1000F3CFAAFFE4CFA8FFC0EC26F0A694EABE2B
:104C2000F28E1200E8AE04D0F3CFEAFFEE5012008D
:104C3000E8BC1BEF27F0E9CFF6FFF3CFF7FFF86EE4
:104C40000900F5501200E8AE0BD0F3CFEAFFE4CF35
:104C5000EEFFF4CFEEFFF6CFEEFFF7CFEEFF120040
:104C6000E8BC19EF27F01200000000000000FF0070
:104C700000000000070002000000420000000000E9
:104C80000000000000000000E8AE09D0F3CFEAFF0A
:104C9000E4CFEEFFF4CFEEFFF6CFEEFF1200E8BC5C
:104CA00023EF27F01200D9CFE5FFE1CFD9FF020EA5
:104CB000DBCFA9FFA69CA69EA680A850E4CFD9FF73
:104CC0001200ACA2FED78B80AE500000AE50AB9865
:104CD000AB88AB869D8A9D98120025642000F2CF98
:104CE000F6FFF29EA69EA69CE9CFA9FFF3CFAAFFEE
:104CF000A680A850F6BEF28E1200E8AE07D0F3CF21
:104D0000EAFFE4CFEEFFF4CFEEFF1200E8BC17EFAE
:104D100027F01200700ED36E9B8CFF0E9268936882
:104D200094689668626AF19E120000C0E5FFD2ECBA
:104D300020F0006E005001E1FF00E4CF00F012000F
:104D40000F01456B900E0F01446F030E0F01436F6F
:104D50000F01458F1200E8AE05D0F3CFEAFFE4CF94
:104D6000EEFF1200E8BC15EF27F01200D9CFE5FFE7
:104D7000E1CFD9FF020EDBCFEEF0E4CFD9FF120076
:104D8000550EA76EAA0EA76EA682A6B2FED7A94A96
:104D9000AA2ABAEC22F0010A03E1BAEC22F0C06EB2
:104DA0001200010E0401376F1C0E0A01706F716B47
:104DB000120039EC22F09E96C58AC5889EA6FED7C1
:104DC00012000401376B1C0E0A01706F716B120028
:104DD0000100684C0000E00000002000000039ECF9
:104DE00022F0C582C5B2FED71200C7A002D0010EC4
:104DF00001D0E86A12000DEC23F0DAEC21F0120089
:104E0000ACA2FED7AD6E12008AEC26F012000A01A9
:104E10007D5112000A01875112000001E751120072
:104E2000E8CF7FFF1200C96E120000EF26F0C3EF3B
:104E300025F07EEF24F06FEF26F0EDEF25F0B9EFCF
:0A4E400024F03BEF25F0F1EF24F021
:00000001FF
