:020000040000FA
:10000000C7EF22F06C9A1200FAEF1DF0A5EC1AF07F
:10001000E0EC11F0FDD71200E4EF20F0D9CFE5FFBE
:10002000E1CFD9FF00C0E5FF01C0E5FF02C0E5FF59
:1000300003C0E5FF04C0E5FF05C0E5FF06C0E5FF1E
:1000400007C0E5FF08C0E5FF09C0E5FF0AC0E5FFFE
:100050000BC0E5FF0CC0E5FF0DC0E5FF0EC0E5FFDE
:100060000FC0E5FF10C0E5FF11C0E5FF12C0E5FFBE
:1000700013C0E5FF14C0E5FF15C0E5FF16C0E5FF9E
:1000800017C0E5FF18C0E5FF19C0E5FF1AC0E5FF7E
:100090001BC0E5FF1CC0E5FF1DC0E5FF1EC0E5FF5E
:1000A000020EDBCF00F0030EDBCF01F0040EDBCF3E
:1000B00002F0050EDBCF03F0060EDBCF04F0070ED7
:1000C000DBCF05F0080EDBCF06F0090EDBCF07F023
:1000D0000A0EDBCF08F0096A0A6A02C00DF00D5063
:1000E000800A0DE102500301706F01506F6F0050E4
:1000F0006E6F030E016E6E0E006E800E026E03C0F8
:10010000E9FF04C0F3FF055011EC23F00B6E0B5018
:10011000D8B4C4EF03F00B50250A02E0ABEF03F0B4
:100120000C6A0D6A0E6A0F6A106A0A0E116E126A64
:10013000136A146A200E156E1668176A2B0E186E55
:10014000032A02E3044A052A03C0E9FF04C0F3FFBF
:10015000055011EC23F0196E250A13E11950E56ED4
:100160000250E56E0150E56E0050E56E07EC14F0AC
:10017000040EE126094A0A2A032A02E3044A052A50
:10018000BED71950300A06E1300E156E032A02E37D
:10019000044A052A03C0E9FF04C0F3FF055011EC2F
:1001A00023F02D0A06E1010E146E032A02E3044A2D
:1001B000052A03C0E9FF04C0F3FF055011EC23F04A
:1001C000200A08E1010E176E200E186E032A02E3C2
:1001D000044A052A03C0E9FF04C0F3FF055011ECEF
:1001E00023F02B0A06E1010E176E032A02E3044AEC
:1001F000052A03C0E9FF04C0F3FF055011EC23F00A
:10020000196E310E195C2BE33A0E195C28E203C01B
:1002100019F004C01AF005C01BF019C0E9FF1AC09C
:10022000F3FF1B5011EC23F01C6E300E1C5C11E32D
:100230003A0E1C5C0EE213500A0DF3CF1DF01D5058
:100240001C26D00E1C24136E192A02E31A4A1B2AFC
:10025000E4D719C003F01AC004F01BC005F003C0B6
:10026000E9FF04C0F3FF055011EC23F02E0A2DE145
:10027000032A02E3044A052A166A03C019F004C0DF
:100280001AF005C01BF019C0E9FF1AC0F3FF1B509C
:1002900011EC23F01C6E300E1C5C11E33A0E1C5C5A
:1002A0000EE216500A0DF3CF1DF01D501C26D00E85
:1002B0001C24166E192A02E31A4A1B2AE4D719C015
:1002C00003F01AC004F01BC005F003C0E9FF04C02E
:1002D000F3FF055011EC23F0196E6C0A07E1010ED3
:1002E0000C6E032A02E3044A052A09D01950680A51
:1002F00006E1010E0E6E032A02E3044A052A03C03A
:10030000E9FF04C0F3FF055011EC23F0750A06E184
:10031000010E106E032A02E3044A052A03C0E9FF16
:1003200004C0F3FF055011EC23F0196E730A05E1C8
:10033000010E0D6E200E156E3FD01950780A03E1A4
:10034000100E116E39D01950580A05E1100E116EB9
:10035000010E126E31D01950630A02E1116A2CD0DD
:1003600019506F0A03E1080E116E26D01950660A63
:1003700003E1010E0F6E20D01950640A1DE01950E0
:10038000690A1AE0105005E0FF0E03260422052238
:1003900013D01950E56E0250E56E0150E56E005025
:1003A000E56E07EC14F0040EE126094A0A2A032A36
:1003B00002E3044A052AA3D60D5021E00650030F9C
:1003C0000D6E000E0720196E000E08201A6E0DC06B
:1003D00006F019C007F01AC008F0FD0E0D26FF0E3A
:1003E00019221A220DC0E9FF19C0F3FF1A50C4ECFC
:1003F00021F00D6EF3CF19F0F4CF1AF0FDD00F50AD
:100400000DE0000E1A6E080E196E100E0D6E040E21
:100410000626000E072208221668EED016680C5039
:1004200023E00650040F0C6E000E07200F6E000E26
:1004300008201B6E0CC006F00FC007F01BC008F0B0
:10044000FC0E0C26FF0E0F221B220CC0E9FF0FC072
:10045000F3FF1B502DEC21F00C6EF3CF0FF0F4CF17
:100460001BF0E9CF1CF067D00E502FE00650020FB2
:100470000E6E000E07201D6E000E08201E6E0EC0B0
:1004800006F01DC007F01EC008F0FE0E0E26FF0E7F
:100490001D221E220EC0E9FF1DC0F3FF1E509BEC63
:1004A00022F00E6E0EC00CF00F6A1B6A1C6A11500F
:1004B0000A0A03E11050D8B43ED00C500E6E0EC0A4
:1004C0000CF00F6A1B6A1C6A36D00650020F0E6EC3
:1004D000000E07201D6E000E08201E6E0EC006F0D6
:1004E0001DC007F01EC008F0FE0E0E26FF0E1D22D6
:1004F0001E220EC0E9FF1DC0F3FF1E509BEC22F030
:100500000E6EF3CF1DF00EC00CF01DC00FF0E86AA8
:100510001DBEFF0E1B6E1C6E11500A0A02E1105028
:100520000AE00C500E6E0F501D6E0EC00CF01DC078
:100530000FF01B6A1C6A040E196EF40E0D6E800E0D
:100540001A6E1150D8B440D0105013E01150E56E1F
:10055000040EE56EF40EE56E1C50E56E1B50E56E64
:100560000F50E56E0C50E56EB2EC0CF0070EE12674
:1005700012D01150E56E040EE56EF40EE56E1C50BF
:10058000E56E1B50E56E0F50E56E0C50E56EA9EC64
:1005900017F0070EE12617502FE00DC0E9FF19C034
:1005A000F3FF1A5011EC23F02D0A26E0FF0E0D2662
:1005B00019221A2218C0E5FF0DC0E9FF19C0F3FF88
:1005C0001A5099EC23F018D00CC0E5FF0DC0E9FFDC
:1005D00019C0F3FF1A5099EC23F00D50010F0C6E67
:1005E000000E19200E6E000E1A20E56A0CC0E9FFFD
:1005F0000EC0F3FF99EC23F00DC00CF019C00EF003
:100600001AC00FF013C010F0105010E00CC0E9FF3A
:100610000EC0F3FF0F5011EC23F0176E175006E0D9
:100620000C2A02E30E4A0F2A1006EED710C013F070
:1006300014501EE109C00CF00AC00EF010C00FF0FB
:100640000F5010E01550E56E0250E56E0150E56E5A
:100650000050E56E07EC14F0040EE1260C4A0E2A59
:100660000F06EED70CC009F00EC00AF00FC013F051
:1006700016C00CF00DC00DF019C00EF01AC00FF02E
:1006800009C010F00AC015F00DC0E9FF0EC0F3FF5D
:100690000F5011EC23F0166E1650D8B43ED00CC09B
:1006A00016F0176A161E171E1650171005E00CC01C
:1006B00016F00C06165031E00DC0E9FF0EC0F3FF36
:1006C0000F5011EC23F0116E125010E01150E56E36
:1006D00058EC22F0166EE652165004E0DF0E1114AC
:1006E000166E02D011C016F016C011F01150E56E52
:1006F0000250E56E0150E56E0050E56E07EC14F017
:10070000040EE1260D2A02E30E4A0F2A104A152A8A
:100710001350D8B4B9D71306B7D710C009F015C015
:100720000AF014502BE010C00CF015C00DF013C0EF
:100730000EF00E501FE0200EE56E0250E56E0150E7
:10074000E56E0050E56E07EC14F0040EE1260C4A4D
:100750000D2A0E06EED70B50E56E0250E56E0150E5
:10076000E56E0050E56E07EC14F0040EE126094A30
:100770000A2A04D00CC009F00DC00AF0032A02E3D3
:10078000044A052A7FEF00F00AC0F3FF0950E4CFC6
:100790001EF0E4CF1DF0E4CF1CF0E4CF1BF0E4CF5B
:1007A0001AF0E4CF19F0E4CF18F0E4CF17F0E4CF5B
:1007B00016F0E4CF15F0E4CF14F0E4CF13F0E4CF5B
:1007C00012F0E4CF11F0E4CF10F0E4CF0FF0E4CF5B
:1007D0000EF0E4CF0DF0E4CF0CF0E4CF0BF0E4CF5B
:1007E0000AF0E4CF09F0E4CF08F0E4CF07F0E4CF5B
:1007F00006F0E4CF05F0E4CF04F0E4CF03F0E4CF5B
:1008000002F0E4CF01F0E4CF00F0E4CFD9FF120012
:100810003C4E4F20464C4F41543E000000C0E5FF87
:1008200001C0E5FF02C0E5FF03C0E5FF04C0E5FF2E
:1008300005C0E5FF06C0E5FF07C0E5FF08C0E5FF0E
:1008400009C0E5FF0AC0E5FF0BC0E5FF0CC0E5FFEE
:10085000006A016A026A040E025CD8B0E8D101C0E5
:1008600003F0012A100E035CD8B0E1D103012F2B55
:10087000100E2F5D01E32F6B03012F39E8441F0B8E
:10088000036E046A730E0326030E042203C0E9FFFD
:1008900004C0EAFFEFCF03F0070E2F15046E010E20
:1008A000056E000E066E045006E0E86CD890053622
:1008B0000636010FFCE3076A0350051607500616BB
:1008C00005500610D880E866D890056A05360550B0
:1008D000D8A4C1D703012F51020DF450046EF3CFF9
:1008E00003F0E00E0324056E000E0420066E05C022
:1008F000E9FF06C0EAFFEECF05F0EFCF06F00301F7
:100900002CA19DD0930E0324076E040E0420086EC4
:1009100007C0E9FF08C0EAFFEECF07F0EFCF08F00D
:100920000650800FF36E0850800FF35C02E1075011
:10093000055C03E2056A066A60D0B30E0326040E66
:10094000042203C0E9FF04C0EAFFEECF03F0EFCFBB
:1009500004F00450800FF36E0650800FF35C02E148
:100960000550035C04E205683F0E066E46D0075052
:10097000055C096E085006580A6EE86A0ABEFF0E4A
:100980000B6EE56E0B50E56E0A50E56E0950E56E94
:10099000E56AE56A400EE56E000EE56ABFEC09F017
:1009A000096EF3CF0AF0F4CF0BF0E9CF0CF0080E8C
:1009B000E1260750035C076E08500458086EE86A89
:1009C00008BEFF0E036EE56E0350E56E0850E56E3F
:1009D0000750E56E0C50E56E0B50E56E0A50E56E63
:1009E0000950E56EC3EC10F0036EF3CF04F0080E6F
:1009F000E1260350056E0450066E03012B51800F53
:100A0000F36E0650800FF35C02E105502A5D03E3AC
:100A1000056A066A14D003012A51FF08036E3F0ECF
:100A20002B55046E0650800FF36E0450800FF35C5C
:100A300002E10350055C03E305683F0E066E030107
:100A40002F51020DF450046EF3CF03F0590E03261C
:100A5000040E042203C0E9FF04C0EAFFEECF03F056
:100A6000EFCF04F00350055C036E04500658046E8B
:100A7000D88004AED89004E3041E036CD8B4042AD2
:100A8000022A03012B51800FF36E0450800FF35C98
:100A900002E103502A5DD8B0DED603012F51020DCA
:100AA000F450086EF3CF07F0590E0726040E082203
:100AB00007C0E9FF08C0EAFF05C0EEFF06C0EFFF70
:100AC00003012CA55AD003012F51020DF450086EDA
:100AD000F3CF07F0D30E0724096E040E08200A6E28
:100AE00009C0E9FF0AC0EAFFEECF0BF0EFCF0CF030
:100AF0000B500C10D8B441D0390E0726040E082232
:100B000007C0E9FF08C0EAFFEECF07F0EFCF08F01B
:100B10000750055C036E08500658046E03101CE075
:100B20000450800F800F02E1010E035C076A073654
:100B30000C50800F800F02E1010E0B5C0B6A0B362C
:100B400007500B1809E109C0E9FF0AC0EAFF03C01A
:100B5000EEFF04C0EFFF7FD603012F51020DF450CA
:100B6000046EF3CF03F0D30E0326040E042203C059
:100B7000E9FF04C0EAFFEE6AEF6A03012CA343D049
:100B800000500EE100C003F0002A046A300E032674
:100B9000030E042203C0E9FF04C0EAFF420EEF6E19
:100BA00000C003F0002A046A300E0326030E04225C
:100BB000640E03012F25076E03C0E9FF04C0EAFF9E
:100BC00007C0EFFF00C003F0002A046A300E0326BE
:100BD000030E04220650076E03C0E9FF04C0EAFFBB
:100BE00007C0EFFF00C003F0002A046A300E03269E
:100BF000030E04220550076E03C0E9FF04C0EAFF9C
:100C000007C0EFFF28D62FC303F00650E56E05504E
:100C1000E56EE56A0350E56E000EE56E2A0EE56EA0
:100C20001A0EE56E8DEC1CF0070EE12614D602C0FC
:100C300001F000501DE003012CA31AD000C002F007
:100C4000002A036A300E0226030E032202C0E9FFC7
:100C500003C0EAFF0A0EEF6E0050E56E800EE56EEF
:100C6000030EE56E300EE56E13EC15F0040EE12672
:100C70000150E4CF0CF0E4CF0BF0E4CF0AF0E4CF66
:100C800009F0E4CF08F0E4CF07F0E4CF06F0E4CFBA
:100C900005F0E4CF04F0E4CF03F0E4CF02F0E4CFBA
:100CA00001F0E4CF00F0120000C0E5FF01C0E5FF55
:100CB00002C0E5FF03C0E5FF04C0E5FF05C0E5FF96
:100CC00006C0E5FF07C0E5FF08C0E5FF09C0E5FF76
:100CD0000AC0E5FFC2A204D003012D5167EF08F05E
:100CE00003012E51D8B41BD103012D51020DF45034
:100CF000016EF3CF00F0E00E0026000E012200C0CE
:100D0000E9FF01C0EAFFEECF00F0EFCF01F0230EC4
:100D10002D25026E036A040E032202C0E9FF03C000
:100D2000EAFFEFCF02F00250FF0A01E152D0023891
:100D30000F0B036E920E0324046E056A0F0E05223C
:100D4000066A920E03260F0E062203C0E9FF06C0B4
:100D5000EAFFEFCF03F0070E0214066E010E076ED6
:100D6000065005E0E86CD8900736010FFDE3071C3C
:100D7000066E031604C0E9FF05C0EAFF03C0EFFFDB
:100D800002380F0B036E890E0324046E056A0F0EE2
:100D90000522066A890E03260F0E062203C0E9FF0C
:100DA00006C0EAFFEFCF03F0070E0214066E010E35
:100DB000076E065005E0E86CD8900736010FFDE39A
:100DC000071C066E031604C0E9FF05C0EAFF03C056
:100DD000EFFF03012D51020DF450046EF3CF03F029
:100DE000E00E0326000E042200380F0B056E0138BA
:100DF000066EF00B061A0526F00E06B606260550FE
:100E0000005C056E06500158066EC3CF07F0086AF5
:100E10000750052608500622C4CF07F0086A07507D
:100E20000A6E096A095005260A50062203C0E9FF26
:100E300004C0EAFF05C0EEFF06C0EFFF0301295121
:100E4000010A01E06AD003012D51020DF450046E35
:100E5000F3CF03F0E00E0324056E000E0420066EAF
:100E600005C0E9FF06C0EAFFEECF00F0EFCF01F0CA
:100E7000930E0326040E042203C0E9FF04C0EAFF18
:100E8000EECF05F0EFCF06F09C0E0526D8A00606A3
:100E90000150800FF36E0650800FF35C02E10550A5
:100EA000005C0EE20050640F056E000E0120066E1D
:100EB00003C0E9FF04C0EAFF05C0EEFF06C0EFFF74
:100EC00003012D51020DF450046EF3CF03F0B30E65
:100ED0000326040E042203C0E9FF04C0EAFFEECF9C
:100EE00005F0EFCF06F0640E0526D8B0062A0650AE
:100EF000800FF36E0150800FF35C02E10050055C3F
:100F00000CE29C0E0026D8A0010603C0E9FF04C035
:100F1000EAFF00C0EEFF01C0EFFF03012E6B0301EB
:100F20002D2B100E2D5D01E32D6B03012D39E844AF
:100F30001F0B006E016A730E0026030E012200C013
:100F4000E9FF01C0EAFFEFCF00F0070E2D15016E9B
:100F5000010E036E000E046E015006E0E86CD8909E
:100F600003360436010FFCE3056A005003160550F2
:100F7000041603500410D880E866D890036A03363C
:100F80000350D8A4A2D0230E03012D25006E016AC0
:100F90000F0E012200C0E9FF01C0EAFFEFCF00F011
:100FA0000044E844FC0B016E0128C26E230E2D257F
:100FB000006E016A040E012200C0E9FF01C0EAFFD1
:100FC000EFCF02F00250FF0A01E17BD002380F0B95
:100FD000006E920E0024016E036A0F0E0322046A53
:100FE000920E00260F0E042200C0E9FF04C0EAFFA3
:100FF000EFCF00F0070E0214046E010E056E0450D0
:1010000005E0E86CD8900536010FFDE305500012AD
:1010100001C0E9FF03C0EAFF00C0EFFF380E006E19
:101020000F0E016E02380F0B036E046A0350002688
:1010300004500122380E056E0F0E066E0550032671
:101040000650042203C0E9FF04C0EAFFEFCF03F01B
:10105000070E0216010E046E025005E0E86CD890EF
:101060000436010FFDE30450031200C0E9FF01C084
:10107000EAFF03C0EFFF0F01458300000000459326
:101080000F0144930BC0E5FFF2CF0BF0F29E4481B9
:101090000000000000000000000000000000000050
:1010A0000000000000000000000000000000000040
:1010B000000000000000000044910BBEF28EE4CF5F
:1010C0000BF0C282010E03012E6F03012D51E4CFFC
:1010D0000AF0E4CF09F0E4CF08F0E4CF07F0E4CF62
:1010E00006F0E4CF05F0E4CF04F0E4CF03F0E4CF62
:1010F00002F0E4CF01F0E4CF00F01200800EE56EC4
:10110000040EE56EB30EE56EBBEC19F0030EE1269E
:10111000800EE56E040EE56E930EE56EBBEC19F0E5
:10112000030EE126800EE56E040EE56EB50EE56E4B
:10113000BBEC19F0030EE126800EE56E040EE56EA1
:10114000950EE56EBBEC19F0030EE126800EE56E00
:10115000040EE56EB70EE56EBBEC19F0030EE1264A
:10116000800EE56E040EE56E970EE56EBBEC19F091
:10117000030EE126800EE56E040EE56EB90EE56EF7
:10118000BBEC19F0030EE126800EE56E040EE56E51
:10119000990EE56EBBEC19F0030EE126800EE56EAC
:1011A000040EE56EBB0EE56EBBEC19F0030EE126F6
:1011B000800EE56E040EE56E9B0EE56EBBEC19F03D
:1011C000030EE126800EE56E040EE56EBD0EE56EA3
:1011D000BBEC19F0030EE126800EE56E040EE56E01
:1011E0009D0EE56EBBEC19F0030EE126800EE56E58
:1011F000040EE56EBF0EE56EBBEC19F0030EE126A2
:10120000800EE56E040EE56E9F0EE56EBBEC19F0E8
:10121000030EE126800EE56E040EE56EC10EE56E4E
:10122000BBEC19F0030EE126800EE56E040EE56EB0
:10123000A10EE56EBBEC19F0030EE126800EE56E03
:10124000040EE56EC30EE56EBBEC19F0030EE1264D
:10125000800EE56E040EE56EA30EE56EBBEC19F094
:10126000030EE126800EE56E040EE56EC50EE56EFA
:10127000BBEC19F0030EE126800EE56E040EE56E60
:10128000A50EE56EBBEC19F0030EE126800EE56EAF
:10129000040EE56EC70EE56EBBEC19F0030EE126F9
:1012A000800EE56E040EE56EA70EE56EBBEC19F040
:1012B000030EE126800EE56E040EE56EC90EE56EA6
:1012C000BBEC19F0030EE126800EE56E040EE56E10
:1012D000A90EE56EBBEC19F0030EE126800EE56E5B
:1012E000040EE56ECB0EE56EBBEC19F0030EE126A5
:1012F000800EE56E040EE56EAB0EE56EBBEC19F0EC
:10130000030EE126800EE56E040EE56ECD0EE56E51
:10131000BBEC19F0030EE126800EE56E040EE56EBF
:10132000AD0EE56EBBEC19F0030EE126800EE56E06
:10133000040EE56ECF0EE56EBBEC19F0030EE12650
:10134000800EE56E040EE56EAF0EE56EBBEC19F097
:10135000030EE126800EE56E040EE56ED10EE56EFD
:10136000BBEC19F0030EE126800EE56E040EE56E6F
:10137000B10EE56EBBEC19F0030EE1261200D9CFD9
:10138000E5FFE1CFD9FF00C0E5FF01C0E5FF02C0E6
:10139000E5FF03C0E5FF04C0E5FF05C0E5FF06C0AB
:1013A000E5FF07C0E5FF020EDBCF00F0030EDBCF49
:1013B00001F0040EDBCF02F0050EDBCF03F0060ECA
:1013C000DBCF04F0070EDBCF05F0080EDBCF06F015
:1013D000090EDBCF07F0005004018E6F01508F6FB4
:1013E0000250906F0350916F04500301586F0550E5
:1013F000596F06505A6F07505B6F04018E510301FD
:101400005A03F4CF01F0F3CF00F0005003015E6FF8
:1014100001505F6F04018E5103015803F4CF01F0B6
:10142000F3CF00F0005003015C6F01505D6F0401C9
:10143000915103015803F3CF00F003015F510026DF
:1014400000505F6F0401905103015903F3CF01F085
:1014500001500026005003015F6F04019051030109
:101460005803F4CF01F0F3CF00F003015E510026E2
:101470005F51012200505E6F01505F6F04018F5178
:1014800003015903F4CF03F0F3CF02F0025000261A
:1014900003500122005003015E6F01505F6F040191
:1014A0008F5103015A03F3CF00F000500301636F23
:1014B00004018F5103015803F4CF01F0F3CF00F082
:1014C00000500301616F0150626F04018E510301EE
:1014D0005B03F3CF00F000500301676F04018E51EE
:1014E00003015903F4CF01F0F3CF00F000500301E2
:1014F000656F0150666F0301606B0301646B03014C
:10150000605103015C25006E0301615103015D21FF
:10151000016E0301625103015E21026E03016351FA
:1015200003015F21036E00505C6F01505D6F02503C
:101530005E6F03505F6F0301645103015C25006E11
:101540000301655103015D21016E03016651030131
:101550005E21026E0301675103015F21036E03C028
:10156000E9FF02C0F4FF01C0F3FF0050E4CF07F031
:10157000E4CF06F0E4CF05F0E4CF04F0E4CF03F0CD
:10158000E4CF02F0E4CF01F0E4CF00F0E4CFD9FFE4
:10159000120000C0E5FF01C0E5FF03012651D8B4E9
:1015A000F5D0A3A81DD0A4A81BD00301815103012D
:1015B0007E1905E14FEC23F003017E6BE7D0000EAE
:1015C00003018125006E016A040E012200C0E9FFBB
:1015D00001C0EAFFEFCF7AF3812B7AC373FFD6D035
:1015E000A4AAD4D071A205D003017F814FEC23F0CF
:1015F000CDD071A405D003017F834FEC23F0C6D07A
:1016000071A03ED074CF7AF3800E0301271103013D
:101610007A1904E103017F897196B8D003017A51E8
:1016200004E07A510301271927E103017F9971969C
:1016300003017A5103E003017F9702D003017F8702
:101640007AC383F37CC384F303017C050301856FB4
:10165000600E03018425006E016A000E012200C0A5
:10166000E9FF01C0EAFF7AC3EFFF842B8451800AAF
:1016700002E10301846B8AD003017F99718686D0D1
:1016800074CF7AF303017FA919D0800E03012711CB
:1016900003017A1911E1899AA39A719803017E5185
:1016A00004E1736A4FEC23F007D000C473FF010E0E
:1016B0000301816FA3886AD0718668D003017A51D3
:1016C0000301832703018451030185191BE10301F1
:1016D00083510CE184C37CF303017FB712D0899A54
:1016E000A39A7198736A4FEC23F00BD003017F85A6
:1016F0007FB707D0899AA39A7198010E736E4FEC49
:1017000023F044D00301845103017D1908E1030152
:101710007D5103017C1903E04FEC23F037D07CC3EB
:1017200000F0016A004A012AE56A800EE56E015068
:10173000E56E0050E56E05EC16F0006E040EE12635
:10174000005003017B6F030184190CE11F0E03019C
:101750007A150301856F852B852B03017C510301CD
:101760008527859F84C300F00301842B016A600EE6
:101770000026000E012200C0E9FF01C0EAFF7AC383
:10178000EFFF8451800A02E10301846BE4CF01F092
:10179000E4CF00F0120000C0E5FF01C0E5FF02C089
:1017A000E5FF03C0E5FF04C0E5FF05C0E5FF06C097
:1017B000E5FF07C0E5FF08C0E5FF09C0E5FF0AC077
:1017C000E5FF006A016A040E015CD8B0B3D03F0E99
:1017D00003013D25026E036A030E032202C0E9FFE6
:1017E00003C0EAFFEFCF02F00250FF0A01E19BD0F5
:1017F00003013D39E8441F0B026E770E0224036E8D
:10180000046A030E042203C0E9FF04C0EAFFEFCF1D
:1018100003F0070E3D15046E010E056E000E066EF8
:10182000045006E0E86CD89005360636010FFCE35C
:10183000076A055003160650071603500710D88094
:10184000E866D890036A03360350D880E866D890DB
:10185000036A0336076A750E0226030E072202C0CA
:10186000E9FF07C0EAFFEFCF08F008C009F00A6AF5
:10187000095005160A50061605500610D880E8666D
:10188000D890056A05360550D880E866D890056A74
:1018900005360350051801E146D0035012E0010E51
:1018A000056E045005E0E86CD8900536010FFDE3A5
:1018B0000550081202C0E9FF07C0EAFF08C0EFFFA9
:1018C00017D002C0E9FF07C0EAFFEFCF05F0010E15
:1018D000066E045005E0E86CD8900636010FFDE373
:1018E000061C051602C0E9FF07C0EAFF05C0EFFFAE
:1018F000035003E1036A032A01D0036A3DC304F0E5
:10190000E56A0350E56EE56A0450E56E000EE56E8B
:10191000370EE56E820EE56E8DEC1CF0070EE126AB
:10192000012A01C000F003013D2B100E3D5DD8A03F
:101930004AD73D6B0050E4CF0AF0E4CF09F0E4CF82
:1019400008F0E4CF07F0E4CF06F0E4CF05F0E4CFF1
:1019500004F0E4CF03F0E4CF02F0E4CF01F0E4CFF1
:1019600000F01200D9CFE5FFE1CFD9FF00C0E5FFBD
:1019700001C0E5FF02C0E5FF03C0E5FF04C0E5FFCD
:1019800005C0E5FF06C0E5FF07C0E5FF08C0E5FFAD
:1019900009C0E5FF0AC0E5FF0BC0E5FF0CC0E5FF8D
:1019A0000DC0E5FF0EC0E5FF0FC0E5FF020EDBCF67
:1019B00000F0030EDBCF01F0040EDBCF02F0050ECA
:1019C000DBCF03F0060EDBCF04F0070EDBCF05F014
:1019D000080EDBCF06F0200E076E086A06C009F07D
:1019E0000A6A0B6A0C6AE56AE56AE56A0950E56EFF
:1019F0000350E56E0250E56E0150E56E0050E56E55
:101A0000FDEC0EF00D6E080EE126300E0D263A0E9E
:101A10000D5C05E30D500E6E270E0E240D6EFF0EAD
:101A200007260822000E07240E6E030E08200F6EF4
:101A30000EC0E9FF0FC0EAFF0DC0EFFF0C50E56ECE
:101A40000B50E56E0A50E56E0950E56E0350E56EE9
:101A50000250E56E0150E56E0050E56EC3EC10F0EB
:101A6000006EF3CF01F0F4CF02F0E9CF03F0080EDF
:101A7000E1260050011002100310D8A4AFD707C010
:101A800000F008C001F004C002F005C003F000C07F
:101A900004F001C005F0004A012A000E0426030EDE
:101AA000052204C0E9FF05C0EAFFEFCF04F002C041
:101AB000E9FF03C0EAFF04C0EFFF024A032A000E59
:101AC000015C02E1200E005CE2E302C0E9FF03C01A
:101AD000EAFF000EEF6AE4CF0FF0E4CF0EF0E4CFA0
:101AE0000DF0E4CF0CF0E4CF0BF0E4CF0AF0E4CF3C
:101AF00009F0E4CF08F0E4CF07F0E4CF06F0E4CF3C
:101B000005F0E4CF04F0E4CF03F0E4CF02F0E4CF3B
:101B100001F0E4CF00F0E4CFD9FF1200D9CFE5FF08
:101B2000E1CFD9FF00C0E5FF01C0E5FF02C0E5FF3E
:101B300003C0E5FF04C0E5FF05C0E5FF06C0E5FF03
:101B4000020EDBCF00F0030EDBCF01F0040EDBCF83
:101B500002F000C0E9FF01C0F3FF025011EC23F0D6
:101B6000036EE56AE56E97EC1EF0E652E652320E21
:101B7000E56E11EC22F0E65270EC20F0010EE56EFD
:101B80000350E56E97EC1EF0E652E6520050010F4E
:101B9000036E000E0120046E000E0220056E53EC51
:101BA0001FF0066E06C0E5FF03C0E9FF04C0F3FFA7
:101BB000055099EC23F0D2EC1FF00050020F036E99
:101BC000000E0120046E000E0220056E53EC1FF083
:101BD000066E06C0E5FF03C0E9FF04C0F3FF055031
:101BE00099EC23F0D2EC1FF00050030F036E000EAF
:101BF0000120046E000E0220056E53EC1FF0066EED
:101C000006C0E5FF03C0E9FF04C0F3FF055099ECEF
:101C100023F0D2EC1FF00050040F036E000E0120E1
:101C2000046E000E0220056E53EC1FF0066E06C017
:101C3000E5FF03C0E9FF04C0F3FF055099EC23F072
:101C4000D2EC1FF00050050F036E000E0120046E51
:101C5000000E0220056E53EC1FF0066E06C0E5FF75
:101C600003C0E9FF04C0F3FF055099EC23F0D2EC68
:101C70001FF0060E0026000E0122022253EC1FF078
:101C8000036E03C0E5FF00C0E9FF01C0F3FF02508F
:101C900099EC23F070EC20F0E4CF06F0E4CF05F0EF
:101CA000E4CF04F0E4CF03F0E4CF02F0E4CF01F09E
:101CB000E4CF00F0E4CFD9FF120000C0E5FF01C07F
:101CC000E5FF02C0E5FF03C0E5FF04C0E5FF05C076
:101CD000E5FF006A3F0E0024016E026A030E022235
:101CE00001C0E9FF02C0EAFFEFCF01F00150FF0A97
:101CF00001E171D001380F0B026E036A800E0226DB
:101D00000F0E032202C0E9FF03C0EAFFEFCF02F08B
:101D1000070E0116010E036E000E046E015006E060
:101D2000E86CD89003360436010FFCE3056A0250D4
:101D300003160550041603500410D880E866D890A6
:101D4000036A0336035024E10038E8441F0B016E98
:101D5000026A770E0126030E022201C0E9FF02C0CB
:101D6000EAFFEFCF03F0070E0014046E010E056EBC
:101D7000045005E0E86CD8900536010FFDE30550EE
:101D8000031201C0E9FF02C0EAFF03C0EFFF23D046
:101D90000038E8441F0B016E026A770E0126030E1D
:101DA000022201C0E9FF02C0EAFFEFCF03F0070EF5
:101DB0000014046E010E056E045005E0E86CD89026
:101DC0000536010FFDE3051C031601C0E9FF02C043
:101DD000EAFF03C0EFFF002A100E005CD8A07AD7FC
:101DE000E4CF05F0E4CF04F0E4CF03F0E4CF02F059
:101DF000E4CF01F0E4CF00F01200D9CFE5FFE1CF4E
:101E0000D9FF00C0E5FF01C0E5FF02C0E5FF03C048
:101E1000E5FF04C0E5FF05C0E5FF06C0E5FF07C01C
:101E2000E5FF08C0E5FF09C0E5FF0AC0E5FF020EB7
:101E3000DBCF00F0030EDBCF01F0040EDBCF02F0AE
:101E4000050EDBCF03F0060EDBCF04F0070EDBCF71
:101E500005F0080EDBCF06F0090EDBCF07F0086AAD
:101E6000045005100610071005E1E968F468F368EE
:101E7000E86847D0096A0750800BE8440A6E0A50A8
:101E80001BE1045004260536063607360750035C6E
:101E900008E10650025C05E10550015C02E10450D6
:101EA000005C06E2D890073206320532043204D0D4
:101EB000092A09C008F0DFD70750035C08E1065083
:101EC000025C05E10550015C02E10450005C08E39E
:101ED0000450005E0550015A0650025A0750035A3A
:101EE000D890073206320532043208C009F00806DD
:101EF0000950E2E103C0E9FF02C0F4FF01C0F3FFB3
:101F00000050E4CF0AF0E4CF09F0E4CF08F0E4CFCA
:101F100007F0E4CF06F0E4CF05F0E4CF04F0E4CF1F
:101F200003F0E4CF02F0E4CF01F0E4CF00F0E4CF1F
:101F3000D9FF1200D9CFE5FFE1CFD9FF00C0E5FFFF
:101F400001C0E5FF02C0E5FF03C0E5FF04C0E5FFF7
:101F5000020EDBCF00F0030EDBCF01F0040EDBCF6F
:101F600002F0050EDBCF03F0420E03014F6F03506A
:101F7000506F0050010F036E000E0120046E000E22
:101F8000022003C0E9FF04C0F3FF11EC23F00301BA
:101F9000516F0050020F036E000E0120046E000E00
:101FA000022003C0E9FF04C0F3FF11EC23F003019A
:101FB000526F0050030F036E000E0120046E000EDE
:101FC000022003C0E9FF04C0F3FF11EC23F003017A
:101FD000536F0050040F036E000E0120046E000EBC
:101FE000022003C0E9FF04C0F3FF11EC23F003015A
:101FF000546F0050050F036E000E0120046E000E9A
:10200000022003C0E9FF04C0F3FF11EC23F0030139
:10201000556F060E0026000E0122022200C0E9FFC5
:1020200001C0F3FF025011EC23F00301566F0A0EBA
:10203000576F090EE56E800EE56E030EE56E4F0ECE
:10204000E56E13EC15F0040EE126E4CF04F0E4CFC6
:1020500003F0E4CF02F0E4CF01F0E4CF00F0E4CFEE
:10206000D9FF1200D9CFE5FFE1CFD9FF00C0E5FFCE
:1020700001C0E5FF02C0E5FF03C0E5FF04C0E5FFC6
:1020800005C0E5FF020EDBCF00F0030EDBCF01F051
:10209000040EDBCF02F03F0E6D166C6A6B6A0050C7
:1020A0006C1201506D129384810E006E0F0E016E42
:1020B0000F0E046E380E0026045001220F0E046E1F
:1020C000800E005E0450015A810E036E0F0E046EE6
:1020D0000F0E056E380E0326055004220F0E056EF6
:1020E000800E035E0550045A03C0E9FF04C0EAFFF6
:1020F000EFCF03F0039400C0E9FF01C0EAFF03C083
:10210000EFFF9382810E006E0F0E016E0F0E046EB4
:10211000380E0026045001220F0E046E800E005E61
:102120000450015A810E036E0F0E046E0F0E056EE1
:10213000380E0326055004220F0E056E800E035E36
:102140000550045A03C0E9FF04C0EAFFEFCF03F0D3
:10215000039200C0E9FF01C0EAFF03C0EFFF02C025
:102160006EFF6C8AA49EA49CE4CF05F0E4CF04F03B
:10217000E4CF03F0E4CF02F0E4CF01F0E4CF00F0CD
:10218000E4CFD9FF1200D9CFE5FFE1CFD9FF00C0DE
:10219000E5FF01C0E5FF02C0E5FF03C0E5FF04C0A5
:1021A000E5FF05C0E5FF06C0E5FF07C0E5FF08C085
:1021B000E5FF09C0E5FF0AC0E5FF0BC0E5FF0CC065
:1021C000E5FF0DC0E5FF020EDBCF00F0030EDBCF15
:1021D00001F0040EDBCF02F0050EDBCF03F0060E9C
:1021E000DBCF04F0070EDBCF05F0080EDBCF06F0E7
:1021F000090EDBCF07F0086A096A0A6A0B6A200E2B
:102200000C6E0350800BE8440D6E00500026013622
:10221000023603360850082609360A360B360D50AA
:10222000D8A4088007500B5C08E106500A5C05E161
:102230000550095C02E10450085C09E30450085EA3
:102240000550095A06500A5A07500B5A00800C04D0
:102250000D6E0DC00CF00D50D4E103C0E9FF02C0BB
:10226000F4FF01C0F3FF0050E4CF0DF0E4CF0CF019
:10227000E4CF0BF0E4CF0AF0E4CF09F0E4CF08F0AC
:10228000E4CF07F0E4CF06F0E4CF05F0E4CF04F0AC
:10229000E4CF03F0E4CF02F0E4CF01F0E4CF00F0AC
:1022A000E4CFD9FF120000C0E5FF01C0E5FF03C085
:1022B000E5FF04C0E5FF05C0E5FF06C0E5FF07C078
:1022C000E5FF08C0E5FF09C0E5FF0AC0E5FF0BC058
:1022D000E5FF71C300F072C301F00301713F01D04B
:1022E000722B0050E56E41EC23F0E652076E046A53
:1022F000056A066A71C300F072C301F00301713F01
:1023000001D0722B0050E56E41EC23F0E6520B6ACF
:102310000A6E086A0850041205120A5006120B5081
:10232000071271C300F072C301F00301713F01D0C5
:10233000722B0050E56E41EC23F0E652036E006A0A
:1023400003C001F0E86A03BEFF0E086E096E00507C
:10235000041201500512085006120950071271C3E9
:1023600000F072C301F00301713F01D0722B0050E5
:10237000E56E41EC23F0E652016A041201500512A9
:102380000612071207C0E9FF06C0F4FF05C0F3FFFD
:102390000450E4CF0BF0E4CF0AF0E4CF09F0E4CF2F
:1023A00008F0E4CF07F0E4CF06F0E4CF05F0E4CF87
:1023B00004F0E4CF03F0E4CF01F0E4CF00F012002A
:1023C00000C0E5FF01C0E5FF02C0E5FF03C0E5FF77
:1023D0006AEC12F054EC06F05DEC0EF06AEC12F0D0
:1023E0007EEC1FF0006EF3CF01F0F4CF02F0E9CFE6
:1023F00003F004013351005E3451015A3551025A41
:102400003651035A039E3F0E035C08E1FF0E025C47
:1024100005E1FF0E015C02E1FF0E005CD8B051D077
:102420007EEC1FF0F3CF01F0F4CF02F0E9CF03F020
:10243000880F0401336F130E0120346F000E022049
:10244000356F000E0320366F030120A10DD0010E61
:10245000E56E800EE56E040EE56E790EE56E9AEC83
:102460000FF0040EE1260CD0020EE56E800EE56E34
:10247000040EE56E810EE56E9AEC0FF0040EE12677
:10248000CBEC0BF0006E0050D8B40EEC04F003015E
:10249000202B6AEC12F0800EE56E040EE56E790ECC
:1024A000E56E8EEC0DF0030EE1266AEC12F0800E64
:1024B000E56E040EE56E810EE56E8EEC0DF0030EFA
:1024C000E126E4CF03F0E4CF02F0E4CF01F0E4CF63
:1024D00000F0120000C0E5FF01C0E5FF02C0E5FF0B
:1024E00003C0E5FF04C0E5FF03017D5103017C1932
:1024F00001E15CD07DC300F0002A009E600E002444
:10250000016E026A000E022201C0E9FF02C0EAFF6A
:10251000EFCF87F31F0E030187177DC386F3875123
:1025200003018627862B862B869FA8EC1FF0016E61
:10253000015003E1016A012A01D0016AA8EC1FF0F1
:102540000301876F800E8715026E1F0E8715036EBD
:1025500003C004F003C087F3045003E17CC37DF3A0
:1025600038D001501BE002501FE0A8EC1FF0006EB5
:10257000030187070050420A17E000504E0A03E1AA
:102580000BEC1CF011D00050460A03E183EC23F061
:102590000BD00050490A08E1FF0006D07DC388F344
:1025A0000250D8A469EC18F086C37DF303012351CF
:1025B0000301241906E003017E5103E17EEC13F0D0
:1025C00008D089BA06D003017E5103E172B24FEC04
:1025D00023F0E4CF04F0E4CF03F0E4CF02F0E4CF43
:1025E00001F0E4CF00F01200D9CFE5FFE1CFD9FF31
:1025F00000C0E5FF01C0E5FF02C0E5FF03C0E5FF45
:1026000004C0E5FF05C0E5FF06C0E5FF07C0E5FF24
:1026100008C0E5FF09C0E5FF0AC0E5FF020EDBCFF9
:1026200000F0030EDBCF01F0040EDBCF02F0050E4D
:10263000DBCF03F0060EDBCF04F0070EDBCF05F097
:102640000038E8441F0B066E076A730E0626030E59
:10265000072206C0E9FF07C0EAFFEFCF08F0070E28
:102660000014096E010E0A6E095005E0E86CD8905E
:102670000A36010FFDE30A50081206C0E9FF07C041
:10268000EAFF08C0EFFF230E0024066E076A0F0E54
:10269000072206C0E9FF07C0EAFF01C0EFFF016A99
:1026A000230E0026040E0122800E025E070E021683
:1026B0000238F00B036E070E05160550032600C006
:1026C000E9FF01C0EAFF03C0EFFFE4CF0AF0E4CF67
:1026D00009F0E4CF08F0E4CF07F0E4CF06F0E4CF50
:1026E00005F0E4CF04F0E4CF03F0E4CF02F0E4CF50
:1026F00001F0E4CF00F0E4CFD9FF120000C0E5FF05
:1027000001C0E5FF02C0E5FF03C0E5FF72A276D07D
:102710004DEC21F0006E005005E10301246B030134
:10272000236B6CD024C301F0005001264DEC21F046
:10273000026E00060250230A1FE1010E005CD8A0C1
:102740005BD04DEC21F0026E690A03E1C8EC1EF08B
:1027500053D00250720A03E14FEC23F04DD00250E7
:10276000730A01E049D0898A7186A38AA3987450BC
:1027700074507198718840D00250430A05E00250AD
:10278000420A01E039D001D0008E00C080F3005031
:102790000401006F010E0301816F03012451011830
:1027A00014E04DEC21F0026E03018027000E0301BE
:1027B0008125006E036A040E032200C0E9FF03C0F6
:1027C000EAFF02C0EFFF812BE8D7000E030181254D
:1027D000006E026A040E02220301801D036E032AAA
:1027E00000C0E9FF02C0EAFF03C0EFFF0301812B35
:1027F00081C37EF30401886B01C024F3E4CF03F0AE
:10280000E4CF02F0E4CF01F0E4CF00F01200D9CF22
:10281000E5FFE1CFD9FF00C0E5FF01C0E5FF02C041
:10282000E5FF03C0E5FF04C0E5FF05C0E5FF06C006
:10283000E5FF07C0E5FF020EDBCF00F0030EDBCFA4
:1028400001F0040EDBCF02F0050EDBCF03F002C077
:1028500006F00650046E800A33E100C0E9FF01C0B3
:10286000F3FF0250C4EC21F0056EF3CF06F0F4CF75
:1028700007F003C0E5FF05C0E9FF06C0F3FF0750FE
:1028800099EC23F000C0E9FF01C0F3FF0250C4EC53
:1028900021F0056EF3CF06F0F4CF07F0052A02E32E
:1028A000064A072A05C0E5FF06C0F4FF07C0F6FF89
:1028B00000C0E9FF01C0F3FF025032EC23F01DD04D
:1028C00004AA1BD0047A045004E10350E6EC23F080
:1028D00014D00450010A04E10350F9EC23F00DD0A8
:1028E00004500F0A04E1035066EC1EF006D00450B9
:1028F0000E0A03E10350F6EC23F0E4CF07F0E4CF37
:1029000006F0E4CF05F0E4CF04F0E4CF03F0E4CF29
:1029100002F0E4CF01F0E4CF00F0E4CFD9FF1200E1
:1029200000C0E5FF01C0E5FF02C0E5FF03C0E5FF11
:1029300004C0E5FF006A730E0024016E026A030EF4
:10294000022201C0E9FF02C0EAFFEF6A002A020E7C
:10295000005CF1E3006A0050020DF450026EF3CF08
:1029600001F0E00E0124036E000E0220046E03C08D
:10297000E9FF04C0EAFFEE6AEF6A390E0124036E34
:10298000040E0220046E03C0E9FF04C0EAFFEE6AF1
:10299000EF6A590E0124036E040E0220046E03C078
:1029A000E9FF04C0EAFFEE6AEF6A930E0124036EAA
:1029B000040E0220046E03C0E9FF04C0EAFFEE6AC1
:1029C000EF6AB30E0126040E022201C0E9FF02C025
:1029D000EAFFEE687F0EEF6E230E0024016E026A9E
:1029E000040E022201C0E9FF02C0EAFFEF68002ADC
:1029F000100E005CD8A0AFD7AF0EC06EC16A010E3A
:102A0000C26EC282E4CF04F0E4CF03F0E4CF02F060
:102A1000E4CF01F0E4CF00F0120043204120256410
:102A20002025640A0000D9CFE5FFE1CFD9FF00C01F
:102A3000E5FF01C0E5FF02C0E5FF03C0E5FF04C0FC
:102A4000E5FF05C0E5FF06C0E5FF07C0E5FF020E94
:102A5000DBCF00F0030EDBCF01F0040EDBCF02F082
:102A6000050EDBCF03F024C325F30301235103013B
:102A7000255F250703C004F0056A030E0426D8B0BD
:102A8000052A25C306F0076A0750800FF36E05502C
:102A9000800FF35C02E10450065C02E2E8682BD090
:102AA000020E035C02E2E86A26D003060350E56EDC
:102AB00049EC1DF0E652046A0350045C14E2045031
:102AC0000024056EE86A0120066EE86A022005C04F
:102AD000E9FF06C0F3FF11EC23F0042AE56E49EC90
:102AE0001DF0E652E9D724C325F303012351030166
:102AF000255F2507E86AE4CF07F0E4CF06F0E4CFCE
:102B000005F0E4CF04F0E4CF03F0E4CF02F0E4CF2B
:102B100001F0E4CF00F0E4CFD9FF1200D9CFE5FFF8
:102B2000E1CFD9FF00C0E5FF01C0E5FF02C0E5FF2E
:102B300003C0E5FF04C0E5FF05C0E5FF020EDBCFE3
:102B400000F0030EDBCF01F0040EDBCF02F00050EB
:102B5000020DF450036EF3CF00F0390E0024046E22
:102B6000040E0320056E04C0E9FF05C0EAFF01C0A2
:102B7000EEFF02C0EFFF590E0024046E040E032086
:102B8000056E04C0E9FF05C0EAFFEECF04F0EFCF09
:102B900005F00150045C016E02500558026ED30E20
:102BA0000026040E032200C0E9FF03C0EAFF01C0B3
:102BB000EEFF02C0EFFFD88002AED89004E3021E01
:102BC000016CD8B4022A0250800F800F02E1030E7C
:102BD000015C02E2016A026A0150021007E100C0D2
:102BE000E9FF03C0EAFF000EEE6AEF6AE4CF05F0EA
:102BF000E4CF04F0E4CF03F0E4CF02F0E4CF01F03F
:102C0000E4CF00F0E4CFD9FF1200D9CFE5FFE1CF48
:102C1000D9FF00C0E5FF01C0E5FF02C0E5FF03C02A
:102C2000E5FF04C0E5FF05C0E5FF06C0E5FF020EB5
:102C3000DBCF00F0030EDBCF01F0040EDBCF02F0A0
:102C4000050EDBCF03F0D88001AED890046A0436BD
:102C5000045007E0011C066E001C056E054A062A9A
:102C600004D000C005F001C006F0D88003AED890B3
:102C700007E3031C016E021C006E004A012A04D007
:102C800002C000F003C001F00150E56E0050E56E97
:102C90000650E56E0550E56E0CEC18F0006EF3CFB3
:102CA00001F0040EE12604500AE0011C036E001C32
:102CB000026E024A032A03C0F3FF025003D001C090
:102CC000F3FF0050E4CF06F0E4CF05F0E4CF04F0CA
:102CD000E4CF03F0E4CF02F0E4CF01F0E4CF00F062
:102CE000E4CFD9FF1200D9CFE5FFE1CFD9FF00C073
:102CF000E5FF01C0E5FF02C0E5FF03C0E5FF04C03A
:102D0000E5FF05C0E5FF020EDBCF00F0030EDBCFD1
:102D100001F0040EDBCF02F0050EDBCF03F071C330
:102D200004F072C305F00301713F01D0722B035010
:102D3000E56E0450E56E09EC21F0E652E65271C3EF
:102D400004F072C305F00301713F01D0722B0250F1
:102D5000056EE56E0450E56E09EC21F0E652E65290
:102D600071C304F072C305F00301713F01D0722BEF
:102D70000150056EE56E0450E56E09EC21F0E65257
:102D8000E65271C304F072C305F00301713F01D034
:102D9000722B0050E56E0450E56E09EC21F0E6520E
:102DA000E652E4CF05F0E4CF04F0E4CF03F0E4CF43
:102DB00002F0E4CF01F0E4CF00F0E4CFD9FF12003D
:102DC000D9CFE5FFE1CFD9FF00C0E5FF01C0E5FFA6
:102DD00002C0E5FF03C0E5FF04C0E5FF05C0E5FF55
:102DE00006C0E5FF020EDBCF00F0030EDBCF01F0E3
:102DF000040EDBCF02F00401375119E153EC11F05E
:102E0000036EF3CF04F0F4CF05F0E9CF06F003C072
:102E1000E5FF04C0F4FF05C0F6FF06C0F7FF00C0E1
:102E2000E9FF01C0F3FF025000EC23F01ED00401C3
:102E30003751010A1AE100C0E9FF01C0F3FF025057
:102E40002DEC21F0006EF3CF01F0F4CF02F0E9CFCA
:102E500003F00350E56E0250E56E0150E56E005040
:102E6000E56E73EC16F0040EE126E4CF06F0E4CF35
:102E700005F0E4CF04F0E4CF03F0E4CF02F0E4CFB8
:102E800001F0E4CF00F0E4CFD9FF1200D9CFE5FF85
:102E9000E1CFD9FF00C0E5FF01C0E5FF02C0E5FFBB
:102EA00003C0E5FF04C0E5FF05C0E5FF06C0E5FF80
:102EB000020EDBCF00F0030EDBCF01F00038E84458
:102EC0001F0B026E036A730E0226030E032202C05A
:102ED000E9FF03C0EAFFEFCF04F0070E0014056E10
:102EE000010E066E055005E0E86CD8900636010F1D
:102EF000FDE30650041202C0E9FF03C0EAFF04C06C
:102F0000EFFF230E0024026E036A0F0E032202C09D
:102F1000E9FF03C0EAFF01C0EFFF016A230E0026AC
:102F2000040E012200C0E9FF01C0EAFFFF0EEF68B6
:102F3000E4CF06F0E4CF05F0E4CF04F0E4CF03F0F3
:102F4000E4CF02F0E4CF01F0E4CF00F0E4CFD9FF0A
:102F50001200D9CFE5FFE1CFD9FF00C0E5FF01C0E6
:102F6000E5FF02C0E5FF03C0E5FF04C0E5FF05C0C3
:102F7000E5FF06C0E5FF020EDBCF00F0030EDBCF5E
:102F800001F0040EDBCF02F0050EDBCF03F0060EDE
:102F9000DBCF04F0070EDBCF05F0080EDBCF06F029
:102FA000D88003AED89015E306500A0A12E104C097
:102FB000E9FF05C0EAFF2D0EEF6E044A052A031E45
:102FC000021E011E006C05E1012A03E1022AD8B4A9
:102FD000032A0650E56E0550E56E0450E56E035079
:102FE000E56E0250E56E0150E56E0050E56EB2EC04
:102FF0000CF0070EE126E4CF06F0E4CF05F0E4CFB5
:1030000004F0E4CF03F0E4CF02F0E4CF01F0E4CF2A
:1030100000F0E4CFD9FF1200D9CFE5FFE1CFD9FF0F
:1030200000C0E5FF01C0E5FF02C0E5FF03C0E5FF0A
:1030300004C0E5FF05C0E5FF06C0E5FF020EDBCFDB
:1030400000F0030EDBCF01F0040EDBCF02F0050E23
:10305000DBCF03F0046A056A0350800BE844066E78
:10306000065011E10250022603360350015C02E1D2
:103070000250005C04E2D8900332023204D0052AE8
:1030800005C004F0E9D70350015C02E10250005C86
:1030900004E30250005E0350015AD890033202321A
:1030A00004C005F004060550EEE101C0F3FF005036
:1030B000E4CF06F0E4CF05F0E4CF04F0E4CF03F072
:1030C000E4CF02F0E4CF01F0E4CF00F0E4CFD9FF89
:1030D000120000C0E5FF01C0E5FF02C0E5FFA8EC5B
:1030E0001FF0006E450A27E1000EE56E350EE56E15
:1030F000D80EE56E8DEC1CF0030EE126F0EC23F00B
:10310000006E00C001F001C002F0010602500FE0A5
:10311000A8EC1FF0E56AE56E000EE56E350EE56E73
:10312000DA0EE56E8DEC1CF0050EE126ECD70A0EEA
:1031300066EC1EF023D00050520A20E1270EE56E07
:10314000E56A080EE56E32EC10F0030EE126E56A42
:10315000800EE56E040EE56E790EE56E6BEC19F0EF
:10316000040EE126010EE56E800EE56E040EE56E9E
:10317000810EE56E6BEC19F0040EE126E4CF02F04F
:10318000E4CF01F0E4CF00F01200D9CFE5FFE1CFAA
:10319000D9FF00C0E5FF01C0E5FF02C0E5FF03C0A5
:1031A000E5FF020EDBCF00F0030EDBCF01F0040ED3
:1031B000DBCF02F000C0E9FF01C0F3FF025011ECC9
:1031C00023F0036E035029E06CA610D00350E56E87
:1031D00011EC22F0036EE652035002E0FD0E1ED009
:1031E00027EC1FF06BAC14D0FE0E18D0A49E00C0CC
:1031F000E9FF01C0F3FF025011EC23F06F6E6C8801
:10320000A4AEFED76DB404D06DB002D0FE0E06D0D1
:10321000002AD0E3014A022ACDD7E86AE4CF03F0BE
:10322000E4CF02F0E4CF01F0E4CF00F0E4CFD9FF27
:10323000120000C0E5FF01C0E5FF02C0E5FF03C0CA
:10324000E5FF7DC300F0016A88C302F0036A025003
:10325000005E0350015AE56A800EE56E0150E56E8E
:103260000050E56E05EC16F0006E040EE126000637
:1032700088C301F0430E66EC1EF0200E66EC1EF0D3
:10328000005020E0600E0124026E036A000E03224B
:1032900002C0E9FF03C0EAFFEFCF02F0E56A025087
:1032A000E56E000EE56E460EE56EB60EE56E8DEC33
:1032B0001CF0050EE126012A0150800A01E1016A95
:1032C0000006DED7E4CF03F0E4CF02F0E4CF01F054
:1032D000E4CF00F01200D9CFE5FFE1CFD9FF00C065
:1032E000E5FF01C0E5FF02C0E5FF03C0E5FF020EF8
:1032F000DBCF00F0030EDBCF01F0040EDBCF02F0DA
:10330000050EDBCF03F0035003E11D0E036E02D068
:10331000530E036E03C0E5FF00C0E9FF01C0F3FFD9
:10332000025099EC23F0E56A2D0EE56E0350E56E30
:10333000F8EC1EF0030EE126100EE56E2D0EE56E84
:103340000350E56EF8EC1EF0030EE126080EE56E64
:103350002D0EE56E0350E56EF8EC1EF0030EE1262F
:10336000E4CF03F0E4CF02F0E4CF01F0E4CF00F0CB
:10337000E4CFD9FF1200D9CFE5FFE1CFD9FF00C0DC
:10338000E5FF01C0E5FF02C0E5FF03C0E5FF04C0A3
:10339000E5FF020EDBCF00F0030EDBCF01F0040EE1
:1033A000DBCF02F00401375111E132EC1EF0036E65
:1033B000F3CF04F003C0E5FF04C0F4FF00C0E9FF51
:1033C00001C0F3FF02506BEC23F016D0040137511B
:1033D000010A12E100C0E9FF01C0F3FF02509BECBB
:1033E00022F0006EF3CF01F00150E56E0050E56E63
:1033F0000CEC1DF0E652E652E4CF04F0E4CF03F00B
:10340000E4CF02F0E4CF01F0E4CF00F0E4CFD9FF45
:103410001200D9CFE5FFE1CFD9FF00C0E5FF01C021
:10342000E5FF02C0E5FF03C0E5FF04C0E5FF020EB3
:10343000DBCF00F00038E8441F0B016E026A770E04
:103440000126030E022201C0E9FF02C0EAFFEFCF0E
:1034500001F0070E0016010E026E000E036E005002
:1034600006E0E86CD89002360336010FFCE3046AEC
:10347000015002160450031602500310D880E8666B
:10348000D890026A02360250D880E866D890026A64
:1034900002360250E4CF04F0E4CF03F0E4CF02F0B0
:1034A000E4CF01F0E4CF00F0E4CFD9FF12009C0E8E
:1034B000F66E470EF76E000EF86E0900F550056EB9
:1034C0000900F550066E04E1056702D0A4EF1AF07A
:1034D0000900F550006E0900F550016E0900F55025
:1034E000026E09000900F550E96E0900F550EA6E18
:1034F000090009000900F550036E0900F550046E3B
:1035000009000900F6CF07F0F7CF08F0F8CF09F06F
:1035100000C0F6FF01C0F7FF02C0F8FF035002E150
:10352000045007E00900F550EE6E0306F8E20406C9
:10353000F9D707C0F6FF08C0F7FF09C0F8FF050676
:1035400001E2060663EF1AF0120001C0E5FF02C0B7
:10355000E5FF03C0E5FFE1EC23F07EEC1FF0F3CFC5
:1035600001F0F4CF02F0E9CF03F0880F0401336FCC
:10357000130E0120346F000E0220356F000E032061
:10358000366F90EC14F080EC1BF0270EE56EE56AC8
:10359000080EE56E32EC10F0030EE126E56A800EAF
:1035A000E56E040EE56E790EE56E6BEC19F0040E17
:1035B000E126010EE56E800EE56E040EE56E810ECD
:1035C000E56E6BEC19F0040EE126E4CF03F0E4CFD6
:1035D00002F0E4CF01F01200430025630000D9CFD0
:1035E000E5FFE1CFD9FF00C0E5FF01C0E5FF02C064
:1035F000E5FF03C0E5FF04C0E5FF05C0E5FF020EDF
:10360000DBCF00F00050010A22E1016A0150020DF7
:10361000F450036EF3CF02F0930E0224046E040EF6
:103620000320056E04C0E9FF05C0EAFFEE687F0EC7
:10363000EF6EB30E0226040E032202C0E9FF03C0A0
:10364000EAFFEE6AEF6A012A100E015CDFE300C0B8
:1036500029F3E4CF05F0E4CF04F0E4CF03F0E4CFA6
:1036600002F0E4CF01F0E4CF00F0E4CFD9FF120084
:10367000D9CFE5FFE1CFD9FF00C0E5FF01C0E5FFED
:1036800002C0E5FF03C0E5FF04C0E5FF020EDBCF8B
:1036900000F0030EDBCF01F0040EDBCF02F0036A73
:1036A00002C004F0020604501DE053EC1FF0046E4B
:1036B00000C0E9FF01C0EAFF04C0EFFF004A012A91
:1036C00003C004F06BA6ECD7A4AC02D0E8680BD022
:1036D000042A04C003F00250F5E0D2EC1FF06BB8EE
:1036E000FED7F0D70350E4CF04F0E4CF03F0E4CFEB
:1036F00002F0E4CF01F0E4CF00F0E4CFD9FF1200F4
:1037000000C0E5FF01C0E5FF02C0E5FF03C0E5FF23
:1037100004C0E5FF006A750E0024016E026A030E04
:103720000222770E0024036E046A030E042203C0F3
:10373000E9FF04C0EAFF010EEF6E01C0E9FF02C01D
:10374000EAFFEF6E002A020E005CE5E3006A3F0E1E
:103750000024016E026A030E022201C0E9FF02C0CA
:10376000EAFFEF68002A100E005CF1E3E4CF04F0FA
:10377000E4CF03F0E4CF02F0E4CF01F0E4CF00F0B7
:1037800012004320732025642025640A0000D9CF4D
:10379000E5FFE1CFD9FF00C0E5FF01C0E5FF02C0B2
:1037A000E5FF03C0E5FF04C0E5FF05C0E5FF020E2D
:1037B000DBCF00F0030EDBCF01F0040EDBCF02F015
:1037C000050EDBCF03F0060EDBCF04F0056A3F0EDB
:1037D0000026030E0522800E015E070E0116013839
:1037E000F00B026E070E04160450022600C0E9FF1B
:1037F00005C0EAFF02C0EFFFE4CF05F0E4CF04F01C
:10380000E4CF03F0E4CF02F0E4CF01F0E4CF00F026
:10381000E4CFD9FF120000C0E5FF01C0E5FF02C000
:10382000E5FFA8EC1FF0006EA8EC1FF0016E005041
:10383000026ED00E0224006E0A0E005C05E30050FA
:10384000026EF90E0224006E0150026ED00E0224A8
:10385000016E0A0E015C05E30150026EF90E0224AE
:10386000016E080E005C12E2100E015CD8B00ED0A2
:103870000038F00B0124006EC0EC1DF0016E015009
:1038800005E10050E56EF9EC21F0E652E4CF02F0DC
:10389000E4CF01F0E4CF00F01200D9CFE5FFE1CF93
:1038A000D9FF00C0E5FF01C0E5FF02C0E5FF03C08E
:1038B000E5FF04C0E5FF020EDBCF00F00038E8446E
:1038C0001F0B016E026A730E0126030E022201C055
:1038D000E9FF02C0EAFFEFCF03F0070E0016010E6A
:1038E000046E005005E0E86CD8900436010FFDE34B
:1038F000041C031601C0E9FF02C0EAFF03C0EFFF8A
:10390000E4CF04F0E4CF03F0E4CF02F0E4CF01F021
:10391000E4CF00F0E4CFD9FF1200D9CFE5FFE1CF2B
:10392000D9FF00C0E5FF01C0E5FF02C0E5FF020EC0
:10393000D924006E000EDA20016E800E026E030E96
:103940000026000E012202220250E56E0150E56EB3
:103950000050E56E040EDBCFE5FF030EDBCFE5FF85
:10396000020EDBCFE5FF03016A51E56E6951E56E9A
:103970006851E56E0EEC00F0006EF3CF01F0090E19
:10398000E12601C0F3FF0050E4CF02F0E4CF01F0E4
:10399000E4CF00F0E4CFD9FF1200D9CFE5FFE1CFAB
:1039A000D9FF00C0E5FF01C0E5FF02C0E5FF03C08D
:1039B000E5FF020EDBCF00F0030EDBCF01F0040EBB
:1039C000DBCF02F0040137510DE16FEC22F0036E02
:1039D00003C0E5FF00C0E9FF01C0F3FF025099EC0E
:1039E00023F00FD004013751010A0BE100C0E9FFB9
:1039F00001C0F3FF025011EC23F0E56EBEEC20F0A5
:103A0000E652E4CF03F0E4CF02F0E4CF01F0E4CFDC
:103A100000F0E4CFD9FF1200D9CFE5FFE1CFD9FF05
:103A200000C0E5FF01C0E5FF02C0E5FF03C0E5FF00
:103A3000020EDBCF00F0030EDBCF01F071C302F00A
:103A400072C303F00301713F01D0722B0150E56E88
:103A50000250E56E09EC21F0E652E65271C302F025
:103A600072C303F00301713F01D0722B0050E56E69
:103A70000250E56E09EC21F0E652E652E4CF03F085
:103A8000E4CF02F0E4CF01F0E4CF00F0E4CFD9FFBF
:103A90001200D9CFE5FFE1CFD9FF00C0E5FF01C09B
:103AA000E5FF02C0E5FF03C0E5FF04C0E5FF020E2D
:103AB000DBCF00F023C301F0026A014A022A24C3CB
:103AC00003F0046A0150031803E10250041801E0F6
:103AD00001D00ED0000E03012325016E026A010EF3
:103AE000022201C0E9FF02C0EAFF00C0EFFF232B62
:103AF000E4CF04F0E4CF03F0E4CF02F0E4CF01F030
:103B0000E4CF00F0E4CFD9FF1200D9CFE5FFE1CF39
:103B1000D9FF00C0E5FF01C0E5FF02C0E5FF03C01B
:103B2000E5FF020EDBCF00F0016A88C302F0036AF2
:103B30000250002603500122E56A800EE56E015016
:103B4000E56E0050E56E05EC16F0006EF3CF01F067
:103B5000040EE126600E0026000E012200C0E9FFDF
:103B600001C0EAFFEFCF00F00050E4CF03F0E4CF54
:103B700002F0E4CF01F0E4CF00F0E4CFD9FF12006F
:103B800000C0E5FF01C0E5FF02C0E5FF010E006EC9
:103B9000A8EC1FF0016E01C002F0015023E00050BC
:103BA000E56E41EC23F0016EE652015010E10A0E81
:103BB000005C0BE20A0E006EE56E41EC23F0016E34
:103BC000E652015004E1E8680ED0E8680CD00150DC
:103BD000021802E0E86807D0002A1B0E005CD8E358
:103BE000E86801D0E86AE4CF02F0E4CF01F0E4CF66
:103BF00000F01200F3CFE5FFF4CFE5FFE9CFE5FFDA
:103C0000EACFE5FFFACFE5FFFBCFE5FF0301215146
:103C10000F01356F030122510F01366FD650336FFC
:103C2000D750346FF2A411D00301213F01D0222BD1
:103C3000F294030121510F01356F030122510F014D
:103C4000366FD650336FD750346FE4CFFBFFE4CFDD
:103C5000FAFFE4CFEAFFE4CFE9FFE4CFF4FFE4CFDB
:103C6000F3FF110000C0E5FF01C0E5FF02C0E5FF62
:103C700003C0E5FF71C300F072C301F00301713F9F
:103C800001D0722B0050E56E41EC23F0E652036E3A
:103C9000026A71C300F072C301F00301713F01D0E9
:103CA000722B0050E56E41EC23F0E652016A0212DD
:103CB0000150031203C0F3FF0250E4CF03F0E4CF3E
:103CC00002F0E4CF01F0E4CF00F0120000C0E5FF05
:103CD00001C0E5FF02C0E5FF006E000E03012825CC
:103CE000016E026A0F0E022201C0E9FF02C0EAFF64
:103CF00000C0EFFF220E285D01E2282B00500A0AC7
:103D00000FE103012851E56E800EE56E0F0EE56EA2
:103D1000000EE56E13EC15F0040EE1260301286B8E
:103D2000E4CF02F0E4CF01F0E4CF00F01200D9CFED
:103D3000E5FFE1CFD9FF00C0E5FF01C0E5FF02C00C
:103D4000E5FF020EDBCF00F0030EDBCF01F097ECB6
:103D500020F00044FE0B026E0150D880E866D89037
:103D6000006A00360050D880E866D890006A0036B5
:103D7000005002120250E56E11EC22F0E652E4CF40
:103D800002F0E4CF01F0E4CF00F0E4CFD9FF12005D
:103D90000301236B0301246B03012569898A929A2D
:103DA000766A3F0E756E7086728A7284728C72901B
:103DB000718C718E03017F6B0301796B03017C6B46
:103DC00003017D6B03017E6B000EE56A41EC23F07D
:103DD0000301276FE652A598A59A010E0301266FED
:103DE0000301686B696B2F0E6A6F4FEC23F01200B2
:103DF000D9CFE5FFE1CFD9FF00C0E5FF01C0E5FF66
:103E000002C0E5FF020EDBCF00F0030EDBCF01F0B6
:103E1000040EDBCF02F0E56A0050E56E97EC1EF071
:103E2000E652E6520150E56E11EC22F0E6520250E5
:103E3000E56E11EC22F0E65270EC20F0E4CF02F0D7
:103E4000E4CF01F0E4CF00F0E4CFD9FF120000C0CE
:103E5000E5FF01C0E5FF02C0E5FF03C0E5FFE80E96
:103E6000006E030E016E0050FF0F026EFF0E012068
:103E7000036E02C000F003C001F0025003100AE01C
:103E80001F0E6B14026E036A6DB4032A03500212F4
:103E90000250E9E1E4CF03F0E4CF02F0E4CF01F017
:103EA000E4CF00F0120000C0E5FF01C0E5FF02C052
:103EB000E5FF03C0E5FFE80E006E030E016E27EC80
:103EC0001FF06B860050FF0F026EFF0E0120036E85
:103ED00002C000F003C001F00250031005E0DBEC6B
:103EE00023F0026E0250EEE06F50E4CF03F0E4CF17
:103EF00002F0E4CF01F0E4CF00F012000301215101
:103F000004018C6F0301225104018D6FD6508A6F1A
:103F1000D7508B6F8C510301211905E104018D519C
:103F2000030122190CE00301215104018C6F0301EC
:103F3000225104018D6FD6508A6FD7508B6F8DC47C
:103F4000E9FF8CC4F4FF8BC4F3FF04018A51120013
:103F500000C0E5FF01C0E5FF03017D5103018619A3
:103F600005E003017D5103017C1902E1E86A15D0E7
:103F70007DC300F003017D2B016A600E0026000E58
:103F8000012200C0E9FF01C0EAFFEFCF00F07D5140
:103F9000800A02E103017D6B0050E4CF01F0E4CF21
:103FA00000F0120000C0E5FF01C0E5FF02C0E5FF20
:103FB00003C0E5FFE80E006E030E016E27EC1FF054
:103FC000A49E6B9A6B880050FF0F026EFF0E0120BB
:103FD000036E02C000F003C001F00250031002E0C3
:103FE000A4AEF1D7E4CF03F0E4CF02F0E4CF01F0C8
:103FF000E4CF00F0120000C0E5FFEAEC23F004017A
:10400000896B806B8983006A89B3002A0050010B99
:10401000E844F46E8051FD0BF410806FD58ED59C72
:10402000D59AD588D596D594D582D580F28AF18453
:10403000D08EF28EF28CBA80FF0EBB68BA84E4CFC9
:1040400000F01200D9CFE5FFE1CFD9FF00C0E5FFB6
:1040500001C0E5FF020EDBCF00F00050020DF4506E
:10406000016EF3CF00F0D30E0026040E012200C033
:10407000E9FF01C0EAFFEECF00F0EFCF01F001C091
:10408000F3FF0050E4CF01F0E4CF00F0E4CFD9FF1C
:104090001200D9CFE5FFE1CFD9FF00C0E5FF01C095
:1040A000E5FF020EDBCF00F00050020DF450016E70
:1040B000F3CF00F0E00E0026000E012200C0E9FF61
:1040C00001C0EAFFEECF00F0EFCF01F001C0F3FF37
:1040D0000050E4CF01F0E4CF00F0E4CFD9FF1200AC
:1040E00000C0E5FF01C0E5FF02C0E5FF03C0E5FF3A
:1040F000E80E006E030E016E27EC1FF06B8400507B
:10410000FF0F026EFF0E0120036E02C000F003C01D
:1041100001F00250031002E06BB4F1D7E4CF03F0DA
:10412000E4CF02F0E4CF01F0E4CF00F0120000C0D1
:10413000E5FF01C0E5FF02C0E5FF03C0E5FFE80EB3
:10414000006E030E016E27EC1FF06B800050FF0F16
:10415000026EFF0E0120036E02C000F003C001F0EA
:104160000250031002E06BB0F1D7E4CF03F0E4CFCC
:1041700002F0E4CF01F0E4CF00F01200D9CFE5FF68
:10418000E1CFD9FF00C0E5FF01C0E5FF02C0E5FFB8
:10419000020EDBCF00F071C301F072C302F0030125
:1041A000713F01D0722B0050E56E0150E56E09ECB5
:1041B00021F0E652E652E4CF02F0E4CF01F0E4CF82
:1041C00000F0E4CFD9FF1200D8CFE5FFE0CFE5FF44
:1041D000E56EF3CFE5FFF4CFE5FFE9CFE5FFEACFEA
:1041E000E5FFFACFE5FFFBCFE5FFC9EC0AF0E4CF2E
:1041F000FBFFE4CFFAFFE4CFEAFFE4CFE9FFE4CF2F
:10420000F4FFE4CFF3FFE450E4CFE0FFE4CFD8FFC6
:104210001000D9CFE5FFE1CFD9FF00C0E5FF020EC6
:10422000DBCF00F0030EDBCFA8FF00C0A9FFA69EE6
:10423000A69CA684F29EF29C550EA76EAA0EA76EAF
:10424000A682A6A202D00000FCD7A694F28EF28C21
:10425000E4CF00F0E4CFD9FF1200E8AE0AD0F3CFEC
:10426000EAFFEE50EECFF3FFEECFF4FFEECFE9FF23
:104270001200E8BCFFEF23F0E9CFF6FFF3CFF7FF22
:10428000F86E0900F5500900F5CFF3FF0900F5CFEE
:10429000F4FF0900F5CFE9FF120000C0E5FF01C0FF
:1042A000E5FF030123510301241902E1E86A0FD05D
:1042B000000E03012425006E016A010E012200C0D8
:1042C000E9FF01C0EAFFEFCF00F0242B0050E4CF5C
:1042D00001F0E4CF00F01200F2CFEAFFF29EA69EBA
:1042E000A69CA684E9CFA9FFF3CFAAFFE4CFA8FF3D
:1042F000AEEC23F0F4CFA8FFAEEC23F0F6CFA8FF8E
:10430000AEEC23F0F7CFA8FFAEEC23F0A694EABE04
:10431000F28E1200D9CFE5FFE1CFD9FF00C0E5FF53
:1043200001C0E5FF020EDBCF00F0016A3F0E002660
:10433000030E012200C0E9FF01C0EAFFFF0EEF6893
:10434000E4CF01F0E4CF00F0E4CFD9FF1200F2CFC8
:10435000F6FFF29EA69EA69CE9CFA9FFF3CFAAFF87
:10436000A680A850A94AAA2AA680A8CFF3FFA94AE6
:10437000AA2AA680A8CFF4FFA94AAA2AA680A8CF75
:10438000EAFFF6BEF28E1200E8AE08D0F3CFEAFFE5
:10439000EE50EECFF3FFEECFF4FF1200E8BC07EFD4
:1043A00024F0E9CFF6FFF3CFF7FFF86E0900F550E0
:1043B0000900F5CFF3FF0900F5CFF4FF1200F2CFAB
:1043C000EAFFF29EA69EA69CA684E9CFA9FFF3CFA2
:1043D000AAFFE4CFA8FFAEEC23F0F4CFA8FFAEEC29
:1043E00023F0F6CFA8FFAEEC23F0A694EABEF28E3F
:1043F0001200D9CFE5FFE1CFD9FF00C0E5FF020EE3
:10440000DBCF00F000C027F30050E56E000EE56A38
:1044100009EC21F0E652E652E4CF00F0E4CFD9FFF8
:104420001200D9CFE5FFE1CFD9FF00C0E5FF020EB2
:10443000DBCF00F06C9E00C06FFF6CAE02D0E8686E
:1044400003D027EC1FF0E86AE4CF00F0E4CFD9FFF7
:104450001200F2CFF6FFF29EA69EA69CE9CFA9FF1E
:10446000F3CFAAFFA680A850A94AAA2AA680A8CF5F
:10447000F3FFA94AAA2AA680A8CFF4FFF6BEF28EBF
:10448000120000C0E5FF01C0E5FF600E03017D25BD
:10449000006E016A000E012200C0E9FF01C0EAFFC0
:1044A000EFCF00F00050E4CF01F0E4CF00F01200B5
:1044B000D9CFE5FFE1CFD9FF00C0E5FF020EDBCF8A
:1044C00000F0610E005C05E37B0E005C02E2010E71
:1044D00001D0E86AE4CF00F0E4CFD9FF120000C0B9
:1044E000E5FF01C0E5FF71C300F072C301F00301F5
:1044F000713F01D0722B0050E56E41EC23F0E65283
:10450000E4CF01F0E4CF00F01200D9CFE5FFE1CF16
:10451000D9FF00C0E5FF020EDBCF00F000C026F39C
:10452000005004E14FEC23F0A39AA398E4CF00F0ED
:10453000E4CFD9FF1200E8AE06D0F3CFEAFFEE5089
:10454000EECFF3FF1200E8BCFDEF23F0E9CFF6FF5A
:10455000F3CFF7FFF86E0900F5500900F5CFF3FF30
:104560001200F2CFEAFFF29EA69EA69CA684E9CF97
:10457000A9FFF3CFAAFFE4CFA8FFAEEC23F0F4CF5E
:10458000A8FFAEEC23F0A694EABEF28E120012EE63
:10459000FFF022EEFFF0F86AA68EA69CE9680E0EE8
:1045A000EA6E0068000EED6A0050FDE157EC1AF06B
:1045B00006EC00F0FFD7F2CFF6FFF29EA69EA69C77
:1045C000E9CFA9FFF3CFAAFFA680A850A94AAA2A3B
:1045D000A680A8CFF3FFF6BEF28E1200F2CFEAFF5C
:1045E000F29EA69EA69CA684E9CFA9FFF3CFAAFFC0
:1045F000E4CFA8FFAEEC23F0A694EABEF28E120040
:10460000E8AE0BD0F3CFEAFFE4CFEEFFF4CFEEFF3E
:10461000F6CFEEFFF7CFEEFF1200E8BC01EF24F07B
:104620001200E8AE04D0F3CFEAFFEE501200E8BC6F
:10463000FBEF23F0E9CFF6FFF3CFF7FFF86E0900A9
:10464000F55012000000000000FF000000000A000A
:104650000200000042000000000000000000000016
:1046600000000000E8AE09D0F3CFEAFFE4CFEEFF90
:10467000F4CFEEFFF6CFEEFF1200E8BC09EF24F016
:104680001200D9CFE5FFE1CFD9FF020EDBCFA9FFA2
:10469000A69CA69EA680A850E4CFD9FF120072A2C5
:1046A000FED7898A745000007450719871887186A1
:1046B000A38AA398120025642000F2CFF6FFF29E91
:1046C000A69EA69CE9CFA9FFF3CFAAFFA680A8507B
:1046D000F6BEF28E1200E8AE07D0F3CFEAFFE4CFC9
:1046E000EEFFF4CFEEFF1200E8BC05EF24F012005D
:1046F000700ED36E9B8CFF0E9268936894689668D8
:10470000626AF19E120000C0E5FFC0EC1DF0006E71
:10471000005001E1FF00E4CF00F012000F01456BF3
:10472000900E0F01446F030E0F01436F0F01458F71
:104730001200E8AE05D0F3CFEAFFE4CFEEFF12009F
:10474000E8BC03EF24F01200D9CFE5FFE1CFD9FF99
:10475000020EDBCF2CF3E4CFD9FF1200550EA76E6B
:10476000AA0EA76EA682A6B2FED7A94AAA2A010E51
:104770000401376F1C0E0301716F726B120027EC7E
:104780001FF0A49E6B8A6B88A4AEFED712000401B2
:10479000376B1C0E0301716F726B120001004446EF
:1047A0000000200300001F00000027EC1FF06B82B8
:1047B0006BB2FED712006DA002D0010E01D0E86AE4
:1047C0001200FBEC1FF0C8EC1EF01200ACA2FED7EA
:1047D000AD6E120078EC23F0120003017D5112003F
:1047E000030187511200030126511200E8CF7FFF19
:1047F0001200C96E12005DEF23F0DBEF22F0A7EF8D
:1048000021F06CEF21F0EEEF22F0B1EF22F029EF72
:0648100022F0DFEF21F0B1
:00000001FF
