:020000040000FA
:10000000C2EF1BF06C9A120043EF17F000000000E3
:100010000000FF0000000000DFEF19F0D9CFE5FF7E
:10002000E1CFD9FF00C0E5FF01C0E5FF02C0E5FF59
:1000300003C0E5FF04C0E5FF05C0E5FF06C0E5FF1E
:1000400007C0E5FF08C0E5FF09C0E5FF0AC0E5FFFE
:100050000BC0E5FF0CC0E5FF0DC0E5FF0EC0E5FFDE
:100060000FC0E5FF10C0E5FF11C0E5FF12C0E5FFBE
:1000700013C0E5FF14C0E5FF15C0E5FF16C0E5FF9E
:1000800017C0E5FF18C0E5FF19C0E5FF1AC0E5FF7E
:100090001BC0E5FF1CC0E5FF1DC0E5FF1EC0E5FF5E
:1000A000020EDBCF00F0030EDBCF01F0040EDBCF3E
:1000B00002F0050EDBCF03F0060EDBCF04F0070ED7
:1000C000DBCF05F0080EDBCF06F0090EDBCF07F023
:1000D0000A0EDBCF08F0096A0A6A02C00DF00D5063
:1000E000800A0DE1025004015A6F0150596F00500F
:1000F000586F040E016E580E006E800E026E03C023
:10010000E9FF04C0F3FF0550FBEC1BF00B6E0B5036
:10011000D8B4C4EF03F00B50250A02E0ABEF03F0B4
:100120000C6A0D6A0E6A0F6A106A0A0E116E126A64
:10013000136A146A200E156E1668176A2B0E186E55
:10014000032A02E3044A052A03C0E9FF04C0F3FFBF
:100150000550FBEC1BF0196E250A13E11950E56EF2
:100160000250E56E0150E56E0050E56EDAEC0EF0DF
:10017000040EE126094A0A2A032A02E3044A052A50
:10018000BED71950300A06E1300E156E032A02E37D
:10019000044A052A03C0E9FF04C0F3FF0550FBEC45
:1001A0001BF02D0A06E1010E146E032A02E3044A35
:1001B000052A03C0E9FF04C0F3FF0550FBEC1BF068
:1001C000200A08E1010E176E200E186E032A02E3C2
:1001D000044A052A03C0E9FF04C0F3FF0550FBEC05
:1001E0001BF02B0A06E1010E176E032A02E3044AF4
:1001F000052A03C0E9FF04C0F3FF0550FBEC1BF028
:10020000196E310E195C2BE33A0E195C28E203C01B
:1002100019F004C01AF005C01BF019C0E9FF1AC09C
:10022000F3FF1B50FBEC1BF01C6E300E1C5C11E34B
:100230003A0E1C5C0EE213500A0DF3CF1DF01D5058
:100240001C26D00E1C24136E192A02E31A4A1B2AFC
:10025000E4D719C003F01AC004F01BC005F003C0B6
:10026000E9FF04C0F3FF0550FBEC1BF02E0A2DE163
:10027000032A02E3044A052A166A03C019F004C0DF
:100280001AF005C01BF019C0E9FF1AC0F3FF1B509C
:10029000FBEC1BF01C6E300E1C5C11E33A0E1C5C78
:1002A0000EE216500A0DF3CF1DF01D501C26D00E85
:1002B0001C24166E192A02E31A4A1B2AE4D719C015
:1002C00003F01AC004F01BC005F003C0E9FF04C02E
:1002D000F3FF0550FBEC1BF0196E6C0A07E1010EF1
:1002E0000C6E032A02E3044A052A09D01950680A51
:1002F00006E1010E0E6E032A02E3044A052A03C03A
:10030000E9FF04C0F3FF0550FBEC1BF0750A06E1A2
:10031000010E106E032A02E3044A052A03C0E9FF16
:1003200004C0F3FF0550FBEC1BF0196E730A05E1E6
:10033000010E0D6E200E156E3FD01950780A03E1A4
:10034000100E116E39D01950580A05E1100E116EB9
:10035000010E126E31D01950630A02E1116A2CD0DD
:1003600019506F0A03E1080E116E26D01950660A63
:1003700003E1010E0F6E20D01950640A1DE01950E0
:10038000690A1AE0105005E0FF0E03260422052238
:1003900013D01950E56E0250E56E0150E56E005025
:1003A000E56EDAEC0EF0040EE126094A0A2A032A69
:1003B00002E3044A052AA3D60D5021E00650030F9C
:1003C0000D6E000E0720196E000E08201A6E0DC06B
:1003D00006F019C007F01AC008F0FD0E0D26FF0E3A
:1003E00019221A220DC0E9FF19C0F3FF1A50BFEC01
:1003F0001AF00D6EF3CF19F0F4CF1AF0FDD00F50B4
:100400000DE0000E1A6E080E196E100E0D6E040E21
:100410000626000E072208221668EED016680C5039
:1004200023E00650040F0C6E000E07200F6E000E26
:1004300008201B6E0CC006F00FC007F01BC008F0B0
:10044000FC0E0C26FF0E0F221B220CC0E9FF0FC072
:10045000F3FF1B5028EC1AF00C6EF3CF0FF0F4CF23
:100460001BF0E9CF1CF067D00E502FE00650020FB2
:100470000E6E000E07201D6E000E08201E6E0EC0B0
:1004800006F01DC007F01EC008F0FE0E0E26FF0E7F
:100490001D221E220EC0E9FF1DC0F3FF1E5096EC68
:1004A0001BF00E6E0EC00CF00F6A1B6A1C6A115016
:1004B0000A0A03E11050D8B43ED00C500E6E0EC0A4
:1004C0000CF00F6A1B6A1C6A36D00650020F0E6EC3
:1004D000000E07201D6E000E08201E6E0EC006F0D6
:1004E0001DC007F01EC008F0FE0E0E26FF0E1D22D6
:1004F0001E220EC0E9FF1DC0F3FF1E5096EC1BF03C
:100500000E6EF3CF1DF00EC00CF01DC00FF0E86AA8
:100510001DBEFF0E1B6E1C6E11500A0A02E1105028
:100520000AE00C500E6E0F501D6E0EC00CF01DC078
:100530000FF01B6A1C6A0F0E196E240E0D6E800ED2
:100540001A6E1150D8B440D0105013E01150E56E1F
:100550000F0EE56E240EE56E1C50E56E1B50E56E29
:100560000F50E56E0C50E56E96EC08F0070EE12694
:1005700012D01150E56E0F0EE56E240EE56E1C5084
:10058000E56E1B50E56E0F50E56E0C50E56E8BEC82
:1005900011F0070EE12617502FE00DC0E9FF19C03A
:1005A000F3FF1A50FBEC1BF02D0A26E0FF0E0D2680
:1005B00019221A2218C0E5FF0DC0E9FF19C0F3FF88
:1005C0001A5079EC1CF018D00CC0E5FF0DC0E9FF03
:1005D00019C0F3FF1A5079EC1CF00D50010F0C6E8E
:1005E000000E19200E6E000E1A20E56A0CC0E9FFFD
:1005F0000EC0F3FF79EC1CF00DC00CF019C00EF02A
:100600001AC00FF013C010F0105010E00CC0E9FF3A
:100610000EC0F3FF0F50FBEC1BF0176E175006E0F7
:100620000C2A02E30E4A0F2A1006EED710C013F070
:1006300014501EE109C00CF00AC00EF010C00FF0FB
:100640000F5010E01550E56E0250E56E0150E56E5A
:100650000050E56EDAEC0EF0040EE1260C4A0E2A8C
:100660000F06EED70CC009F00EC00AF00FC013F051
:1006700016C00CF00DC00DF019C00EF01AC00FF02E
:1006800009C010F00AC015F00DC0E9FF0EC0F3FF5D
:100690000F50FBEC1BF0166E1650D8B43ED00CC0B9
:1006A00016F0176A161E171E1650171005E00CC01C
:1006B00016F00C06165031E00DC0E9FF0EC0F3FF36
:1006C0000F50FBEC1BF0116E125010E01150E56E54
:1006D00053EC1BF0166EE652165004E0DF0E1114B8
:1006E000166E02D011C016F016C011F01150E56E52
:1006F0000250E56E0150E56E0050E56EDAEC0EF04A
:10070000040EE1260D2A02E30E4A0F2A104A152A8A
:100710001350D8B4B9D71306B7D710C009F015C015
:100720000AF014502BE010C00CF015C00DF013C0EF
:100730000EF00E501FE0200EE56E0250E56E0150E7
:10074000E56E0050E56EDAEC0EF0040EE1260C4A80
:100750000D2A0E06EED70B50E56E0250E56E0150E5
:10076000E56E0050E56EDAEC0EF0040EE126094A63
:100770000A2A04D00CC009F00DC00AF0032A02E3D3
:10078000044A052A7FEF00F00AC0F3FF0950E4CFC6
:100790001EF0E4CF1DF0E4CF1CF0E4CF1BF0E4CF5B
:1007A0001AF0E4CF19F0E4CF18F0E4CF17F0E4CF5B
:1007B00016F0E4CF15F0E4CF14F0E4CF13F0E4CF5B
:1007C00012F0E4CF11F0E4CF10F0E4CF0FF0E4CF5B
:1007D0000EF0E4CF0DF0E4CF0CF0E4CF0BF0E4CF5B
:1007E0000AF0E4CF09F0E4CF08F0E4CF07F0E4CF5B
:1007F00006F0E4CF05F0E4CF04F0E4CF03F0E4CF5B
:1008000002F0E4CF01F0E4CF00F0E4CFD9FF120012
:100810003C4E4F20464C4F41543E000000C0E5FF87
:1008200001C0E5FF02C0E5FF03C0E5FF04C0E5FF2E
:1008300005C0E5FF9486820E006E0F0E016E380E25
:10084000026E0F0E036E0250002603500122800E2E
:10085000026E0F0E036E0250005E0350015A820EAC
:10086000026E0F0E036E380E046E0F0E056E0450EE
:10087000022605500322800E046E0F0E056E0450F2
:10088000025E0550035A02C0E9FF03C0EAFFEFCF42
:1008900002F0029600C0E9FF01C0EAFF02C0EFFFCC
:1008A0009484820E006E0F0E016E380E026E0F0ED3
:1008B000036E0250002603500122800E026E0F0EBE
:1008C000036E0250005E0350015A820E026E0F0E3C
:1008D000036E380E046E0F0E056E0450022605508E
:1008E0000322800E046E0F0E056E0450025E05504A
:1008F000035A02C0E9FF03C0EAFFEFCF02F00294FF
:1009000000C0E9FF01C0EAFF02C0EFFF9488820E39
:10091000006E0F0E016E380E026E0F0E036E025047
:10092000002603500122800E026E0F0E036E02504D
:10093000005E0350015A820E026E0F0E036E380ED7
:10094000046E0F0E056E0450022605500322800E21
:10095000046E0F0E056E0450025E0550035A02C06D
:10096000E9FF03C0EAFFEFCF02F0029800C0E9FF01
:1009700001C0EAFF02C0EFFF948A820E006E0F0EE4
:10098000016E380E026E0F0E036E025000260350E9
:100990000122800E026E0F0E036E0250005E0350A5
:1009A000015A820E026E0F0E036E380E046E0F0E89
:1009B000056E0450022605500322800E046E0F0EB1
:1009C000056E0450025E0550035A02C0E9FF03C0E1
:1009D000EAFFEFCF02F0029A00C0E9FF01C0EAFF90
:1009E00002C0EFFF8B968B948B988B9A0401395140
:1009F00002E1949611D004013951010A02E1949464
:100A00000BD004013951020A02E1949805D0040187
:100A10003951030A01E1949A8B968B948B988B9AA7
:100A2000000000008A0E04013925006E016A040EE0
:100A30000122026A80B0022A025003E1026A022AFD
:100A400001D0026A036A80B2032A035003E1036AF9
:100A5000032A01D0036A0350020DF3CF03F00350C1
:100A60000226036A80B4032A035003E1036A032ABF
:100A700001D0036A0350040DF3CF03F003500226A4
:100A8000036A80B8032A035003E1036A032A01D0F2
:100A9000036A0350080DF3CF03F00350022600C091
:100AA000E9FF01C0EAFF02C0EFFF0401392B395111
:100AB000040A02E10401396BE4CF05F0E4CF04F04D
:100AC000E4CF03F0E4CF02F0E4CF01F0E4CF00F094
:100AD000120043002563000000C0E5FF01C0E5FFF0
:100AE00002C0E5FF03C0E5FF05C0E5FFBDEC1CF05B
:100AF000C7EC18F0F3CF01F0F4CF02F0E9CF03F028
:100B0000880F0F01306F130E0120316F000E02208D
:100B1000326F000E0320336FC6EC14F09386810E03
:100B2000006E0F0E016E0F0E036E380E002603507E
:100B300001220F0E036E800E005E0350015A810EDB
:100B4000026E0F0E036E0F0E056E380E0226055054
:100B500003220F0E056E800E025E0550035A02C07E
:100B6000E9FF03C0EAFFEFCF02F0029600C0E9FF01
:100B700001C0EAFF02C0EFFF030EE56E800EE56ED6
:100B80000F0EE56E810EE56E000EE56A0DEC15F0B8
:100B9000050EE126939C8A9C939E8A9E9280800EED
:100BA000006E0F0E016E0F0E036E380E00260350FE
:100BB0000122800E026E0F0E036E800E005E035047
:100BC000015A0F0E056E380E0226055003220F0E35
:100BD000056E800E025E0550035A02C0E9FF03C095
:100BE000EAFFEFCF02F0029000C0E9FF01C0EAFF88
:100BF00002C0EFFF9282800E006E0F0E016E0F0E8C
:100C0000036E380E002603500122800E026E0F0E76
:100C1000036E800E005E0350015A0F0E056E380EF3
:100C20000226055003220F0E056E800E025E05504F
:100C3000035A02C0E9FF03C0EAFFEFCF02F00292BD
:100C400000C0E9FF01C0EAFF02C0EFFF9284800EFE
:100C5000006E0F0E016E0F0E036E380E002603504D
:100C60000122800E026E0F0E036E800E005E035096
:100C7000015A0F0E056E380E0226055003220F0E84
:100C8000056E800E025E0550035A02C0E9FF03C0E4
:100C9000EAFFEFCF02F0029400C0E9FF01C0EAFFD3
:100CA00002C0EFFF9288800E006E0F0E016E0F0ED5
:100CB000036E380E002603500122800E026E0F0EC6
:100CC000036E800E005E0350015A0F0E056E380E43
:100CD0000226055003220F0E056E800E025E05509F
:100CE000035A02C0E9FF03C0EAFFEFCF02F0029807
:100CF00000C0E9FF01C0EAFF02C0EFFF04018E6BF4
:100D000004018A6B04018F6B04018B6B0401906BEF
:100D100004018C6B0401916B04018D6B270EE56E51
:100D2000E56A080EE56E16EC0CF0030EE126E56AA6
:100D3000800EE56E040EE56E810EE56E44EC13F058
:100D4000040EE126E4CF05F0E4CF03F0E4CF02F097
:100D5000E4CF01F0E4CF00F0120000C0E5FF01C0D5
:100D6000E5FF04014051D8B4F5D09DA81DD09EA840
:100D70001BD0040169510401661905E13AEC1CF02D
:100D80000401666BE7D0000E04016925006E016A5C
:100D9000040E012200C0E9FF01C0EAFFEFCF62F4B8
:100DA000692B62C4ADFFD6D09EAAD4D0ABA205D029
:100DB000040167813AEC1CF0CDD0ABA405D004014E
:100DC00067833AEC1CF0C6D0ABA03ED0AECF62F445
:100DD000800E040141110401621904E104016789D4
:100DE000AB96B8D00401625104E06251040141198C
:100DF00027E104016799AB960401625103E0040105
:100E0000679702D00401678762C46BF464C46CF412
:100E10000401640504016D6F600E04016C25006E11
:100E2000016A000E012200C0E9FF01C0EAFF62C4AE
:100E3000EFFF6C2B6C51800A02E104016C6B8AD0CD
:100E400004016799AB8686D0AECF62F4040167A92E
:100E500019D0800E040141110401621911E18B9037
:100E60009D9AAB980401665104E1AD6A3AEC1CF01E
:100E700007D000C4ADFF010E0401696F9D886AD0E0
:100E8000AB8668D00401625104016B2704016C51E8
:100E900004016D191BE104016B510CE16CC464F495
:100EA000040167B712D08B909D9AAB98AD6A3AEC6B
:100EB0001CF00BD00401678567B707D08B909D9A13
:100EC000AB98010EAD6E3AEC1CF044D004016C51AD
:100ED0000401651908E1040165510401641903E086
:100EE0003AEC1CF037D064C400F0016A004A012AD1
:100EF000E56A800EE56E0150E56E0050E56EDEECB1
:100F00000FF0006E040EE12600500401636F04012F
:100F10006C190CE11F0E0401621504016D6F6D2B3D
:100F20006D2B0401645104016D276D9F6CC400F0AA
:100F300004016C2B016A600E0026000E012200C025
:100F4000E9FF01C0EAFF62C4EFFF6C51800A02E1D1
:100F500004016C6BE4CF01F0E4CF00F0120000C09C
:100F6000E5FF01C0E5FF02C0E5FF03C0E5FF04C0E7
:100F7000E5FF05C0E5FF06C0E5FF07C0E5FF08C0C7
:100F8000E5FF09C0E5FF0AC0E5FF006A016A040E3B
:100F9000015CD8B0B3D0230E04014325026E036A6E
:100FA000040E032202C0E9FF03C0EAFFEFCF02F004
:100FB0000250FF0A01E19BD004014339E8441F0BB2
:100FC000026E5F0E0224036E046A040E042203C044
:100FD000E9FF04C0EAFFEFCF03F0070E4315046EEC
:100FE000010E056E000E066E045006E0E86CD89007
:100FF00005360636010FFCE3076A05500316065056
:10100000071603500710D880E866D890036A0336A5
:101010000350D880E866D890036A0336076A5D0EED
:101020000226040E072202C0E9FF07C0EAFFEFCF45
:1010300008F008C009F00A6A095005160A50061699
:1010400005500610D880E866D890056A0536055028
:10105000D880E866D890056A05360350051801E186
:1010600046D0035012E0010E056E045005E0E86C16
:10107000D8900536010FFDE30550081202C0E9FFC4
:1010800007C0EAFF08C0EFFF17D002C0E9FF07C0A2
:10109000EAFFEFCF05F0010E066E045005E0E86CA4
:1010A000D8900636010FFDE3061C051602C0E9FFC5
:1010B00007C0EAFF05C0EFFF035003E1036A032AFC
:1010C00001D0036A43C404F0E56A0350E56EE56AA3
:1010D0000450E56E000EE56E2A0EE56E0E0EE56E0E
:1010E000D6EC15F0070EE126012A01C000F004013C
:1010F000432B100E435DD8A04AD7436B0050E4CF7A
:101100000AF0E4CF09F0E4CF08F0E4CF07F0E4CF31
:1011100006F0E4CF05F0E4CF04F0E4CF03F0E4CF31
:1011200002F0E4CF01F0E4CF00F01200D9CFE5FFE8
:10113000E1CFD9FF00C0E5FF01C0E5FF02C0E5FF38
:1011400003C0E5FF04C0E5FF05C0E5FF06C0E5FFFD
:1011500007C0E5FF08C0E5FF09C0E5FF0AC0E5FFDD
:101160000BC0E5FF0CC0E5FF0DC0E5FF0EC0E5FFBD
:101170000FC0E5FF020EDBCF00F0030EDBCF01F066
:10118000040EDBCF02F0050EDBCF03F0060EDBCF43
:1011900004F0070EDBCF05F0080EDBCF06F0200EC3
:1011A000076E086A06C009F00A6A0B6A0C6AE56AEB
:1011B000E56AE56A0950E56E0350E56E0250E56E9A
:1011C0000150E56E0050E56EE1EC0AF00D6E080E80
:1011D000E126300E0D263A0E0D5C05E30D500E6E25
:1011E000270E0E240D6EFF0E07260822E00E0724A0
:1011F0000E6E000E08200F6E0EC0E9FF0FC0EAFF52
:101200000DC0EFFF0C50E56E0B50E56E0A50E56E19
:101210000950E56E0350E56E0250E56E0150E56E33
:101220000050E56EA7EC0CF0006EF3CF01F0F4CFA8
:1012300002F0E9CF03F0080EE12600500110021081
:101240000310D8A4AFD707C000F008C001F004C055
:1012500002F005C003F000C004F001C005F0004A30
:10126000012AE00E0426000E052204C0E9FF05C095
:10127000EAFFEFCF04F002C0E9FF03C0EAFF04C0B9
:10128000EFFF024A032A000E015C02E1200E005C1F
:10129000E2E302C0E9FF03C0EAFF000EEF6AE4CF19
:1012A0000FF0E4CF0EF0E4CF0DF0E4CF0CF0E4CF7C
:1012B0000BF0E4CF0AF0E4CF09F0E4CF08F0E4CF7C
:1012C00007F0E4CF06F0E4CF05F0E4CF04F0E4CF7C
:1012D00003F0E4CF02F0E4CF01F0E4CF00F0E4CF7C
:1012E000D9FF1200D9CFE5FFE1CFD9FF00C0E5FF5C
:1012F00001C0E5FF02C0E5FF03C0E5FF04C0E5FF54
:1013000005C0E5FF06C0E5FF020EDBCF00F0030ECF
:10131000DBCF01F0040EDBCF02F000C0E9FF01C01B
:10132000F3FF0250FBEC1BF0036EE56AE56EE0ECA8
:1013300017F0E652E652320EE56E0CEC1BF0E65268
:101340006BEC19F0010EE56E0350E56EE0EC17F062
:10135000E652E6520050010F036E000E0120046EAB
:10136000000E0220056E9CEC18F0066E06C0E5FF2C
:1013700003C0E9FF04C0F3FF055079EC1CF01BEC3F
:1013800019F00050020F036E000E0120046E000ED3
:101390000220056E9CEC18F0066E06C0E5FF03C047
:1013A000E9FF04C0F3FF055079EC1CF01BEC19F0C9
:1013B0000050030F036E000E0120046E000E022089
:1013C000056E9CEC18F0066E06C0E5FF03C0E9FF51
:1013D00004C0F3FF055079EC1CF01BEC19F0005031
:1013E000040F036E000E0120046E000E0220056E35
:1013F0009CEC18F0066E06C0E5FF03C0E9FF04C0D0
:10140000F3FF055079EC1CF01BEC19F00050050FB0
:10141000036E000E0120046E000E0220056E9CEC8F
:1014200018F0066E06C0E5FF03C0E9FF04C0F3FF35
:10143000055079EC1CF01BEC19F0060E0026000E8E
:10144000012202229CEC18F0036E03C0E5FF00C0ED
:10145000E9FF01C0F3FF025079EC1CF06BEC19F0CE
:10146000E4CF06F0E4CF05F0E4CF04F0E4CF03F0DE
:10147000E4CF02F0E4CF01F0E4CF00F0E4CFD9FFF5
:10148000120000C0E5FF01C0E5FF02C0E5FF03C098
:10149000E5FF04C0E5FF05C0E5FF006A230E002458
:1014A000016E026A040E022201C0E9FF02C0EAFFD7
:1014B000EFCF01F00150FF0A01E171D001380F0BAD
:1014C000026E036A800E02260F0E032202C0E9FF9D
:1014D00003C0EAFFEFCF02F0070E0116010E036E04
:1014E000000E046E015006E0E86CD8900336043616
:1014F000010FFCE3056A0250031605500416035061
:101500000410D880E866D890036A0336035024E1BB
:101510000038E8441F0B016E026A5F0E0126040EBC
:10152000022201C0E9FF02C0EAFFEFCF03F0070E7D
:101530000014046E010E056E045005E0E86CD890AE
:101540000536010FFDE30550031201C0E9FF02C09B
:10155000EAFF03C0EFFF23D00038E8441F0B016E01
:10156000026A5F0E0126040E022201C0E9FF02C0DA
:10157000EAFFEFCF03F0070E0014046E010E056EB4
:10158000045005E0E86CD8900536010FFDE3051C1A
:10159000031601C0E9FF02C0EAFF03C0EFFF002A03
:1015A000100E005CD8A07AD7E4CF05F0E4CF04F0A9
:1015B000E4CF03F0E4CF02F0E4CF01F0E4CF00F099
:1015C0001200D9CFE5FFE1CFD9FF00C0E5FF01C090
:1015D000E5FF02C0E5FF03C0E5FF04C0E5FF05C06D
:1015E000E5FF06C0E5FF07C0E5FF08C0E5FF09C04D
:1015F000E5FF0AC0E5FF020EDBCF00F0030EDBCFF4
:1016000001F0040EDBCF02F0050EDBCF03F0060E77
:10161000DBCF04F0070EDBCF05F0080EDBCF06F0C2
:10162000090EDBCF07F0086A0450051006100710FA
:1016300005E1E968F468F368E86847D0096A07508B
:10164000800BE8440A6E0A501BE10450042605365C
:10165000063607360750035C08E10650025C05E1D8
:101660000550015C02E10450005C06E2D8900732AC
:1016700006320532043204D0092A09C008F0DFD747
:101680000750035C08E10650025C05E10550015C6F
:1016900002E10450005C08E30450005E0550015A6A
:1016A0000650025A0750035AD890073206320532C4
:1016B000043208C009F008060950E2E103C0E9FF5E
:1016C00002C0F4FF01C0F3FF0050E4CF0AF0E4CF02
:1016D00009F0E4CF08F0E4CF07F0E4CF06F0E4CF60
:1016E00005F0E4CF04F0E4CF03F0E4CF02F0E4CF60
:1016F00001F0E4CF00F0E4CFD9FF1200D9CFE5FF2D
:10170000E1CFD9FF00C0E5FF01C0E5FF02C0E5FF62
:1017100003C0E5FF04C0E5FF020EDBCF00F0030EBF
:10172000DBCF01F0040EDBCF02F0050EDBCF03F0C0
:10173000420E0401456F0350466F0050010F036EC7
:10174000000E0120046E000E022003C0E9FF04C059
:10175000F3FFFBEC1BF00401476F0050020F036E18
:10176000000E0120046E000E022003C0E9FF04C039
:10177000F3FFFBEC1BF00401486F0050030F036EF6
:10178000000E0120046E000E022003C0E9FF04C019
:10179000F3FFFBEC1BF00401496F0050040F036ED4
:1017A000000E0120046E000E022003C0E9FF04C0F9
:1017B000F3FFFBEC1BF004014A6F0050050F036EB2
:1017C000000E0120046E000E022003C0E9FF04C0D9
:1017D000F3FFFBEC1BF004014B6F060E0026000E1E
:1017E0000122022200C0E9FF01C0F3FF0250FBEC1E
:1017F0001BF004014C6F0A0E4D6F090EE56E800E52
:10180000E56E040EE56E450EE56E63EC0FF0040E1A
:10181000E126E4CF04F0E4CF03F0E4CF02F0E4CF1C
:1018200001F0E4CF00F0E4CFD9FF1200D9CFE5FFFB
:10183000E1CFD9FF00C0E5FF01C0E5FF02C0E5FF31
:1018400003C0E5FF04C0E5FF05C0E5FF020EDBCFE6
:1018500000F0030EDBCF01F0040EDBCF02F03F0EF1
:101860006D166C6A6B6A00506C1201506D12938495
:10187000810E006E0F0E016E0F0E046E380E0026E4
:10188000045001220F0E046E800E005E0450015AB7
:10189000810E036E0F0E046E0F0E056E380E0326BA
:1018A000055004220F0E056E800E035E0550045A8B
:1018B00003C0E9FF04C0EAFFEFCF03F0039400C0C8
:1018C000E9FF01C0EAFF03C0EFFF9382810E006EC3
:1018D0000F0E016E0F0E046E380E0026045001220A
:1018E0000F0E046E800E005E0450015A810E036ECE
:1018F0000F0E046E0F0E056E380E032605500422DF
:101900000F0E056E800E035E0550045A03C0E9FFFA
:1019100004C0EAFFEFCF03F0039200C0E9FF01C06B
:10192000EAFF03C0EFFF02C06EFF6C8AA49EA49C76
:10193000E4CF05F0E4CF04F0E4CF03F0E4CF02F00D
:10194000E4CF01F0E4CF00F0E4CFD9FF1200D9CF0B
:10195000E5FFE1CFD9FF00C0E5FF01C0E5FF02C010
:10196000E5FF03C0E5FF04C0E5FF05C0E5FF06C0D5
:10197000E5FF07C0E5FF08C0E5FF09C0E5FF0AC0B5
:10198000E5FF0BC0E5FF0CC0E5FF0DC0E5FF020E53
:10199000DBCF00F0030EDBCF01F0040EDBCF02F053
:1019A000050EDBCF03F0060EDBCF04F0070EDBCF16
:1019B00005F0080EDBCF06F0090EDBCF07F0086A52
:1019C000096A0A6A0B6A200E0C6E0350800BE84409
:1019D0000D6E0050002601360236033608500826E8
:1019E00009360A360B360D50D8A4088007500B5C18
:1019F00008E106500A5C05E10550095C02E104506B
:101A0000085C09E30450085E0550095A06500A5A5A
:101A100007500B5A00800C040D6E0DC00CF00D50D9
:101A2000D4E103C0E9FF02C0F4FF01C0F3FF00509E
:101A3000E4CF0DF0E4CF0CF0E4CF0BF0E4CF0AF0EC
:101A4000E4CF09F0E4CF08F0E4CF07F0E4CF06F0EC
:101A5000E4CF05F0E4CF04F0E4CF03F0E4CF02F0EC
:101A6000E4CF01F0E4CF00F0E4CFD9FF120000C0D2
:101A7000E5FF01C0E5FF03C0E5FF04C0E5FF05C0C9
:101A8000E5FF06C0E5FF07C0E5FF08C0E5FF09C0A8
:101A9000E5FF0AC0E5FF0BC0E5FF5BC400F05CC4D6
:101AA00001F004015B3F01D05C2B0050E56E2CEC93
:101AB0001CF0E652076E046A056A066A5BC400F011
:101AC0005CC401F004015B3F01D05C2B0050E56E6B
:101AD0002CEC1CF0E6520B6A0A6E086A08500412DD
:101AE00005120A5006120B5007125BC400F05CC4CA
:101AF00001F004015B3F01D05C2B0050E56E2CEC43
:101B00001CF0E652036E006A03C001F0E86A03BEEF
:101B1000FF0E086E096E00500412015005120850A5
:101B20000612095007125BC400F05CC401F0040106
:101B30005B3F01D05C2B0050E56E2CEC1CF0E652B4
:101B4000016A0412015005120612071207C0E9FFCC
:101B500006C0F4FF05C0F3FF0450E4CF0BF0E4CF60
:101B60000AF0E4CF09F0E4CF08F0E4CF07F0E4CFC7
:101B700006F0E4CF05F0E4CF04F0E4CF03F0E4CFC7
:101B800001F0E4CF00F0120000C0E5FF01C0E5FF66
:101B900002C0E5FF03C0E5FF04C0E5FF0401655195
:101BA0000401641901E15FD065C400F0002A009EC1
:101BB000600E0024016E026A000E022201C0E9FFDD
:101BC00002C0EAFFEFCF6FF41F0E04016F1765C468
:101BD0006EF46F5104016E276E2B6E2B6E9FF1EC2D
:101BE00018F0016E015003E1016A012A01D0016A77
:101BF000F1EC18F004016F6F800E6F15026E1F0E6E
:101C00006F15036E03C004F003C06FF4045003E1CA
:101C100064C465F43BD001501BE0025022E0F1ECBB
:101C200018F0006E04016F070050420A1AE00050DD
:101C30004E0A03E194EC15F014D00050460A03E17B
:101C40006EEC1CF00ED00050490A0BE1FF0009D0E9
:101C500065C470F4025003E051EC15F002D0C9ECF9
:101C60001CF06EC465F404013D5104013E1906E008
:101C70000401665103E151EC0EF008D08BB006D0A0
:101C80000401665103E1ACB23AEC1CF0E4CF04F07D
:101C9000E4CF03F0E4CF02F0E4CF01F0E4CF00F0B2
:101CA000120000C0E5FF01C0E5FF02C0E5FF03C070
:101CB000E5FFACA276D048EC1AF0006E005005E1CA
:101CC00004013E6B04013D6B6CD03EC401F000503A
:101CD000012648EC1AF0026E00060250230A1FE1AA
:101CE000010E005CD8A05BD048EC1AF0026E690AC5
:101CF00003E111EC18F053D00250720A03E13AEC00
:101D00001CF04DD00250730A01E049D08B80AB86A5
:101D10009D8A9D98AE50AE50AB98AB8840D0025093
:101D2000430A05E00250420A01E039D001D0008E9A
:101D300000C068F400500401006F010E0401696FD7
:101D400004013E51011814E048EC1AF0026E04013F
:101D50006827000E04016925006E036A040E032241
:101D600000C0E9FF03C0EAFF02C0EFFF692BE8D71C
:101D7000000E04016925006E026A040E02220401AD
:101D8000681D036E032A00C0E9FF02C0EAFF03C01A
:101D9000EFFF0401692B69C466F40401886B01C07C
:101DA0003EF4E4CF03F0E4CF02F0E4CF01F0E4CF5F
:101DB00000F01200D9CFE5FFE1CFD9FF00C0E5FF69
:101DC00001C0E5FF02C0E5FF03C0E5FF04C0E5FF79
:101DD00005C0E5FF06C0E5FF07C0E5FF020EDBCF4B
:101DE00000F0030EDBCF01F0040EDBCF02F0050E96
:101DF000DBCF03F002C006F00650046E800A33E128
:101E000000C0E9FF01C0F3FF0250BFEC1AF0056EFD
:101E1000F3CF06F0F4CF07F003C0E5FF05C0E9FFFC
:101E200006C0F3FF075079EC1CF000C0E9FF01C0C9
:101E3000F3FF0250BFEC1AF0056EF3CF06F0F4CFBB
:101E400007F0052A02E3064A072A05C0E5FF06C097
:101E5000F4FF07C0F6FF00C0E9FF01C0F3FF025026
:101E60001DEC1CF01DD004AA1BD0047A045004E120
:101E70000350C2EC1CF014D00450010A04E10350DA
:101E8000D8EC1CF00DD004500F0A04E10350AFEC65
:101E900017F006D004500E0A03E10350D5EC1CF0F5
:101EA000E4CF07F0E4CF06F0E4CF05F0E4CF04F090
:101EB000E4CF03F0E4CF02F0E4CF01F0E4CF00F090
:101EC000E4CFD9FF1200D9CFE5FFE1CFD9FF00C0A1
:101ED000E5FF01C0E5FF02C0E5FF03C0E5FF04C068
:101EE000E5FF05C0E5FF06C0E5FF07C0E5FF020E00
:101EF000DBCF00F0030EDBCF01F0040EDBCF02F0EE
:101F0000050EDBCF03F03EC43FF404013D51040154
:101F10003F5F3F0703C004F0056A030E0426D8B0F4
:101F2000052A3FC406F0076A0750800FF36E05507C
:101F3000800FF35C02E10450065C02E2E8682BD0FB
:101F4000020E035C02E2E86A26D003060350E56E47
:101F500092EC16F0E652046A0350045C14E204505A
:101F60000024056EE86A0120066EE86A022005C0BA
:101F7000E9FF06C0F3FFFBEC1BF0042AE56E92ECD0
:101F800016F0E652E9D73EC43FF404013D51040186
:101F90003F5F3F07E86AE4CF07F0E4CF06F0E4CF05
:101FA00005F0E4CF04F0E4CF03F0E4CF02F0E4CF97
:101FB00001F0E4CF00F0E4CFD9FF1200D9CFE5FF64
:101FC000E1CFD9FF00C0E5FF01C0E5FF02C0E5FF9A
:101FD00003C0E5FF04C0E5FF05C0E5FF06C0E5FF5F
:101FE000020EDBCF00F0030EDBCF01F0040EDBCFDF
:101FF00002F0050EDBCF03F0D88001AED890046A62
:102000000436045007E0011C066E001C056E054AEC
:10201000062A04D000C005F001C006F0D88003AE47
:10202000D89007E3031C016E021C006E004A012ACF
:1020300004D002C000F003C001F00150E56E005072
:10204000E56E0650E56E0550E56EEEEC11F0006EA3
:10205000F3CF01F0040EE12604500AE0011C036EE8
:10206000001C026E024A032A03C0F3FF025003D091
:1020700001C0F3FF0050E4CF06F0E4CF05F0E4CF59
:1020800004F0E4CF03F0E4CF02F0E4CF01F0E4CFBA
:1020900000F0E4CFD9FF1200D9CFE5FFE1CFD9FF9F
:1020A00000C0E5FF01C0E5FF02C0E5FF03C0E5FF9A
:1020B00004C0E5FF05C0E5FF020EDBCF00F0030E14
:1020C000DBCF01F0040EDBCF02F0050EDBCF03F017
:1020D0005BC404F05CC405F004015B3F01D05C2BE1
:1020E0000350E56E0450E56E04EC1AF0E652E65239
:1020F0005BC404F05CC405F004015B3F01D05C2BC1
:102100000250056EE56E0450E56E04EC1AF0E652DE
:10211000E6525BC404F05CC405F004015B3F01D0EF
:102120005C2B0150056EE56E0450E56E04EC1AF070
:10213000E652E6525BC404F05CC405F004015B3F68
:1021400001D05C2B0050E56E0450E56E04EC1AF0F3
:10215000E652E652E4CF05F0E4CF04F0E4CF03F01A
:10216000E4CF02F0E4CF01F0E4CF00F0E4CFD9FFF8
:10217000120000C0E5FF01C0E5FF02C0E5FF03C09B
:10218000E5FFC4EC0DF00EEC04F041EC0AF0C4ECF9
:102190000DF0800EE56E040EE56E810EE56E72ECBC
:1021A00009F0030EE126C7EC18F0006EF3CF01F042
:1021B000F4CF02F0E9CF03F00F013051005E31514E
:1021C000015A3251025A3351035A039E3F0E035CA7
:1021D00008E1FF0E025C05E1FF0E015C02E1FF0E6B
:1021E000005C2AE2C7EC18F0F3CF01F0F4CF02F064
:1021F000E9CF03F0880F0F01306F130E0120316F0C
:10220000000E0220326F000E0320336F04013AA14A
:102210000DD0010EE56E800EE56E040EE56E810EAA
:10222000E56E7EEC0BF0040EE12602D09FEC12F07E
:10223000AFEC07F004013A2BE4CF03F0E4CF02F057
:10224000E4CF01F0E4CF00F01200D9CFE5FFE1CFF9
:10225000D9FF00C0E5FF01C0E5FF02C0E5FF03C0F4
:10226000E5FF04C0E5FF05C0E5FF06C0E5FF020E7F
:10227000DBCF00F0030EDBCF01F0040EDBCF02F06A
:102280000401375119E137EC0DF0036EF3CF04F080
:10229000F4CF05F0E9CF06F003C0E5FF04C0F4FF7A
:1022A00005C0F6FF06C0F7FF00C0E9FF01C0F3FF5D
:1022B00002500CEC1CF01ED004013751010A1AE147
:1022C00000C0E9FF01C0F3FF025028EC1AF0006ED5
:1022D000F3CF01F0F4CF02F0E9CF03F00350E56E45
:1022E0000250E56E0150E56E0050E56E4CEC10F0CA
:1022F000040EE126E4CF06F0E4CF05F0E4CF04F0CD
:10230000E4CF03F0E4CF02F0E4CF01F0E4CF00F03B
:10231000E4CFD9FF1200D9CFE5FFE1CFD9FF00C04C
:10232000E5FF01C0E5FF02C0E5FF03C0E5FF04C013
:10233000E5FF05C0E5FF06C0E5FF020EDBCF00F0BC
:10234000030EDBCF01F0040EDBCF02F0050EDBCF76
:1023500003F0060EDBCF04F0070EDBCF05F0080E0E
:10236000DBCF06F0D88003AED89015E306500A0AFA
:1023700012E104C0E9FF05C0EAFF2D0EEF6E044A2A
:10238000052A031E021E011E006C05E1012A03E15D
:10239000022AD8B4032A0650E56E0550E56E0450B3
:1023A000E56E0350E56E0250E56E0150E56E00509B
:1023B000E56E96EC08F0070EE126E4CF06F0E4CFD8
:1023C00005F0E4CF04F0E4CF03F0E4CF02F0E4CF73
:1023D00001F0E4CF00F0E4CFD9FF1200D9CFE5FF40
:1023E000E1CFD9FF00C0E5FF01C0E5FF02C0E5FF76
:1023F00003C0E5FF04C0E5FF05C0E5FF06C0E5FF3B
:10240000020EDBCF00F0030EDBCF01F0040EDBCFBA
:1024100002F0050EDBCF03F0046A056A0350800B5F
:10242000E844066E065011E10250022603360350BE
:10243000015C02E10250005C04E2D89003320232F7
:1024400004D0052A05C004F0E9D70350015C02E17D
:102450000250005C04E30250005E0350015AD89021
:102460000332023204C005F004060550EEE101C05B
:10247000F3FF0050E4CF06F0E4CF05F0E4CF04F022
:10248000E4CF03F0E4CF02F0E4CF01F0E4CF00F0BA
:10249000E4CFD9FF1200D9CFE5FFE1CFD9FF00C0CB
:1024A000E5FF01C0E5FF02C0E5FF03C0E5FF020E46
:1024B000DBCF00F0030EDBCF01F0040EDBCF02F028
:1024C00000C0E9FF01C0F3FF0250FBEC1BF0036EFC
:1024D000035029E06CA610D00350E56E0CEC1BF005
:1024E000036EE652035002E0FD0E1ED070EC18F0B1
:1024F0006BAC14D0FE0E18D0A49E00C0E9FF01C042
:10250000F3FF0250FBEC1BF06F6E6C88A4AEFED79D
:102510006DB404D06DB002D0FE0E06D0002AD0E318
:10252000014A022ACDD7E86AE4CF03F0E4CF02F0F3
:10253000E4CF01F0E4CF00F0E4CFD9FF120000C0F7
:10254000E5FF04018A5104018E1910E104018B5149
:1025500004018F190BE104018C510401901906E16B
:1025600004018D510401911901E139D0420EAFEC03
:1025700017F0410EAFEC17F004018A51006E300ED7
:1025800000260050AFEC17F004018B51006E300EA6
:1025900000260050AFEC17F004018C51006E300E95
:1025A00000260050AFEC17F004018D51006E300E84
:1025B00000260050AFEC17F00A0EAFEC17F0040144
:1025C0008A5104018E6F04018B5104018F6F040145
:1025D0008C510401906F04018D510401916FE4CF7F
:1025E00000F0120000C0E5FF01C0E5FF02C0E5FFFA
:1025F00003C0E5FF65C400F0016A70C402F0036A1D
:102600000250005E0350015AE56A800EE56E0150EB
:10261000E56E0050E56EDEEC0FF0006E040EE12674
:10262000000670C401F0430EAFEC17F0200EAFECC3
:1026300017F0005020E0600E0124026E036A000EC5
:10264000032202C0E9FF03C0EAFFEFCF02F0E56A10
:102650000250E56E000EE56E380EE56E8C0EE56EEE
:10266000D6EC15F0050EE126012A0150800A01E1A1
:10267000016A0006DED7E4CF03F0E4CF02F0E4CF36
:1026800001F0E4CF00F01200D9CFE5FFE1CFD9FF90
:1026900000C0E5FF01C0E5FF02C0E5FF03C0E5FFA4
:1026A000020EDBCF00F0030EDBCF01F0040EDBCF18
:1026B00002F0050EDBCF03F0035003E11D0E036EA5
:1026C00002D0530E036E03C0E5FF00C0E9FF01C056
:1026D000F3FF025079EC1CF0E56A2D0EE56E035015
:1026E000E56E41EC18F0030EE126100EE56E2D0E9E
:1026F000E56E0350E56E41EC18F0030EE126080E7E
:10270000E56E2D0EE56E0350E56E41EC18F0030EFC
:10271000E126E4CF03F0E4CF02F0E4CF01F0E4CF10
:1027200000F0E4CFD9FF1200D9CFE5FFE1CFD9FF08
:1027300000C0E5FF01C0E5FF02C0E5FF03C0E5FF03
:1027400004C0E5FF020EDBCF00F0030EDBCF01F08B
:10275000040EDBCF02F00401375111E17BEC17F0DE
:10276000036EF3CF04F003C0E5FF04C0F4FF00C024
:10277000E9FF01C0F3FF025056EC1CF016D0040133
:102780003751010A12E100C0E9FF01C0F3FF025016
:1027900096EC1BF0006EF3CF01F00150E56E005097
:1027A000E56E55EC16F0E652E652E4CF04F0E4CFC5
:1027B00003F0E4CF02F0E4CF01F0E4CF00F0E4CF87
:1027C000D9FF1200D9CFE5FFE1CFD9FF00C0E5FF67
:1027D00001C0E5FF02C0E5FF03C0E5FF04C0E5FF5F
:1027E000020EDBCF00F00038E8441F0B016E026AD6
:1027F0005F0E0126040E022201C0E9FF02C0EAFFBB
:10280000EFCF01F0070E0016010E026E000E036EF0
:10281000005006E0E86CD89002360336010FFCE366
:10282000046A015002160450031602500310D880A7
:10283000E866D890026A02360250D880E866D890DE
:10284000026A02360250E4CF04F0E4CF03F0E4CF92
:1028500002F0E4CF01F0E4CF00F0E4CFD9FF1200A2
:10286000480EF66E390EF76E000EF86E0900F55040
:10287000056E0900F550066E04E1056702D07DEF94
:1028800014F00900F550006E0900F550016E0900C2
:10289000F550026E09000900F550E96E0900F55087
:1028A000EA6E090009000900F550036E0900F550B1
:1028B000046E09000900F6CF07F0F7CF08F0F8CF53
:1028C00009F000C0F6FF01C0F7FF02C0F8FF035097
:1028D00002E1045007E00900F550EE6E0306F8E24D
:1028E0000406F9D707C0F6FF08C0F7FF09C0F8FFD4
:1028F000050601E206063CEF14F01200D9CFE5FF11
:10290000E1CFD9FF00C0E5FF01C0E5FF02C0E5FF50
:1029100003C0E5FF04C0E5FF020EDBCF00F0030EAD
:10292000DBCF01F0040EDBCF02F0036A02C004F03B
:10293000020604501DE09CEC18F0046E00C0E9FF94
:1029400001C0EAFF04C0EFFF004A012A03C004F0FF
:102950006BA6ECD7A4AC02D0E8680BD0042A04C064
:1029600003F00250F5E01BEC19F06BB8FED7F0D77E
:102970000350E4CF04F0E4CF03F0E4CF02F0E4CF5F
:1029800001F0E4CF00F0E4CFD9FF120000C0E5FF72
:1029900001C0E5FF02C0E5FF03C0E5FF04C0E5FF9D
:1029A000006A5D0E0024016E026A040E02225F0EB0
:1029B0000024036E046A040E042203C0E9FF04C06D
:1029C000EAFF010EEF6E01C0E9FF02C0EAFFEF6E01
:1029D000002A020E005CE5E3006A230E0024016E6B
:1029E000026A040E022201C0E9FF02C0EAFFEF689A
:1029F000002A100E005CF1E3E4CF04F0E4CF03F012
:102A0000E4CF02F0E4CF01F0E4CF00F01200432065
:102A1000732025642025640A0000D9CFE5FFE1CFAB
:102A2000D9FF00C0E5FF01C0E5FF02C0E5FF03C01C
:102A3000E5FF04C0E5FF05C0E5FF020EDBCF00F0B7
:102A4000030EDBCF01F0040EDBCF02F0050EDBCF6F
:102A500003F0060EDBCF04F0056A230E0026040EF9
:102A60000522800E015E070E01160138F00B026E82
:102A7000070E04160450022600C0E9FF05C0EAFF55
:102A800002C0EFFFE4CF05F0E4CF04F0E4CF03F0A1
:102A9000E4CF02F0E4CF01F0E4CF00F0E4CFD9FFBF
:102AA000120000C0E5FF01C0E5FFF1EC18F0006E78
:102AB0004C0A0EE1F1EC18F0006E00A002D08A8CF6
:102AC00001D08A9C00A202D08A8E29D08A9E27D06B
:102AD0000050450A24E1000EE56E0A0EE56ED20EA6
:102AE000E56ED6EC15F0030EE126CFEC1CF0006E7F
:102AF00000C001F0000601500FE0F1EC18F0E56AAB
:102B0000E56E000EE56E0A0EE56ED40EE56ED6ECAF
:102B100015F0050EE126ECD70A0EAFEC17F0E4CF66
:102B200001F0E4CF00F0120000C0E5FF01C0E5FFB6
:102B300002C0E5FFF1EC18F0006EF1EC18F0016E48
:102B40000050026ED00E0224006E0A0E005C05E3F7
:102B50000050026EF90E0224006E0150026ED00E7B
:102B60000224016E0A0E015C05E30150026EF90EAB
:102B70000224016E080E005C12E2100E015CD8B057
:102B80000ED00038F00B0124006E09EC17F0016E36
:102B9000015005E10050E56EF4EC1AF0E652E4CF86
:102BA00002F0E4CF01F0E4CF00F01200D9CFE5FF4E
:102BB000E1CFD9FF00C0E5FF01C0E5FF02C0E5FF9E
:102BC000020ED924006E000EDA20016E800E026E15
:102BD000030E0026000E012202220250E56E015073
:102BE000E56E0050E56E040EDBCFE5FF030EDBCF94
:102BF000E5FF020EDBCFE5FF04015451E56E5351B2
:102C0000E56E5251E56E0EEC00F0006EF3CF01F070
:102C1000090EE12601C0F3FF0050E4CF02F0E4CF3B
:102C200001F0E4CF00F0E4CFD9FF1200D9CFE5FFE7
:102C3000E1CFD9FF00C0E5FF01C0E5FF02C0E5FF1D
:102C400003C0E5FF020EDBCF00F0030EDBCF01F087
:102C5000040EDBCF02F0040137510DE16AEC1BF0EA
:102C6000036E03C0E5FF00C0E9FF01C0F3FF02509F
:102C700079EC1CF00FD004013751010A0BE100C0C0
:102C8000E9FF01C0F3FF0250FBEC1BF0E56EB9EC6D
:102C900019F0E652E4CF03F0E4CF02F0E4CF01F004
:102CA000E4CF00F0E4CFD9FF1200D9CFE5FFE1CFA8
:102CB000D9FF00C0E5FF01C0E5FF02C0E5FF03C08A
:102CC000E5FF020EDBCF00F0030EDBCF01F05BC4AB
:102CD00002F05CC403F004015B3F01D05C2B0150A7
:102CE000E56E0250E56E04EC1AF0E652E6525BC463
:102CF00002F05CC403F004015B3F01D05C2B005088
:102D0000E56E0250E56E04EC1AF0E652E652E4CFAE
:102D100003F0E4CF02F0E4CF01F0E4CF00F0E4CF21
:102D2000D9FF1200D9CFE5FFE1CFD9FF00C0E5FF01
:102D300001C0E5FF02C0E5FF03C0E5FF04C0E5FFF9
:102D4000020EDBCF00F03DC401F0026A014A022A04
:102D50003EC403F0046A0150031803E10250041852
:102D600001E001D00ED0000E04013D25016E026A83
:102D7000070E022201C0E9FF02C0EAFF00C0EFFF18
:102D80003D2BE4CF04F0E4CF03F0E4CF02F0E4CF36
:102D900001F0E4CF00F0E4CFD9FF1200D9CFE5FF76
:102DA000E1CFD9FF00C0E5FF01C0E5FF02C0E5FFAC
:102DB00003C0E5FF020EDBCF00F0016A70C402F031
:102DC000036A0250002603500122E56A800EE56E78
:102DD0000150E56E0050E56EDEEC0FF0006EF3CFB3
:102DE00001F0040EE126600E0026000E012200C054
:102DF000E9FF01C0EAFFEFCF00F00050E4CF03F09D
:102E0000E4CF02F0E4CF01F0E4CF00F0E4CFD9FF4B
:102E1000120000C0E5FF01C0E5FF02C0E5FF010EA2
:102E2000006EF1EC18F0016E01C002F0015023E0D9
:102E30000050E56E2CEC1CF0016EE652015010E1E2
:102E40000A0E005C0BE20A0E006EE56E2CEC1CF024
:102E5000016EE652015004E1E8680ED0E8680CD03B
:102E60000150021802E0E86807D0002A1B0E005C3F
:102E7000D8E3E86801D0E86AE4CF02F0E4CF01F0DB
:102E8000E4CF00F01200F3CFE5FFF4CFE5FFE9CF88
:102E9000E5FFEACFE5FFFACFE5FFFBCFE5FF040151
:102EA0003B510F01366F04013C510F01376FD65073
:102EB000346FD750356FF2A411D004013B3F01D0DD
:102EC0003C2BF29404013B510F01366F04013C513D
:102ED0000F01376FD650346FD750356FE4CFFBFFFB
:102EE000E4CFFAFFE4CFEAFFE4CFE9FFE4CFF4FF59
:102EF000E4CFF3FF110000C0E5FF01C0E5FF02C011
:102F0000E5FF03C0E5FF5BC400F05CC401F0040111
:102F10005B3F01D05C2B0050E56E2CEC1CF0E652C0
:102F2000036E026A5BC400F05CC401F004015B3F05
:102F300001D05C2B0050E56E2CEC1CF0E652016ACF
:102F400002120150031203C0F3FF0250E4CF03F05A
:102F5000E4CF02F0E4CF01F0E4CF00F0120000C0B3
:102F6000E5FF01C0E5FF02C0E5FF006E000E0401B1
:102F70004225016E026A0F0E022201C0E9FF02C063
:102F8000EAFF00C0EFFF220E425D01E2422B00503B
:102F90000A0A0FE104014251E56E800EE56E0F0E44
:102FA000E56E000EE56E63EC0FF0040EE126040101
:102FB000426BE4CF02F0E4CF01F0E4CF00F0120066
:102FC000D9CFE5FFE1CFD9FF00C0E5FF01C0E5FFA4
:102FD00002C0E5FF020EDBCF00F0030EDBCF01F0F5
:102FE00092EC19F00044FE0B026E0150D880E866A6
:102FF000D890006A00360050D880E866D890006A01
:103000000036005002120250E56E0CEC1BF0E65246
:10301000E4CF02F0E4CF01F0E4CF00F0E4CFD9FF39
:10302000120004013D6B04013E6B04013F698B807B
:103030009490B06A3F0EAF6EB886AC8AAC84AC8C0C
:10304000AC90AB8CAB8E0401676B0401616B040127
:10305000646B0401656B0401666B000EE56A2CEC81
:103060001CF00401416FE6529F989F9A010E0401E3
:10307000406F0401526B536B2F0E546F3AEC1CF0EF
:103080001200D9CFE5FFE1CFD9FF00C0E5FF01C0B5
:10309000E5FF02C0E5FF020EDBCF00F0030EDBCF41
:1030A00001F0040EDBCF02F0E56A0050E56EE0ECC3
:1030B00017F0E652E6520150E56E0CEC1BF0E652BA
:1030C0000250E56E0CEC1BF0E6526BEC19F0E4CF0D
:1030D00002F0E4CF01F0E4CF00F0E4CFD9FF12001A
:1030E00000C0E5FF01C0E5FF02C0E5FF03C0E5FF4A
:1030F000E80E006E030E016E0050FF0F026EFF0E11
:103100000120036E02C000F003C001F00250031062
:103110000AE01F0E6B14026E036A6DB4032A03509B
:1031200002120250E9E1E4CF03F0E4CF02F0E4CF71
:1031300001F0E4CF00F0120000C0E5FF01C0E5FFA0
:1031400002C0E5FF03C0E5FFE80E006E030E016E4E
:1031500070EC18F06B860050FF0F026EFF0E01201E
:10316000036E02C000F003C001F00250031005E03E
:10317000B7EC1CF0026E0250EEE06F50E4CF03F0AB
:10318000E4CF02F0E4CF01F0E4CF00F0120004013C
:103190003B510401506F04013C510401516FD65062
:1031A0004E6FD7504F6F505104013B1905E1040198
:1031B000515104013C190CE004013B510401506FD2
:1031C00004013C510401516FD6504E6FD7504F6FE0
:1031D00051C4E9FF50C4F4FF4FC4F3FF04014E5142
:1031E000120000C0E5FF01C0E5FF040165510401C4
:1031F0006E1905E0040165510401641902E1E86AF1
:1032000015D065C400F00401652B016A600E00262C
:10321000000E012200C0E9FF01C0EAFFEFCF00F07D
:103220006551800A02E10401656B0050E4CF01F0B2
:10323000E4CF00F0120000C0E5FF01C0E5FF02C0CE
:10324000E5FF03C0E5FFE80E006E030E016E70ECB3
:1032500018F0A49E6B9A6B880050FF0F026EFF0E51
:103260000120036E02C000F003C001F00250031001
:1032700002E0A4AEF1D7E4CF03F0E4CF02F0E4CF54
:1032800001F0E4CF00F0120000C0E5FFC6EC1CF036
:103290000401896B806B8983006A89B3002A00501E
:1032A000010BE844F46E8051FD0BF410806FD58E55
:1032B000D59CD59AD588D596D594D582D580F28AD5
:1032C000F184D08EF28EF28CBA80FF0EBB68BA8485
:1032D000E4CF00F0120000C0E5FF01C0E5FF02C02E
:1032E000E5FF03C0E5FFE80E006E030E016E70EC13
:1032F00018F06B840050FF0F026EFF0E0120036E6A
:1033000002C000F003C001F00250031002E06BB4F1
:10331000F1D7E4CF03F0E4CF02F0E4CF01F0E4CF43
:1033200000F0120000C0E5FF01C0E5FF02C0E5FFAC
:1033300003C0E5FFE80E006E030E016E70EC18F09E
:103340006B800050FF0F026EFF0E0120036E02C063
:1033500000F003C001F00250031002E06BB0F1D79F
:10336000E4CF03F0E4CF02F0E4CF01F0E4CF00F0CB
:103370001200D9CFE5FFE1CFD9FF00C0E5FF01C0C2
:10338000E5FF02C0E5FF020EDBCF00F05BC401F0F9
:103390005CC402F004015B3F01D05C2B0050E56E81
:1033A0000150E56E04EC1AF0E652E652E4CF02F06A
:1033B000E4CF01F0E4CF00F0E4CFD9FF1200D8CF82
:1033C000E5FFE0CFE5FFE56EF3CFE5FFF4CFE5FFE6
:1033D000E9CFE5FFEACFE5FFFACFE5FFFBCFE5FF59
:1033E000ADEC06F0E4CFFBFFE4CFFAFFE4CFEAFF59
:1033F000E4CFE9FFE4CFF4FFE4CFF3FFE450E4CF00
:10340000E0FFE4CFD8FF1000D9CFE5FFE1CFD9FF2F
:1034100000C0E5FF020EDBCF00F0030EDBCFA8FFFC
:1034200000C0A9FFA69EA69CA684F29EF29C550E03
:10343000A76EAA0EA76EA682A6A202D00000FCD795
:10344000A694F28EF28CE4CF00F0E4CFD9FF120004
:10345000E8AE0AD0F3CFEAFFEE50EECFF3FFEECFA7
:10346000F4FFEECFE9FF1200E8BCE4EF1CF0E9CF77
:10347000F6FFF3CFF7FFF86E0900F5500900F5CF1E
:10348000F3FF0900F5CFF4FF0900F5CFE9FF1200C3
:1034900000C0E5FF01C0E5FF04013D5104013E19F4
:1034A00002E1E86A0FD0000E04013E25006E016AB9
:1034B000070E012200C0E9FF01C0EAFFEFCF00F0D4
:1034C0003E2B0050E4CF01F0E4CF00F01200F2CF29
:1034D000EAFFF29EA69EA69CA684E9CFA9FFF3CFA1
:1034E000AAFFE4CFA8FF84EC1CF0F4CFA8FF84EC83
:1034F0001CF0F6CFA8FF84EC1CF0F7CFA8FF84ECFB
:103500001CF0A694EABEF28E1200D9CFE5FFE1CFFF
:10351000D9FF00C0E5FF01C0E5FF020EDBCF00F0E0
:10352000016A230E0026040E012200C0E9FF01C03B
:10353000EAFFFF0EEF68E4CF01F0E4CF00F0E4CF44
:10354000D9FF1200F2CFF6FFF29EA69EA69CE9CF0D
:10355000A9FFF3CFAAFFA680A850A94AAA2AA6804D
:10356000A8CFF3FFA94AAA2AA680A8CFF4FFA94AA8
:10357000AA2AA680A8CFEAFFF6BEF28E1200E8AE15
:1035800008D0F3CFEAFFEE50EECFF3FFEECFF4FF1B
:103590001200E8BCE6EF1CF0E9CFF6FFF3CFF7FF2F
:1035A000F86E0900F5500900F5CFF3FF0900F5CFDB
:1035B000F4FF1200F2CFEAFFF29EA69EA69CA6841C
:1035C000E9CFA9FFF3CFAAFFE4CFA8FF84EC1CF05A
:1035D000F4CFA8FF84EC1CF0F6CFA8FF84EC1CF01D
:1035E000A694EABEF28E1200D9CFE5FFE1CFD9FF53
:1035F00000C0E5FF020EDBCF00F000C041F4005038
:10360000E56E000EE56A04EC1AF0E652E652E4CFED
:1036100000F0E4CFD9FF1200D9CFE5FFE1CFD9FF09
:1036200000C0E5FF020EDBCF00F06C9E00C06FFF14
:103630006CAE02D0E86803D070EC18F0E86AE4CF12
:1036400000F0E4CFD9FF1200F2CFF6FFF29EA69E63
:10365000A69CE9CFA9FFF3CFAAFFA680A850A94A4C
:10366000AA2AA680A8CFF3FFA94AAA2AA680A8CF93
:10367000F4FFF6BEF28E120000C0E5FF01C0E5FFC8
:10368000600E04016525006E016A000E012200C073
:10369000E9FF01C0EAFFEFCF00F00050E4CF01F0F6
:1036A000E4CF00F01200D9CFE5FFE1CFD9FF00C091
:1036B000E5FF020EDBCF00F0610E005C05E37B0E40
:1036C000005C02E2010E01D0E86AE4CF00F0E4CF32
:1036D000D9FF120000C0E5FF01C0E5FF5BC400F0A8
:1036E0005CC401F004015B3F01D05C2B0050E56E2F
:1036F0002CEC1CF0E652E4CF01F0E4CF00F0120015
:10370000D9CFE5FFE1CFD9FF00C0E5FF020EDBCF47
:1037100000F000C040F4005004E13AEC1CF09D9A27
:103720009D98E4CF00F0E4CFD9FF1200E8AE06D0B8
:10373000F3CFEAFFEE50EECFF3FF1200E8BCE2EF6A
:103740001CF0E9CFF6FFF3CFF7FFF86E0900F55054
:103750000900F5CFF3FF1200F2CFEAFFF29EA69E1A
:10376000A69CA684E9CFA9FFF3CFAAFFE4CFA8FFC8
:1037700084EC1CF0F4CFA8FF84EC1CF0A694EABE05
:10378000F28E120018EEFFF028EEFFF0F86AA68E17
:10379000A69CE9680E0EEA6E0068000EED6A005005
:1037A000FDE130EC14F0ABEC1CF0FFD7F2CFF6FFEC
:1037B000F29EA69EA69CE9CFA9FFF3CFAAFFA68002
:1037C000A850A94AAA2AA680A8CFF3FFF6BEF28E77
:1037D0001200F2CFEAFFF29EA69EA69CA684E9CF35
:1037E000A9FFF3CFAAFFE4CFA8FF84EC1CF0A694B6
:1037F000EABEF28E1200E8AE04D0F3CFEAFFEE503C
:103800001200E8BCE0EF1CF0E9CFF6FFF3CFF7FFC2
:10381000F86E0900F5501200E8AE0BD0F3CFEAFFC6
:10382000E4CFEEFFF4CFEEFFF6CFEEFFF7CFEEFFE3
:103830001200E8BCDEEF1CF01200E8AE09D0F3CFB6
:10384000EAFFE4CFEEFFF4CFEEFFF6CFEEFF12007B
:10385000E8BCE8EF1CF01200D9CFE5FFE1CFD9FFBB
:10386000020EDBCFA9FFA69CA69EA680A850E4CF9F
:10387000D9FF1200ACA2FED78B80AE500000AE5034
:10388000AB98AB88AB869D8A9D981200256420007A
:10389000F2CFF6FFF29EA69EA69CE9CFA9FFF3CF3A
:1038A000AAFFA680A850F6BEF28E1200E8AE07D09E
:1038B000F3CFEAFFE4CFEEFFF4CFEEFF1200E8BC57
:1038C000DCEF1CF01200700ED36E9B8CFF0E926822
:1038D000936894689668626AF19E120000C0E5FFE2
:1038E00009EC17F0006E005001E1FF00E4CF00F09A
:1038F0001200E8AE05D0F3CFEAFFE4CFEEFF1200EE
:10390000E8BCDAEF1CF01200550EA76EAA0EA76EE7
:10391000A682A6B2FED7A94AAA2A010E0401376FD1
:103920001C0E04015B6F5C6B120070EC18F0A49E1F
:103930006B8A6B88A4AEFED712000401376B1C0E95
:1039400004015B6F5C6B120001000C000000390485
:1039500000000C0000006CEC05F0B9EC10F0FDD795
:10396000120070EC18F06B826BB2FED712006DA0E3
:1039700002D0010E01D0E86A120044EC19F011ECFB
:1039800018F01200ACA2FED7AD6E120063EC1CF072
:103990001200F1EC18F0120004016551120004014C
:1039A0006F511200040140511200E8CF7FFF120056
:1039B000C96E1200E9EF1BF0ACEF1BF067EF1AF0D5
:1039C00048EF1CF0D6EF1BF0A2EF1AF024EF1BF02B
:0439D000DAEF1AF020
:00000001FF
