:020000040000FA
:10000000FBEF23F0C69A120002EF1FF07EEC08F01F
:10001000C8EC19F0FDD7120018EF22F0D9CFE5FF98
:10002000E1CFD9FF00C0E5FF01C0E5FF02C0E5FF59
:1000300003C0E5FF04C0E5FF05C0E5FF06C0E5FF1E
:1000400007C0E5FF08C0E5FF09C0E5FF0AC0E5FFFE
:100050000BC0E5FF0CC0E5FF0DC0E5FF0EC0E5FFDE
:100060000FC0E5FF10C0E5FF11C0E5FF12C0E5FFBE
:1000700013C0E5FF14C0E5FF15C0E5FF16C0E5FF9E
:1000800017C0E5FF18C0E5FF19C0E5FF1AC0E5FF7E
:100090001BC0E5FF1CC0E5FF1DC0E5FF1EC0E5FF5E
:1000A000020EDBCF00F0030EDBCF01F0040EDBCF3E
:1000B00002F0050EDBCF03F0060EDBCF04F0070ED7
:1000C000DBCF05F0080EDBCF06F0090EDBCF07F023
:1000D0000A0EDBCF08F0096A0A6A02C00DF00D5063
:1000E000800A0DE102500A016B6F01506A6F0050E7
:1000F000696F0A0E016E690E006E800E026E03C0FB
:10010000E9FF04C0F3FF055034EC24F00B6E0B50F4
:10011000D8B4C4EF03F00B50250A02E0ABEF03F0B4
:100120000C6A0D6A0E6A0F6A106A0A0E116E126A64
:10013000136A146A200E156E1668176A2B0E186E55
:10014000032A02E3044A052A03C0E9FF04C0F3FFBF
:10015000055034EC24F0196E250A13E11950E56EB0
:100160000250E56E0150E56E0050E56EFEEC13F0B6
:10017000040EE126094A0A2A032A02E3044A052A50
:10018000BED71950300A06E1300E156E032A02E37D
:10019000044A052A03C0E9FF04C0F3FF055034EC0C
:1001A00024F02D0A06E1010E146E032A02E3044A2C
:1001B000052A03C0E9FF04C0F3FF055034EC24F026
:1001C000200A08E1010E176E200E186E032A02E3C2
:1001D000044A052A03C0E9FF04C0F3FF055034ECCC
:1001E00024F02B0A06E1010E176E032A02E3044AEB
:1001F000052A03C0E9FF04C0F3FF055034EC24F0E6
:10020000196E310E195C2BE33A0E195C28E203C01B
:1002100019F004C01AF005C01BF019C0E9FF1AC09C
:10022000F3FF1B5034EC24F01C6E300E1C5C11E309
:100230003A0E1C5C0EE213500A0DF3CF1DF01D5058
:100240001C26D00E1C24136E192A02E31A4A1B2AFC
:10025000E4D719C003F01AC004F01BC005F003C0B6
:10026000E9FF04C0F3FF055034EC24F02E0A2DE121
:10027000032A02E3044A052A166A03C019F004C0DF
:100280001AF005C01BF019C0E9FF1AC0F3FF1B509C
:1002900034EC24F01C6E300E1C5C11E33A0E1C5C36
:1002A0000EE216500A0DF3CF1DF01D501C26D00E85
:1002B0001C24166E192A02E31A4A1B2AE4D719C015
:1002C00003F01AC004F01BC005F003C0E9FF04C02E
:1002D000F3FF055034EC24F0196E6C0A07E1010EAF
:1002E0000C6E032A02E3044A052A09D01950680A51
:1002F00006E1010E0E6E032A02E3044A052A03C03A
:10030000E9FF04C0F3FF055034EC24F0750A06E160
:10031000010E106E032A02E3044A052A03C0E9FF16
:1003200004C0F3FF055034EC24F0196E730A05E1A4
:10033000010E0D6E200E156E3FD01950780A03E1A4
:10034000100E116E39D01950580A05E1100E116EB9
:10035000010E126E31D01950630A02E1116A2CD0DD
:1003600019506F0A03E1080E116E26D01950660A63
:1003700003E1010E0F6E20D01950640A1DE01950E0
:10038000690A1AE0105005E0FF0E03260422052238
:1003900013D01950E56E0250E56E0150E56E005025
:1003A000E56EFEEC13F0040EE126094A0A2A032A40
:1003B00002E3044A052AA3D60D5021E00650030F9C
:1003C0000D6E000E0720196E000E08201A6E0DC06B
:1003D00006F019C007F01AC008F0FD0E0D26FF0E3A
:1003E00019221A220DC0E9FF19C0F3FF1A50F8ECC8
:1003F00022F00D6EF3CF19F0F4CF1AF0FDD00F50AC
:100400000DE0000E1A6E080E196E100E0D6E040E21
:100410000626000E072208221668EED016680C5039
:1004200023E00650040F0C6E000E07200F6E000E26
:1004300008201B6E0CC006F00FC007F01BC008F0B0
:10044000FC0E0C26FF0E0F221B220CC0E9FF0FC072
:10045000F3FF1B5061EC22F00C6EF3CF0FF0F4CFE2
:100460001BF0E9CF1CF067D00E502FE00650020FB2
:100470000E6E000E07201D6E000E08201E6E0EC0B0
:1004800006F01DC007F01EC008F0FE0E0E26FF0E7F
:100490001D221E220EC0E9FF1DC0F3FF1E50CFEC2F
:1004A00023F00E6E0EC00CF00F6A1B6A1C6A11500E
:1004B0000A0A03E11050D8B43ED00C500E6E0EC0A4
:1004C0000CF00F6A1B6A1C6A36D00650020F0E6EC3
:1004D000000E07201D6E000E08201E6E0EC006F0D6
:1004E0001DC007F01EC008F0FE0E0E26FF0E1D22D6
:1004F0001E220EC0E9FF1DC0F3FF1E50CFEC23F0FB
:100500000E6EF3CF1DF00EC00CF01DC00FF0E86AA8
:100510001DBEFF0E1B6E1C6E11500A0A02E1105028
:100520000AE00C500E6E0F501D6E0EC00CF01DC078
:100530000FF01B6A1C6A040E196EF40E0D6E800E0D
:100540001A6E1150D8B440D0105013E01150E56E1F
:10055000040EE56EF40EE56E1C50E56E1B50E56E64
:100560000F50E56E0C50E56E97EC0EF0070EE1268D
:1005700012D01150E56E040EE56EF40EE56E1C50BF
:10058000E56E1B50E56E0F50E56E0C50E56E08EC05
:1005900019F0070EE12617502FE00DC0E9FF19C032
:1005A000F3FF1A5034EC24F02D0A26E0FF0E0D263E
:1005B00019221A2218C0E5FF0DC0E9FF19C0F3FF88
:1005C0001A50DAEC24F018D00CC0E5FF0DC0E9FF9A
:1005D00019C0F3FF1A50DAEC24F00D50010F0C6E25
:1005E000000E19200E6E000E1A20E56A0CC0E9FFFD
:1005F0000EC0F3FFDAEC24F00DC00CF019C00EF0C1
:100600001AC00FF013C010F0105010E00CC0E9FF3A
:100610000EC0F3FF0F5034EC24F0176E175006E0B5
:100620000C2A02E30E4A0F2A1006EED710C013F070
:1006300014501EE109C00CF00AC00EF010C00FF0FB
:100640000F5010E01550E56E0250E56E0150E56E5A
:100650000050E56EFEEC13F0040EE1260C4A0E2A63
:100660000F06EED70CC009F00EC00AF00FC013F051
:1006700016C00CF00DC00DF019C00EF01AC00FF02E
:1006800009C010F00AC015F00DC0E9FF0EC0F3FF5D
:100690000F5034EC24F0166E1650D8B43ED00CC077
:1006A00016F0176A161E171E1650171005E00CC01C
:1006B00016F00C06165031E00DC0E9FF0EC0F3FF36
:1006C0000F5034EC24F0116E125010E01150E56E12
:1006D0008CEC23F0166EE652165004E0DF0E111477
:1006E000166E02D011C016F016C011F01150E56E52
:1006F0000250E56E0150E56E0050E56EFEEC13F021
:10070000040EE1260D2A02E30E4A0F2A104A152A8A
:100710001350D8B4B9D71306B7D710C009F015C015
:100720000AF014502BE010C00CF015C00DF013C0EF
:100730000EF00E501FE0200EE56E0250E56E0150E7
:10074000E56E0050E56EFEEC13F0040EE1260C4A57
:100750000D2A0E06EED70B50E56E0250E56E0150E5
:10076000E56E0050E56EFEEC13F0040EE126094A3A
:100770000A2A04D00CC009F00DC00AF0032A02E3D3
:10078000044A052A7FEF00F00AC0F3FF0950E4CFC6
:100790001EF0E4CF1DF0E4CF1CF0E4CF1BF0E4CF5B
:1007A0001AF0E4CF19F0E4CF18F0E4CF17F0E4CF5B
:1007B00016F0E4CF15F0E4CF14F0E4CF13F0E4CF5B
:1007C00012F0E4CF11F0E4CF10F0E4CF0FF0E4CF5B
:1007D0000EF0E4CF0DF0E4CF0CF0E4CF0BF0E4CF5B
:1007E0000AF0E4CF09F0E4CF08F0E4CF07F0E4CF5B
:1007F00006F0E4CF05F0E4CF04F0E4CF03F0E4CF5B
:1008000002F0E4CF01F0E4CF00F0E4CFD9FF120012
:100810003C4E4F20464C4F41543E000000C0E5FF87
:1008200001C0E5FF02C0E5FF03C0E5FF04C0E5FF2E
:1008300005C0E5FF06C0E5FF07C0E5FF08C0E5FF0E
:1008400009C0E5FF0AC0E5FF0BC0E5FF0CC0E5FFEE
:10085000006A016A026A040E025CD8B0E8D101C0E5
:1008600003F0012A100E035CD8B0E1D10A012F2B4E
:10087000100E2F5D01E32F6B0A012F39E8441F0B87
:10088000036E046A6E0E03260A0E042203C0E9FFFB
:1008900004C0EAFFEFCF03F0070E2F15046E010E20
:1008A000056E000E066E045006E0E86CD890053622
:1008B0000636010FFCE3076A0350051607500616BB
:1008C00005500610D880E866D890056A05360550B0
:1008D000D8A4C1D70A012F51020DF450046EF3CFF2
:1008E00003F0E00E0324056E000E0420066E05C022
:1008F000E9FF06C0EAFFEECF05F0EFCF06F00A01F0
:100900002CA19DD0930E0324076E040E0420086EC4
:1009100007C0E9FF08C0EAFFEECF07F0EFCF08F00D
:100920000650800FF36E0850800FF35C02E1075011
:10093000055C03E2056A066A60D0B30E0326040E66
:10094000042203C0E9FF04C0EAFFEECF03F0EFCFBB
:1009500004F00450800FF36E0650800FF35C02E148
:100960000550035C04E205683F0E066E46D0075052
:10097000055C096E085006580A6EE86A0ABEFF0E4A
:100980000B6EE56E0B50E56E0A50E56E0950E56E94
:10099000E56AE56A400EE56E000EE56AA4EC0BF030
:1009A000096EF3CF0AF0F4CF0BF0E9CF0CF0080E8C
:1009B000E1260750035C076E08500458086EE86A89
:1009C00008BEFF0E036EE56E0350E56E0850E56E3F
:1009D0000750E56E0C50E56E0B50E56E0A50E56E63
:1009E0000950E56E41EC11F0036EF3CF04F0080EF0
:1009F000E1260350056E0450066E0A012B51800F4C
:100A0000F36E0650800FF35C02E105502A5D03E3AC
:100A1000056A066A14D00A012A51FF08036E3F0EC8
:100A20002B55046E0650800FF36E0450800FF35C5C
:100A300002E10350055C03E305683F0E066E0A0100
:100A40002F51020DF450046EF3CF03F0590E03261C
:100A5000040E042203C0E9FF04C0EAFFEECF03F056
:100A6000EFCF04F00350055C036E04500658046E8B
:100A7000D88004AED89004E3041E036CD8B4042AD2
:100A8000022A0A012B51800FF36E0450800FF35C91
:100A900002E103502A5DD8B0DED60A012F51020DC3
:100AA000F450086EF3CF07F0590E0726040E082203
:100AB00007C0E9FF08C0EAFF05C0EEFF06C0EFFF70
:100AC0000A012CA55AD00A012F51020DF450086ECC
:100AD000F3CF07F0D30E0724096E040E08200A6E28
:100AE00009C0E9FF0AC0EAFFEECF0BF0EFCF0CF030
:100AF0000B500C10D8B441D0390E0726040E082232
:100B000007C0E9FF08C0EAFFEECF07F0EFCF08F01B
:100B10000750055C036E08500658046E03101CE075
:100B20000450800F800F02E1010E035C076A073654
:100B30000C50800F800F02E1010E0B5C0B6A0B362C
:100B400007500B1809E109C0E9FF0AC0EAFF03C01A
:100B5000EEFF04C0EFFF7FD60A012F51020DF450C3
:100B6000046EF3CF03F0D30E0326040E042203C059
:100B7000E9FF04C0EAFFEE6AEF6A0A012CA343D042
:100B800000500EE100C003F0002A046A300E032674
:100B90000A0E042203C0E9FF04C0EAFF420EEF6E12
:100BA00000C003F0002A046A300E03260A0E042255
:100BB000640E0A012F25076E03C0E9FF04C0EAFF97
:100BC00007C0EFFF00C003F0002A046A300E0326BE
:100BD0000A0E04220650076E03C0E9FF04C0EAFFB4
:100BE00007C0EFFF00C003F0002A046A300E03269E
:100BF0000A0E04220550076E03C0E9FF04C0EAFF95
:100C000007C0EFFF28D62FCA03F00650E56E055047
:100C1000E56EE56A0350E56E000EE56E2A0EE56EA0
:100C2000080EE56E95EC1DF0070EE12614D602C005
:100C300001F000501DE00A012CA31AD000C002F000
:100C4000002A036A300E02260A0E032202C0E9FFC0
:100C500003C0EAFF0A0EEF6E0050E56E800EE56EEF
:100C60000A0EE56E300EE56E88EC15F0040EE126F6
:100C70000150E4CF0CF0E4CF0BF0E4CF0AF0E4CF66
:100C800009F0E4CF08F0E4CF07F0E4CF06F0E4CFBA
:100C900005F0E4CF04F0E4CF03F0E4CF02F0E4CFBA
:100CA00001F0E4CF00F0120000C0E5FF01C0E5FF55
:100CB00002C0E5FF03C0E5FF04C0E5FF05C0E5FF96
:100CC00006C0E5FF07C0E5FF08C0E5FF09C0E5FF76
:100CD0000AC0E5FFC2A204D00A012D5167EF08F057
:100CE0000A012E51D8B41BD10A012D51020DF45026
:100CF000016EF3CF00F0E00E0026000E012200C0CE
:100D0000E9FF01C0EAFFEECF00F0EFCF01F0230EC4
:100D10002D25026E036A040E032202C0E9FF03C000
:100D2000EAFFEFCF02F00250FF0A01E152D0023891
:100D30000F0B036E920E0324046E056A0F0E05223C
:100D4000066A920E03260F0E062203C0E9FF06C0B4
:100D5000EAFFEFCF03F0070E0214066E010E076ED6
:100D6000065005E0E86CD8900736010FFDE3071C3C
:100D7000066E031604C0E9FF05C0EAFF03C0EFFFDB
:100D800002380F0B036E890E0324046E056A0F0EE2
:100D90000522066A890E03260F0E062203C0E9FF0C
:100DA00006C0EAFFEFCF03F0070E0214066E010E35
:100DB000076E065005E0E86CD8900736010FFDE39A
:100DC000071C066E031604C0E9FF05C0EAFF03C056
:100DD000EFFF0A012D51020DF450046EF3CF03F022
:100DE000E00E0326000E042200380F0B056E0138BA
:100DF000066EF00B061A0526F00E06B606260550FE
:100E0000005C056E06500158066EC3CF07F0086AF5
:100E10000750052608500622C4CF07F0086A07507D
:100E20000A6E096A095005260A50062203C0E9FF26
:100E300004C0EAFF05C0EEFF06C0EFFF0A0129511A
:100E4000010A01E06AD00A012D51020DF450046E2E
:100E5000F3CF03F0E00E0324056E000E0420066EAF
:100E600005C0E9FF06C0EAFFEECF00F0EFCF01F0CA
:100E7000930E0326040E042203C0E9FF04C0EAFF18
:100E8000EECF05F0EFCF06F09C0E0526D8A00606A3
:100E90000150800FF36E0650800FF35C02E10550A5
:100EA000005C0EE20050640F056E000E0120066E1D
:100EB00003C0E9FF04C0EAFF05C0EEFF06C0EFFF74
:100EC0000A012D51020DF450046EF3CF03F0B30E5E
:100ED0000326040E042203C0E9FF04C0EAFFEECF9C
:100EE00005F0EFCF06F0640E0526D8B0062A0650AE
:100EF000800FF36E0150800FF35C02E10050055C3F
:100F00000CE29C0E0026D8A0010603C0E9FF04C035
:100F1000EAFF00C0EEFF01C0EFFF0A012E6B0A01DD
:100F20002D2B100E2D5D01E32D6B0A012D39E844A8
:100F30001F0B006E016A6E0E00260A0E012200C011
:100F4000E9FF01C0EAFFEFCF00F0070E2D15016E9B
:100F5000010E036E000E046E015006E0E86CD8909E
:100F600003360436010FFCE3056A005003160550F2
:100F7000041603500410D880E866D890036A03363C
:100F80000350D8A4A2D0230E0A012D25006E016AB9
:100F90000F0E012200C0E9FF01C0EAFFEFCF00F011
:100FA0000044E844FC0B016E0128C26E230E2D257F
:100FB000006E016A040E012200C0E9FF01C0EAFFD1
:100FC000EFCF02F00250FF0A01E17BD002380F0B95
:100FD000006E920E0024016E036A0F0E0322046A53
:100FE000920E00260F0E042200C0E9FF04C0EAFFA3
:100FF000EFCF00F0070E0214046E010E056E0450D0
:1010000005E0E86CD8900536010FFDE305500012AD
:1010100001C0E9FF03C0EAFF00C0EFFF380E006E19
:101020000F0E016E02380F0B036E046A0350002688
:1010300004500122380E056E0F0E066E0550032671
:101040000650042203C0E9FF04C0EAFFEFCF03F01B
:10105000070E0216010E046E025005E0E86CD890EF
:101060000436010FFDE30450031200C0E9FF01C084
:10107000EAFF03C0EFFF0F01458300000000459326
:101080000F0144930BC0E5FFF2CF0BF0F29E4481B9
:101090000000000000000000000000000000000050
:1010A0000000000000000000000000000000000040
:1010B000000000000000000044910BBEF28EE4CF5F
:1010C0000BF0C282010E0A012E6F0A012D51E4CFEE
:1010D0000AF0E4CF09F0E4CF08F0E4CF07F0E4CF62
:1010E00006F0E4CF05F0E4CF04F0E4CF03F0E4CF62
:1010F00002F0E4CF01F0E4CF00F0120000C0E5FF01
:1011000001C0E5FF02C0E5FF03C0E5FF04C0E5FF45
:1011100022EC25F0949292948B928994B2EC20F078
:10112000F3CF01F0F4CF02F0E9CF03F0880F0F0105
:10113000336F130E0120346F000E0220356F000E46
:101140000320366F87EC14F09280800E006E0F0E35
:10115000016E0F0E036E380E002603500122800E22
:10116000026E0F0E036E800E005E0350015A0F0ECA
:10117000046E380E0226045003220F0E046E800EF9
:10118000025E0450035A02C0E9FF03C0EAFFEFCF3A
:1011900002F0028000C0E9FF01C0EAFF02C0EFFFD9
:1011A000000EE56AE56AA5EC18F0E652E65242EC5C
:1011B0001CF0F19E9384810E006E0F0E016E0F0ED7
:1011C000036E380E0026035001220F0E036E800EB0
:1011D000005E0350015A810E026E0F0E036E0F0E59
:1011E000046E380E0226045003220F0E046E800E89
:1011F000025E0450035A02C0E9FF03C0EAFFEFCFCA
:1012000002F0029400C0E9FF01C0EAFF02C0EFFF54
:10121000020EE56E800EE56E0F0EE56E810EE56E38
:10122000000EE56ACFEC1CF0050EE1269386810ED8
:10123000006E0F0E016E0F0E036E380E0026035067
:1012400001220F0E036E800E005E0350015A810EC4
:10125000026E0F0E036E0F0E046E380E022604503F
:1012600003220F0E046E800E025E0450035A02C069
:10127000E9FF03C0EAFFEFCF02F0029600C0E9FFEA
:1012800001C0EAFF02C0EFFF030EE56E800EE56EBF
:101290000F0EE56E810EE56E010EE56ECFEC1CF0D3
:1012A000050EE126938C810E006E0F0E016E0F0E5F
:1012B000036E380E0026035001220F0E036E800EBF
:1012C000005E0350015A810E026E0F0E036E0F0E68
:1012D000046E380E0226045003220F0E046E800E98
:1012E000025E0450035A02C0E9FF03C0EAFFEFCFD9
:1012F00002F0029C00C0E9FF01C0EAFF02C0EFFF5C
:10130000060EE56E800EE56E0F0EE56E810EE56E43
:10131000020EE56ECFEC1CF0050EE126938E810ED9
:10132000006E0F0E016E0F0E036E380E0026035076
:1013300001220F0E036E800E005E0350015A810ED3
:10134000026E0F0E036E0F0E046E380E022604504E
:1013500003220F0E046E800E025E0450035A02C078
:10136000E9FF03C0EAFFEFCF02F0029E00C0E9FFF1
:1013700001C0EAFF02C0EFFF070EE56E800EE56ECA
:101380000F0EE56E810EE56E030EE56ECFEC1CF0E0
:10139000050EE1269380810E006E0F0E016E0F0E7A
:1013A000036E380E0026035001220F0E036E800ECE
:1013B000005E0350015A810E026E0F0E036E0F0E77
:1013C000046E380E0226045003220F0E046E800EA7
:1013D000025E0450035A02C0E9FF03C0EAFFEFCFE8
:1013E00002F0029000C0E9FF01C0EAFF02C0EFFF77
:1013F000E56A800EE56E0F0EE56E810EE56E040E59
:10140000E56ECFEC1CF0050EE1269382810E006E96
:101410000F0E016E0F0E036E380E002603500122D0
:101420000F0E036E800E005E0350015A810E026E95
:101430000F0E036E0F0E046E380E022604500322A8
:101440000F0E046E800E025E0450035A02C0E9FFC4
:1014500003C0EAFFEFCF02F0029200C0E9FF01C033
:10146000EAFF02C0EFFF010EE56E800EE56E0F0E83
:10147000E56E810EE56E050EE56ECFEC1CF0050EF7
:10148000E126270EE56EE56A080EE56EB0EC10F079
:10149000030EE126E56AE568200EE56E800EE56E36
:1014A000040EE56E330EE56E03EC16F0060EE12633
:1014B000E4CF04F0E4CF03F0E4CF02F0E4CF01F096
:1014C000E4CF00F01200800EE56E040EE56EB30E60
:1014D000E56EC7EC1AF0030EE126800EE56E040EF1
:1014E000E56E930EE56EC7EC1AF0030EE126800E52
:1014F000E56E040EE56EB50EE56EC7EC1AF0030E50
:10150000E126800EE56E040EE56E950EE56EC7ECE5
:101510001AF0030EE126800EE56E040EE56EB70E9E
:10152000E56EC7EC1AF0030EE126800EE56E040EA0
:10153000E56E970EE56EC7EC1AF0030EE126800EFD
:10154000E56E040EE56EB90EE56EC7EC1AF0030EFB
:10155000E126800EE56E040EE56E990EE56EC7EC91
:101560001AF0030EE126800EE56E040EE56EBB0E4A
:10157000E56EC7EC1AF0030EE126800EE56E040E50
:10158000E56E9B0EE56EC7EC1AF0030EE126800EA9
:10159000E56E040EE56EBD0EE56EC7EC1AF0030EA7
:1015A000E126800EE56E040EE56E9D0EE56EC7EC3D
:1015B0001AF0030EE126800EE56E040EE56EBF0EF6
:1015C000E56EC7EC1AF0030EE126800EE56E040E00
:1015D000E56E9F0EE56EC7EC1AF0030EE126800E55
:1015E000E56E040EE56EC10EE56EC7EC1AF0030E53
:1015F000E126800EE56E040EE56EA10EE56EC7ECE9
:101600001AF0030EE126800EE56E040EE56EC30EA1
:10161000E56EC7EC1AF0030EE126800EE56E040EAF
:10162000E56EA30EE56EC7EC1AF0030EE126800E00
:10163000E56E040EE56EC50EE56EC7EC1AF0030EFE
:10164000E126800EE56E040EE56EA50EE56EC7EC94
:101650001AF0030EE126800EE56E040EE56EC70E4D
:10166000E56EC7EC1AF0030EE126800EE56E040E5F
:10167000E56EA70EE56EC7EC1AF0030EE126800EAC
:10168000E56E040EE56EC90EE56EC7EC1AF0030EAA
:10169000E126800EE56E040EE56EA90EE56EC7EC40
:1016A0001AF0030EE126800EE56E040EE56ECB0EF9
:1016B000E56EC7EC1AF0030EE126800EE56E040E0F
:1016C000E56EAB0EE56EC7EC1AF0030EE126800E58
:1016D000E56E040EE56ECD0EE56EC7EC1AF0030E56
:1016E000E126800EE56E040EE56EAD0EE56EC7ECEC
:1016F0001AF0030EE126800EE56E040EE56ECF0EA5
:10170000E56EC7EC1AF0030EE126800EE56E040EBE
:10171000E56EAF0EE56EC7EC1AF0030EE126800E03
:10172000E56E040EE56ED10EE56EC7EC1AF0030E01
:10173000E126800EE56E040EE56EB10EE56EC7EC97
:101740001AF0030EE1261200D9CFE5FFE1CFD9FF51
:1017500000C0E5FF01C0E5FF02C0E5FF03C0E5FFF3
:1017600004C0E5FF05C0E5FF06C0E5FF07C0E5FFD3
:10177000020EDBCF00F0030EDBCF01F0040EDBCF57
:1017800002F0050EDBCF03F0060EDBCF04F0070EF0
:10179000DBCF05F0080EDBCF06F0090EDBCF07F03C
:1017A00000500401856F0150866F0250876F03500F
:1017B000886F045004018A6F05508B6F06508C6F40
:1017C00007508D6F0401855104018C03F4CF01F0A3
:1017D000F3CF00F000500401906F0150916F0401AD
:1017E000855104018A03F4CF01F0F3CF00F00050DB
:1017F00004018E6F01508F6F0401885104018A0328
:10180000F3CF00F00401915100260050916F0401C4
:10181000875104018B03F3CF01F0015000260050E3
:101820000401916F0401875104018A03F4CF01F090
:10183000F3CF00F004019051002691510122005095
:10184000906F0150916F0401865104018B03F4CF16
:1018500003F0F3CF02F002500026035001220050A3
:101860000401906F0150916F0401865104018C03B3
:10187000F3CF00F000500A01616F040186510401AA
:101880008A03F4CF01F0F3CF00F000500A015F6F3C
:101890000150606F0401855104018D03F3CF00F006
:1018A00000500A01656F0401855104018B03F4CFD8
:1018B00001F0F3CF00F000500A01636F0150646F34
:1018C0000A015E6B0A01626B0A015E5104018E25FA
:1018D000006E0A015F5104018F21016E0A016051FF
:1018E00004019021026E0A01615104019121036EED
:1018F00000508E6F01508F6F0250906F0350916FA8
:101900000A01625104018E25006E0A01635104012F
:101910008F21016E0A01645104019021026E0A01B7
:10192000655104019121036E03C0E9FF02C0F4FF79
:1019300001C0F3FF0050E4CF07F0E4CF06F0E4CF9E
:1019400005F0E4CF04F0E4CF03F0E4CF02F0E4CFFD
:1019500001F0E4CF00F0E4CFD9FF120000C0E5FFB2
:1019600001C0E5FF0A012651D8B4F5D09DA81DD0CD
:101970009EA81BD00A0182510A017F1905E183EC60
:1019800024F00A017F6BE7D0000E0A018225006E69
:10199000016A040E012200C0E9FF01C0EAFFEFCF97
:1019A0007BFA822B7BCAADFFD6D09EAAD4D0ABA245
:1019B00005D00A01808183EC24F0CDD0ABA405D002
:1019C0000A01808383EC24F0C6D0ABA03ED0AECF1A
:1019D0007BFA800E0A0127110A017B1904E10A0132
:1019E0008089AB96B8D00A017B5104E07B510A0193
:1019F000271927E10A018099AB960A017B5103E080
:101A00000A01809702D00A0180877BCA84FA7DCAC6
:101A100085FA0A017D050A01866F600E0A01852597
:101A2000006E016A000E012200C0E9FF01C0EAFF5A
:101A30007BCAEFFF852B8551800A02E10A01856B85
:101A40008AD00A018099AB8686D0AECF7BFA0A0194
:101A500080A919D0800E0A0127110A017B1911E112
:101A60008B909D9AAB980A017F5104E1AD6A83EC9B
:101A700024F007D000C4ADFF010E0A01826F9D88DB
:101A80006AD0AB8668D00A017B510A0184270A011B
:101A900085510A0186191BE10A0184510CE185CAAE
:101AA0007DFA0A0180B712D08B909D9AAB98AD6AEF
:101AB00083EC24F00BD00A01808580B707D08B908F
:101AC0009D9AAB98010EAD6E83EC24F044D00A01D0
:101AD00085510A017E1908E10A017E510A017D192A
:101AE00003E083EC24F037D07DCA00F0016A004A9D
:101AF000012AE56A800EE56E0150E56E0050E56E44
:101B000064EC17F0006E040EE12600500A017C6FB1
:101B10000A0185190CE11F0E0A017B150A01866F67
:101B2000862B862B0A017D510A018627869F85CA4E
:101B300000F00A01852B016A600E0026000E0122CA
:101B400000C0E9FF01C0EAFF7BCAEFFF8551800AB0
:101B500002E10A01856BE4CF01F0E4CF00F012004E
:101B600000C0E5FF01C0E5FF02C0E5FF03C0E5FFDF
:101B700004C0E5FF05C0E5FF06C0E5FF07C0E5FFBF
:101B800008C0E5FF09C0E5FF0AC0E5FF006A016A79
:101B9000040E015CD8B0B3D03F0E0A013D25026EA1
:101BA000036A0A0E032202C0E9FF03C0EAFFEFCF77
:101BB00002F00250FF0A01E19BD00A013D39E844DE
:101BC0001F0B026E720E0224036E046A0A0E0422B8
:101BD00003C0E9FF04C0EAFFEFCF03F0070E3D1595
:101BE000046E010E056E000E066E045006E0E86CF1
:101BF000D89005360636010FFCE3076A0550031638
:101C00000650071603500710D880E866D890036A7C
:101C100003360350D880E866D890036A0336076A13
:101C2000700E02260A0E072202C0E9FF07C0EAFF73
:101C3000EFCF08F008C009F00A6A095005160A50EB
:101C4000061605500610D880E866D890056A053655
:101C50000550D880E866D890056A05360350051807
:101C600001E146D0035012E0010E056E045005E07C
:101C7000E86CD8900536010FFDE30550081202C04C
:101C8000E9FF07C0EAFF08C0EFFF17D002C0E9FF75
:101C900007C0EAFFEFCF05F0010E066E045005E025
:101CA000E86CD8900636010FFDE3061C051602C04D
:101CB000E9FF07C0EAFF05C0EFFF035003E1036A35
:101CC000032A01D0036A3DCA04F0E56A0350E56EB9
:101CD000E56A0450E56E000EE56E390EE56E060EFF
:101CE000E56E95EC1DF0070EE126012A01C000F01B
:101CF0000A013D2B100E3D5DD8A04AD73D6B005028
:101D0000E4CF0AF0E4CF09F0E4CF08F0E4CF07F025
:101D1000E4CF06F0E4CF05F0E4CF04F0E4CF03F025
:101D2000E4CF02F0E4CF01F0E4CF00F01200D9CF0D
:101D3000E5FFE1CFD9FF00C0E5FF01C0E5FF02C02C
:101D4000E5FF03C0E5FF04C0E5FF05C0E5FF06C0F1
:101D5000E5FF07C0E5FF08C0E5FF09C0E5FF0AC0D1
:101D6000E5FF0BC0E5FF0CC0E5FF0DC0E5FF0EC0B1
:101D7000E5FF0FC0E5FF020EDBCF00F0030EDBCF67
:101D800001F0040EDBCF02F0050EDBCF03F0060EF0
:101D9000DBCF04F0070EDBCF05F0080EDBCF06F03B
:101DA000200E076E086A06C009F00A6A0B6A0C6A00
:101DB000E56AE56AE56A0950E56E0350E56E025092
:101DC000E56E0150E56E0050E56E13EC10F00D6EFF
:101DD000080EE126300E0D263A0E0D5C05E30D507F
:101DE0000E6E270E0E240D6EFF0E07260822000E23
:101DF00007240E6E0A0E08200F6E0EC0E9FF0FC0FA
:101E0000EAFF0DC0EFFF0C50E56E0B50E56E0A5077
:101E1000E56E0950E56E0350E56E0250E56E015027
:101E2000E56E0050E56E41EC11F0006EF3CF01F06D
:101E3000F4CF02F0E9CF03F0080EE12600500110C4
:101E400002100310D8A4AFD707C000F008C001F0FB
:101E500004C002F005C003F000C004F001C005F0AA
:101E6000004A012A000E04260A0E052204C0E9FFDA
:101E700005C0EAFFEFCF04F002C0E9FF03C0EAFFAC
:101E800004C0EFFF024A032A000E015C02E1200EAB
:101E9000005CE2E302C0E9FF03C0EAFF000EEF6A64
:101EA000E4CF0FF0E4CF0EF0E4CF0DF0E4CF0CF070
:101EB000E4CF0BF0E4CF0AF0E4CF09F0E4CF08F070
:101EC000E4CF07F0E4CF06F0E4CF05F0E4CF04F070
:101ED000E4CF03F0E4CF02F0E4CF01F0E4CF00F070
:101EE000E4CFD9FF120000C0E5FF01C0E5FF02C04A
:101EF000E5FF03C0E5FF04C0E5FF05C0E5FF006A9C
:101F00003F0E0024016E026A0A0E022201C0E9FFA0
:101F100002C0EAFFEFCF01F00150FF0A01E171D0EA
:101F200001380F0B026E036A800E02260F0E032289
:101F300002C0E9FF03C0EAFFEFCF02F0070E01166F
:101F4000010E036E000E046E015006E0E86CD8909E
:101F500003360436010FFCE3056A025003160550F0
:101F6000041603500410D880E866D890036A03363C
:101F7000035024E10038E8441F0B016E026A720E20
:101F800001260A0E022201C0E9FF02C0EAFFEFCFDC
:101F900003F0070E0014046E010E056E045005E0F8
:101FA000E86CD8900536010FFDE30550031201C01F
:101FB000E9FF02C0EAFF03C0EFFF23D00038E84486
:101FC0001F0B016E026A720E01260A0E022201C068
:101FD000E9FF02C0EAFFEFCF03F0070E0014046E22
:101FE000010E056E045005E0E86CD8900536010F2F
:101FF000FDE3051C031601C0E9FF02C0EAFF03C0B0
:10200000EFFF002A100E005CD8A07AD7E4CF05F0CD
:10201000E4CF04F0E4CF03F0E4CF02F0E4CF01F02A
:10202000E4CF00F01200D9CFE5FFE1CFD9FF00C027
:10203000E5FF01C0E5FF02C0E5FF03C0E5FF04C006
:10204000E5FF05C0E5FF06C0E5FF07C0E5FF08C0E6
:10205000E5FF09C0E5FF0AC0E5FF020EDBCF00F097
:10206000030EDBCF01F0040EDBCF02F0050EDBCF59
:1020700003F0060EDBCF04F0070EDBCF05F0080EF1
:10208000DBCF06F0090EDBCF07F0086A045005101D
:102090000610071005E1E968F468F368E86847D0BE
:1020A000096A0750800BE8440A6E0A501BE104508D
:1020B00004260536063607360750035C08E106504D
:1020C000025C05E10550015C02E10450005C06E29F
:1020D000D890073206320532043204D0092A09C0EA
:1020E00008F0DFD70750035C08E10650025C05E109
:1020F0000550015C02E10450005C08E30450005EFE
:102100000550015A0650025A0750035AD890073218
:1021100006320532043208C009F008060950E2E12F
:1021200003C0E9FF02C0F4FF01C0F3FF0050E4CF99
:102130000AF0E4CF09F0E4CF08F0E4CF07F0E4CFF1
:1021400006F0E4CF05F0E4CF04F0E4CF03F0E4CFF1
:1021500002F0E4CF01F0E4CF00F0E4CFD9FF1200A9
:10216000D9CFE5FFE1CFD9FF00C0E5FF01C0E5FF12
:1021700002C0E5FF03C0E5FF04C0E5FF05C0E5FFC1
:10218000020EDBCF00F0030EDBCF01F0040EDBCF3D
:1021900002F03F0EC716C66AC56A0050C61201504B
:1021A000C7129488820E006E0F0E016E0F0E046E21
:1021B000380E0026045001220F0E046E800E005EC1
:1021C0000450015A820E036E0F0E046E0F0E056E40
:1021D000380E0326055004220F0E056E800E035E96
:1021E0000550045A03C0E9FF04C0EAFFEFCF03F033
:1021F000039800C0E9FF01C0EAFF03C0EFFF948627
:10220000820E006E0F0E016E0F0E046E380E002649
:10221000045001220F0E046E800E005E0450015A1D
:10222000820E036E0F0E046E0F0E056E380E03261F
:10223000055004220F0E056E800E035E0550045AF1
:1022400003C0E9FF04C0EAFFEFCF03F0039600C02C
:10225000E9FF01C0EAFF03C0EFFF02C0C8FFC68A62
:102260009E96A196E4CF05F0E4CF04F0E4CF03F00E
:10227000E4CF02F0E4CF01F0E4CF00F0E4CFD9FFE7
:102280001200D9CFE5FFE1CFD9FF00C0E5FF01C0C3
:10229000E5FF02C0E5FF03C0E5FF04C0E5FF05C0A0
:1022A000E5FF06C0E5FF07C0E5FF08C0E5FF09C080
:1022B000E5FF0AC0E5FF0BC0E5FF0CC0E5FF0DC060
:1022C000E5FF020EDBCF00F0030EDBCF01F0040EC2
:1022D000DBCF02F0050EDBCF03F0060EDBCF04F000
:1022E000070EDBCF05F0080EDBCF06F0090EDBCFC3
:1022F00007F0086A096A0A6A0B6A200E0C6E03501E
:10230000800BE8440D6E005000260136023603367D
:102310000850082609360A360B360D50D8A4088016
:1023200007500B5C08E106500A5C05E10550095CAA
:1023300002E10450085C09E30450085E0550095AA4
:1023400006500A5A07500B5A00800C040D6E0DC03F
:102350000CF00D50D4E103C0E9FF02C0F4FF01C04E
:10236000F3FF0050E4CF0DF0E4CF0CF0E4CF0BF01E
:10237000E4CF0AF0E4CF09F0E4CF08F0E4CF07F0AF
:10238000E4CF06F0E4CF05F0E4CF04F0E4CF03F0AF
:10239000E4CF02F0E4CF01F0E4CF00F0E4CFD9FFC6
:1023A000120000C0E5FF01C0E5FF03C0E5FF04C067
:1023B000E5FF05C0E5FF06C0E5FF07C0E5FF08C073
:1023C000E5FF09C0E5FF0AC0E5FF0BC0E5FF6CCAE9
:1023D00000F06DCA01F00A016C3F01D06D2B005076
:1023E000E56E75EC24F0E652076E046A056A066A2B
:1023F0006CCA00F06DCA01F00A016C3F01D06D2B70
:102400000050E56E75EC24F0E6520B6A0A6E086A1D
:102410000850041205120A5006120B5007126CCA1B
:1024200000F06DCA01F00A016C3F01D06D2B005025
:10243000E56E75EC24F0E652036E006A03C001F00D
:10244000E86A03BEFF0E086E096E005004120150C8
:10245000051208500612095007126CCA00F06DCA26
:1024600001F00A016C3F01D06D2B0050E56E75EC58
:1024700024F0E652016A04120150051206120712F6
:1024800007C0E9FF06C0F4FF05C0F3FF0450E4CF26
:102490000BF0E4CF0AF0E4CF09F0E4CF08F0E4CF8A
:1024A00007F0E4CF06F0E4CF05F0E4CF04F0E4CF8A
:1024B00003F0E4CF01F0E4CF00F0120000C0E5FF2C
:1024C00001C0E5FF02C0E5FF03C0E5FF04C0E5FF72
:1024D0000A017E510A017D1901E15FD07ECA00F038
:1024E000002A009E600E0024016E026A000E022285
:1024F00001C0E9FF02C0EAFFEFCF88FA1F0E0A0110
:1025000088177ECA87FA88510A018727872B872B6D
:10251000879FDCEC20F0016E015003E1016A012A83
:1025200001D0016ADCEC20F00A01886F800E88156A
:10253000026E1F0E8815036E03C004F003C088FAF4
:10254000045003E17DCA7EFA3BD001501BE00250EB
:1025500022E0DCEC20F0006E0A0188070050420AFD
:102560001AE000504E0A03E113EC1DF014D00050A5
:10257000460A03E1C4EC24F00ED00050490A0BE1F6
:10258000FF0009D07ECA89FA025003E089EC1CF0F2
:1025900002D09FEC24F087CA7EFA0A0123510A0177
:1025A000241906E00A017F5103E175EC13F008D00D
:1025B0008BB006D00A017F5103E1ACB283EC24F06A
:1025C000E4CF04F0E4CF03F0E4CF02F0E4CF01F075
:1025D000E4CF00F01200D9CFE5FFE1CFD9FF00C072
:1025E000E5FF01C0E5FF02C0E5FF03C0E5FF04C051
:1025F000E5FF05C0E5FF06C0E5FF07C0E5FF08C031
:10260000E5FF09C0E5FF0AC0E5FF020EDBCF00F0E1
:10261000030EDBCF01F0040EDBCF02F0050EDBCFA3
:1026200003F0060EDBCF04F0070EDBCF05F0003819
:10263000E8441F0B066E076A6E0E06260A0E072276
:1026400006C0E9FF07C0EAFFEFCF08F0070E00144D
:10265000096E010E0A6E095005E0E86CD8900A3642
:10266000010FFDE30A50081206C0E9FF07C0EAFFA8
:1026700008C0EFFF230E0024066E076A0F0E072224
:1026800006C0E9FF07C0EAFF01C0EFFF016A230EA1
:102690000026040E0122800E025E070E021602388A
:1026A000F00B036E070E05160550032600C0E9FF68
:1026B00001C0EAFF03C0EFFFE4CF0AF0E4CF09F066
:1026C000E4CF08F0E4CF07F0E4CF06F0E4CF05F064
:1026D000E4CF04F0E4CF03F0E4CF02F0E4CF01F064
:1026E000E4CF00F0E4CFD9FF120000C0E5FF01C045
:1026F000E5FF02C0E5FF03C0E5FFACA276D081ECA8
:1027000022F0006E005005E10A01246B0A01236BE0
:102710006CD024CA01F00050012681EC22F0026E38
:1027200000060250230A1FE1010E005CD8A05BD016
:1027300081EC22F0026E690A03E101EC20F053D033
:102740000250720A03E183EC24F04DD00250730A68
:1027500001E049D08B80AB869D8A9D98AE50AE50EB
:10276000AB98AB8840D00250430A05E00250420AC1
:1027700001E039D001D0008E00C081FA0050040180
:10278000006F010E0A01826F0A012451011814E042
:1027900081EC22F0026E0A018127000E0A018225D7
:1027A000006E036A040E032200C0E9FF03C0EAFFC3
:1027B00002C0EFFF822BE8D7000E0A018225006ECF
:1027C000026A040E02220A01811D036E032A00C060
:1027D000E9FF02C0EAFF03C0EFFF0A01822B82CAB1
:1027E0007FFA0A01796B01C024FAE4CF03F0E4CF49
:1027F00002F0E4CF01F0E4CF00F01200D9CFE5FF02
:10280000E1CFD9FF00C0E5FF01C0E5FF02C0E5FF51
:1028100003C0E5FF04C0E5FF05C0E5FF06C0E5FF16
:1028200007C0E5FF020EDBCF00F0030EDBCF01F0A7
:10283000040EDBCF02F0050EDBCF03F002C006F082
:102840000650046E800A33E100C0E9FF01C0F3FFC7
:102850000250F8EC22F0056EF3CF06F0F4CF07F04B
:1028600003C0E5FF05C0E9FF06C0F3FF0750DAEC3F
:1028700024F000C0E9FF01C0F3FF0250F8EC22F0A1
:10288000056EF3CF06F0F4CF07F0052A02E3064AFF
:10289000072A05C0E5FF06C0F4FF07C0F6FF00C029
:1028A000E9FF01C0F3FF025066EC24F01DD004AA3A
:1028B0001BD0047A045004E1035027EC25F014D017
:1028C0000450010A04E103503AEC25F00DD0045005
:1028D0000F0A04E103509FEC1FF006D004500E0ACB
:1028E00003E1035037EC25F0E4CF07F0E4CF06F026
:1028F000E4CF05F0E4CF04F0E4CF03F0E4CF02F03E
:10290000E4CF01F0E4CF00F0E4CFD9FF120000C023
:10291000E5FF01C0E5FF02C0E5FF03C0E5FF04C01D
:10292000E5FF006A6E0E0024016E026A0A0E0222A2
:1029300001C0E9FF02C0EAFFEF6A002A020E005C54
:10294000F1E3006A0050020DF450026EF3CF01F083
:10295000E00E0124036E000E0220046E03C0E9FFA6
:1029600004C0EAFFEE6AEF6A390E0124036E040E1A
:102970000220046E03C0E9FF04C0EAFFEE6AEF6ABA
:10298000590E0124036E040E0220046E03C0E9FFF9
:1029900004C0EAFFEE6AEF6A930E0124036E040E90
:1029A0000220046E03C0E9FF04C0EAFFEE6AEF6A8A
:1029B000B30E0126040E022201C0E9FF02C0EAFFA5
:1029C000EE687F0EEF6E230E0024016E026A040E85
:1029D000022201C0E9FF02C0EAFFEF68002A100EE0
:1029E000005CD8A0AFD7AF0EC06EC16A010EC26E38
:1029F000C282E4CF04F0E4CF03F0E4CF02F0E4CFEE
:102A000001F0E4CF00F0120043204120256420258E
:102A1000640A0000D9CFE5FFE1CFD9FF00C0E5FF90
:102A200001C0E5FF02C0E5FF03C0E5FF04C0E5FF0C
:102A300005C0E5FF06C0E5FF020EDBCF00F0030E88
:102A4000DBCF01F0040EDBCF02F0050EDBCF03F08D
:102A500000C0E9FF01C0F3FF025034EC24F0046E23
:102A6000E56AE56ED0EC1FF0E652E652010E031463
:102A7000056E066A055001E1062A0650E56E45EC32
:102A800023F0E652A4EC21F0010EE56E0450E56E51
:102A9000D0EC1FF0E652E652055016E00050010F50
:102AA000046E000E0120056E000E0220066E5DEC25
:102AB00020F0E56E04C0E9FF05C0F3FF0650DAEC34
:102AC00024F003B206EC21F003A20FD0020E002680
:102AD000000E012202225DEC20F0E56E00C0E9FF4D
:102AE00001C0F3FF0250DAEC24F0A4EC21F0E4CFB3
:102AF00006F0E4CF05F0E4CF04F0E4CF03F0E4CF38
:102B000002F0E4CF01F0E4CF00F0E4CFD9FF1200EF
:102B1000D9CFE5FFE1CFD9FF00C0E5FF01C0E5FF58
:102B200002C0E5FF03C0E5FF04C0E5FF05C0E5FF07
:102B300006C0E5FF07C0E5FF020EDBCF00F0030E85
:102B4000DBCF01F0040EDBCF02F0050EDBCF03F08C
:102B500024CA25FA0A0123510A01255F250703C06B
:102B600004F0056A030E0426D8B0052A25CA06F02B
:102B7000076A0750800FF36E0550800FF35C02E187
:102B80000450065C02E2E8682BD0020E035C02E20D
:102B9000E86A26D003060350E56E51EC1EF0E652BB
:102BA000046A0350045C14E204500024056EE86AD1
:102BB0000120066EE86A022005C0E9FF06C0F3FFA7
:102BC00034EC24F0042AE56E51EC1EF0E652E9D70D
:102BD00024CA25FA0A0123510A01255F2507E86A5C
:102BE000E4CF07F0E4CF06F0E4CF05F0E4CF04F043
:102BF000E4CF03F0E4CF02F0E4CF01F0E4CF00F043
:102C0000E4CFD9FF1200D9CFE5FFE1CFD9FF00C053
:102C1000E5FF01C0E5FF02C0E5FF03C0E5FF04C01A
:102C2000E5FF05C0E5FF020EDBCF00F0030EDBCFB2
:102C300001F0040EDBCF02F0050EDBCF03F0060E31
:102C4000DBCF04F0070EDBCF05F0035009E003C033
:102C5000E5FF00C0E9FF01C0F3FF0250DAEC24F009
:102C6000E56A0350E56ED0EC1FF0E652E652060E20
:102C7000E56E45EC23F0E6520450E56E45EC23F09A
:102C8000E6520550E56E45EC23F0E652A4EC21F047
:102C90000050030F036E000E0120046E000E022090
:102CA000056E040E0026000E01220222E56800C017
:102CB000E9FF01C0F3FF0250DAEC24F000C0E9FFA5
:102CC00001C0F3FF025034EC24F0FF0BE56E03C0AB
:102CD000E9FF04C0F3FF0550DAEC24F0E4CF05F07F
:102CE000E4CF04F0E4CF03F0E4CF02F0E4CF01F04E
:102CF000E4CF00F0E4CFD9FF1200D9CFE5FFE1CF58
:102D0000D9FF00C0E5FF01C0E5FF02C0E5FF03C039
:102D1000E5FF04C0E5FF05C0E5FF020EDBCF00F0D4
:102D2000030EDBCF01F0040EDBCF02F00050020DEA
:102D3000F450036EF3CF00F0390E0024046E040E3D
:102D40000320056E04C0E9FF05C0EAFF01C0EEFFE5
:102D500002C0EFFF590E0024046E040E0320056E1E
:102D600004C0E9FF05C0EAFFEECF04F0EFCF05F0A5
:102D70000150045C016E02500558026ED30E00260D
:102D8000040E032200C0E9FF03C0EAFF01C0EEFF0A
:102D900002C0EFFFD88002AED89004E3021E016C9F
:102DA000D8B4022A0250800F800F02E1030E015CAA
:102DB00002E2016A026A0150021007E100C0E9FF65
:102DC00003C0EAFF000EEE6AEF6AE4CF05F0E4CF3D
:102DD00004F0E4CF03F0E4CF02F0E4CF01F0E4CF5D
:102DE00000F0E4CFD9FF1200D9CFE5FFE1CFD9FF42
:102DF00000C0E5FF01C0E5FF02C0E5FF03C0E5FF3D
:102E000004C0E5FF05C0E5FF020EDBCF00F0030EB6
:102E1000DBCF01F0040EDBCF02F0050EDBCF03F0B9
:102E200000C0E9FF01C0F3FF025034EC24F0E56A72
:102E3000E56ED0EC1FF0E652E652010E0314046E6C
:102E4000056A045001E1052A052A052A0550E56EA8
:102E500045EC23F0E652045013E00050030F046EDB
:102E6000000E0120056E000E022004C0E9FF05C01F
:102E7000F3FF34EC24F0FF0BE56E45EC23F0E65253
:102E800003A211D0040E0026000E0122022200C06F
:102E9000E9FF01C0F3FF025034EC24F0FF0BE56EB4
:102EA00045EC23F0E652A4EC21F0E4CF05F0E4CFAA
:102EB00004F0E4CF03F0E4CF02F0E4CF01F0E4CF7C
:102EC00000F0E4CFD9FF1200D9CFE5FFE1CFD9FF61
:102ED00000C0E5FF01C0E5FF02C0E5FF03C0E5FF5C
:102EE00004C0E5FF05C0E5FF06C0E5FF020EDBCF2D
:102EF00000F0030EDBCF01F0040EDBCF02F0050E75
:102F0000DBCF03F0D88001AED890046A04360450B9
:102F100007E0011C066E001C056E054A062A04D057
:102F200000C005F001C006F0D88003AED89007E3DA
:102F3000031C016E021C006E004A012A04D002C06C
:102F400000F003C001F00150E56E0050E56E065040
:102F5000E56E0550E56E6BEC19F0006EF3CF01F0F5
:102F6000040EE12604500AE0011C036E001C026EF0
:102F7000024A032A03C0F3FF025003D001C0F3FF4B
:102F80000050E4CF06F0E4CF05F0E4CF04F0E4CF46
:102F900003F0E4CF02F0E4CF01F0E4CF00F0E4CF9F
:102FA000D9FF1200D9CFE5FFE1CFD9FF00C0E5FF7F
:102FB00001C0E5FF02C0E5FF03C0E5FF04C0E5FF77
:102FC00005C0E5FF020EDBCF00F0030EDBCF01F002
:102FD000040EDBCF02F0050EDBCF03F06CCA04F069
:102FE0006DCA05F00A016C3F01D06D2B0350E56EF0
:102FF0000450E56E3DEC22F0E652E6526CCA04F055
:103000006DCA05F00A016C3F01D06D2B0250056EB0
:10301000E56E0450E56E3DEC22F0E652E6526CCAD5
:1030200004F06DCA05F00A016C3F01D06D2B015010
:10303000056EE56E0450E56E3DEC22F0E652E65278
:103040006CCA04F06DCA05F00A016C3F01D06D2B0B
:103050000050E56E0450E56E3DEC22F0E652E6527B
:10306000E4CF05F0E4CF04F0E4CF03F0E4CF02F0C6
:10307000E4CF01F0E4CF00F0E4CFD9FF1200D9CFC4
:10308000E5FFE1CFD9FF00C0E5FF01C0E5FF02C0C9
:10309000E5FF03C0E5FF04C0E5FF05C0E5FF06C08E
:1030A000E5FF020EDBCF00F0030EDBCF01F0040ED4
:1030B000DBCF02F00A01785119E1D1EC11F0036E77
:1030C000F3CF04F0F4CF05F0E9CF06F003C0E5FF3D
:1030D00004C0F4FF05C0F6FF06C0F7FF00C0E9FF1B
:1030E00001C0F3FF025045EC24F01ED00A017851D4
:1030F000010A1AE100C0E9FF01C0F3FF025061ECD0
:1031000022F0006EF3CF01F0F4CF02F0E9CF03F02C
:103110000350E56E0250E56E0150E56E0050E56E1D
:10312000D2EC17F0040EE126E4CF06F0E4CF05F070
:10313000E4CF04F0E4CF03F0E4CF02F0E4CF01F0F9
:10314000E4CF00F0E4CFD9FF1200D9CFE5FFE1CF03
:10315000D9FF00C0E5FF01C0E5FF02C0E5FF03C0E5
:10316000E5FF04C0E5FF05C0E5FF06C0E5FF020E70
:10317000DBCF00F0030EDBCF01F00038E8441F0B7B
:10318000026E036A6E0E02260A0E032202C0E9FFD7
:1031900003C0EAFFEFCF04F0070E0014056E010E26
:1031A000066E055005E0E86CD8900636010FFDE389
:1031B0000650041202C0E9FF03C0EAFF04C0EFFF9B
:1031C000230E0024026E036A0F0E032202C0E9FFE1
:1031D00003C0EAFF01C0EFFF016A230E0026040EC0
:1031E000012200C0E9FF01C0EAFFFF0EEF68E4CF53
:1031F00006F0E4CF05F0E4CF04F0E4CF03F0E4CF31
:1032000002F0E4CF01F0E4CF00F0E4CFD9FF1200E8
:10321000D9CFE5FFE1CFD9FF00C0E5FF01C0E5FF51
:1032200002C0E5FF03C0E5FF04C0E5FF05C0E5FF00
:1032300006C0E5FF020EDBCF00F0030EDBCF01F08E
:10324000040EDBCF02F0050EDBCF03F0060EDBCF62
:1032500004F0070EDBCF05F0080EDBCF06F0D880B8
:1032600003AED89015E306500A0A12E104C0E9FF44
:1032700005C0EAFF2D0EEF6E044A052A031E021E4A
:10328000011E006C05E1012A03E1022AD8B4032AD9
:103290000650E56E0550E56E0450E56E0350E56E90
:1032A0000250E56E0150E56E0050E56E97EC0EF0B1
:1032B000070EE126E4CF06F0E4CF05F0E4CF04F0FA
:1032C000E4CF03F0E4CF02F0E4CF01F0E4CF00F06C
:1032D000E4CFD9FF1200D9CFE5FFE1CFD9FF00C07D
:1032E000E5FF01C0E5FF02C0E5FF03C0E5FF04C044
:1032F000E5FF05C0E5FF06C0E5FF020EDBCF00F0ED
:10330000030EDBCF01F0040EDBCF02F0050EDBCFA6
:1033100003F0046A056A0350800BE844066E065009
:1033200011E10250022603360350015C02E1025013
:10333000005C04E2D8900332023204D0052A05C0B2
:1033400004F0E9D70350015C02E10250005C04E3A1
:103350000250005E0350015AD8900332023204C07A
:1033600005F004060550EEE101C0F3FF0050E4CF84
:1033700006F0E4CF05F0E4CF04F0E4CF03F0E4CFAF
:1033800002F0E4CF01F0E4CF00F0E4CFD9FF120067
:1033900000C0E5FF01C0E5FF02C0E5FF03C0E5FF97
:1033A0005EEC12F054EC06F073EC0FF05EEC12F0F1
:1033B00088EC20F05EEC12F0B2EC20F0006EF3CF5F
:1033C00001F0F4CF02F0E9CF03F00F013351005EBA
:1033D0003451015A3551025A3651035A039E3F0E59
:1033E000035C08E1FF0E025C05E1FF0E015C02E1F7
:1033F000FF0E005C1DE2B2EC20F0F3CF01F0F4CF41
:1034000002F0E9CF03F0880F0F01336F130E012094
:10341000346F000E0220356F000E0320366FB0ECC3
:103420000DF0006E0050D8B40EEC04F06EEC1FF0FE
:10343000E4CF03F0E4CF02F0E4CF01F0E4CF00F0FA
:103440001200D9CFE5FFE1CFD9FF00C0E5FF01C0F1
:10345000E5FF02C0E5FF03C0E5FF020EDBCF00F091
:10346000030EDBCF01F0040EDBCF02F000C0E9FF5A
:1034700001C0F3FF025034EC24F0036E035029E046
:10348000C6A610D00350E56E45EC23F0036EE6525D
:10349000035002E0FD0E1ED031EC20F0C5AC14D07C
:1034A000FE0E18D09E9600C0E9FF01C0F3FF025047
:1034B00034EC24F0C96EC6889EA6FED7C7B404D0EB
:1034C000C7B002D0FE0E06D0002AD0E3014A022A7D
:1034D000CDD7E86AE4CF03F0E4CF02F0E4CF01F007
:1034E000E4CF00F0E4CFD9FF120000C0E5FF01C037
:1034F000E5FF02C0E5FF03C0E5FF7ECA00F0016AF8
:1035000089CA02F0036A0250005E0350015AE56A5C
:10351000800EE56E0150E56E0050E56E64EC17F02C
:10352000006E040EE126000689CA01F0430E9FECEE
:103530001FF0200E9FEC1FF0005020E0600E0124D1
:10354000026E036A000E032202C0E9FF03C0EAFF15
:10355000EFCF02F0E56A0250E56E000EE56E490E0F
:10356000E56E1E0EE56E95EC1DF0050EE126012AB6
:103570000150800A01E1016A0006DED7E4CF03F0C2
:10358000E4CF02F0E4CF01F0E4CF00F01200D9CF95
:10359000E5FFE1CFD9FF00C0E5FF01C0E5FF02C0B4
:1035A000E5FF03C0E5FF04C0E5FF020EDBCF00F03E
:1035B000030EDBCF01F0040EDBCF02F00A017851DD
:1035C00011E13AEC1FF0036EF3CF04F003C0E5FF06
:1035D00004C0F4FF00C0E9FF01C0F3FF0250ACECEF
:1035E00024F016D00A017851010A12E100C0E9FF67
:1035F00001C0F3FF0250CFEC23F0006EF3CF01F0D7
:103600000150E56E0050E56E14EC1EF0E652E652F5
:10361000E4CF04F0E4CF03F0E4CF02F0E4CF01F014
:10362000E4CF00F0E4CFD9FF1200D9CFE5FFE1CF1E
:10363000D9FF00C0E5FF01C0E5FF02C0E5FF03C000
:10364000E5FF04C0E5FF020EDBCF00F00038E844E0
:103650001F0B016E026A720E01260A0E022201C0C1
:10366000E9FF02C0EAFFEFCF01F0070E0016010EDE
:10367000026E000E036E005006E0E86CD890023631
:103680000336010FFCE3046A0150021604500316CE
:1036900002500310D880E866D890026A02360250C1
:1036A000D880E866D890026A02360250E4CF04F06F
:1036B000E4CF03F0E4CF02F0E4CF01F0E4CF00F078
:1036C000E4CFD9FF12001E0EF66E4A0EF76E000E02
:1036D000F86E0900F550056E0900F550066E04E11C
:1036E000056702D0B0EF1BF00900F550006E09002D
:1036F000F550016E0900F550026E09000900F55001
:10370000E96E0900F550EA6E090009000900F5505C
:10371000036E0900F550046E09000900F6CF07F0AA
:10372000F7CF08F0F8CF09F000C0F6FF01C0F7FFAF
:1037300002C0F8FF035002E1045007E00900F55011
:10374000EE6E0306F8E20406F9D707C0F6FF08C0DC
:10375000F7FF09C0F8FF050601E206066FEF1BF050
:103760001200D9CFE5FFE1CFD9FF00C0E5FF01C0CE
:10377000E5FF02C0E5FF03C0E5FF04C0E5FF05C0AB
:10378000E5FF020EDBCF00F00050010A22E1016AE2
:103790000150020DF450036EF3CF02F0930E022499
:1037A000046E040E0320056E04C0E9FF05C0EAFFA5
:1037B000EE687F0EEF6EB30E0226040E032202C0E7
:1037C000E9FF03C0EAFFEE6AEF6A012A100E015C0E
:1037D000DFE300C029FAE4CF05F0E4CF04F0E4CF42
:1037E00003F0E4CF02F0E4CF01F0E4CF00F0E4CF47
:1037F000D9FF1200D9CFE5FFE1CFD9FF00C0E5FF27
:1038000001C0E5FF02C0E5FF03C0E5FF04C0E5FF1E
:10381000020EDBCF00F0030EDBCF01F0040EDBCF96
:1038200002F0036A02C004F0020604501DE05DECE1
:1038300020F0046E00C0E9FF01C0EAFF04C0EFFF02
:10384000004A012A03C004F0C5A6ECD7A1A602D005
:10385000E8680BD0042A04C003F00250F5E006EC3F
:1038600021F0C5B8FED7F0D70350E4CF04F0E4CF81
:1038700003F0E4CF02F0E4CF01F0E4CF00F0E4CFB6
:10388000D9FF120000C0E5FF01C0E5FF02C0E5FF5F
:1038900003C0E5FF04C0E5FF006A700E0024016E5E
:1038A000026A0A0E0222720E0024036E046A0A0ED5
:1038B000042203C0E9FF04C0EAFF010EEF6E01C05D
:1038C000E9FF02C0EAFFEF6E002A020E005CE5E3AA
:1038D000006A3F0E0024016E026A0A0E022201C035
:1038E000E9FF02C0EAFFEF68002A100E005CF1E376
:1038F000E4CF04F0E4CF03F0E4CF02F0E4CF01F032
:10390000E4CF00F012004320732025642025640AD0
:10391000000000C0E5FF01C0E5FFDCEC20F0006E18
:103920004C0A11E1DCEC20F0016A300A01E1012AC5
:10393000015002E18B8201D08B92015002E18A8614
:1039400029D08A9627D00050450A24E1000EE56E62
:10395000410EE56E5E0EE56E95EC1DF0030EE12660
:1039600031EC25F0006E00C001F0000601500FE0C0
:10397000DCEC20F0E56AE56E000EE56E410EE56ECA
:10398000600EE56E95EC1DF0050EE126ECD70A0EF3
:103990009FEC1FF0E4CF01F0E4CF00F01200D9CF8C
:1039A000E5FFE1CFD9FF00C0E5FF01C0E5FF02C0A0
:1039B000E5FF03C0E5FF04C0E5FF05C0E5FF020E1B
:1039C000DBCF00F0030EDBCF01F0040EDBCF02F003
:1039D000050EDBCF03F0060EDBCF04F0056A3F0EC9
:1039E00000260A0E0522800E015E070E0116013820
:1039F000F00B026E070E04160450022600C0E9FF09
:103A000005C0EAFF02C0EFFFE4CF05F0E4CF04F009
:103A1000E4CF03F0E4CF02F0E4CF01F0E4CF00F014
:103A2000E4CFD9FF120000C0E5FF01C0E5FF02C0EE
:103A3000E5FFDCEC20F0006EDCEC20F0016E0050C5
:103A4000026ED00E0224006E0A0E005C05E30050E8
:103A5000026EF90E0224006E0150026ED00E022496
:103A6000016E0A0E015C05E30150026EF90E02249C
:103A7000016E080E005C12E2100E015CD8B00ED090
:103A80000038F00B0124006EC8EC1EF0016E0150EE
:103A900005E10050E56E2DEC23F0E652E4CF02F094
:103AA000E4CF01F0E4CF00F01200D9CFE5FFE1CF81
:103AB000D9FF00C0E5FF01C0E5FF02C0E5FF03C07C
:103AC000E5FF04C0E5FF020EDBCF00F00038E8445C
:103AD0001F0B016E026A6E0E01260A0E022201C041
:103AE000E9FF02C0EAFFEFCF03F0070E0016010E58
:103AF000046E005005E0E86CD8900436010FFDE339
:103B0000041C031601C0E9FF02C0EAFF03C0EFFF77
:103B1000E4CF04F0E4CF03F0E4CF02F0E4CF01F00F
:103B2000E4CF00F0E4CFD9FF1200D9CFE5FFE1CF19
:103B3000D9FF00C0E5FF01C0E5FF02C0E5FF020EAE
:103B4000D924006E000EDA20016E800E026E030E84
:103B50000026000E012202220250E56E0150E56EA1
:103B60000050E56E040EDBCFE5FF030EDBCFE5FF73
:103B7000020EDBCFE5FF04017F51E56E7E51E56E5D
:103B80007D51E56E0EEC00F0006EF3CF01F0090EF2
:103B9000E12601C0F3FF0050E4CF02F0E4CF01F0D2
:103BA000E4CF00F0E4CFD9FF1200D9CFE5FFE1CF99
:103BB000D9FF00C0E5FF01C0E5FF02C0E5FF03C07B
:103BC000E5FF020EDBCF00F0030EDBCF01F0040EA9
:103BD000DBCF02F00A0178510DE1A3EC23F0036E74
:103BE00003C0E5FF00C0E9FF01C0F3FF0250DAECBB
:103BF00024F00FD00A017851010A0BE100C0E9FF5F
:103C000001C0F3FF025034EC24F0E56EF2EC21F039
:103C1000E652E4CF03F0E4CF02F0E4CF01F0E4CFCA
:103C200000F0E4CFD9FF1200D9CFE5FFE1CFD9FFF3
:103C300000C0E5FF01C0E5FF02C0E5FF03C0E5FFEE
:103C4000020EDBCF00F0030EDBCF01F06CCA02F0F6
:103C50006DCA03F00A016C3F01D06D2B0150E56E77
:103C60000250E56E3DEC22F0E652E6526CCA02F0DC
:103C70006DCA03F00A016C3F01D06D2B0050E56E58
:103C80000250E56E3DEC22F0E652E652E4CF03F03E
:103C9000E4CF02F0E4CF01F0E4CF00F0E4CFD9FFAD
:103CA0001200D9CFE5FFE1CFD9FF00C0E5FF01C089
:103CB000E5FF02C0E5FF03C0E5FF04C0E5FF020E1B
:103CC000DBCF00F023CA01F0026A014A022A24CAAB
:103CD00003F0046A0150031803E10250041801E0E4
:103CE00001D00ED0000E0A012325016E026A070ED4
:103CF000022201C0E9FF02C0EAFF00C0EFFF232B50
:103D0000E4CF04F0E4CF03F0E4CF02F0E4CF01F01D
:103D1000E4CF00F0E4CFD9FF1200D9CFE5FFE1CF27
:103D2000D9FF00C0E5FF01C0E5FF02C0E5FF03C009
:103D3000E5FF020EDBCF00F0016A89CA02F0036AD8
:103D40000250002603500122E56A800EE56E015004
:103D5000E56E0050E56E64EC17F0006EF3CF01F0F5
:103D6000040EE126600E0026000E012200C0E9FFCD
:103D700001C0EAFFEFCF00F00050E4CF03F0E4CF42
:103D800002F0E4CF01F0E4CF00F0E4CFD9FF12005D
:103D900000C0E5FF01C0E5FF02C0E5FF010E006EB7
:103DA000DCEC20F0016E01C002F0015023E0005075
:103DB000E56E75EC24F0016EE652015010E10A0E3A
:103DC000005C0BE20A0E006EE56E75EC24F0016EED
:103DD000E652015004E1E8680ED0E8680CD00150CA
:103DE000021802E0E86807D0002A1B0E005CD8E346
:103DF000E86801D0E86AE4CF02F0E4CF01F0E4CF54
:103E000000F01200F3CFE5FFF4CFE5FFE9CFE5FFC7
:103E1000EACFE5FFFACFE5FFFBCFE5FF0A0121512D
:103E200004017B6F0A01225104017C6FD650796F27
:103E3000D7507A6FF2A411D00A01213F01D0222B72
:103E4000F2940A01215104017B6F0A0122510401FD
:103E50007C6FD650796FD7507A6FE4CFFBFFE4CFF9
:103E6000FAFFE4CFEAFFE4CFE9FFE4CFF4FFE4CFC9
:103E7000F3FF110000C0E5FF01C0E5FF02C0E5FF50
:103E800003C0E5FF6CCA00F06DCA01F00A016C3F87
:103E900001D06D2B0050E56E75EC24F0E652036EF8
:103EA000026A6CCA00F06DCA01F00A016C3F01D0D1
:103EB0006D2B0050E56E75EC24F0E652016A02129B
:103EC0000150031203C0F3FF0250E4CF03F0E4CF2C
:103ED00002F0E4CF01F0E4CF00F0120000C0E5FFF3
:103EE00001C0E5FF010E006E420E0A014F6F040192
:103EF0003451FF0B0A0175190DE00A0E0A01506FCB
:103F0000030E006E04013451FF0B016E01C075FAFF
:103F10000A01516F020E005C0DE3002A0050E56EAD
:103F2000800EE56E0A0EE56E4F0EE56E88EC15F01C
:103F3000040EE126E4CF01F0E4CF00F0120000C04F
:103F4000E5FF01C0E5FF02C0E5FF006E000E0A01BB
:103F50002825016E026A0F0E022201C0E9FF02C08D
:103F6000EAFF00C0EFFF220E285D01E2282B00507F
:103F70000A0A0FE10A012851E56E800EE56E0F0E68
:103F8000E56E000EE56E88EC15F0040EE1260A01E0
:103F9000286BE4CF02F0E4CF01F0E4CF00F0120090
:103FA000D9CFE5FFE1CFD9FF00C0E5FF01C0E5FFB4
:103FB00002C0E5FF020EDBCF00F0030EDBCF01F005
:103FC000CBEC21F00044FE0B026E0150D880E86675
:103FD000D890006A00360050D880E866D890006A11
:103FE0000036005002120250E56E45EC23F0E65216
:103FF000E4CF02F0E4CF01F0E4CF00F0E4CFD9FF4A
:1040000012000A01236B0A01246B0A0125698B80C7
:104010009490B06A3F0EAF6EB886AC8AAC84AC8C1C
:10402000AC90AB8CAB8E0A01806B0A017A6B0A01F3
:104030007D6B0A017E6B0A017F6B000EE56A75ECF1
:1040400024F00A01276FE6529F989F9A010E0A01F9
:10405000266F04017D6B7E6B2F0E7F6F83EC24F047
:10406000120000C0E5FF01C0E5FF02C0E5FF03C08C
:10407000E5FFE80E006E030E016E0050FF0F026EAA
:10408000FF0E0120036E02C000F003C001F00250D9
:1040900003100AE01F0EC514026E036AC7B4032A98
:1040A000035002120250E9E1E4CF03F0E4CF02F042
:1040B000E4CF01F0E4CF00F0120000C0E5FF01C042
:1040C000E5FF02C0E5FF03C0E5FFE80E006E030E4A
:1040D000016E31EC20F0C5860050FF0F026EFF0E1E
:1040E0000120036E02C000F003C001F00250031073
:1040F00005E01CEC25F0026E0250EEE0C950E4CF62
:1041000003F0E4CF02F0E4CF01F0E4CF00F01200BE
:104110000A01202B2051010A05E00A012051020A60
:104120000EE01AD0020EE56E800EE56E040EE56E0E
:10413000330EE56EF4EC16F0040EE1260FD0010EFE
:10414000E56E800EE56E040EE56E330EE56E0AEC4C
:1041500015F0040EE12602D00A01206B1200430084
:10416000256300000A0121510401836F0A012251D5
:104170000401846FD650816FD750826F83510A013A
:10418000211905E1040184510A0122190CE00A01F8
:1041900021510401836F0A0122510401846FD6501A
:1041A000816FD750826F84C4E9FF83C4F4FF82C457
:1041B000F3FF04018151120000C0E5FF01C0E5FFDB
:1041C0000A017E510A01871905E00A017E510A01A0
:1041D0007D1902E1E86A15D07ECA00F00A017E2B43
:1041E000016A600E0026000E012200C0E9FF01C036
:1041F000EAFFEFCF00F07E51800A02E10A017E6BF8
:104200000050E4CF01F0E4CF00F0120000C0E5FF61
:1042100001C0E5FF02C0E5FF03C0E5FFE80E006E48
:10422000030E016E31EC20F09E96C59AC5880050B1
:10423000FF0F026EFF0E0120036E02C000F003C0EC
:1042400001F00250031002E09EA6F1D7E4CF03F084
:10425000E4CF02F0E4CF01F0E4CF00F0120000C0A0
:10426000E5FF2BEC25F00401896B806B8983006AE4
:1042700089B3002A0050010BE844F46E8051FD0B15
:10428000F410806FD58ED59CD59AD588D596D594C7
:10429000D582D580F28AF184D08EF28EF28CBA80EB
:1042A000FF0EBB68BA84E4CF00F01200D9CFE5FF5F
:1042B000E1CFD9FF00C0E5FF01C0E5FF020EDBCF73
:1042C00000F00050020DF450016EF3CF00F0D30E59
:1042D0000026040E012200C0E9FF01C0EAFFEECF74
:1042E00000F0EFCF01F001C0F3FF0050E4CF01F088
:1042F000E4CF00F0E4CFD9FF1200D9CFE5FFE1CF42
:10430000D9FF00C0E5FF01C0E5FF020EDBCF00F0E2
:104310000050020DF450016EF3CF00F0E00E0026C5
:10432000000E012200C0E9FF01C0EAFFEECF00F05D
:10433000EFCF01F001C0F3FF0050E4CF01F0E4CF74
:1043400000F0E4CFD9FF120000C0E5FF01C0E5FF97
:1043500002C0E5FF03C0E5FFE80E006E030E016E2C
:1043600031EC20F0C5840050FF0F026EFF0E0120DB
:10437000036E02C000F003C001F00250031002E01F
:10438000C5B4F1D7E4CF03F0E4CF02F0E4CF01F0FD
:10439000E4CF00F0120000C0E5FF01C0E5FF02C05D
:1043A000E5FF03C0E5FFE80E006E030E016E31EC81
:1043B00020F0C5800050FF0F026EFF0E0120036E3B
:1043C00002C000F003C001F00250031002E0C5B0CB
:1043D000F1D7E4CF03F0E4CF02F0E4CF01F0E4CF73
:1043E00000F01200D9CFE5FFE1CFD9FF00C0E5FF13
:1043F00001C0E5FF02C0E5FF020EDBCF00F06CCA92
:1044000001F06DCA02F00A016C3F01D06D2B005023
:10441000E56E0150E56E3DEC22F0E652E652E4CF47
:1044200002F0E4CF01F0E4CF00F0E4CFD9FF1200B6
:10443000D8CFE5FFE0CFE5FFE56EF3CFE5FFF4CFA2
:10444000E5FFE9CFE5FFEACFE5FFFACFE5FFFBCFD8
:10445000E5FFAEEC0CF0E4CFFBFFE4CFFAFFE4CFD6
:10446000EAFFE4CFE9FFE4CFF4FFE4CFF3FFE45049
:10447000E4CFE0FFE4CFD8FF1000D9CFE5FFE1CFD4
:10448000D9FF00C0E5FF020EDBCF00F0030EDBCF4B
:10449000A8FF00C0A9FFA69EA69CA684F29EF29C3F
:1044A000550EA76EAA0EA76EA682A6A202D0000085
:1044B000FCD7A694F28EF28CE4CF00F0E4CFD9FFC3
:1044C0001200E8AE0AD0F3CFEAFFEE50EECFF3FFD2
:1044D000EECFF4FFEECFE9FF1200E8BC46EF25F087
:1044E000E9CFF6FFF3CFF7FFF86E0900F5500900AA
:1044F000F5CFF3FF0900F5CFF4FF0900F5CFE9FF91
:10450000120000C0E5FF01C0E5FF0A0123510A01C6
:10451000241902E1E86A0FD0000E0A012425006E7A
:10452000016A070E012200C0E9FF01C0EAFFEFCFD8
:1045300000F0242B0050E4CF01F0E4CF00F0120093
:10454000F2CFEAFFF29EA69EA69CA684E9CFA9FF21
:10455000F3CFAAFFE4CFA8FFEFEC24F0F4CFA8FF3D
:10456000EFEC24F0F6CFA8FFEFEC24F0F7CFA8FF94
:10457000EFEC24F0A694EABEF28E1200D9CFE5FF4C
:10458000E1CFD9FF00C0E5FF01C0E5FF020EDBCFA0
:1045900000F0016A3F0E00260A0E012200C0E9FF6A
:1045A00001C0EAFFFF0EEF68E4CF01F0E4CF00F0B6
:1045B000E4CFD9FF1200F2CFF6FFF29EA69EA69C92
:1045C000E9CFA9FFF3CFAAFFA680A850A94AAA2A3B
:1045D000A680A8CFF3FFA94AAA2AA680A8CFF4FFF5
:1045E000A94AAA2AA680A8CFEAFFF6BEF28E120038
:1045F000E8AE08D0F3CFEAFFEE50EECFF3FFEECFF8
:10460000F4FF1200E8BC48EF25F0E9CFF6FFF3CF46
:10461000F7FFF86E0900F5500900F5CFF3FF090028
:10462000F5CFF4FF1200F2CFEAFFF29EA69EA69C01
:10463000A684E9CFA9FFF3CFAAFFE4CFA8FFEFEC50
:1046400024F0F4CFA8FFEFEC24F0F6CFA8FFEFECB6
:1046500024F0A694EABEF28E1200D9CFE5FFE1CF96
:10466000D9FF00C0E5FF020EDBCF00F000C027FA43
:104670000050E56E000EE56A3DEC22F0E652E6528F
:10468000E4CF00F0E4CFD9FF1200D9CFE5FFE1CFAE
:10469000D9FF00C0E5FF020EDBCF00F0C69E00C0D0
:1046A000C9FFC6AE02D0E86803D031EC20F0E86A5A
:1046B000E4CF00F0E4CFD9FF1200F2CFF6FFF29E74
:1046C000A69EA69CE9CFA9FFF3CFAAFFA680A8507B
:1046D000A94AAA2AA680A8CFF3FFA94AAA2AA68097
:1046E000A8CFF4FFF6BEF28E120000C0E5FF01C0B5
:1046F000E5FF600E0A017E25006E016A000E0122B0
:1047000000C0E9FF01C0EAFFEFCF00F00050E4CFA6
:1047100001F0E4CF00F01200D9CFE5FFE1CFD9FFDF
:1047200000C0E5FF020EDBCF00F0610E005C05E388
:104730007B0E005C02E2010E01D0E86AE4CF00F0DB
:10474000E4CFD9FF120000C0E5FF01C0E5FF6CCA4D
:1047500000F06DCA01F00A016C3F01D06D2B0050D2
:10476000E56E75EC24F0E652E4CF01F0E4CF00F002
:104770001200D9CFE5FFE1CFD9FF00C0E5FF020E5F
:10478000DBCF00F000C026FA005004E183EC24F0F7
:104790009D9A9D98E4CF00F0E4CFD9FF1200E8AED7
:1047A00006D0F3CFEAFFEE50EECFF3FF1200E8BCE5
:1047B00044EF25F0E9CFF6FFF3CFF7FFF86E0900DD
:1047C000F5500900F5CFF3FF1200F2CFEAFFF29E99
:1047D000A69EA69CA684E9CFA9FFF3CFAAFFE4CFAB
:1047E000A8FFEFEC24F0F4CFA8FFEFEC24F0A694A0
:1047F000EABEF28E120018EEFFF028EEFFF0F86A23
:10480000A68EA69CE9680E0EEA6E0068000EED6AA0
:104810000050FDE163EC1BF006EC00F0FFD7F2CF97
:10482000F6FFF29EA69EA69CE9CFA9FFF3CFAAFFB2
:10483000A680A850A94AAA2AA680A8CFF3FFF6BE50
:10484000F28E1200F2CFEAFFF29EA69EA69CA684EC
:10485000E9CFA9FFF3CFAAFFE4CFA8FFEFEC24F044
:10486000A694EABEF28E1200E8AE04D0F3CFEAFFBF
:10487000EE501200E8BC42EF25F0E9CFF6FFF3CF8F
:10488000F7FFF86E0900F5501200E8AE0BD0F3CF39
:10489000EAFFE4CFEEFFF4CFEEFFF6CFEEFFF7CF67
:1048A000EEFF1200E8BC40EF25F01200000000000F
:1048B00000FF000000000A000200000042000000AB
:1048C000000000000000000000000000E8AE09D079
:1048D000F3CFEAFFE4CFEEFFF4CFEEFFF6CFEEFF2B
:1048E0001200E8BC4AEF25F01200D9CFE5FFE1CF76
:1048F000D9FF020EDBCFA9FFA69CA69EA680A850DA
:10490000E4CFD9FF1200ACA2FED78B80AE500000DE
:10491000AE50AB98AB88AB869D8A9D9812002564FB
:104920002000F2CFF6FFF29EA69EA69CE9CFA9FF3B
:10493000F3CFAAFFA680A850F6BEF28E1200DCECE0
:1049400020F00A0A08E1DCEC20F00A01776FFF0B87
:10495000FF080401376F1200E8AE07D0F3CFEAFF7B
:10496000E4CFEEFFF4CFEEFF1200E8BC3EEF25F0FF
:104970001200700ED36E9B8CFF0E92689368946841
:104980009668626AF19E120000C0E5FFC8EC1EF056
:10499000006E005001E1FF00E4CF00F012000F01B3
:1049A000456B900E0F01446F030E0F01436F0F0113
:1049B000458F1200E8AE05D0F3CFEAFFE4CFEEFF5B
:1049C0001200E8BC3CEF25F01200D9CFE5FFE1CFA3
:1049D000D9FF020EDBCF2CFAE4CFD9FF1200550E1F
:1049E000A76EAA0EA76EA682A6B2FED7A94AAA2AC9
:1049F000010E0A01786F1C0E0A016C6F6D6B1200BC
:104A000031EC20F09E96C58AC5889EA6FED712007E
:104A10000A01786B1C0E0A016C6F6D6B12000100AD
:104A2000AC480000200A00001F00000031EC20F01C
:104A3000C582C5B2FED71200C7A002D0010E01D0B8
:104A4000E86A12002FEC21F001EC20F01200ACA279
:104A5000FED7AD6E1200B9EC24F012000A017E51AF
:104A600012000A01885112000A0126511200E8CFF3
:104A70007FFF1200C96E120022EF24F0E5EF23F051
:104A8000A0EF22F091EF24F00FEF24F0DBEF22F003
:084A90005DEF23F013EF23F0AA
:00000001FF
