:020000040000FA
:10000000A5EF36F0C96E1200ADEF32F0FCEC0CF04B
:10001000D1EC19F0FDD71200DAEF34F0D9CFE5FFBB
:10002000E1CFD9FF00C0E5FF01C0E5FF02C0E5FF59
:1000300003C0E5FF04C0E5FF05C0E5FF06C0E5FF1E
:1000400007C0E5FF08C0E5FF09C0E5FF0AC0E5FFFE
:100050000BC0E5FF0CC0E5FF0DC0E5FF0EC0E5FFDE
:100060000FC0E5FF10C0E5FF11C0E5FF12C0E5FFBE
:1000700013C0E5FF14C0E5FF15C0E5FF16C0E5FF9E
:1000800017C0E5FF18C0E5FF19C0E5FF1AC0E5FF7E
:100090001BC0E5FF1CC0E5FF1DC0E5FF1EC0E5FF5E
:1000A0001FC0E5FF20C0E5FF21C0E5FF22C0E5FF3E
:1000B00023C0E5FF24C0E5FF25C0E5FF020EDBCF2E
:1000C00000F0030EDBCF01F0040EDBCF02F0025094
:1000D000086E0150076E0050066EE56A100EE56E60
:1000E0000850E56E0750E56E0650E56E800EE56E31
:1000F000030EE56EBE0EE56E45EC29F0080EE12616
:10010000C6C303F0C7C304F0C8C305F0C9C306F0F3
:1001100003C007F004C008F005C009F006C00AF0EB
:10012000D8800AAED8900AE30A1E091E081E076C82
:1001300005E1082A03E1092AD8B40A2ABEC30BF054
:10014000BFC30CF0E86A0301BFBFFF0E0D6E0E6E59
:10015000C035106EC1350F6E10360F361034030BDC
:10016000106EC251E844E844FC0B1012C235126E06
:10017000C335116E123611361234030B12B0FC095E
:10018000126E0F500B5C0F6E10500C58106E115009
:100190000D58116E12500E58126ED89012AED880B3
:1001A000D8A05BD01250800F800F08E1000E115CC8
:1001B00005E1000E105C02E1010E0F5CD8B04DD0DD
:1001C0000A340A30166E0930156E0830146E073086
:1001D000136ECCC317F0CDC318F0E86A0301CDBF8E
:1001E000FF0E196E800FF36E1650800FF35C08E15E
:1001F0001550195C05E11450185C02E11350175CAE
:100200002CE30D40156E15420E40166E1642C00EC0
:100210001616151415181612151A0C50E840E84059
:100220003F0B15120B40136E13420C40146E144218
:10023000C00E1416131413181412131A13500301BA
:10024000C06F1450C16F1550C26F1650C36FC66B8C
:10025000C76BC86BC96BD4EF04F007360836073696
:1002600008360734030B0818081A0818076E0950D7
:10027000E844E844FC0B081209360A3609360A3607
:100280000934030B09B0FC090A180A1A0A180834C1
:1002900008300A6E0730096EE86A0ABEFF0E0B6E60
:1002A0000C6E07C00DF008C00EF0E86A08BEFF0E25
:1002B000136EE56E1350E56E0E50E56E0D50E56E53
:1002C0000C50E56E0B50E56E0A50E56E0950E56E78
:1002D00097EC1DF0096EF3CF0AF0F4CF0BF0E9CFE5
:1002E0000CF0080EE126CCC30DF0CDC30EF0E86A89
:1002F0000301CDBFFF0E136E146EE56E1350E56E55
:100300000E50E56E0D50E56E0C50E56E0B50E56E2F
:100310000A50E56E0950E56E39EC22F0096EF3CF14
:100320000AF0080EE126C4C30BF0C5C30CF0E86A5E
:100330000301C5BFFF0E156E166E1540196E1942EA
:1003400016401A6E1A42C00E1A16191419181A12EB
:10035000191A0C50E840E8403F0B19120B40176E79
:1003600017420C40186E1842C00E181617141718B2
:100370001812171AD88006AED890D8B069D109C023
:100380000BF00AC00CF0E86A0ABEFF0E156E800F73
:10039000F36E1250800FF35C08E11150155C05E11B
:1003A00010500C5C02E10F500B5CD8B029D1065004
:1003B000800FF36E1A50800FF35C08E11950055C52
:1003C00005E11850045C02E11750035CD8B0F1D08D
:1003D000CAC30BF0CBC30CF0E86A0301CBBFFF0E1E
:1003E000156E166E03500B2604500C220550152274
:1003F000065016220B500301C66F0C50C76F1550E4
:10040000C86F1650C96FCCC30BF0CDC30CF0CAC374
:1004100015F0CBC316F00C50800FF36E1650800F02
:10042000F35C02E115500B5CD8B0A7D0C6C31BF03B
:10043000C7C31CF0C8C31DF0C9C31EF01B34206E17
:100440001C341F6E20361F362034030B206E1D50C7
:10045000E844E844FC0B20121D34226E1E34216E49
:10046000223621362234030B22B0FC091F50076EBE
:100470002050086E08340830206E07301F6EE86A7E
:1004800020BEFF0E216E226E07C023F008C024F0AC
:10049000E86A08BEFF0E256EE56E2550E56E245015
:1004A000E56E2350E56E2250E56E2150E56E20503A
:1004B000E56E1F50E56E97EC1DF01F6EF3CF20F038
:1004C000F4CF21F0E9CF22F0080EE1260BC023F093
:1004D0000CC024F0E86A0CBEFF0E256EE56E2550B8
:1004E000E56E2450E56E2350E56E2250E56E2150F6
:1004F000E56E2050E56E1F50E56E39EC22F01F6E60
:10050000F3CF20F0080EE1261F50096E20500A6E2E
:1005100009C01FF00AC020F0E86A0ABEFF0E216E73
:10052000226E1250800FF36E2250800FF35C08E1B0
:100530002150115C05E12050105C02E11F500F5C5E
:100540001CE20B50155C0B6E0C5016580C6EE86AD2
:100550000CBEFF0E156E166E0B501B5E0C501C5A17
:1005600015501D5A16501E5A1B500301C66F1C50C1
:10057000C76F1D50C86F1E50C96F1A50800FF36EA1
:100580000301C951800FF35C08E1C851195C05E112
:10059000C751185C02E1C651175CD8B0DBD11750C7
:1005A0000301C66F1850C76F1950C86F1A50C96F32
:1005B000D1D11A50800FF36E0650800FF35C08E122
:1005C0000550195C05E10450185C02E10350175C0A
:1005D000D8B0C0D10D50035C0B6E0E5004580C6E99
:1005E00013500558156E14500658166E0B50030123
:1005F000C66F0C50C76F1550C86F1650C96FAAD17F
:10060000CAC30BF0CBC30CF0E86A0301CBBFFF0EEB
:10061000156E166E0D500B260E500C22135015221F
:10062000145016220B50035C0B6E0C5004580C6EC9
:1006300015500558156E16500658166E0B500301CE
:10064000C66F0C50C76F1550C86F1650C96F82D156
:100650000A1E096CD8B40A2A09C00BF00AC00CF0B3
:10066000E86A0ABEFF0E156E166E1250800FF36E0A
:100670001650800FF35C08E11550115C05E10C5039
:10068000105C02E10B500F5CD8B041D11A1C166E01
:10069000191C156E181C0C6E171C0B6E0B2A04E12E
:1006A0000C2A02E1154A162A1650800FF36E0650E6
:1006B000800FF35C08E10550155C05E104500C5C0B
:1006C00002E103500B5CD8B0FBD0CAC317F0CBC318
:1006D00018F0E86A0301CBBFFF0E196E1A6E1750AF
:1006E000035C176E18500458186E19500558196E8F
:1006F0001A5006581A6E17500301C66F1850C76F6C
:100700001950C86F1A50C96FCCC317F0CDC318F079
:10071000CAC319F0CBC31AF01850800FF36E1A50E9
:10072000800FF35C02E11950175CD8B0ADD0C6C39E
:100730001BF0C7C31CF0C8C31DF0C9C31EF01B3497
:10074000206E1C341F6E20361F362034030B206EA3
:100750001D50E844E844FC0B20121D34226E1E3468
:10076000216E223621362234030B22B0FC09226E80
:10077000221E211E201E1F6C05E1202A03E1212AD2
:10078000D8B4222A1F50076E2050086E0834083053
:10079000206E07301F6EE86A20BEFF0E216E226EAB
:1007A000E86A08BEFF0E236EE56E2350E56E085022
:1007B000E56E0750E56E2250E56E2150E56E205043
:1007C000E56E1F50E56E97EC1DF0076EF3CF08F055
:1007D000F4CF1FF0E9CF20F0080EE12617C021F07A
:1007E00018C022F0E86A18BEFF0E236EE56E235093
:1007F000E56E2250E56E2150E56E2050E56E1F50EB
:10080000E56E0850E56E0750E56E39EC22F0076E94
:10081000F3CF08F0080EE126081E076C02E1082A53
:1008200000E10750096E08500A6EE86A0ABEFF0E22
:10083000076E800FF36E1250800FF35C08E11150C9
:10084000075C05E110500A5C02E10F50095C1CE2F4
:100850001750195C176E18501A58186EE86A18BEAF
:10086000FF0E076E086E17501B2618501C220750EB
:100870001D2208501E221B500301C66F1C50C76F5B
:100880001D50C86F1E50C96F0301C951800FF36E10
:100890001650800FF35C08E11550C85D05E10C505F
:1008A000C75D02E10B50C65DD8B054D00B500301B8
:1008B000C66F0C50C76F1550C86F1650C96F4AD01D
:1008C0000650800FF36E1650800FF35C08E1155050
:1008D000055C05E10C50045C02E10B50035CD8B0F0
:1008E00039D00D500324076E0E500420086E1350AB
:1008F0000520096E145006200A6E07500301C66FCA
:100900000850C76F0950C86F0A50C96F23D0CAC3B7
:1009100007F0CBC308F0E86A0301CBBFFF0E096EF6
:100920000A6E07500D2608500E22095013220A5055
:1009300014220D5003260E50042213500522145089
:10094000062203500301C66F0450C76F0550C86FDD
:100950000650C96F0301C635046EC735036E0436F1
:1009600003360434030B046EC851E844E844FC0B1E
:100970000412C835066EC935056E063605360634CE
:10098000030B06B0FC09066EC0510326C1510422B8
:10099000C2510522C35106220350C06F0450C16FDB
:1009A0000550C26F0650C36FE56A100EE56E800EEB
:1009B000E56E030EE56EBE0EE56E0250E56E01506B
:1009C000E56E0050E56E45EC29F0080EE126E4CF17
:1009D00025F0E4CF24F0E4CF23F0E4CF22F0E4CFFD
:1009E00021F0E4CF20F0E4CF1FF0E4CF1EF0E4CFFD
:1009F0001DF0E4CF1CF0E4CF1BF0E4CF1AF0E4CFFD
:100A000019F0E4CF18F0E4CF17F0E4CF16F0E4CFFC
:100A100015F0E4CF14F0E4CF13F0E4CF12F0E4CFFC
:100A200011F0E4CF10F0E4CF0FF0E4CF0EF0E4CFFC
:100A30000DF0E4CF0CF0E4CF0BF0E4CF0AF0E4CFFC
:100A400009F0E4CF08F0E4CF07F0E4CF06F0E4CFFC
:100A500005F0E4CF04F0E4CF03F0E4CF02F0E4CFFC
:100A600001F0E4CF00F0E4CFD9FF1200D9CFE5FFC9
:100A7000E1CFD9FF00C0E5FF01C0E5FF02C0E5FFFF
:100A800003C0E5FF04C0E5FF05C0E5FF06C0E5FFC4
:100A900007C0E5FF08C0E5FF09C0E5FF0AC0E5FFA4
:100AA0000BC0E5FF0CC0E5FF0DC0E5FF0EC0E5FF84
:100AB0000FC0E5FF10C0E5FF11C0E5FF12C0E5FF64
:100AC00013C0E5FF14C0E5FF15C0E5FF16C0E5FF44
:100AD00017C0E5FF18C0E5FF19C0E5FF1AC0E5FF24
:100AE0001BC0E5FF1CC0E5FF1DC0E5FF1EC0E5FF04
:100AF000020EDBCF00F0030EDBCF01F0040EDBCFE4
:100B000002F0050EDBCF03F0060EDBCF04F0070E7C
:100B1000DBCF05F0080EDBCF06F0090EDBCF07F0C8
:100B20000A0EDBCF08F0096A0A6A02C00DF00D5008
:100B3000800A0DE102500501126F0150116F005043
:100B4000106F050E016E100E006E800E026E03C057
:100B5000E9FF04C0F3FF0550EFEC36F00B6E0B50CD
:100B6000D8B4ECEF08F00B50250A02E0D3EF08F000
:100B70000C6A0D6A0E6A0F6A106A0A0E116E126A0A
:100B8000136A146A200E156E1668176A2B0E186EFB
:100B9000032A02E3044A052A03C0E9FF04C0F3FF65
:100BA0000550EFEC36F0196E250A13E11950E56E89
:100BB0000250E56E0150E56E0050E56E39EC28F00C
:100BC000040EE126094A0A2A032A02E3044A052AF6
:100BD000BED71950300A06E1300E156E032A02E323
:100BE000044A052A03C0E9FF04C0F3FF0550EFECF7
:100BF00036F02D0A06E1010E146E032A02E3044AC0
:100C0000052A03C0E9FF04C0F3FF0550EFEC36F0FE
:100C1000200A08E1010E176E200E186E032A02E367
:100C2000044A052A03C0E9FF04C0F3FF0550EFECB6
:100C300036F02B0A06E1010E176E032A02E3044A7E
:100C4000052A03C0E9FF04C0F3FF0550EFEC36F0BE
:100C5000196E310E195C2BE33A0E195C28E203C0C1
:100C600019F004C01AF005C01BF019C0E9FF1AC042
:100C7000F3FF1B50EFEC36F01C6E300E1C5C11E3E2
:100C80003A0E1C5C0EE213500A0DF3CF1DF01D50FE
:100C90001C26D00E1C24136E192A02E31A4A1B2AA2
:100CA000E4D719C003F01AC004F01BC005F003C05C
:100CB000E9FF04C0F3FF0550EFEC36F02E0A2DE1FA
:100CC000032A02E3044A052A166A03C019F004C085
:100CD0001AF005C01BF019C0E9FF1AC0F3FF1B5042
:100CE000EFEC36F01C6E300E1C5C11E33A0E1C5C0F
:100CF0000EE216500A0DF3CF1DF01D501C26D00E2B
:100D00001C24166E192A02E31A4A1B2AE4D719C0BA
:100D100003F01AC004F01BC005F003C0E9FF04C0D3
:100D2000F3FF0550EFEC36F0196E6C0A07E1010E87
:100D30000C6E032A02E3044A052A09D01950680AF6
:100D400006E1010E0E6E032A02E3044A052A03C0DF
:100D5000E9FF04C0F3FF0550EFEC36F0750A06E139
:100D6000010E106E032A02E3044A052A03C0E9FFBC
:100D700004C0F3FF0550EFEC36F0196E730A05E17D
:100D8000010E0D6E200E156E3FD01950780A03E14A
:100D9000100E116E39D01950580A05E1100E116E5F
:100DA000010E126E31D01950630A02E1116A2CD083
:100DB00019506F0A03E1080E116E26D01950660A09
:100DC00003E1010E0F6E20D01950640A1DE0195086
:100DD000690A1AE0105005E0FF0E032604220522DE
:100DE00013D01950E56E0250E56E0150E56E0050CB
:100DF000E56E39EC28F0040EE126094A0A2A032A96
:100E000002E3044A052AA3D60D5021E00650030F41
:100E10000D6E000E0720196E000E08201A6E0DC010
:100E200006F019C007F01AC008F0FD0E0D26FF0EDF
:100E300019221A220DC0E9FF19C0F3FF1A50BAECAB
:100E400035F00D6EF3CF19F0F4CF1AF0FDD00F503E
:100E50000DE0000E1A6E120E196E600E0D6E040E6D
:100E60000626000E072208221668EED016680C50DF
:100E700023E00650040F0C6E000E07200F6E000ECC
:100E800008201B6E0CC006F00FC007F01BC008F056
:100E9000FC0E0C26FF0E0F221B220CC0E9FF0FC018
:100EA000F3FF1B5023EC35F00C6EF3CF0FF0F4CFB3
:100EB0001BF0E9CF1CF067D00E502FE00650020F58
:100EC0000E6E000E07201D6E000E08201E6E0EC056
:100ED00006F01DC007F01EC008F0FE0E0E26FF0E25
:100EE0001D221E220EC0E9FF1DC0F3FF1E5079EC2B
:100EF00036F00E6E0EC00CF00F6A1B6A1C6A1150A1
:100F00000A0A03E11050D8B43ED00C500E6E0EC049
:100F10000CF00F6A1B6A1C6A36D00650020F0E6E68
:100F2000000E07201D6E000E08201E6E0EC006F07B
:100F30001DC007F01EC008F0FE0E0E26FF0E1D227B
:100F40001E220EC0E9FF1DC0F3FF1E5079EC36F0E3
:100F50000E6EF3CF1DF00EC00CF01DC00FF0E86A4E
:100F60001DBEFF0E1B6E1C6E11500A0A02E11050CE
:100F70000AE00C500E6E0F501D6E0EC00CF01DC01E
:100F80000FF01B6A1C6A030E196EDC0E0D6E800ECC
:100F90001A6E1150D8B440D0105013E01150E56EC5
:100FA000030EE56EDC0EE56E1C50E56E1B50E56E23
:100FB0000F50E56E0C50E56E8AEC20F0070EE1262E
:100FC00012D01150E56E030EE56EDC0EE56E1C507E
:100FD000E56E1B50E56E0F50E56E0C50E56EC3ECF0
:100FE0002CF0070EE12617502FE00DC0E9FF19C0C5
:100FF000F3FF1A50EFEC36F02D0A26E0FF0E0D2617
:1010000019221A2218C0E5FF0DC0E9FF19C0F3FF2D
:101010001A5090EC37F018D00CC0E5FF0DC0E9FF76
:1010200019C0F3FF1A5090EC37F00D50010F0C6E01
:10103000000E19200E6E000E1A20E56A0CC0E9FFA2
:101040000EC0F3FF90EC37F00DC00CF019C00EF09D
:101050001AC00FF013C010F0105010E00CC0E9FFE0
:101060000EC0F3FF0F50EFEC36F0176E175006E08E
:101070000C2A02E30E4A0F2A1006EED710C013F016
:1010800014501EE109C00CF00AC00EF010C00FF0A1
:101090000F5010E01550E56E0250E56E0150E56E00
:1010A0000050E56E39EC28F0040EE1260C4A0E2AB9
:1010B0000F06EED70CC009F00EC00AF00FC013F0F7
:1010C00016C00CF00DC00DF019C00EF01AC00FF0D4
:1010D00009C010F00AC015F00DC0E9FF0EC0F3FF03
:1010E0000F50EFEC36F0166E1650D8B43ED00CC050
:1010F00016F0176A161E171E1650171005E00CC0C2
:1011000016F00C06165031E00DC0E9FF0EC0F3FFDB
:101110000F50EFEC36F0116E125010E01150E56EEA
:1011200036EC36F0166EE652165004E0DF0E11145F
:10113000166E02D011C016F016C011F01150E56EF7
:101140000250E56E0150E56E0050E56E39EC28F076
:10115000040EE1260D2A02E30E4A0F2A104A152A30
:101160001350D8B4B9D71306B7D710C009F015C0BB
:101170000AF014502BE010C00CF015C00DF013C095
:101180000EF00E501FE0200EE56E0250E56E01508D
:10119000E56E0050E56E39EC28F0040EE1260C4AAD
:1011A0000D2A0E06EED70B50E56E0250E56E01508B
:1011B000E56E0050E56E39EC28F0040EE126094A90
:1011C0000A2A04D00CC009F00DC00AF0032A02E379
:1011D000044A052AA7EF05F00AC0F3FF0950E4CF3F
:1011E0001EF0E4CF1DF0E4CF1CF0E4CF1BF0E4CF01
:1011F0001AF0E4CF19F0E4CF18F0E4CF17F0E4CF01
:1012000016F0E4CF15F0E4CF14F0E4CF13F0E4CF00
:1012100012F0E4CF11F0E4CF10F0E4CF0FF0E4CF00
:101220000EF0E4CF0DF0E4CF0CF0E4CF0BF0E4CF00
:101230000AF0E4CF09F0E4CF08F0E4CF07F0E4CF00
:1012400006F0E4CF05F0E4CF04F0E4CF03F0E4CF00
:1012500002F0E4CF01F0E4CF00F0E4CFD9FF1200B8
:101260003C4E4F20464C4F41543E0000D9CFE5FF45
:10127000E1CFD9FF00C0E5FF01C0E5FF02C0E5FFF7
:1012800003C0E5FF04C0E5FF05C0E5FF06C0E5FFBC
:1012900007C0E5FF08C0E5FF09C0E5FF0AC0E5FF9C
:1012A0000BC0E5FF0CC0E5FF0DC0E5FF020EDBCF74
:1012B00000F0030EDBCF01F0040EDBCF02F0005094
:1012C000090F066E000E0120076E000E0220086E48
:1012D0000B6E07500A6E0650096EE56A110EE56E38
:1012E0000B50E56E0A50E56E0950E56E800EE56E16
:1012F000040EE56EEC0EE56E45EC29F0080EE126D5
:1013000000C009F001C00AF002C00BF0E56AE56E0A
:101310000B50E56E0A50E56E0950E56E800EE56EE5
:10132000040EE56E810EE56E45EC29F0080EE1260F
:101330000301D651036ED751046E0401F451056EBA
:10134000F551096E0550035C0501216F09500458E1
:10135000226F0301D6510401F46F0301D751040138
:10136000F56F0301D8510401F66F0301D95104014F
:10137000F76F050121512211D8A4B8D0EBEC33F05E
:10138000036EF3CF04F0F4CF05F0E9CF09F00301C9
:10139000CE510A6ECF510B6ED0510C6ED1510D6EE5
:1013A0000A50035E0B50045A0C50055A0D50095A4E
:1013B00003500301EC6F0450ED6F0550EE6F7F0E8C
:1013C0000914EF6F0401F8B125D00301ED35EF31B9
:1013D000046EEE31036E043404320332000E04BE98
:1013E000FF0E096E056E86C40AF00B6A0C6A0D6A60
:1013F0000D50800FF36E0950800FF35C08E105502B
:101400000C5C05E104500B5C02E103500A5C02E253
:101410000401F8810401F8B1D1D0F351800FF36ECB
:101420000301EF51800FF35C0DE1EE510401F25D19
:1014300009E10301ED510401F15D04E10301EC5107
:101440000401F05DD8B0BAD00301DAA303D0010ED5
:10145000036E01D003680301EC51046EED51056E7B
:10146000EE51096EEF51E56E0950E56E0550E56EDF
:101470000450E56E010EE56E000EE56AE56AE56A68
:101480007CEC25F0046EF3CF05F0F4CF09F0E9CF42
:101490000AF0080EE126E86A03BEFF0E0B6E0C6E22
:1014A0000D6E0A50E56E0950E56E0550E56E04506C
:1014B000E56E0D50E56E0C50E56E0B50E56E035079
:1014C000E56E97EC1DF0036EF3CF04F0F4CF05F05A
:1014D000E9CF09F0080EE12603500401F96F04502A
:1014E000FA6F0550FB6F0950FC6F68D00401F8914A
:1014F000D2C3ECF3D3C3EDF3D4C3EEF3D5C3EFF310
:101500000301EC510401F06F0301ED510401F16F8F
:101510000301EE510401F26F0301EF510401F36F77
:101520000301EC51036EED51046EEE51056EEF5167
:10153000E56E0550E56E0450E56E0350E56E010E54
:10154000E56E000EE56AE56AE56A7CEC25F0036E5F
:10155000F3CF04F0F4CF05F0E9CF09F0080EE1264F
:1015600021C50AF022C50BF0E86A050122BFFF0E73
:101570000C6E0D6E0950E56E0550E56E0450E56E7B
:101580000350E56E0D50E56E0C50E56E0B50E56EA8
:101590000A50E56E97EC1DF0036EF3CF04F0F4CF24
:1015A00005F0E9CF09F0080EE12603500401F96FB8
:1015B0000450FA6F0550FB6F0950FC6F0301EF51A7
:1015C000800F800F08E1000EEE5D05E1000EED5D7D
:1015D00002E1010EEC5D05E20401F96BFA6BFB6BB5
:1015E000FC6B020E0401815DD8A049D10301DAA190
:1015F00046D10050270F036E000E0120046E000E2E
:101600000220E56E0450E56E0350E56E0EEC00F02E
:10161000030EE1260050270F036E000E0120046E1A
:10162000000E0220056E020E0326000E0422052283
:1016300003C0E9FF04C0F3FF055023EC35F0036E4F
:10164000F3CF04F0F4CF05F0E9CF09F00336043608
:10165000033604360334030B0418041A0418036E0B
:101660000550E844E844FC0B0412053609360536FB
:1016700009360534030B05B0FC090918091A0918C5
:10168000056E0301D651035C0301E86F0301D751D6
:1016900004580301E96F0301D85105580301EA6FAB
:1016A0000301D95109580301EB6FD880EBAFD890F3
:1016B00022E30401831D046E821D036E034A042A83
:1016C000E86A04BEFF0E056E096E0301EB51800F40
:1016D000F36E0950800FF35C08E10550EA5D05E107
:1016E0000450E95D02E10350E85D05E30301E86BA6
:1016F000E96BEA6BEB6B0301EB51800F800F08E1A4
:10170000000EEA5D05E1000EE95D02E1010EE85D13
:101710001EE382C403F083C404F0E86A040183BFBB
:10172000FF0E056E800FF36E0301EB51800FF35C2B
:1017300008E1EA51055C05E1E951045C02E1E85188
:10174000035C05E30301E86BE96BEA6BEB6B0401F7
:10175000875109E0E86CD8900301E837E937EA37A8
:10176000EB37010FF9E30301EB51800F800F08E124
:10177000000EEA5D05E1800EE95D02E1000EE85D24
:1017800007E30301E8697F0EE96FEA6BEB6B14D0A6
:101790000301EB51800F810F08E1FF0EEA5D05E1C7
:1017A000800EE95D02E1000EE85D06E20301E86BF0
:1017B000800EE96FEA69EB690050370F036E000E87
:1017C0000120046E000E0220056E0301E851096E2F
:1017D000E951E56E0950E56E0550E56E0450E56E81
:1017E0000350E56E33EC12F0050EE1260401815141
:1017F000030A23E10050370F036E000E0120046E30
:10180000000E0220056E0B0E0326000E0422052298
:1018100003C0E9FF04C0F3FF055023EC35F0F3CF1C
:1018200004F0F4CF05F00450036E0550046E03502D
:101830000401EC6F0450ED6F22D00050370F036E9F
:10184000000E0120046E000E0220056E0B0E032612
:10185000000E0422052203C0E9FF04C0F3FF055077
:1018600023EC35F0F3CF04F0F4CF05F00450036E11
:101870000550046E03500401EE6F0450EF6F81C4F5
:1018800003F00350010A04E00350030A01E07CD096
:10189000ECC403F0EDC404F0E86A0401EDBFFF0EF0
:1018A000056E096EF951035C0301E86F0401FA51FA
:1018B00004580301E96F0401FB5105580301EA6F65
:1018C0000401FC5109580301EB6F800F800F08E100
:1018D000000EEA5D05E1800EE95D02E1000EE85DC3
:1018E00007E30301E8697F0EE96FEA6BEB6B14D045
:1018F0000301EB51800F810F08E1FF0EEA5D05E166
:10190000800EE95D02E1000EE85D06E20301E86B8E
:10191000800EE96FEA69EB690050480F036E000E14
:101920000120046E000E0220056E0301E851096ECD
:10193000E951E56E0950E56E0550E56E0450E56E1F
:101940000350E56E33EC12F0050EE126480E00263A
:10195000000E012202220B0E0026000E012202229E
:1019600000C0E9FF01C0F3FF025023EC35F0F3CFD4
:1019700001F0F4CF02F00150006E0250016E0050F1
:101980000401EE6F0150EF6F0850086EE56A110E0A
:10199000E56E800EE56E040EE56EEC0EE56E085009
:1019A000E56E0750E56E0650E56E45EC29F0080E31
:1019B000E126E4CF0DF0E4CF0CF0E4CF0BF0E4CF60
:1019C0000AF0E4CF09F0E4CF08F0E4CF07F0E4CF69
:1019D00006F0E4CF05F0E4CF04F0E4CF03F0E4CF69
:1019E00002F0E4CF01F0E4CF00F0E4CFD9FF120021
:1019F00025642025640A000000C0E5FF01C0E5FF62
:101A000002C0E5FF03C0E5FF05C0E5FFC8EC37F005
:101A100094928B92EBEC33F0F3CF01F0F4CF02F021
:101A2000E9CF03F0880F0401346F130E0120356FE6
:101A3000000E0220366F000E0320376FC2EC28F034
:101A40009486820E006E0F0E016E0F0E036E380E1E
:101A50000026035001220F0E036E800E005E03501D
:101A6000015A820E026E0F0E036E0F0E056E380EB7
:101A70000226055003220F0E056E800E025E0550F1
:101A8000035A02C0E9FF03C0EAFFEFCF02F002866B
:101A900000C0E9FF01C0EAFF02C0EFFF0F0EE56ED4
:101AA000000EE56A60EC2CF0E652E6529488820E55
:101AB000006E0F0E016E0F0E036E380E00260350DF
:101AC00001220F0E036E800E005E0350015A820E3B
:101AD000026E0F0E036E0F0E056E380E02260550B5
:101AE00003220F0E056E800E025E0550035A02C0DF
:101AF000E9FF03C0EAFFEFCF02F0028800C0E9FF70
:101B000001C0EAFF02C0EFFF100EE56E010EE56EA8
:101B100060EC2CF0E652E652948A820E006E0F0EB4
:101B2000016E0F0E036E380E0026035001220F0EB9
:101B3000036E800E005E0350015A820E026E0F0E7D
:101B4000036E0F0E056E380E0226055003220F0E8F
:101B5000056E800E025E0550035A02C0E9FF03C005
:101B6000EAFFEFCF02F0028A00C0E9FF01C0EAFFFE
:101B700002C0EFFF110EE56E020EE56E60EC2CF078
:101B8000E652E652948C820E006E0F0E016E0F0E1E
:101B9000036E380E0026035001220F0E036E800ED6
:101BA000005E0350015A820E026E0F0E036E0F0E7E
:101BB000056E380E0226055003220F0E056E800EAC
:101BC000025E0550035A02C0E9FF03C0EAFFEFCFEF
:101BD00002F0028C00C0E9FF01C0EAFF02C0EFFF83
:101BE000120EE56E030EE56E60EC2CF0E652E65246
:101BF000948E820E006E0F0E016E0F0E036E380E65
:101C00000026035001220F0E036E800E005E03506B
:101C1000015A820E026E0F0E036E0F0E056E380E05
:101C20000226055003220F0E056E800E025E05503F
:101C3000035A02C0E9FF03C0EAFFEFCF02F0028EB1
:101C400000C0E9FF01C0EAFF02C0EFFF130EE56E1E
:101C5000040EE56E60EC2CF0E652E6529286800EA1
:101C6000006E0F0E016E0F0E036E380E002603502D
:101C70000122800E026E0F0E036E800E005E035076
:101C8000015A0F0E056E380E0226055003220F0E64
:101C9000056E800E025E0550035A02C0E9FF03C0C4
:101CA000EAFFEFCF02F0028600C0E9FF01C0EAFFC1
:101CB00002C0EFFF030EE56E050EE56E60EC2CF042
:101CC000E652E6529284800E006E0F0E016E0F0EE9
:101CD000036E380E002603500122800E026E0F0E96
:101CE000036E800E005E0350015A0F0E056E380E13
:101CF0000226055003220F0E056E800E025E05506F
:101D0000035A02C0E9FF03C0EAFFEFCF02F00284EA
:101D100000C0E9FF01C0EAFF02C0EFFF020EE56E5E
:101D2000060EE56E60EC2CF0E652E6529282800ED2
:101D3000006E0F0E016E0F0E036E380E002603505C
:101D40000122800E026E0F0E036E800E005E0350A5
:101D5000015A0F0E056E380E0226055003220F0E93
:101D6000056E800E025E0550035A02C0E9FF03C0F3
:101D7000EAFFEFCF02F0028200C0E9FF01C0EAFFF4
:101D800002C0EFFF010EE56E070EE56E60EC2CF071
:101D9000E652E6526DEC30F0F19E9380810E006EBB
:101DA0000F0E016E0F0E036E380E00260350012237
:101DB0000F0E036E800E005E0350015A810E026EFC
:101DC0000F0E036E0F0E056E380E0226055003220D
:101DD0000F0E056E800E025E0550035A02C0E9FF29
:101DE00003C0EAFFEFCF02F0029000C0E9FF01C09C
:101DF000EAFF02C0EFFFE56A800EE56E0F0EE56EAA
:101E0000810EE56E000EE56AB4EC30F0050EE126B9
:101E1000330ECD6E9D809F808A96899E8B800401B3
:101E200089859396929E9490040192959281800E5A
:101E3000006E040E016E0F0E036E380E0026035066
:101E400001220F0E036E800E005E0350015A800EB9
:101E5000026E040E036E0F0E056E380E022605503C
:101E600003220F0E056E800E025E0550035A02C05B
:101E7000E9FF03C0EAFFEFCF02F0029000C0E9FFE4
:101E800001C0EAFF02C0EFFF9382810E006E0F0EC9
:101E9000016E0F0E036E380E0026035001220F0E46
:101EA000036E800E005E0350015A810E026E0F0E0B
:101EB000036E0F0E056E380E0226055003220F0E1C
:101EC000056E800E025E0550035A02C0E9FF03C092
:101ED000EAFFEFCF02F0029200C0E9FF01C0EAFF83
:101EE00002C0EFFF9384810E006E0F0E016E0F0E85
:101EF000036E380E0026035001220F0E036E800E73
:101F0000005E0350015A810E026E0F0E036E0F0E1B
:101F1000056E380E0226055003220F0E056E800E48
:101F2000025E0550035A02C0E9FF03C0EAFFEFCF8B
:101F300002F0029400C0E9FF01C0EAFF02C0EFFF17
:101F40000C0E666E669A6698676A0401936B020EC1
:101F5000946F956B0A0E966F976B100E986F070E25
:101F6000996F9A919A83800EE56E040EE56EBA0E13
:101F7000E56E95EC2EF0030EE126800EE56E040E64
:101F8000E56EDB0EE56EE8EC24F0030EE126800E34
:101F9000E56E040EE56ECA0EE56EE8EC24F0030E65
:101FA000E1260401B56BB66BB76BB86BB991B99507
:101FB0009C6B9D6B9E6B9F6BA46BA56BA66BA76BBD
:101FC000AFEC37F0E4CF05F0E4CF03F0E4CF02F05C
:101FD000E4CF01F0E4CF00F0120000C0E5FF01C043
:101FE000E5FF02C0E5FF03C0E5FF04C0E5FF05C053
:101FF000E5FF06C0E5FF07C0E5FF08C0E5FF09C033
:10200000E5FF0AC0E5FF0BC0E5FF0CC0E5FF006A75
:10201000016A026A040E025CD8B0E8D101C003F084
:10202000012A100E035CD8B0E1D103018E2B100EF3
:102030008E5D01E38E6B03018E39E8441F0B036E46
:10204000046A150E0326050E042203C0E9FF04C02E
:10205000EAFFEFCF03F0070E8E15046E010E056E3A
:10206000000E066E045006E0E86CD8900536063681
:10207000010FFCE3076A03500516075006160550CA
:102080000610D880E866D890056A05360550D8A4B1
:10209000C1D703018E51020DF450046EF3CF03F04B
:1020A000E00E0324056E000E0420066E05C0E9FF55
:1020B00006C0EAFFEECF05F0EFCF06F003018BA1DB
:1020C0009DD0000E0324076E030E0420086E07C087
:1020D000E9FF08C0EAFFEECF07F0EFCF08F00650A7
:1020E000800FF36E0850800FF35C02E10750055C2F
:1020F00003E2056A066A60D0200E0326030E04225E
:1021000003C0E9FF04C0EAFFEECF03F0EFCF04F015
:102110000450800FF36E0650800FF35C02E105500F
:10212000035C04E205683F0E066E46D00750055C6E
:10213000096E085006580A6EE86A0ABEFF0E0B6E5A
:10214000E56E0B50E56E0A50E56E0950E56EE56AE6
:10215000E56A400EE56E000EE56A97EC1DF0096E2B
:10216000F3CF0AF0F4CF0BF0E9CF0CF0080EE12624
:102170000750035C076E08500458086EE86A08BEF2
:10218000FF0E036EE56E0350E56E0850E56E0750D6
:10219000E56E0C50E56E0B50E56E0A50E56E095089
:1021A000E56E7CEC25F0036EF3CF04F0080EE1261B
:1021B0000350056E0450066E03018A51800FF36EC2
:1021C0000650800FF35C02E10550895D03E3056A68
:1021D000066A14D003018951FF08036E3F0E8A5529
:1021E000046E0650800FF36E0450800FF35C02E122
:1021F0000350055C03E305683F0E066E03018E5134
:10220000020DF450046EF3CF03F0590E0326040EB2
:10221000042203C0E9FF04C0EAFFEECF03F0EFCFD2
:1022200004F00350055C036E04500658046ED88019
:1022300004AED89004E3041E036CD8B4042A022A26
:1022400003018A51800FF36E0450800FF35C02E1AA
:102250000350895DD8B0DED603018E51020DF450D3
:10226000086EF3CF07F0590E0726040E082207C0A8
:10227000E9FF08C0EAFF05C0EEFF06C0EFFF03015B
:102280008BA55AD003018E51020DF450086EF3CF86
:1022900007F0400E0724096E030E08200A6E09C0DD
:1022A000E9FF0AC0EAFFEECF0BF0EFCF0CF00B50C6
:1022B0000C10D8B441D0390E0726040E082207C0EE
:1022C000E9FF08C0EAFFEECF07F0EFCF08F00750B4
:1022D000055C036E08500658046E03101CE00450A1
:1022E000800F800F02E1010E035C076A07360C5075
:1022F000800F800F02E1010E0B5C0B6A0B3607505A
:102300000B1809E109C0E9FF0AC0EAFF03C0EEFFAC
:1023100004C0EFFF7FD603018E51020DF450046E0E
:10232000F3CF03F0400E0326030E042203C0E9FF9F
:1023300004C0EAFFEE6AEF6A03018BA343D00050AA
:102340000EE100C003F0002A046A8F0E0326030E7C
:10235000042203C0E9FF04C0EAFF420EEF6E00C092
:1023600003F0002A046A8F0E0326030E0422640E73
:1023700003018E25076E03C0E9FF04C0EAFF07C012
:10238000EFFF00C003F0002A046A8F0E0326030E3D
:1023900004220650076E03C0E9FF04C0EAFF07C02D
:1023A000EFFF00C003F0002A046A8F0E0326030E1D
:1023B00004220550076E03C0E9FF04C0EAFF07C00E
:1023C000EFFF28D68EC303F00650E56E0550E56E8C
:1023D000E56A0350E56E000EE56E520EE56E7E0E68
:1023E000E56E7AEC31F0070EE12614D602C001F05A
:1023F00000501DE003018BA31AD000C002F0002A98
:10240000036A8F0E0226030E032202C0E9FF03C0F7
:10241000EAFF0A0EEF6E0050E56E800EE56E030EC9
:10242000E56E8F0EE56EC7EC29F0040EE126015033
:10243000E4CF0CF0E4CF0BF0E4CF0AF0E4CF09F0E6
:10244000E4CF08F0E4CF07F0E4CF06F0E4CF05F0E6
:10245000E4CF04F0E4CF03F0E4CF02F0E4CF01F0E6
:10246000E4CF00F01200D9CFE5FFE1CFD9FF00C0E3
:10247000E5FF01C0E5FF02C0E5FF03C0E5FF04C0C2
:10248000E5FF05C0E5FF06C0E5FF07C0E5FF08C0A2
:10249000E5FF09C0E5FF0AC0E5FF0BC0E5FF020E3E
:1024A000DBCF00F0030EDBCF01F0040EDBCF02F038
:1024B000050EDBCF03F0060EDBCF04F002500A6EF0
:1024C0000150096E0050086EE56A110EE56E0A5063
:1024D000E56E0950E56E0850E56E800EE56E040E5F
:1024E000E56E230EE56E45EC29F0080EE12632C4B8
:1024F00005F033C406F0E86A040133BFFF0E076E2F
:102500000301F76F0650F66F0550F56FF46B03C0CB
:1025100005F004C006F0E86A04BEFF0E076E086E00
:1025200023C409F0E56AE56AE56A0950E56E0850DA
:10253000E56E0750E56E0650E56E0550E56E97ECCA
:102540001DF00301F06FF3CFF1F3F4CFF2F3E9CF15
:10255000F3F3080EE12604012451D8B4AFD004509F
:10256000800F800F02E1010E035C25E30401295175
:10257000800F7C0F08E1000E285D05E1000E275D4D
:1025800002E1000E265D17E204013151800FF36E67
:102590000301F751800FF35C0DE1F6510401305D4A
:1025A00009E10301F55104012F5D04E10301F45138
:1025B00004012E5D33E3D88004AED890D8A043D078
:1025C00004012951800F840F08E1000E285D05E108
:1025D000000E275D02E1010E265D35E30301F71DC4
:1025E0000A6EF61D096EF51D046EF41D036E032AB6
:1025F00004E1042A02E1094A0A2A0A50800FF36E14
:1026000004013151800FF35C08E13051095C05E1B0
:102610002F51045C02E12E51035C15E205500401C8
:102620002625036E06502721046E07502821096EC7
:10263000085029210A6E0350266F0450276F095055
:10264000286F0A50296F040126390F0B036E2739B2
:10265000046EF00B041A03262851E838F00B04121C
:1026600028390F0B096E29390A6EF00B0A1A092650
:10267000F00E0AB60A2624C40BF0E56AE56AE56A9C
:102680000B50E56E0A50E56E0950E56E0450E56E9C
:102690000350E56E97EC1DF0036EF3CF04F0F4CF1A
:1026A00009F0E9CF0AF0080EE12603500301F027F4
:1026B0000450F1230950F2230A50F3230401255159
:1026C000D8B465D02A51055C0301F86F04012B5181
:1026D00006580301F96F04012C5107580301FA6FE2
:1026E00004012D5108580301FB6F800F800F08E192
:1026F000010EFA5D05E1000EF95D02E1000EF85DE4
:1027000006E30301F869F969FA6BFB6B13D0030167
:10271000FB51800F810F08E1FF0EFA5D05E1000E0D
:10272000F95D02E1000EF85D05E20301F86BF96B5B
:10273000FA69FB690301F851F825036EF935046E57
:10274000FA35096EFB350A6E25C40BF0E56AE56AB9
:10275000E56A0B50E56E0A50E56E0950E56E0450CF
:10276000E56E0350E56E97EC1DF0036EF3CF04F0B9
:10277000F4CF09F0E9CF0AF0080EE1260350030177
:10278000F0270450F1230950F2230A50F323055097
:1027900004012A6F06502B6F07502C6F08502D6FC5
:1027A0000301F751800FF36E0301F351800FF35CC7
:1027B0000DE1F2510301F65D09E10301F15103015D
:1027C000F55D04E10301F0510301F45D11E2030141
:1027D000F45104012E6F0301F55104012F6F030121
:1027E000F6510401306F0301F7510401316F3AD003
:1027F0000301F71D066EF61D056EF51D046EF41D32
:10280000036E032A04E1042A02E1054A062A0301B1
:10281000F351800FF36E0650800FF35C08E1055012
:10282000F25D05E10450F15D02E10350F05D0AE262
:10283000035004012E6F04502F6F0550306F065067
:10284000316F10D00301F05104012E6F0301F151DB
:1028500004012F6F0301F2510401306F0301F351A2
:102860000401316FE56A110EE56E800EE56E040E0F
:10287000E56E230EE56E0250E56E0150E56E0050E8
:10288000E56E45EC29F0080EE126E4CF0BF0E4CF2D
:102890000AF0E4CF09F0E4CF08F0E4CF07F0E4CF8A
:1028A00006F0E4CF05F0E4CF04F0E4CF03F0E4CF8A
:1028B00002F0E4CF01F0E4CF00F0E4CFD9FF120042
:1028C00000C0E5FF01C0E5FF02C0E5FF03C0E5FF72
:1028D00004C0E5FF05C0E5FF06C0E5FF07C0E5FF52
:1028E00008C0E5FF09C0E5FF0AC0E5FFC2A204D0A9
:1028F00003018C5173EF16F003018D51D8B41BD135
:1029000003018C51020DF450016EF3CF00F0E00E84
:102910000026000E012200C0E9FF01C0EAFFEECF51
:1029200000F0EFCF01F0230E8C25026E036A0F0E2C
:10293000032202C0E9FF03C0EAFFEFCF02F002501A
:10294000FF0A01E152D002380F0B036E920E0324EE
:10295000046E056A0F0E0522066A920E03260F0EFC
:10296000062203C0E9FF06C0EAFFEFCF03F0070E1F
:102970000214066E010E076E065005E0E86CD89052
:102980000736010FFDE3071C066E031604C0E9FFBE
:1029900005C0EAFF03C0EFFF02380F0B036E890E7C
:1029A0000324046E056A0F0E0522066A890E0326AB
:1029B0000F0E062203C0E9FF06C0EAFFEFCF03F0C7
:1029C000070E0214066E010E076E065005E0E86C55
:1029D000D8900736010FFDE3071C066E031604C0EE
:1029E000E9FF05C0EAFF03C0EFFF03018C51020DB0
:1029F000F450046EF3CF03F0E00E0326000E042221
:102A000001340130066E0030056E063406320532A0
:102A10000634063205320550005C056E065001583A
:102A2000066EC3CF07F0086A075005260850062235
:102A3000C4CF07F0086A07500A6E096A09500526D4
:102A40000A50062203C0E9FF04C0EAFF05C0EEFFFA
:102A500006C0EFFF03018851010A01E06AD00301BB
:102A60008C51020DF450046EF3CF03F0E00E0324FA
:102A7000056E000E0420066E05C0E9FF06C0EAFFE1
:102A8000EECF00F0EFCF01F0000E0326030E04227C
:102A900003C0E9FF04C0EAFFEECF05F0EFCF06F078
:102AA0009C0E0526D8A006060150800FF36E065036
:102AB000800FF35C02E10550005C0EE20050640FF1
:102AC000056E000E0120066E03C0E9FF04C0EAFF98
:102AD00005C0EEFF06C0EFFF03018C51020DF4505C
:102AE000046EF3CF03F0200E0326030E042203C06E
:102AF000E9FF04C0EAFFEECF05F0EFCF06F0640E69
:102B00000526D8B0062A0650800FF36E0150800FBC
:102B1000F35C02E10050055C0CE29C0E0026D8A09C
:102B2000010603C0E9FF04C0EAFF00C0EEFF01C0D8
:102B3000EFFF03018D6B03018C2B100E8C5D01E305
:102B40008C6B03018C39E8441F0B006E016A150E73
:102B50000026050E012200C0E9FF01C0EAFFEFCF09
:102B600000F0070E8C15016E010E036E000E046E50
:102B7000015006E0E86CD89003360436010FFCE300
:102B8000056A005003160550041603500410D8803F
:102B9000E866D890036A03360350D8A4A2D09E0EEC
:102BA00003018C25006E016A030E012200C0E9FFBB
:102BB00001C0EAFFEFCF00F00044E844FC0B016ED7
:102BC0000128C26E230E8C25006E016A0F0E0122B1
:102BD00000C0E9FF01C0EAFFEFCF02F00250FF0A98
:102BE00001E17BD002380F0B006E920E0024016EC3
:102BF000036A0F0E0322046A920E00260F0E0422AF
:102C000000C0E9FF04C0EAFFEFCF00F0070E021496
:102C1000046E010E056E045005E0E86CD890053690
:102C2000010FFDE30550001201C0E9FF03C0EAFFF8
:102C300000C0EFFF380E006E0F0E016E02380F0B52
:102C4000036E046A0350002604500122380E056EFC
:102C50000F0E066E055003260650042203C0E9FF3E
:102C600004C0EAFFEFCF03F0070E0216010E046E58
:102C7000025005E0E86CD8900436010FFDE30450E3
:102C8000031200C0E9FF01C0EAFF03C0EFFF0F011C
:102C900045830000000045930F0144930BC0E5FFFE
:102CA000F2CF0BF0F29E4481000000000000000013
:102CB0000000000000000000000000000000000014
:102CC0000000000000000000000000000000000004
:102CD00044910BBEF28EE4CF0BF0C282010E0301D1
:102CE0008D6F03018C51E4CF0AF0E4CF09F0E4CFFB
:102CF00008F0E4CF07F0E4CF06F0E4CF05F0E4CF2E
:102D000004F0E4CF03F0E4CF02F0E4CF01F0E4CF2D
:102D100000F01200D9CFE5FFE1CFD9FF00C0E5FFF9
:102D200001C0E5FF02C0E5FF03C0E5FF04C0E5FF09
:102D300005C0E5FF06C0E5FF07C0E5FF08C0E5FFE9
:102D400009C0E5FF0AC0E5FF020EDBCF00F0030E6D
:102D5000DBCF01F0040EDBCF02F0036A046A15EC4E
:102D600034F0056EFE0A01E077D0E8EC2EF015ECA9
:102D700034F0066E030E065CD8A05AD0060E065C30
:102D8000D8B056D0FD0E0624076EFA6AFB6A0734E7
:102D9000FA36E834FA36FC0BA80FE56E2D0EFA224F
:102DA000000EFB22E450F96EDAEF16F0ECEF16F0AD
:102DB00005EF17F00050090F076E000E0120086E96
:102DC000000E022007C0E9FF08C0F3FF79EC36F0DF
:102DD000036EF3CF04F02CD00050090F076E000EE5
:102DE0000120086E000E0220096E020E0726000E5A
:102DF0000822092207C0E9FF08C0F3FF095079EC57
:102E000036F0036EF3CF04F013D00050070F076EB7
:102E1000000E0120086E000E022007C0E9FF08C066
:102E2000F3FFEFEC36F0010B076E07C003F0046A06
:102E300006C007F00450E56E0350E56EE56A0750E2
:102E4000E56E000EE56E190EE56EF00EE56E7AEC9D
:102E500031F0070EE12640D1070E055CD8B03CD119
:102E6000FA6AFB6A0534FA36E834FA36FC0B7E0F50
:102E7000E56E2E0EFA22000EFB22E450F96E4DEFA5
:102E800017F068EF17F07AEF17F08CEF17F0BEEF3E
:102E900017F0F4EF17F013EF18F00050270F036E40
:102EA000000E0120046E000E0220E56E0450E56E57
:102EB0000350E56E85EC18F0030EE126020EE56E78
:102EC00000C0E9FF01C0F3FF025090EC37F004D1DD
:102ED0000050370F036E000E0120046E000E02201A
:102EE000E56E0450E56E0350E56E59EC1CF0030EE0
:102EF000E126F2D00050480F036E000E0120046E50
:102F0000000E0220E56E0450E56E0350E56E59ECAC
:102F10001CF0030EE126E0D00050090F036E000EF6
:102F20000120046E000E0220056E15EC34F00A6ECE
:102F3000096AE56A0AC0F4FF03C0E9FF04C0F3FFB1
:102F4000055057EC37F015EC34F0086A09260850A4
:102F50000A2209C0E5FF0AC0F4FF03C0E9FF04C06C
:102F6000F3FF055057EC37F0010EE56E00C0E9FFA6
:102F700001C0F3FF025090EC37F0AED00050090FC3
:102F8000036E000E0120046E000E0220056E020E7C
:102F90000326000E0422052215EC34F00A6E096A9D
:102FA000E56A0AC0F4FF03C0E9FF04C0F3FF05505F
:102FB00057EC37F015EC34F0086A092608500A225D
:102FC00009C0E5FF0AC0F4FF03C0E9FF04C0F3FF36
:102FD000055057EC37F0E56A00C0E9FF01C0F3FF88
:102FE000025090EC37F078D00050070F036E000EBF
:102FF0000120046E000E0220056E15EC34F0010B6A
:10300000F46E03C0E9FF04C0F3FF0550EFEC36F0A7
:10301000FE0BF410E56E03C0E9FF04C0F3FF05509A
:1030200090EC37F059D015EC34F0066E00501A0FC2
:10303000036E000E0120046E000E0220056E035088
:103040000C0F076E000E0420086E000E0520096E9E
:103050000650D880E866D8900A6A0A360A50D880A6
:10306000E866D8900A6A0A360A50010BF46E07C067
:10307000E9FF08C0F3FF0950EFEC36F0FE0BF41047
:10308000E56E07C0E9FF08C0F3FF095090EC37F088
:103090000650010A21E1080E0326000E0422052233
:1030A000E56AF46AF66AF76A03C0E9FF04C0F3FF51
:1030B0000550DEEC36F0270E0026000E012202221B
:1030C000E56AE56A0250E56E0150E56E0050E56E76
:1030D00008EC23F0050EE126E4CF0AF0E4CF09F076
:1030E000E4CF08F0E4CF07F0E4CF06F0E4CF05F03A
:1030F000E4CF04F0E4CF03F0E4CF02F0E4CF01F03A
:10310000E4CF00F0E4CFD9FF1200D9CFE5FFE1CF43
:10311000D9FF00C0E5FF01C0E5FF02C0E5FF03C025
:10312000E5FF04C0E5FF05C0E5FF06C0E5FF07C0F9
:10313000E5FF08C0E5FF09C0E5FF0AC0E5FF0BC0D9
:10314000E5FF020EDBCF00F0030EDBCF01F0040E33
:10315000DBCF02F0036A046A15EC34F0056EFE0A58
:1031600001E063D0E8EC2EF015EC34F0066E06506A
:103170000AE00650010A19E00650020A28E006504B
:103180000A0A37E040D00050060F076E000E0120FB
:10319000086E000E022007C0E9FF08C0F3FF79ECBB
:1031A00036F0036EF3CF04F02ED000500C0F076EF4
:1031B000000E0120086E000E022007C0E9FF08C0C3
:1031C000F3FF79EC36F0036EF3CF04F01CD000501F
:1031D0000E0F076E000E0120086E000E022007C0C1
:1031E000E9FF08C0F3FF79EC36F0036EF3CF04F08B
:1031F0000AD000C0E9FF01C0F3FF025079EC36F0BD
:10320000036EF3CF04F00450E56E0350E56EE56AFB
:103210000650E56E000EE56E5D0EE56EC80EE56EBD
:103220007AEC31F0070EE126A1D005500CE00550F4
:10323000010A32E00550020A01E157D005500A0A9E
:1032400001E17CD093D00050060F056E000E0120E6
:10325000066E000E0220076E15EC34F00B6E0A6A43
:10326000E56A0BC0F4FF05C0E9FF06C0F3FF075095
:1032700057EC37F015EC34F0096A0A2609500B2296
:103280000AC0E5FF0BC0F4FF05C0E9FF06C0F3FF6D
:10329000075057EC37F06AD000500C0F056E000E47
:1032A0000120066E000E0220076E15EC34F00B6E46
:1032B0000A6AE56A0BC0F4FF05C0E9FF06C0F3FF28
:1032C000075057EC37F015EC34F0096A0A2609501C
:1032D0000B220AC0E5FF0BC0F4FF05C0E9FF06C0E2
:1032E000F3FF075057EC37F041D000500E0F056E3A
:1032F000000E0120066E000E0220076E15EC34F061
:103300000B6E0A6AE56A0BC0F4FF05C0E9FF06C050
:10331000F3FF075057EC37F015EC34F0096A0A2632
:1033200009500B220AC0E5FF0BC0F4FF05C0E9FFFE
:1033300006C0F3FF075057EC37F018D015EC34F007
:10334000046E036A15EC34F0066A03260650042264
:103350000450E56E0350E56E0250E56E0150E56ED7
:103360000050E56E21EC33F0050EE126E4CF0BF0C2
:10337000E4CF0AF0E4CF09F0E4CF08F0E4CF07F09F
:10338000E4CF06F0E4CF05F0E4CF04F0E4CF03F09F
:10339000E4CF02F0E4CF01F0E4CF00F0E4CFD9FFB6
:1033A000120000C0E5FF01C0E5FF02C0E5FF03C059
:1033B000E5FF99EC26F060EC14F0ABEC23F0EBECBD
:1033C00033F0006EF3CF01F0F4CF02F0E9CF03F059
:1033D00004013451005E3551015A3651025A3751B9
:1033E000035A039E3F0E035C08E1FF0E025C05E1F9
:1033F000FF0E015C02E1FF0E005CD8B010D1EBECD7
:1034000033F0F3CF01F0F4CF02F0E9CF03F0880FEF
:103410000401346F130E0120356F000E0220366F49
:10342000000E0320376FA3EC1FF0006E0050D8B4DD
:10343000EDEC0FF004C0E5FFF2CF04F0F29E0401C2
:10344000AD510301CE6F0401AE510301CF6F0401F2
:10345000AF510301D06F0401B0510301D16F0401DA
:10346000B1510301D26F0401B2510301D36F0401C2
:10347000B3510301D46F0401B4510301D56F0401AA
:10348000B5510301D66F0401B6510301D76F040192
:10349000B7510301D86F0401B8510301D96F04017A
:1034A000B9510301DA6F0401B16BB26BB36BB46B4A
:1034B00004BEF28EE4CF04F0800EE56E040EE56EDD
:1034C000930EE56E36EC09F0030EE1269EC41DF561
:1034D0009FC41EF505011E51800F7C0F02E1000EF6
:1034E0001D5D04E305011D69030E1E6F05011E51DC
:1034F000800F840F02E1010E1D5D05E2010E050142
:103500001D6FFC0E1E6F05011E51800F800F02E122
:10351000010E1D5D10E305011E51800FF36E0401C5
:103520009751800FF35C03E1965105011D5D03E2A5
:1035300005011D6B1E6BD88005011EAFD89015E3E9
:103540000401971D016E961D006E004A012A01506C
:10355000800FF36E05011E51800FF35C02E11D51D7
:10356000005C03E205011D6B1E6B04019AA309D0E8
:10357000B9A507D0D88005011EAFD89002E31D6B16
:103580001E6BD88005011EAFD89007E31D51FF0FB9
:10359000006E030E1E21016E04D01DC500F01EC575
:1035A00001F000C01FF501C020F505011F51020BFD
:1035B000E840010BE838E844F46E6650DF0BF41085
:1035C000666E1F51010B010BE838F46E6650EF0B6D
:1035D000F410666E20352031016E1F31006E01340B
:1035E000013200320050676ED88005011EAFD890BE
:1035F00002E3898E01D0899E0401AC51E56EAB5186
:10360000E56EAA51E56EA951E56E000EE56E440E19
:10361000E56E640EE56E7AEC31F0070EE126E4CF3C
:1036200003F0E4CF02F0E4CF01F0E4CF00F01200A9
:10363000800EE56E030EE56E200EE56E3AEC2FF07F
:10364000030EE126800EE56E030EE56E000EE56EBC
:103650003AEC2FF0030EE126800EE56E030EE56EC8
:10366000220EE56E3AEC2FF0030EE126800EE56E99
:10367000030EE56E020EE56E3AEC2FF0030EE12626
:10368000800EE56E030EE56E240EE56E3AEC2FF02B
:10369000030EE126800EE56E030EE56E040EE56E68
:1036A0003AEC2FF0030EE126800EE56E030EE56E78
:1036B000260EE56E3AEC2FF0030EE126800EE56E45
:1036C000030EE56E060EE56E3AEC2FF0030EE126D2
:1036D000800EE56E030EE56E280EE56E3AEC2FF0D7
:1036E000030EE126800EE56E030EE56E080EE56E14
:1036F0003AEC2FF0030EE126800EE56E030EE56E28
:103700002A0EE56E3AEC2FF0030EE126800EE56EF0
:10371000030EE56E0A0EE56E3AEC2FF0030EE1267D
:10372000800EE56E030EE56E2C0EE56E3AEC2FF082
:10373000030EE126800EE56E030EE56E0C0EE56EBF
:103740003AEC2FF0030EE126800EE56E030EE56ED7
:103750002E0EE56E3AEC2FF0030EE126800EE56E9C
:10376000030EE56E0E0EE56E3AEC2FF0030EE12629
:10377000800EE56E030EE56E300EE56E3AEC2FF02E
:10378000030EE126800EE56E030EE56E100EE56E6B
:103790003AEC2FF0030EE126800EE56E030EE56E87
:1037A000320EE56E3AEC2FF0030EE126800EE56E48
:1037B000030EE56E120EE56E3AEC2FF0030EE126D5
:1037C000800EE56E030EE56E340EE56E3AEC2FF0DA
:1037D000030EE126800EE56E030EE56E140EE56E17
:1037E0003AEC2FF0030EE126800EE56E030EE56E37
:1037F000360EE56E3AEC2FF0030EE126800EE56EF4
:10380000030EE56E160EE56E3AEC2FF0030EE12680
:10381000800EE56E030EE56E380EE56E3AEC2FF085
:10382000030EE126800EE56E030EE56E180EE56EC2
:103830003AEC2FF0030EE126800EE56E030EE56EE6
:103840003A0EE56E3AEC2FF0030EE126800EE56E9F
:10385000030EE56E1A0EE56E3AEC2FF0030EE1262C
:10386000800EE56E030EE56E3C0EE56E3AEC2FF031
:10387000030EE126800EE56E030EE56E1C0EE56E6E
:103880003AEC2FF0030EE126800EE56E030EE56E96
:103890003E0EE56E3AEC2FF0030EE126800EE56E4B
:1038A000030EE56E1E0EE56E3AEC2FF0030EE126D8
:1038B0001200D9CFE5FFE1CFD9FF00C0E5FF01C07D
:1038C000E5FF02C0E5FF03C0E5FF04C0E5FF05C05A
:1038D000E5FF06C0E5FF07C0E5FF08C0E5FF020EF3
:1038E000DBCF00F0030EDBCF01F0040EDBCF02F0E4
:1038F000036A046A15EC34F0056EFE0A01E075D027
:10390000E8EC2EF015EC34F0066E040E065CD8B030
:103910005AD0FA6AFB6A0634FA36E834FA36FC0BF7
:10392000300FE56E390EFA22000EFB22E450F96EDC
:10393000A0EF1CF0ACEF1CF0BFEF1CF0D2EF1CF0BE
:1039400000C0E9FF01C0F3FF0250EFEC36F0076E54
:1039500007C003F0046A37D00050010F076E000E55
:103960000120086E000E022007C0E9FF08C0F3FF27
:10397000EFEC36F0076E07C003F0046A24D0005065
:10398000020F076E000E0120086E000E022007C015
:10399000E9FF08C0F3FFEFEC36F0076E07C003F055
:1039A000046A11D000500F0F076E000E0120086E40
:1039B000000E022007C0E9FF08C0F3FF79EC36F0E3
:1039C000036EF3CF04F00450E56E0350E56EE56A34
:1039D0000650E56E000EE56E4A0EE56EF00EE56EE1
:1039E0007AEC31F0070EE1268DD0040E055CD8B0DC
:1039F00089D0FA6AFB6A0534FA36E834FA36FC0BE9
:103A0000100FE56E3A0EFA22000EFB22E450F96E1A
:103A100010EF1DF01DEF1DF048EF1DF05EEF1DF0E3
:103A200015EC34F0036E03C0E5FF00C0E9FF01C0F0
:103A3000F3FF025090EC37F065D00050010F036E99
:103A4000000E0120046E000E0220056E15EC34F00D
:103A5000066E06C0E5FF03C0E9FF04C0F3FF055092
:103A600090EC37F00650D8A44DD00050030F036EF1
:103A7000000E0120046E000E0220E56AF46AF66A68
:103A8000F76A03C0E9FF04C0F3FFDEEC36F03AD07A
:103A90000050020F036E000E0120046E000E022083
:103AA000056E15EC34F0066E06C0E5FF03C0E9FFB5
:103AB00004C0F3FF055090EC37F024D00F0E002621
:103AC000000E0122022215EC34F0066E056AE56A4A
:103AD00006C0F4FF00C0E9FF01C0F3FF025057EC3D
:103AE00037F015EC34F0046A05260450062205C0B0
:103AF000E5FF06C0F4FF00C0E9FF01C0F3FF02507C
:103B000057EC37F0E4CF08F0E4CF07F0E4CF06F04D
:103B1000E4CF05F0E4CF04F0E4CF03F0E4CF02F00B
:103B2000E4CF01F0E4CF00F0E4CFD9FF1200D9CF09
:103B3000E5FFE1CFD9FF00C0E5FF01C0E5FF02C00E
:103B4000E5FF03C0E5FF04C0E5FF05C0E5FF06C0D3
:103B5000E5FF07C0E5FF020EDBCF00F0030EDBCF71
:103B600001F0040EDBCF02F0050EDBCF03F0060EF2
:103B7000DBCF04F0070EDBCF05F0080EDBCF06F03D
:103B8000090EDBCF07F000500301FC6F0150FD6F01
:103B90000250FE6F0350FF6F04500501006F055087
:103BA000016F0650026F0750036F0301FC510501BE
:103BB0000203F4CF01F0F3CF00F000500501066FCF
:103BC0000150076F0301FC5105010003F4CF01F020
:103BD000F3CF00F000500501046F0150056F0301A1
:103BE000FF5105010003F3CF00F005010751002646
:103BF0000050076F0301FE5105010103F3CF01F0EF
:103C00000150002600500501076F0301FE51050118
:103C10000003F4CF01F0F3CF00F0050106510026B8
:103C2000075101220050066F0150076F0301FD513B
:103C300005010103F4CF03F0F3CF02F00250002698
:103C40000350012200500501066F0150076F030168
:103C5000FD5105010203F3CF00F0005005010B6F89
:103C60000301FD5105010003F4CF01F0F3CF00F093
:103C700000500501096F01500A6F0301FC51050155
:103C80000303F3CF00F0005005010F6F0301FC5157
:103C900005010103F4CF01F0F3CF00F0005005015E
:103CA0000D6F01500E6F0501086B05010C6B0501CE
:103CB000085105010425006E050109510501052182
:103CC000016E05010A5105010621026E05010B5125
:103CD00005010721036E0050046F0150056F02506B
:103CE000066F0350076F05010C5105010425006E96
:103CF00005010D5105010521016E05010E5105015A
:103D00000621026E05010F5105010721036E03C054
:103D1000E9FF02C0F4FF01C0F3FF0050E4CF07F059
:103D2000E4CF06F0E4CF05F0E4CF04F0E4CF03F0F5
:103D3000E4CF02F0E4CF01F0E4CF00F0E4CFD9FF0C
:103D4000120000C0E5FF01C0E5FF03018551D8B4B2
:103D5000F5D0A3A81DD0A4A81BD005012D510501A5
:103D60002A1905E13BEC37F005012A6BE7D0000E7C
:103D700005012D25006E016A040E012200C0E9FF35
:103D800001C0EAFFEFCF26F52D2B26C573FFD6D055
:103D9000A4AAD4D071A205D005012B813BEC37F049
:103DA000CDD071A405D005012B833BEC37F0C6D0F4
:103DB00071A03ED074CF26F5800E03018611050157
:103DC000261904E105012B897196B8D00501265109
:103DD00004E026510301861927E105012B9971960C
:103DE0000501265103E005012B9702D005012B8721
:103DF00026C52FF528C530F5050128050501316FC9
:103E0000600E05013025006E016A000E012200C01F
:103E1000E9FF01C0EAFF26C5EFFF302B3051800AD1
:103E200002E10501306B8AD005012B99718686D09D
:103E300074CF26F505012BA919D0800E0301861138
:103E40000501261911E1899AA39A719805012A5151
:103E500004E1736A3BEC37F007D000C473FF010E36
:103E600005012D6FA3886AD0718668D0050126519F
:103E700005012F2705013051050131191BE105010D
:103E80002F510CE130C528F505012BB712D0899AC6
:103E9000A39A7198736A3BEC37F00BD005012B8520
:103EA0002BB707D0899AA39A7198010E736E3BECD9
:103EB00037F044D0050130510501291908E1050109
:103EC00029510501281903E03BEC37F037D028C50C
:103ED00000F0016A004A012AE56A800EE56E015091
:103EE000E56E0050E56EB9EC2AF0006E040EE12696
:103EF00000500501276F050130190CE11F0E050167
:103F000026150501316F312B312B05012851050193
:103F10003127319F30C500F00501302B016A600E5A
:103F20000026000E012200C0E9FF01C0EAFF26C5FD
:103F3000EFFF3051800A02E10501306BE4CF01F060
:103F4000E4CF00F0120000C0E5FF01C0E5FF02C0B1
:103F5000E5FF03C0E5FF04C0E5FF05C0E5FF06C0BF
:103F6000E5FF07C0E5FF08C0E5FF09C0E5FF0AC09F
:103F7000E5FF006A016A040E015CD8B0B3D0AE0E52
:103F800003019C25026E036A030E032202C0E9FFAF
:103F900003C0EAFFEFCF02F00250FF0A01E19BD01D
:103FA00003019C39E8441F0B026E190E0224036EB4
:103FB000046A050E042203C0E9FF04C0EAFFEFCF44
:103FC00003F0070E9C15046E010E056E000E066EC2
:103FD000045006E0E86CD89005360636010FFCE385
:103FE000076A055003160650071603500710D880BD
:103FF000E866D890036A03360350D880E866D89004
:10400000036A0336076A170E0226050E072202C04E
:10401000E9FF07C0EAFFEFCF08F008C009F00A6A1D
:10402000095005160A50061605500610D880E86695
:10403000D890056A05360550D880E866D890056A9C
:1040400005360350051801E146D0035012E0010E79
:10405000056E045005E0E86CD8900536010FFDE3CD
:104060000550081202C0E9FF07C0EAFF08C0EFFFD1
:1040700017D002C0E9FF07C0EAFFEFCF05F0010E3D
:10408000066E045005E0E86CD8900636010FFDE39B
:10409000061C051602C0E9FF07C0EAFF05C0EFFFD6
:1040A000035003E1036A032A01D0036A9CC304F0AE
:1040B000E56A0350E56EE56A0450E56E000EE56EB4
:1040C000610EE56E5C0EE56E7AEC31F0070EE126CE
:1040D000012A01C000F003019C2B100E9C5DD8A0AA
:1040E0004AD79C6B0050E4CF0AF0E4CF09F0E4CF4C
:1040F00008F0E4CF07F0E4CF06F0E4CF05F0E4CF1A
:1041000004F0E4CF03F0E4CF02F0E4CF01F0E4CF19
:1041100000F01200D9CFE5FFE1CFD9FF00C0E5FFE5
:1041200001C0E5FF02C0E5FF03C0E5FF04C0E5FFF5
:1041300005C0E5FF06C0E5FF07C0E5FF08C0E5FFD5
:1041400009C0E5FF0AC0E5FF0BC0E5FF0CC0E5FFB5
:104150000DC0E5FF0EC0E5FF0FC0E5FF020EDBCF8F
:1041600000F0030EDBCF01F0040EDBCF02F0050EF2
:10417000DBCF03F0060EDBCF04F0070EDBCF05F03C
:10418000080EDBCF06F0200E076E086A06C009F0A5
:104190000A6A0B6A0C6AE56AE56AE56A0950E56E27
:1041A0000350E56E0250E56E0150E56E0050E56E7D
:1041B0004BEC24F00D6E080EE126300E0D263A0E63
:1041C0000D5C05E30D500E6E270E0E240D6EFF0ED6
:1041D00007260822600E07240E6E030E08200F6EBD
:1041E0000EC0E9FF0FC0EAFF0DC0EFFF0C50E56EF7
:1041F0000B50E56E0A50E56E0950E56E0350E56E12
:104200000250E56E0150E56E0050E56E7CEC25F045
:10421000006EF3CF01F0F4CF02F0E9CF03F0080E07
:10422000E1260050011002100310D8A4AFD707C038
:1042300000F008C001F004C002F005C003F000C0A7
:1042400004F001C005F0004A012A600E0426030EA6
:10425000052204C0E9FF05C0EAFFEFCF04F002C069
:10426000E9FF03C0EAFF04C0EFFF024A032A000E81
:10427000015C02E1200E005CE2E302C0E9FF03C042
:10428000EAFF000EEF6AE4CF0FF0E4CF0EF0E4CFC8
:104290000DF0E4CF0CF0E4CF0BF0E4CF0AF0E4CF64
:1042A00009F0E4CF08F0E4CF07F0E4CF06F0E4CF64
:1042B00005F0E4CF04F0E4CF03F0E4CF02F0E4CF64
:1042C00001F0E4CF00F0E4CFD9FF120000C0E5FF19
:1042D00001C0E5FF02C0E5FF03C0E5FF9EA0B9D025
:1042E000006A81B2002A0050010BF46E04019B5158
:1042F000FE0BF4109B6F006A040180B1002A00508D
:10430000010A08E10401B56BB66BB76BB86BB981F4
:10431000B98502D00401B995006A04019BB1002A55
:10432000016A9BB5012A0050011801E18ED0006A94
:1043300004019BB1002A0050010BE844E844F46EEC
:104340009B51FB0BF4109B6FAD51B15D006EAE51F4
:10435000B259016EAF51B359026EB051B459036EE8
:104360000050B16F0150B26F0250B36F0350B46F81
:104370000F0133510401AD6F0F0134510401AE6FD1
:104380000F0135510401AF6F0F0136510401B06FB9
:104390000F0133510026345101223551022236518A
:1043A000032200500401B16F0150B26F0250B36F8D
:1043B0000350B46F006A81B4002A0050010BE84436
:1043C000F46E9B51FD0BF4109B6F006A9BB1002AA9
:1043D000016A9BB3012A0150D880E866D890016A2F
:1043E00001360150001A005019E0B5C400F0B6C4FF
:1043F00001F0B7C402F0B8C403F0002A04E3012AB4
:1044000002E3024A032A00500401B56F0150B66F5F
:104410000250B76F0350B86FB98317D0B5C400F01E
:10442000B6C401F0B7C402F0B8C403F0FF0E002612
:1044300001220222032200500401B56F0150B66F21
:104440000250B76F0350B86FB993CF68C30ECE6EEA
:104450009E90E4CF03F0E4CF02F0E4CF01F0E4CF8C
:1044600000F01200434D20256C640A0043002563D0
:104470000000D9CFE5FFE1CFD9FF00C0E5FF01C0C3
:10448000E5FF02C0E5FF03C0E5FF04C0E5FF05C08E
:10449000E5FF06C0E5FF07C0E5FF08C0E5FF09C06E
:1044A000E5FF0AC0E5FF0BC0E5FF0CC0E5FF0DC04E
:1044B000E5FF020EDBCF00F0030EDBCF01F0040EB0
:1044C000DBCF02F0050EDBCF03F0060EDBCF04F0EE
:1044D000070EDBCF05F0080EDBCF06F0090EDBCFB1
:1044E00007F0D88003AED890086A083608500FE06D
:1044F000031C0C6E021C0B6E011C0A6E001C096E64
:10450000092A0DE10A2A0BE10B4A0C2A08D000C047
:1045100009F001C00AF002C00BF003C00CF0D88013
:1045200007AED890006A003600500FE0071C0D6EF1
:10453000061C036E051C026E041C016E012A0DE1AF
:10454000022A0BE1034A0D2A08D004C001F005C07D
:1045500002F006C003F007C00DF00D50E56E0350E9
:10456000E56E0250E56E0150E56E0C50E56E0B50A5
:10457000E56E0A50E56E0950E56E7CEC25F0016EA3
:10458000F3CF02F0F4CF03F0E9CF04F0080EE126F8
:104590000050081A085016E0041C076E031C066E33
:1045A000021C056E011C006E002A04E1052A02E1CE
:1045B000064A072A07C0E9FF06C0F4FF05C0F3FF5B
:1045C000005007D004C0E9FF03C0F4FF02C0F3FFAE
:1045D0000150E4CF0DF0E4CF0CF0E4CF0BF0E4CFCA
:1045E0000AF0E4CF09F0E4CF08F0E4CF07F0E4CF1D
:1045F00006F0E4CF05F0E4CF04F0E4CF03F0E4CF1D
:1046000002F0E4CF01F0E4CF00F0E4CFD9FF1200D4
:10461000D9CFE5FFE1CFD9FF00C0E5FF01C0E5FF3D
:1046200002C0E5FF03C0E5FF04C0E5FF05C0E5FFEC
:1046300006C0E5FF07C0E5FF08C0E5FF09C0E5FFCC
:104640000AC0E5FF0BC0E5FF0CC0E5FF0DC0E5FFAC
:10465000020EDBCF00F0030EDBCF01F0040EDBCF48
:1046600002F0050EDBCF03F0060EDBCF04F003C033
:10467000E5FF04C0F4FF00C0E9FF01C0F3FF0250F2
:1046800057EC37F00050020F056E000E0120066E49
:10469000000E0220076EE86A04BEFF0E086E096E67
:1046A00008400C6E0C4209400D6E0D42C00E0D16F6
:1046B0000C140C180D120C1A0450E840E8403F0B83
:1046C0000C1203400A6E0A4204400B6E0B42C00EED
:1046D0000B160A140A180B120A1A0AC0E5FF0BC0BF
:1046E000F4FF0CC0F6FF0DC0F7FF05C0E9FF06C0E0
:1046F000F3FF0750DEEC36F0080E0026000E012214
:104700000222E56AF46AF66AF76A00C0E9FF01C0AE
:10471000F3FF0250DEEC36F0E4CF0DF0E4CF0CF006
:10472000E4CF0BF0E4CF0AF0E4CF09F0E4CF08F0D7
:10473000E4CF07F0E4CF06F0E4CF05F0E4CF04F0D7
:10474000E4CF03F0E4CF02F0E4CF01F0E4CF00F0D7
:10475000E4CFD9FF120000C0E5FF01C0E5FF02C0B1
:10476000E5FF03C0E5FF04C0E5FF05C0E5FF006A03
:10477000AE0E0024016E026A030E022201C0E9FFA0
:1047800002C0EAFFEFCF01F00150FF0A01E171D052
:1047900001380F0B026E036A800E02260F0E0322F1
:1047A00002C0E9FF03C0EAFFEFCF02F0070E0116D7
:1047B000010E036E000E046E015006E0E86CD89006
:1047C00003360436010FFCE3056A02500316055058
:1047D000041603500410D880E866D890036A0336A4
:1047E000035024E10038E8441F0B016E026A190EE1
:1047F0000126050E022201C0E9FF02C0EAFFEFCF49
:1048000003F0070E0014046E010E056E045005E05F
:10481000E86CD8900536010FFDE30550031201C086
:10482000E9FF02C0EAFF03C0EFFF23D00038E844ED
:104830001F0B016E026A190E0126050E022201C02D
:10484000E9FF02C0EAFFEFCF03F0070E0014046E89
:10485000010E056E045005E0E86CD8900536010F96
:10486000FDE3051C031601C0E9FF02C0EAFF03C017
:10487000EFFF002A100E005CD8A07AD7E4CF05F035
:10488000E4CF04F0E4CF03F0E4CF02F0E4CF01F092
:10489000E4CF00F01200D9CFE5FFE1CFD9FF00C08F
:1048A000E5FF01C0E5FF02C0E5FF03C0E5FF04C06E
:1048B000E5FF05C0E5FF06C0E5FF07C0E5FF08C04E
:1048C000E5FF09C0E5FF0AC0E5FF020EDBCF00F0FF
:1048D000030EDBCF01F0040EDBCF02F0050EDBCFC1
:1048E00003F0060EDBCF04F0070EDBCF05F0080E59
:1048F000DBCF06F0090EDBCF07F0086A0450051085
:104900000610071005E1E968F468F368E86847D025
:10491000096A0750800BE8440A6E0A501BE10450F4
:1049200004260536063607360750035C08E10650B4
:10493000025C05E10550015C02E10450005C06E206
:10494000D890073206320532043204D0092A09C051
:1049500008F0DFD70750035C08E10650025C05E170
:104960000550015C02E10450005C08E30450005E65
:104970000550015A0650025A0750035AD890073280
:1049800006320532043208C009F008060950E2E197
:1049900003C0E9FF02C0F4FF01C0F3FF0050E4CF01
:1049A0000AF0E4CF09F0E4CF08F0E4CF07F0E4CF59
:1049B00006F0E4CF05F0E4CF04F0E4CF03F0E4CF59
:1049C00002F0E4CF01F0E4CF00F0E4CFD9FF120011
:1049D000D9CFE5FFE1CFD9FF00C0E5FF01C0E5FF7A
:1049E00002C0E5FF03C0E5FF04C0E5FF05C0E5FF29
:1049F00006C0E5FF07C0E5FF020EDBCF00F0030EA7
:104A0000DBCF01F0040EDBCF02F000500B0F036E82
:104A1000000E0120046E000E0220E56AF46AF66AB8
:104A2000F76A03C0E9FF04C0F3FFDEEC36F0005084
:104A3000070F036E000E0120046E000E0220056EAB
:104A40000050030F066E000E0120076E000E0220BC
:104A5000E56AF46AF66AF76A06C0E9FF07C0F3FF81
:104A6000DEEC36F0E56AF46AF66AF76A03C0E9FF3D
:104A700004C0F3FF0550DEEC36F00050010F036E6A
:104A8000000E0120046E000E0220056E0050020F81
:104A9000066E000E0120076E000E0220E56A06C0B9
:104AA000E9FF07C0F3FF90EC37F0E56A03C0E9FFC8
:104AB00004C0F3FF055090EC37F0E56A00C0E9FF51
:104AC00001C0F3FF025090EC37F0E4CF07F0E4CFE1
:104AD00006F0E4CF05F0E4CF04F0E4CF03F0E4CF38
:104AE00002F0E4CF01F0E4CF00F0E4CFD9FF1200F0
:104AF00025642025640A0000D9CFE5FFE1CFD9FF66
:104B000000C0E5FF01C0E5FF02C0E5FF03C0E5FF0F
:104B100004C0E5FF05C0E5FF06C0E5FF07C0E5FFEF
:104B200008C0E5FF09C0E5FF0AC0E5FF0BC0E5FFCF
:104B30000CC0E5FF0DC0E5FF020EDBCF00F0030E59
:104B4000DBCF01F0040EDBCF02F0050EDBCF03F06C
:104B5000060EDBCF04F0070EDBCF05F0080EDBCF2F
:104B600006F0090EDBCF07F0086A096A0A6A0B6AC9
:104B7000200E0C6E0350800BE8440D6E0050002692
:104B80000136023603360850082609360A360B3637
:104B90000D50D8A4088007500B5C08E106500A5C51
:104BA00005E10550095C02E10450085C09E304508A
:104BB000085E0550095A06500A5A07500B5A0080E1
:104BC0000C040D6E0DC00CF00D50D4E103C0E9FFD4
:104BD00002C0F4FF01C0F3FF0050E4CF0DF0E4CFBA
:104BE0000CF0E4CF0BF0E4CF0AF0E4CF09F0E4CF0F
:104BF00008F0E4CF07F0E4CF06F0E4CF05F0E4CF0F
:104C000004F0E4CF03F0E4CF02F0E4CF01F0E4CF0E
:104C100000F0E4CFD9FF120000C0E5FF01C0E5FFBE
:104C200003C0E5FF04C0E5FF05C0E5FF06C0E5FFE2
:104C300007C0E5FF08C0E5FF09C0E5FF0AC0E5FFC2
:104C40000BC0E5FF13C500F014C501F00501133FCB
:104C500001D0142B0050E56E2DEC37F0E652076EB4
:104C6000046A056A066A13C500F014C501F005015F
:104C7000133F01D0142B0050E56E2DEC37F0E652B7
:104C80000B6A0A6E086A0850041205120A500612CE
:104C90000B50071213C500F014C501F00501133FB6
:104CA00001D0142B0050E56E2DEC37F0E652036E68
:104CB000006A03C001F0E86A03BEFF0E086E096EC9
:104CC0000050041201500512085006120950071234
:104CD00013C500F014C501F00501133F01D0142BDA
:104CE0000050E56E2DEC37F0E652016A04120150D7
:104CF00005120612071207C0E9FF06C0F4FF05C03F
:104D0000F3FF0450E4CF0BF0E4CF0AF0E4CF09F056
:104D1000E4CF08F0E4CF07F0E4CF06F0E4CF05F0ED
:104D2000E4CF04F0E4CF03F0E4CF01F0E4CF00F0EF
:104D3000120000C0E5FF01C0E5FF02C0E5FF03C0AF
:104D4000E5FF04C0E5FF050129510501281901E12E
:104D50005FD029C500F0002A009E600E0024016E7D
:104D6000026A000E022201C0E9FF02C0EAFFEFCF93
:104D700033F51F0E0501331729C532F533510501EF
:104D80003227322B322B329F15EC34F0016E01505A
:104D900003E1016A012A01D0016A15EC34F0050132
:104DA000336F800E3315026E1F0E3315036E03C072
:104DB00004F003C033F5045003E128C529F53BD0C6
:104DC00001501BE0025022E015EC34F0006E0501AA
:104DD00033070050420A1AE000504E0A03E1F8EC93
:104DE00030F014D00050460A03E17AEC37F00ED0D0
:104DF0000050490A0BE1FF0009D029C534F50250E3
:104E000003E085EC2DF002D000EC37F032C529F537
:104E1000030182510301831906E005012A5103E1D0
:104E2000B0EC27F008D089BA06D005012A5103E179
:104E300072B23BEC37F0E4CF04F0E4CF03F0E4CF00
:104E400002F0E4CF01F0E4CF00F01200D9CFE5FF8B
:104E5000E1CFD9FF00C0E5FF01C0E5FF02C0E5FFDB
:104E600003C0E5FF04C0E5FF05C0E5FF06C0E5FFA0
:104E700007C0E5FF08C0E5FF09C0E5FF0AC0E5FF80
:104E8000020EDBCF00F0030EDBCF01F0040EDBCF10
:104E900002F0050EDBCF03F0060EDBCF04F0070EA9
:104EA000DBCF05F00038E8441F0B066E076A150ECD
:104EB0000626050E072206C0E9FF07C0EAFFEFCF6E
:104EC00008F0070E0014096E010E0A6E095005E085
:104ED000E86CD8900A36010FFDE30A50081206C0AC
:104EE000E9FF07C0EAFF08C0EFFF9E0E0024066E30
:104EF000076A030E072206C0E9FF07C0EAFF01C0E8
:104F0000EFFF016A230E00260F0E0122800E025EC3
:104F1000070E02160238F00B036E070E0516055039
:104F2000032600C0E9FF01C0EAFF03C0EFFFE4CFA2
:104F30000AF0E4CF09F0E4CF08F0E4CF07F0E4CFC3
:104F400006F0E4CF05F0E4CF04F0E4CF03F0E4CFC3
:104F500002F0E4CF01F0E4CF00F0E4CFD9FF12007B
:104F600000C0E5FF01C0E5FF02C0E5FF03C0E5FFAB
:104F700072A276D043EC35F0006E005005E10301DB
:104F8000836B0301826B6CD083C301F00050012658
:104F900043EC35F0026E00060250230A1FE1010EB9
:104FA000005CD8A05BD043EC35F0026E690A03E1E7
:104FB000BBEC33F053D00250720A03E13BEC37F004
:104FC0004DD00250730A01E049D0898A7186A38AC4
:104FD000A398745074507198718840D00250430A5D
:104FE00005E00250420A01E039D001D0008E00C035
:104FF0002CF500500401006F010E05012D6F030117
:105000008351011814E043EC35F0026E05012C27A2
:10501000000E05012D25006E036A040E032200C058
:10502000E9FF03C0EAFF02C0EFFF2D2BE8D7000E17
:1050300005012D25006E026A040E022205012C1DB9
:10504000036E032A00C0E9FF02C0EAFF03C0EFFFBE
:1050500005012D2B2DC52AF50501246B01C083F315
:10506000E4CF03F0E4CF02F0E4CF01F0E4CF00F0AE
:105070001200D9CFE5FFE1CFD9FF00C0E5FF01C0A5
:10508000E5FF02C0E5FF03C0E5FF04C0E5FF05C082
:10509000E5FF06C0E5FF07C0E5FF020EDBCF00F02D
:1050A000030EDBCF01F0040EDBCF02F0050EDBCFE9
:1050B00003F002C006F00650046E800A33E100C01F
:1050C000E9FF01C0F3FF0250BAEC35F0056EF3CFF3
:1050D00006F0F4CF07F003C0E5FF05C0E9FF06C006
:1050E000F3FF075090EC37F000C0E9FF01C0F3FF79
:1050F0000250BAEC35F0056EF3CF06F0F4CF07F0AE
:10510000052A02E3064A072A05C0E5FF06C0F4FFA8
:1051100007C0F6FF00C0E9FF01C0F3FF02501EEC1C
:1051200037F01DD004AA1BD0047A045004E10350C8
:10513000CDEC37F014D00450010A04E1035002EC26
:1051400000F00DD004500F0A04E103508AEC33F054
:1051500006D004500E0A03E10350DDEC37F0E4CF33
:1051600007F0E4CF06F0E4CF05F0E4CF04F0E4CF9D
:1051700003F0E4CF02F0E4CF01F0E4CF00F0E4CF9D
:10518000D9FF120000C0E5FF01C0E5FF02C0E5FF46
:1051900003C0E5FF04C0E5FF006A150E0024016EA0
:1051A000026A050E022201C0E9FF02C0EAFFEF6AAF
:1051B000002A020E005CF1E3006A0050020DF45078
:1051C000026EF3CF01F0E00E0124036E000E022008
:1051D000046E03C0E9FF04C0EAFFEE6AEF6A390E0D
:1051E0000124036E040E0220046E03C0E9FF04C014
:1051F000EAFFEE6AEF6A590E0124036E040E0220E4
:10520000046E03C0E9FF04C0EAFFEE6AEF6A000E15
:105210000124036E030E0220046E03C0E9FF04C0E4
:10522000EAFFEE6AEF6A200E0126030E022201C099
:10523000E9FF02C0EAFFEE687F0EEF6E230E002446
:10524000016E026A0F0E022201C0E9FF02C0EAFFEE
:10525000EF68002A100E005CD8A0AFD7AF0EC06E6A
:10526000C16A010EC26EC282E4CF04F0E4CF03F043
:10527000E4CF02F0E4CF01F0E4CF00F012004320CD
:10528000412025642025640A0000D9CFE5FFE1CF45
:10529000D9FF00C0E5FF01C0E5FF02C0E5FF03C084
:1052A000E5FF04C0E5FF05C0E5FF06C0E5FF07C058
:1052B000E5FF08C0E5FF09C0E5FF0AC0E5FF0BC038
:1052C000E5FF0CC0E5FF020EDBCF00F0030EDBCFE5
:1052D00001F0040EDBCF02F0050EDBCF03F0060E6B
:1052E000DBCF04F0070EDBCF05F0080EDBCF06F0B6
:1052F000090EDBCF07F002500A6E0150096E005014
:10530000086E06C00BF007C00CF0FF0E0626072241
:105310000B500C101AE003C0E9FF04C0F3FF055066
:10532000EFEC36F00B6E032A02E3044A052A0BC0A9
:10533000E5FF08C0E9FF09C0F3FF0A5090EC37F021
:10534000082ADFE3094A0A2ADCD702C0F4FF01C0B9
:10535000F3FF0050E4CF0CF0E4CF0BF0E4CF0AF001
:10536000E4CF09F0E4CF08F0E4CF07F0E4CF06F093
:10537000E4CF05F0E4CF04F0E4CF03F0E4CF02F093
:10538000E4CF01F0E4CF00F0E4CFD9FF1200D9CF91
:10539000E5FFE1CFD9FF00C0E5FF01C0E5FF02C096
:1053A000E5FF03C0E5FF04C0E5FF05C0E5FF06C05B
:1053B000E5FF07C0E5FF020EDBCF00F0030EDBCFF9
:1053C00001F0040EDBCF02F0050EDBCF03F083C348
:1053D00084F3030182510301845F840703C004F056
:1053E000056A030E0426D8B0052A84C306F0076AAE
:1053F0000750800FF36E0550800FF35C02E10450FC
:10540000065C02E2E8682BD0020E035C02E2E86A66
:1054100026D003060350E56E36EC32F0E652046AFD
:105420000350045C14E204500024056EE86A012075
:10543000066EE86A022005C0E9FF06C0F3FFEFEC44
:1054400036F0042AE56E36EC32F0E652E9D783C333
:1054500084F3030182510301845F8407E86AE4CF87
:1054600007F0E4CF06F0E4CF05F0E4CF04F0E4CF9A
:1054700003F0E4CF02F0E4CF01F0E4CF00F0E4CF9A
:10548000D9FF1200D9CFE5FFE1CFD9FF00C0E5FF7A
:1054900001C0E5FF02C0E5FF03C0E5FF04C0E5FF72
:1054A00005C0E5FF020EDBCF00F0030EDBCF01F0FD
:1054B000040EDBCF02F00050020DF450036EF3CF68
:1054C00000F0390E0024046E040E0320056E04C0A3
:1054D000E9FF05C0EAFF01C0EEFF02C0EFFF590E71
:1054E0000024046E040E0320056E04C0E9FF05C00D
:1054F000EAFFEECF04F0EFCF05F00150045C016E3F
:1055000002500558026E400E0026030E032200C012
:10551000E9FF03C0EAFF01C0EEFF02C0EFFFD88041
:1055200002AED89004E3021E016CD8B4022A0250E5
:10553000800F800F02E1030E015C02E2016A026A41
:105540000150021007E100C0E9FF03C0EAFF000EAE
:10555000EE6AEF6AE4CF05F0E4CF04F0E4CF03F0A5
:10556000E4CF02F0E4CF01F0E4CF00F0E4CFD9FFC4
:105570001200D9CFE5FFE1CFD9FF00C0E5FF01C0A0
:10558000E5FF02C0E5FF03C0E5FF04C0E5FF05C07D
:10559000E5FF06C0E5FF020EDBCF00F0030EDBCF18
:1055A00001F0040EDBCF02F0050EDBCF03F0D88054
:1055B00001AED890046A0436045007E0011C066E60
:1055C000001C056E054A062A04D000C005F001C083
:1055D00006F0D88003AED89007E3031C016E021CCE
:1055E000006E004A012A04D002C000F003C001F09E
:1055F0000150E56E0050E56E0650E56E0550E56E13
:10560000E3EC2DF0006EF3CF01F0040EE126045020
:105610000AE0011C036E001C026E024A032A03C04A
:10562000F3FF025003D001C0F3FF0050E4CF06F0B7
:10563000E4CF05F0E4CF04F0E4CF03F0E4CF02F0D0
:10564000E4CF01F0E4CF00F0E4CFD9FF1200D9CFCE
:10565000E5FFE1CFD9FF00C0E5FF01C0E5FF02C0D3
:10566000E5FF03C0E5FF04C0E5FF05C0E5FF020E4E
:10567000DBCF00F0030EDBCF01F0040EDBCF02F036
:10568000050EDBCF03F013C504F014C505F00501CA
:10569000133F01D0142B0350E56E0450E56EFFEC70
:1056A00034F0E652E65213C504F014C505F00501C6
:1056B000133F01D0142B0250056EE56E0450E56EC9
:1056C000FFEC34F0E652E65213C504F014C505F0C1
:1056D0000501133F01D0142B0150056EE56E0450F7
:1056E000E56EFFEC34F0E652E65213C504F014C543
:1056F00005F00501133F01D0142B0050E56E045056
:10570000E56EFFEC34F0E652E652E4CF05F0E4CF6C
:1057100004F0E4CF03F0E4CF02F0E4CF01F0E4CFF3
:1057200000F0E4CFD9FF1200D9CFE5FFE1CFD9FFD8
:1057300000C0E5FF01C0E5FF02C0E5FF03C0E5FFD3
:1057400004C0E5FF05C0E5FF06C0E5FF020EDBCFA4
:1057500000F0030EDBCF01F0040EDBCF02F00501F9
:10576000235119E10CEC26F0036EF3CF04F0F4CFD3
:1057700005F0E9CF06F003C0E5FF04C0F4FF05C063
:10578000F6FF06C0F7FF00C0E9FF01C0F3FF0250BB
:10579000DEEC36F01ED005012351010A1AE100C0EB
:1057A000E9FF01C0F3FF025023EC35F0006EF3CFA8
:1057B00001F0F4CF02F0E9CF03F00350E56E0250A0
:1057C000E56E0150E56E0050E56E27EC2BF0040EFF
:1057D000E126E4CF06F0E4CF05F0E4CF04F0E4CF17
:1057E00003F0E4CF02F0E4CF01F0E4CF00F0E4CF27
:1057F000D9FF1200D9CFE5FFE1CFD9FF00C0E5FF07
:1058000001C0E5FF02C0E5FF03C0E5FF04C0E5FFFE
:10581000020EDBCF00F0030EDBCF01F0040EDBCF76
:1058200002F00050070F036E000E0120046E000E00
:105830000220E56E0450E56E0350E56EBAEC31F0DF
:10584000030EE1260050270F036E000E0120046EA8
:10585000000E0220E56E0450E56E0350E56E40EC4C
:105860002EF0030EE1260050370F036E000E0120CC
:10587000046E000E0220E56E0450E56E0350E56EE6
:1058800026EC2DF0030EE126480E0026000E012224
:1058900002220250E56E0150E56E0050E56E26ECE6
:1058A0002DF0030EE126E4CF04F0E4CF03F0E4CFC3
:1058B00002F0E4CF01F0E4CF00F0E4CFD9FF120012
:1058C000D9CFE5FFE1CFD9FF00C0E5FF01C0E5FF7B
:1058D00002C0E5FF03C0E5FF04C0E5FF05C0E5FF2A
:1058E00006C0E5FF020EDBCF00F0030EDBCF01F0B8
:1058F0000038E8441F0B026E036A150E0226050EDF
:10590000032202C0E9FF03C0EAFFEFCF04F0070E55
:105910000014056E010E066E055005E0E86CD89087
:105920000636010FFDE30650041202C0E9FF03C072
:10593000EAFF04C0EFFF9E0E0024026E036A030E0E
:10594000032202C0E9FF03C0EAFF01C0EFFF016AC2
:10595000230E00260F0E012200C0E9FF01C0EAFF5E
:10596000FF0EEF68E4CF06F0E4CF05F0E4CF04F0DB
:10597000E4CF03F0E4CF02F0E4CF01F0E4CF00F095
:10598000E4CFD9FF1200D9CFE5FFE1CFD9FF00C0A6
:10599000E5FF01C0E5FF02C0E5FF03C0E5FF04C06D
:1059A000E5FF05C0E5FF06C0E5FF020EDBCF00F016
:1059B000030EDBCF01F0040EDBCF02F0050EDBCFD0
:1059C00003F0060EDBCF04F0070EDBCF05F0080E68
:1059D000DBCF06F0D88003AED89015E306500A0A54
:1059E00012E104C0E9FF05C0EAFF2D0EEF6E044A84
:1059F000052A031E021E011E006C05E1012A03E1B7
:105A0000022AD8B4032A0650E56E0550E56E04500C
:105A1000E56E0350E56E0250E56E0150E56E0050F4
:105A2000E56E8AEC20F0070EE126E4CF06F0E4CF25
:105A300005F0E4CF04F0E4CF03F0E4CF02F0E4CFCC
:105A400001F0E4CF00F0E4CFD9FF1200D9CFE5FF99
:105A5000E1CFD9FF00C0E5FF01C0E5FF02C0E5FFCF
:105A600003C0E5FF04C0E5FF020EDBCF00F0030E2C
:105A7000DBCF01F0040EDBCF02F00250E56E0150E7
:105A8000E56E0050E56EBAEC31F0030EE1260050F1
:105A9000010F036E000E0120046E000E0220E56E61
:105AA0000450E56E0350E56EBAEC31F0030EE126CA
:105AB0000050020F036E000E0120046E000E022043
:105AC000E56E0450E56E0350E56EBAEC31F0030E5E
:105AD000E1260F0E0026000E012202220250E56E82
