:020000040000FA
:1000000053EF37F0C96E12005BEF33F088EC15F058
:1000100007EC19F0FDD7120088EF35F0D9CFE5FFD6
:10002000E1CFD9FF00C0E5FF01C0E5FF02C0E5FF59
:1000300003C0E5FF04C0E5FF05C0E5FF06C0E5FF1E
:1000400007C0E5FF08C0E5FF09C0E5FF0AC0E5FFFE
:100050000BC0E5FF0CC0E5FF0DC0E5FF0EC0E5FFDE
:100060000FC0E5FF10C0E5FF11C0E5FF12C0E5FFBE
:1000700013C0E5FF14C0E5FF15C0E5FF16C0E5FF9E
:1000800017C0E5FF18C0E5FF19C0E5FF1AC0E5FF7E
:100090001BC0E5FF1CC0E5FF1DC0E5FF1EC0E5FF5E
:1000A0001FC0E5FF20C0E5FF21C0E5FF22C0E5FF3E
:1000B00023C0E5FF24C0E5FF25C0E5FF020EDBCF2E
:1000C00000F0030EDBCF01F0040EDBCF02F0025094
:1000D000086E0150076E0050066EE56A100EE56E60
:1000E0000850E56E0750E56E0650E56E800EE56E31
:1000F000030EE56EAE0EE56E5CEC2AF0080EE1260E
:10010000B6C303F0B7C304F0B8C305F0B9C306F033
:1001100003C007F004C008F005C009F006C00AF0EB
:10012000D8800AAED8900AE30A1E091E081E076C82
:1001300005E1082A03E1092AD8B40A2AAEC30BF064
:10014000AFC30CF0E86A0301AFBFFF0E0D6E0E6E79
:10015000B035106EB1350F6E10360F361034030BFC
:10016000106EB251E844E844FC0B1012B235126E26
:10017000B335116E123611361234030B12B0FC096E
:10018000126E0F500B5C0F6E10500C58106E115009
:100190000D58116E12500E58126ED89012AED880B3
:1001A000D8A05BD01250800F800F08E1000E115CC8
:1001B00005E1000E105C02E1010E0F5CD8B04DD0DD
:1001C0000A340A30166E0930156E0830146E073086
:1001D000136EBCC317F0BDC318F0E86A0301BDBFBE
:1001E000FF0E196E800FF36E1650800FF35C08E15E
:1001F0001550195C05E11450185C02E11350175CAE
:100200002CE30D40156E15420E40166E1642C00EC0
:100210001616151415181612151A0C50E840E84059
:100220003F0B15120B40136E13420C40146E144218
:10023000C00E1416131413181412131A13500301BA
:10024000B06F1450B16F1550B26F1650B36FB66BDC
:10025000B76BB86BB96BD4EF04F0073608360736C6
:1002600008360734030B0818081A0818076E0950D7
:10027000E844E844FC0B081209360A3609360A3607
:100280000934030B09B0FC090A180A1A0A180834C1
:1002900008300A6E0730096EE86A0ABEFF0E0B6E60
:1002A0000C6E07C00DF008C00EF0E86A08BEFF0E25
:1002B000136EE56E1350E56E0E50E56E0D50E56E53
:1002C0000C50E56E0B50E56E0A50E56E0950E56E78
:1002D00017EC1FF0096EF3CF0AF0F4CF0BF0E9CF63
:1002E0000CF0080EE126BCC30DF0BDC30EF0E86AA9
:1002F0000301BDBFFF0E136E146EE56E1350E56E65
:100300000E50E56E0D50E56E0C50E56E0B50E56E2F
:100310000A50E56E0950E56ED0EC21F0096EF3CF7E
:100320000AF0080EE126B4C30BF0B5C30CF0E86A7E
:100330000301B5BFFF0E156E166E1540196E1942FA
:1003400016401A6E1A42C00E1A16191419181A12EB
:10035000191A0C50E840E8403F0B19120B40176E79
:1003600017420C40186E1842C00E181617141718B2
:100370001812171AD88006AED890D8B069D109C023
:100380000BF00AC00CF0E86A0ABEFF0E156E800F73
:10039000F36E1250800FF35C08E11150155C05E11B
:1003A00010500C5C02E10F500B5CD8B029D1065004
:1003B000800FF36E1A50800FF35C08E11950055C52
:1003C00005E11850045C02E11750035CD8B0F1D08D
:1003D000BAC30BF0BBC30CF0E86A0301BBBFFF0E4E
:1003E000156E166E03500B2604500C220550152274
:1003F000065016220B500301B66F0C50B76F155004
:10040000B86F1650B96FBCC30BF0BDC30CF0BAC3C4
:1004100015F0BBC316F00C50800FF36E1650800F12
:10042000F35C02E115500B5CD8B0A7D0B6C31BF04B
:10043000B7C31CF0B8C31DF0B9C31EF01B34206E47
:100440001C341F6E20361F362034030B206E1D50C7
:10045000E844E844FC0B20121D34226E1E34216E49
:10046000223621362234030B22B0FC091F50076EBE
:100470002050086E08340830206E07301F6EE86A7E
:1004800020BEFF0E216E226E07C023F008C024F0AC
:10049000E86A08BEFF0E256EE56E2550E56E245015
:1004A000E56E2350E56E2250E56E2150E56E20503A
:1004B000E56E1F50E56E17EC1FF01F6EF3CF20F0B6
:1004C000F4CF21F0E9CF22F0080EE1260BC023F093
:1004D0000CC024F0E86A0CBEFF0E256EE56E2550B8
:1004E000E56E2450E56E2350E56E2250E56E2150F6
:1004F000E56E2050E56E1F50E56ED0EC21F01F6ECA
:10050000F3CF20F0080EE1261F50096E20500A6E2E
:1005100009C01FF00AC020F0E86A0ABEFF0E216E73
:10052000226E1250800FF36E2250800FF35C08E1B0
:100530002150115C05E12050105C02E11F500F5C5E
:100540001CE20B50155C0B6E0C5016580C6EE86AD2
:100550000CBEFF0E156E166E0B501B5E0C501C5A17
:1005600015501D5A16501E5A1B500301B66F1C50D1
:10057000B76F1D50B86F1E50B96F1A50800FF36ED1
:100580000301B951800FF35C08E1B851195C05E132
:10059000B751185C02E1B651175CD8B0DBD11750E7
:1005A0000301B66F1850B76F1950B86F1A50B96F72
:1005B000D1D11A50800FF36E0650800FF35C08E122
:1005C0000550195C05E10450185C02E10350175C0A
:1005D000D8B0C0D10D50035C0B6E0E5004580C6E99
:1005E00013500558156E14500658166E0B50030123
:1005F000B66F0C50B76F1550B86F1650B96FAAD1BF
:10060000BAC30BF0BBC30CF0E86A0301BBBFFF0E1B
:10061000156E166E0D500B260E500C22135015221F
:10062000145016220B50035C0B6E0C5004580C6EC9
:1006300015500558156E16500658166E0B500301CE
:10064000B66F0C50B76F1550B86F1650B96F82D196
:100650000A1E096CD8B40A2A09C00BF00AC00CF0B3
:10066000E86A0ABEFF0E156E166E1250800FF36E0A
:100670001650800FF35C08E11550115C05E10C5039
:10068000105C02E10B500F5CD8B041D11A1C166E01
:10069000191C156E181C0C6E171C0B6E0B2A04E12E
:1006A0000C2A02E1154A162A1650800FF36E0650E6
:1006B000800FF35C08E10550155C05E104500C5C0B
:1006C00002E103500B5CD8B0FBD0BAC317F0BBC338
:1006D00018F0E86A0301BBBFFF0E196E1A6E1750BF
:1006E000035C176E18500458186E19500558196E8F
:1006F0001A5006581A6E17500301B66F1850B76F8C
:100700001950B86F1A50B96FBCC317F0BDC318F0B9
:10071000BAC319F0BBC31AF01850800FF36E1A5009
:10072000800FF35C02E11950175CD8B0ADD0B6C3AE
:100730001BF0B7C31CF0B8C31DF0B9C31EF01B34C7
:10074000206E1C341F6E20361F362034030B206EA3
:100750001D50E844E844FC0B20121D34226E1E3468
:10076000216E223621362234030B22B0FC09226E80
:10077000221E211E201E1F6C05E1202A03E1212AD2
:10078000D8B4222A1F50076E2050086E0834083053
:10079000206E07301F6EE86A20BEFF0E216E226EAB
:1007A000E86A08BEFF0E236EE56E2350E56E085022
:1007B000E56E0750E56E2250E56E2150E56E205043
:1007C000E56E1F50E56E17EC1FF0076EF3CF08F0D3
:1007D000F4CF1FF0E9CF20F0080EE12617C021F07A
:1007E00018C022F0E86A18BEFF0E236EE56E235093
:1007F000E56E2250E56E2150E56E2050E56E1F50EB
:10080000E56E0850E56E0750E56ED0EC21F0076EFE
:10081000F3CF08F0080EE126081E076C02E1082A53
:1008200000E10750096E08500A6EE86A0ABEFF0E22
:10083000076E800FF36E1250800FF35C08E11150C9
:10084000075C05E110500A5C02E10F50095C1CE2F4
:100850001750195C176E18501A58186EE86A18BEAF
:10086000FF0E076E086E17501B2618501C220750EB
:100870001D2208501E221B500301B66F1C50B76F7B
:100880001D50B86F1E50B96F0301B951800FF36E40
:100890001650800FF35C08E11550B85D05E10C506F
:1008A000B75D02E10B50B65DD8B054D00B500301D8
:1008B000B66F0C50B76F1550B86F1650B96F4AD05D
:1008C0000650800FF36E1650800FF35C08E1155050
:1008D000055C05E10C50045C02E10B50035CD8B0F0
:1008E00039D00D500324076E0E500420086E1350AB
:1008F0000520096E145006200A6E07500301B66FDA
:100900000850B76F0950B86F0A50B96F23D0BAC3F7
:1009100007F0BBC308F0E86A0301BBBFFF0E096E16
:100920000A6E07500D2608500E22095013220A5055
:1009300014220D5003260E50042213500522145089
:10094000062203500301B66F0450B76F0550B86F0D
:100950000650B96F0301B635046EB735036E043621
:1009600003360434030B046EB851E844E844FC0B2E
:100970000412B835066EB935056E063605360634EE
:10098000030B06B0FC09066EB0510326B1510422D8
:10099000B2510522B35106220350B06F0450B16F1B
:1009A0000550B26F0650B36FE56A100EE56E800E0B
:1009B000E56E030EE56EAE0EE56E0250E56E01507B
:1009C000E56E0050E56E5CEC2AF0080EE126E4CFFF
:1009D00025F0E4CF24F0E4CF23F0E4CF22F0E4CFFD
:1009E00021F0E4CF20F0E4CF1FF0E4CF1EF0E4CFFD
:1009F0001DF0E4CF1CF0E4CF1BF0E4CF1AF0E4CFFD
:100A000019F0E4CF18F0E4CF17F0E4CF16F0E4CFFC
:100A100015F0E4CF14F0E4CF13F0E4CF12F0E4CFFC
:100A200011F0E4CF10F0E4CF0FF0E4CF0EF0E4CFFC
:100A30000DF0E4CF0CF0E4CF0BF0E4CF0AF0E4CFFC
:100A400009F0E4CF08F0E4CF07F0E4CF06F0E4CFFC
:100A500005F0E4CF04F0E4CF03F0E4CF02F0E4CFFC
:100A600001F0E4CF00F0E4CFD9FF1200D9CFE5FFC9
:100A7000E1CFD9FF00C0E5FF01C0E5FF02C0E5FFFF
:100A800003C0E5FF04C0E5FF05C0E5FF06C0E5FFC4
:100A900007C0E5FF08C0E5FF09C0E5FF0AC0E5FFA4
:100AA0000BC0E5FF0CC0E5FF0DC0E5FF0EC0E5FF84
:100AB0000FC0E5FF10C0E5FF11C0E5FF12C0E5FF64
:100AC00013C0E5FF14C0E5FF15C0E5FF16C0E5FF44
:100AD00017C0E5FF18C0E5FF19C0E5FF1AC0E5FF24
:100AE0001BC0E5FF1CC0E5FF1DC0E5FF1EC0E5FF04
:100AF000020EDBCF00F0030EDBCF01F0040EDBCFE4
:100B000002F0050EDBCF03F0060EDBCF04F0070E7C
:100B1000DBCF05F0080EDBCF06F0090EDBCF07F0C8
:100B20000A0EDBCF08F0096A0A6A02C00DF00D5008
:100B3000800A0DE1025005010E6F01500D6F00504B
:100B40000C6F050E016E0C0E006E800E026E03C05F
:100B5000E9FF04C0F3FF05509DEC37F00B6E0B501E
:100B6000D8B4ECEF08F00B50250A02E0D3EF08F000
:100B70000C6A0D6A0E6A0F6A106A0A0E116E126A0A
:100B8000136A146A200E156E1668176A2B0E186EFB
:100B9000032A02E3044A052A03C0E9FF04C0F3FF65
:100BA00005509DEC37F0196E250A13E11950E56EDA
:100BB0000250E56E0150E56E0050E56ECAEC28F07B
:100BC000040EE126094A0A2A032A02E3044A052AF6
:100BD000BED71950300A06E1300E156E032A02E323
:100BE000044A052A03C0E9FF04C0F3FF05509DEC49
:100BF00037F02D0A06E1010E146E032A02E3044ABF
:100C0000052A03C0E9FF04C0F3FF05509DEC37F04F
:100C1000200A08E1010E176E200E186E032A02E367
:100C2000044A052A03C0E9FF04C0F3FF05509DEC08
:100C300037F02B0A06E1010E176E032A02E3044A7D
:100C4000052A03C0E9FF04C0F3FF05509DEC37F00F
:100C5000196E310E195C2BE33A0E195C28E203C0C1
:100C600019F004C01AF005C01BF019C0E9FF1AC042
:100C7000F3FF1B509DEC37F01C6E300E1C5C11E333
:100C80003A0E1C5C0EE213500A0DF3CF1DF01C50FF
:100C90001D26D00E1D24136E192A02E31A4A1B2AA0
:100CA000E4D719C003F01AC004F01BC005F003C05C
:100CB000E9FF04C0F3FF05509DEC37F02E0A2DE14B
:100CC000032A02E3044A052A166A03C019F004C085
:100CD0001AF005C01BF019C0E9FF1AC0F3FF1B5042
:100CE0009DEC37F01C6E300E1C5C11E33A0E1C5C60
:100CF0000EE216500A0DF3CF1DF01C501D26D00E2B
:100D00001D24166E192A02E31A4A1B2AE4D719C0B9
:100D100003F01AC004F01BC005F003C0E9FF04C0D3
:100D2000F3FF05509DEC37F0196E6C0A07E1010ED8
:100D30000C6E032A02E3044A052A09D01950680AF6
:100D400006E1010E0E6E032A02E3044A052A03C0DF
:100D5000E9FF04C0F3FF05509DEC37F0750A06E18A
:100D6000010E106E032A02E3044A052A03C0E9FFBC
:100D700004C0F3FF05509DEC37F0196E730A05E1CE
:100D8000010E0D6E200E156E3FD01950780A03E14A
:100D9000100E116E39D01950580A05E1100E116E5F
:100DA000010E126E31D01950630A02E1116A2CD083
:100DB00019506F0A03E1080E116E26D01950660A09
:100DC00003E1010E0F6E20D01950640A1DE0195086
:100DD000690A1AE0105005E0FF0E032604220522DE
:100DE00013D01950E56E0250E56E0150E56E0050CB
:100DF000E56ECAEC28F0040EE126094A0A2A032A05
:100E000002E3044A052AA3D60D5021E00650030F41
:100E10000D6E000E0720196E000E08201A6E0DC010
:100E200006F019C007F01AC008F0FD0E0D26FF0EDF
:100E300019221A220DC0E9FF19C0F3FF1A5068ECFD
:100E400036F00D6EF3CF19F0F4CF1AF0FDD00F503D
:100E50000DE0000E1A6E120E196E600E0D6E040E6D
:100E60000626000E072208221668EED016680C50DF
:100E700023E00650040F0C6E000E07200F6E000ECC
:100E800008201B6E0CC006F00FC007F01BC008F056
:100E9000FC0E0C26FF0E0F221B220CC0E9FF0FC018
:100EA000F3FF1B50D1EC35F00C6EF3CF0FF0F4CF05
:100EB0001BF0E9CF1CF067D00E502FE00650020F58
:100EC0000E6E000E07201D6E000E08201E6E0EC056
:100ED00006F01DC007F01EC008F0FE0E0E26FF0E25
:100EE0001D221E220EC0E9FF1DC0F3FF1E5027EC7D
:100EF00037F00E6E0EC00CF00F6A1B6A1C6A1150A0
:100F00000A0A03E11050D8B43ED00C500E6E0EC049
:100F10000CF00F6A1B6A1C6A36D00650020F0E6E68
:100F2000000E07201D6E000E08201E6E0EC006F07B
:100F30001DC007F01EC008F0FE0E0E26FF0E1D227B
:100F40001E220EC0E9FF1DC0F3FF1E5027EC37F034
:100F50000E6EF3CF1DF00EC00CF01DC00FF0E86A4E
:100F60001DBEFF0E1B6E1C6E11500A0A02E11050CE
:100F70000AE00C500E6E0F501D6E0EC00CF01DC01E
:100F80000FF01B6A1C6A030E196ED90E0D6E800ECF
:100F90001A6E1150D8B440D0105013E01150E56EC5
:100FA000030EE56ED90EE56E1C50E56E1B50E56E26
:100FB0000F50E56E0C50E56E21EC20F0070EE12697
:100FC00012D01150E56E030EE56ED90EE56E1C5081
:100FD000E56E1B50E56E0F50E56E0C50E56E67EC4C
:100FE0002DF0070EE12617502FE00DC0E9FF19C0C4
:100FF000F3FF1A509DEC37F02D0A26E0FF0E0D2668
:1010000019221A2218C0E5FF0DC0E9FF19C0F3FF2D
:101010001A503EEC38F018D00CC0E5FF0DC0E9FFC7
:1010200019C0F3FF1A503EEC38F00D50010F0C6E52
:10103000000E19200E6E000E1A20E56A0CC0E9FFA2
:101040000EC0F3FF3EEC38F00DC00CF019C00EF0EE
:101050001AC00FF013C010F0105010E00CC0E9FFE0
:101060000EC0F3FF0F509DEC37F0176E175006E0DF
:101070000C2A02E30E4A0F2A1006EED710C013F016
:1010800014501EE109C00CF00AC00EF010C00FF0A1
:101090000F5010E01550E56E0250E56E0150E56E00
:1010A0000050E56ECAEC28F0040EE1260C4A0E2A28
:1010B0000F06EED70CC009F00EC00AF00FC013F0F7
:1010C00016C00CF00DC00DF019C00EF01AC00FF0D4
:1010D00009C010F00AC015F00DC0E9FF0EC0F3FF03
:1010E0000F509DEC37F0166E1650D8B43ED00CC0A1
:1010F00016F0176A161E171E1650171005E00CC0C2
:1011000016F00C06165031E00DC0E9FF0EC0F3FFDB
:101110000F509DEC37F0116E125010E01150E56E3B
:10112000E4EC36F0166EE652165004E0DF0E1114B1
:10113000166E02D011C016F016C011F01150E56EF7
:101140000250E56E0150E56E0050E56ECAEC28F0E5
:10115000040EE1260D2A02E30E4A0F2A104A152A30
:101160001350D8B4B9D71306B7D710C009F015C0BB
:101170000AF014502BE010C00CF015C00DF013C095
:101180000EF00E501FE0200EE56E0250E56E01508D
:10119000E56E0050E56ECAEC28F0040EE1260C4A1C
:1011A0000D2A0E06EED70B50E56E0250E56E01508B
:1011B000E56E0050E56ECAEC28F0040EE126094AFF
:1011C0000A2A04D00CC009F00DC00AF0032A02E379
:1011D000044A052AA7EF05F00AC0F3FF0950E4CF3F
:1011E0001EF0E4CF1DF0E4CF1CF0E4CF1BF0E4CF01
:1011F0001AF0E4CF19F0E4CF18F0E4CF17F0E4CF01
:1012000016F0E4CF15F0E4CF14F0E4CF13F0E4CF00
:1012100012F0E4CF11F0E4CF10F0E4CF0FF0E4CF00
:101220000EF0E4CF0DF0E4CF0CF0E4CF0BF0E4CF00
:101230000AF0E4CF09F0E4CF08F0E4CF07F0E4CF00
:1012400006F0E4CF05F0E4CF04F0E4CF03F0E4CF00
:1012500002F0E4CF01F0E4CF00F0E4CFD9FF1200B8
:101260003C4E4F20464C4F41543E0000D9CFE5FF45
:10127000E1CFD9FF00C0E5FF01C0E5FF02C0E5FFF7
:1012800003C0E5FF04C0E5FF05C0E5FF06C0E5FFBC
:1012900007C0E5FF08C0E5FF09C0E5FF0AC0E5FF9C
:1012A0000BC0E5FF0CC0E5FF0DC0E5FF020EDBCF74
:1012B00000F0030EDBCF01F0040EDBCF02F0005094
:1012C000090F066E000E0120076E000E0220086E48
:1012D0000B6E07500A6E0650096EE56A0D0EE56E3C
:1012E0000B50E56E0A50E56E0950E56E800EE56E16
:1012F000030EE56EBE0EE56E5CEC2AF0080EE126EC
:1013000000C009F001C00AF002C00BF0E56AE56E0A
:101310000B50E56E0A50E56E0950E56E800EE56EE5
:10132000040EE56E810EE56E5CEC2AF0080EE126F7
:1013300081C403F00350010A04E00350030A01E0F2
:1013400018D10301D351036ED451046E0301C65169
:10135000056EC751096E0550035C0501196F0950F0
:1013600004581A6F0301D3510301C66F0301D4510E
:101370000301C76F0301D5510301C86F0301D651A3
:101380000301C96F050119511A11D8A47ED099EC37
:1013900034F0036EF3CF04F0F4CF05F0E9CF09F099
:1013A0000301CB510A6ECC510B6ECD510C6ECE5158
:1013B0000D6E0A50035E0B50045A0C50055A0D5026
:1013C000095A03500401F86F0450F96F0550FA6F81
:1013D0007F0E0914FB6F0301CAB125D00401F93552
:1013E000FB31046EFA31036E043404320332000E12
:1013F00004BEFF0E096E056E86C40AF00B6A0C6A05
:101400000D6A0D50800FF36E0950800FF35C08E1F8
:1014100005500C5C05E104500B5C02E103500A5CD2
:1014200002E20301CA810301CAB149D0C2C303F079
:10143000C3C304F0C4C305F0C5C309F00401FB51E4
:10144000800FF36E0950800FF35C08E10550FA5DE0
:1014500005E10450F95D02E10350F85D08E203C0C4
:10146000F8F404C0F9F405C0FAF409C0FBF4030170
:10147000D7A304D0010E036E046A02D00368046887
:1014800003C019F504C01AF51AD00301CA91CFC3DD
:10149000F8F4D0C3F9F4D1C3FAF4D2C3FBF40401D5
:1014A000F8510301C26F0401F9510301C36F040134
:1014B000FA510301C46F0401FB510301C56F04011C
:1014C000FB51800F800F08E1000EFA5D05E1000E70
:1014D000F95D02E1010EF85D06E20401FC6BFD6BB3
:1014E000FE6BFF6B46D00401F851036EF951046E98
:1014F000FA51056EFB51E56E0550E56E0450E56E40
:101500000350E56E010EE56E000EE56AE56AE56AD8
:10151000ADEC27F0036EF3CF04F0F4CF05F0E9CF84
:1015200009F0080EE12619C50AF01AC50BF0E86AA1
:1015300005011ABFFF0E0C6E0D6E0950E56E0550C9
:10154000E56E0450E56E0350E56E0D50E56E0C50EF
:10155000E56E0B50E56E0A50E56E17EC1FF00401C6
:10156000FC6FF3CFFDF4F4CFFEF4E9CFFFF4080EE7
:10157000E126020E0401815DD8A049D10301D7A163
:1015800046D10050230F036E000E0120046E000EA2
:101590000220E56E0450E56E0350E56E0EEC00F09F
:1015A000030EE1260050230F036E000E0120046E8F
:1015B000000E0220056E020E0326000E04220522F4
:1015C00003C0E9FF04C0F3FF0550D1EC35F0036E12
:1015D000F3CF04F0F4CF05F0E9CF09F00336043679
:1015E000033604360334030B0418041A0418036E7C
:1015F0000550E844E844FC0B04120536093605366C
:1016000009360534030B05B0FC090918091A091835
:10161000056E0301D351035C0301E56F0301D4514F
:1016200004580301E66F0301D55105580301E76F24
:101630000301D65109580301E86FD880E8AFD8906C
:1016400022E30401831D046E821D036E034A042AF3
:10165000E86A04BEFF0E056E096E0301E851800FB3
:10166000F36E0950800FF35C08E10550E75D05E17A
:101670000450E65D02E10350E55D05E30301E56B1F
:10168000E66BE76BE86B0301E851800F800F08E120
:10169000000EE75D05E1000EE65D02E1010EE55D8D
:1016A0001EE382C403F083C404F0E86A040183BF2C
:1016B000FF0E056E800FF36E0301E851800FF35C9F
:1016C00008E1E751055C05E1E651045C02E1E55102
:1016D000035C05E30301E56BE66BE76BE86B040174
:1016E000875109E0E86CD8900301E537E637E73722
:1016F000E837010FF9E30301E851800F800F08E19B
:10170000000EE75D05E1800EE65D02E1000EE55D9D
:1017100007E30301E5697F0EE66FE76BE86B14D022
:101720000301E851800F810F08E1FF0EE75D05E13D
:10173000800EE65D02E1000EE55D06E20301E56B69
:10174000800EE66FE769E8690050330F036E000E04
:101750000120046E000E0220056E0301E551096EA2
:10176000E651E56E0950E56E0550E56E0450E56EF4
:101770000350E56E60EC11F0050EE1260401815185
:10178000030A23E10050330F036E000E0120046EA4
:10179000000E0220056E0B0E0326000E0422052209
:1017A00003C0E9FF04C0F3FF0550D1EC35F0F3CFDF
:1017B00004F0F4CF05F00450036E0550046E03509E
:1017C0000301BE6F0450BF6F22D00050330F036E71
:1017D000000E0120046E000E0220056E0B0E032683
:1017E000000E0422052203C0E9FF04C0F3FF0550E8
:1017F000D1EC35F0F3CF04F0F4CF05F00450036ED4
:101800000550046E03500301C06F0450C16F81C4C2
:1018100003F00350010A04E00350030A01E07DD005
:10182000BEC303F0BFC304F0E86A0301BFBFFF0EED
:10183000056E096E0401FC51035C0301E56F0401B0
:10184000FD5104580301E66F0401FE5105580301E0
:10185000E76F0401FF5109580301E86F800F800F03
:1018600008E1000EE75D05E1800EE65D02E1000E95
:10187000E55D07E30301E5697F0EE66FE76BE86B63
:1018800014D00301E851800F810F08E1FF0EE75DDE
:1018900005E1800EE65D02E1000EE55D06E2030172
:1018A000E56B800EE66FE769E8690050440F036E50
:1018B000000E0120046E000E0220056E0301E551AA
:1018C000096EE651E56E0950E56E0550E56E04506F
:1018D000E56E0350E56E60EC11F0050EE126440E56
:1018E0000026000E012202220B0E0026000E01220D
:1018F000022200C0E9FF01C0F3FF0250D1EC35F035
:10190000F3CF01F0F4CF02F00150006E0250016EEF
:1019100000500301C06F0150C16F0850086EE56AA6
:101920000D0EE56E800EE56E030EE56EBE0EE56EE5
:101930000850E56E0750E56E0650E56E5CEC2AF047
:10194000080EE126E4CF0DF0E4CF0CF0E4CF0BF06D
:10195000E4CF0AF0E4CF09F0E4CF08F0E4CF07F0D9
:10196000E4CF06F0E4CF05F0E4CF04F0E4CF03F0D9
:10197000E4CF02F0E4CF01F0E4CF00F0E4CFD9FFF0
:10198000120025642025640A000000C0E5FF01C0A4
:10199000E5FF02C0E5FF03C0E5FF04C0E5FF05C0A9
:1019A000E5FF06C0E5FF07C0E5FF08C0E5FF09C089
:1019B000E5FF0AC0E5FFC2A204D003018C51FEEF8F
:1019C0000EF003018D51D8B42FD103018C51020DBB
:1019D000F450016EF3CF00F0E00E0026000E01225D
:1019E00000C0E9FF01C0EAFFEECF00F0EFCF01F049
:1019F000230E8C25026E036A0F0E032202C0E9FF3C
:101A000003C0EAFFEFCF02F00250FF0A01E166D007
:101A100002380F0B036E920E0324046E056A0F0E3C
:101A20000522066A920E03260F0E062203C0E9FF66
:101A300006C0EAFFEFCF03F00250066E070E06164F
:101A4000010E076E06500DE006E6E86CD8900736EA
:101A5000010FFDE306D0D89007BED8800732010FF2
:101A6000FBE3071C066E0350061604C0E9FF05C021
:101A7000EAFF06C0EFFF02380F0B036E890E032446
:101A8000046E056A0F0E0522066A890E03260F0EE4
:101A9000062203C0E9FF06C0EAFFEFCF03F00250C1
:101AA000066E070E0616010E076E06500DE006E6DE
:101AB000E86CD8900736010FFDE306D0D89007BE3A
:101AC000D8800732010FFBE3071C066E0350061691
:101AD00004C0E9FF05C0EAFF06C0EFFF03018C5117
:101AE000020DF450046EF3CF03F0E00E0326000E57
:101AF000042200380F0B056E0138066EF00B061A33
:101B00000526F00E06B606260550005C056E06504A
:101B10000158066EC3CF07F0086A07500526085023
:101B20000622C4CF07F0086A07500A6E096A0950F6
:101B300005260A50062203C0E9FF04C0EAFF05C0DB
:101B4000EEFF06C0EFFF03018851010A01E06AD0F1
:101B500003018C51020DF450046EF3CF03F0E00E3C
:101B60000324056E000E0420066E05C0E9FF06C0C2
:101B7000EAFFEECF00F0EFCF01F0000E0326030ED8
:101B8000042203C0E9FF04C0EAFFEECF05F0EFCF67
:101B900006F09C0E0526D8A006060150800FF36EB5
:101BA0000650800FF35C02E10550005C0EE200502D
:101BB000640F056E000E0120066E03C0E9FF04C02D
:101BC000EAFF05C0EEFF06C0EFFF03018C51020DD6
:101BD000F450046EF3CF03F0200E0326030E04220C
:101BE00003C0E9FF04C0EAFFEECF05F0EFCF06F037
:101BF000640E0526D8B0062A0650800FF36E0150F9
:101C0000800FF35C02E10050055C0CE29C0E0026A4
:101C1000D8A0010603C0E9FF04C0EAFF00C0EEFF40
:101C200001C0EFFF03018D6B03018C2B100E8C5D47
:101C300001E38C6B03018C39E8441F0B006E016AD1
:101C4000110E0026050E012200C0E9FF01C0EAFFC7
:101C5000EFCF00F08CC301F0070E0116010E036EEA
:101C6000000E046E015006E0E86CD890033604368E
:101C7000010FFCE3056A00500316055004160350DB
:101C80000410D880E866D890036A03360350D8A4BD
:101C9000B3D0E80E03018C25006E016A040E012208
:101CA00000C0E9FF01C0EAFFEFCF00F00044E844C4
:101CB000FC0B016E0128C26E230E8C25006E016A9A
:101CC0000F0E012200C0E9FF01C0EAFFEFCF02F0D2
:101CD0000250FF0A01E18CD002380F0B006E920E09
:101CE0000024016E036A0F0E0322046A920E00267E
:101CF0000F0E042200C0E9FF04C0EAFFEFCF00F09E
:101D00000250046E070E0416010E056E04500DE01D
:101D100006E6E86CD8900536010FFDE306D0D890B2
:101D200005BED8800532010FFBE30050051201C04B
:101D3000E9FF03C0EAFF05C0EFFF380E006E0F0E8B
:101D4000016E02380F0B036E046A03500026045024
:101D50000122380E056E0F0E066E05500326065042
:101D6000042203C0E9FF04C0EAFFEFCF03F0070E2F
:101D70000216010E046E02500DE006E6E86CD890E3
:101D80000436010FFDE306D0D89004BED88004329B
:101D9000010FFBE30350041200C0E9FF01C0EAFF9A
:101DA00004C0EFFF0F0145830000000045930F01C1
:101DB00044930BC0E5FFF2CF0BF0F29E448100008C
:101DC0000000000000000000000000000000000013
:101DD0000000000000000000000000000000000003
:101DE00000000000000044910BBEF28EE4CF0BF027
:101DF000C282010E03018D6F03018C51E4CF0AF002
:101E0000E4CF09F0E4CF08F0E4CF07F0E4CF06F028
:101E1000E4CF05F0E4CF04F0E4CF03F0E4CF02F028
:101E2000E4CF01F0E4CF00F0120000C0E5FF01C0F4
:101E3000E5FF02C0E5FF03C0E5FF04C0E5FF05C004
:101E4000E5FF06C0E5FF07C0E5FF08C0E5FF09C0E4
:101E5000E5FF0AC0E5FF0BC0E5FF0CC0E5FF006A27
:101E6000016A026A040E025CD8B0ECD101C003F032
:101E7000012A100E035CD8B0E5D103018E2B100EA1
:101E80008E5D01E38E6B03018E39E8441F0B036EF8
:101E9000046A110E0326050E042203C0E9FF04C0E4
:101EA000EAFFEFCF03F08EC304F0070E0416010E15
:101EB000056E000E066E045006E0E86CD8900536FC
:101EC0000636010FFCE3076A035005160750061695
:101ED00005500610D880E866D890056A053605508A
:101EE000D8A4C0D703018E51020DF450046EF3CF75
:101EF00003F0E00E0324056E000E0420066E05C0FC
:101F0000E9FF06C0EAFFEECF05F0EFCF06F08BC386
:101F100007F007A09DD0000E0324076E030E0420D7
:101F2000086E07C0E9FF08C0EAFFEECF07F0EFCF69
:101F300008F00650800FF36E0850800FF35C02E14A
:101F40000750055C03E2056A066A60D0200E03268E
:101F5000030E042203C0E9FF04C0EAFFEECF03F042
:101F6000EFCF04F00450800FF36E0650800FF35C47
:101F700002E10550035C04E205683F0E066E46D0A0
:101F80000750055C096E085006580A6EE86A0ABEDA
:101F9000FF0E0B6EE56E0B50E56E0A50E56E0950B4
:101FA000E56EE56AE56A400EE56E000EE56A17EC3F
:101FB0001FF0096EF3CF0AF0F4CF0BF0E9CF0CF06D
:101FC000080EE1260750035C076E08500458086E9F
:101FD000E86A08BEFF0E036EE56E0350E56E08501A
:101FE000E56E0750E56E0C50E56E0B50E56E0A503D
:101FF000E56E0950E56EADEC27F0036EF3CF04F00B
:10200000080EE1260350056E0450066E03018A5146
:10201000800FF36E0650800FF35C02E10550895D7E
:1020200003E3056A066A14D003018951FF08036EB1
:102030003F0E8A55046E0650800FF36E0450800FD9
:10204000F35C02E10350055C03E305683F0E066E96
:1020500003018E51020DF450046EF3CF03F0590EBC
:102060000326040E042203C0E9FF04C0EAFFEECFFA
:1020700003F0EFCF04F00350055C036E04500658E4
:10208000046ED88004AED89004E3041E036CD8B468
:10209000042A022A03018A51800FF36E0450800F34
:1020A000F35C02E10350895DD8B0DCD603018E51A8
:1020B000020DF450086EF3CF07F0590E0726040EF8
:1020C000082207C0E9FF08C0EAFF05C0EEFF06C00E
:1020D000EFFF8BC307F007A459D08E51020DF450C7
:1020E000086EF3CF07F0400E0724096E030E082098
:1020F0000A6E09C0E9FF0AC0EAFFEECF0BF0EFCF8E
:102100000CF00B500C10D8B441D0390E0726040E39
:10211000082207C0E9FF08C0EAFFEECF07F0EFCFC3
:1021200008F00750055C036E08500658046E031053
:102130001CE00450800F800F02E1010E035C076A6F
:1021400007360C50800F800F02E1010E0B5C0B6A0A
:102150000B3607500B1809E109C0E9FF0AC0EAFF76
:1021600003C0EEFF04C0EFFF7DD603018E51020DC8
:10217000F450046EF3CF03F0400E0326030E042246
:1021800003C0E9FF04C0EAFFEE6AEF6A8BC303F005
:1021900003A244D000500EE100C003F0002A046AFC
:1021A0008F0E0326030E042203C0E9FF04C0EAFFDA
:1021B000420EEF6E00C003F0002A046A8F0E032661
:1021C000030E042203018E51076E640E072603C01E
:1021D000E9FF04C0EAFF07C0EFFF00C003F0002AD8
:1021E000046A8F0E0326030E04220650076E03C0F6
:1021F000E9FF04C0EAFF07C0EFFF00C003F0002AB8
:10220000046A8F0E0326030E04220550076E03C0D6
:10221000E9FF04C0EAFF07C0EFFF24D68EC303F036
:102220000650E56E0550E56EE56A0350E56E000E5A
:10223000E56E540EE56EAC0EE56E28EC32F0070E3E
:10224000E12610D602C001F000501EE08BC302F060
:1022500002A21AD000C002F0002A036A8F0E0226E2
:10226000030E032202C0E9FF03C0EAFF0A0EEF6E6D
:102270000050E56E800EE56E030EE56E8F0EE56E86
:1022800056EC29F0040EE1260150E4CF0CF0E4CF27
:102290000BF0E4CF0AF0E4CF09F0E4CF08F0E4CF8C
:1022A00007F0E4CF06F0E4CF05F0E4CF04F0E4CF8C
:1022B00003F0E4CF02F0E4CF01F0E4CF00F012002D
:1022C000D9CFE5FFE1CFD9FF00C0E5FF01C0E5FFB1
:1022D00002C0E5FF03C0E5FF04C0E5FF05C0E5FF60
:1022E00006C0E5FF07C0E5FF08C0E5FF09C0E5FF40
:1022F0000AC0E5FF0BC0E5FF020EDBCF00F0030EC6
:10230000DBCF01F0040EDBCF02F0050EDBCF03F0D4
:10231000060EDBCF04F002500A6E0150096E005029
:10232000086EE56A110EE56E0A50E56E0950E56E1D
:102330000850E56E800EE56E040EE56E230EE56E28
:102340005CEC2AF0080EE12632C405F033C406F036
:10235000E86A040133BFFF0E076E0301F06F0650F9
:10236000EF6F0550EE6FED6B03C005F004C006F093
:10237000E86A04BEFF0E076E086E23C409F0E56A22
:10238000E56AE56A0950E56E0850E56E0750E56EAE
:102390000650E56E0550E56E17EC1FF00301E96F7E
:1023A000F3CFEAF3F4CFEBF3E9CFECF3080EE12639
:1023B00004012451D8B4AFD00450800F800F02E143
:1023C000010E035C25E304012951800F7C0F08E115
:1023D000000E285D05E1000E275D02E1000E265D7E
:1023E00017E204013151800FF36E0301F051800FA9
:1023F000F35C0DE1EF510401305D09E10301EE51A1
:1024000004012F5D04E10301ED5104012E5D33E36E
:10241000D88004AED890D8A043D004012951800FB1
:10242000840F08E1000E285D05E1000E275D02E142
:10243000010E265D35E30301F01D0A6EEF1D096EE6
:10244000EE1D046EED1D036E032A04E1042A02E171
:10245000094A0A2A0A50800FF36E04013151800F95
:10246000F35C08E13051095C05E12F51045C02E1A5
:102470002E51035C15E2055004012625036E06501B
:102480002721046E07502821096E085029210A6E61
:102490000350266F0450276F0950286F0A50296F88
:1024A000040126390F0B036E2739046EF00B041A52
:1024B00003262851E838F00B041228390F0B096E57
:1024C00029390A6EF00B0A1A0926F00E0AB60A26F6
:1024D00024C40BF0E56AE56AE56A0B50E56E0A5024
:1024E000E56E0950E56E0450E56E0350E56E17EC9D
:1024F0001FF0036EF3CF04F0F4CF09F0E9CF0AF038
:10250000080EE12603500301E9270450EA2309508D
:10251000EB230A50EC2304012551D8B465D02A518D
:10252000055C0301F16F04012B5106580301F26FA2
:1025300004012C5107580301F36F04012D51085871
:102540000301F46F800F800F08E1010EF35D05E1D8
:10255000000EF25D02E1000EF15D06E30301F16998
:10256000F269F36BF46B13D00301F451800F810F08
:1025700008E1FF0EF35D05E1000EF25D02E1000EE1
:10258000F15D05E20301F16BF26BF369F46903019C
:10259000F151F125036EF235046EF335096EF43511
:1025A0000A6E25C40BF0E56AE56AE56A0B50E56E34
:1025B0000A50E56E0950E56E0450E56E0350E56E75
:1025C00017EC1FF0036EF3CF04F0F4CF09F0E9CF5E
:1025D0000AF0080EE12603500301E9270450EA231C
:1025E0000950EB230A50EC23055004012A6F0650D2
:1025F0002B6F07502C6F08502D6F0301F051800F87
:10260000F36E0301EC51800FF35C0DE1EB5103011C
:10261000EF5D09E10301EA510301EE5D04E103010D
:10262000E9510301ED5D11E20301ED5104012E6F4B
:102630000301EE5104012F6F0301EF510401306FCC
:102640000301F0510401316F3AD00301F01D066E11
:10265000EF1D056EEE1D046EED1D036E032A04E1F1
:10266000042A02E1054A062A0301EC51800FF36EA9
:102670000650800FF35C08E10550EB5D05E1045066
:10268000EA5D02E10350E95D0AE2035004012E6FA6
:1026900004502F6F0550306F0650316F10D003017A
:1026A000E95104012E6F0301EA5104012F6F030168
:1026B000EB510401306F0301EC510401316FE56A05
:1026C000110EE56E800EE56E040EE56E230EE56ECE
:1026D0000250E56E0150E56E0050E56E5CEC2AF0AC
:1026E000080EE126E4CF0BF0E4CF0AF0E4CF09F0C6
:1026F000E4CF08F0E4CF07F0E4CF06F0E4CF05F034
:10270000E4CF04F0E4CF03F0E4CF02F0E4CF01F033
:10271000E4CF00F0E4CFD9FF1200D9CFE5FFE1CF3D
:10272000D9FF00C0E5FF01C0E5FF02C0E5FF03C01F
:10273000E5FF04C0E5FF05C0E5FF06C0E5FF07C0F3
:10274000E5FF08C0E5FF09C0E5FF0AC0E5FF020E8E
:10275000DBCF00F0030EDBCF01F0040EDBCF02F085
:10276000036A046AC3EC34F0056EFE0A01E077D018
:102770008CEC2FF0C3EC34F0066E030E065CD8A090
:102780005AD0060E065CD8B056D0FD0E0624076E51
:10279000FA6AFB6A0734FA36E834FA36FC0BAE0FF5
:1027A000E56E270EFA22000EFB22E450F96EDDEFF3
:1027B00013F0EFEF13F008EF14F00050090F076E5D
:1027C000000E0120086E000E022007C0E9FF08C0BD
:1027D000F3FF27EC37F0036EF3CF04F02CD000505A
:1027E000090F076E000E0120086E000E0220096E10
:1027F000020E0726000E0822092207C0E9FF08C0C2
:10280000F3FF095027EC37F0036EF3CF04F013D039
:102810000050070F076E000E0120086E000E022008
:1028200007C0E9FF08C0F3FF9DEC37F0010B076E0E
:1028300007C003F0046A06C007F00450E56E0350B9
:10284000E56EE56A0750E56E000EE56E190EE56E61
:10285000820EE56E28EC32F0070EE12640D1070E1D
:10286000055CD8B03CD1FA6AFB6A0534FA36E83424
:10287000FA36FC0B840FE56E280EFA22000EFB22BE
:10288000E450F96E50EF14F06BEF14F07DEF14F09C
:102890008FEF14F0C1EF14F0F7EF14F016EF15F00E
:1028A0000050230F036E000E0120046E000E022064
:1028B000E56E0450E56E0350E56E71EC17F0030E03
:1028C000E126020EE56E00C0E9FF01C0F3FF0250F1
:1028D0003EEC38F004D10050330F036E000E01209F
:1028E000046E000E0220E56E0450E56E0350E56EA6
:1028F000A8EC1BF0030EE126F2D00050440F036E4B
:10290000000E0120046E000E0220E56E0450E56EFC
:102910000350E56EA8EC1BF0030EE126E0D000505A
:10292000090F036E000E0120046E000E0220056EDA
:10293000C3EC34F00A6E096AE56A0AC0F4FF03C00A
:10294000E9FF04C0F3FF055005EC38F0C3EC34F0A8
:10295000086A092608500A2209C0E5FF0AC0F4FFE8
:1029600003C0E9FF04C0F3FF055005EC38F0010E89
:10297000E56E00C0E9FF01C0F3FF02503EEC38F005
:10298000AED00050090F036E000E0120046E000E41
:102990000220056E020E0326000E04220522C3EC5F
:1029A00034F00A6E096AE56A0AC0F4FF03C0E9FF61
:1029B00004C0F3FF055005EC38F0C3EC34F0086AAE
:1029C000092608500A2209C0E5FF0AC0F4FF03C027
:1029D000E9FF04C0F3FF055005EC38F0E56A00C0DC
:1029E000E9FF01C0F3FF02503EEC38F078D0005010
:1029F000070F036E000E0120046E000E0220056E0C
:102A0000C3EC34F0010BF46E03C0E9FF04C0F3FF24
:102A100005509DEC37F0FE0BF410E56E03C0E9FFA6
:102A200004C0F3FF05503EEC38F059D0C3EC34F04D
:102A3000066E0050160F036E000E0120046E000E8D
:102A40000220056E03500C0F076E000E0420086E66
:102A5000000E0520096E0650D880E866D8900A6AF4
:102A60000A360A50D880E866D8900A6A0A360A50B0
:102A7000010BF46E07C0E9FF08C0F3FF09509DEC9D
:102A800037F0FE0BF410E56E07C0E9FF08C0F3FF56
:102A900009503EEC38F00650010A21E1080E0326E9
:102AA000000E04220522E56AF46AF66AF76A03C09A
:102AB000E9FF04C0F3FF05508CEC37F0230E00262D
:102AC000000E01220222E56AE56A0250E56E01501D
:102AD000E56E0050E56E19EC24F0050EE126E4CF1A
:102AE0000AF0E4CF09F0E4CF08F0E4CF07F0E4CF38
:102AF00006F0E4CF05F0E4CF04F0E4CF03F0E4CF38
:102B000002F0E4CF01F0E4CF00F0E4CFD9FF1200EF
:102B100000C0E5FF01C0E5FF02C0E5FF03C0E5FF1F
:102B200004C0E5FF76EC38F0949E8B9E99EC34F06F
:102B3000F3CF01F0F4CF02F0E9CF03F0880F0401E6
:102B4000346F130E0120356F000E0220366F000E19
:102B50000320376FD9EC29F09488820E006E0F0E97
:102B6000016E0F0E036E380E0026035001220F0E69
:102B7000036E800E005E0350015A820E026E0F0E2D
:102B8000036E0F0E046E380E0226045003220F0E41
:102B9000046E800E025E0450035A02C0E9FF03C0B7
:102BA000EAFFEFCF02F0028800C0E9FF01C0EAFFB0
:102BB00002C0EFFF100EE56E000EE56A2FEC2CF060
:102BC000E652E652948A820E006E0F0E016E0F0ED0
:102BD000036E380E0026035001220F0E036E800E86
:102BE000005E0350015A820E026E0F0E036E0F0E2E
:102BF000046E380E0226045003220F0E046E800E5F
:102C0000025E0450035A02C0E9FF03C0EAFFEFCF9F
:102C100002F0028A00C0E9FF01C0EAFF02C0EFFF34
:102C2000110EE56E010EE56E2FEC2CF0E652E65229
:102C3000948C820E006E0F0E016E0F0E036E380E16
:102C40000026035001220F0E036E800E005E03501B
:102C5000015A820E026E0F0E036E0F0E046E380EB6
:102C60000226045003220F0E046E800E025E0450F2
:102C7000035A02C0E9FF03C0EAFFEFCF02F0028C63
:102C800000C0E9FF01C0EAFF02C0EFFF120EE56ECF
:102C9000020EE56E2FEC2CF0E652E6525BEC31F0C2
:102CA000F19E9380810E006E0F0E016E0F0E036E6B
:102CB000380E0026035001220F0E036E800E005EB8
:102CC0000350015A810E026E0F0E036E0F0E046E3A
:102CD000380E0226045003220F0E046E800E025E90
:102CE0000450035A02C0E9FF03C0EAFFEFCF02F02D
:102CF000029000C0E9FF01C0EAFF02C0EFFFE56AF1
:102D0000800EE56E0F0EE56E810EE56E000EE56A33
:102D1000A2EC31F0050EE126330ECD6E9D809F8032
:102D20008A96899E8B80040189859396929E9490C1
:102D3000040192959281800E006E040E016E0F0EBA
:102D4000036E380E0026035001220F0E036E800E14
:102D5000005E0350015A800E026E040E036E0F0EC9
:102D6000046E380E0226045003220F0E046E800EED
:102D7000025E0450035A02C0E9FF03C0EAFFEFCF2E
:102D800002F0029000C0E9FF01C0EAFF02C0EFFFBD
:102D90009382810E006E0F0E016E0F0E036E380EC1
:102DA0000026035001220F0E036E800E005E0350BA
:102DB000015A810E026E0F0E036E0F0E046E380E56
:102DC0000226045003220F0E046E800E025E045091
:102DD000035A02C0E9FF03C0EAFFEFCF02F00292FC
:102DE00000C0E9FF01C0EAFF02C0EFFF9384810E3B
:102DF000006E0F0E016E0F0E036E380E002603508C
:102E000001220F0E036E800E005E0350015A810EE8
:102E1000026E0F0E036E0F0E046E380E0226045063
:102E200003220F0E046E800E025E0450035A02C08D
:102E3000E9FF03C0EAFFEFCF02F0029400C0E9FF10
:102E400001C0EAFF02C0EFFF0C0E666E669A66983C
:102E5000676A0401936B020E946F956B0A0E966F6E
:102E6000976B100E986F070E996F9A919A83800E48
:102E7000E56E040EE56EB60EE56E39EC2FF0030E2E
:102E8000E126800EE56E040EE56ED70EE56E86EC4B
:102E900026F0030EE126800EE56E040EE56EC60EEA
:102EA000E56E86EC26F0030EE1260401B16BB26BF1
:102EB000B36BB46BB591B5959C6B9D6B9E6B9F6B23
:102EC000A46BA56BA66BA76B5DEC38F0E4CF04F0A8
:102ED000E4CF03F0E4CF02F0E4CF01F0E4CF00F060
:102EE0001200D9CFE5FFE1CFD9FF00C0E5FF01C057
:102EF000E5FF02C0E5FF03C0E5FF04C0E5FF05C034
:102F0000E5FF06C0E5FF07C0E5FF08C0E5FF09C013
:102F1000E5FF0AC0E5FF0BC0E5FF020EDBCF00F0C6
:102F2000030EDBCF01F0040EDBCF02F0036A046A6C
:102F3000C3EC34F0056EFE0A01E090D08CEC2FF06B
:102F4000C3EC34F0066E06500EE00650010A1DE098
:102F50000650020A2CE006500A0A3BE006500B0A13
:102F600001E142D069D00050060F076E000E01202B
:102F7000086E000E022007C0E9FF08C0F3FF27EC2F
:102F800037F0036EF3CF04F057D000500C0F076EEC
:102F9000000E0120086E000E022007C0E9FF08C0E5
:102FA000F3FF27EC37F0036EF3CF04F045D0005069
:102FB0000E0F076E000E0120086E000E022007C0E3
:102FC000E9FF08C0F3FF27EC37F0036EF3CF04F0FE
:102FD00033D000C0E9FF01C0F3FF025027EC37F007
:102FE000036EF3CF04F028D00050020F076E000EDE
:102FF0000120086E000E0220096E07C0E9FF08C01C
:10300000F3FF0950D1EC35F0076EF3CF08F0F4CFA1
:1030100009F007360836073608360734030B081858
:10302000081A0818076E0950E844E844FC0B081217
:103030000750036E0850046E0450E56E0350E56EB1
:10304000E56A0650E56E000EE56E5F0EE56E100E49
:10305000E56E28EC32F0070EE126BED0055010E0F8
:103060000550010A36E00550020A01E15BD0055027
:103070000A0A01E180D005500B0A01E195D0ACD0DD
:103080000050060F056E000E0120066E000E022095
:10309000076EC3EC34F00B6E0A6AE56A0BC0F4FFEE
:1030A00005C0E9FF06C0F3FF075005EC38F0C3EC9C
:1030B00034F0096A0A2609500B220AC0E5FF0BC04A
:1030C000F4FF05C0E9FF06C0F3FF075005EC38F038
:1030D00083D000500C0F056E000E0120066E000E0E
:1030E0000220076EC3EC34F00B6E0A6AE56A0BC06F
:1030F000F4FF05C0E9FF06C0F3FF075005EC38F008
:10310000C3EC34F0096A0A2609500B220AC0E5FF15
:103110000BC0F4FF05C0E9FF06C0F3FF075005EC44
:1031200038F05AD000500E0F056E000E0120066ECA
:10313000000E0220076EC3EC34F00B6E0A6AE56ADB
:103140000BC0F4FF05C0E9FF06C0F3FF075005EC14
:1031500038F0C3EC34F0096A0A2609500B220AC081
:10316000E5FF0BC0F4FF05C0E9FF06C0F3FF075001
:1031700005EC38F031D0C3EC34F0046E036AC3ECD4
:1031800034F0066A0326065004220450E56E03500C
:10319000E56E0250E56E0150E56E0050E56ECFEC35
:1031A00033F0050EE12618D0C3EC34F0046E036A48
:1031B000C3EC34F0066A0326065004220450E56E80
:1031C0000350E56E0250E56E0150E56E0050E56E6D
:1031D00019EC24F0050EE126E4CF0BF0E4CF0AF061
:1031E000E4CF09F0E4CF08F0E4CF07F0E4CF06F035
:1031F000E4CF05F0E4CF04F0E4CF03F0E4CF02F035
:10320000E4CF01F0E4CF00F0E4CFD9FF120000C01A
:10321000E5FF01C0E5FF02C0E5FF03C0E5FF59EC93
:1032200025F0C5EC0CF065EC23F099EC34F0006E61
:10323000F3CF01F0F4CF02F0E9CF03F004013451F1
:10324000005E3551015A3651025A3751035A039ED6
:103250003F0E035C08E1FF0E025C05E1FF0E015C1E
:1032600002E1FF0E005CD8B029D199EC34F0F3CF25
:1032700001F0F4CF02F0E9CF03F0880F0401346FBE
:10328000130E0120356F000E0220366F000E032052
:10329000376F05EC1EF0006E0050D8B415EC0FF03F
:1032A00005C0E5FFF2CF05F0F29E0401A95103012C
:1032B000CB6F0401AA510301CC6F0401AB51030190
:1032C000CD6F0401AC510301CE6F0401AD51030178
:1032D000CF6F0401AE510301D06F0401AF51030160
:1032E000D16F0401B0510301D26F0401B151030148
:1032F000D36F0401B2510301D46F0401B351030130
:10330000D56F0401B4510301D66F0401B551030117
:10331000D76F0401AD6BAE6BAF6BB06B05BEF28EB9
:10332000E4CF05F0800EE56E040EE56E930EE56EBB
:1033300036EC09F0030EE1269EC41BF59FC41CF574
:1033400005011C51800F7C0F02E1000E1B5D04E3A0
:1033500005011B69030E1C6F05011C51800F840FB2
:1033600002E1010E1B5D05E2010E05011B6FFC0E63
:103370001C6F05011C51800F800F02E1010E1B5DC7
:1033800010E305011C51800FF36E04019751800F6B
:10339000F35C03E1965105011B5D03E205011B6B24
:1033A0001C6BD88005011CAFD89015E30401971D54
:1033B000016E961D006E004A012A0150800FF36EC7
:1033C00005011C51800FF35C02E11B51005C03E21C
:1033D00005011B6B1C6B04019AA309D0B5A507D08E
:1033E000D88005011CAFD89002E31B6B1C6BD88002
:1033F00005011CAFD89007E31B51FF0F006E030EB1
:103400001C21016E04D01BC500F01CC501F000C0DA
:103410001DF501C01EF505011D51020BE840010B11
:10342000E838E844F46E6650DF0BF410666E1D5108
:10343000010B010BE838F46E6650EF0BF410666E6A
:103440001E351E31016E1D31006E01340132003215
:103450000050676ED88005011CAFD89002E3898EBA
:1034600001D0899E59EC25F0E56AE56AE568E568D2
:103470000401B451E56EB351E56EB251E56EB15140
:10348000E56E9FEC22F0006EF3CF01F0F4CF02F076
:10349000E9CF03F0080EE1260350E56E0250E56E19
:1034A0000150E56E0050E56E000EE56E430EE56ED0
:1034B000920EE56E28EC32F0070EE126E4CF03F021
:1034C000E4CF02F0E4CF01F0E4CF00F01200800E70
:1034D000E56E030EE56E200EE56EDEEC2FF0030EBA
:1034E000E126800EE56E030EE56E000EE56EDEEC65
:1034F0002FF0030EE126800EE56E030EE56E220E20
:10350000E56EDEEC2FF0030EE126800EE56E030E75
:10351000E56E020EE56EDEEC2FF0030EE126800E66
:10352000E56E030EE56E240EE56EDEEC2FF0030E65
:10353000E126800EE56E030EE56E040EE56EDEEC10
:103540002FF0030EE126800EE56E030EE56E260ECB
:10355000E56EDEEC2FF0030EE126800EE56E030E25
:10356000E56E060EE56EDEEC2FF0030EE126800E12
:10357000E56E030EE56E280EE56EDEEC2FF0030E11
:10358000E126800EE56E030EE56E080EE56EDEECBC
:103590002FF0030EE126800EE56E030EE56E2A0E77
:1035A000E56EDEEC2FF0030EE126800EE56E030ED5
:1035B000E56E0A0EE56EDEEC2FF0030EE126800EBE
:1035C000E56E030EE56E2C0EE56EDEEC2FF0030EBD
:1035D000E126800EE56E030EE56E0C0EE56EDEEC68
:1035E0002FF0030EE126800EE56E030EE56E2E0E23
:1035F000E56EDEEC2FF0030EE126800EE56E030E85
:10360000E56E0E0EE56EDEEC2FF0030EE126800E69
:10361000E56E030EE56E300EE56EDEEC2FF0030E68
:10362000E126800EE56E030EE56E100EE56EDEEC13
:103630002FF0030EE126800EE56E030EE56E320ECE
:10364000E56EDEEC2FF0030EE126800EE56E030E34
:10365000E56E120EE56EDEEC2FF0030EE126800E15
:10366000E56E030EE56E340EE56EDEEC2FF0030E14
:10367000E126800EE56E030EE56E140EE56EDEECBF
:103680002FF0030EE126800EE56E030EE56E360E7A
:10369000E56EDEEC2FF0030EE126800EE56E030EE4
:1036A000E56E160EE56EDEEC2FF0030EE126800EC1
:1036B000E56E030EE56E380EE56EDEEC2FF0030EC0
:1036C000E126800EE56E030EE56E180EE56EDEEC6B
:1036D0002FF0030EE126800EE56E030EE56E3A0E26
:1036E000E56EDEEC2FF0030EE126800EE56E030E94
:1036F000E56E1A0EE56EDEEC2FF0030EE126800E6D
:10370000E56E030EE56E3C0EE56EDEEC2FF0030E6B
:10371000E126800EE56E030EE56E1C0EE56EDEEC16
:103720002FF0030EE126800EE56E030EE56E3E0ED1
:10373000E56EDEEC2FF0030EE126800EE56E030E43
:10374000E56E1E0EE56EDEEC2FF0030EE126120094
:10375000D9CFE5FFE1CFD9FF00C0E5FF01C0E5FF0C
:1037600002C0E5FF03C0E5FF04C0E5FF05C0E5FFBB
:1037700006C0E5FF07C0E5FF08C0E5FF020EDBCF8E
:1037800000F0030EDBCF01F0040EDBCF02F0036A82
:10379000046AC3EC34F0056EFE0A01E075D08CECCF
:1037A0002FF0C3EC34F0066E040E065CD8B05AD08D
:1037B000FA6AFB6A0634FA36E834FA36FC0BCE0FA6
:1037C000E56E370EFA22000EFB22E450F96EEFEFA1
:1037D0001BF0FBEF1BF00EEF1CF021EF1CF000C004
:1037E000E9FF01C0F3FF02509DEC37F0076E07C000
:1037F00003F0046A37D00050010F076E000E01205D
:10380000086E000E022007C0E9FF08C0F3FF9DEC20
:1038100037F0076E07C003F0046A24D00050020F8F
:10382000076E000E0120086E000E022007C0E9FF9F
:1038300008C0F3FF9DEC37F0076E07C003F0046A81
:1038400011D000500F0F076E000E0120086E000E01
:10385000022007C0E9FF08C0F3FF27EC37F0036E32
:10386000F3CF04F00450E56E0350E56EE56A0650B0
:10387000E56E000EE56E4E0EE56E2C0EE56E28EC44
:1038800032F0070EE1268DD0040E055CD8B089D049
:10389000FA6AFB6A0534FA36E834FA36FC0BAE0FE6
:1038A000E56E380EFA22000EFB22E450F96E5FEF4F
:1038B0001CF06CEF1CF097EF1CF0ADEF1CF0C3ECAC
:1038C00034F0036E03C0E5FF00C0E9FF01C0F3FF61
:1038D00002503EEC38F065D00050010F036E000E30
:1038E0000120046E000E0220056EC3EC34F0066E5B
:1038F00006C0E5FF03C0E9FF04C0F3FF05503EEC3E
:1039000038F00650D8A44DD00050030F036E000EBF
:103910000120046E000E0220E56AF46AF66AF76A76
:1039200003C0E9FF04C0F3FF8CEC37F03AD000503D
:10393000020F036E000E0120046E000E0220056EC1
:10394000C3EC34F0066E06C0E5FF03C0E9FF04C017
:10395000F3FF05503EEC38F024D00F0E0026000E89
:1039600001220222C3EC34F0066E056AE56A06C045
:10397000F4FF00C0E9FF01C0F3FF025005EC38F08E
:10398000C3EC34F0046A05260450062205C0E5FFA6
:1039900006C0F4FF00C0E9FF01C0F3FF025005ECD0
:1039A00038F0E4CF08F0E4CF07F0E4CF06F0E4CF3E
:1039B00005F0E4CF04F0E4CF03F0E4CF02F0E4CF6D
:1039C00001F0E4CF00F0E4CFD9FF120000C0E5FF22
:1039D00001C0E5FF02C0E5FF03C0E5FF030185511B
:1039E000D8B40AD1A3A81DD0A4A81BD00501295181
:1039F0000501261905E1E9EC37F00501266BFCD03D
:103A0000000E05012925006E016A040E012200C086
:103A1000E9FF01C0EAFFEFCF22F5292B22C573FF92
:103A2000EBD0A4AAE9D071A205D005012781E9EC69
:103A300037F0E2D071A405D005012783E9EC37F017
:103A4000DBD071A048D074CF22F586C300F0016AA4
:103A5000008E22C502F0036A0250001803E10350F1
:103A6000011801E004D0050127897196C5D0050130
:103A7000225104E022510301861929E10501279909
:103A800071960501225103E00501279702D0050137
:103A9000278722C52BF524C52CF505012451006E7E
:103AA000000405012D6F600E05012C25006E016AD2
:103AB000000E012200C0E9FF01C0EAFF22C5EFFFAE
:103AC0002C2B2C51800A02E105012C6B95D00501AD
:103AD0002799718691D074CF22F5050127A921D0AD
:103AE00086C300F0016A008E22C502F0036A02500C
:103AF000001803E10350011801E011D0899AA39A3C
:103B000071980501265104E1736AE9EC37F007D09A
:103B100000C473FF010E0501296FA3886DD0718663
:103B20006BD00501225105012B2705012C51050100
:103B30002D191BE105012B510CE12CC524F50501C4
:103B400027B712D0899AA39A7198736AE9EC37F073
:103B50000BD00501278527B707D0899AA39A7198BA
:103B6000010E736EE9EC37F047D005012C510501C9
:103B7000251908E1050125510501241903E0E9ECA7
:103B800037F03AD024C500F0016A004A012AE56AFC
:103B9000800EE56E0150E56E0050E56E55EC2BF0A1
:103BA000006E040EE12600500501236F05012C195B
:103BB0000FE122C500F01F0E001405012D6F006EED
:103BC000020E00242D6F0501245105012D272D9F84
:103BD0002CC500F005012C2B016A600E0026000E9A
:103BE000012200C0E9FF01C0EAFF22C5EFFF2C510E
:103BF000800A02E105012C6BE4CF03F0E4CF02F070
:103C0000E4CF01F0E4CF00F0120000C0E5FF01C0F6
:103C1000E5FF02C0E5FF03C0E5FF04C0E5FF05C006
:103C2000E5FF06C0E5FF07C0E5FF08C0E5FF09C0E6
:103C3000E5FF006A016A040E015CD8B0E2D09E0E76
:103C400003019C25026E036A030E032202C0E9FFF2
:103C500003C0EAFFEFCF02F00250FF0A01E1CAD031
:103C600003019C39E8441F0B026E150E0224036EFB
:103C7000046A050E042203C0E9FF04C0EAFFEFCF87
:103C800003F09CC304F0070E0416010E056E000E2F
:103C9000066E045006E0E86CD89005360636010F33
:103CA000FCE3076A03500516075006160550061078
:103CB000D880E866D890056A05360550D880E86651
:103CC000D890056A05360550036E046A130E022665
:103CD000050E042202C0E9FF04C0EAFFEFCF05F0A1
:103CE0009CC306F0070E0616010E076E000E086E46
:103CF000065006E0E86CD89007360836010FFCE362
:103D000005C006F0096A0650071609500816075044
:103D10000810D880E866D890076A07360750D88020
:103D2000E866D890076A07360350071801E162D0A9
:103D300003501FE003019C51066E070E0616010E8C
:103D4000076E06500DE006E6E86CD8900736010FC6
:103D5000FDE306D0D89007BED8800732010FFBE301
:103D60000550071202C0E9FF04C0EAFF07C0EFFFD9
:103D700026D002C0E9FF04C0EAFFEFCF05F003013F
:103D80009C51066E070E0616010E076E06500DE0DA
:103D900006E6E86CD8900736010FFDE306D0D89010
:103DA00007BED8800732010FFBE3071C066E0550E3
:103DB000061602C0E9FF04C0EAFF06C0EFFF035089
:103DC00003E1036A032A01D0036A9CC304F0E56A95
:103DD0000350E56EE56A0450E56E000EE56E630E75
:103DE000E56E380EE56E28EC32F0070EE126012A6A
:103DF00001C000F003019C2B100E9C5DD8A01BD7C6
:103E00009C6B0050E4CF09F0E4CF08F0E4CF07F05A
:103E1000E4CF06F0E4CF05F0E4CF04F0E4CF03F004
:103E2000E4CF02F0E4CF01F0E4CF00F01200D9CFEC
:103E3000E5FFE1CFD9FF00C0E5FF01C0E5FF02C00B
:103E4000E5FF03C0E5FF04C0E5FF05C0E5FF06C0D0
:103E5000E5FF07C0E5FF020EDBCF00F0030EDBCF6E
:103E600001F0040EDBCF02F0050EDBCF03F0060EEF
:103E7000DBCF04F0070EDBCF05F0080EDBCF06F03A
:103E8000090EDBCF07F000500301F56F0150F66F0C
:103E90000250F76F0350F86F04500301F96F05509B
:103EA000FA6F0650FB6F0750FC6F0301F5510301D9
:103EB000FB03F4CF01F0F3CF00F000500501026FD7
:103EC0000150036F0301F5510301F903F4CF01F031
:103ED000F3CF00F000500501006F0150016F0301A6
:103EE000F8510301F903F3CF00F005010351002657
:103EF0000050036F0301F7510301FA03F3CF01F000
:103F00000150002600500501036F0301F751030122
:103F1000F903F4CF01F0F3CF00F0050102510026C0
:103F2000035101220050026F0150036F0301F6514B
:103F30000301FA03F4CF03F0F3CF02F0025000269E
:103F40000350012200500501026F0150036F03016D
:103F5000F6510301FB03F3CF00F000500501076F9A
:103F60000301F6510301F903F4CF01F0F3CF00F0A0
:103F700000500501056F0150066F0301F551030163
:103F8000FC03F3CF00F0005005010B6F0301F55166
:103F90000301FA03F4CF01F0F3CF00F00050050164
:103FA000096F01500A6F0501046B0501086B0501DB
:103FB000045105010025006E05010551050101218F
:103FC000016E0501065105010221026E050107512E
:103FD00005010321036E0050006F0150016F025074
:103FE000026F0350036F0501085105010025006EA3
:103FF0000501095105010121016E05010A51050163
:104000000221026E05010B5105010321036E03C05D
:10401000E9FF02C0F4FF01C0F3FF0050E4CF07F056
:10402000E4CF06F0E4CF05F0E4CF04F0E4CF03F0F2
:10403000E4CF02F0E4CF01F0E4CF00F0E4CFD9FF09
:104040001200D9CFE5FFE1CFD9FF00C0E5FF01C0E5
:10405000E5FF02C0E5FF03C0E5FF04C0E5FF05C0C2
:10406000E5FF06C0E5FF07C0E5FF08C0E5FF09C0A2
:10407000E5FF0AC0E5FF0BC0E5FF0CC0E5FF0DC082
:10408000E5FF0EC0E5FF0FC0E5FF020EDBCF00F03D
:10409000030EDBCF01F0040EDBCF02F0050EDBCF09
:1040A00003F0060EDBCF04F0070EDBCF05F0080EA1
:1040B000DBCF06F0200E076E086A06C009F00A6A18
:1040C0000B6A0C6AE56AE56AE56A0950E56E035019
:1040D000E56E0250E56E0150E56E0050E56EBCECF9
:1040E00024F00D6E080EE126300E0D263A0E0D5C02
:1040F00005E30D500E6E270E0E240D6EFF0E0726E3
:104100000822600E07240E6E030E08200F6E0EC0EC
:10411000E9FF0FC0EAFF0DC0EFFF0C50E56E0B503A
:10412000E56E0A50E56E0950E56E0350E56E0250EB
:10413000E56E0150E56E0050E56EADEC27F0006EC7
:10414000F3CF01F0F4CF02F0E9CF03F0080EE1263F
:104150000050011002100310D8A4AFD707C000F020
:1041600008C001F004C002F005C003F000C004F074
:1041700001C005F0004A012A600E0426030E052244
:1041800004C0E9FF05C0EAFFEFCF04F002C0E9FF79
:1041900003C0EAFF04C0EFFF024A032A000E015CDD
:1041A00002E1200E005CE2E302C0E9FF03C0EAFF87
:1041B000000EEF6AE4CF0FF0E4CF0EF0E4CF0DF085
:1041C000E4CF0CF0E4CF0BF0E4CF0AF0E4CF09F039
:1041D000E4CF08F0E4CF07F0E4CF06F0E4CF05F039
:1041E000E4CF04F0E4CF03F0E4CF02F0E4CF01F039
:1041F000E4CF00F0E4CFD9FF120000C0E5FF01C01A
:10420000E5FF02C0E5FF03C0E5FF9EA0B9D0006A4C
:1042100081B2002A0050010BF46E04019B51FE0B89
:10422000F4109B6F006A040180B1002A0050010A5B
:1042300008E10401B16BB26BB36BB46BB581B585AA
:1042400002D00401B595006A04019BB1002A016AFD
:104250009BB5012A0050011801E18ED0006A0401CB
:104260009BB1002A0050010BE844E844F46E9B51D6
:10427000FB0BF4109B6FA951AD5D006EAA51AE59B6
:10428000016EAB51AF59026EAC51B059036E005084
:10429000AD6F0150AE6F0250AF6F0350B06F0F01A2
:1042A00033510401A96F0F0134510401AA6F0F01AA
:1042B00035510401AB6F0F0136510401AC6F0F0192
:1042C0003351002634510122355102223651032246
:1042D00000500401AD6F0150AE6F0250AF6F03503C
:1042E000B06F006A81B4002A0050010BE844F46EFC
:1042F0009B51FD0BF4109B6F006A9BB1002A016A71
:104300009BB3012A0150D880E866D890016A013633
:104310000150001A005019E0B1C400F0B2C401F01D
:10432000B3C402F0B4C403F0002A04E3012A02E398
:10433000024A032A00500401B16F0150B26F0250CB
:10434000B36F0350B46FB58317D0B1C400F0B2C4DB
:1043500001F0B3C402F0B4C403F0FF0E0026012242
:104360000222032200500401B16F0150B26F0250CB
:10437000B36F0350B46FB593CF68C10ECE6E9E90ED
:10438000E4CF03F0E4CF02F0E4CF01F0E4CF00F09B
:104390001200434D2025640A0000430025630000FD
:1043A000D9CFE5FFE1CFD9FF00C0E5FF01C0E5FFB0
:1043B00002C0E5FF03C0E5FF04C0E5FF05C0E5FF5F
:1043C00006C0E5FF07C0E5FF08C0E5FF09C0E5FF3F
:1043D0000AC0E5FF0BC0E5FF0CC0E5FF0DC0E5FF1F
:1043E000020EDBCF00F0030EDBCF01F0040EDBCFBB
:1043F00002F0050EDBCF03F0060EDBCF04F0070E54
:10440000DBCF05F0080EDBCF06F0090EDBCF07F09F
:10441000D88003AED890086A083608500FE0031C15
:104420000C6E021C0B6E011C0A6E001C096E092A20
:104430000DE10A2A0BE10B4A0C2A08D000C009F052
:1044400001C00AF002C00BF003C00CF0D88007AE28
:10445000D890006A003600500FE0071C0D6E061C55
:10446000036E051C026E041C016E012A0DE1022A76
:104470000BE1034A0D2A08D004C001F005C002F088
:1044800006C003F007C00DF00D50E56E0350E56E59
:104490000250E56E0150E56E0C50E56E0B50E56E76
:1044A0000A50E56E0950E56EADEC27F0016EF3CFD2
:1044B00002F0F4CF03F0E9CF04F0080EE12600503B
:1044C000081A085016E0041C076E031C066E021C36
:1044D000056E011C006E002A04E1052A02E1064A6D
:1044E000072A07C0E9FF06C0F4FF05C0F3FF00502C
:1044F00007D004C0E9FF03C0F4FF02C0F3FF01507E
:10450000E4CF0DF0E4CF0CF0E4CF0BF0E4CF0AF0F1
:10451000E4CF09F0E4CF08F0E4CF07F0E4CF06F0F1
:10452000E4CF05F0E4CF04F0E4CF03F0E4CF02F0F1
:10453000E4CF01F0E4CF00F0E4CFD9FF1200D9CFEF
:10454000E5FFE1CFD9FF00C0E5FF01C0E5FF02C0F4
:10455000E5FF03C0E5FF04C0E5FF05C0E5FF06C0B9
:10456000E5FF07C0E5FF08C0E5FF09C0E5FF0AC099
:10457000E5FF0BC0E5FF0CC0E5FF020EDBCF00F04E
:10458000030EDBCF01F0040EDBCF02F0050EDBCF14
:1045900003F0060EDBCF04F0070EDBCF05F0080EAC
:1045A000DBCF06F0090EDBCF07F0D88003AED89042
:1045B000086A083608500FE0031C0C6E021C0B6ED4
:1045C000011C0A6E001C096E092A0DE10A2A0BE182
:1045D0000B4A0C2A08D000C009F001C00AF002C042
:1045E0000BF003C00CF0D88007AED8900FE3071C87
:1045F000036E061C026E051C016E041C006E002A70
:104600000DE1012A0BE1024A032A08D004C000F0A0
:1046100005C001F006C002F007C003F00350E56ECC
:104620000250E56E0150E56E0050E56E0C50E56EEF
:104630000B50E56E0A50E56E0950E56EBCEC24F0B7
:10464000006EF3CF01F0F4CF02F0E9CF03F0080ED3
:10465000E126085016E0031C076E021C066E011CC2
:10466000056E001C046E042A04E1052A02E1064AD4
:10467000072A07C0E9FF06C0F4FF05C0F3FF045096
:1046800007D003C0E9FF02C0F4FF01C0F3FF0050F0
:10469000E4CF0CF0E4CF0BF0E4CF0AF0E4CF09F064
:1046A000E4CF08F0E4CF07F0E4CF06F0E4CF05F064
:1046B000E4CF04F0E4CF03F0E4CF02F0E4CF01F064
:1046C000E4CF00F0E4CFD9FF120000C0E5FF01C045
:1046D000E5FF02C0E5FF03C0E5FF04C0E5FF05C03C
:1046E000E5FF006A9E0E0024016E026A030E02229C
:1046F00001C0E9FF02C0EAFFEFCF01F00150FF0A5D
:1047000001E185D001380F0B026E036A800E02268C
:104710000F0E032202C0E9FF03C0EAFFEFCF02F051
:10472000070E0116010E036E000E046E015006E026
:10473000E86CD89003360436010FFCE3056A02509A
:1047400003160550041603500410D880E866D8906C
:10475000036A033603502DE10038E8441F0B016E55
:10476000026A150E0126050E022201C0E9FF02C0F1
:10477000EAFFEFCF03F00050046E070E0416010E9F
:10478000056E04500DE006E6E86CD8900536010F82
:10479000FDE306D0D89005BED8800532010FFBE3BB
:1047A0000350051201C0E9FF02C0EAFF05C0EFFF98
:1047B0002ED00038E8441F0B016E026A150E012648
:1047C000050E022201C0E9FF02C0EAFFEFCF03F0AD
:1047D0000050046E070E0416010E056E04500DE025
:1047E00006E6E86CD8900536010FFDE306D0D890B8
:1047F00005BED8800532010FFBE3051C046E035093
:10480000041601C0E9FF02C0EAFF04C0EFFF002A5E
:10481000100E005CD8A066D7E4CF05F0E4CF04F01A
:10482000E4CF03F0E4CF02F0E4CF01F0E4CF00F0F6
:104830001200D9CFE5FFE1CFD9FF00C0E5FF01C0ED
:10484000E5FF02C0E5FF03C0E5FF04C0E5FF05C0CA
:10485000E5FF06C0E5FF07C0E5FF08C0E5FF09C0AA
:10486000E5FF0AC0E5FF0BC0E5FF0CC0E5FF0DC08A
:10487000E5FF020EDBCF00F0030EDBCF01F0040EEC
:10488000DBCF02F0050EDBCF03F0060EDBCF04F02A
:1048900003C0E5FF04C0F4FF00C0E9FF01C0F3FF5F
:1048A000025005EC38F00050020F056E000E01209A
:1048B000066E000E0220076EE86A04BEFF0E086E48
:1048C000096E08400C6E0C4209400D6E0D42C00E80
:1048D0000D160C140C180D120C1A0450E840E84088
:1048E0003F0B0C1203400A6E0A4204400B6E0B424F
:1048F000C00E0B160A140A180B120A1A0AC0E5FF9A
:104900000BC0F4FF0CC0F6FF0DC0F7FF05C0E9FFB8
:1049100006C0F3FF07508CEC37F0080E0026000E9F
:1049200001220222E56AF46AF66AF76A00C0E9FF2A
:1049300001C0F3FF02508CEC37F0E4CF0DF0E4CF70
:104940000CF0E4CF0BF0E4CF0AF0E4CF09F0E4CFB1
:1049500008F0E4CF07F0E4CF06F0E4CF05F0E4CFB1
:1049600004F0E4CF03F0E4CF02F0E4CF01F0E4CFB1
:1049700000F0E4CFD9FF1200D9CFE5FFE1CFD9FF96
:1049800000C0E5FF01C0E5FF02C0E5FF03C0E5FF91
:1049900004C0E5FF05C0E5FF06C0E5FF07C0E5FF71
:1049A00008C0E5FF09C0E5FF0AC0E5FF020EDBCF46
:1049B00000F0030EDBCF01F0040EDBCF02F0050E9A
:1049C000DBCF03F0060EDBCF04F0070EDBCF05F0E4
:1049D000080EDBCF06F0090EDBCF07F0086A0450A3
:1049E00005100610071005E1E968F468F368E86847
:1049F00047D0096A0750800BE8440A6E0A501BE151
:104A0000045004260536063607360750035C08E1D5
:104A10000650025C05E10550015C02E10450005CB7
:104A200006E2D890073206320532043204D0092A51
:104A300009C008F0DFD70750035C08E10650025CAC
:104A400005E10550015C02E10450005C08E30450FC
:104A5000005E0550015A0650025A0750035AD8907A
:104A6000073206320532043208C009F00806095040
:104A7000E2E103C0E9FF02C0F4FF01C0F3FF005010
:104A8000E4CF0AF0E4CF09F0E4CF08F0E4CF07F078
:104A9000E4CF06F0E4CF05F0E4CF04F0E4CF03F078
:104AA000E4CF02F0E4CF01F0E4CF00F0E4CFD9FF8F
:104AB000120000C0E5FF01C0E5FF02C0E5FF03C032
:104AC000E5FF04C0E5FF050125510501241901E1B9
:104AD0006AD025C500F00050016E0128006E009ECE
:104AE000600E0024016E026A000E022201C0E9FF7E
:104AF00002C0EAFFEFCF2FF51F0E05012F1725C5C6
:104B00002EF52F5105012E272E51016E020E012484
:104B10002E6F2E9FC3EC34F0016E015003E1016A49
:104B2000012A01D0016AC3EC34F005012F6F2FC5B3
:104B300002F0800E02162FC503F01F0E031603C0ED
:104B400004F003C02FF5045003E124C525F53ED041
:104B500001501EE0025025E0C3EC34F0006E050168
:104B60002F51016E01042F6F0050420A1AE00050CD
:104B70004E0A03E1E6EC31F014D00050460A03E19E
:104B800028EC38F00ED00050490A0BE1FF0009D0A4
:104B900025C530F5025003E029EC2EF002D0AEEC32
:104BA00037F02EC525F5030182510301831906E074
:104BB0000501265103E1F1EC25F008D089BA06D0B1
:104BC0000501265103E172B2E9EC37F0E4CF04F0BD
:104BD000E4CF03F0E4CF02F0E4CF01F0E4CF00F043
:104BE000120000C0E5FF01C0E5FF02C0E5FF03C001
:104BF000E5FF04C0E5FF72A27ED0F1EC35F0006E57
:104C0000005005E10301836B0301826B74D083C301
:104C100001F000500126F1EC35F0026E0050036EF9
:104C20000304006E0250230A1FE1010E005CD8A0AD
:104C300060D0F1EC35F0026E690A03E169EC34F002
:104C400058D00250720A03E1E9EC37F052D002501A
:104C5000730A01E04ED0898A7186A38AA3987450A2
:104C600074507198718845D00250430A05E0025093
:104C7000420A01E03ED006D000C003F0046A038E71
:104C80000350006E00C028F500500401006F010EB3
:104C90000501296F03018351011814E0F1EC35F08F
:104CA000026E05012827000E05012925006E036A02
:104CB000040E032200C0E9FF03C0EAFF02C0EFFFB9
:104CC000292BE8D7000E05012925006E026A040E83
:104CD00002220501281D036E032A00C0E9FF02C05D
:104CE000EAFF03C0EFFF0501292B29C526F50501C1
:104CF000206B01C083F3E4CF04F0E4CF03F0E4CFF2
:104D000002F0E4CF01F0E4CF00F01200D9CFE5FFCC
:104D1000E1CFD9FF00C0E5FF01C0E5FF02C0E5FF1C
:104D200003C0E5FF04C0E5FF05C0E5FF06C0E5FFE1
:104D300007C0E5FF020EDBCF00F0030EDBCF01F072
:104D4000040EDBCF02F000500B0F036E000E0120AB
:104D5000046E000E0220E56AF46AF66AF76A03C080
:104D6000E9FF04C0F3FF8CEC37F00050070F036E2F
:104D7000000E0120046E000E0220056E0050030F8D
:104D8000066E000E0120076E000E0220E56AF46A2E
:104D9000F66AF76A06C0E9FF07C0F3FF8CEC37F04C
:104DA000E56AF46AF66AF76A03C0E9FF04C0F3FF34
:104DB00005508CEC37F00050010F036E000E0120FF
:104DC000046E000E0220056E0050020F066E000EEB
:104DD0000120076E000E0220E56A06C0E9FF07C049
:104DE000F3FF3EEC38F0E56A03C0E9FF04C0F3FFCF
:104DF00005503EEC38F0E56A00C0E9FF01C0F3FF62
:104E000002503EEC38F0E4CF07F0E4CF06F0E4CFF8
:104E100005F0E4CF04F0E4CF03F0E4CF02F0E4CFF8
:104E200001F0E4CF00F0E4CFD9FF12002564202583
:104E3000640A0000D9CFE5FFE1CFD9FF00C0E5FF4C
:104E400001C0E5FF02C0E5FF03C0E5FF04C0E5FFC8
:104E500005C0E5FF06C0E5FF07C0E5FF08C0E5FFA8
:104E600009C0E5FF0AC0E5FF020EDBCF00F0030E2C
:104E7000DBCF01F0040EDBCF02F0050EDBCF03F039
:104E8000060EDBCF04F0070EDBCF05F00038E84458
:104E90001F0B066E076A110E0626050E072206C0B6
:104EA000E9FF07C0EAFFEFCF08F00050096E070ED8
:104EB0000916010E0A6E09500DE006E6E86CD8905E
:104EC0000A36010FFDE306D0D8900ABED8800A3218
:104ED000010FFBE308500A1206C0E9FF07C0EAFF12
:104EE0000AC0EFFFE80E0024066E076A040E0722D0
:104EF00006C0E9FF07C0EAFF01C0EFFF016A230E09
:104F000000260F0E0122800E025E070E02160238E6
:104F1000F00B036E070E05160550032600C0E9FFCF
:104F200001C0EAFF03C0EFFFE4CF0AF0E4CF09F0CD
:104F3000E4CF08F0E4CF07F0E4CF06F0E4CF05F0CB
:104F4000E4CF04F0E4CF03F0E4CF02F0E4CF01F0CB
:104F5000E4CF00F0E4CFD9FF1200D9CFE5FFE1CFD5
:104F6000D9FF00C0E5FF01C0E5FF02C0E5FF03C0B7
:104F7000E5FF04C0E5FF05C0E5FF06C0E5FF07C08B
:104F8000E5FF08C0E5FF09C0E5FF0AC0E5FF0BC06B
:104F9000E5FF0CC0E5FF0DC0E5FF020EDBCF00F022
:104FA000030EDBCF01F0040EDBCF02F0050EDBCFEA
:104FB00003F0060EDBCF04F0070EDBCF05F0080E82
:104FC000DBCF06F0090EDBCF07F0086A096A0A6A30
:104FD0000B6A200E0C6E0350800BE8440D6E0050DF
:104FE00000260136023603360850082609360A36EE
:104FF0000B360D50D8A4088007500B5C08E1065012
:105000000A5C05E10550095C02E10450085C09E313
:105010000450085E0550095A06500A5A07500B5AA8
:1050200000800C040D6E0DC00CF00D50D4E103C0D7
:10503000E9FF02C0F4FF01C0F3FF0050E4CF0DF020
:10504000E4CF0CF0E4CF0BF0E4CF0AF0E4CF09F0AA
:10505000E4CF08F0E4CF07F0E4CF06F0E4CF05F0AA
:10506000E4CF04F0E4CF03F0E4CF02F0E4CF01F0AA
:10507000E4CF00F0E4CFD9FF120000C0E5FF01C08B
:10508000E5FF03C0E5FF04C0E5FF05C0E5FF06C07E
:10509000E5FF07C0E5FF08C0E5FF09C0E5FF0AC05E
:1050A000E5FF0BC0E5FF0FC500F010C501F00501DD
:1050B0000F3F01D0102B0050E56EDBEC37F0E652CD
:1050C000076E046A056A066A0FC500F010C501F094
:1050D00005010F3F01D0102B0050E56EDBEC37F0DF
:1050E000E6520B6A0A6E086A0850041205120A504A
:1050F00006120B5007120FC500F010C501F0050194
:105100000F3F01D0102B0050E56EDBEC37F0E6527C
:10511000036E006A03C001F0E86A03BEFF0E086E6A
:10512000096E005004120150051208500612095071
:1051300007120FC500F010C501F005010F3F01D0A7
:10514000102B0050E56EDBEC37F0E652016A0412DA
:10515000015005120612071207C0E9FF06C0F4FF4E
:1051600005C0F3FF0450E4CF0BF0E4CF0AF0E4CF26
:1051700009F0E4CF08F0E4CF07F0E4CF06F0E4CF85
:1051800005F0E4CF04F0E4CF03F0E4CF01F0E4CF86
:1051900000F01200D9CFE5FFE1CFD9FF00C0E5FF55
:1051A00001C0E5FF02C0E5FF03C0E5FF04C0E5FF65
:1051B00005C0E5FF06C0E5FF07C0E5FF020EDBCF37
:1051C00000F0030EDBCF01F0040EDBCF02F0050E82
:1051D000DBCF03F002C006F00650046E800A33E114
:1051E00000C0E9FF01C0F3FF025068EC36F0056E25
:1051F000F3CF06F0F4CF07F003C0E5FF05C0E9FFE9
:1052000006C0F3FF07503EEC38F000C0E9FF01C0D4
:10521000F3FF025068EC36F0056EF3CF06F0F4CFE2
:1052200007F0052A02E3064A072A05C0E5FF06C083
:10523000F4FF07C0F6FF00C0E9FF01C0F3FF025012
:10524000CCEC37F020D004C000F000AA1CD0007ACB
:105250000050046E04E103507BEC38F014D004508D
:10526000010A04E1035002EC00F00DD004500F0AD3
:1052700004E1035038EC34F006D004500E0A03E188
:1052800003508BEC38F0E4CF07F0E4CF06F0E4CF26
:1052900005F0E4CF04F0E4CF03F0E4CF02F0E4CF74
:1052A00001F0E4CF00F0E4CFD9FF1200D9CFE5FF41
:1052B000E1CFD9FF00C0E5FF01C0E5FF02C0E5FF77
:1052C00003C0E5FF04C0E5FF05C0E5FF06C0E5FF3C
:1052D00007C0E5FF020EDBCF00F0030EDBCF01F0CD
:1052E000040EDBCF02F0050EDBCF03F083C384F3A3
:1052F000030182510301845F8451046E0404846FAE
:1053000003C004F0056A030E0426D8B0052A84C33E
:1053100006F0076A0750800FF36E0550800FF35CAC
:1053200002E10450065C02E2E86830D0020E035C41
:1053300002E2E86A2BD00350046E0404036EE56EAB
:10534000E4EC32F0E652046A0350045C14E20450C8
:105350000024056EE86A0120066EE86A022005C096
:10536000E9FF06C0F3FF9DEC37F0042AE56EE4EC9C
:1053700032F0E652E9D783C384F30301825103017B
:10538000845F8451006E0004846FE86AE4CF07F004
:10539000E4CF06F0E4CF05F0E4CF04F0E4CF03F06F
:1053A000E4CF02F0E4CF01F0E4CF00F0E4CFD9FF86
:1053B000120000C0E5FF01C0E5FF02C0E5FF03C029
:1053C000E5FF04C0E5FF006A110E0024016E026AC9
:1053D000050E022201C0E9FF02C0EAFFEF6A002ABF
:1053E000020E005CF1E3006A0050020DF450026E00
:1053F000F3CF01F0E00E0124036E000E0220046ED4
:1054000003C0E9FF04C0EAFFEE6AEF6A390E012427
:10541000036E040E0220046E03C0E9FF04C0EAFF1D
:10542000EE6AEF6A590E0124036E040E0220046E28
:1054300003C0E9FF04C0EAFFEE6AEF6A000E012430
:10544000036E030E0220046E03C0E9FF04C0EAFFEE
:10545000EE6AEF6A200E0126030E022201C0E9FF68
:1054600002C0EAFFEE687F0EEF6E230E0024016E8D
:10547000026A0F0E022201C0E9FF02C0EAFFEF68D4
:10548000002A100E005CD8A0AFD7AF0EC06EC16A64
:10549000010EC26EC282E4CF04F0E4CF03F0E4CF89
:1054A00002F0E4CF01F0E4CF00F0120043204120ED
:1054B00025642025640A0000D9CFE5FFE1CFD9FF9C
:1054C00000C0E5FF01C0E5FF02C0E5FF03C0E5FF46
:1054D00004C0E5FF05C0E5FF06C0E5FF07C0E5FF26
:1054E00008C0E5FF09C0E5FF0AC0E5FF0BC0E5FF06
:1054F0000CC0E5FF020EDBCF00F0030EDBCF01F0A6
:10550000040EDBCF02F0050EDBCF03F0060EDBCF7F
:1055100004F0070EDBCF05F0080EDBCF06F0090E16
:10552000DBCF07F002500A6E0150096E0050086E82
:1055300006C00BF007C00CF0FF0E062607220B502A
:105540000C101AE003C0E9FF04C0F3FF05509DEC06
:1055500037F00B6E032A02E3044A052A0BC0E5FF6D
:1055600008C0E9FF09C0F3FF0A503EEC38F0082AF2
:10557000DFE3094A0A2ADCD702C0F4FF01C0F3FFC7
:105580000050E4CF0CF0E4CF0BF0E4CF0AF0E4CF0E
:1055900009F0E4CF08F0E4CF07F0E4CF06F0E4CF61
:1055A00005F0E4CF04F0E4CF03F0E4CF02F0E4CF61
:1055B00001F0E4CF00F0E4CFD9FF1200D9CFE5FF2E
:1055C000E1CFD9FF00C0E5FF01C0E5FF02C0E5FF64
:1055D00003C0E5FF04C0E5FF05C0E5FF020EDBCF19
:1055E00000F0030EDBCF01F0040EDBCF02F0005021
:1055F000020DF450036EF3CF00F0390E0024046E58
:10560000040E0320056E04C0E9FF05C0EAFF01C0D7
:10561000EEFF02C0EFFF590E0024046E040E0320BB
:10562000056E04C0E9FF05C0EAFFEECF04F0EFCF3E
:1056300005F00150045C016E02500558026E400EE8
:105640000026030E032200C0E9FF03C0EAFF01C0E9
:10565000EEFF02C0EFFFD88002AED89004E3021E36
:10566000016CD8B4022A0250800F800F02E1030EB1
:10567000015C02E2016A026A0150021007E100C007
:10568000E9FF03C0EAFF000EEE6AEF6AE4CF05F01F
:10569000E4CF04F0E4CF03F0E4CF02F0E4CF01F074
:1056A000E4CF00F0E4CFD9FF1200D9CFE5FFE1CF7E
:1056B000D9FF00C0E5FF01C0E5FF02C0E5FF03C060
:1056C000E5FF04C0E5FF05C0E5FF06C0E5FF020EEB
:1056D000DBCF00F0030EDBCF01F0040EDBCF02F0D6
:1056E000050EDBCF03F0D88001AED890046A0436F3
:1056F000045007E0011C066E001C056E054A062AD0
:1057000004D000C005F001C006F0D88003AED890E8
:1057100007E3031C016E021C006E004A012A04D03C
:1057200002C000F003C001F00150E56E0050E56ECC
:105730000650E56E0550E56E87EC2EF0006EF3CF57
:1057400001F0040EE12604500AE0011C036E001C67
:10575000026E024A032A03C0F3FF025003D001C0C5
:10576000F3FF0050E4CF06F0E4CF05F0E4CF04F0FF
:10577000E4CF03F0E4CF02F0E4CF01F0E4CF00F097
:10578000E4CFD9FF1200D9CFE5FFE1CFD9FF00C0A8
:10579000E5FF01C0E5FF02C0E5FF03C0E5FF04C06F
:1057A000E5FF05C0E5FF020EDBCF00F0030EDBCF07
:1057B00001F0040EDBCF02F0050EDBCF03F00FC5C6
:1057C00004F010C505F005010F3F01D0102B035068
:1057D000E56E0450E56EADEC35F0E652E6520FC5CD
:1057E00004F010C505F005010F3F01D0102B025049
:1057F000056EE56E0450E56EADEC35F0E652E6520E
:105800000FC504F010C505F005010F3F01D0102BA6
:105810000150E56E0450E56EADEC35F0E652E6520F
:105820000FC504F010C505F005010F3F01D0102B86
:105830000050E56E0450E56EADEC35F0E652E652F0
:10584000E4CF05F0E4CF04F0E4CF03F0E4CF02F0BE
:10585000E4CF01F0E4CF00F0E4CFD9FF1200D9CFBC
:10586000E5FFE1CFD9FF00C0E5FF01C0E5FF02C0C1
:10587000E5FF03C0E5FF04C0E5FF05C0E5FF06C086
:10588000E5FF020EDBCF00F0030EDBCF01F00038A6
:10589000E8441F0B026E036A110E0226050E032256
:1058A00002C0E9FF03C0EAFFEFCF04F00050056E2D
:1058B000070E0516010E066E05500DE006E6E86CB3
:1058C000D8900636010FFDE306D0D89006BED880EA
:1058D0000632010FFBE30450061202C0E9FF03C0C9
:1058E000EAFF06C0EFFFE80E0024026E036A040E12
:1058F000032202C0E9FF03C0EAFF01C0EFFF016A13
:10590000230E00260F0E012200C0E9FF01C0EAFFAE
:10591000FF0EEF68E4CF06F0E4CF05F0E4CF04F02B
:10592000E4CF03F0E4CF02F0E4CF01F0E4CF00F0E5
:10593000E4CFD9FF1200D9CFE5FFE1CFD9FF00C0F6
:10594000E5FF01C0E5FF02C0E5FF03C0E5FF04C0BD
:10595000E5FF05C0E5FF06C0E5FF020EDBCF00F066
:10596000030EDBCF01F0040EDBCF02F005011F5167
:1059700019E13DEC28F0036EF3CF04F0F4CF05F00D
:10598000E9CF06F003C0E5FF04C0F4FF05C0F6FF51
:1059900006C0F7FF00C0E9FF01C0F3FF02508CEC26
:1059A00037F01ED005011F51010A1AE100C0E9FFBE
:1059B00001C0F3FF0250D1EC35F0006EF3CF01F0DF
:1059C000F4CF02F0E9CF03F00350E56E0250E56E2C
:1059D0000150E56E0050E56EC3EC2BF0040EE1269D
:1059E000E4CF06F0E4CF05F0E4CF04F0E4CF03F019
:1059F000E4CF02F0E4CF01F0E4CF00F0E4CFD9FF30
:105A00001200D9CFE5FFE1CFD9FF00C0E5FF01C00B
:105A1000E5FF02C0E5FF03C0E5FF04C0E5FF020E9D
:105A2000DBCF00F0030EDBCF01F0040EDBCF02F082
:105A30000050070F036E000E0120046E000E0220BE
:105A4000E56E0450E56E0350E56E68EC32F0030E2F
:105A5000E1260050230F036E000E0120046E000E9D
:105A60000220E56E0450E56E0350E56EE4EC2EF086
:105A7000030EE1260050330F036E000E0120046E6A
:105A8000000E0220E56E0450E56E0350E56ECAEC90
:105A90002DF0030EE126440E0026000E0122022204
:105AA0000250E56E0150E56E0050E56ECAEC2DF037
:105AB000030EE126E4CF04F0E4CF03F0E4CF02F0DC
:105AC000E4CF01F0E4CF00F0E4CFD9FF1200D9CF4A
:105AD000E5FFE1CFD9FF00C0E5FF01C0E5FF02C04F
